:200096007EF47F007D007C004305128E828F838DF0EC0235147F00BF1200500FEF24F4F585
:2000B60082E43400F583E4F00F80EC020096E582FF7003F58222EFC4540FFF74014FF5826F
:2000D60022AF82789AE2FEBE030774015F04FF80028E078F8222201206789CE27001221209
:2000F6001755858226789CE26006789CE2FE800885268212110CAE82EE0303543FFD530511
:2001160003EEC4540FF5277896E2F5288E82C006C0051200D7858229D005D006789BE2F53F
:200136002A7898E2F52B789CE2601874015E04F529300116900308E0C4540FFE74035EF559
:200156002B8007E5297003F528FD7403B52A03752A027BF47E00E52B2459F530E43436F560
:20017600317403B52B0474018001E4F532740FB52703D38001C39202EDB40100B39203E401
:20019600BD030104F533BD0303D38001C3920474015528F534E4F535BD020104FD752C0061
:2001B60074FA252C500302009685273685292D3002123001058533378006A203E433F537EB
:2001D600E5377004C2058002D205A205E433F52E200153E528600EED604CE53445356046B7
:2001F600752D008041E52A6034E52C2487F9E7602C852C4B852682C006C005C003121128F9
:20021600AA82D003D005D0068A36BA0F08900305E0FA20E708852A2D752E00800985273622
:20023600200403752D00E52D7007F52FFCFA0202E2E52E6065E52C90364D93FF853082850C
:200256003183E4938FF0A42525F537E532600FE52C90365393249EF9E7FF2537F53774AB39
:200276002537400E7C00E53775F003A4F52FF4FA805A745625374011E53724ABFF7A0075DE
:20029600F003A4FCF4F52F8043E537FF245675F003A4FAF4FC752F008032C005E53675F0B4
:2002B60003A42476FD743635F0FF8D828F83E493FA0DBD00010F8D828F83E493FC0DBD0052
:2002D600010F8D828F83E493F52FD0057401B52D3B8A82C006C005C004C0031200C4AA82B5
:2002F600D003D0048C82C003C0021200C4AC82D002D003852F82C004C003C0021200C4852B
:20031600822FD002D003D004D005D0068B828E83ECF08B828E83A3EAF08B828E83A3A3E514
:200336002FF074032BFBE43EFE052C0201B6AF82E51D2FFFE51EFE2F2E2EFFC3EF951E4050
:2003560007EFC3951EFF80F38F8222AF82BF8000404EC201E538C454F0FE43060AEFC45438
:2003760001B401009206E4334E789CF274EF5FFE247F789625E0F2BE8106789CE24404F2D1
:20039600BE8007789CE4F27896F2123597AB82E583FCC313CB13CB747D2B7897F20200EC1F
:2003B600E538FE30E304EE24F0FE74015FF539BF0B00406B789AE2FC789BE225E025E0FB94
:2003D6004204BF0C347B00EB90367193B5040280060BBB050040F08B02BB05087A00EE2079
:2003F600E7027A048E1D751E058A82C007C004120344858238D004D007E53890367193F587
:2004160038BF0D07ECB5380375380FAC3874035C789AF2EC0303543FFC789BF2020517BF05
:20043600092BC007C00612175512110C1200D7AC82D006D007789BE2FBBB03027B02C3EC98
:200456009B50028B04789AECF2789BECF2BF0A097C007B0475380F80107C027B04BF08004C
:200476005007EFC313FCFA04FBBF0304C3E49EFEC3EC9B4003020517AA38E5396058EC24D9
:2004960098F9E3F53A7D04BC0200402C7403FDB53A26753A02BC0220C007C006C005C004CA
:2004B600C00312175512110C1200D785823AD003D004D005D006D0078E1D8D1E853A82C00C
:2004D60007C006C004C003120344AA82D003D004D006D0078021BA0F1E7A03EC700C9003D9
:2004F60008E0C4540FFD74035DFABC010A900308E0FD23235403FAEC2498F8EAF20C0204A8
:2005160086BF02028008BF03028003BF0A0E123597AC82AD83AEF0FF789DA6040200ECAFA1
:2005360082789CE220E13E8F82C00712110CAE82D007EE0303543FFE5306037896E4F2BE5D
:200556000103048001E4FD7003BE0219ED60067D067E00800C0FEF3395E0FCEF2FFDEC3313
:20057600FE7896EDF2AE3BE53CC313CE13CE747D2E7897F20200ECAE82AF837896E260111A
:20059600EFC313CE13CEFF7897D3E29EF4FE30E701227896E214F27897E2FF7897747D2F2F
:2005B600F27896E2700A789CE230E104789CE4F20200EC9001DDE4F0A3F0900603022562EF
:2005D6007EF47F007D00BD0600501F8E828F83E4F08E828F83A314F08E828F83A3A3E4F06A
:2005F60074032EFEE43FFF0D80DC12009675E200C2AF75890090C3501235D490C3501235A1
:20061600D412380080FEAF82BF060AA2B3B39207E433F58222BF050AA2B2B39207E433FE54
:200636008013EF90364893FFE5905207EFB401009207E433FE8E8222A2B0E43325E0FFA221
:20065600B1E4334FF58222AF82C00712061CAE82D007EF2480F98705EEB50502800DA706A5
:20067600EF2FFD248EF8A63D08A63EEF2487F98705EEB5050122EF2F248EF8860408860501
:20069600E53DC39CFCE53E9DFDC3EC940AED94004052A706EE6031BF062E30121BC007C0A7
:2006B6000612175512110CAD82D006D007ED035401FD7004C2088002D208A20892009001EC
:2006D60006E53DF0E53EA3F020120122EE600D853D68853E698F8212178480058F821219B1
:2006F600840200EC2212064EAF827894E2B50701227894E225E025E04F90366193FE7894E1
:20071600EFF220120122EE70057895E4F2227895E22EF27895C3E264809484400D7895E42A
:20073600F2758201121A1D0200EC7895C3E2F5F0747C63F08095F0400D7895E4F27582007C
:20075600121A1D0200EC2220121020160D9001DDE4F0A3F0900202122562789CE230E10498
:20077600789CE4F2123597AC82AD8330120F900308E0C4540FFF5307037E0080047F007EEF
:20079600007898EFF230120D900308E023235403FE7F0080047E007F007899EEF2789B7475
:2007B60003F2789AF27F00EF24F94035EF2480F9EF2487F88F82C007C005C004C001C0002A
:2007D60012061CAE82D000D001D004D005D007A606A706EF2FFE248EF8A60408A6050F8073
:2007F600C6C005C00412064EE582D004D0057894F2A212B39200900106ECF0EDA3F0201202
:2008160011900108ECF0EDA3F09000F574FFF0020096C005C0041217227895E4F212175507
:20083600E582D004D005789CF67896E4F2789DA604F5257F00BF06005009EF249EF876000F
:200856000F80F2900270E0600B8C3B8D3C789C86820205350200EC121ED84390F24392F24A
:200876004393F243B00F740F459654EFF59643971F1200AB20121020160D9001DDE4F0A34C
:20089600F090010112256212075D1227BA75820612061CE582600F9001DD7401F0E4A3F06D
:2008B60090040302256222123597AC82AD8320121020160D9001DDE4F0A3F090030212257E
:2008D6006230120BC005C004121E8DD004D0058C828D83C005C004122A9DD004D0058C822D
:2008F6008D83C005C0041222FED004D0057F00EF24F940188C3D8D3E8F82C007C005C00496
:2009160012065DD004D005D0070F80E3C005C0041206FBD004D0058C07789DEFC396FE78AF
:200936009CE2600B900308E023235403FB80047899E2FBEB90365D93FBC3EE9B50030209ED
:20095600DD789CE26013789CE2FE30E3068E037E00802D7B007E00802730121BC007C005E9
:20097600C00412175512110CAA82D004D005D0078A3F7540008005E4F53FF540AB3FAE401C
:200996005303FC7E00C374F09B74808EF063F08095F05033789DA60705257F037E00BE06B2
:2009B600005019EF55257008EE249EF9E7FB04F78F03EB2BFB74014BFF0E80E2C005C004F6
:2009D6001200ECD004D00530002E788DE66029900106E0FEA3E0FFECC39EFAED9FFBC3EA16
:2009F60094B8EB940B40119001DDECC39EF0ED9FA3F0900504122562201230789CE2702ACC
:200A1600900108E0FEA3E0FFECC39EFEED9FFFC3EE94F4EF94014012900108ECF0EDA3F0ED
:200A36009000F5E064FFF0020096228C828D83C005C004121A7A121759E582D004D00570DF
:200A560015C005C004121755AF82D004D005789CE6B507028054C005C004121755AF82D0F6
:200A760004D005789CE6B507028026789CE230E104789CE4F2C005C004121755E582789CB2
:200A9600F612064EE582D004D0057894F27895E4F2789CE220E1138C3B8D3C789C8682C07D
:200AB60005C004120535D004D0058C828D8302058D900185E4F0900184F07F00BF06067DFA
:200AD600067E0080048F057E008DF005F07401800225E0D5F0FBFEEF2480F9E7600D900149
:200AF60084E0FDEE4205900184EDF0EF2487F9E7600C900185E0FD4206900185EEF00FEF45
:200B160024F950B8900187E590F0900188E5B0F09001897894E2F090018A7895E2F0A200EB
:200B3600E43390018BF0900106E0FEA3E090018CEEF0900106E0A3E0FE90018DEEF0789A83
:200B5600860790018EEFF0789A86060886078F0690018FEEF090017DE0FF3001067D107EFF
:100B76000080047D007E00ED420790017DEFF022AB
:20364800028040201000010205040300030104020500152A6D04060A1200FF01000100007F
:0E366800FFFF0000010001FF000F0D05040030
:200B8600AF827E007D00C3ED9F500EE51EC39DFC1C8E03EC2BFE0D80EDE51D2EC39F14F540
:200BA600822285821D85831E7CFF7DFF7B00300906790E7A00800479067A008B007F00E820
:200BC6006201EF6202E954FE6032EB251DF582E4351EF583E0FEE46204EE62057F088D06A2
:200BE600530680EC2CFCED33FDEE600E8C028D066302216306108A048E05DFE20BBB800041
:200C060040AC8C828D8322E582FF7002D3221F1F1F1FEF249E4002D322EF249C24F4920A0E
:200C2600B322E582FF2544F582E43545F583E0FE740F5EFDEEC4540FFE7C000FBF00010C97
:200C4600EF2544F582EC3545F583E0FFE5432542FC7402B54608BD0F028003754601ED24E0
:200C6600F05003020E35ED240A83F582ED241483F583E473F5515170788B9EDFDF041F339E
:200C8600BFBFCD9A0D0D0D0D0D0D0D0D0D0E0E0D0D0D0C0C7402B54602800AC3EF9C400509
:200CA600BF80004002C322C3EC9F5013EC2544FAE43545FB8A828B83E060010C0C80E8ECA8
:200CC600B50702D322C322BF80004013BF8005EEB401002274EF5F247F24F7920BB322EFFA
:200CE60024F25002C322BF0A05EEB4010022BF0D07EE14FCBC040022BF0B07EE24FB920BE0
:200D0600B322EF20E003BF0C0C8E035303077C00EB4C24FF22BE0F02D322BF04005007EE7D
:200D260024FC920BB322EE24FD920BB322EE24FE920B400EEF24F9920B500BBFFA00920B45
:200D46005004C20B8002D20BA20B22E546600BBD0203D38001C3920B40078F82120C0D406F
:200D660004C20B8002D20BA20B22EFB40100920BB322E5467006EE7003EF7004C20B8002A4
:200D8600D20BA20B22EE24FD920B4003EF7004C20B8002D20BA20B22E546254625E0FC7449
:200DA600034C5E700BBF8003D38001C3920B5004C20B8002D20BA20B22AC467402C39CFCFD
:200DC600C3EE9C500BBF8003D38001C3920B5004C20B8002D20BA20B22E5466003BD0706C8
:200DE600EE7007EF7004C20B8002D20BA20B22EE7005EFB4010022BE0202D322C322EE2453
:200E0600FE920B400BC3EF95414009BFFF028004C20B8002D20BA20B22EE700AC3EF9541E6
:200E26005004E5466004C20B8002D20BA20B22C3228582448583457F00E5476002C322E57A
:200E46004724FE4045854482854583E0FEBE4D3A854482854583A3E0FEBE502E85448285BE
:200E66004583A3A3E0FEBE0C21854482854583A3A3A3A3A3E0FEFC5304017D00AA477B00B3
:200E8600ECB50206EDB503028002C322C006854482854583A3A3A3E0FDFC74075C04F54164
:200EA600EDC423541FFC5304077B00AA417E00C3EC9AEB64808EF063F08095F0D0064001A2
:200EC60022E54124FA5002C322EEC313FE743F5EF548ED23235403FD854482854583A3A3FA
:200EE600A3A3E0FC23540125E025E04D6002C322747F5CF543E54175F016A4FD7C007409F2
:200F06002DFDE43CFCE54875F003A47A002DFDEA3CFCAA437B00EA2DFDEB3CFC8D028C03C9
:200F2600C374809AE49B5002C322EDC39543F5427D097C00C3EC954150507B008B49754AB0
:200F460000C3E5499409E54A648094805033C3E5499407E54A64809480B3920CE433F546FD
:200F66008D82C007C005C004C003120C28D003D004D005D0074001220B8D0274022AFD8096
:200F8600BB8D0374042BFD0C80AA78A4760078A4C3E69548506BC007ED2544F582E4354549
:200FA600F583E0FBC4540FFA5302077E00AC417F00C3EA9CEE64808FF063F08095F0D007A8
:200FC60050328B0453040F7E00C3EC940FEE64809480502078A4E66005C3EF9B50168D06C1
:200FE600EE04F582754600C006C003120C28D003D0064002C3228B0774032EFD78A4068052
:201006008DE5436024AE427F00AC437D00EC2EFEED3FFF1EBEFF011FEE2544FEEF3545FFBB
:201026008E828F83E06002C3227F00C3EF95435035AD427E008F037C00EB2DFDEC3EFEED2E
:201046002544F582EE3545F583E0FE6016BE09028011BE0A02800CBE20004005EE248150C0
:2010660002C3220F80C5E5432542FFBF80005028EF2544FDE43545FE8D828E83E06016BF04
:201086007F02800E7546028F82C007120C28D0074002C3220F0F80D3854482854583120B3C
:2010A600A8AE82AF83854482854583A3A3A3A3A3A3E08E04B50416854482854583A3A3A3F4
:2010C600A3A3A3A3E0FD8F06B506028002C322D322900303E0FF74075F04F5822290030371
:2010E600E0C423541FFF74075FF58222900308E0FF740F5F75F005A4F58222E58275F01659
:20110600A42409F58222E58204F582121101AF827E001FBFFF011E8F8274032EF583E0F5AB
:201126008222AF82C0071210D7AE82D007C3EF9E500674FA254B5004758206228F821211E2
:2011460001AF827E0074122FFFE43EFEE54BC3137C002FFFEC3EFE8F8274032EF583E0FF20
:20116600E54B30E009EFC4540FFD7E0080087C00740F5FFD7E008D8222AF82C0071210D70C
:20118600AE82D007C3EF9E500674F7254C500BE54DF87600E54EF87600228F82121101AF1E
:2011A60082E54C25E02FFEA94D8E82758303E0F7A94E7F000EBE00010F8E8274032FF583EC
:2011C600E0F722AF82900305E0C313FE743F5EF553C0071210D7121101AD82D007E550B566
:2011E6004F02801E74FA254F401874FA25504012C007C0051210D7AC82D005D007C3EF9CDE
:201206004002C322C3E550954F5007AC4F85504F8C50EFC454F0FF85501D751E06854F829C
:20122600C007C005120B86AC82D005D007EC4207755400C3E5549553505E8D82758303E025
:20124600FBB50702801E8D82758303E0FB53038F7A008F0453040F7E00430480EBB5042EDD
:20126600EAB5062AA9518D047E0074012CFAE43EFB8A8274032BF583E0F7A95274022CFC42
:1A128600E43EFE8C8274032EF583E0F7D32205548D0674032EFD809BC322A9
:20367600FF0000FF1607FF1000FF4200FF7C003CFF0064C8141D7B4300FFC8005BFF0000D7
:10369600FF7300B4FF00C2FF0048FFFFFF000000F9
:2012A000AF82C007121E8DD0077408B55502800FE56330E02FAE55C3EE648094814025E50D
:2012C0006330E01078E0E2B4FF02801678E0E22401F2800E78DFE2B4FF02800678DFE22456
:2012E00001F2C32278DDE225E024CDF9EFF378DDE225E024CD04F9E562F378DDE20478DD1A
:201300005407F20555D32278A786077E00EE24ABF9E36014EE249DF9E3FD53050FBD040842
:20132000EE24A4F9E3FD42070EBE070040DFE55C600578E5E242078F8222AF82C007121365
:2013400007AE82D007BF0C09E564FC3395E0FD80047C007D00BF0D09E564FD3395E0FF8002
:20136000047D007F008D7A8C79757B008E82022A12E582FF7002D3227E02EE240CFCE434A4
:2013800001FD8C828D83E0FBB50702D322EB70088C828D83EFF0D3220EBE080040DC227FBD
:2013A000007E00EE240CF582E43401F583E4F00EBE080040EE7E00EE24ABF9E3602FEE24FB
:2013C0009DF9E3FD740F5DFCBC022290010CE0FCEDC4540F420490010CECF0EE24A4F9E3FD
:2013E000F582C007C006121371D006D0070EBE070040C478E67401F2E55C603378E3E254A5
:201400000FFEBE012A78E4E2F582C007121371D007920DE433FE78E6F2EE601390010CE00B
:20142000FE78E3E2C4540FFD420690010CEEF07E00EE240CF582E43401F583E0FDEE24B93E
:20144000F9E3FCEDB5040280027F010EBE080040E0EF602290010C1229A64001227F00EF56
:2014600024B9F9EF240CF582E43401F583E0FEF30FBF080040E9121307AF8278A5E6B50783
:20148000028019757900757A00757B008F82C007122A12D00740012278A5A607E55F6026F0
:2014A000E55FC4540FFE7F00AC607D00EC4FF582ED4EF583122A7A400122755F00E56170B3
:2014C0000578E97401F2D322AF82AE5674F725675004AE58801874FFB559028011855956E4
:2014E0007559FFC007C006121623D006D007740F5FFDFC24F150030215EBEC240A83F58241
:20150000EC241383F583E47332EBF6EBF676EB4141BE7094EBEB2615151515151515151504
:20152000151515151515EFC4540FF538856582020361EF7001228565628566638F820212D7
:20154000A08F5F856560EF20E00678E9E4F28009E561600578E97401F2EF5401700BAD67B8
:201560000DEDFC3395E0FD80047C007D008C612278E17401F222EF30E508E565F478A756A3
:20158000F622EF30E40778A7E56546F62278A7E56566F622C007C0061210D7AD82D006D020
:2015A00007E5652EFE8D04ECC40354F8FC2EF565C3E5659D4008E565C39DF56580F274FFBF
:2015C000B5650385576578E17401F2EF30E405855659801374FFB55904AE568002AE59EE1E
:2015E000B5650280028E57856556228565628566638F820212A02278C8E270012278C8E2AE
:20160000FF1F78C8E4F2EF24ABF87401F2EF249DF9E3F582EF24A4F9E3F5657566008F67B8
:201620000214C8AF567E007D00ED24ABF9E3601EED249DF9E3FC53040FBC0A12ED24B2F936
:20164000E3FCC39E40088C06ED24A4F9E3FF0DBD070040D5EFB55801228F5875550078DDD5
:20166000E4F278DEF2E5617011E55F700578E9E26008755F0078E97401F2755A00755D00E4
:2016800078A77600755B00755C0078E5E4F21215F70216231210E3858256855657855658C1
:2016A00078E1E4F27559FF78C8F278C1F278DFF278E0F27F00EF24C2F8E4F20FBF06004008
:2016C000F478DDE4F278DEF2F555F55AF55D78A77600F55B78E9F2F55FF56178ECF278A860
:2016E0007600F55C78E5F278A576001228F7E58278CCF27F00EF24ABF8E4F2EF24B2F8EFBC
:20170000F2EF249DF8E4F2EF24A4F8E4F20FBF070040E27F00EF24B9F8E4F20FBF080040AE
:20172000F4221228FE12169478B974FFF278A576FF900000122A7AB3920E78E9A20EE433B6
:20174000F202139FE582600678E0E2FF800478DFE2FF8F82228558822278E1E2F58278E162
:20176000E4F222E58224B2F9E3FF7E00EE24B2F8E2FDC3EF9D5003ED14F20EBE070040ECAC
:201780007406F322E582F56A24F94023856AF005F07D017E008006ED2DFDEE33FED5F0F72C
:2017A00078C1E2FB7C005205EC5206ED4E600122AE6A8EF005F07401800225E0D5F0FBFDFA
:2017C00078C1E24DF2C3E56A9406E433FD6009E56A24C2F9E360012278C8E270030218AC97
:2017E000ED700874FFB559030218AC78C8E2FC14F56DED700302189E78CAD3E29568F4B3F3
:20180000FAB308E29569F4FBC006C005C003C0021210F2AC82D002D003D005D0067F00C360
:20182000EA9CEB9F507875516B75526C856D4F856A5078C9E2F582C006C0051211C9D00506
:20184000D006505A78C8E4F2E56D24C2F9EE04F3E56A24C2F9E56D04F3E56D249DF8E56B0A
:20186000F2E56D24A4F8E56CF2E56A249DF8E4F2E56A24A4F8E4F2E56A24ABF8E4F2E56D20
:2018800024ABF87401F2856D82121763856C65756600856D67856B821214C8021623C0062F
:2018A000C0051215F7121623D005D006754D6B754E6C856A4C855882C006C00512117FE547
:2018C0006A249DF9E56BF3E56A24A4F8E56CF2856A82C001C000121763D000D001D005D08B
:2018E00006ED6056C006C001C0001210F2E582D000D001D00660437F00BF0600503C7551CD
:201900006B75526C856A4F8F50855882C007C006C001C0001211C9D000D001D006D0075015
:201920001678C8EE04F2E55878C9F2AC68AD6978CAECF2ED08F2220F80BFE56A24ABC0007E
:20194000F87401F2D000E3F582E2F565756600856A671214C8021623E582FF249DF9E3FE67
:2019600053060FEF24ABF9E36019BE02028008BE04028003BE08067E027F0080047E007F0F
:2019800000EEF322E582FF24F95001228F068EF005F07401800225E0D5F0FBFE78E8F278C2
:2019A000C1E25E700122EEF4FE78C1E25EF28F057E000DBD00010E78C8E27C00B5050EEC0B
:2019C000B5060AC0071215F7121623D0078F82C007121958D007BF0600503FEF24C2F9E304
:2019E000FF60371F8F82C007C001121958D001D0078FF005F07D017E008006ED2DFDEE3340
:201A0000FED5F0F778C1E2FB7C005205EC5206ED4E7007F3EF24C2F8E4F2021623E582FFF6
:201A200060067D017E0080047D027E0074062DFE78C8E2601574FFB55902800EC007C006E9
:201A40001215F7121623D006D007754D6E754E6F8E4C855882C00712117FD007EF60067EC2
:201A6000077F0080047E087F008E67856F65756601856E821214C80216238582708583719F
:201A8000121E8D78C8E2602C78CAD3E29570F4B3FCB308E29571F4FDC005C0041210F2AB60
:201AA00082D004D0057A00C3EC9BED9A40061215F71216231228F7AD8278CCE2B50502803F
:201AC0002D1228F7E58278CCF278B974FFF2121307E582F4FD78A5A605E5616011AD611D47
:201AE000ED249DF9E3F55FED24A4F9E3F56078E9E2600F900000122A7A500678E9E4F2801D
:201B0000012212139F500578E9E2600122E55A701FE55D701BE5557017122A8B920F4010AF
:201B2000AD7078ECD3E29DF4FDBD0800920F5004C20F8002D20FA20FE433FD600578ECE580
:201B400070F27C00EC24ABF9E3FBBB0243EC249DF9E3FA53020FBA0220EC24A4F9E3FA6068
:201B6000187F02EF24B9F9E3FEB5020280060FBF080040EFBF0802806D8C070FEFB561087D
:201B800075610078E97401F2EC24ABF8E4F28056ED6053EB6050EC249DF9E3FF24E424FE5B
:201BA0004019740F5FF582EC24A4F9E3F564C005C00412133AD004D005802B747F5FFEBE40
:201BC0004624AE7078A8EEC396FEBE64004017EC24A4F9E3F5627563008F82C005C0041234
:201BE00012A0D004D0050CBC07005003021B4412139F400122E55A6003021C82E55D605BA1
:201C0000C3E55D947F920F500D855D82758303E06004C20F8002D20FA20FE433FF60107828
:201C2000A6E6600878A616855E5D8003755D00E55D6048855D82758303E0F55A6014AE5DF0
:201C40007F000EBE00010F8E8274032FF58378E2E0F2AF5D74022FF55D8020E555601C78FE
:201C6000DEE225E024CDF9E3F55A0978E2E3F278DEE2FF0478DE5407F21555755B0078E7D4
:201C8000E4F2E55A700122E55A540FFFE55B6003021DC9C007122A8BD0075001227420B54F
:201CA0005A2278E2E2FDE4CDC4CD6DCD54F0CD6DFEED2570FDEE3571FE78EAEDF2EE08F23D
:201CC000755B0322BF0F1478E2E2FE8E5E8E5D78A6E55AC4540FF6755A0022BF066D78E225
:201CE000E2FE7003F55A22C006121307AD82D006E55A30E710EE30E7067BF07C00801C7BBA
:201D0000107C008016EE30E70875720F7573008006757201757300AB72AC738B7B75790030
:201D2000757A008D82C006122A12D006400122EE30E705EE04FD8003EE14FD78E2EDF2EDB7
:201D400060012278A8A670755A0022BF0C028003BF0D1678E2E2F5648F8212133A4001223F
:201D600078ECE570F2755A0022BF07005003BF051778E2E2F565756600756709855A82120A
:201D800014C8755A00021623E55A78E3F278E2E2FE78E4F278E5E4F2EF7003F55A22BF0381
:201DA00004EE78E5F2755C0112139F500578E6E2700122AD70AE7174082DFDE43EFE78EAC0
:201DC000EDF2EE08F2755B01227401B55B2378EAD3E29570F408E29571F430E70122122A37
:201DE0008B500122755C0012139F400122755B02227402B55B52C007122A8BD00750012249
:201E0000EF701C78E7E22401F2AD70AE7174202DFDE43EFE78EAEDF2EE08F2755B0322BFF8
:201E20000322E55A54F0601CE55A24F0F55AAD70AE7174C82DFDE43EFE78EAEDF2EE08F2F1
:201E4000755B0322755A00227403B55B3F78EAD3E29570F4B3FDB308E29571F4FE20E72C4E
:201E60007420B55A04755A0022EF7003F55B22755C0112139F5015AE70AF7174082EFEE431
:201E80003FFF78EAEEF2EF08F2755B012278DDE2B40800500E78DEE2B408005006E55524ED
:201EA000F7500D9001DDE4F0A3F09008061225621210D7AF82C3E5589F401B1210D7AE8275
:171EC0007F00AC587D009001DDEC4FF0ED4EA3F0900805022562225C
:201ED8007F008F057E038F82C007C006C0051223DAAC82D005D006D0078D828E83ECF00F29
:201EF800BF800040DD754700900300120E3792119212900300E0FFBFD703D38001C39216B7
:201F180078EDE4F29001D4F0C21022D21022AE82AF8378EDE27003301002C3227D00ED2450
:201F380014FBE43401FCED2EF582E43FF583E08B828C83F00DBD200040E478ED7401F2D39F
:201F580022900118E0FF90011AE0F51090011BE0F511900114E0FCBC0316900115E0FCBC09
:201F7800550E900116E0FCBC4D0690011CE0600475820422900117E0FCBC01028004758288
:201F98000122E51124E8500475820322BF05028003BF0606AB117C0080047B007C00740950
:201FB8002BFCBC20005016EC2414FAE43401FB8A828B83E06004758204220C80E5E4BF03DC
:201FD8000104FC7008BF04028003BF061EE5116016AA117B00A8107900EA28F8EB39F9C388
:201FF800748098E499503175820322E5106003BF0922BF05117403B51103D38001C3B39270
:2020180013E433FB800BE511B40100B39213E433FBEB600475820322EF24F750030222F601
:20203800EF240A83F582EF240D83F583E473F65886E3E3457839EF22202020202121222258
:2020580090013B740EF07F008F0374092BFB3395E0FAEB2434FBEA3401FAEF9036A693F996
:202078008B828A83F00FBF0E0040DD0222FA90013B7406F0A211E43390013DF0301209120C
:202098001755AB827F0080047B007F0090013EEBF03012091210E3AB827F0080047B007F6E
:2020B8000090013FEBF09001D4E0900140F0758200121744AF82900141EFF07582011217F0
:2020D80044AF82900142EFF00222FA90013BE511F0751200C3E512951140030222FAAB12EC
:2020F80074092BFB3395E0FAEB2434FBEA3401FAEC6019E5122510F582C004C003C00212C9
:2021180023DAA982D002D003D0048017A8107F00AD127E00ED28F8EE3FFF888274032FF51D
:2021380083E0F98B828A83E9F0051280A790011DE0FFBF800280047582032290011EE0FFFE
:2021580090011FE0FD7E007C009001D6EE4FF0ED4CA3F09001D5E4F09001D404F00222FACF
:202178009001D4E0FFBF01028004758205229001D5E0FFB510028063AD117E00AB107C003D
:20219800ED2BFBEE3CFC7E00C3EF9BEE9C500475820A227F00C3EF951140030222FAAD102D
:2021B8007E008F037C00EB2DFDEC3EFEED2454F582EE3401F583E0FE8F0574092DFD3395E6
:2021D800E0FCED2414F582EC3401F583E0FDEEB50502800475820A220F80BA7F00C3EF9599
:2021F800115034AD107E008F037C00EB2DFDEC3EFEED2454FDEE3401FE8F0474092CFC33BE
:2022180095E0FBEC2414F582EB3401F583E0FC8D828E83F00F80C69001D5E02511F0022232
:20223800FA9001D4E0FFBF02030222FABF010A9001D5E0FFBF80028004758205229001548F
:20225800120BA8AE82AF839001D6E0FCA3E0FDEEB5041AEFB5051690015AE0FD8E04B504E9
:202278000C90015BE0FD8F06B50602800475820722754700900154120E3740047582062220
:2022980090015412247D921140229001DBE0FE7F009001DAE0FD7C009001DDED4FF0EC4E28
:2022B800A3F0900D09122562758209227F008F057E03EF2454F582E43401F583E08D828E92
:2022D80083F00FBF800040E6D212C21612075D9001D47402F0800B9001D4E4F080047582C3
:2022F800022275820022AE82AF833010109001D4E4F078EDF212075DC21002287C9001D4F4
:20231800E0601D9001D8E0FCA3E0FDEEC39CFCEF9DFDC3EC9488ED941340059001D4E4F0D4
:2023380078EDE270012278EDE2B4010280030223C67D00ED2434F582E43401F583E4F00D94
:20235800BD200040EE9001347404F09001357455F0900136744DF09001377401F07D04ED9B
:202378002434FBE43401FCED2414F582E43401F583E08B828C83F00DBD070040E2C007C04A
:2023980006121F59AD82D006D00790013CEDF0ED7017900118E0FDBD0500400DED24F740BE
:2023B800089001D8EEF0EFA3F078ED7402F220100F90013412280F500778EDE4F202287CE2
:0123D80022E2
:0E36A600554D4143010C000606058003FFFF51
:2023DA0002356EAF82C0071223DAAE82D007EEB513028019A2AF9214C2AF900271E513F08C
:2023FA008F82C007123538D007A21492AF8F82C0071223DAAE82D007EEB51302D322900172
:20241A00DAEFF09001DBE513F08F821223DAE5829001DCF0C322AF82BF8000500A85141356
:20243A008F821223DD4004C2158002D215A21522AE82AF837D008D82C007C006C00512238D
:20245A00DAAC82D005D006D007ED2EF582E43FF583E0FBECB503028002C3220DBD80004039
:20247A00D5D322AE82AF83C007C00612244AD006D0075002D322751300758200C007C00609
:20249A001223DDD006D0075013751300758201C007C0061223DDD006D0074002C3227D028E
:2024BA00ED2EF582E43FF583E0F5138D82C007C006C0051223DDD005D006D0074001220D88
:2024DA00BD800040DB751350758201C007C0061223DDD006D007501375134D758200C00778
:1424FA00C0061223DDD006D0074002C3228E828F8302244A90
:20250E00D209120BA8C209227514D7758200122430500B7514007582041224304002C322F7
:20252E007F01BF04028019EF2454F582E43401F583E0F5148F82C007122430D007400122DF
:20254E000FBF800040DC7514A5758204122430400122D322AE82AF83900169E5D0F0A3E593
:20256E00A8C2AFF0A3E5B8F0A3E587F0900168E581F07850900190792CE6F008A3D9FA786C
:20258E00CD9001C47910E2F008A3D9FA78EEEEF278EFEFF20225A57582001223DAAF82BFE2
:2025AE00D7030205D6123597AA82AB83ACF0FD900164EAF0A3EBF0A3ECF0A3EDF090015454
:2025CE0074D7F09001557444F09001567446F090015774A6F090015814F09001597401F065
:2025EE0090015AE4F090015B74D2F090015C740AF090015DE4F090015E78EEE2F090015FB8
:20260E0078EFE2F09001DDE0FEA3E0900160EEF09001DDE0A3E0FFFE900161EEF090016D39
:20262E0074A9F090016E74FFF090016FE4F078F0741CF278F0E22454F582E43401F5837421
:20264E00FFF078F0E22401F278F0E2B4200040E378F0E4F278F0E2FE7F0074202EFEE43FF3
:20266E00FFEE2454FEEF3401FF78F0E2F582758303E08E828F83F078F0E22401F278F0E26D
:20268E00B4090040CF3011067E017F0080047E007F0074804EFF3012067D027E0080047D13
:2026AE00007E00ED42073010067D047E0080047D007E00ED420790017DEFF090017F74FFEE
:2026CE00F090017EF090018678C1E2F09001C278EDE2F09001D4E09001C3F0122C70120AFE
:2026EE00C790015EE0FFBF09099001DCE0FF90017FF0900300120BA8AE82AF839001E1EE00
:20270E00F0EFA3F09001E374FFF0A3F0900180EEF09001E1E0A3E0FE900181EEF09001E3A9
:20272E00E0FEA3E0900182EEF09001E3E0A3E0FE900183EEF090015412250EAE82AF839056
:1E274E0001DFEEF0EFA3F0900162EEF09001DFE0A3E0FE900163EEF01225160205D68F
:04000000020049327F
:03000B0002357E3D
:0100130032BA
:01001B0032B2
:0100230032AA
:01002B0032A2
:01003300329A
:01003B003292
:0300430002276C25
:0E0080007808E4F608F608F608F6780C760024
:0300920002004623
:030046000227ABE3
:20276C00C024C0E0C0F0C082C083C007C006C005C004C003C002C001C000C0D075D0001291
:20278C00343FD0D0D000D001D002D003D004D005D006D007D083D082D0F0D0E0D024321231
:0E27AC00360F12086D1208BD80FB75820022E8
:2027BA001234CF1234F91234E875DD0075D3002275D30074FC55D24402F5D2C2172230DECC
:2027DA00337402B5DB1190000AE0FFBF010990000BE09001E5F0227420B5DB1890000AE09A
:2027FA00FFBF031090000A121F26500874F355D24408F5D222D310AF01C3C0D0AE82AF839A
:20281A00D218900270E06019201716900238E0600330190DACD25304037D00BC0306BD00D2
:20283A0003C380377D008D037C0074402BFBE43CFCEB240AFBEC3400FCED2EF582E43FF5A8
:20285A0083E0FA8B828C83F00DBD200040D8C218C21975D320D21753D2FCD333D0D092AFE5
:20287A001322D310AF01C3C0D0AED253060C7F00BE0C05BF0002800353D2F3D0D092AF2291
:20289A00E5829001E5F02290023AE4F090023BF090023CF090023DF090023EF0900243F0D0
:2028BA00A3F0900241F0A3F090023FF0A3F07F00EF2445F582E43402F583E4F00FBF080037
:2028DA0040EE90024DE4F090024EF0A3F0C217900239E02401F0C218C2190228FE90023959
:2028FA00E0F58222D310AF01C3C0D0900238E4F0900236F0900237F0D0D092AF22AF82908C
:20291A000236E0242EF582E43402F583EFF0900236E0FF0F74075FF0900238E02401F0D339
:20293A0022858274858375900238E0FDBD08028006900270E07002C322900236E075F00920
:20295A00A424E6FC740135F0FD8C828D837401F00CBC00010D7B00EB2574F9E43575FA89BA
:20297A00828A83E08C828D83F0A3AC82AD83EB2445F8E43402FF89828A83E088828F83F056
:20299A000BBB080040D1758209022917D310AF01C3C0D012293B33D0D092AF1322AF829096
:2029BA000238E0FEBE08028006900270E07002C32290024DEFF0900236E075F009A424E6DC
:2029DA00FD740135F0FE8D828E837402F08D828E83A3EFF08D828E83A3A3E576F08D828ED2
:2029FA0083A3A3A3E577F08D828E83A3A3A3A3E578F0758205022917D310AF01C3C0D08563
:202A1A007976857A77857B781229B733D0D092AF1322AE82AF83900238E0FDBD080280062E
:202A3A00900270E07002C32290024EEEF0EFA3F0900236E075F009A424E6FC740135F0FDAC
:202A5A008C828D837405F08C828D83A38E03EBF08C828D83A3A38F06EEF075820302291795
:202A7A00D310AF01C3C0D0122A2C33D0D092AF1322900238E07007201704C21A8002D21AFF
:202A9A00A21A22D310AF01C3C0D085827C85837D900236E0FDBD08005013900237E0FDBD20
:202ABA0008005009900238E0FD24F7500D9001DDE4F0A3F0900C08122562900238E060035D
:202ADA00022BAA90023EE0FD0D7C00BD010790023AE0FB8011BD020790023CE0FA8005904F
:202AFA00023DE0FA8A038B7FBD010A90023FE0FFA3E0FE8019BD020A900241E0FAA3E0FB86
:202B1A008008900243E0FAA3E0FB8A078B068F028E03E57F7003022B99E57CC39AFAE57DEB
:202B3A009BFBAE7F7F00EE2EFEEF33FFEE2EFEEF33FFC3EA9EEB9F4046BD03067E007F00A5
:202B5A0080048D067F0090023EEEF0BD010890024512293B803ABD021590024DE0FF7576CD
:202B7A00007577007578008F821229B7802290024EE0FEA3E0FF8E828F83122A2C80110D55
:202B9A00ED24FC50027D010CBC03005003022AE5900270E0601C201719900238E060133014
:202BBA00180320190DAED25306037F00BE0306BF0003022C6B900237E0FF75F009A424E659
:202BDA00FD740135F0FE8D828E83E0FCEF242EF582E43402F583E0FF757E00C3E57E9F5019
:202BFA002CC004AA7E7B0074402AFAE43BFBEA240AFAEB3400FB8D828E83E0FCA3AD82AE8E
:202C1A00838A828B83ECF0057ED00480CEBC010C90023FE57CF0E57DA3F0801CBC020C90A6
:202C3A000241E57CF0E57DA3F0800DBC050A900243E57CF0E57DA3F0D2198FD3900237E088
:202C5A00FF0F74075FF0900238E014F0D21753D2FCD0D092AF22900270E09001BCF0301761
:202C7A00067E017F0080047E007F003018067C027D0080047C007D00EC4EFF3019067D04E6
:202C9A007E0080047D007E00ED42079001BDEFF0900236E09001BEF0900237E09001BFF0EA
:202CBA00900238E09001C0F0900239E09001C1F022E582FF7017AE1D90023BEEF090023DCE
:202CDA00EEF090023CEEF090023AEEF022BF010790023AE51DF022BF020790023CE51DF055
:202CFA0022BF050690023DE51DF022E582FF700790023BE0F58222BF010790023AE0F582DE
:202D1A0022BF020790023CE0F58222BF050790023DE0F5822275820022AF82AD1EAE1F8DE6
:202D3A00828E83EFF0BF0143E51D601474012DFBE43EFC9001E5E08B828C83F07582022256
:202D5A007C008C027B000ABA00010BEA2DFAEB3EFBEC2445F582E43402F583E08A828B8377
:202D7A00F00CBC080040DB75820922E51D7039BF023674012DFBE43EFC90024DE08B828C87
:202D9A0083F074022DFBE43EFC74032DF9E43EFA8D828E83A3A3A3A3E4F089828A83F08B1E
:202DBA00828C83F075820522E51D702FBF052C74012DFCE43EFF90024EE0FAA3E08C828F30
:1F2DDA0083EAF074022DFDE43EFE90024EE0A3E0FC8D828E83ECF075820322758200224D
:2036B400120110010000000809125DC500010102030105010906A1018501050719E029E733
:2036D40015002501950875018102950175088103950626FF00190029E781000508190129B4
:2036F4000515002501950575019102950175039103C005010902A1010901A100850205097E
:203714001901290825019508750181020501093009311581257F750895028106093815FFEB
:2037340025017504950181060B38020C008106C0C00600FF0901A10185030902150026FFE3
:20375400007508951F910285040903951F8102C0050C0901A1018505150026FF0F19002A32
:20377400FF0F751095018100C0090229000101008064090400000203000000092110010064
:203794000122B7000705810320000A0705010320000A040309041C0343004800350035001F
:2037B400780020006B006200640020006D006F007300260355006E0069007600650072001B
:2037D400730061006C0020004D006100630072006F007000610064000E0344006500710023
:0637F40069006E00670091
:03008E00751C00DE
:202DFA00C3E5159408921B40067E087F008004AE157F007F00C3EF9E502C8F047D00E51B47
:202E1A00600A851982851A83E0FB8009851982851A83E493FB8C828D83EBF00519E4B5190B
:202E3A0002051A0F80CFE515C39EF5158E8222AFDB7E008E178E1BBF080280030232E1901B
:202E5A000007E060067DFF7F008008900006E0FCFD7F008D157F00900001E0F5168F1C90C2
:202E7A000000E0FD54607003023007900000E0FD5305607C00BD2005BC00028010BD400528
:202E9A00BC000280030230027FFF0232E3900004E07006900005E060057FFF0232E3740938
:202EBA00B51635900000E0FDBD212D900003E0FDBD0225900002E0FDBD03077420B5150296
:202EDA00800D900002E0FDBD010E7402B515098515177518000232E3740AB5164F9000004A
:202EFA00E0FDBD2147E5157043900002E0601C900002E0FDBD01028012900002E0FDBD022C
:202F1A00028008900002E0FDBD0521900270E0601B900002E0FD900003E0F51D8D82C00794
:202F3A00C006122CCBD006D0070232E37402B51654900000E0FDBDA14C900002E0601C90BA
:202F5A000002E0FDBD01028012900002E0FDBD02028008900002E0FDBD052A900003E07030
:202F7A00247401B5151F900270E06019900002E0F582C006122D05AD82D006900000EDF0F5
:202F9A007F010232E37401B51659900000E0FDBDA151900003E0FDBD01028008900003E0A0
:202FBA00FDBD023F900270E06039900002E0FD900003E0FCE4BC020104F51D751E50751F73
:202FDA00028D82C007122D33AE82D007EE600F751950751A02751B017516060232E37FFF03
:202FFA000232E37FFF0232E37FFF0232E3E51624F450030232DDE516240B83F582E51624BC
:20301A001083F583E47353D7DDD7DDE838DDF1084E4E32313231323030323031313190000A
:20303A0003E0FDBD01028017BD0202801DBD03028023BD2102806DBD220280730230E37551
:20305A0019B4751A367E120232E375197D751A377E290232E3900002E070087519A6751AE1
:20307A00378035900002E0FDBD01087519EC751A378025900002E0FDBD02087519C6751A17
:20309A00378015900002E0FDBD03087519AA751A3780057FFF0232E3851982851A83E49342
:2030BA00FE0232E375198F751A377E090232E3900002E0700F7519C6751A36903796E49382
:2030DA00FE0232E37FFF0232E37FFF0232E3900002E0F5150232E3900270E0FD900000F0A5
:2030FA0074FF251540030232E37F010232E3900000E0701F900003E07019900002E0FD248A
:20311A00FE4010900004E0700A900005E07004E51560057FFF0232E3900002E0900270F018
:20313A00C007C0061228A1121F23D006D00775D2120232E3900004E0706E900005E07068FD
:20315A00900002E07062900003E0705C900270E06056740AB5160474018001E4FD602790FF
:20317A000000E0FCBC8103D38001C3921C500E7401B51503D38001C3921C101C02D21CA231
:20319A001CE433FC801F900000E0FBBB0103D38001C3921C5008E5157004C21C8002D21C44
:2031BA00A21CE433FCEC60057FFF0232E3ED70030232E3900000E4F07F010232E39000003C
:2031DA00E0FDBD0216900002E07010900003E0700A900005E07004E51560057FFF0232E367
:2031FA00900004E0FDBD81297403B5160B74FC55D24403F5D20232E374BC55D24402F5D270
:20321A00C007C0061228A1121F23D006D0070232E3900004E0FDBD011B747355D2FD740348
:20323A00B516067B0C7C0080047B007C00EB4DF5D20232E37FFF0232E3900004E0FE900078
:20325A0000E0FDBD8236BE8111ACD2530403E4FDBC0304BD000104FE803BBE0111ACD2531A
:20327A00040CE4FDBC0C04BD000104FE8027EE6003BE80047E00801D7FFF804D900000E0A7
:20329A00FDBD80028008900000E0FDBD8103EE60047FFF8034900005E0700C900002E0704B
:2032BA0006900003E060047FFF801E900000EEF0900001E4F074FE251550047F02800AAF6E
:2032DA001580067FFF80027FFFBFFF0280127406B5160DC3EE951550028E15122DFAAF825D
:2032FA00BFFF077516FF75DCCF22EF24F740168FDDE51760067E027F0080047E007F007401
:20331A00C04EF5DC2275DD00E51760067E027F0080047E007F0074C04EF5DC227405B516A5
:20333A0002800F7406B51618122DFA8582DD63DC4022E5E35480FFE5154FF5E375DC022296
:20335A0075DD0075DC022220DE01227409B51602800302342DE517700302342DE5DB24F78E
:20337A00500302342DAE187F00ACDB7D00EC2EFEED3FFFAC177D00C3EC9EED64808FF063B1
:20339A00F08095F0500302342D7F00C3EF95DB5019EF25182450FDE43402FE8F82758300A0
:2033BA00E0FC8D828E83F00F80E1E5DB2518F518E517B518457420B5171A900250E0FFBF85
:2033DA000312900250121F26500A74F355D24408F5D2801C7402B51713900250E0FFBF0118
:2033FA000B900251E0F58212289A800475DCCF2275170075DD0075DC482274F825DB400788
:20341A007516FF75DC0F2263DC8074F055DC4402F5DC2275DD00E51760077516FF75DC0F5A
:20343A002275DC022220D9030234A5E5D9540F6002802CAED95306307F00BE0005BF0002C2
:20345A008013BE2005BF00028010BE303CBF0039122E498034123361802F123336802AAE04
:20347A00D953060F7F00BE0120BF001DE5D95430600280051227D88010AED95306307F005E
:20349A00BE2006BF00031227CAC2D930D81A121F231228A175DC0275D21275E300C2DAC21B
:2034BA00D9C2D8900270E4F010DA0122E5DA20E20375D8FF2275E20053E27F43E22975E3B9
:2034DA000053E2BF53D1FB75D18043D1012243E10443E10243E10143D81FD2EAD2AF227E38
:1934FA00007F008EEC8FED7E0A7F008EEE8FEF75D21275EAC075DC022256
:20351400ABF0A2AFE433FEC2AFE0A37A0833D2B44002C2B47905D9FEC2B4DAF1DBEBEE6005
:0435340002D2AF22EE
:20353800AF82BF800040012275A15575A1AA43B10475A1007585C0EF2FF584900271E0F53E
:203558008EE58630E60375869A75A15575A1AA53B1FB75A10022AF827585C0EF2FF5847553
:06357800868E858E822282
:06005600E478FFF6D8FD7E
:20357E00C0D075D00808B8000D09B900090ABA00050BBB00010CD0D032A2AFC2AFA808A92F
:20359E0009AA0AAB0BAC0C92AF75F020E8A4A8F075F020E9A428F582A8F075F020EAA42874
:2035BE00F583A8F075F020EBA428F9A8F075F020ECA42889F022AE82AF83C374019EE49F7D
:2035DE0040022200C374029EFE74009FFF00BE0005BF0002002200000000000000000000DC
:2035FE00000000000000000EBE00EB0FBF00ED002275A15575A1AA74F855B94406F5B97507
:20361E00A1009013881235D4759E5D759D0074F055894402F58953C9EF758C06C28DD2A941
:05363E00D28CD2AF2286
:20005C00785DE84400600A799475A000E4F309D8FC787EE84401600C79029000F4E4F0A33E
:04007C00D8FCD9FAD9
:0D0049007581A8123644E58260030200466E
:043644007582002269
:00000001FF
