:200096007E147F017D007C004305128E828F838DF0EC02348A7F00BF1200500FEF2414F5CF
:2000B60082E43401F583E4F00F80EC020096E582FF7003F58222EFC4540FFF74014FF5826E
:2000D60022AF82789AE2FEBE030774015F04FF80028E078F8222201506789CE27001221206
:2000F60018E5858226789CE26006789CE2FE80088526821211C0AE82EE0303543FFD5305CC
:2001160003EEC4540FF5277896E2F5288E82C006C0051200D7858229D005D006789BE2F53F
:200136002A7898E2F52B789CE2601874015E04F52930001690014DE0C4540FFE74035EF517
:200156002B8007E5297003F528FD7403B52A03752A027B147E01E52B24CFF530E43435F5CA
:20017600317403B52B0474018001E4F532740FB52703D38001C39201EDB40100B39202E403
:20019600BD030104F533BD0303D38001C3920374015528F534E4F535BD020104FD752C0062
:2001B60074FA252C500302009685273685292D3001123000058533378006A202E433F537EE
:2001D600E5377004C2048002D204A204E433F52E20005BE528600EED6054E5344535604EA3
:2001F600752D008049E52A603CE52C242DFAE43401FC8A828C83E0602C852C51852682C0EC
:2002160006C005C0031211DFAC82D003D005D0068C36BC0F0890014AE0FC20E708852A2D55
:20023600752E008009852736200303752D00E52D7007F52FFAFC0202EAE52E6065E52C90C8
:2002560035C393FF853082853183E4938FF0A42525F537E532600FE52C9035C9932482F927
:20027600E7FF2537F53774AB2537400E7A00E53775F003A4F52FF4FC805A7456253740112A
:20029600E53724ABFF7C0075F003A4FAF4F52F8043E537FF245675F003A4FCF4FA752F00D2
:2002B6008032C005E53675F003A424ECFD743535F0FF8D828F83E493FC0DBD00010F8D8233
:2002D6008F83E493FA0DBD00010F8D828F83E493F52FD0057401B52D338C82C006C005C037
:2002F60003C0021200C4AC82D002D0038A82C004C0031200C4AA82852F82C0021200C48592
:20031600822FD002D003D004D005D0068B828E83EAF08B828E83A3ECF08B828E83A3A3E514
:200336002FF074032BFBE43EFE052C0201B6AF82E57D2FFFE57EFE2F2E2EFFC3EF957E4030
:2003560007EFC3957EFF80F38F8222AF82BF8000404EC200E538C454F0FE43060AEFC454D9
:2003760001B401009205E4334E789CF274EF5FFE247F789625E0F2BE8106789CE24404F2D2
:20039600BE8007789CE4F27896F212350DAB82E583FCC313CB13CB747D2B7897F20200ECA9
:2003B600E538FE30E304EE24F0FE74015FF539BF0B00406B789AE2FC789BE225E025E0FB94
:2003D6004204BF0C347B00EB9035E793B5040280060BBB050040F08B02BB05087A00EE2004
:2003F600E7027A048E7D757E058A82C007C004120344858238D004D007E5389035E793F552
:2004160038BF0D07ECB5380375380FAC3874035C789AF2EC0303543FFC789BF2020517BF05
:20043600092BC007C0061218E51211C01200D7AC82D006D007789BE2FBBB03027B02C3EC53
:200456009B50028B04789AECF2789BECF2BF0A097C007B0475380F80107C027B04BF08004C
:200476005007EFC313FCFA04FBBF0304C3E49EFEC3EC9B4003020517AA38E5396058EC24D9
:2004960098F9E3F53A7D04BC0200402C7403FDB53A26753A02BC0220C007C006C005C004CA
:2004B600C0031218E51211C01200D785823AD003D004D005D006D0078E7D8D7E853A82C007
:2004D60007C006C004C003120344AA82D003D004D006D0078021BA0F1E7A03EC700C9001DB
:2004F6004DE0C4540FFD74035DFABC010A90014DE0FD23235403FAEC2498F8EAF20C020420
:2005160086BF02028008BF03028003BF0A0E12350DAC82AD83AEF0FF7881A6040200ECAF47
:2005360082789CE230E1047896E4F2789CEFF2EFB401009206B39200EF701E20151B1200DF
:20055600AB90011574FFF012350DAC82AD83900143ECF0EDA3F00200960200ECAF82789C24
:20057600E220E13E8F82C0071211C0AE82D007EE0303543FFE5306037896E4F2BE010304F7
:200596008001E4FD7003BE0219ED60067D067E00800C0FEF3395E0FCEF2FFDEC33FE7896CF
:2005B600EDF2AE3BE53CC313CE13CE747D2E7897F20200ECAE82AF837896E26011EFC31321
:2005D600CE13CEFF7897D3E29EF4FE30E701227896E214F27897E2FF7897747D2FF27896B4
:2005F600E2700A789CE230E104789CE4F20200EC1218B212350DAC82AD83AEF0FFC005C0F6
:20061600041229E6D004D0055038C005C00412350DAA82AB83AEF0FFD004D005EAC39CFAAE
:20063600EB9DFBC3EA9464EB94005016C005C00412350D1229F812350D121D27D004D00534
:2006560080BB7E147F017D00BD0600501F8E828F83E4F08E828F83A314F08E828F83A3A361
:20067600E4F074032EFEE43FFF0D80DC12009675E200C2AF75890090C35012354A90C3501D
:2006960012354A12380080FEAF82BF060AA2B3B39207E433F58222BF050AA2B2B39207E448
:2006B60033FE8013EF9035BE93FFE5905207EFB401009207E433FE8E8222A2B0E43325E09C
:2006D600FFA2B1E4334FF58222AF82C00712069EAE82D007EF2426FCE43401FD8C828D8395
:2006F600E0FBEEB50302801C8C828D83EEF0EF75F002A42434F582740135F0F583E53DF0DC
:20071600E53EA3F0EF242DFCE43401FD8C828D83E0FBEEB5030122EF75F002A42434F58230
:20073600740135F0F583E0FAA3E0FBE53DC39AFAE53E9BFBC3EA940AEB9400405B8C828D07
:2007560083EEF030000E758200C007C006120535D006D00720150122EE6035BF061CC007E4
:200776001218E51211C0E582D0079001425402F0900143E53DF0E53EA3F0C007121D22D096
:20079600074012853D67853E688F8212191480058F82121B180200EC221206D0AF82789436
:2007B600E2B507012230000A758200C007120535D0077894E225E025E04F9035D793FE785B
:2007D60094EFF220150122EE70057895E4F2227895E22EF27895C3E26480948440127895B2
:2007F600E4F2121D224006758201121BBF0200EC7895C3E2F5F0747C63F08095F0401278FB
:2008160095E4F2121D224006758200121BBF0200EC22789CE230E104789CE4F212350DACD8
:2008360082AD83AEF0FF8C3F8D408E04EFC313CC13CC8C82121C2490014DE0C4540FFF7401
:20085600035F7898F290014DE023235403FF7899EFF2789B7403F2789AF27F00EF24F94087
:2008760050EF2426FDE43401FEEF242DFBE43401FC8F82C007C006C005C004C00312069ED5
:20089600AA82D003D004D005D006D0078B828C83EAF08D828E83EAF0EF75F002A42434F5B6
:2008B60082740135F0F583E53FF0E540A3F00F80AB1206D0E5827894F220150B789CE27095
:2008D60005F582020535221218B27895E4F21218E5E5827880F6900142E4F07896F2788165
:2008F600A63FF5257F00BF06005009EF2482F876000F80F2900320E0600D853F3B85403CC2
:20091600788086820205720200EC1220804390F24392F24393F243B00F740F459654EFF5BC
:200936009643971F1200AB12082812270C75820612069EE58260030206062212350DAC829F
:20095600AD83AEF0FF8C028D038A828B83C007C006C005C004C003C0021229F8D002D00309
:200976008A828B83C003C0021224D2D002D003D004D005D006D0073015158E04EFC313CC42
:2009960013CC8C82C003C002121D10D002D0037F00EF24F940188A3D8B3E8F82C007C003DD
:2009B600C0021206DFD002D003D0070F80E3C003C0021207AFD002D0038A077881EFC396B6
:2009D600FE789CE2600B90014DE023235403FD80047899E2FDED9035D393FDC3EE9D500320
:2009F600020A7F789CE26013789CE2FE30E3068E057E00802D7D007E00802730151BC00759
:200A1600C003C0021218E51211C0AC82D002D003D0078C417542008005E4F541F542AD4157
:200A3600AE425305FC7E00C374F09D74808EF063F08095F050337881A60705257F037E00FD
:200A5600BE06005019EF55257008EE2482F9E7FD04F78F05ED2DFD74014DFF0E80E2C00367
:200A7600C0021200ECD002D003201530789CE2702A900143E0FEA3E0FFEAC39EFEEB9FFF00
:200A9600C3EE94F4EF94014012900143EAF0EBA3F0900115E064FFF0020096228A828B8358
:200AB600C003C002121D271218E9E582D002D0037015C003C0021218E5AF82D002D00378BF
:200AD60080E6B507028054C003C0021218E5AF82D002D0037880E6B507028026789CE23036
:200AF600E104789CE4F2C003C0021218E5E5827880F61206D0E582D002D0037894F2789529
:200B1600E4F2789CE220E1138A3B8B3C78808682C003C002120572D002D0038A828B83C0C6
:200B360003C0021205CAD002D003900142E06021900133E0601B900143E0FEA3E0FFEAC320
:120B56009EFAEB9FFBC3EA94B8EB940B4003020606227A
:2035BE00028040201000010205040300030104020500152A6D04060A1200FF01000100000A
:0E35DE00FFFF0000010001FF000F0D050400BB
:200B6800AF827E007D00C3ED9F500EE57EC39DFC1C8E03EC2BFE0D80EDE57D2EC39F14F59E
:200B88008222AE82AF837CFF7DFF7B00BB06028045BB07028040EB2EF582E43FF583E0FAC4
:200BA800E4F96204EA62057A088D017800530180E849B401009208B3E433F57DEC2CFCED80
:200BC80033FDE57D600E8C008D0163002163011088048905DAD30BBB800040B08C828D83E0
:200BE80022E582FF6015EF24FCFE249E9209500BEF2498FF24F49209100902D209A209220B
:200C0800AE82AF83E5432EF582E43FF583E0FD740F5DFCEDC4540FFDAA437B000ABA00010B
:200C28000BEA2EF582EB3FF583E0FBEC24F05003020DF2EC240A83F582EC241483F583E42A
:200C480073CFFCFC1B1B1B1B407281B6DCDE4545690C0C0C0D0D0D0D0D0D0D0D0D0C0D0D91
:200C68000CBB80004013BB8005EDB401002274EF5B247F24F7920AB322EB24F25002C322A9
:200C8800BB0A05EDB4010022BB0D07ED14FABA040022BB0B07ED24FB920AB322EB20E003DC
:200CA800BB0C0C8D015301077A00E94A24FF22BD0F02D322BB04005007ED24FC920AB32227
:200CC800ED24FD920AB322ED7003EB6004C20A8002D20AA20A22ED24FE920A400EEB24F9E5
:200CE800920A500BBBFA00920A5004C20A8002D20AA20A22E545600BBC0203D38001C39259
:200D08000A40078B82120BE94004C20A8002D20AA20A22E545600BBC0503D38001C3920A1F
:200D2800400DED700AEB6007EB24F8920A5004C20A8002D20AA20A22ED6002C322E545B4A4
:200D48000100920A8D04E433C364808CF063F08095F0920A400BBB8003D38001C3920A50A3
:200D680004C20A8002D20AA20A22ED7007EB7004C20A8002D20AA20A22ED7006C3EB9547C7
:200D88004002C322EB6022AA467C008B007900E82AFAE93CFC1ABAFF011CEA2EF582EC3F70
:200DA800F583E06004C20A8002D20AA20A22ED24FE920A4016C3EB95444014BBFF0D8E82C4
:200DC8008F83A3A3E0FFBF07028004C20A8002D20AA20A22ED700AC3EB95445004E54560C4
:200DE80004C20A8002D20AA20A22C322AE82AF83754E00E5486002C322E54824FE40418E13
:200E0800828F83E0FCBC4D388E828F83A3E0FCBC502E8E828F83A3A3E0FC24FAFB24FE407F
:200E28001F8E828F83A3A3A3A3A3E0FBF95301017A00A8487D00E9B50006EAB5050280025E
:200E4800C3228E828F83A3A3A3E0FDFA74075A04F549EDC423541FF8530007790085494F7D
:200E68008950C3E8954FE964808550F063F08095F0400122E54924FA5002C322EBC313FB76
:200E8800743F5BF54ABC0700920B401EED23235403FD8E828F83A3A3A3A3E023540125E0AD
:200EA80025E042058D047D0080047C007D00EC24FB5002C3228E828F83A3A3A3A3E0FD2066
:200EC8000B0353057FE54975F016A42409F8E435F0F9E54A75F003A47B0028F8EB39F9ECD2
:200EE80075F005A47A0028F8EA39F98D027B00EA28FAEB39FB8A008B01C3748098E49950BF
:200F080002C322EAC39DFB754B00C3E54B95495069E54B75F016A42409F9754D00A84D7AAD
:200F280000C3E89409EA64809480504AE54D254D89022AF543A84D7A00C3E89407EA6480D1
:200F48009480B3920BE433F5458549448B468D478E828F83C007C006C005C004C003C00161
:200F6800120C08D001D003D004D005D006D007400122054D80A7054B8090E54975F016A4C0
:200F8800FA2409F54C754D00C3E54D954A400302101EE54C2EF582E43FF583E0F8C4540F68
:200FA800F95301077A00C3E9954FEA64808550F063F08095F05051880153010F7A00C3E92D
:200FC800940FEA64809480503FE54D6006C3E54E985035E54CFA04F5438549447545008B8C
:200FE800468D478E828F83C007C006C005C004C003C002C000120C08D000D002D003D004E3
:20100800D005D006D0074002C322884E74032AF54C054D020F907A00C3EA9C5073E54CF9C4
:2010280004F5438549447545018B468D478E828F83C007C006C005C004C003C002C001126A
:201048000C08D001D002D003D004D005D006D007400122740329F5438549447545018B46CF
:201068008D478E828F83C007C006C005C004C003C002C001120C08D001D002D003D004D0D6
:2010880005D006D0074001220A740529F54C8088ED60228B027C008D007900E82AFAE93C8F
:2010A800FC1ABAFF011CEA2EFAEC3FFC8A828C83E06002C322754D00C3E54D9D4003021117
:2010C800498B017A00854D4F8A50E54F29F8E5503AFCE82EF8EC3FFC88828C83E0605DE52E
:2010E8004F29F8E5503AFCE82EF582EC3FF583E0FCBC09028046E54F29F8E5503AFCE82E9E
:20110800F582EC3FF583E0FCBC0A02802FE54F29F8E5503AFCE82EF582EC3FF583E0FCBCD2
:2011280020004016E54F29F9E5503AFAE92EF582EA3FF583E0FC24815002C322054D021027
:20114800C08E828F83C007C006120B8AAC82AD83D006D00774062EF582E43FF583E0FB8C45
:2011680002B5021274072EF582E43FF583E0FF8D04B504028004C20B8002D20BA20B2290A7
:201188000148E0FF74075F04F58222900148E0C423541FFF74075FF5822275820622900173
:2011A8004DE0FF740F5F75F005A4F58222E58275F016A42409F58222E58204F5821211B56C
:2011C800AF827E001FBFFF011EEF2445F582EE3401F583E0F58222AF82C0071211A2AE828C
:2011E800C006121187AD82D006D007C3EF9D5006C3E5519E4004758206228F82C006121102
:20120800B5AF82D006E4FDFC74032EFEE43CFCEE2EFEEC33FCEE2FFFEC3DFDE551C3137C6F
:20122800002FFFEC3DFDEF2445F582ED3401F583E0FFE55130E009EFC4540FFD7E008008A2
:201248007C00740F5FFD7E008D8222AF82C007121187AE82D007C3EF9E5025C0071211A282
:20126800AE82D0077D0074032EFEE43DFDAB527C00C3EB9EEC64808DF063F08095F0400B6C
:20128800E553F87600E554F87600228F821211B5AF82E55225522FFEA9532445F582E434EE
:2012A80001F583E0F7A9547F000EBE00010FEE2445F582EF3401F583E0F722AF82C0071211
:2012C80011A2AE8290014AE0C313FD743F5DF559C0061211871211B5AC82D006D007E556D9
:2012E800B555028022C3E5559E501CC3E5569E5016C007C006C004121187AB82D004D0065D
:20130800D007C3EF9B4002C322C3E55695555007AB558556558B56EFC454F0FF85567D8E4E
:201328007E855582C007C004120B68AE82D004D007EE4207755A00C3E55A95595062EC2428
:2013480045F582E43401F583E0FBB50702801753038F7A008F0553050F7E00430580EBB5C8
:201368000534EAB50630A9578C057E0074012DFAE43EFBEA2445F582EB3401F583E0F7A9AD
:201388005874022DFDE43EFEED2445F582EE3401F583E0F7D322055A8C0674032EFC809750
:2013A800C322900147E0FFBF0700920C401C900148E023235403FF900149E023540125E03D
:2013C80025E042078F067F0080047E007F008E82221211871211B5AF8290014AE0C313FEAE
:2013E800743F5E75F003A42FF58222AF829001C5E02FFEC39F4033900147E0FFBF07009288
:201408000D400C900149E0FF53077F7D008008900149E0FCFF7D008E047E00C3EC9FEE64F2
:20142800808DF063F08095F0400475820022C006C0041213D9AF82D004D006C007C006C042
:20144800041213AAAD82D004D006D007ED75F005A42FFD7F00EC2DFCEE3FFEEC2445F5824F
:09146800EE3401F583E0F5822267
:2035EC00FF0000FF1607FF1000FF4200FF7C003CFF0064C8141D7B4300FFC8005BFF000062
:10360C00FF7300B4FF00C2FF0048FFFFFF00000083
:20147200AF827408B55B02800EE57E602EAE5BC3EE648094814024E57E601078EDE2B4FF38
:2014920002801678EDE22401F2800E78ECE2B4FF02800678ECE22401F2C32278EAE225E0AA
:2014B20024DAF9EFF378EAE225E024DA04F9E57DF378EAE20478EA5407F2055BD3227F00DD
:2014D2007E00EE24B9F9E3FD42070EBE0D0040F27E00EE24ABF9E36019EE249DF9E3FD5319
:2014F200050F7C00BD050BBC0008EE24A4F9E3FD42070EBE070040DAE562600578F2E242BA
:20151200078F8222AF82C0071214D0AE82D007BF0D09E563FC3395E0FD80047C007D00BF90
:201532000E09E563FD3395E0FF80047D007F008D1A8C19751B008E8202296AE582FF7002BD
:20155200D3227E02EE24C6FCE43401FD8C828D83E0FBB50702D322EB70088C828D83EFF00E
:20157200D3220EBE080040DC227F007E00EE24C6F582E43401F583E4F00EBE080040EE7E21
:2015920000EE24ABF9E36034EE249DF9E3FDFB53030F7C00BB0225BC00229001C6E0FCEDC8
:2015B200C4540F42049001C6ECF0EE24A4F9E3F582C007C00612154DD006D0070EBE0700EF
:2015D20040BF78F37401F2E562603978F0E2FD53050F7E00BD012DBE002A78F1E2F582C0C7
:2015F2000712154DD007920EE433FE78F3F2EE60139001C6E0FE78F0E2C4540FFD42069099
:2016120001C6EEF07E00EE24C6F582E43401F583E0FDEE24C6F9E3FCEDB5040280027F017E
:201632000EBE080040E0EF60229001C61228F84001227F00EF24C6F9EF24C6F582E434018D
:20165200F583E0FEF30FBF080040E91214D0AF82781FE6B507028019751900751A00751B88
:20167200008F82C00712296AD007400122781FA607D322AF82AE5C74F725665004AE5E8057
:201692001874FFB55F028011855F5C755FFFC007C00612179ED006D0078F0453040F7D007C
:2016B200BC0004BD000122BC0204BD000122BC0504BD000122BC0605BD00028035BC0A052B
:2016D200BD00028063BC0B05BD0002801FBC0C05BD00028029BC0F05BD0002800302176765
:2016F200EFC4540FF53885648202036178EE7401F222E56624B9F9E3FDE5646DF322C00742
:20171200C006121187AD82D006D007E5642EFE8D04ECC40354F8FC2EF564C3E5649D4008F2
:20173200E564C39DF56480F274FFB56403855D6478EE7401F2EF30E405855C5F801374FF33
:20175200B55F04AE5C8002AE5FEEB5640280028E5D85645C2285647D85657E8F8202147282
:2017720078D5E270012278D5E2FF1F78D5E4F2EF24ABF87401F2EF249DF9E3F582EF24A44E
:20179200F9E3F5647565008F66021685AF5C7E007D00ED24ABF9E36023ED249DF9E3FC539C
:2017B200040F7B00BC0B15BB0012ED24B2F9E3FCC39E40088C06ED24A4F9E3FF0DBD0700A9
:2017D20040D0EFB55E01228F5E7F00EF24B9F8E4F20FBF0D0040F4755B0078EAE4F278EB42
:2017F200F2AE6053060F7F00BE0814BF00117404B5610280057405B5610578FC7401F2754D
:20181200600075610075620078F2E4F212177202179E12119385825C855C5D855C5E78EE1B
:20183200E4F2755FFF78D5F278CEF278ECF278EDF27F00EF24CFF8E4F20FBF060040F4781A
:20185200EAE4F278EBF2F55BF560F56178FCF278FFF2F56278F2F2781F7600122849E582ED
:2018720078D9F27F00EF24ABF8E4F2EF24B2F8EFF2EF249DF8E4F2EF24A4F8E4F20FBF0792
:201892000040E27F00EF24B9F8E4F20FBF0D0040F47F00EF24C6F8E4F20FBF080040F4229A
:2018B20012285012182478C674FFF2781F76FF9000001229D5B3920F78FCA20FE433F2026B
:2018D200157BE582600678EDE2FF800478ECE2FF8F8222855E822278EEE2F58278EEE4F2D5
:2018F20022E58224B2F9E3FF7E00EE24B2F8E2FDC3EF9D5003ED14F20EBE070040EC740675
:20191200F3228582691211A285826DC3E56D956940238569F005F07C017D008006EC2CFC1A
:20193200ED33FDD5F0F778CEE2FA7B005204EB5205EC4D600122AD698DF005F0740180024C
:2019520025E0D5F0FBFC78CEE24CF2C3E569956DE433FC6009E56924CFF9E360012278D5D2
:20197200E27003021A44EC700874FFB55F03021A4478D5E2FB14F56CEC7003021A3678D7B3
:20199200D3E29567F4B3FAB308E29568F4FEC006C005C004C0021211A6AB82D002D004D0DA
:2019B20005D0067F00C3EA9BEE9F507875576A75586B856C5585695678D6E2F582C005C0FA
:2019D200041212C3D004D005505A78D5E4F2E56C24CFF9ED04F3E56924CFF9E56C04F3E50C
:2019F2006C249DF8E56AF2E56C24A4F8E56BF2E569249DF8E4F2E56924A4F8E4F2E56924E9
:201A1200ABF8E4F2E56C24ABF87401F2856C821218F3856B64756500856C66856A8212160E
:201A32008502179EC005C00412177212179ED004D00575536A75546B856952855E82C005F4
:201A5200C004121253E569249DF9E56AF3E56924A4F8E56BF2856982C001C0001218F3D0C1
:201A720000D001D004D005EC6057C005C001C0001211A6E582D000D001D00560447F00C365
:201A9200EF956D503C75576A75586B8569558F56855E82C007C005C001C0001212C3D000F8
:201AB200D001D005D007501678D5ED04F2E55E78D6F2AC67AE6878D7ECF2EE08F2220F808F
:201AD200BEE56924ABC000F87401F2D000E3F582E2F56475650085696612168502179EE51E
:201AF20082FF249DF9E3FE53060FEF24ABF9E36014BE02028003BE05067E027F0080047E33
:201B1200007F00EEF322AF82C0071211A2AE82D007C3EE9F5001228F068EF005F0740180AD
:201B32000225E0D5F0FBFE78FBF278CEE25E700122EEF4FE78CEE25EF28F057E000DBD001C
:201B5200010E78D5E27C00B5050EECB5060AC00712177212179ED0078F82C007121AF11239
:201B720011A2AE82D007C3EF9E503FEF24CFF9E3FF60371F8F82C007C001121AF1D001D0F0
:201B9200078FF005F07D017E008006ED2DFDEE33FED5F0F778CEE2FB7C005205EC5206ED1D
:201BB2004E7007F3EF24CFF8E4F202179EAF82C0071211A2AE82D007EF60067C017D008061
:201BD200047C027D00EC2EFE78D5E2601574FFB55F02800EC007C00612177212179ED0065C
:201BF200D00775536E75546F8E52855E82C007121253D007EF60067E077F0080047E087F52
:201C1200008E66856F64756501856E8212168502179EAF8278FAEFF27F00BF04005009EFA4
:201C320024F6F8E4F20F80F2221213D9AF82C211757000C0071213AAAD82D007C3E5709DCF
:201C52004003021D0DE57024F6F9E3F5717C0030102EEF2445F582E43401F583E0FB5303D7
:201C72003F78FBEBF2AA7153027FE4FEFDEAB5030BEEB505077571807C0180310571802DE2
:201C9200E57130E7137C03EF2445F582E43401F583E0FE30E602D21153717FEF2445F582E8
:201CB200E43401F583E0FE30E703757100E57024F6F8E571F2EC6038EF2CFC2445F582E495
:201CD2003401F583E0FE7D000CBC00010DEC2445F582ED3401F583E0F564AD7074092DF5B9
:201CF200667565008E82C00712168512179ED00705708F0674052EFF021C45A21122AF8257
:201D120078FAE2B507012278FAEFF2D210021C3BC210021C3B85827285837378D5E2602C16
:201D320078D7D3E29572F4B3FCB308E29573F4FDC005C0041211A6AB82D004D0057A00C3E8
:201D5200EC9BED9A400612177212179E122849AD8278D9E2B505028011122849E58278D94E
:201D7200F278C674FFF2781F76FF78FCE2600F9000001229D5500678FCE4F28001221215E1
:201D92007B400122E560701BE55B70171229E692124010AD7278FFD3E29DF4FDBD08009277
:201DB200125004C2128002D212A212E433FD600578FFE572F27C00EC24ABF9E3FBBB023980
:201DD200EC249DF9E3FA53020F7F00BA0223BF0020EC24A4F9E3FF60187E02EE24C6F9E392
:201DF200FAB5070280060EBE080040EFBE08028035EC24ABF8E4F2802DED602AEB6027EC08
:201E1200249DF9E3FFBF1D028003BF1E19E3FF740F5FF582EC24A4F9E3F563C005C00412FF
:201E32001516D004D0050CBC0700408B12157B400122E5607041E55B603D78EBE225E024DC
:201E5200DAF9E3F5600978EFE3F278EBE20478EB5407F2155B75610078F5E4F2AE60530637
:201E72000F7F00BE0409BF00067E027F0080047E017F0078F4EEF2E560700122E560540FE5
:201E9200FFE5616003021FBEC0071229E6D007500122BF075278EFE2FE7003F56022C00668
:201EB2001214D0AD82D006EE33E433FC60067AFF7BFF80047A017B008A1B751900751A004C
:201ED2008D82C006C00412296AD004D006400122EC6005EE04FD8003EE14FD78EFEDF2EDB0
:201EF20060012275600022BF0D028003BF0E1678EFE2F5638F8212151640012278FFE57202
:201F1200F275600022BF0828AD60E4CDC4540F6DCD540FCD6DCD8D067D0078EFE27C004D2C
:201F3200F582EC4EF5831229D540012275610422E56078F0F278EFE2FE78F1F278F2E4F276
:201F5200BF093778F59001C5E2F08E821213F3E582FE7003F560228E82122BB0E582FE30D2
:201F7200E7067C207D0080047C007D0078F074014CF278F1747F5EF2800EBF03028003BF71
:201F9200040678EFE278F2F275620112157B500578F3E2700122AD72AE7374082DFDE43EC9
:201FB200FE78FDEDF2EE08F2756101227401B5612378FDD3E29572F408E29573F430E7010B
:201FD200221229E650012275620012157B400122756102227402B5613BC0071229E6D007DD
:201FF200500122BF090A78F5E22401F27561002278F4E214F278F4E26016AE72AF7374C896
:202012002EFEE43FFF78FDEEF2EF08F275610322756000227403B5613178FDD3E29572F44D
:20203200B3FEB308E29573F4FF20E74175620112157B5039AE72AF7374082EFEE43FFF7876
:20205200FDEEF2EF08F2756101227404B561111229E640199000001229D550117561052298
:0E2072007405B561081229E64003756000226E
:202080007F00EF2445FDE43401FE8F82C007C006C0051225B4AC82D005D006D0078D828EBA
:2020A00083ECF00FBF800040D9754800900145120DF49214921590028EE4F090028FF0C2A0
:2020C0001322D21322AE82AF8390028EE07003301302C3227D00ED24CEFBE43401FCED2E3E
:2020E000F582E43FF583E08B828C83F00DBD200040E490028E7401F0D3229001D2E0FF9088
:2021000001D4E0F5109001D5E0F5119001CEE0FCBC03169001CFE0FCBC550E9001D0E0FC11
:20212000BC4D069001D6E06004758204229001D1E0FCBC0102800475820122E51124E850DB
:202140000475820322BF05028003BF0606AB117C0080047B007C0074092BFCBC20005016B2
:20216000EC24CEFAE43401FB8A828B83E06004758204220C80E5E4BF030104FC7008BF04A5
:20218000028003BF061EE5116016AA117B00A8107900EA28F8EB39F9C3748098E499503190
:2021A00075820322E5106003BF0922BF05117403B51103D38001C3B39216E433FB800BE5B8
:2021C00011B40100B39216E433FBEB600475820322EF24F550030224CAEF240A83F582EF10
:2021E000240F83F583E473CA2654B1B116490AC3A4FD24222222222323242424219001F5E2
:202200007403F0A2AFC2AF78FFE664A5700618E8648770F59001F774A5F0A37488F0A3E8BE
:20222000F092AF0224CE9001F5740EF07F008F0374092BFB3395E0FAEB24EEFBEA3401FA1A
:20224000EF90361C93F98B828A83F00FBF0E0040DD0224CE9001F57406F0A214E4339001DC
:20226000F7F03015091218E5AB827F0080047B007F009001F8EBF0301509121193AB827FDC
:202280000080047B007F009001F9EBF090028FE09001FAF07582001218D4AF829001FBEF3E
:2022A000F07582011218D4AF829001FCEFF00224CE9001F5E511F0751200C3E51295114014
:2022C000030224CEAB1274092BFB3395E0FAEB24EEFBEA3401FAEC6019E5122510F582C02C
:2022E00004C003C0021225B4A982D002D003D004801AA8107F00AD127E00ED28F8EE3FFF7F
:20230000E82445F582EF3401F583E0F98B828A83E9F0051280A49001D7E0FFBF8002800446
:20232000758203229001D8E0FF9001D9E0FD7E007C00900291EE4FF0ED4CA3F0900290E4D6
:20234000F090028F04F00224CE90028FE0FFBF0102800475820522900290E0FFB5100280D8
:2023600063AD117E00AB107C00ED2BFBEE3CFC7E00C3EF9BEE9C500475820A227F00C3EF51
:20238000951140030224CEAD107E008F037C00EB2DFDEC3EFEED240EF582EE3402F583E0C8
:2023A000FE8F0574092DFD3395E0FCED24CEF582EC3401F583E0FDEEB50502800475820A45
:2023C000220F80BA7F00C3EF95115034AD107E008F037C00EB2DFDEC3EFEED240EFDEE3473
:2023E00002FE8F0474092CFC3395E0FBEC24CEF582EB3401F583E0FC8D828E83F00F80C6D4
:20240000900290E02511F00224CE90028FE0FFBF02030224CEBF010A900290E0FFBF8002DC
:2024200080047582052290020E120B8AAE82AF83900291E0FCA3E0FDEEB5041AEFB5051652
:20244000900214E0FD8E04B5040C900215E0FD8F06B5060280047582072275480090020ECB
:20246000120DF440047582062290020E12262292144004758209227F00EF2445FDE43401F3
:20248000FEEF240EF582E43402F583E08D828E83F00FBF800040E2D21512082890028F74F6
:2024A00002F0802AE5106013AE105306067F00BE0405BF0002800475820322851082120526
:2024C00035800B90028FE4F080047582022275820022AE82AF8330131190028FE4F0900252
:2024E0008EF0120828C2130227CE90028FE0601D900293E0FCA3E0FDEEC39CFCEF9DFDC3BC
:20250000EC9488ED9413400590028FE4F090028EE070012290028EE0FDBD010280030225EB
:202520009F7D00ED24EEF582E43401F583E4F00DBD200040EE9001EE7404F09001EF74555C
:20254000F09001F0744DF09001F17401F07D04ED24EEFBE43401FCED24CEF582E43401F57E
:2025600083E08B828C83F00DBD070040E2C007C0061220FAAD82D006D0079001F6EDF0ED13
:2025800070179001D2E0FDBD0500400DED24F74008900293EEF0EFA3F090028E7402F020EA
:1325A00013109001EE122761500890028EE4F00227CE2287
:0E361C00554D41430107000606058003FFFFE0
:2025B4000234E4AF82C0071225B4AE82D007EEB513028019A2AF9217C2AF900321E513F0AB
:2025D4008F82C0071234AED007A21792AF8F821225B4E582B51302D322C322AE82AF837D64
:2025F400008D82C007C006C0051225B4AC82D005D006D007ED2EF582E43FF583E0FBECB522
:2026140003028002C3220DBD800040D5D322AE82AF83C007C0061225EFD006D0075002D3FF
:2026340022751300758200C007C0061225B7D006D0075013751300758201C007C006122516
:20265400B7D006D0074002C3227D02ED2EF582E43FF583E0F5138D82C007C006C0051225AF
:20267400B7D005D006D0074001220DBD800040DB751350758201C007C0061225B7D006D054
:1F26940007501375134D758200C007C0061225B7D006D0074002C3228E828F830225EF6A
:04000000020049327F
:03000B000234F4C8
:0100130032BA
:01001B0032B2
:0100230032AA
:01002B0032A2
:01003300329A
:01003B003292
:030043000226B4DE
:0E0080007808E4F608F608F608F6780C760024
:0300920002004623
:030046000226F39C
:2026B400C024C0E0C0F0C082C083C007C006C005C004C003C002C001C000C0D075D000124A
:2026D40033B6D0D0D000D001D002D003D004D005D006D007D083D082D0F0D0E0D02432A8DE
:1726F400810876A508B800FA12358512092012095180FB758200226A
:20270C0012344612347012345F75DD0075D3002275D30074FC55D24402F5D2C2182230DE14
:20272C00337402B5DB1190000AE0FFBF010990000BE0900295F0227420B5DB1890000AE097
:20274C00FFBF031090000A1220C5500874F355D24408F5D222D310AF01C3C0D0AE82AF83A8
:20276C00D219900320E060192018169002E8E06003301A0DACD25304037D00BC0306BD001D
:20278C0003C380377D008D037C0074402BFBE43CFCEB240AFBEC3400FCED2EF582E43FF557
:2027AC0083E0FA8B828C83F00DBD200040D8C219C21A75D320D21853D2FCD333D0D092AF91
:2027CC001322D310AF01C3C0D0AED253060C7F00BE0C05BF0002800353D2F3D0D092AF2240
:2027EC00E582900295F0229002EAE4F09002EBF09002ECF09002EDF09002EEF09002F3F0AE
:20280C00A3F09002F1F0A3F09002EFF0A3F07F00EF24F5F582E43402F583E4F00FBF0800D5
:20282C0040EE9002FDE4F09002FEF0A3F0C2189002E9E02401F0C219C21A0228509002E9F2
:20284C00E0F58222D310AF01C3C0D09002E8E4F09002E6F09002E7F0D0D092AF22AF82902A
:20286C0002E6E024DEF582E43402F583EFF09002E6E0FF0F74075FF09002E8E02401F0D328
:20288C00228582148583159002E8E0FDBD08028006900320E07002C3229002E6E075F0097E
:2028AC00A42496FC740235F0FD8C828D837401F00CBC00010D7B00EB2514F9E43515FA8978
:2028CC00828A83E08C828D83F0A3AC82AD83EB24F5F8E43402FF89828A83E088828F83F055
:2028EC000BBB080040D1758209022869D310AF01C3C0D012288D33D0D092AF1322AF8290A3
:20290C0002E8E0FEBE08028006900320E07002C3229002FDEFF09002E6E075F009A4249619
:20292C00FD740235F0FE8D828E837402F00DBD00010E8D828E83EFF00DBD00010E8D828E21
:20294C0083E516F00DBD00010E8D828E83E517F08D828E83A3E518F0758205022869D310F6
:20296C00AF01C3C0D0851916851A17851B1812290933D0D092AF1322AE82AF839002E8E0DD
:20298C00FDBD08028006900320E07002C3229002FEEEF0EFA3F09002E6E075F009A42496E3
:2029AC00FC740235F0FD8C828D837405F00CBC00010D8E038C828D83EBF08C828D83A38F40
:2029CC0006EEF0758203022869D310AF01C3C0D012298433D0D092AF13229002E8E07007BB
:2029EC00201804C21B8002D21BA21B22D310AF01C3C0D0AE82AF839002E8E06003022AED46
:202A0C009002EEE0FD0D751C00BD01079002EAE0FB8011BD02079002ECE0FA80059002EDE0
:202A2C00E0FA8A03BD010A9002EFE0F9A3E0FA8019BD020A9002F1E0F8A3E0FC800890022E
:202A4C00F3E0F8A3E0FC88018C028904EB7003022ADAEEC39CFCEF9AFA8B017B00E929F93A
:202A6C00EB33FBE929F9EB33FBC3EC99EA9B405EBD03067B007C0080048D037C009002EED5
:202A8C00EBF0BD01109002F5C007C00612288DD006D007804CBD021D9002FDE0FC7516005B
:202AAC007517007518008C82C007C006122909D006D007802C9002FEE0FBA3E0FC8B828C36
:202ACC0083C007C006122984D006D00780130DED24FC50027D01051C74FD251C4003022AAF
:202AEC0015900320E0601C2018199002E8E06013301903201A0DACD25304037D00BC0306DB
:202B0C00BD0003022BAB9002E7E0FD75F009A42496FB740235F0FC8B828C83E0F51DED243E
:202B2C00DEF582E43402F583E0F51E7900C3E9951E502789007A00744028F8E43AFAE82465
:202B4C000AF8EA3400FA8B828C83E0FDA3AB82AC8388828A83EDF00980D37401B51D0A9026
:202B6C0002EFEEF0EFA3F0801C7402B51D0A9002F1EEF0EFA3F0800D7405B51D089002F3C2
:202B8C00EEF0EFA3F0D21A851ED39002E7E0FF0F74075FF09002E8E014F0D21853D2FCD0FD
:202BAC00D092AF22AF82BF8000400475820022EF90362A93F58222E582FF7017AE7D900254
:202BCC00EBEEF09002EDEEF09002ECEEF09002EAEEF022BF01079002EAE57DF022BF02076C
:202BEC009002ECE57DF022BF05069002EDE57DF022E582FF70079002EBE0F58222BF010780
:202C0C009002EAE0F58222BF02079002ECE0F58222BF05079002EDE0F5822275820022AF69
:202C2C0082AD7EAE7F8D828E83EFF0BF0143E57D601474012DFBE43EFC900295E08B828C7B
:202C4C0083F0758202227C008C027B000ABA00010BEA2DFAEB3EFBEC24F5F582E43402F5C5
:202C6C0083E08A828B83F00CBC080040DB75820922E57D7039BF023674012DFBE43EFC9081
:202C8C0002FDE08B828C83F074022DFBE43EFC74032DF9E43EFA8D828E83A3A3A3A3E4F048
:202CAC0089828A83F08B828C83F075820522E57D702FBF052C74012DFCE43EFF9002FEE0B6
:202CCC00FAA3E08C828F83EAF074022DFDE43EFE9002FEE0A3E0FC8D828E83ECF0758203CC
:052CEC002275820022A8
:20362A0000000000000000002A2B2800000000000000000000000000000000000000000003
:20364A002C9EB4A0A1A2A434A6A7A5AE362D3738271E1F20212223242526B333B62EB7B823
:20366A009F8485868788898A8B8C8D8E8F909192939495969798999A9B9C9D2F3130A3AD14
:20368A00350405060708090A0B0C0D0E0F101112131415161718191A1B1C1DAFB1B0B50079
:2036AA00120110010000000809125DC500010102030105010906A1018501050719E029E73D
:2036CA001500250195087501810295017508810395067508150026FF000507190029E78170
:2036EA000005081901290515002501950575019102950175039103C005010902A10109016E
:20370A00A1008502050919012903150025019503750181029501750581030501093009314A
:20372A0009381581257F750895038106C0C00600FF0901A10185030902150026FF007508ED
:20374A00951F910285040903951F8102C0050C0901A1018505150026FF0F19002AFF0F7536
:20376A001095018100C009022900010100806409040000020300000009211001000122B41A
:20378A00000705810320000A0705010320000A040309041C0343004800350035007800206B
:2037AA00006B006200640020006D006F007300260355006E006900760065007200730061E9
:2037CA00006C0020004D006100630072006F007000610064000E0344006500710069006E2A
:0337EA0000670075
:03008E00757C007E
:202CF200AE74AF75C3EE9408EF9400921C40067C087D008004AC74AD757D00C3ED9C502CAC
:202D12008D027B00E57B600A857982857A83E0F98009857982857A83E493F98A828B83E9F4
:202D3200F00579E4B57902057A0D80CF8C037D00EEC39BFEEF9DFF8E748F758C8222AFDB83
:202D52007D007E008E778E7BBF08028003023253900007E0FC7F00900006E0FB7A004FF564
:202D720074EA4CF5757F00900001E0F5768F7C900000E0FC54607003022F2D900000E0FC6A
:202D92005304607B00BC2005BB00028010BC4005BB00028003022F287FFF0232559000048C
:202DB200E07006900005E060057FFF0232557409B5763F900000E0FCBC2137900003E0FCF4
:202DD200BC022F900002E0FCBC030CAB74AC75BB2005BC00028012900002E0FCBC0113AB62
:202DF20074AC75BB020CBC0009857477757800023255740AB57655900000E0FCBC214DE53F
:202E12007445757047900002E0601C900002E0FCBC01028012900002E0FCBC0202800890C8
:202E32000002E0FCBC0525900320E0601F900002E0FC900003E0F57D8C82C007C006C005F7
:202E5200122BC3D005D006D0070232557402B5765D900000E0FCBCA155900002E0601C90BB
:202E72000002E0FCBC01028012900002E0FCBC02028008900002E0FCBC0533900003E07016
:202E92002DAB74AC75BB0126BC0023900320E0601D900002E0F582C006C005122BFDAC8206
:202EB200D005D006900000ECF07F010232557401B5765E900000E0FCBCA156900003E0FC54
:202ED200BC01028008900003E0FCBC0244900320E0603E900002E0FC900003E0FBE4BB027A
:202EF2000104F57D757E00757F038C82C007122C2BAC82D0078C057E00ED4E600F75790075
:202F1200757A03757B017576060232557FFF0232557FFF0232557FFF023255E57624F4506A
:202F32000302324FE576240B83F582E576241083F583E473A3214F214F1B5E4F28459191BA
:202F52003131323132302F3230303030900003E0FCBC01028017BC0202801FBC030280278B
:202F7200BC21028074BC2202807C0230167579AA757A367D127E00023255757970757A3771
:202F92007D297E00023255900002E07008757999757A378035900002E0FCBC01087579DF26
:202FB200757A378025900002E0FCBC02087579B9757A378015900002E0FCBC030875799DDE
:202FD200757A3780057FFF023255857982857A83E493FCFD7E00023255757982757A377DA1
:202FF200097E00023255900002E070137579BC757A36903789E493FDA3E493FE0232557F07
:20301200FF0232557FFF023255900002E0FC8C74757500023255900320E0900000F0AB74FC
:20303200AC75C3EB9401EC940050030232557F01023255900000E07021900003E0701B9026
:203052000002E0FC24FE4012900004E0700C900005E07006E574457560057FFF0232559022
:203072000002E0900320F0C007C006C0051227F31220C2D005D006D00775D2120232559053
:203092000004E07075900005E0706F900002E07069900003E07063900320E0605D740AB5ED
:2030B200760474018001E4FC602C900000E0FBBB8103D38001C3921D5013AA74AB75BA0156
:2030D20006BB0003D38001C3921D101D02D21DA21DE433FB8021900000E0FABA0103D38049
:2030F20001C3921D500AE57445757004C21D8002D21DA21DE433FBEB60057FFF023255EC06
:203112007003023255900000E4F07F01023255900000E0FCBC0218900002E070129000036B
:20313200E0700C900005E07006E574457560057FFF023255900004E0FCBC812D7403B5763B
:203152000B74FC55D24403F5D202325574BC55D24402F5D2C007C006C0051227F31220C24E
:20317200D005D006D007023255900004E0FCBC011B747355D2FC7403B576067A0C7B0080B7
:20319200047A007B00EA4CF5D20232557FFF023255900004E0FD7E00900000E0FCBC824CB2
:2031B2008D038E04BB8117BC0014A9D2530103E4FAB90304BA000104F9FD7E008048BB0191
:2031D20017BC0014A9D253010CE4FAB90C04BA000104F9FD7E00802EED4E6006BB8009BCF2
:2031F20000067D007E00801E7FFF8057900000E0FCBC80028008900000E0FCBC8104ED4EAF
:2032120060047FFF803D900005E0700C900002E07006900003E060047FFF80278D04900007
:2032320000ECF0900001E4F0AB74AC75C3EB9402EC940040047F02800AAF7480067FFF8041
:20325200027FFFBFFF0280177406B57612C3ED9574EE957550048D748E75122CF2AF82BFA5
:20327200FF077576FF75DCCF22EF24F740168FDDE57760067E027F0080047E007F0074C0C8
:203292004EF5DC2275DD00E57760067E027F0080047E007F0074C04EF5DC227405B576022C
:2032B200800F7406B57618122CF28582DD63DC4022E5E35480FFE5744FF5E375DC022275F6
:2032D200DD0075DC022220DE01227409B5760280030233A4E57770030233A4E5DB24F75090
:2032F200030233A4AE787F00ACDB7D00EC2EFEED3FFFAC777D00C3EC9EED64808FF063F064
:203312008095F050030233A47F00C3EF95DB5019EF25782400FDE43403FE8F82758300E0B1
:20333200FC8D828E83F00F80E1E5DB2578F578E577B578457420B5771A900300E0FFBF0359
:20335200129003001220C5500A74F355D24408F5D2801C7402B57713900300E0FFBF010B36
:20337200900301E0F5821227EC800475DCCF2275770075DD0075DC482274F825DB40077544
:2033920076FF75DC0F2263DC8074F055DC4402F5DC2275DD00E57760077576FF75DC0F2216
:2033B20075DC022220D90302341CE5D9540F6002802CAED95306307F00BE0005BF00028076
:2033D20013BE2005BF00028010BE303CBF0039122D5080341232D8802F1232AD802AAED942
:2033F20053060F7F00BE0120BF001DE5D954306002800512272A8010AED95306307F00BEB0
:203412002006BF000312271CC2D930D81A1220C21227F375DC0275D21275E300C2DAC2D945
:20343200C2D8900320E4F010DA0122E5DA20E20375D8FF2275E20053E27F43E22975E30069
:2034520053E2BF53D1FB75D18043D1012243E10443E10243E10143D81FD2EAD2AF227E00C0
:183472007F008EEC8FED7E0A7F008EEE8FEF75D21275EAC075DC0222DF
:20348A00ABF0A2AFE433FEC2AFE0A37A0833D2B44002C2B47905D9FEC2B4DAF1DBEBEE6090
:0434AA0002D2AF2279
:2034AE00AF82BF800040012275A15575A1AA43B10475A1007585C0EF2FF584900321E0F518
:2034CE008EE58630E60375869A75A15575A1AA53B1FB75A10022AF827585C0EF2FF58475DE
:0634EE00868E858E82220D
:06005600E478FFF6D8FD7E
:2034F400C0D075D00808B8000D09B900090ABA00050BBB00010CD0D032A2AFC2AFA808A9BA
:2035140009AA0AAB0BAC0C92AF75F020E8A4A8F075F020E9A428F582A8F075F020EAA428FE
:20353400F583A8F075F020EBA428F9A8F075F020ECA42889F022AE82AF83C374019EE49F07
:2035540040022200C374029EFE74009FFF00BE0005BF000200220000000000000000000066
:20357400000000000000000EBE00EB0FBF00ED002275A15575A1AA74F855B94406F5B97591
:20359400A10090138812354A759E5D759D0074F055894402F58953C9EF758C06C28DD2A956
:0535B400D28CD2AF2211
:20005C00786CE84400600A799475A000E4F309D8FC780EE84402600C7903900114E4F0A37C
:04007C00D8FCD9FAD9
:0D0049007581871235BAE58260030200461A
:0435BA0075820022F4
:00000001FF
