:200096007E147F017D007C004305128E828F838DF0EC0234967F00BF1200500FEF2414F5C3
:2000B60082E43401F583E4F00F80EC020096E582FF7003F58222EFC4540FFF74014FF5826E
:2000D60022AF82789AE2FEBE030774015F04FF80028E078F8222201206789CE27001221209
:2000F60018C1858226789CE26006789CE2FE800885268212116CAE82EE0303543FFD530544
:2001160003EEC4540FF5277896E2F5288E82C006C0051200D7858229D005D006789BE2F53F
:200136002A7898E2F52B789CE2601874015E04F529300116900130E0C4540FFE74035EF533
:200156002B8007E5297003F528FD7403B52A03752A027B147E01E52B24DBF530E43435F5BE
:20017600317403B52B0474018001E4F532740FB52703D38001C39202EDB40100B39203E401
:20019600BD030104F533BD0303D38001C3920474015528F534E4F535BD020104FD752C0061
:2001B60074FA252C500302009685273685292D3002123001058533378006A203E433F537EB
:2001D600E5377004C2058002D205A205E433F52E200153E528600EED604CE53445356046B7
:2001F600752D008041E52A6034E52C2487F9E7602C852C50852682C006C005C00312118B91
:20021600AA82D003D005D0068A36BA0F0890012DE0FA20E708852A2D752E008009852736FC
:20023600200403752D00E52D7007F52FFCFA0202E2E52E6065E52C9035CF93FF853082858B
:200256003183E4938FF0A42525F537E532600FE52C9035D593249EF9E7FF2537F53774ABB8
:200276002537400E7C00E53775F003A4F52FF4FA805A745625374011E53724ABFF7A0075DE
:20029600F003A4FCF4F52F8043E537FF245675F003A4FAF4FC752F008032C005E53675F0B4
:2002B60003A424F8FD743535F0FF8D828F83E493FA0DBD00010F8D828F83E493FC0DBD00D1
:2002D600010F8D828F83E493F52FD0057401B52D3B8A82C006C005C004C0031200C4AA82B5
:2002F600D003D0048C82C003C0021200C4AC82D002D003852F82C004C003C0021200C4852B
:20031600822FD002D003D004D005D0068B828E83ECF08B828E83A3EAF08B828E83A3A3E514
:200336002FF074032BFBE43EFE052C0201B6AF82E57D2FFFE57EFE2F2E2EFFC3EF957E4030
:2003560007EFC3957EFF80F38F8222AF82BF8000404EC201E538C454F0FE43060AEFC454D8
:2003760001B401009206E4334E789CF274EF5FFE247F789625E0F2BE8106789CE24404F2D1
:20039600BE8007789CE4F27896F2123519AB82E583FCC313CB13CB747D2B7897F20200EC9D
:2003B600E538FE30E304EE24F0FE74015FF539BF0B00406B789AE2FC789BE225E025E0FB94
:2003D6004204BF0C347B00EB9035F393B5040280060BBB050040F08B02BB05087A00EE20F8
:2003F600E7027A048E7D757E058A82C007C004120344858238D004D007E5389035F393F546
:2004160038BF0D07ECB5380375380FAC3874035C789AF2EC0303543FFC789BF2020517BF05
:20043600092BC007C0061218C112116C1200D7AC82D006D007789BE2FBBB03027B02C3ECCB
:200456009B50028B04789AECF2789BECF2BF0A097C007B0475380F80107C027B04BF08004C
:200476005007EFC313FCFA04FBBF0304C3E49EFEC3EC9B4003020517AA38E5396058EC24D9
:2004960098F9E3F53A7D04BC0200402C7403FDB53A26753A02BC0220C007C006C005C004CA
:2004B600C0031218C112116C1200D785823AD003D004D005D006D0078E7D8D7E853A82C07F
:2004D60007C006C004C003120344AA82D003D004D006D0078021BA0F1E7A03EC700C9001DB
:2004F60030E0C4540FFD74035DFABC010A900130E0FD23235403FAEC2498F8EAF20C02045A
:2005160086BF02028008BF03028003BF0A0E123519AC82AD83AEF0FF789DA6040200ECAF1F
:2005360082789CE230E1047896E4F2789CEFF2EFB401009207B39201EF701E20121B1200E0
:20055600AB90011574FFF0123519AC82AD83900126ECF0EDA3F00200960200ECAF82789C35
:20057600E220E13E8F82C00712116CAE82D007EE0303543FFE5306037896E4F2BE0103044B
:200596008001E4FD7003BE0219ED60067D067E00800C0FEF3395E0FCEF2FFDEC33FE7896CF
:2005B600EDF2AE3BE53CC313CE13CE747D2E7897F20200ECAE82AF837896E26011EFC31321
:2005D600CE13CEFF7897D3E29EF4FE30E701227896E214F27897E2FF7897747D2FF27896B4
:2005F600E2700A789CE230E104789CE4F20200EC12188E123519AC82AD83AEF0FFC005C00E
:2006160004122A70D004D0055038C005C004123519AA82AB83AEF0FFD004D005EAC39CFA17
:20063600EB9DFBC3EA9464EB94005016C005C004123519122A82123519121DCCD004D005EC
:2006560080BB7E147F017D00BD0600501F8E828F83E4F08E828F83A314F08E828F83A3A361
:20067600E4F074032EFEE43FFF0D80DC12009675E200C2AF75890090C35012355690C35011
:2006960012355612380080FEAF82BF060AA2B3B39208E433F58222BF050AA2B2B39208E43A
:2006B60033FE8013EF9035CA93FFE5905207EFB401009208E433FE8E8222A2B0E43325E08F
:2006D600FFA2B1E4334FF58222AF82C00712069EAE82D007EF2480F98705EEB50502800DAF
:2006F600A706EF2FFD248EF8A63D08A63EEF2487F98705EEB5050122EF2F248EF88604085F
:200716008605E53DC39CFCE53E9DFDC3EC940AED9400405AA70630010E758200C007C00626
:20073600120535D006D00720120122EE6038BF061FC0071218C112116CAE82D007EE03545E
:2007560001FE24FF9200900126E53DF0E53EA3F0C007121D77D0074012853D66853E678FD9
:20077600821218F080058F82121AF90200EC221206D0AF827894E2B507012230010A7582E4
:2007960000C007120535D0077894E225E025E04F9035E393FE7894EFF220120122EE700534
:2007B6007895E4F2227895E22EF27895C3E26480948440127895E4F2121D77400675820148
:2007D600121BA00200EC7895C3E2F5F0747C63F08095F040127895E4F2121D774006758251
:2007F60000121BA00200EC22789CE230E104789CE4F2123519AC82AD838C06EDC4CEC4542A
:200816000F6ECE540FCE6ECE8E82C005C004121C05D004D005900130E0C4540FFF74035FF8
:200836007898F2900130E0232354037899F2789B7403F2789AF27F00EF24F94035EF24804C
:20085600F9EF2487F88F82C007C005C004C001C00012069EAE82D000D001D004D005D0070E
:20087600A606A706EF2FFE248EF8A60408A6050F80C6C005C0041206D0E582D004D0057898
:2008960094F220120B789CE27005F58202053522C005C00412188E7895E4F21218C1E582C9
:2008B600D004D005789CF6C2007896E4F2789DA604F5257F00BF06005009EF249EF8760034
:2008D6000F80F2900302E0600B8C3B8D3C789C86820205720200EC1221184390F24392F2B7
:2008F6004393F243B00F740F459654EFF59643971F1200AB1207FE12278C75820612069EA7
:20091600E582600302060622123519AC82AD83C005C004122A82D004D0058C828D83C00536
:20093600C004122558D004D00530121C8C06EDC4CEC4540F6ECE540FCE6ECE8E82C005C0D1
:2009560004121D61D004D0057F00EF24F940188C3D8D3E8F82C007C005C0041206DFD004A1
:20097600D005D0070F80E3C005C004120785D004D0058C07789DEFC396FE789CE2600B9094
:200996000130E023235403FB80047899E2FBEB9035DF93FBC3EE9B5003020A38789CE260D0
:2009B60013789CE2FE30E3068E037E00802D7B007E00802730121BC007C005C0041218C10D
:2009D60012116CAA82D004D005D0078A3F7540008005E4F53FF540AB3FAE405303FC7E00CE
:2009F600C374F09B74808EF063F08095F05033789DA60705257F037E00BE06005019EF5575
:200A1600257008EE249EF9E7FB04F78F03EB2BFB74014BFF0E80E2C005C0041200ECD00470
:200A3600D005201230789CE2702A900126E0FEA3E0FFECC39EFEED9FFFC3EE94F4EF94012F
:200A56004012900126ECF0EDA3F0900115E064FFF0020096228C828D83C005C004121DCCE6
:200A76001218C5E582D004D0057015C005C0041218C1AF82D004D005789CE6B50702805402
:200A9600C005C0041218C1AF82D004D005789CE6B507028026789CE230E104789CE4F2C0DF
:200AB60005C0041218C1E582789CF61206D0E582D004D0057894F27895E4F2789CE220E12B
:200AD600138C3B8D3C789C8682C005C004120572D004D0058C828D83C005C0041205CAD02E
:200AF60004D005300020788DE6601B900126E0FEA3E0FFECC39EFCED9FFDC3EC94B8ED94EC
:070B16000B4003020606225A
:2035CA00028040201000010205040300030104020500152A6D04060A1200FF0100010000FE
:0E35EA00FFFF0000010001FF000F0D050400AF
:200B1E00AF827E007D00C3ED9F500EE57EC39DFC1C8E03EC2BFE0D80EDE57D2EC39F14F5E8
:200B3E008222AE82AF837CFF7DFF7B00BB06028036BB07028031EB2EF582E43FF583E0FA2C
:200B5E00E4F96204EA62057A088D01530180EC2CFCED33FDE9600E8C008D01630021630175
:200B7E001088048905DAE20BBB800040BF8C828D8322E582FF7002D3221F1F1F1FEF249EF2
:200B9E004002D322EF249C24F49209B322AE82AF83E5412EF582E43FF583E0FD740F5DFC48
:200BBE00EDC4540FFDAA417B000ABA00010BEA2EF582EB3FF583E0FBEC24F05003020D9EC4
:200BDE00EC240A83F582EC241483F583E473309090AF9EB6B6D91A1A6D8872FAFA0C0D0CD7
:200BFE000C0C0D0C0C0C0D0D0D0D0C0C0C0CBB80004013BB8005EDB401002274EF5B247F37
:200C1E0024F7920AB322EB24F25002C322BB0A05EDB4010022BB0D07ED14FABA040022BBFF
:200C3E000B07ED24FB920AB322EB20E003BB0C0C8D015301077A00E94A24FF22BD0F02D3CA
:200C5E0022BB04005007ED24FC920AB322ED24FD920AB322ED24FE920A400EEB24F9920AA4
:200C7E00500BBBFA00920A5004C20A8002D20AA20A22E543600BBC0203D38001C3920A4017
:200C9E00078B82120B904004C20A8002D20AA20A228B021ABA070022E543600BBC0503D385
:200CBE008001C3920A400BED70088B021ABA07004004C20A8002D20AA20A22E5432543252D
:200CDE00E0FA74034A5D700BBB8003D38001C3920A5004C20A8002D20AA20A22AA437402E3
:200CFE00C39AFAC3ED9A500BBB8003D38001C3920A5004C20A8002D20AA20A22E543600312
:200D1E00BC0806ED7007EB7004C20A8002D20AA20A22ED7005EBB4010022BD0106C3EB9505
:200D3E00454002C322EB6022AA447C008B007900E82AFAE93CFC1ABAFF011CEA2EF582ECB6
:200D5E003FF583E06004C20A8002D20AA20A22ED24FE920A400BC3EB95424009BBFF028082
:200D7E0004C20A8002D20AA20A22ED700AC3EB95425004E5436004C20A8002D20AA20A2295
:200D9E00C3228582478583487D00E5466002C322E54624FE4045854782854883E0FCBC4D6E
:200DBE003A854782854883A3E0FCBC502E854782854883A3A3E0FCBC0A218547828548833F
:200DDE00A3A3A3A3A3E0FCFA5302017B00AE467F00EAB50606EBB507028002C322854782A3
:200DFE00854883A3A3A3E0FFFE74075E04F549EFC423541FFB5303077A0085494E8A4FC3D1
:200E1E00EB954EEA6480854FF063F08095F0400122E54924FA5002C322ECC313FC743F5C49
:200E3E00F54AEF23235403FF854782854883A3A3A3A3E0FB23540125E025E04207EF24FBEC
:200E5E005002C322747F5BF54CE54975F016A42409FCE435F0FAE54A75F003A47E002CFC54
:200E7E00EE3AFAEF75F006A47B002CFCEB3AFAAB4C7E00EB2CFCEE3AFE8C028E03C37480EE
:200E9E009AE49B5002C322ECC3954CF54B7C00C3EC9549506DEC75F016A42409FB7A00C0E1
:200EBE00038A037E00C3EB9409EE64809480D003504DC0058A06EE2E8B052DF5418A057EF4
:200EDE0000C3ED9407EE64809480B3920BE433F543854942854B44854C458547828548834C
:200EFE00C007C005C004C003C002120BABD002D003D004D005D007D0054001220A80A00CA4
:200F1E00808DE54975F016A4FE2409F54D7C00C3EC954A507BE54D2547F582E43548F58329
:200F3E00E0FBC4540FFA5302077E00C3EA954EEE6480854FF063F08095F050478B025302C6
:200F5E000F7E00C3EA940FEE648094805035EC6005C3ED9B502DE54DFE04F5418549427523
:200F7E004300854B44854C45854782854883C007C006C004C003120BABD003D004D006D01F
:200F9E00074002C3228B0574032EF54D0C020F2D7E00C3EE9F4003021037AC4D7D007405FB
:200FBE002CFCE43DFDEC2547F582ED3548F583E05407FC6008C3E5499C5002C322E54DFD8A
:200FDE0004F541854942754301854B44854C45854782854883C007C006C005120BABD00539
:200FFE00D006D00740012274032DF541854942754301854B44854C45854782854883C00791
:20101E00C006C005120BABD005D006D0074001220E74062DF54D020FB0E54C6024AE4B7F95
:20103E0000AB4C7D00EB2EFEED3FFF1EBEFF011FEE2547FEEF3548FF8E828F83E06002C3F7
:20105E00227F00C3EF954C40030210F4AD4B7E008F037C00C007EB2DFAEC3EFFEA2547FA1F
:20107E00EF3548FF8A828F83E0D0076065C007EB2DFAEC3EFFEA2547F582EF3548F583E0BA
:20109E00FFBF0904D007804AEB2DFAEC3EFFEA2547F582EF3548F583E0FFBF0A04D00780D7
:2010BE0031EB2DFAEC3EFFEA2547F582EF3548F583E0FFBF2000D0074016EB2DFDEC3EFECD
:2010DE00ED2547F582EE3548F583E0FE24815002C3220F021061854782854883120B40AE5A
:2010FE0082AF83854782854883A3A3A3A3A3A3E0FD8E04B50416854782854883A3A3A3A346
:20111E00A3A3A3E0FD8F06B506028004C20B8002D20BA20B2290012BE0FF74075F04F5822A
:20113E002290012BE0C423541FFF74075FF5822275820622900130E0FF740F5F75F005A458
:20115E00F58222E58275F016A42409F58222E58204F582121161AF827E001FBFFF011EEF8C
:20117E002428F582EE3401F583E0F58222AF82C00712114EAE82C006121133AD82D006D0F0
:20119E0007C3EF9D5006C3E5509E4004758206228F82C006121161AF82D006E4FDFC7403D6
:2011BE002EFEE43CFCEE2EFEEC33FCEE2FFFEC3DFDE550C3137C002FFFEC3DFDEF2428F547
:2011DE0082ED3401F583E0FFE55030E009EFC4540FFD7E0080087C00740F5FFD7E008D82A7
:2011FE0022AF82C007121133AE82D007C3EF9E5025C00712114EAE82D0077D0074032EFE36
:20121E00E43DFDAB517C00C3EB9EEC64808DF063F08095F0400BE552F87600E553F8760093
:20123E00228F82121161AF82E55125512FFEA9522428F582E43401F583E0F7A9537F000E20
:20125E00BE00010FEE2428F582EF3401F583E0F722AF82C00712114EAE8290012DE0C3134F
:20127E00FD743F5DF558C006121133121161AC82D006D007E555B554028022C3E5549E50AA
:20129E001CC3E5559E5016C007C006C004121133AB82D004D006D007C3EF9B4002C322C387
:2012BE00E55595545007AB548555548B55EFC454F0FF85557D8E7E855482C007C004120B2D
:2012DE001EAE82D004D007EE4207755900C3E55995585062EC2428F582E43401F583E0FB37
:2012FE00B50702801753038F7A008F0553050F7E00430580EBB50534EAB50630A9568C059D
:20131E007E0074012DFAE43EFBEA2428F582EB3401F583E0F7A95774022DFDE43EFEED248B
:20133E0028F582EE3401F583E0F7D32205598C0674032EFC8097C32290012BE023235403C3
:20135E00FF90012CE023540125E025E04FF58222121133121161AF8290012DE0C313FE7478
:20137E003F5E75F003A42FF58222AF829001A8E02FFEC39F401D90012CE0FF53077F7D00B6
:20139E008E047E00C3EC9FEE64808DF063F08095F0400475820022C006C00412136EAF827F
:2013BE00D004D006C007C006C004121356AD82D004D006D007ED75F006A42FFD7F00EC2D29
:1213DE00FCEE3FFEEC2428F582EE3401F583E0F5822213
:2035F800FF0000FF1607FF1000FF4200FF7C003CFF0064C8141D7B4300FFC8005BFF000056
:10361800FF7300B4FF00C2FF0048FFFFFF00000077
:2013F000AF827408B55A02800FE57E30E02FAE5AC3EE648094814025E57E30E01078EDE20D
:20141000B4FF02801678EDE22401F2800E78ECE2B4FF02800678ECE22401F2C32278EAE27E
:2014300025E024DAF9EFF378EAE225E024DA04F9E57DF378EAE20478EA5407F2055AD322DA
:201450007F007E00EE24B9F9E3FD42070EBE0D0040F27E00EE24ABF9E36014EE249DF9E371
:20147000FD53050FBD0508EE24A4F9E3FD42070EBE070040DFE561600578F2E242078F8213
:2014900022AF82C007121450AE82D007BF0D09E562FC3395E0FD80047C007D00BF0E09E5B0
:2014B00062FD3395E0FF80047D007F008D1A8C19751B008E820229F7E582FF7002D3227E3D
:2014D00002EE24A9FCE43401FD8C828D83E0FBB50702D322EB70088C828D83EFF0D3220E1E
:2014F000BE080040DC227F007E00EE24A9F582E43401F583E4F00EBE080040EE7E00EE24B2
:20151000ABF9E3602FEE249DF9E3FD740F5DFCBC02229001A9E0FCEDC4540F42049001A9B7
:20153000ECF0EE24A4F9E3F582C007C0061214C8D006D0070EBE070040C478F37401F2E500
:2015500061603378F0E2540FFEBE012A78F1E2F582C0071214C8D007920CE433FE78F3F295
:20157000EE60139001A9E0FE78F0E2C4540FFD42069001A9EEF07E00EE24A9F582E434014B
:20159000F583E0FDEE24C6F9E3FCEDB5040280027F010EBE080040E0EF60229001A91229B2
:2015B000784001227F00EF24C6F9EF24A9F582E43401F583E0FEF30FBF080040E9121450E5
:2015D000AF8278A4E6B507028019751900751A00751B008F82C0071229F7D0074001227808
:2015F000A4A60778ADE6602B78ADE6C4540FFE7F0078AE86047D00EC4FF582ED4EF58312A1
:201610002A5F40012278AD760078AFE6700578FB7401F2D322AF82AE5B74F725655004AEB1
:201630005D801874FFB55E028011855E5B755EFFC007C006121776D006D007740F5FFDFCC8
:2016500024F0500302173EEC240A83F582EC241483F583E473913E493E3E49DB3EA0A011EB
:20167000D5E73E3E8516171717171716171616171616171716EFC4540FF538856382020382
:2016900061EF70012285637D85647E8F820213F078ADA607E56378AEF6EF30E00678FBE4E3
:2016B000F2800A78AFE6600578FB7401F2EF30E00BAD650DEDFC3395E0FD80047C007D001E
:2016D00078AFA6042278EE7401F222E56524B9F9E3FDE5636DF322C007C006121133AD823C
:2016F000D006D007E5632EFE8D04ECC40354F8FC2EF563C3E5639D4008E563C39DF5638037
:20171000F274FFB56303855C6378EE7401F2EF30E405855B5E801374FFB55E04AE5B80023A
:20173000AE5EEEB5630280028E5C85635B2285637D85647E8F820213F02278D5E2700122EE
:2017500078D5E2FF1F78D5E4F2EF24ABF87401F2EF249DF9E3F582EF24A4F9E3F563756425
:20177000008F65021625AF5B7E007D00ED24ABF9E3601EED249DF9E3FC53040FBC0B12ED5B
:2017900024B2F9E3FCC39E40088C06ED24A4F9E3FF0DBD070040D5EFB55D01228F5D121D9B
:2017B0007D7F00EF24B9F8E4F20FBF0D0040F4755A0078EAE4F278EBF278AFE6701378AD63
:2017D000E6700578FBE2600978AD760078FB7401F2755F0075600075610078F2E4F2121783
:2017F0004A02177612113F85825B855B5C855B5D78EEE4F2755EFF78D5F278CEF278ECF2E8
:2018100078EDF27F00EF24CFF8E4F20FBF060040F478EAE4F278EBF2F55AF55FF56078FB32
:20183000F278AD760078AF760078FEF278B07600F56178F2F278A476001228C9E58278D969
:20185000F27F00EF24ABF8E4F2EF24B2F8EFF2EF249DF8E4F2EF24A4F8E4F20FBF070040C5
:20187000E27F00EF24B9F8E4F20FBF0D0040F47F00EF24C6F8E4F20FBF080040F4221228C2
:20189000D01217F478C674FFF278A476FF900000122A5FB3920D78FBA20DE433F20214F663
:2018B000E582600678EDE2FF800478ECE2FF8F8222855D822278EEE2F58278EEE4F222E581
:2018D0008224B2F9E3FF7E00EE24B2F8E2FDC3EF9D5003ED14F20EBE070040EC7406F32289
:2018F00085826812114E85826CC3E56C956840238568F005F07C017D008006EC2CFCED338B
:20191000FDD5F0F778CEE2FA7B005204EB5205EC4D600122AD688DF005F07401800225E08A
:20193000D5F0FBFC78CEE24CF2C3E568956CE433FC6009E56824CFF9E360012278D5E270AA
:2019500003021A20EC700874FFB55E03021A2078D5E2FB14F56BEC7003021A1278D7D3E2E0
:201970009566F4B3FAB308E29567F4FEC006C005C004C002121152AB82D002D004D005D032
:20199000067F00C3EA9BEE9F507875566975576A856B5485685578D6E2F582C005C00412E3
:2019B000126FD004D005505A78D5E4F2E56B24CFF9ED04F3E56824CFF9E56B04F3E56B240C
:2019D0009DF8E569F2E56B24A4F8E56AF2E568249DF8E4F2E56824A4F8E4F2E56824ABF8FE
:2019F000E4F2E56B24ABF87401F2856B821218CF856A63756400856B6585698212162502D9
:201A10001776C005C00412174A121776D004D00575526975536A856851855D82C005C00458
:201A30001211FFE568249DF9E569F3E56824A4F8E56AF2856882C001C0001218CFD000D055
:201A500001D004D005EC6057C005C001C000121152E582D000D001D00560447F00C3EF9527
:201A70006C503C75566975576A8568548F55855D82C007C005C001C00012126FD000D0012A
:201A9000D005D007501678D5ED04F2E55D78D6F2AC66AE6778D7ECF2EE08F2220F80BEE5E2
:201AB0006824ABC000F87401F2D000E3F582E2F563756400856865121625021776E582FFEF
:201AD000249DF9E3FE53060FEF24ABF9E36019BE02028008BE05028003BE09067E027F0082
:201AF00080047E007F00EEF322AF82C00712114EAE82D007C3EE9F5001228F068EF005F017
:201B10007401800225E0D5F0FBFE78FAF278CEE25E700122EEF4FE78CEE25EF28F057E0014
:201B30000DBD00010E78D5E27C00B5050EECB5060AC00712174A121776D0078F82C00712FE
:201B50001ACD12114EAE82D007C3EF9E503FEF24CFF9E3FF60371F8F82C007C001121ACD32
:201B7000D001D0078FF005F07D017E008006ED2DFDEE33FED5F0F778CEE2FB7C005205ECE3
:201B90005206ED4E7007F3EF24CFF8E4F2021776AF82C00712114EAE82D007EF60067C01B7
:201BB0007D0080047C027D00EC2EFE78D5E2601574FFB55E02800EC007C00612174A12171E
:201BD00076D006D00775526D75536E8E51855D82C0071211FFD007EF60067E077F00800488
:201BF0007E087F008E65856E63756401856D82121625021776AF8278F9EFF27F00BF040098
:201C1000501BEF24F5F8E4F2EF24A5F87600EF24A9F87600EF24B1F876000F80E022858259
:201C30006F12136E858270C20E7D00C005121356AC82D005C3ED9C4003021D5EED24F5F980
:201C5000E3F5717B00AA707F0074052AFAE43FFFEA2428F582EF3401F583E0F572E56F6014
:201C700079E57254076019AA725302077C00AE5D0E7F00EAB50606ECB507028003021D53DA
:201C9000ED24A9F98707E56F2FFFF7C3EF956F4003021D53E5702428F582E43401F583E086
:201CB000FFB57124ED24A5F98707AC72530438E4FEFAEFB50412EAB5060EE4F571F7ED2446
:201CD000B1F876017B0180380571E5717032ED24A5F9870774082FF78026ED24B1F9E760AB
:201CF000097B03E57230E602D20E7700E57230E70F757100ED24A5F87600ED24A9F87600D8
:201D1000ED24F5F8E571F2EB6039E5702BFB2428F582E43401F583E0FF7E000BBB00010EE8
:201D3000EB2428F582EE3401F583E0F5638D0674092EF5657564008F82C005121625121755
:201D500076D0050DAE7074062EF570021C3BA20E22AF8278F9D3E29FF4FE78F9EFF2EE603D
:201D7000058E82021C2E22758200021C2E12136EAF827E00C007C006121356AD82D006D06E
:201D900007C3EE9D50358F047D0074052CFCE43DFDEC2428F582ED3401F583E05407601294
:201DB000EE24F5F8E4F2EE24A5F87600EE24A9F876000E8F0574062DFF80B922858273854E
:201DD000837478D5E2602C78D7D3E29573F4B3FCB308E29574F4FDC005C004121152AB82D0
:201DF000D004D0057A00C3EC9BED9A400612174A1217761228C9AD8278D9E2B50502802BBB
:201E10001228C9E58278D9F278C674FFF278A476FF78AFE6601578AF86051DED249DF97861
:201E3000ADE3F6ED24A4F978AEE3F678FBE2600F900000122A5F500678FBE4F2800122121C
:201E500014F6400122E55F701BE55A7017122A70920F4010AD7378FED3E29DF4FDBD080035
:201E7000920F5004C20F8002D20FA20FE433FD600578FEE573F27C00EC24ABF9E3FBBB0274
:201E900046EC249DF9E3FA53020FBA0220EC24A4F9E3FA60187F02EF24C6F9E3FEB502023A
:201EB00080060FBF080040EFBF080280708C070F78AFE6B5070978AF760078FB7401F2ECF7
:201ED00024ABF8E4F28056ED6053EB6050EC249DF9E3FF24E324FE4019740F5FF582EC24D1
:201EF000A4F9E3F562C005C004121491D004D005802B747F5FFEBE4724AE7378B0EEC3965E
:201F1000FEBE64004017EC24A4F9E3F57D757E008F82C005C0041213F0D004D0050CBC071E
:201F3000005003021E881214F6400122E55F7027E55A602378EBE225E024DAF9E3F55F09F9
:201F500078EFE3F278EBE2FF0478EB5407F2155A75600078F4E4F2E55F700122E55F540F39
:201F7000FFE5606003022074C007122A70D007500122BF075C78EFE2FE7003F55F22C0063F
:201F9000121450AD82D006E55F54804205EE33E433FC60067AFF7BFF80047A017B008A1BAB
:201FB000751900751A008D82C006C0041229F7D004D006400122EC6005EE04FD8003EE1457
:201FD000FD78EFEDF2ED60012278B0A673755F0022BF0D028003BF0E1678EFE2F5628F8222
:201FF00012149140012278FEE573F2755F0022E55F78F0F278EFE2FE78F1F278F2E4F2EF92
:20201000703778F49001A8E2F08E82121388E582FD7003F55F228D82122C3AE582FD30E786
:20203000067B207C0080047B007C0078F074014BF278F1747F5DF28007BF0304EE78F2F29C
:202050007561011214F6500578F3E2700122AD73AE7474082DFDE43EFE78FCEDF2EE08F205
:20207000756001227401B5602378FCD3E29573F408E29574F430E70122122A7050012275D1
:2020900061001214F6400122756002227402B56040C007122A70D007500122EF700A78F4FA
:2020B000E22401F275600022BF0322E55F54F0601CE55F24F0F55FAE73AF7474C82EFEE4FC
:2020D0003FFF78FCEEF2EF08F275600322755F00227403B5603078FCD3E29573F4B3FEB340
:2020F00008E29574F4FF20E71D7561011214F65015AE73AF7474082EFEE43FFF78FCEEF20C
:07211000EF08F275600122E7
:202118007F00EF2428FDE43401FE8F82C007C006C005122634AC82D005D006D0078D828EBD
:2021380083ECF00FBF800040D9754600900128120DA09211921278FFE4F2900271F0C21035
:2021580022D21022AE82AF8378FFE27003301002C3227D00ED24B1FBE43401FCED2EF5820B
:20217800E43FF583E08B828C83F00DBD200040E478FF7401F2D3229001B5E0FF9001B7E092
:20219800F5109001B8E0F5119001B1E0FCBC03169001B2E0FCBC550E9001B3E0FCBC4D0693
:2021B8009001B9E06004758204229001B4E0FCBC0102800475820122E51124E85004758291
:2021D8000322BF05028003BF0606AB117C0080047B007C0074092BFCBC20005016EC24B154
:2021F800FAE43401FB8A828B83E06004758204220C80E5E4BF030104FC7008BF0402800366
:20221800BF061EE5116016AA117B00A8107900EA28F8EB39F9C3748098E499503175820382
:2022380022E5106003BF0922BF05117403B51103D38001C3B39213E433FB800BE511B40156
:2022580000B39213E433FBEB600475820322EF24F65003022550EF240A83F582EF240E8303
:20227800F583E4735090BE37379CCF90492A252222232323232425259001D8740EF07F0040
:202298008F0374092BFB3395E0FAEB24D1FBEA3401FAEF90362893F98B828A83F00FBF0E0C
:2022B8000040DD0225549001D87408F0A211E4339001DAF03012091218C1AB827F0080040E
:2022D8007B007F009001DBEBF030120912113FAB827F0080047B007F009001DCEBF09002F4
:2022F80071E09001DDF07582001218B0AF829001DEEFF07582011218B0AF829001DFEFF075
:20231800A2AFC2AF78FFE664A5700618E864B470F59001E074B5F0A3E8F092AF0225549039
:2023380001D8E511F0751200C3E51295114003022554AB1274092BFB3395E0FAEB24D1FB44
:20235800EA3401FAEC6019E5122510F582C004C003C002122634A982D002D003D004801A51
:20237800A8107F00AD127E00ED28F8EE3FFFE82428F582EF3401F583E0F98B828A83E9F085
:20239800051280A49001BAE0FFBF80028004758203229001BBE0FF9001BCE0FD7E007C0090
:2023B800900273EE4FF0ED4CA3F0900272E4F090027104F0022554900271E0FFBF01028099
:2023D8000475820522900272E0FFB510028063AD117E00AB107C00ED2BFBEE3CFC7E00C349
:2023F800EF9BEE9C500475820A227F00C3EF95114003022554AD107E008F037C00EB2DFD47
:20241800EC3EFEED24F1F582EE3401F583E0FE8F0574092DFD3395E0FCED24B1F582EC3452
:2024380001F583E0FDEEB50502800475820A220F80BA7F00C3EF95115034AD107E008F036C
:202458007C00EB2DFDEC3EFEED24F1FDEE3401FE8F0474092CFC3395E0FBEC24B1F582EB8D
:202478003401F583E0FC8D828E83F00F80C6900272E02511F0022554900271E0FFBF02032B
:20249800022554BF010A900272E0FFBF80028004758205229001F1120B40AE82AF83900246
:2024B80073E0FCA3E0FDEEB5041AEFB505169001F7E0FD8E04B5040C9001F8E0FD8F06B549
:2024D80006028004758207227546009001F1120DA04004758206229001F11226A29211409A
:2024F80004758209227F00EF2428FDE43401FEEF24F1F582E43401F583E08D828E83F00FC5
:20251800BF800040E2D2121207FE9002717402F0802AE5106013AE105306067F00BE040569
:20253800BF0002800475820322851082120535800B900271E4F080047582022275820022A5
:20255800AE82AF83301010900271E4F078FFF21207FEC21002284E900271E0601D900275A9
:20257800E0FCA3E0FDEEC39CFCEF9DFDC3EC9488ED94134005900271E4F078FFE2700122AE
:2025980078FFE2B4010280030226207D00ED24D1F582E43401F583E4F00DBD200040EE9065
:2025B80001D17404F09001D27455F09001D3744DF09001D47401F07D04ED24D1FBE4340157
:2025D800FCED24B1F582E43401F583E08B828C83F00DBD070040E2C007C00612218FAD82C0
:2025F800D006D0079001D9EDF0ED70179001B5E0FDBD0500400DED24F74008900275EEF0F4
:1B261800EFA3F078FF7402F220100F9001D11227E1500778FFE4F202284E224D
:0E362800554D4143010A000606058003EFFFE1
:202634000234F0AF82C007122634AE82D007EEB513028019A2AF9214C2AF900303E513F0BE
:202654008F82C0071234BAD007A21492AF8F82122634E582B51302D322C322AE82AF837D59
:20267400008D82C007C006C005122634AC82D005D006D007ED2EF582E43FF583E0FBECB520
:2026940003028002C3220DBD800040D5D322AE82AF83C007C00612266FD006D0075002D3FE
:2026B40022751300758200C007C006122637D006D0075013751300758201C007C006122614
:2026D40037D006D0074002C3227D02ED2EF582E43FF583E0F5138D82C007C006C0051226AE
:2026F40037D005D006D0074001220DBD800040DB751350758201C007C006122637D006D0D3
:1F27140007501375134D758200C007C006122637D006D0074002C3228E828F8302266FE7
:04000000020049327F
:03000B00023500BB
:0100130032BA
:01001B0032B2
:0100230032AA
:01002B0032A2
:01003300329A
:01003B003292
:030043000227345D
:0E0080007808E4F608F608F608F6780C760024
:0300920002004623
:030046000227731B
:20273400C024C0E0C0F0C082C083C007C006C005C004C003C002C001C000C0D075D00012C9
:2027540033C1D0D0D000D001D002D003D004D005D006D007D083D082D0F0D0E0D02432A852
:17277400810876A508B800FA1235911208ED12091E80FB7582002244
:20278C0012345112347B12346A75DD0075D3002275D30074FC55D24402F5D2C2152230DE76
:2027AC00337402B5DB1190000AE0FFBF010990000BE0900277F0227420B5DB1890000AE035
:2027CC00FFBF031090000A12215C500874F355D24408F5D222D310AF01C3C0D0AE82AF8390
:2027EC00D216900302E060192015169002CAE0600330170DACD25304037D00BC0306BD00E2
:20280C0003C380377D008D037C0074402BFBE43CFCEB240AFBEC3400FCED2EF582E43FF5D6
:20282C0083E0FA8B828C83F00DBD200040D8C216C21775D320D21553D2FCD333D0D092AF19
:20284C001322D310AF01C3C0D0AED253060C7F00BE0C05BF0002800353D2F3D0D092AF22BF
:20286C00E582900277F0229002CCE4F09002CDF09002CEF09002CFF09002D0F09002D5F0FF
:20288C00A3F09002D3F0A3F09002D1F0A3F07F00EF24D7F582E43402F583E4F00FBF0800AF
:2028AC0040EE9002DFE4F09002E0F0A3F0C2159002CBE02401F0C216C2170228D09002CB73
:2028CC00E0F58222D310AF01C3C0D09002CAE4F09002C8F09002C9F0D0D092AF22AF829004
:2028EC0002C8E024C0F582E43402F583EFF09002C8E0FF0F74075FF09002CAE02401F0D320
:20290C00228582148583159002CAE0FDBD08028006900302E07002C3229002C8E075F00957
:20292C00A42478FC740235F0FD8C828D837401F00CBC00010D7B00EB2514F9E43515FA8915
:20294C00828A83E08C828D83F0A3AC82AD83EB24D7F8E43402FF89828A83E088828F83F0F2
:20296C000BBB080040D17582090228E9D310AF01C3C0D012290D33D0D092AF1322AF829021
:20298C0002CAE0FEBE08028006900302E07002C32274075FFE9002DFF0EF30E70CE518031C
:2029AC000354C0FD4EFF7518009002C8E075F009A42478FD740235F0FE8D828E837402F019
:2029CC008D828E83A3EFF08D828E83A3A3E516F08D828E83A3A3A3E517F08D828E83A3A39D
:2029EC00A3A3E518F07582050228E9D310AF01C3C0D0851916851A17851B1812298933D0BA
:202A0C00D092AF1322AE82AF839002CAE0FDBD08028006900302E07002C3229002E0EEF060
:202A2C00EFA3F09002C8E075F009A42478FC740235F0FD8C828D837405F08C828D83A38EB6
:202A4C0003EBF08C828D83A3A38F06EEF07582030228E9D310AF01C3C0D0122A1133D0D0A2
:202A6C0092AF13229002CAE07007201504C2188002D218A21822D310AF01C3C0D0AE82AF01
:202A8C00839002CAE06003022B779002D0E0FD0D751C00BD01079002CCE0FB8011BD020732
:202AAC009002CEE0FA80059002CFE0FA8A03BD010A9002D1E0F9A3E0FA8019BD020A90020E
:202ACC00D3E0F8A3E0FC80089002D5E0F8A3E0FC88018C028904EB7003022B64EEC39CFC9E
:202AEC00EF9AFA8B017B00E929F9EB33FBE929F9EB33FBC3EC99EA9B405EBD03067B007CD0
:202B0C000080048D037C009002D0EBF0BD01109002D7C007C00612290DD006D007804CBD9A
:202B2C00021D9002DFE0FC7516007517007518008C82C007C006122989D006D007802C9031
:202B4C0002E0E0FBA3E0FC8B828C83C007C006122A11D006D00780130DED24FC50027D010D
:202B6C00051C74FD251C4003022A9F900302E0601C2015199002CAE0601330160320170DED
:202B8C00ACD25304037D00BC0306BD0003022C359002C9E0FD75F009A42478FB740235F070
:202BAC00FC8B828C83E0F51DED24C0F582E43402F583E0F51E7900C3E9951E502789007AE0
:202BCC0000744028F8E43AFAE8240AF8EA3400FA8B828C83E0FDA3AB82AC8388828A83EDDB
:202BEC00F00980D37401B51D0A9002D1EEF0EFA3F0801C7402B51D0A9002D3EEF0EFA3F0B6
:202C0C00800D7405B51D089002D5EEF0EFA3F0D217851ED39002C9E0FF0F74075FF09002FD
:202C2C00CAE014F0D21553D2FCD0D092AF22AF82BF8000400475820022EF90363693F5820D
:202C4C0022E582FF7017AE7D9002CDEEF09002CFEEF09002CEEEF09002CCEEF022BF01074F
:202C6C009002CCE57DF022BF02079002CEE57DF022BF05069002CFE57DF022E582FF70075E
:202C8C009002CDE0F58222BF01079002CCE0F58222BF02079002CEE0F58222BF05079002B4
:202CAC00CFE0F5822275820022AF82AD7EAE7F8D828E83EFF0BF0143E57D601474012DFBA9
:202CCC00E43EFC900277E08B828C83F0758202227C008C027B000ABA00010BEA2DFAEB3E2B
:202CEC00FBEC24D7F582E43402F583E08A828B83F00CBC080040DB75820922E57D7039BF1C
:202D0C00023674012DFBE43EFC9002DFE08B828C83F074022DFBE43EFC74032DF9E43EFAE2
:202D2C008D828E83A3A3A3A3E4F089828A83F08B828C83F075820522E57D702FBF052C7470
:202D4C00012DFCE43EFF9002E0E0FAA3E08C828F83EAF074022DFDE43EFE9002E0E0A3E0BE
:0F2D6C00FC8D828E83ECF075820322758200222B
:2036360000000000000000002A2B28000000000000000000000000000000000000000000F7
:203656002C9EB4A0A1A2A434A6A7A5AE362D3738271E1F20212223242526B333B62EB7B817
:203676009F8485868788898A8B8C8D8E8F909192939495969798999A9B9C9D2F3130A3AD08
:20369600350405060708090A0B0C0D0E0F101112131415161718191A1B1C1DAFB1B0B5006D
:2036B600120110010000000809125DC500010102030105010906A1018501050719E029E731
:2036D60015002501950875018102950175088103950626FF00190029E781000508190129B2
:2036F6000515002501950575019102950175039103C005010902A1010901A100850205097C
:203716001901290325019503750181029501750381030B38020C0015FF7502810605010992
:2037360030093109381581257F750895038106C0C00600FF0901A10185030902150026FFF4
:20375600007508951F910285040903951F8102C0050C0901A1018505150026FF0F19002A30
:20377600FF0F751095018100C0090229000101008064090400000203000000092110010062
:203796000122B7000705810320000A0705010320000A040309041C0343004800350035001D
:2037B600780020006B006200640020006D006F007300260355006E00690076006500720019
:2037D600730061006C0020004D006100630072006F007000610064000E0344006500710021
:0637F60069006E0067008F
:03008E00757C007E
:202D7C00C3E5759408921940067E087F008004AE757F007F00C3EF9E502C8F047D00E57BA7
:202D9C00600A857982857A83E0FB8009857982857A83E493FB8C828D83EBF00579E4B5794A
:202DBC0002057A0F80CFE575C39EF5758E8222AFDB7E008E778E7BBF080280030232639038
:202DDC000007E060067DFF7F008008900006E0FCFD7F008D757F00900001E0F5768F7C9021
:202DFC000000E0FD54607003022F89900000E0FD5305607C00BD2005BC00028010BD400526
:202E1C00BC00028003022F847FFF023265900004E07006900005E060057FFF023265740931
:202E3C00B57635900000E0FDBD212D900003E0FDBD0225900002E0FDBD03077420B5750254
:202E5C00800D900002E0FDBD010E7402B57509857577757800023265740AB5764F90000066
:202E7C00E0FDBD2147E5757043900002E0601C900002E0FDBD01028012900002E0FDBD024A
:202E9C00028008900002E0FDBD0521900302E0601B900002E0FD900003E0F57D8D82C00720
:202EBC00C006122C4DD006D0070232657402B57654900000E0FDBDA14C900002E0601C90D5
:202EDC000002E0FDBD01028012900002E0FDBD02028008900002E0FDBD052A900003E070AF
:202EFC00247401B5751F900302E06019900002E0F582C006122C87AD82D006900000EDF000
:202F1C007F010232657401B57659900000E0FDBDA151900003E0FDBD01028008900003E03C
:202F3C00FDBD023F900302E06039900002E0FD900003E0FCE4BC020104F57D757EE2757FAC
:202F5C00028D82C007122CB5AE82D007EE600F7579E2757A02757B017576060232657FFF6C
:202F7C000232657FFF0232657FFF023265E57624F4500302325FE576240B83F582E5762412
:202F9C001083F583E473D5595F595F6ABA5F738AD0D03131323132302F3230303030900076
:202FBC0003E0FDBD01028017BD0202801DBD03028023BD2102806DBD22028073023065754E
:202FDC0079B6757A367E1202326575797F757A377E29023265900002E070087579A8757A16
:202FFC00378035900002E0FDBD01087579EE757A378025900002E0FDBD02087579C8757A12
:20301C00378015900002E0FDBD03087579AC757A3780057FFF023265857982857A83E493BC
:20303C00FE023265757991757A377E09023265900002E0700F7579C8757A36903798E49376
:20305C00FE0232657FFF0232657FFF023265900002E0F575023265900302E0FD900000F028
:20307C0074FF257540030232657F01023265900000E0701F900003E07019900002E0FD24A4
:20309C00FE4010900004E0700A900005E07004E57560057FFF023265900002E0900302F022
:2030BC00C007C006122873122159D006D00775D212023265900004E0706E900005E07068F0
:2030DC00900002E07062900003E0705C900302E06056740AB5760474018001E4FD6027908B
:2030FC000000E0FCBC8103D38001C3921A500E7401B57503D38001C3921A101A02D21AA258
:20311C001AE433FC801F900000E0FBBB0103D38001C3921A5008E5757004C21A8002D21A6A
:20313C00A21AE433FCEC60057FFF023265ED7003023265900000E4F07F0102326590000036
:20315C00E0FDBD0216900002E07010900003E0700A900005E07004E57560057FFF02326503
:20317C00900004E0FDBD81297403B5760B74FC55D24403F5D202326574BC55D24402F5D20C
:20319C00C007C006122873122159D006D007023265900004E0FDBD011B747355D2FD74033B
:2031BC00B576067B0C7C0080047B007C00EB4DF5D20232657FFF023265900004E0FE900093
:2031DC0000E0FDBD8236BE8111ACD2530403E4FDBC0304BD000104FE803BBE0111ACD25399
:2031FC00040CE4FDBC0C04BD000104FE8027EE6003BE80047E00801D7FFF804D900000E026
:20321C00FDBD80028008900000E0FDBD8103EE60047FFF8034900005E0700C900002E070C9
:20323C0006900003E060047FFF801E900000EEF0900001E4F074FE257550047F02800AAF8C
:20325C007580067FFF80027FFFBFFF0280127406B5760DC3EE957550028E75122D7CAF82D9
:20327C00BFFF077576FF75DCCF22EF24F740168FDDE57760067E027F0080047E007F0074BF
:20329C00C04EF5DC2275DD00E57760067E027F0080047E007F0074C04EF5DC227405B57664
:2032BC0002800F7406B57618122D7C8582DD63DC4022E5E35480FFE5754FF5E375DC0222D3
:2032DC0075DD0075DC022220DE01227409B5760280030233AFE57770030233AFE5DB24F74B
:2032FC0050030233AFAE787F00ACDB7D00EC2EFEED3FFFAC777D00C3EC9EED64808FF063EF
:20331C00F08095F050030233AF7F00C3EF95DB5019EF257824E2FDE43402FE8F82758300AB
:20333C00E0FC8D828E83F00F80E1E5DB2578F578E577B578457420B5771A9002E2E0FFBF91
:20335C0003129002E212215C500A74F355D24408F5D2801C7402B577139002E2E0FFBF01DA
:20337C000B9002E3E0F58212286C800475DCCF2275770075DD0075DC482274F825DB400742
:20339C007576FF75DC0F2263DC8074F055DC4402F5DC2275DD00E57760077576FF75DC0FB9
:2033BC002275DC022220D903023427E5D9540F6002802CAED95306307F00BE0005BF0002BF
:2033DC008013BE2005BF00028010BE303CBF0039122DCB80341232E3802F1232B8802AAE00
:2033FC00D953060F7F00BE0120BF001DE5D95430600280051227AA8010AED95306307F000B
:20341C00BE2006BF000312279CC2D930D81A12215912287375DC0275D21275E300C2DAC2BD
:20343C00D9C2D8900302E4F010DA0122E5DA20E20375D8FF2275E20053E27F43E22975E3A4
:20345C000053E2BF53D1FB75D18043D1012243E10443E10243E10143D81FD2EAD2AF227EB6
:19347C00007F008EEC8FED7E0A7F008EEE8FEF75D21275EAC075DC0222D4
:20349600ABF0A2AFE433FEC2AFE0A37A0833D2B44002C2B47905D9FEC2B4DAF1DBEBEE6084
:0434B60002D2AF226D
:2034BA00AF82BF800040012275A15575A1AA43B10475A1007585C0EF2FF584900303E0F52A
:2034DA008EE58630E60375869A75A15575A1AA53B1FB75A10022AF827585C0EF2FF58475D2
:0634FA00868E858E822201
:06005600E478FFF6D8FD7E
:20350000C0D075D00808B8000D09B900090ABA00050BBB00010CD0D032A2AFC2AFA808A9AD
:2035200009AA0AAB0BAC0C92AF75F020E8A4A8F075F020E9A428F582A8F075F020EAA428F2
:20354000F583A8F075F020EBA428F9A8F075F020ECA42889F022AE82AF83C374019EE49FFB
:2035600040022200C374029EFE74009FFF00BE0005BF00020022000000000000000000005A
:20358000000000000000000EBE00EB0FBF00ED002275A15575A1AA74F855B94406F5B97585
:2035A000A100901388123556759E5D759D0074F055894402F58953C9EF758C06C28DD2A93E
:0535C000D28CD2AF2205
:20005C00786CE84400600A799475A000E4F309D8FC78F0E84401600C7902900114E4F0A39C
:04007C00D8FCD9FAD9
:0D0049007581B41235C6E5826003020046E1
:0435C60075820022E8
:00000001FF
