:2000960090012C1235449000F375F009E4123484227F00BF0900500FEF24F3F582E4340006
:2000B600F583E4F00F80EC020096E582FF7003F58222EFC4540FFF74014FF58222AF82783E
:2000D6009AE2FEBE030774015F04FF80028E078F822230010122201406789CE2700122127E
:2000F6001811AF82C007121175AE82D007789CE26006789CE2FD800B8F82C006121159AD50
:2001160082D0068D07EF0303543FFD530503EFC4540FF5267896E2F5278F82C007C006C062
:20013600051200D3858228D005D006D007789BE2F5297898E2F52A789CE2601874015F04A4
:20015600F528300016900308E0C4540FFF74035FF52A8007E5287003F527FD7403B5290318
:200176007529027BF37F00E52A24C3F530E43435F5317403B52A0474018001E4F532740F70
:20019600B52603D38001C39203EDB40100B39204E4BD030104F533BD0303D38001C3920592
:2001B60074015527F534E4F535BD020104FD752B0074FD252B500302009685263685282C3A
:2001D6003003123000058533378006A204E433F537E5377004C2068002D206A206E433F5CB
:2001F6002D200056E527600EED604FE53445356049752C008044E5296037E52B2485F9E751
:20021600602F852B7C8E82C007C006C005C00312117FAC82D003D005D006D0078C36BC0F36
:2002360008900305E0FC20E70885292C752D008009852636200503752C00E52C7008F52FC1
:20025600F52EFC0202FBE52D6068E52B9035BD93FA853082853183E4938AF0A42525F537F6
:20027600E532600FE52B9035C093249CF9E7FA2537F53774AB2537400F752E00E53775F0AA
:2002960003A4F52FF4FC805D745625374012E53724ABFA7C0075F003A4F52EF4F52F8045CB
:2002B600E537FA245675F003A4FCF4F52E752F008033C005E53675F003A424E0FA7435355A
:2002D600F0FD8A828D83E493FC0ABA00010D8A828D83E493F52E0ABA00010D8A828D83E432
:2002F60093F52FD0057401B52C318C82C007C006C005C0031200C0AC82D003852E82C004E6
:20031600C0031200C085822E852F821200C085822FD003D004D005D006D0078B828F83E592
:200336002EF08B828F83A3ECF08B828F83A3A3E52FF074032BFBE43FFF052B0201C7AF8298
:20035600E57C2FFFE57DFE2F2E2EFFC3EF957D4007EFC3957DFF80F38F8222AF82BF80002A
:20037600404EC200E538C454F0FE43060AEFC45401B401009207E4334E789CF274EF5FFE20
:20039600247F789625E0F2BE8106789CE24404F2BE8007789CE4F27896F2123507AB82E59B
:2003B60083FCC313CB13CB747D2B7897F20200E8E538FE30E304EE24F0FE74015FF539BF2F
:2003D6000B00406B789AE2FC789BE225E025E0FB4204BF0C347B00EB9035DB93B50402804E
:2003F600060BBB050040F08B02BB05087A00EE20E7027A048E7C757D058A82C007C00412F8
:200416000354858238D004D007E5389035DB93F538BF0D07ECB5380375380FAC3874035CE6
:20043600789AF2EC0303543FFC789BF2020527BF092BC007C0061218111211591200D3AC26
:2004560082D006D007789BE2FBBB03027B02C3EC9B50028B04789AECF2789BECF2BF0A094C
:200476007C007B0475380F80107C027B04BF08005007EFC313FCFA04FBBF0304C3E49EFE41
:20049600C3EC9B4003020527AA38E5396058EC2498F9E3F53A7D04BC0200402C7403FDB54C
:2004B6003A26753A02BC0220C007C006C005C004C0031218111211591200D385823AD003AE
:2004D600D004D005D006D0078E7C8D7D853A82C007C006C004C003120354AA82D003D0040B
:2004F600D006D0078021BA0F1E7A03EC700C900308E0C4540FFD74035DFABC010A900308FD
:20051600E0FD23235403FAEC2498F8EAF20C020496BF02028008BF03028003BF0A0E12357D
:2005360007AC82AD83AEF0FF789BA6040200E8AF82789CE230E1047896E4F2789CEFF2EFF8
:20055600B401009208B39200EF701E20141B1200A79000F474FFF0123507AC82AD83900049
:20057600FCECF0EDA3F00200960200E8AF82789CE220E1298F82C007121159AE82D007EEF1
:200596000303543FFE5306037896E4F2BE010578967406F2BE02060F7896EF2FF2AE3BE56F
:2005B6003CC313CE13CE747D2E7897F20200E8AE82AF837896E26011EFC313CE13CEFF78AC
:2005D60097D3E29EF4FE30E701227896E214F27897E2FF7897747D2FF27896E2700A789C6A
:2005F600E230E104789CE4F20200E81217DE123507AC82AD83AEF0FFC005C004122A45D0F0
:2006160004D0055038C005C004123507AA82AB83AEF0FFD004D005EAC39CFAEB9DFBC3EA79
:200636009464EB94005016C005C004123507122A57123507121CD8D004D00580BB7EF37F35
:20065600007D00BD0300501F8E828F83E4F08E828F83A314F08E828F83A3A3E4F074032E38
:20067600FEE43FFF0D80DC75E200C2AF75890090C35012354412009690C3501235441238C7
:200696000080FEAF82BF030AA2B3B39209E433F58222BF050AA2B2B39209E433FE8013EF6F
:2006B6009035B893FFE5905207EFB401009209E433FE8E8222A2B0E43325E0FFA2B1E433EA
:2006D6004FF58222AF82C007120699AE82D007EF247EF98705EEB50502800DA706EF2FFD57
:2006F600248CF8A63D08A63EEF2485F98705EEB5050122EF2F248CF88604088605E53DC3BD
:200716009CFCE53E9DFDC3EC940AED94004044A706300109300205EE6002C2012230000E8B
:20073600758200C007C006120545D006D00720140122EE6016C007121C8AD0074012853DF1
:2007560063853E648F8212184080058F82121A330200E8221206CBAF827894E2B50701229C
:2007760030000A758200C007120545D0077894E225E025E04F9035CB93FE7894EFF22014AF
:200796000122EE70057895E4F2227895E22EF27895C3E26480948440127895E4F2121C8A0E
:2007B6004006758201121ACC0200E87895C3E2F5F0747C63F08095F040127895E4F2121CC1
:2007D6008A4006758200121ACC0200E822789CE230E104789CE4F2123507AC82AD838C0605
:2007F600EDC4CEC4540F6ECE540FCE6ECE8E82C005C004121B29D004D005900308E0C45469
:200816000FFF74035F7898F2900308E0232354037899F2789B7403F2789AF27F00EF24FCB3
:200836004035EF247EF9EF2485F88F82C007C005C004C001C000120699AE82D000D001D0DF
:2008560004D005D007A606A706EF2FFE248CF8A60408A6050F80C6C005C0041206CBE58230
:20087600D004D0057894F220140B789CE27005F58202054522C005C0041217DE7895E4F2B9
:20089600121811E582D004D005789AF6300A257896E4F2789BA604F5257F00BF030050093B
:2008B600EF249CF876000F80F28C3B8D3C789A86820205820200E8122118A2149201C2020F
:2008D6004390C24392C24393C243B00B740B459654EFF59643971B1200A7122774C20A12DF
:2008F60007E39000FC788CE6F008E6A3F07F0A30B301229003E8C007123544D007DFF020EF
:20091600B30302060122123507AC82AD83C005C004122A57D004D0058C828D83C005C004C8
:20093600122535D004D00578F2E2B4030BC005C004120601D004D0053001278C3D8D3E75D2
:200956008200C005C0041206DAD004D00590025DE07006300103020A71C202C201D20A0280
:2009760007E330141C8C06EDC4CEC4540F6ECE540FCE6ECE8E82C005C004121C74D004D057
:20099600057F00EF24FC40188C3D8D3E8F82C007C005C0041206DAD004D005D0070F80E37D
:2009B600C005C00412076AD004D0058C07789BEFC396FE789CE2600B900308E02323540307
:2009D600FB80047899E2FBEB9035C793FBC3EE9B5003020A71789CE26013789CE2FE30E303
:2009F600068E037E00802D7B007E00802730141BC007C005C004121811121159AA82D00419
:200A1600D005D0078A3F7540008005E4F53FF540AB3FAE405303FC7E00C374F09B74808ED8
:200A3600F063F08095F05033789BA60705257F037E00BE03005019EF55257008EE249CF939
:200A5600E7FB04F78F03EB2BFB74014BFF0E80E2C005C0041200E8D004D00520010320144D
:200A760043789CE2703D9000FCE0FEA3E0FFECC39EFEED9FFFC3EE94F4EF94014025900006
:200A9600FCECF0EDA3F09000F4E0F4FF30010C2002027F00D2029000F3EFF09000F4EFF018
:200AB600020096228C828D83C005C004121CD8121815AF82D004D005C007C005C004121826
:200AD60011AE82D004D005D007789AE6B506028024789CE230E104789CE4F2789AA606C073
:200AF60005C0041206CBE582D004D0057894F27895E4F27F01EF6019789CE220E1138C3B8A
:180B16008D3C789A8682C005C004120582D004D0058C828D830205C52F
:2035B800028040201000010200020100152A6D04060A1200FF0100010000FFFF0000010029
:0835D80001FF000F0D050400C6
:200B2E00AF827E007D00C3ED9F500EE57DC39DFC1C8E03EC2BFE0D80EDE57C2EC39F14F5DA
:200B4E008222AE82AF837CFF7DFF7B00BB06028036BB07028031EB2EF582E43FF583E0FA1C
:200B6E00E4F96204EA62057A088D01530180EC2CFCED33FDE9600E8C008D01630021630165
:200B8E001088048905DAE20BBB800040BF8C828D8322E582FF7002D3221F1F1F1FEF249EE2
:200BAE004002D322EF249C24F4920BB322E582FF2544F582E43545F583E0FE740F5EFDEEF1
:200BCE00C4540FFE7C000FBF00010CEF2544F582EC3545F583E0FFE5432542FC7402B54603
:200BEE0008BD0F028003754601ED24F05003020DFDED240A83F582ED241483F583E473885E
:200C0E00E4E4030B1E317272CCE7C65252602D0D0C0C0D0D0D0D0D0D0D0D0C0D0D0C0C74D4
:200C2E0002B54602800AC3EF9C4005BF80004002C322C3EC9F5013EC2544FAE43545FB8A41
:200C4E00828B83E060010C0C80E8ECB50702D322C322BF80004013BF8005EEB401002274A2
:200C6E00EF5F247F24F7920CB322EF24F25002C322BF0A05EEB4010022BF0D07EE14FCBC8B
:200C8E00040022BF0B07EE24FB920CB322EF20E003BF0C0C8E035303077C00EB4C24FF2220
:200CAE00BE0F02D322BF04005007EE24FC920CB322EE24FD920CB322EE24FE920C400EEF5A
:200CCE0024F9920C500BBFFA00920C5004C20C8002D20CA20C22E546600BBD0203D380019B
:200CEE00C3920C40078F82120BA04004C20C8002D20CA20C22EFB40100920CB322E546707C
:200D0E0006EE7003EF7004C20C8002D20CA20C22EE24FD920C4003EF7004C20C8002D20C7C
:200D2E00A20C22E546254625E0FC74034C5E700BBF8003D38001C3920C5004C20C8002D235
:200D4E000CA20C22AC467402C39CFCC3EE9C500BBF8003D38001C3920C5004C20C8002D2D1
:200D6E000CA20C22E5466003BD0706EE7007EF7004C20C8002D20CA20C22EE7005EFB40164
:200D8E000022BE0202D322BE0106C3EF95434002C322EF6024AC427D008F027B00EA2CFCFA
:200DAE00EB3DFD1CBCFF011DEC2544F582ED3545F583E06004C20C8002D20CA20C22EE240C
:200DCE00FE920C400BC3EF95414009BFFF028004C20C8002D20CA20C22EE700AC3EF95411B
:200DEE005004E5466004C20C8002D20CA20C22C3228582448583457F007401B54702800213
:200E0E00C322E54724FE4045854482854583E0FEBE4D3A854482854583A3E0FEBE502E8577
:200E2E004482854583A3A3E0FEBE0C21854482854583A3A3A3A3A3E0FEFC5304017D00AA62
:200E4E00477B00ECB50206EDB503028002C322C006854482854583A3A3A3E0FDFC74075C14
:200E6E0004F541EDC423541FFC5304077B00AA417E00C3EC9AEB64808EF063F08095F0D0E7
:200E8E0006400122E54124F85002C322EEC313FE743F5EF548ED23235403FD8544828545B6
:200EAE0083A3A3A3A3E0FC23540125E025E042059000FEEDF0ED24FB5002C322747F5CF57E
:200ECE0043E54175F00FA4FC7B0074092CFCE43BFBE54875F003A4FA7E002CFCEE3BFBED63
:200EEE0075F006A47E002CFCEE3BFBAD437E00ED2CFDEE3BFE8D038E04C374809BE49C501C
:200F0E0002C322EDC39543F5427E097D00C3ED9541504B7C008C027B00C3EA9406EB64805D
:200F2E0094805031C3EA9404EB64809480B3920DE433F5468E82C007C006C005C004120BFF
:200F4E00BBD004D005D006D0074001220C8E0374022BFE80C08E0474032CFE0D80AF781F8D
:200F6E007600781FC3E69548506BC007EE2544F582E43545F583E0FCC4540FFB5303077AD5
:200F8E0000AD417F00C3EB9DEA64808FF063F08095F0D00750328C0353030F7D00C3EB94DA
:200FAE0003ED648094805020781FE66005C3EF9C50168E05ED04F582754600C005C00412E4
:200FCE000BBBD004D0054002C3228C0774032DFE781F06808D9000FEE0FF7D00C3ED9F5005
:200FEE005F8E037C0074052BFBE43CFCEB2544F582EC3545F583E05407FB6008C3E5419BF1
:20100E005002C3228E04EC04F582754601C007C005C004120BBBD004D005D0074001227457
:20102E00032CF582754601C007C005C004120BBBD004D005D0074001220D74062CFE809C68
:20104E00E5436024AE427F00AC437D00EC2EFEED3FFF1EBEFF011FEE2544FEEF3545FF8E72
:20106E00828F83E06002C3227F00C3EF95435035AD427E008F037C00EB2DFDEC3EFEED254F
:20108E0044F582EE3545F583E0FE6016BE09028011BE0A02800CBE20004005EE248150029B
:2010AE00C3220F80C5E5432542FFBF80005028EF2544FDE43545FE8D828E83E06016BF7F3F
:2010CE0002800E7546028F82C007120BBBD0074002C3220F0F80D3854482854583120B5091
:2010EE00AE82AF83854482854583A3A3A3A3A3A3E0FD8E04B50416854482854583A3A3A357
:20110E00A3A3A3A3E0FD8F06B506028004C20D8002D20DA20D22900303E0FF74075F04F539
:20112E008222900303E0C423541FFF74075FF58222900308E0FF740F5F75F005A4F58222B8
:20114E00E58275F00FA42409F58222E58204F58212114EAF827E001FBFFF011E8F827403B6
:20116E002EF583E0F5822212114EE582240CF58222AF827E00E57CC3137C002FFFEC3EFEE9
:20118E008F8274032EF583E0FFE57C30E009EFC4540FFD7E0080087C00740F5FFD7E008D3B
:2011AE008222AF82C007121124AE82D007C3EF9E500674FA2549500BE54AF87600E54BF895
:2011CE007600228F8212114EAF82E54925E02FFEA94A8E82758303E0F7A94B7F000EBE0042
:2011EE00010F8E8274032FF583E0F722AF82900305E0C313FE743F5EF550C007121124AD1C
:20120E0082C00512114EAC82D005D007E54DB54C02801074FD254C400A74FD254D4004EF27
:20122E009D4002C322C3E54D954C5007AD4C854D4C8D4DEFC454F0FF854D7C757D03854CB4
:20124E0082C007C004120B2EAD82D004D007ED4207755100C3E5519550505E8C82758303BD
:20126E00E0FBB50702801E8C82758303E0FB53038F7A008F0553050F7E00430580EBB50500
:20128E002EEAB5062AA94E8C057E0074012DFAE43EFB8A8274032BF583E0F7A94F74022DEC
:2012AE00FDE43EFE8D8274032EF583E0F7D32205518C0674032EFC809BC322900303E023E9
:2012CE00235403FF900304E023540125E025E04FF5822212112412114EAF82900305E0C382
:2012EE0013FE743F5E75F003A42FF58222AF829000FFE02FFEC39F401D900304E0FF53078E
:20130E007F7D008E047E00C3EC9FEE64808DF063F08095F0400475820022C006C0041212B3
:20132E00E1AF82D004D006C007C006C0041212C9AD82D004D006D007ED75F006A42FFD7F4E
:12134E0000EC2DFCEE3FFE8C8274032EF583E0F58222A9
:2035E000FF0000FF1607FF1000FF4200FF7C003CFF0064C8141D7B4300FFC8005BFF00006E
:10360000FF7300B4FF00C2FF0048FFFFFF0000008F
:20136000AF827408B55202800FE57D30E02FAE52C3EE648094814025E57D30E01078E0E2BC
:20138000B4FF02801678E0E22401F2800E78DFE2B4FF02800678DFE22401F2C32278DDE243
:2013A00025E024CDF9EFF378DDE225E024CD04F9E57CF378DDE20478DD5407F20552D322B5
:2013C00078A186077E00EE24ABF9E36014EE249DF9E3FD53050FBD0408EE24A4F9E3FD4253
:2013E000070EBE070040DFE559600578E5E242078F8222AF82C0071213C0AE82D007BF0CE7
:2014000009E55FFC3395E0FD80047C007D00BF0D09E55FFD3395E0FF80047D007F008D1A7D
:201420008C19751B008E820229CCE582FF7002D3227E02EE2400FCE43401FD8C828D83E001
:20144000FBB50702D322EB70088C828D83EFF0D3220EBE080040DC227F007E00EE2400F573
:2014600082E43401F583E4F00EBE080040EE7E00EE24ABF9E3602FEE249DF9E3FD740F5D75
:20148000FCBC0222900100E0FCEDC4540F4204900100ECF0EE24A4F9E3F582C007C0061294
:2014A000142AD006D0070EBE070040C478E67401F2E559603378E3E2540FFEBE012A78E4F1
:2014C000E2F582C00712142AD007920EE433FE78E6F2EE6013900100E0FE78E3E2C4540F8C
:2014E000FD4206900100EEF07E00EE2400F582E43401F583E0FDEE24B9F9E3FCEDB5040278
:2015000080027F010EBE080040E0EF60229001001229604001227F00EF24B9F9EF2400F589
:2015200082E43401F583E0FEF30FBF080040E91213C0AF82789FE6B507028019751900755B
:201540001A00751B008F82C0071229CCD007400122789FA607E55C6026E55CC4540FFE7F58
:2015600000AC5D7D00EC4FF582ED4EF583122A34400122755C00E55E700578EE7401F2D384
:2015800022AF82AE5374F725625004AE55801874FFB5560280118556537556FFC007C00680
:2015A0001216DCD006D007740F5FFDFC24F150030216A4EC240A83F582EC241383F583E465
:2015C00073EBA4AFA4AF2FA4FAFA77294DA4A4DF151616161616161515161616161615EFF7
:2015E000C4540FF538856082020371EF70012285607C85617D8F820213608F5C85605DEFD2
:2016000020E00678EEE4F28009E55E600578EE7401F2EF5401700BAD620DEDFC3395E0FD21
:2016200080047C007D008C5E2278E17401F222EF30E508E560F478A156F622EF30E40778F1
:20164000A1E56046F62278A1E56066F622C007C006121124AD82D006D007E5602EFE8D04B8
:20166000ECC40354F8FC2EF560C3E5609D4008E560C39DF56080F274FFB560038554607857
:20168000E17401F2EF30E405855356801374FFB55604AE538002AE56EEB5600280028E54C7
:2016A0008560532285607C85617D8F820213602278C8E270012278C8E2FF1F78C8E4F2EF6A
:2016C00024ABF87401F2EF249DF9E3F582EF24A4F9E3F5607561008F62021581AF537E0012
:2016E0007D00ED24ABF9E3601EED249DF9E3FC53040FBC0A12ED24B2F9E3FCC39E40088CC3
:2017000006ED24A4F9E3FF0DBD070040D5EFB55501228F55121C9075520078DDE4F278DE47
:20172000F2E55E7011E55C700578EEE26008755C0078EE7401F2755700755A0078A17600C5
:2017400075580075590078E5E4F21216B00216DC12113085825385535485535578E1E4F2BA
:201760007556FF78C8F278C1F278DFF278E0F27F00EF24C2F8E4F20FBF060040F478DDE44C
:20178000F278DEF2F552F557F55A78A17600F55878EEF2F55CF55E78F1F278AA7600F55914
:2017A00078E5F2789F76001228B1E58278CCF27F00EF24ABF8E4F2EF24B2F8EFF2EF249D6C
:2017C000F8E4F2EF24A4F8E4F20FBF070040E27F00EF24B9F8E4F20FBF080040F422122840
:2017E000B812175078B974FFF2789F76FF900000122A34B3920F78EEA20FE433F2021458B4
:20180000E582600678E0E2FF800478DFE2FF8F82228555822278E1E2F58278E1E4F222E56D
:201820008224B2F9E3FF7E00EE24B2F8E2FDC3EF9D5003ED14F20EBE070040EC7406F32239
:2018400085826512113FAE82E56524FC40238565F005F07C017D008006EC2CFCED33FDD568
:20186000F0F778C1E2FA7B005204EB5205EC4D600122AD658DF005F07401800225E0D5F058
:20188000FBFC78C1E24CF2C3E5659403E433FC6009E56524C2F9E360012278C8E2700302B2
:2018A0001967EC700874FFB5560302196778C8E2FB14F568EC7003021955C00578CAD3E228
:2018C0009563F4B3FAB308E29564F4FB8E057F00C3EA9DEB9FD005507C754E66754F67858A
:2018E000684C85654D78C9E2F582C006C005C0041211FAD004D005D006505A78C8E4F2E5D3
:201900006824C2F9ED04F3E56524C2F9E56804F3E568249DF8E566F2E56824A4F8E567F2A1
:20192000E565249DF8E4F2E56524A4F8E4F2E56524ABF8E4F2E56824ABF87401F28568821D
:2019400012181F8567607561008568628566821215810216DCC006C005C0041216B0121675
:20196000DCD004D005D006754A66754B67856549855582C006C005C0041211B0E565249D04
:20198000F9E566F3E56524A4F8E567F2856582C001C00012181FD000D001D004D005D00672
:2019A000EC6046EE60437F00BF0300503C754E66754F6785654C8F4D855582C007C005C029
:2019C00001C0001211FAD000D001D005D007501678C8ED04F2E55578C9F2AC63AE6478CA83
:2019E000ECF2EE08F2220F80BFE56524ABC000F87401F2D000E3F582E2F560756100856558
:201A0000621215810216DCE582FF249DF9E3FE53060FEF24ABF9E36019BE02028008BE0440
:201A2000028003BE08067E027F0080047E007F00EEF322E582FF24FC5001228F068EF005C1
:201A4000F07401800225E0D5F0FBFE78EDF278C1E25E700122EEF4FE78C1E25EF28F057E1C
:201A6000000DBD00010E78C8E27C00B5050EECB5060AC0071216B01216DCD0078F82C00724
:201A8000121A07D007BF0300503FEF24C2F9E3FF60371F8F82C007C001121A07D001D00711
:201AA0008FF005F07D017E008006ED2DFDEE33FED5F0F778C1E2FB7C005205EC5206ED4ED6
:201AC0007007F3EF24C2F8E4F20216DCE582FF60067D017E0080047D027E0074032DFE78A2
:201AE000C8E2601574FFB55602800EC007C0061216B01216DCD006D007754A69754B6A8EC3
:201B000049855582C0071211B0D007EF60067E077F0080047E087F008E62856A60756101B7
:201B20008569821215810216DCAF8278ECEFF27F00BF0400501BEF24E8F8E4F2EF24A2F800
:201B40007600EF24A6F87600EF24ABF876000F80E02285826B1212E185826C1212C985824D
:201B60006DC2107C00C3EC956D4003021C71EC24E8F9E3F56E7A00AD6C7F0074052DFDE457
:201B80003FFF8D8274032FF583E0F56FE56B6074E56F54076019AB6F5303077D00AE550E45
:201BA0007F00EBB50606EDB507028003021C66EC24A6F98707E56B2FFFF7C3EF956B4003A1
:201BC000021C66856C82758303E0FFB56E24EC24A2F98707AD6F530538E4FEFBEFB5051270
:201BE000EBB5060EE4F56EF7EC24ABF876017A018038056EE56E7032EC24A2F98707740879
:201C00002FF78026EC24ABF9E760097A03E56F30E602D2107700E56F30E70F756E00EC2445
:201C2000A2F87600EC24A6F87600EC24E8F8E56EF2EA6032E56C2AFAF582758303E0FF7E7B
:201C4000000ABA00010E8A8274032EF583E0F5608C0674092EF5627561008F82C0041215ED
:201C6000811216DCD0040CAE6C74062EF56C021B65A21022AF8278ECD3E29FF4FE78ECEF58
:201C8000F2EE60058E82021B5222758200021B521212E1AF82C0071212C9AE82D0077D008A
:201CA000C3ED9E50328F037C0074052BFBE43CFC8B8274032CF583E054076012ED24E8F8C5
:201CC000E4F2ED24A2F87600ED24A6F876000D8F0474062CFF80C92285827085837178C808
:201CE000E2602C78CAD3E29570F4B3FCB308E29571F4FDC005C00412113FAB82D004D00582
:201D00007A00C3EC9BED9A40061216B01216DC1228B1AD8278CCE2B50502802978CCEDF28E
:201D200078B974FFF21213C0E582F4FD789FA605E55E6011AD5E1DED249DF9E3F55CED2446
:201D4000A4F9E3F55D78EEE2600F900000122A34500678EEE4F2800122121458500578EE8C
:201D6000E2600122E557701FE55A701BE5527017122A4592114010AD7078F1D3E29DF4FD6E
:201D8000BD080092115004C2118002D211A211E433FD600578F1E570F27C00EC24ABF9E360
:201DA000FBBB0243EC249DF9E3FA53020FBA0220EC24A4F9E3FA60187F02EF24B9F9E3FE3C
:201DC000B5020280060FBF080040EFBF0802806D8C070FEFB55E08755E0078EE7401F2ECD1
:201DE00024ABF8E4F28056ED6053EB6050EC249DF9E3FF24E424FE4019740F5FF582EC24C1
:201E0000A4F9E3F55FC005C0041213F3D004D005802B747F5FFEBE4624AE7078AAEEC396FA
:201E2000FEBE64004017EC24A4F9E3F57C757D008F82C005C004121360D004D0050CBC07A1
:201E4000005003021D9B121458400122E5576003021ED9E55A605BC3E55A947F9211500DED
:201E6000855A82758303E06004C2118002D211A211E433FF601078A0E6600878A016855BDD
:201E80005A8003755A00E55A6048855A82758303E0F5576014AE5A7F000EBE00010F8E8240
:201EA00074032FF58378E2E0F2AF5A74022FF55A8020E552601C78DEE225E024CDF9E3F589
:201EC000570978E2E3F278DEE2FF0478DE5407F2155275580078E7E4F2E557700122E55721
:201EE000540FFFE5586003022054C007122A45D0075001227420B5572278E2E2FDE4CDC468
:201F0000CD6DCD54F0CD6DFEED2570FDEE3571FE78EFEDF2EE08F275580322BF0F1478E2D1
:201F2000E2FE8E5B8E5A78A0E557C4540FF675570022BF066D78E2E2FE7003F55722C0067E
:201F40001213C0AD82D006E55730E710EE30E7067BF07C00801C7B107C008016EE30E708FC
:201F600075720F7573008006757201757300AB72AC738B1B751900751A008D82C00612291E
:201F8000CCD006400122EE30E705EE04FD8003EE14FD78E2EDF2ED60012278AAA670755714
:201FA0000022BF0C028003BF0D1678E2E2F55F8F821213F340012278F1E570F27557002213
:201FC000BF07005003BF051778E2E2F5607561007562098557821215817557000216DCE51B
:201FE0005778E3F278E2E2FE78E4F278E5E4F2EF703778E79000FFE2F08E821212FBE58296
:20200000FD7003F557228D82122C0FE582FD30E7067B207C0080047B007C0078E374014B58
:20202000F278E4747F5DF28007BF0304EE78E5F2755901121458500578E6E2700122AD70F4
:20204000AE7174082DFDE43EFE78EFEDF2EE08F2755801227401B5582378EFD3E29570F4C3
:2020600008E29571F430E70122122A45500122755900121458400122755802227402B5582B
:2020800052C007122A45D007500122EF701C78E7E22401F2AD70AE7174202DFDE43EFE78F7
:2020A000EFEDF2EE08F275580322BF0322E55754F0601CE55724F0F557AD70AE7174C82D57
:2020C000FDE43EFE78EFEDF2EE08F275580322755700227403B5583F78EFD3E29570F4B34A
:2020E000FDB308E29571F4FE20E72C7420B5570475570022EF7003F558227559011214586B
:182100005015AE70AF7174082EFEE43FFF78EFEEF2EF08F2755801223A
:202118007F008F057E038F82C007C006C005122626AC82D005D006D0078D828E83ECF00F97
:20213800BF800040DD754701900300120DFF9213921478F2E4F29001C8F0C21222D21222ED
:20215800AE82AF8378F2E27003301202C3227D00ED2408FBE43401FCED2EF582E43FF5834A
:20217800E08B828C83F00DBD200040E478F27401F2D32290010CE0FF90010EE0F5109001F6
:202198000FE0F511900108E0FCBC0316900109E0FCBC550E90010AE0FCBC4D06900110E04C
:2021B80060047582042290010BE0FCBC0102800475820122E51124E8500475820322BF057B
:2021D800028003BF0606AB117C0080047B007C0074092BFCBC20005016EC2408FAE43401D3
:2021F800FB8A828B83E06004758204220C80E5E4BF030104FC7008BF04028003BF061EE5B1
:20221800116016AA117B00A8107900EA28F8EB39F9C3748098E499503175820322E51060D3
:2022380003BF0922BF05117403B51103D38001C3B39215E433FB800BE511B40100B3921571
:20225800E433FBEB600475820322EF24F5500302252DEF240A83F582EF240F83F583E473AF
:202278002D8EBC19197BAE6F260731252222232323232425252590012F740EF07F008F03DC
:2022980074092BFB3395E0FAEB2428FBEA3401FAEF90361093F98B828A83F00FBF0E00401F
:2022B800DD02253190012F7406F0A213E433900131F0301409121811AB827F0080047B00F6
:2022D8007F00900132EBF0301409121130AB827F0080047B007F00900133EBF09001C8E027
:2022F800900134F0758200121800AF82900135EFF0758201121800AF82900136EFF00225FA
:202318003190012FE511F0751200C3E51295114003022531AB1274092BFB3395E0FAEB243B
:2023380028FBEA3401FAEC6019E5122510F582C004C003C002122626A982D002D003D004F6
:202358008017A8107F00AD127E00ED28F8EE3FFF888274032FF583E0F98B828A83E9F00528
:202378001280A7900111E0FFBF8002800475820322900112E0FF900113E0FD7E007C00901D
:2023980001CAEE4FF0ED4CA3F09001C9E4F09001C804F00225319001C8E0FFBF0102800410
:2023B800758205229001C9E0FFB510028063AD117E00AB107C00ED2BFBEE3CFC7E00C3EF28
:2023D8009BEE9C500475820A227F00C3EF95114003022531AD107E008F037C00EB2DFDEC8D
:2023F8003EFEED2448F582EE3401F583E0FE8F0574092DFD3395E0FCED2408F582EC3401B0
:20241800F583E0FDEEB50502800475820A220F80BA7F00C3EF95115034AD107E008F037C11
:2024380000EB2DFDEC3EFEED2448FDEE3401FE8F0474092CFC3395E0FBEC2408F582EB3447
:2024580001F583E0FC8D828E83F00F80C69001C9E02511F00225319001C8E0FFBF020302F4
:202478002531BF010A9001C9E0FFBF8002800475820522900148120B50AE82AF839001CA05
:20249800E0FCA3E0FDEEB5041AEFB5051690014EE0FD8E04B5040C90014FE0FD8F06B50628
:2024B80002800475820722754701900148120DFF40047582062290014812269492134004B9
:2024D800758209227F008F057E03EF2448F582E43401F583E08D828E83F00FBF800040E667
:2024F800D214D20A1207E39001C87402F0802AE5106013AE105306067F00BE0405BF000211
:20251800800475820322851082120545800B9001C8E4F080047582022275820022AE82AF41
:20253800833012129001C8E4F078F2F2C20A1207E3C2120228369001C8E0601D9001CCE034
:20255800FCA3E0FDEEC39CFCEF9DFDC3EC9488ED941340059001C8E4F078F2E270012278ED
:20257800F2E2B4010280030225FF7D00ED2428F582E43401F583E4F00DBD200040EE9001D4
:20259800287404F09001297455F090012A744DF090012B7401F07D04ED2428FBE43401FCC9
:2025B800ED2408F582E43401F583E08B828C83F00DBD070040E2C007C00612218BAD82D0B9
:2025D80006D007900130EDF0ED701790010CE0FDBD0500400DED24F740089001CCEEF0EFF1
:2025F800A3F078F27402F22012239001281227C9501B90010CE0FFBF0A0C900130E070067B
:0E26180078F27403F22278F2E4F202283622FD
:0E361000554D4143010C010303078003FFFFEA
:202626000234DEAF82C007122626AE82D007EEB51302D322A2AF9216C2AF90025EE513F034
:202646008F82C0071234A8D007A21692AF8F82122626E582B51302D322C322AE82AF837D85
:20266600008D82C007C006C005122626AC82D005D006D007ED2EF582E43FF583E0FBECB53C
:2026860003028002C3220DBD800040D5D322AE82AF83C007C006122661D006D0075002D31A
:2026A60022751300758200C007C006122629D006D0075013751300758201C007C006122630
:2026C60029D006D0074002C3227D02ED2EF582E43FF583E0F5138D82C007C006C0051226CA
:2026E60029D005D006D0074001220DBD800040DB751350758201C007C006122629D006D0FD
:1F27060007501375134D758200C007C006122629D006D0074002C3228E828F8302266111
:04000000020049327F
:03000B000234EECE
:0100130032BA
:01001B0032B2
:0100230032AA
:01002B0032A2
:01003300329A
:01003B003292
:030043000227266B
:0E0080007808E4F608F608F608F6780C760024
:0300920002004623
:0300460002276529
:20272600C024C0E0C0F0C082C083C007C006C005C004C003C002C001C000C0D075D00012D7
:2027460033AFD0D0D000D001D002D003D004D005D006D007D083D082D0F0D0E0D024321208
:0E276600357F1208CD12091C80FB75820022FF
:2027740012343F12346912345875DD0075D3002275D30074FC55D24402F5D2C2172230DEC2
:20279400337402B5DB1190000AE0FFBF010990000BE09001CEF0227420B5DB1890000AE0F7
:2027B400FFBF031090000A122158500874F355D24408F5D222D310AF01C3C0D0AE82AF83AC
:2027D400D21890025DE06019201716900221E0600330190DACD25304037D00BC0306BD0043
:2027F40003C380377D008D037C0074402BFBE43CFCEB240AFBEC3400FCED2EF582E43FF5EF
:2028140083E0FA8B828C83F00DBD200040D8C218C21975D320D21753D2FCD333D0D092AF2B
:202834001322D310AF01C3C0D0AED253060C7F00BE0C05BF0002800353D2F3D0D092AF22D7
:20285400E5829001CEF022900223E4F0900224F0900225F0900226F0900227F090022CF0B7
:20287400A3F090022AF0A3F0900228F0A3F07F00EF242EF582E43402F583E4F00FBF0800C2
:2028940040EE900236E4F0900237F0A3F0C217900222E02401F0C218C2190228B890022241
:2028B400E0F58222D310AF01C3C0D0900221E4F090021FF0900220F0D0D092AF22AF829017
:2028D400021FE02417F582E43402F583EFF090021FE0FF0F74075FF0900221E02401F0D3DC
:2028F40022858214858315900221E0FDBD0802800690025DE07002C32290021FE075F00968
:20291400A424CFFC740135F0FD8C828D837401F00CBC00010D7B00EB2514F9E43515FA89D7
:20293400828A83E08C828D83F0A3AC82AD83EB242EF8E43402FF89828A83E088828F83F0B3
:202954000BBB080040D17582090228D1D310AF01C3C0D01228F533D0D092AF1322AF82906A
:202974000221E0FEBE0802800690025DE07002C322900236EFF090021FE075F009A424CF91
:20299400FD740135F0FE8D828E837402F08D828E83A3EFF08D828E83A3A3E516F08D828E78
:2029B40083A3A3A3E517F08D828E83A3A3A3A3E518F07582050228D1D310AF01C3C0D085B0
:2029D4001916851A17851B1812297133D0D092AF1322AE82AF83900221E0FDBD0802800612
:2029F40090025DE07002C322900237EEF0EFA3F090021FE075F009A424CFFC740135F0FD4B
:202A14008C828D837405F08C828D83A38E03EBF08C828D83A3A38F06EEF07582030228D122
:202A3400D310AF01C3C0D01229E633D0D092AF1322900221E07007201704C21A8002D21AA3
:202A5400A21A22D310AF01C3C0D0AE82AF83900221E06003022B4C900227E0FD0D751C0099
:202A7400BD0107900223E0FB8011BD0207900225E0FA8005900226E0FA8A03BD010A900207
:202A940028E0F9A3E0FA8019BD020A90022AE0F8A3E0FC800890022CE0F8A3E0FC88018C7D
:202AB400028904EB7003022B39EEC39CFCEF9AFA8B017B00E929F9EB33FBE929F9EB33FB94
:202AD400C3EC99EA9B405EBD03067B007C0080048D037C00900227EBF0BD011090022EC048
:202AF40007C0061228F5D006D007804CBD021D900236E0FC7516007517007518008C82C05B
:202B140007C006122971D006D007802C900237E0FBA3E0FC8B828C83C007C0061229E6D012
:202B340006D00780130DED24FC50027D01051C74FD251C4003022A7490025DE0601C2017EF
:202B540019900221E0601330180320190DACD25304037D00BC0306BD0003022C0A900220ED
:202B7400E0FD75F009A424CFFB740135F0FC8B828C83E0F51DED2417F582E43402F583E0AF
:202B9400F51E7900C3E9951E502789007A00744028F8E43AFAE8240AF8EA3400FA8B828C11
:202BB40083E0FDA3AB82AC8388828A83EDF00980D37401B51D0A900228EEF0EFA3F0801C4B
:202BD4007402B51D0A90022AEEF0EFA3F0800D7405B51D0890022CEEF0EFA3F0D219851EE7
:202BF400D3900220E0FF0F74075FF0900221E014F0D21753D2FCD0D092AF22AF82BF800070
:202C1400400475820022EF90361E93F58222E582FF7019900239E0FE900224F0900226EE60
:202C3400F0900225EEF0900223EEF022BF0109900239E0900223F022BF0209900239E09006
:202C54000225F022BF0508900239E0900226F022E582FF7007900224E0F58222BF01079083
:202C74000223E0F58222BF0207900225E0F58222BF0507900226E0F5822275820022AF8264
:202C940090023BE0FDA3E0FE8D828E83EFF0BF014590023AE0601474012DFBE43EFC900185
:202CB400CEE08B828C83F0758202227C008C027B000ABA00010BEA2DFAEB3EFBEC242EF56E
:202CD40082E43402F583E08A828B83F00CBC080040DB7582092290023AE0FCE07039BF02E3
:202CF4003674012DFAE43EFB900236E08A828B83F074022DFAE43EFB74032DF8E43EF98D21
:202D1400828E83A3A3A3A3E4F088828983F08A828B83F075820522EC702FBF052C74012D61
:202D3400FCE43EFF900237E0FAA3E08C828F83EAF074022DFDE43EFE900237E0A3E0FC8DCD
:0D2D5400828E83ECF07582032275820022CE
:20361E0000000000000000002A2B280000000000000000000000000000000000000000000F
:20363E002C9EB4A0A1A2A434A6A7A5AE362D3738271E1F20212223242526B333B62EB7B82F
:20365E009F8485868788898A8B8C8D8E8F909192939495969798999A9B9C9D2F3130A3AD20
:20367E00350405060708090A0B0C0D0E0F101112131415161718191A1B1C1DAFB1B0B50085
:20369E00120110010000000809125DC500010102030105010906A1018501050719E029E749
:2036BE0015002501950875018102950175088103950626FF00190029E781000508190129CA
:2036DE000515002501950575019102950175039103C005010902A1010901A1008502050994
:2036FE001901290825019508750181020501093009311581257F750895028106093815FF02
:20371E0025017504950181060B38020C008106C0C00600FF0901A10185030902150026FFF9
:20373E00007508951F910285040903951F8102C0050C0901A1018505150026FF0F19002A48
:20375E00FF0F751095018100C009022900010100806409040000020300000009211001007A
:20377E000122B7000705810320000A0705010320000A040309041C03430048003500350035
:20379E00780020006B006200640020006D006F007300260355006E00690076006500720031
:2037BE00730061006C0020004D006100630072006F007000610064000E0344006500710039
:0637DE0069006E006700A7
:03008E00757B007F
:202D6200C3E5749408921B40067E087F008004AE747F007F00C3EF9E502C8F047D00E57AC2
:202D8200600A857882857983E0FB8009857882857983E493FB8C828D83EBF00578E4B5786A
:202DA2000205790F80CFE574C39EF5748E8222AFDB7E008E768E7ABF080280030232519069
:202DC2000007E060067DFF7F008008900006E0FCFD7F008D747F00900001E0F5758F7B903E
:202DE2000000E0FD54607003022F77900000E0FD5305607C00BD2005BC00028010BD400552
:202E0200BC00028003022F727FFF023253900004E07006900005E060057FFF023253740981
:202E2200B57535900000E0FDBD212D900003E0FDBD0225900002E0FDBD03077420B5740270
:202E4200800D900002E0FDBD010E7402B57409857476757700023253740AB5755190000095
:202E6200E0FDBD2149E5747045900002E0601C900002E0FDBD01028012900002E0FDBD0261
:202E8200028008900002E0FDBD052390025DE0601D900002E0FD900003E0900239F08D825A
:202EA200C007C006122C22D006D0070232537402B57554900000E0FDBDA14C900002E06012
:202EC2001C900002E0FDBD01028012900002E0FDBD02028008900002E0FDBD052A9000036D
:202EE200E070247401B5741F90025DE06019900002E0F582C006122C64AD82D00690000071
:202F0200EDF07F010232537401B5755F900000E0FDBDA157900003E0FDBD01028008900063
:202F220003E0FDBD024590025DE0603F900002E0FD900003E0FCE4BC02010490023AF0906C
:202F4200023B743DF07402A3F08D82C007122C92AE82D007EE600F75783D757902757A0174
:202F62007575060232537FFF0232537FFF0232537FFF023253E57524F4500302324DE57529
:202F8200240B83F582E575241083F583E473C3474D474D58A84D6178BEBE31313231323072
:202FA2002F3230303030900003E0FDBD01028017BD0202801DBD03028023BD2102806DBDDA
:202FC2002202807302305375789E7579367E120232537578677579377E2902325390000254
:202FE200E070087578907579378035900002E0FDBD01087578D67579378025900002E0FDEF
:20300200BD02087578B07579378015900002E0FDBD030875789475793780057FFF02325329
:20302200857882857983E493FE0232537578797579377E09023253900002E0700F7578B06B
:20304200757936903780E493FE0232537FFF0232537FFF023253900002E0F574023253900B
:20306200025DE0FD900000F074FF257440030232537F01023253900000E0701F900003E043
:203082007019900002E0FD24FE4010900004E0700A900005E07004E57460057FFF0232532A
:2030A200900002E090025DF0C007C00612285B122155D006D00775D212023253900004E012
:2030C200706E900005E07068900002E07062900003E0705C90025DE06056740AB57504749B
:2030E200018001E4FD6027900000E0FCBC8103D38001C3921C500E7401B57403D38001C35D
:20310200921C101C02D21CA21CE433FC801F900000E0FBBB0103D38001C3921C5008E574D3
:203122007004C21C8002D21CA21CE433FCEC60057FFF023253ED7003023253900000E4F059
:203142007F01023253900000E0FDBD0216900002E07010900003E0700A900005E07004E577
:203162007460057FFF023253900004E0FDBD81297403B5750B74FC55D24403F5D2023253BF
:2031820074BC55D24402F5D2C007C00612285B122155D006D007023253900004E0FDBD01BC
:2031A2001B747355D2FD7403B575067B0C7C0080047B007C00EB4DF5D20232537FFF02328A
:2031C20053900004E0FE900000E0FDBD8236BE8111ACD2530403E4FDBC0304BD000104FEBA
:2031E200803BBE0111ACD253040CE4FDBC0C04BD000104FE8027EE6003BE80047E00801D9F
:203202007FFF804D900000E0FDBD80028008900000E0FDBD8103EE60047FFF803490000566
:20322200E0700C900002E07006900003E060047FFF801E900000EEF0900001E4F074FE25EB
:203242007450047F02800AAF7480067FFF80027FFFBFFF0280127406B5750DC3EE95745065
:20326200028E74122D62AF82BFFF077575FF75DCCF22EF24F740168FDDE57660067E027FFA
:203282000080047E007F0074C04EF5DC2275DD00E57660067E027F0080047E007F0074C06F
:2032A2004EF5DC227405B57502800F7406B57518122D628582DD63DC4022E5E35480FFE535
:2032C200744FF5E375DC022275DD0075DC022220DE01227409B57502800302339DE576702B
:2032E2000302339DE5DB24F7500302339DAE777F00ACDB7D00EC2EFEED3FFFAC767D00C3AA
:20330200EC9EED64808FF063F08095F0500302339D7F00C3EF95DB5019EF2577243DFDE47D
:203322003402FE8F82758300E0FC8D828E83F00F80E1E5DB2577F577E576B577457420B515
:20334200761A90023DE0FFBF031290023D122158500A74F355D24408F5D2801C7402B576C7
:203362001390023DE0FFBF010B90023EE0F582122854800475DCCF2275760075DD0075DCB6
:20338200482274F825DB40077575FF75DC0F2263DC8074F055DC4402F5DC2275DD00E57669
:2033A20060077575FF75DC0F2275DC022220D903023415E5D9540F6002802CAED95306303E
:2033C2007F00BE0005BF00028013BE2005BF00028010BE303CBF0039122DB180341232D146
:2033E200802F1232A6802AAED953060F7F00BE0120BF001DE5D954306002800512279280EB
:2034020010AED95306307F00BE2006BF0003122784C2D930D81A12215512285B75DC027506
:20342200D21275E300C2DAC2D9C2D890025DE4F010DA0122E5DA20E20375D8FF2275E20024
:2034420053E27F43E22975E30053E2BF53D1FB75D18043D1012243E10443E10243E101434A
:20346200D81FD2EAD2AF227E007F008EEC8FED7E0A7F008EEE8FEF75D21275EAC075DC0235
:013482002227
:20348400ABF0A2AFE433FEC2AFE0A37A0833D2B44002C2B47905D9FEC2B4DAF1DBEBEE6096
:0434A40002D2AF227F
:2034A800AF82BF800040012275A15575A1AA43B10475A1007585C0EF2FF58490025EE0F5E2
:2034C8008EE58630E60375869A75A15575A1AA53B1FB75A10022AF827585C0EF2FF58475E4
:0634E800868E858E822213
:06005600E478FFF6D8FD7E
:2034EE00C0D075D00808B8000D09B900090ABA00050BBB00010CD0D032A2AFC2AFA808A9C0
:20350E0009AA0AAB0BAC0C92AF75F020E8A4A8F075F020E9A428F582A8F075F020EAA42804
:20352E00F583A8F075F020EBA428F9A8F075F020ECA42889F022AE82AF83C374019EE49F0D
:20354E0040022200C374029EFE74009FFF00BE0005BF00020022000000000000000000006C
:20356E00000000000000000EBE00EB0FBF00ED002275A15575A1AA74F855B94406F5B97597
:20358E00A100901388123544759E5D759D0074F055894402F58953C9EF758C06C28DD2A962
:0535AE00D28CD2AF2217
:20005C00785FE84400600A799475A000E4F309D8FC786CE84401600C79029000F3E4F0A34F
:04007C00D8FCD9FAD9
:0D0049007581AE1235B4E5826003020046F9
:0435B40075820022FA
:00000001FF
