:2000B8007E947F007D007C004305128E828F838DF0EC0233BA7F00BF1200500FEF2494F57F
:2000D80082E43400F583E4F00F80EC0200B8E582FFC4540FFEEFB40100B39200E4334EF51F
:2000F800822290026FE070079000CAE07001221215EA8582239000CAE0FEE070088523822A
:20011800120EA7AE82EEF5240303543FFD530503E524C4540FF5259000C6E0F526740FB505
:20013800251E9000CAE0600AE4BD030104F97A00800A8D007E00740158F97A00E94A700428
:20015800C2018002D201A201E433F52779947A00E4BD030104F874015526F52CE4F52DBD9D
:20017800020104FD74015524F52E752F0075280074FA252850030200B8852530752900E5EC
:200198002890353193FF9000C9E02FFF9000CAE06005752901805FE5266011752901ED60AB
:2001B80055E52C452D604F75300F804AE52824ADFBE43400FC8B828C83E0602C85284A8531
:2001D8002382C007C005C002C001C000120EC6AC82D000D001D002D005D0078C30BC0F16C3
:2001F8009000D2E0FC30E70E852530E86005752901800375300FE529605DE5276059BF55E3
:200218000050188F047455C39CFC75F003A4F52AEF75F003A4F52B7B00806BBFAA00501E24
:200238008F06EE24ABFE752A008E047455C39CFC75F003A4F52BEE75F003A4FB8048EF2405
:2002580056FF75F003A4F52A752B007455C39FFF75F003A4FB802FE53075F003A42447FEFC
:20027800743535F0FF8E828F83E493F52A0EBE00010F8E828F83E493F52B0EBE00010F8EE2
:20029800828F83E493FBE529603FE52E452F7039852A82C005C003C002C001C0001200E66F
:2002B80085822A852B821200E685822BD000D001D002D0038B82C002C001C0001200E6AB60
:2002D80082D000D001D002D00589828A83E52BF089828A83A3E52AF089828A83A3A3EBF031
:2002F800740329F9E43AFA0528020188AF829000CAEFF0EF702190026FE0701B1200CD90B8
:20031800009574FFF012343DAC82AD839000CBECF0EDA3F00200B80200FAAF82C007120E67
:20033800A7AE82D007EE0303543FFE5306039000C6E4F0BE0103048001E4FD7003BE023160
:20035800ED60067D037E00800C0FEF3395E0FCEF2FFDEC33FE9000C6EDF0AE31E532C313CF
:20037800CE13CEC313CE13CEFF747D2EFE9000C7F00200FAAE82AF839000C6E0FDE06017E6
:20039800EFC313CE13CEC313CE13CE9000C7E0FFEEC39FFE30E70122ED149000C6F09000B7
:2003B800C7747D2FF00200FA1215B512343DAC82AD83AEF0FFC005C00412286CE582D0048E
:2003D800D0056038C005C00412343DAA82AB83AEF0FFD004D005EAC39CFAEB9DFBC3EA94E5
:2003F80064EB94005016C005C00412343D12288512343D1219F4D004D00580B97E947F00BC
:200418007D00BD0600501F8E828F83E4F08E828F83A314F08E828F83A3A3E4F074032EFE77
:20043800E43FFF0D80DC1200B875E200C2AF75890090C35012347A90C35012347A12380079
:2004580080FEAF82BF060AA2B3B39202E433F58222BF050AA2B2B39202E433FE8013EF902A
:20047800352C93FFE5905207EFB401009202E433FE8E8222A2B0E43325E0FFA2B1E4334FFE
:20049800F58222AF82C00712045AAE82D007EF24A6FCE43400FD8C828D83E0FBEEB50302D1
:2004B800801C8C828D83EEF0EF75F002A424B4F582740035F0F583E533F0E534A3F0EF246B
:2004D800ADFCE43400FD8C828D83E0FBEEB5030122EF75F002A424B4F582740035F0F5832A
:2004F800E0FAA3E0FBE533C39AFAE5349BFBC3EA940AEB940040658C828D83EEF09000CAA9
:20051800E0600E758200C007C006120304D006D00790026FE0700122EE6030BF061CC00791
:200538001215EA120EA7E582D0079000C55402F09000CBE533F0E534A3F0853363853464AB
:200558008F82C00712162ED00780098F82C0071218D9D007BF060050030200FA2212048C6B
:20057800AF829000C2E0FEEFB50601229000CAE0600A758200C007120304D0079000C2E0B1
:2005980025E025E04F90353793FE9000C2EFF090026FE0700122EE70069000C3E4F022907B
:2005B80000C3E02EF0E0FFC364809484400B9000C3E4F075820102198EC3747C8FF063F02C
:2005D8008095F0400B9000C3E4F075820002198E2212343DAC82AD83AEF07F00EF24F94080
:2005F80056EF24A6FBE43400FEEF24ADF9E43400FA8F82C007C006C005C004C003C002C08C
:200618000112045AA882D001D002D003D004D005D006D00789828A83E8F08B828E83E8F075
:20063800EF75F002A424B4F582740035F0F583ECF0EDA3F00F80A5C005C00412048CE58226
:20065800D004D0059000C2F090026FE0700C9000CAE07005F58202030422C005C004121539
:20067800B59000C3E4F01215EAE582D004D0059000C4F09000C5E4F09000C6F09000C8EC6E
:20069800F09000C9E4F00200FA121E384390F24392F24393F243B00F740F459654EFF5963F
:2006B80043971F1200CD1205E912250075820612045AE58260030203C02212343DAC82AD97
:2006D80083C005C004122885D004D0058C828D83C005C0041222B2D004D0057F00EF24F9CD
:2006F80040188C338D348F82C007C005C00412049BD004D005D0070F80E3C005C004120566
:2007180075D004D0058C079000C8E0FEEFC39EFEBE060040619000CAE0FE6010EE30E30678
:200738008E037E00802E7B007E00802890026FE0601AC007C005C0041215EA120EA7AA8294
:20075800D004D005D0078A017A00800479007A0089038A065303F47E00BBF41ABE00179073
:2007780000C8EFF09000C9E02401F0C005C0041200FAD004D00590026FE070319000CAE072
:20079800702A9000CBE0FEA3E0FFECC39EFEED9FFFC3EE94F4EF940140129000CBECF0EDE3
:2007B800A3F0900095E064FFF00200B8228C828D83C005C0041219F41215EEE582D004D074
:2007D800057017C005C0041215EAAF82D004D0059000C4E0FEB50702804CC005C004121595
:2007F800EAAF82D004D0059000C4E0FEB50702801FC005C0041215EAE5829000C4F0120433
:200818008CE582D004D0059000C2F09000C3E4F09000C4E0FF8C318D328F82C005C0041260
:200838000332D004D0058C828D83C005C00412038CD004D0059000C5E060219000B3E06098
:1D0858001B9000CBE0FEA3E0FFECC39EFCED9FFDC3EC94B8ED940B40030203C0222A
:1B352C000280402010002A54D2A87E00FF0100010000FFFF0000010001FF001C
:20087600AF82BF01067E0F7F0080047E167F008E8222AF82BF01067E037F0080047E067F18
:20089600008E8222AF827E007D00C3ED9F500EE51CC39DFC1C8E03EC2BFE0D80EDE51B2E70
:2008B600C39F14F58222AE82AF837CFF7DFF7B00BB06028036BB07028031EB2EF582E43F9E
:2008D600F583E0FAE4F96204EA62057A08ED30E70EEC2CF8ED33F96300216301108006ECF5
:2008F6002CF8ED33F988048905DAE20BBB800040BF8C828D8322E582FF6020BF040092030C
:200916004007EF249A92035012BF680092034007EF248C92035004C2038002D203A203E4A6
:2009360033F5822285823A85833BE535253AF582E4353BF583E0FD740F5DFCEDC4540FFDCB
:20095600AA357B000ABA00010BEA253AF582EB353BF583E0FBEC24F05003020AF0EC240A80
:2009760083F582EC241483F583E473A1D6D6FBFBFBFB245C6FBCD6F0B42B2B090909090910
:2009960009090A0A0A0A0A0A090A0AED7003EB6004C2048002D204A204E433F58222ED24A2
:2009B600FE9204400EEB24FC9204500BBBFD0092045004C2048002D204A204E433F582222D
:2009D600E537600BBC0203D38001C3920440098B8212090CE5827004C2048002D204A204F0
:2009F600E433F58222E537600BBC0503D38001C39204400DED700AEB6007EB24F892045046
:200A160004C2048002D204A204E433F58222ED600475820022E537B4010092048D04E433CF
:200A3600C364808CF063F08095F09204400BBB8003D38001C392045004C2048002D204A245
:200A560004E433F58222ED7007EB7004C2048002D204A204E433F58222ED7006C3EB9539B6
:200A76004004758200227C007A00C3EA9539502EEAB50307EC600475820122A83879008A1E
:200A9600067F00EE28F8EF39F9E8253AF582E9353BF583E0FFE4BF000104FC0A80CCE4BB85
:200AB600000104F58222ED24FE92044006C3EB95364004C2048002D204A204E433F5822266
:200AD600ED700AC3EB95365004E5376004C2048002D204A204E433F5822275820022AE828F
:200AF600AF83754500E53C24FE403E8E828F83E0FCBC4D358E828F83A3E0FCBC502B8E820F
:200B16008F83A3A3E0FCBC032074052EFBE43FFC8B828C83E0F95301017A00A83C7D00E9DD
:200B3600B50006EAB505028004758200228E828F83A3A3A3E0FDFA74035A04F53DED0303C5
:200B5600543FF95301037D00853D468D47C3E99546ED64808547F063F08095F0400475829C
:200B76000022853C82C007C006C004C00312088885823E853C8212087685823FD003D0043F
:200B96008B828C83E0C313FB743F5BF540A83F7B00A93D7D00C001C00588828B831234EA9C
:200BB600AB82AD831581158174092BFBE43DFDA8407900C005C003C000C001900003123492
:200BD600EAA882A98315811581D003D005D006D007E82BF8E93DF98E828F83A3A3A3A3E086
:200BF600FD7C0028F8EC39F9C3748098E499500475820022853FF0E53DA4FC2409FBE5402C
:200C1600F975F003A42BF5418D42754300C3E543953D4003020CB5853FF0E543A42409F869
:200C3600754400853E4875490074032548FAE43549FBA9447D00C3E99AED64808BF063F092
:200C56008095F05055E544254488052DF53574012548FBE43549FDA9447A00C3E99BEA6426
:200C7600808DF063F08095F0B39205E433F537853D368541388542398E828F83C007C006D7
:200C9600C004C00012093AE582D000D004D006D0077003F58222054480890543020C237462
:200CB600092CFD7403B53E0474018001E4FC7B00C3EB95404003020D68ED2EF582E43FF546
:200CD60083E0FAC4540FF85300037900C3E89546E964808547F063F08095F050678A0053B8
:200CF600000F7900EC6008754803754900800675480F754900C3E89548E964808549F063FE
:200D1600F08095F0503EEB6006C3E5459A50358D01E904F535853D367537008541388542CF
:200D3600398E828F83C007C006C004C003C002C00112093AE582D001D002D003D004D006CF
:200D5600D0077004758200228A45740329FD0B020CC6E5426024AB417D00AA427C00EA2B3D
:200D7600FBEC3DFD1BBBFF011DEB2EFBED3FFD8B828D83E0600475820022754400C3E544ED
:200D960095425076AB417C00A9447A00E92BF8EA3CFDE82EF8ED3FFD88828D83E06057E9D1
:200DB6002BF8EA3CFDE82EF582ED3FF583E0FDBD09028042E92BF8EA3CFDE82EF582ED3F57
:200DD600F583E0FDBD0A02802DE92BF8EA3CFDE82EF582ED3FF583E0FDBD20004014E92BB0
:200DF600FBEA3CFCEB2EF582EC3FF583E0FD2481500475820022054480838E828F83C00769
:200E1600C0061208BCAC82AD83D006D00774062EF582E43FF583E0FB8C02B5021274072E80
:200E3600F582E43FF583E0FF8D04B504028004C2058002D205A205E433F582229000D0E024
:200E5600FF74035F04F582229000D0E00303543FFF74035FF582229000D2E0FF74015FF5B9
:200E7600820208889000D5E0FF740F5F75F005A4F58222AF829000D2E0FE74015EF582C000
:200E960007120876E582D007F5F0EFA42409F58222E58204F582120E89AF827E001FBFFF12
:200EB600011EEF24CDF582EE3400F583E0F58222AF82C007120E6DAE82C006120E52AD8277
:200ED600D006D007C3EF9D5006C3E54A9E4004758206228F82C006120E89AF82D006E4FD4F
:200EF600FC74032EFEE43CFCEE2EFEEC33FCEE2FFFEC3DFDE54AC3137C002FFFEC3DFDEFE6
:200F160024CDF582ED3400F583E0FFE54A30E009EFC4540FFD7E0080087C00740F5FFD7EA1
:200F3600008D8222AF82C007120E52AE82D007C3EF9E5025C007120E6DAE82D0077D0074E8
:200F5600032EFEE43DFDAB4B7C00C3EB9EEC64808DF063F08095F0400BE54CF87600E54DAF
:200F7600F87600228F82120E89AF82E54B254B2FFEA94C24CDF582E43400F583E0F7A94D59
:200F96007F000EBE00010FEE24CDF582EF3400F583E0F722AF82C007120E6DAE829000D2DF
:200FB600E0C313FD743F5DF552C006120E52120E89AC82D006D007E54FB54E028022C3E5D2
:200FD6004E9E501CC3E54F9E5016C007C006C004120E52AB82D004D006D007C3EF9B4004A6
:200FF60075820022C3E54F954E5007AB4E854F4E8B4FEFC454F0FF854F1B8E1C854E82C0F8
:2010160007C00412089AAE82D004D007EE4207755300C3E55395525064EC24CDF582E4345F
:2010360000F583E0FBB50702801753038F7A008F0553050F7E00430580EBB50536EAB506D2
:2010560032A9508C057E0074012DFAE43EFBEA24CDF582EB3400F583E0F7A95174022DFD2D
:20107600E43EFEED24CDF582EE3400F583E0F77582012205538C0674032EFC8095758200C3
:2010960022AF82E5542FFEC39F400A9000D1E0FFC3EE9F400475820022C006120E52120E90
:2010B60089AF82D0069000D2E0C313FD743F5D75F003A42FFDE4FFFCEE2DFDEC3FFFED24FB
:0C10D600CDF582EF3400F583E0F58222B6
:20354700FF0000FF1607FF1000FF4200FF7C003CFF0064C8141D7B4300FFC8005BFF000007
:10356700FF7300B4FF00C2FF0048FFFFFF00000029
:2010E200AF827408B55602800EE51C6034AE56C3EE64809481402AE51C60129001A1E0FE76
:20110200BEFF0280189001A1EE04F080109001A0E0FEBEFF0280069001A0EE04F075820074
:201122002290019EE075F002A4248EF582740135F0F583EFF090019EE075F002A4248EFE8D
:20114200740135F0FF8E828F83A3E51BF090019EE0045407F00556758201227F007E00EE81
:201162002469F582E43401F583E0FD42070EBE090040EC7E00EE245BFCE43401FD8C828D19
:2011820083E06025EE244DF582E43401F583E0FD53050F7C00BD0511BC000EEE2454F582C4
:2011A200E43401F583E0FD42070EBE070040C6E55D60079001A5E0FE42078F8222AF82C073
:2011C2000712115DAE82D007BF0E09E55FFC3395E0FD80047C007D00BF0F09E55FFD339567
:2011E200E0FF80047D007F008D188C177519008E820227D7E582FF7004758201227E02EE46
:20120200247AFCE43401FD8C828D83E0FBB5070475820122EB700A8C828D83EFF0758201EF
:20122200220EBE080040D8758200227F007E00EE247AF582E43401F583E4F00EBE0800400C
:20124200EE7E00EE245BFCE43401FD8C828D83E06040EE244DF582E43401F583E0FDFB5371
:20126200030F7C00BB022BBC002890017AE0FCEDC4540F420490017AECF0EE2454F582E429
:201282003401F583E0F582C007C0061211F6D006D0070EBE070040AB9001A67401F0E55D59
:2012A200603B9001A3E0FE53060F7D00BE012EBD002B9001A4E0F582C0071211F6AE82D059
:2012C200079001A6EEF0EE601490017AE0FE9001A3E0C4540FFD420690017AEEF07E00EED0
:2012E200247AF582E43401F583E0FDEE2472F582E43401F583E0FCEDB5040280027F010E49
:20130200BE080040DAEF602E90017A12272DE5827003F582227F00EF2472FDE43401FEEF83
:20132200247AF582E43401F583E0FC8D828E83F00FBF080040E112115DE582FFB5550280B0
:201342001B7517007518007519008F82C0071227D7E582D0077003F582228F557582012299
:20136200AF82AE5774FFB55A028011855A57755AFFC007C006121453D006D0078F0453047F
:201382000F7D00BC0004BD000122BC0204BD000122BC0504BD000122BC0605BD0002801CB6
:2013A200BC0A05BD00028051BC0B05BD00028008BC0D54BD0051801E75590122E56224692F
:2013C200FCE43401FD8C828D83E0FBE56062038C828D83EBF022C007C006120E52AD82D03D
:2013E20006D007E5602EFE240CF560C3E5609D4008E560C39DF56080F2755901EF30E403EA
:2014020085575A8560572285601B85611C8F820210E2900189E0FFE07001221F900189E4A6
:20142200F0EF245BF582E43401F5837401F0EF244DF582E43401F583E0FEEF2454F582E4D7
:201442003401F583E0F5607561008F628E82021362AF577E007D00ED245BFBE43401FC8B52
:20146200828C83E06035ED244DF582E43401F583E0FC53040F7B00BC0B21BB001EED24620D
:20148200F582E43401F583E0FCC39E400E8C06ED2454F582E43401F583E0FF0DBD070040C8
:2014A200B6EFB55801228F587F00EF2469F582E43401F583E4F00FBF090040EE7556009037
:2014C200019EE4F090019FF0AE5B53060F7F00BE0812BF000F7404B55C0280057405B55C47
:2014E20003755E01755B00755C00755D009001A5E4F0121414021453120E5E85825785573B
:2015020058755900755AFF900189E4F0900182F09001A0F09001A1F07F00EF2483F582E431
:201522003401F583E4F00FBF060040EE90019EE4F090019FF0F556F55BF55CF55E9001AB88
:20154200F0F55D9001A5F0F55512265DE58290018DF07F00EF245BF582E43401F583E4F004
:20156200EF2462F582E43401F583EFF0EF244DF582E43401F583E4F0EF2454F582E43401DA
:20158200F583E4F00FBF070040CA7F00EF2469F582E43401F583E4F00FBF090040EE7F00C3
:2015A200EF2472F582E43401F583E4F00FBF080040EE221226641214FA90017274FFF0F58B
:2015C2005590000012285DE582B401009206E433F55E02122DE58260079001A1E0FF8005CA
:2015E2009001A0E0FF8F82228558822285598275590022E5822462FEE43401FF8E828F83B0
:20160200E0FD7C00EC2462FAE43401FB8A828B83E0F9C3ED995007198A828B83E9F00CBC88
:20162200070040E08E828F837406F022AF82C007120E6D858267D007C3E5679F40248FF078
:2016420005F07C017D008006EC2CFCED33FDD5F0F7900182E0FBF97A005204EA5205EC4DF5
:201662006001228F058DF005F07401800225E0D5F0FB9001824BF0C3EF9567E433FC6010A4
:20168200EF2483FAE43401FB8A828B83E0600122900189E0FBE070030217ACEC700874FF43
:2016A200B55A030217AC1BEC700302179A90018BE0F9A3E0FAE563C399F9E5649AFAC00771
:2016C200C005C004C003C002C001120E7AA882D001D002D003D004D005D0077E00C3E998BD
:2016E200EA9E400302179A90018AE0FE7550657551668B4E8F4F8E82C007C005C004C00341
:20170200120FAAE582D003D004D005D007700302179A900189E4F0EB2483F582E43401F517
:2017220083ED04F0EF2483F582E43401F5838B060EEEF0EB244DF582E43401F583E565F08A
:20174200EB2454F582E43401F583E566F0EF244DF582E43401F583E4F0EF2454F582E434AF
:2017620001F583E4F0EF245BF582E43401F583E4F0EB245BF582E43401F5837401F08B82EC
:20178200C0031215F5D0038566607561008B62856582121362021453C007C005C0041214B5
:2017A20014121453D004D005D007754C65754D668F4B855882C007C005C004120F3AD00414
:2017C200D005D007EF244DFBE43401FE8B828E83E565F0EF2454F9E43401FA89828A83E521
:2017E20066F08F82C007C006C005C004C003C002C0011215F5D001D002D003D004D005D019
:2018020006D007EC6071C007C006C005C003C002C001120E7AE582D001D002D003D005D078
:2018220006D00760527C00C3EC9567504A7550657551668F4E8C4F855882C007C006C00597
:20184200C004C003C002C001120FAAE582D001D002D003D004D005D006D0076017900189ED
:20186200ED04F090018AE558F090018BE563F0E564A3F0220C80B0EF245BF582E43401F5BC
:20188200837401F08B828E83E0FB89828A83E0F5607561008F628B82121362021453E582ED
:2018A200FF244DF582E43401F583E0FE53060FEF245BFDE43401FF8D828F83E06018BE02AC
:2018C200028003BE05067C027E0080047C007E008D828F83ECF022AF82C007120E6DAE826A
:2018E200D007C3EE9F5001228F068EF005F07401800225E0D5F0FBF4FE900182E05EF08FC6
:20190200057E000DBD00010E900189E07B00B5050EEBB5060AC007121414121453D0078F9C
:2019220082C0071218A0120E6DAE82D007C3EF9E5057EF2483FEE43401FF8E828F83E0FD5C
:2019420060471D8D82C007C006C0051218A0D005D006D0078DF005F07B017C008006EB2B0E
:20196200FBEC33FCD5F0F7900182E0F97A005203EA5204EB4C70128E828F83E4F0ED248355
:20198200F582E43401F583E4F0021453AF82C007120E6DAE82D007EF60067C017D008004A1
:2019A2007C027D00EC2EFE900189E0601574FFB55A02800EC007C006121414121453D0067B
:2019C200D007754C68754D698E4B855882C007120F3AD007EF60067E077F0080047E087FC7
:2019E200008E62856960756101856882121362021453AE82AF83900189E0603B90018BE07E
:201A0200FCA3E0FDEEC39CFCEF9DFDC007C006C005C004120E7AAB82D004D005D006D00743
:201A22007A00C3EC9BED9A400EC007C006121414121453D006D007C007C00612265DAD82CD
:201A4200D006D00790018DE0FCB505028019C007C00612265DE582D006D00790018DF090B4
:201A6200017274FFF0F555E55E6018900000C007C00612285DE582D006D0076005755E0089
:201A8200800122C007C00612122DE582D006D007700122E55B7026E5567022C007C00612DA
:201AA200286CAD82D006D007ED70128E059001ABE0FCEDC39CFDBD080092075004C2078056
:201AC20002D207A207E433FD60059001ABEEF07C00EC245BF582E43401F583E0FBBB025115
:201AE200EC244DF582E43401F583E0F953010F7A00B9022FBA002CEC2454F582E43401F510
:201B020083E0FA601E7902E92472F582E43401F583E0F8B50202800609B9080040E9B9081B
:201B2200028051EC245BF582E43401F583E4F08043ED6040EB603DEC244DF582E43401F5CF
:201B420083E0FBF95301FE7A00B91E28BA002553030FEC2454F582E43401F583E0F55F8BF2
:201B620082C007C006C005C0041211BFD004D005D006D0070CBC07005003021AD3C007C0FB
:201B82000612122DE582D006D007700122E55B7054E556605090019FE0FD75F002A4248E8C
:201BA200FB740135F0FC8B828C83E0F55B8B828C83A3E09001A2F0ED0490019F5407F01503
:201BC20056755C009001A8E4F0AC5B53040F7D00BC0409BD00067C027D0080047C017D00E0
:201BE2009001A7ECF0E55B700122E55B540FFDE55C6003021D5BC007C006C00512286CE561
:201C020082D005D006D007600122BD07569001A2E0FC7003F55B22C00412115DAB82D004E8
:201C2200EC33E433FA600678FF79FF80047801790088197517007518008B82C004C0021248
:201C420027D7E582D002D004700122EA6005EC04FB8003EC14FB9001A2EBF0EB600122753B
:201C62005B0022BD0E028003BD0F219001A2E0F55F8D82C007C0061211BFE582D006D007AF
:201C82007001229001ABEEF0755B0022BD082BAB5BE4CBC4540F6BCB540FCB6BCB8B047B33
:201CA200009001A2E07A004BF582EA4CF58312285DE582700122755C04229001A3E55BF039
:201CC2009001A2E0FC9001A4F09001A5E4F0BD09489001A8E0F5548C82C007C00612109700
:201CE200AC82D006D007EC7003F55B228C82C007C006122A5AAC82D006D007EC30E7067AA7
:201D0200207B0080047A007B009001A374014AF09001A4747F5CF08010BD03028003BD04C0
:201D2200089001A2E09001A5F0755D01C007C00612122DE582D006D00760069001A6E070AE
:201D420001228E038F0474082BFBE43CFC9001A9EBF0ECA3F0755C01227401B55C289001B5
:201D6200A9E0FBA3E0FCEEC39BEF9C30E7012212286CE582600122755D0012122DE58270C3
:201D82000122755C02227402B55C46C007C006C00512286CE582D005D006D007600122BD3B
:201DA200090B9001A8E02401F0755C00229001A7E014F0E060178E048F0574C82CFCE43DCE
:201DC200FD9001A9ECF0EDA3F0755C0322755B00227403B55C379001A9E0FCA3E0FDEEC380
:201DE2009CFCEF9DFD20E74D755D01C007C00612122DE582D006D007603B74082EFEE43F41
:201E0200FF9001A9EEF0EFA3F0755C01227404B55C1512286CE582701C90000012285DE5F0
:161E2200826012755C05227405B55C0912286CE5827002F55B223A
:201E38007F00EF24CDFDE43400FE8F82C007C006C005122396AC82D005D006D0078D828E9D
:201E580083ECF00FBF800040D9753C009000CD120AF4AF8290026EEFF090026FEFF0900204
:201E78006CE4F0900270F090026DF02290026D7401F022AE82AF8390026CE0700690026DCC
:201E9800E06004758200227D00ED24ACFBE43401FCED2EF582E43FF583E08B828C83F00D5D
:201EB800BD200040E490026C7401F0758201229001B0E0FF9001B2E0F5109001B3E0F5111A
:201ED8009001ACE0FCBC03169001ADE0FCBC550E9001AEE0FCBC4D069001B4E06004758219
:201EF80004229001AFE0FCBC0102800475820122E51124E8500475820322BF05028003BFB1
:201F18000606AB117C0080047B007C0074092BFCBC20005016EC24ACFAE43401FB8A828BA3
:201F380083E06004758204220C80E5E4BF030104FC7008BF04028003BF061EE5116016AAD4
:201F5800117B00A8107900EA28F8EB39F9C3748098E499503175820322E5106003BF0922DA
:201F7800BF05117403B51103D38001C3B39208E433FB800BE511B40100B39208E433FBEB3E
:201F9800600475820322EF24F650030222AAEF240A83F582EF240E83F583E473AAC82285DC
:201FB80085EA1DDEA384221F20202020212122229001D3740EF09001D57455F09001D67461
:201FD8004DF09001D77441F09001D87443F09001D97401F09001DA7403F09001DBE4F0901E
:201FF80001DC7406F0E0FF9001DDF09001DE7404F09001DF7480F09001E07403F09001E1D0
:2020180074FFF09001E2F00222AE9001D37406F090026EE09001D5F090026FE0600912159B
:20203800EAAB827F0080047B007F009001D6EBF090026FE06009120E5EAB827F0080047BBF
:20205800007F009001D7EBF0900270E09001D8F07582001215D7AF829001D9EFF075820104
:202078001215D7AF829001DAEFF00222AE9001D3E511F0751200C3E512951140030222AEB7
:20209800AB1274092BFB3395E0FAEB24CCFBEA3401FAEC6019E5122510F582C004C003C0E8
:2020B80002122396A982D002D003D004801AA8107F00AD127E00ED28F8EE3FFFE824CDF582
:2020D80082EF3400F583E0F98B828A83E9F0051280A49001B5E0FFBF8002800475820322BE
:2020F8009001B6E0FF9001B7E0FD7E007C00900272EE4FF0ED4CA3F0900271E4F0900270AD
:2021180004F00222AE900270E0FFBF0102800475820522900271E0FFB510028063AD117ED4
:2021380000AB107C00ED2BFBEE3CFC7E00C3EF9BEE9C500475820A227F00C3EF9511400331
:202158000222AEAD107E008F037C00EB2DFDEC3EFEED24ECF582EE3401F583E0FE8F05741A
:20217800092DFD3395E0FCED24ACF582EC3401F583E0FDEEB50502800475820A220F80BA2C
:202198007F00C3EF95115034AD107E008F037C00EB2DFDEC3EFEED24ECFDEE3401FE8F0498
:2021B80074092CFC3395E0FBEC24ACF582EB3401F583E0FC8D828E83F00F80C6900271E0D0
:2021D8002511F00222AE900270E0FFBF02030222AEBF010A900271E0FFBF80028004758210
:2021F80005229001EC1208BCAE82AF83900272E0FCA3E0FDEEB5041AEFB505169001F2E0A8
:20221800FD8E04B5040C9001F3E0FD8F06B50602800475820722753C009001EC120AF4E5D8
:20223800827004758206229001EC12240CAF8290026EEFF0EF7004758209227F00EF24CDBE
:20225800FDE43400FEEF24ECF582E43401F583E08D828E83F00FBF800040E290026F740176
:20227800F01205E99002707402F0802AE5106013AE105306067F00BE0405BF0002800475BF
:20229800820322851082120304800B900270E4F080047582022275820022AE82AF83900242
:2022B8006DE06014900270E4F090026CF01205E990026DE4F00225DB900270E0601D9002BB
:2022D80074E0FCA3E0FDEEC39CFCEF9DFDC3EC9488ED94134005900270E4F090026CE0707C
:2022F800012290026CE0FDBD0102800302237D7D00ED24CCF582E43401F583E4F00DBD20C3
:202318000040EE9001CC7404F09001CD7455F09001CE744DF09001CF7401F09001B0E09015
:2023380001D0F09001B1E09001D1F09001B2E09001D2F0C007C006121EC7AD82D006D0077A
:202358009001D4EDF0ED70179001B0E0FDBD0500400DED24F74008900274EEF0EFA3F0903C
:1E237800026C7402F090026DE070129001CC12255AE582600890026CE4F00225DB225F
:20239600023414AF82C007122396AE82D007EEB513028019A2AF9209C2AF900303E513F0E7
:2023B6008F82C0071233DED007A20992AF8F82122396E582B5130474018001E4F58222AE19
:2023D60082AF837D008D82C007C006C005122396AC82D005D006D007ED2EF582E43FF583AD
:2023F600E0FBECB503028004758200220DBD800040D375820122AE82AF83C007C00612230E
:20241600D5E582D006D007600475820122751300758200C007C006122399E582D006D00751
:202436006015751300758201C007C006122399E582D006D0077004758200227D02ED2EF506
:2024560082E43FF583E0F5138D82C007C006C005122399E582D005D006D0077003F582223D
:202476000DBD800040D7751350758201C007C006122399E582D006D007601575134D758265
:1B24960000C007C006122399E582D006D0077004758200228E828F830223D513
:04000000020049327F
:03000B0002342498
:0100130032BA
:01001B0032B2
:0100230032AA
:01002B0032A2
:01003300329A
:01003B003292
:030043000224B2E2
:0E00A2007808E4F608F608F608F6780C760002
:0300B40002004601
:030046000224F1A0
:2024B200C022C0E0C0F0C082C083C007C006C005C004C003C002C001C000C0D075D0001250
:2024D20032E6D0D0D000D001D002D003D004D005D006D007D083D082D0F0D0E0D02232124B
:0E24F20034B51206A11206D280FB75820022BC
:202500001233761233A012338F75DD0075D3002275D30074FC55D24402F5D2900305E4F033
:202520002230DE357402B5DB1190000AE0FFBF010990000BE0900304F0227420B5DB1A90EB
:20254000000AE0FFBF031290000A121E8BE582600874F355D24408F5D222D310AF01C3C0C1
:20256000D0AE82AF839002CA7401F0900302E0601F900305E070199002C8E060069002CB76
:20258000E0600DACD25304037D00BC0308BD000575820080417D008D037C0074402BFBE411
:2025A0003CFCEB240AFBEC3400FCED2EF582E43FF583E0FA8B828C83F00DBD200040D8900E
:2025C00002CAE4F09002CBF075D32090030504F053D2FC758201D0D092AF22D310AF01C3A8
:2025E000C0D0AED253060C7F00BE0C05BF0002800353D2F3D0D092AF22E582900304F022A9
:202600009002CCE4F09002CDF09002CEF09002CFF09002D0F09002D5F0A3F09002D3F0A364
:20262000F09002D1F0A3F07F00EF24D7F582E43402F583E4F00FBF080040EE9002DFE4F035
:202640009002E0F0A3F0900305F09002C9E02401F09002CAE4F09002CBF00226649002C949
:20266000E0F58222D310AF01C3C0D09002C8E4F09002C6F09002C7F0D0D092AF22AF829078
:2026800002C8E0FEBE08028006900302E07004758200229002C6E024BEF582E43402F5831F
:2026A000EFF09002C6E0FF0F74075FF09002C8E02401F075820122AE82AF839002C8E0FD29
:2026C000BD08028006900302E07004758200229002C6E075F009A42476F582740235F0F5C0
:2026E000837401F07D009002C6E075F009A42476FB740235F0FC8D02EA042BFBE43CFCED53
:202700002EF9E43FFA89828A83E08B828C83F0ED24D7FBE43402FC89828A83E08B828C8364
:20272000F00DBD080040BF75820902267DD310AF01C3C0D01226B7D0D092AF22AF82900298
:20274000C8E0FEBE08028006900302E07004758200229002DFEFF09002C6E075F009A424C5
:2027600076F582740235F0F5837402F09002C6E075F009A42476FD740235F0FE8D828E8359
:20278000A3EFF09002C6E075F009A42476FE740235F0FF8E828F83A3A3E514F09002C6E0B2
:2027A00075F009A42476FE740235F0FF8E828F83A3A3A3E515F09002C6E075F009A42476FC
:2027C000FE740235F0FF8E828F83A3A3A3A3E516F075820502267DD310AF01C3C0D08517A5
:2027E0001485181585191612273CD0D092AF22AE82AF839002C8E0FDBD080280069003026C
:20280000E07004758200229002E0EEF0EFA3F09002C6E075F009A42476F582740235F0F58E
:20282000837405F09002C6E075F009A42476FC740235F0FD8C828D83A38E05EDF09002C6AB
:20284000E075F009A42476FC740235F0FD8C828D83A3A38F06EEF075820302267DD310AF50
:2028600001C3C0D01227EFD0D092AF229002C8E0700A900305E07004C20A8002D20AA20A63
:20288000E433F58222D310AF01C3C0D0AE82AF839002C8E0600302297A9002D0E0FD0D753D
:2028A0001A00BD01079002CCE0FB8011BD02079002CEE0FA80059002CFE0FA8A03BD010A5A
:2028C0009002D1E0F9A3E0FA8019BD020A9002D3E0F8A3E0FC80089002D5E0F8A3E0FC8853
:2028E000018C028904EB7003022967EEC39CFCEF9AFA8B017B00E929F9EB33FBE929F9EBDF
:2029000033FBC3EC99EA9B405EBD03067B007C0080048D037C009002D0EBF0BD0110900234
:20292000D7C007C0061226B7D006D007804CBD021D9002DFE0FC7514007515007516008C78
:2029400082C007C00612273CD006D007802C9002E0E0FBA3E0FC8B828C83C007C0061227EC
:20296000EFD006D00780130DED24FC50027D01051A74FD251A40030228A2900302E0602566
:20298000900305E0701F9002C8E060199002CAE060069002CBE0700DACD25304037D00BC10
:2029A0000306BD0003022A557D009002C7E0FC24BEF582E43402F583E0FBC3ED9B50328DFB
:2029C000027B0074402AFAE43BFBEA240AFAEB3400FBEC75F009A42476F8740235F0F9ED4B
:2029E00028F582E439F583E0F98A828B83F00D80B9EC75F009A42476F582740235F0F58358
:202A0000E0FDBD010A9002D1EEF0EFA3F08018BD020A9002D3EEF0EFA3F0800BBD05089043
:202A200002D5EEF0EFA3F09002CB7401F09002C7E0FF24BEF582E43402F583E0F5D30F9033
:202A400002C774075FF09002C8E014F09003057401F053D2FCD0D092AF22AF82BF800040D4
:202A60000475820022EF90357793F58222E582FF7017AE1B9002CDEEF09002CFEEF090021E
:202A8000CEEEF09002CCEEF022BF01079002CCE51BF022BF02079002CEE51BF022BF0506F1
:202AA0009002CFE51BF022E582FF70079002CDE0F58222BF01079002CCE0F58222BF020788
:202AC0009002CEE0F58222BF05079002CFE0F5822275820022AF82AD1CAE1D8D828E83EF8B
:202AE000F0BF0143E51B601474012DFBE43EFC900304E08B828C83F0758202227C008C020C
:202B00007B000ABA00010BEA2DFAEB3EFBEC24D7F582E43402F583E08A828B83F00CBC088B
:202B20000040DB75820922E51B7039BF023674012DFBE43EFC9002DFE08B828C83F074022A
:202B40002DFBE43EFC74032DF9E43EFA8D828E83A3A3A3A3E4F089828A83F08B828C83F0E2
:202B600075820522E51B702FBF052C74012DFCE43EFF9002E0E0FAA3E08C828F83EAF074AC
:1B2B8000022DFDE43EFE9002E0E0A3E0FC8D828E83ECF07582032275820022EC
:2035770000000000000000002A2B28000000000000000000000000000000000000000000B7
:203597002C9EB4A0A1A2A434A6A7A5AE362D3738271E1F20212223242526B333B62EB7B8D7
:2035B7009F8485868788898A8B8C8D8E8F909192939495969798999A9B9C9D2F3130A3ADC8
:2035D700350405060708090A0B0C0D0E0F101112131415161718191A1B1C1DAFB1B0B5002D
:02373A0000008D
:2035F700120110010000000809125DC500010102030105010906A1018501050719E029E7F1
:203617001500250195087501810295017508810395067508150026FF000507190029E78123
:203637000005081901290515002501950575019102950175039103C005010902A101090121
:20365700A100850205091901290315002501950375018102950175058103050109300931FE
:2036770009381581257F750895038106C0C00600FF0901A10185030902150026FF007508A1
:20369700951F910285040903951F8102C0050C0901A1018505150026FF0F19002AFF0F75EA
:2036B7001095018100C009022900010100806409040000020300000009211001000122B4CE
:2036D700000705810320000A0705010320000A040309041C0343004800350035007800201F
:2036F700006B006200640020006D006F007300260355006E0069007600650072007300619D
:20371700006C0020004D006100630072006F007000610064000E0344006500710069006EDD
:0337370000670028
:0300B00075720066
:202B9C00AFDB7D007E008E6DBF080280030230C3900007E0FC7F00900006E0FB7A004FF537
:202BBC006AEA4CF56B8F73900001E0F56C8F72900000E0FC54607003022D75900000E0FC81
:202BDC005304607B00BC2005BB00028011BC4005BB00028003022D6F7573FF0230C690002A
:202BFC0004E07006900005E060067573FF0230C67409B56C3F900000E0FCBC2137900003B5
:202C1C00E0FCBC022F900002E0FCBC030CAB6AAC6BBB2005BC00028012900002E0FCBC010F
:202C3C0013AB6AAC6BBB020CBC0009856A6D756E000230C6740AB56C51900000E0FCBC213B
:202C5C0049E56A456B7043900002E0601C900002E0FCBC01028012900002E0FCBC02028002
:202C7C0008900002E0FCBC0521900302E0601B900002E0FC900003E0F51B8C82C006C00566
:202C9C00122A6DD005D0060230C67402B56C5E900000E0FCBCA156900002E0601C90000238
:202CBC00E0FCBC01028012900002E0FCBC02028008900002E0FCBC0534900003E0702EABF6
:202CDC006AAC6BBB0127BC0024900302E0601E900002E0F582C006C005122AA7AC82D00547
:202CFC00D006900000ECF07573010230C67401B56C5B900000E0FCBCA153900003E0FCBC5D
:202D1C0001028008900003E0FCBC0241900302E0603B900002E0FC900003E0FBE4BB020110
:202D3C0004F51B751CE2751D028C82122AD5AC828C057E00ED4E600F756FE27570027571C3
:202D5C0000756C060230C67573FF0230C67573FF0230C67573FF0230C6E56C24F45003021D
:202D7C0030BEE56C240B83F582E56C241083F583E4730D8DBE8DBE87A6BE94B2FBFB302FCF
:202D9C00302F302E2D302E2E2E2E900003E0FCBC01028019BC02028024BC0302802FBC21CD
:202DBC0003022E4FBC2203022E5F022E81756FF77570357571807D127E000230C6756FBD53
:202DDC007570367571807D297E000230C6900002E0700B756FE6757036757180803F9000B3
:202DFC0002E0FCBC010B756F2C757037757180802C900002E0FCBC020B756F067570377521
:202E1C0071808019900002E0FCBC030B756FEA75703675718080067573FF0230C6AA6FAB5C
:202E3C0070AC718A828B838CF012350CFAFD7E000230C6756FCF7570367571807D097E005B
:202E5C000230C6900002E07016756F097570367571809036D6E493FDA3E493FE0230C67563
:202E7C0073FF0230C67573FF0230C6900002E0FC8C6A756B000230C6900302E0900000F0BC
:202E9C00AB6AAC6BC3EB9401EC940050030230C67573010230C6900000E07021900003E087
:202EBC00701B900002E0FC24FE4012900004E0700C900005E07006E56A456B60067573FF62
:202EDC000230C6900002E0900302F0C006C005122600121E84D005D00675D2120230C690E4
:202EFC000004E07075900005E0706F900002E07069900003E07063900302E0605D740AB5A3
:202F1C006C0474018001E4FC602C900000E0FBBB8103D38001C3920B5013AA6AAB6BBA011D
:202F3C0006BB0003D38001C3920B100B02D20BA20BE433FB8021900000E0FABA0103D38028
:202F5C0001C3920B500AE56A456B7004C20B8002D20BA20BE433FBEB60067573FF0230C60C
:202F7C00EC70030230C6900000E4F07573010230C6900000E0FCBC0218900002E0701290D3
:202F9C000003E0700C900005E07006E56A456B60067573FF0230C6900004E0FCBC8129743D
:202FBC0003B56C0B74FC55D24403F5D20230C674BC55D24402F5D2C006C005122600121ED2
:202FDC0084D005D0060230C6900004E0FCBC011B747355D2FC7403B56C067A0C7B00800439
:202FFC007A007B00EA4CF5D20230C67573FF0230C6900004E0FD7E00900000E0FCBC824D06
:20301C008D038E04BB8117BC0014A9D2530103E4FAB90304BA000104F9FD7E00804ABB0126
:20303C0017BC0014A9D253010CE4FAB90C04BA000104F9FD7E008030ED4E6006BB8009BC87
:20305C0000067D007E0080207573FF805D900000E0FCBC80028008900000E0FCBC8104ED23
:20307C004E60057573FF8042900005E0700C900002E07006900003E060057573FF802B8D08
:20309C0004900000ECF0900001E4F0AB6AAC6BC3EB9402EC94004005757302800D856A7331
:2030BC0080087573FF80037573FF74FFB57302806F7406B56C6AC3ED956AEE956B50048D0C
:2030DC006A8E6BAD6AAE6BC3ED9408EE9400920B40067B087C008004AB6AAC6B8B737C0067
:2030FC00C3EC957350208C027B00EC256FF8E43570F9AF71888289838FF012350CF88A827E
:20311C008B83F00C80DAAC737F00EDC39CFDEE9FFE8D6A8E6BE573256FF56FE43570F5708F
:20313C0074FFB57307756CFF75DCCF22E57324F740178573DDE56D60067E027F0080047E57
:20315C00007F0074C04EF5DC2275DD00E56D60067E027F0080047E007F0074C04EF5DC2260
:20317C007405B56C02806E7406B56C0280030231FFAE6AAF6BC3EE9408EF9400920C400671
:20319C007C087D008004AC6AAD6B8C1B7D00C3ED951B50208D027B00ED256FF8E43570F967
:2031BC00AC71888289838CF012350CF88A828B83F00D80DAAC1B7D00EEC39CFEEF9DFF8EE0
:2031DC006A8F6BE51B256FF56FE43570F570851BDD63DC4022E5E35480FFE56A4FF5E375E5
:2031FC00DC022275DD0075DC022220DE01227409B56C0280030232D4E56D70030232D4E5EE
:20321C00DB24F750030232D4AE6E7F00ACDB7D00EC2EFEED3FFFAC6D7D00C3EC9EED6480AB
:20323C008FF063F08095F050030232D47F00C3EF95DB5019EF256E24E2FDE43402FE8F8288
:20325C00758300E0FC8D828E83F00F80E1E5DB256EF56EE56DB56E477420B56D1C9002E246
:20327C00E0FFBF03149002E2121E8BE582600A74F355D24408F5D2801C7402B56D13900203
:20329C00E2E0FFBF010B9002E3E0F5821225F9800475DCCF22756D0075DD0075DC48227461
:2032BC00F825DB4007756CFF75DC0F2263DC8074F055DC4402F5DC2275DD00E56D60077544
:2032DC006CFF75DC0F2275DC022220D90302334CE5D9540F6002802CAED95306307F00BE77
:2032FC000005BF00028013BE2005BF00028010BE303CBF0039122B9C8034123206802F126B
:20331C00317C802AAED953060F7F00BE0120BF001DE5D95430600280051225218010AED979
:20333C005306307F00BE2006BF0003122510C2D930D81A121E8412260075DC0275D21275B2
:20335C00E300C2DAC2D9C2D8900302E4F010DA0122E5DA20E20375D8FF2275E20053E27FEA
:20337C0043E22975E30053E2BF53D1FB75D18043D1012243E10443E10243E10143D81FD2FC
:1E339C00EAD2AF227E007F008EEC8FED7E0A7F008EEE8FEF75D21275EAC075DC0222A5
:2033BA00ABF0A2AFE433FEC2AFE0A37A0833D2B44002C2B47905D9FEC2B4DAF1DBEBEE6061
:0433DA0002D2AF224A
:2033DE00AF82BF800040012275A15575A1AA43B10475A1007585C0EF2FF584900303E0F507
:2033FE008EE58630E60375869A75A15575A1AA53B1FB75A10022AF827585C0EF2FF58475AF
:06341E00868E858E8222DD
:06007800E478FFF6D8FD5C
:200056007902E94400601B7A0190373A780475A003E493F2A308B8000205A0D9F4DAF275D6
:02007600A0FFE9
:20342400C0D075D00808B8000D09B900090ABA00050BBB00010CD0D032A2AFC2AFA808A98A
:2034440009AA0AAB0BAC0C92AF75F020E8A4A8F075F020E9A428F582A8F075F020EAA428CF
:20346400F583A8F075F020EBA428F9A8F075F020ECA42889F022AE82AF83C374019EE49FD8
:2034840040022200C374029EFE74009FFF00BE0005BF000200220000000000000000000037
:2034A400000000000000000EBE00EB0FBF00ED002275A15575A1AA74F855B94406F5B97562
:2034C400A10090138812347A759E5D759D0074F055894402F58953C9EF758C06C28DD2A9F8
:0534E400D28CD2AF22E2
:2034EA0074FE2581F8E68582F0A4C0E08582F018E6A4F582D0E025F0C58386F0A42583F5BD
:02350A0083221A
:20007E007800E84400600A799475A000E4F309D8FC7870E84402600C7903900094E4F0A3E5
:04009E00D8FCD9FAB7
:0D004900758173123528E5826003020046C0
:1C350C0020F71430F6148883A88220F507E6A88375830022E280F7E49322E022CE
:043528007582002286
:00000001FF
