:2000B8007E947F007D007C004305128E828F838DF0EC0234907F00BF1200500FEF2494F5A8
:2000D80082E43400F583E4F00F80EC0200B8E582FF7003F58222EFC4540FFF74014FF5822B
:2000F80022AF829000CAE0FEBE030774015F04FF80028E078F8222900271E070079000CCBE
:20011800E07001221217E08582259000CCE0FEE07008852582121082AE82EE0303543FFD09
:20013800530503EEC4540FF5269000C6E0F5278E82C006C0051200F9858228D005D00690BA
:2001580000CBE0F5299000C8E0F52A9000CCE0601574015E04F5289000D7E0C4540FFE74E2
:20017800035EF52A8007E5287003F527FD7403B529037529027B947E00E52A24D5F52FE432
:200198003435F5307403B52A0474018001E4F531740FB52603D38001C39200EDB40100B300
:2001B8009201E4BD030104F532BD0303D38001C3920274015527F533E4F534BD020104FD6F
:2001D800752B0074FA252B50030200B885263585282C3000159000CCE0600585323680068A
:2001F800A201E433F536E5367004C2038002D203A203E433F52D9000CCE0705BE527600EF8
:20021800ED6054E5334534604E752C008049E529603CE52B24ADFAE43400FC8A828C83E0E8
:20023800602C852B51852582C006C005C0031210A1AC82D003D005D0068C35BC0F0890000C
:20025800D4E0FC20E70885292C752D008009852635200203752C00E52C7007F52EFAFC0279
:200278000315E52D6065E52B9035C993FF852F82853083E4938FF0A42524F536E531600F46
:20029800E52B9035CF93247DF9E7FF2536F53674AB2536400E7A00E53675F003A4F52EF489
:2002B800FC805A745625364011E53624ABFF7C0075F003A4FAF4F52E8043E536FF2456758C
:2002D800F003A4FCF4FA752E008032C005E53575F003A424F2FD743535F0FF8D828F83E460
:2002F80093FC0DBD00010F8D828F83E493FA0DBD00010F8D828F83E493F52ED0057401B557
:200318002C338C82C006C005C003C0021200E6AC82D002D0038A82C004C0031200E6AA82C6
:20033800852E82C0021200E685822ED002D003D004D005D0068B828E83EAF08B828E83A3A4
:20035800ECF08B828E83A3A3E52EF074032BFBE43EFE052B0201DBAF82E57A2FFFE57BFE5B
:200378002F2E2EFFC3EF957B4007EFC3957BFF80F38F8222AF82E537FE30E304EE24F0FE09
:2003980074015FFDBF0B00406F9000CAE0FC9000CBE025E025E04204BF0C347B00EB903510
:2003B800ED93B5040280060BBB050040F08B02BB05087A00EE20E7027A048E7A757B058A9E
:2003D80082C007C00412036F858237D004D007E5379035ED93F537BF0D07ECB537037537A4
:2003F8000FAC3774035CFB9000CAF0EC0303543FFC9000CBF00204D2BF0A097C007B0475F5
:20041800370F80107C027B04BF08005007EFC313FCFA04FBBF0304C3E49EFEC3EC9B400383
:200438000204D2AA37ED6061EC24C8F582E43400F583E0F97804BC0200402D7803B903287F
:200458007902BC0223C007C006C005C004C003C0001217E01210821200F9A982D000D00309
:20047800D004D005D006D0078E7A887B8982C007C006C005C004C00312036FAA82D003D0CC
:2004980004D005D006D0078021BA0F1E7A03EC700C9000D7E0C4540FF9740359FABC010A59
:2004B8009000D7E0F923235403FAEC24C8F582E43400F583EAF00C020433BF02028008BF45
:2004D80003028003BF0A0C123513AC82AD83AEF0FF8C2302010FAF829000CCEFF0EF7021A5
:2004F800900271E0701B1200CD90009574FFF0123513AC82AD839000CDECF0EDA3F002009C
:20051800B802010FAF82C007121082AE82D007EE0303543FFE5306039000C6E4F0BE010389
:20053800048001E4FD7003BE022CED60067D067E00800C0FEF3395E0FCEF2FFDEC33FE9094
:2005580000C6EDF0AE38E539C313CE13CEFF747D2EFE9000C7F002010FAE82AF839000C62A
:20057800E0FDE06012EFC313CE13CE9000C7E0FFEEC39FFE30E70122ED149000C6F090002B
:20059800C7747D2FF002010F1217AB123513AC82AD83AEF0FFC005C0041229D2E582D00460
:2005B800D0056038C005C004123513AA82AB83AEF0FFD004D005EAC39CFAEB9DFBC3EA942C
:2005D80064EB94005016C005C0041235131229EB123513121BEAD004D00580B97E947F00CD
:2005F8007D00BD0600501F8E828F83E4F08E828F83A314F08E828F83A3A3E4F074032EFE96
:20061800E43FFF0D80DC1200B875E200C2AF75890090C35012355090C350123550123800E9
:2006380080FEAF82BF060AA2B3B39204E433F58222BF050AA2B2B39204E433FE8013EF9044
:2006580035C493FFE5905207EFB401009204E433FE8E8222A2B0E43325E0FFA2B1E4334F82
:20067800F58222AF82C00712063AAE82D007EF24A6FCE43400FD8C828D83E0FBEEB503020D
:20069800801C8C828D83EEF0EF75F002A424B4F582740035F0F583E53AF0E53BA3F0EF247B
:2006B800ADFCE43400FD8C828D83E0FBEEB5030122EF75F002A424B4F582740035F0F58348
:2006D800E0FAA3E0FBE53AC39AFAE53B9BFBC3EA940AEB940040658C828D83EEF09000CCB7
:2006F800E0600E758200C007C0061204EED006D007900271E0700122EE6030BF061CC007C3
:200718001217E0121082E582D0079000C55402F09000CDE53AF0E53BA3F0853A6A853B6BC8
:200738008F82C007121824D00780098F82C007121ACFD007BF0600500302010F2212066CA1
:20075800AF829000C2E0FEEFB50601229000CCE0600A758200C0071204EED0079000C2E0E2
:2007780025E025E04F9035DD93FE9000C2EFF0900271E0700122EE70069000C3E4F02290F1
:2007980000C3E02EF0E0FFC364809484400B9000C3E4F0758201021B84C3747C8FF063F052
:2007B8008095F0400B9000C3E4F0758200021B8422123513AC82AD83AEF08C3C8D3D900078
:2007D800D7E0C4540FFF5307039000C8EFF09000D7E0232354039000C9F09000CB7403F0A1
:2007F8009000CAF07F00EF24F94050EF24A6FBE43400FEEF24ADFAE43400FD8F82C007C04B
:2008180006C005C003C00212063AAC82D002D003D005D006D0078A828D83ECF08B828E83B3
:20083800ECF0EF75F002A424B4F582740035F0F583E53CF0E53DA3F00F80AB12066CE5827F
:200858009000C2F0900271E0700C9000CCE07005F5820204EE221217AB9000C3E4F012177D
:20087800E0E5829000C4F09000C5E4F09000C6F0853C23F5247F00BF06005009EF247DF844
:2008980076000F80F202010F1220324390F24392F24393F243B00F740F459654EFF596430E
:2008B800971F1200CD1207C91226D675820612063AE58260030205A022123513AC82AD8301
:2008D800C005C0041229EBD004D0058C828D83C005C004122480D004D0057F00EF24F940D7
:2008F800188C3A8D3B8F82C007C005C00412067BD004D005D0070F80E3C005C0041207555D
:20091800D004D0058C07EFC39523FE9000CCE0FB600B9000D7E023235403FA80059000C9BD
:20093800E0FAEA9035D993FAC3EE9A50030209C8EB600EEB30E3047E0080307B007E00803D
:200958002A900271E0601BC007C005C0041217E0121082AA82D004D005D0078A3E753F00D2
:200978008005E4F53EF53FAB3EAE3F5303FC7E00C374F09B74808EF063F08095F050318F4D
:200998002305247F037E00BE06005019EF55247008EE247DF9E7FB04F78F03EB2BFB740169
:2009B8004BFF0E80E2C005C00412010FD004D005900271E070319000CCE0702A9000CDE07A
:2009D800FEA3E0FFECC39EFEED9FFFC3EE94F4EF940140129000CDECF0EDA3F0900095E0DC
:2009F80064FFF00200B8228C828D83C005C004121BEA1217E4E582D004D0057017C005C0C9
:200A1800041217E0AF82D004D0059000C4E0FEB50702804CC005C0041217E0AF82D004D0B4
:200A3800059000C4E0FEB50702801FC005C0041217E0E5829000C4F012066CE582D004D03E
:200A5800059000C2F09000C3E4F09000C4E0FF8C388D398F82C005C00412051CD004D005DD
:200A78008C828D83C005C004120571D004D0059000C5E060219000B3E0601B9000CDE0FEF7
:170A9800A3E0FFECC39EFCED9FFDC3EC94B8ED940B40030205A02260
:2035C400028040201000010205040300030104020500152A6D04060A1200FF010001000004
:0E35E400FFFF0000010001FF000F0D050400B5
:200AB000AF827E007D00C3ED9F500EE57BC39DFC1C8E03EC2BFE0D80EDE57A2EC39F14F55D
:200AD0008222AE82AF837CFF7DFF7B00BB06028045BB07028040EB2EF582E43FF583E0FA7D
:200AF000E4F96204EA62057A088D017800530180E849B401009205B3E433F57AEC2CFCED3F
:200B100033FDE57A600E8C008D0163002163011088048905DAD30BBB800040B08C828D839B
:200B300022E582FF6015EF24FCFE249E9206500BEF2498FF24F49206100602D206A206E410
:200B500033F58222858245858346E5402545F582E43546F583E0FD740F5DFCEDC4540FFD78
:200B7000AA407B000ABA00010BEA2545F582EB3546F583E0FBEC24F05003020D69EC240AC7
:200B900083F582EC241483F583E4731A4F4F747474749DD5E8354F2DA4A4BB0C0C0C0C0C03
:200BB0000C0C0C0C0C0D0D0C0C0C0BEB24F2500475820022BB0A08E4BD000104F58222BB6B
:200BD0000D0BED14FABA0400E433F58222BB0B0BED24FBB39207E433F58222EB20E003BB02
:200BF0000C0674075DF58222BD0F0475820122BB0400500BED24FCB39207E433F58222ED68
:200C100024FDB39207E433F58222ED7003EB6004C2078002D207A207E433F58222ED24FE6C
:200C30009207400EEB24F99207500BBBFA0092075004C2078002D207A207E433F58222E5BD
:200C500042600BBC0203D38001C3920740098B82120B31E5827004C2078002D207A207E436
:200C700033F58222E542600BBC0503D38001C39207400DED700AEB6007EB24F89207500498
:200C9000C2078002D207A207E433F58222ED600475820022E542B4010092078D04E433C37D
:200CB00064808CF063F08095F09207400BBB8003D38001C392075004C2078002D207A20779
:200CD000E433F58222ED7007EB7004C2078002D207A207E433F58222ED7006C3EB954440EA
:200CF00004758200227C007A00C3EA9544502EEAB50307EC600475820122A84379008A06C6
:200D10007F00EE28F8EF39F9E82545F582E93546F583E0FFE4BF000104FC0A80CCE4BB00F8
:200D30000104F58222ED24FE92074006C3EB95414004C2078002D207A207E433F58222EDE5
:200D5000700AC3EB95415004E5426004C2078002D207A207E433F5822275820022AE82AF31
:200D700083754E00E547600475820022E54724FE403D8E828F83E0FCBC4D348E828F83A3A9
:200D9000E0FCBC502A8E828F83A3A3E0FCBC061F8E828F83A3A3A3A3A3E0FCFA5302017B14
:200DB00000A8477900EAB50006EBB501028004758200228E828F83A3A3A3E0FBFA74075A21
:200DD00004FAEBC423541FF95301077B008A4F8B50C3E9954FEB64808550F063F08095F0C1
:200DF000400475820022C37405954F74808550F063F08095F0500475820022ECC313FC74B6
:200E10003F5CF548EA75F016A42409FBE435F0F9E54875F003A47D002BFBED39F98E828F1D
:200E300083A3A3A3A3E0FD7C002BFBEC39FC8B008C01C3748098E4995004758200228D4ACB
:200E5000EBC3954AF549754B00C3E54B9A5068E54B75F016A42409F9780088037C00C3EB10
:200E70009409EC64809480504A8804EC2C89032BF54088037C00C3EB9407EC64809480B3D0
:200E90009208E433F5428A41854943854A448E828F83C007C006C002C001C000120B54E523
:200EB00082D000D001D002D006D0077003F582220880A7054B8092EA75F016A4FC2409F5BC
:200ED0004C7B00C3EB95484003020F5FE54C2EF582E43FF583E0F9C4540FF85300077C00BE
:200EF000C3E8954FEC64808550F063F08095F0504F890053000F7C00C3E8940FEC648094AE
:200F100080503DEB6006C3E54E995034E54CFC04F5408A41754200854943854A448E828FA5
:200F300083C007C006C004C003C002C001120B54E582D001D002D003D004D006D007700444
:200F500075820022894E74032CF54C0B020ED3E54A6024AB497C00A94A7A00E92BFBEA3CFA
:200F7000FC1BBBFF011CEB2EFBEC3FFC8B828C83E0600475820022754D00C3E54D954A50D9
:200F900076AA497B00A84D7900E82AFCE93BFDEC2EFCED3FFD8C828D83E06057E82AFCE9D5
:200FB0003BFDEC2EF582ED3FF583E0FDBD09028042E82AFCE93BFDEC2EF582ED3FF583E009
:200FD000FDBD0A02802DE82AFCE93BFDEC2EF582ED3FF583E0FDBD20004014E82AFAE93BEC
:200FF000FBEA2EF582EB3FF583E0FD2481500475820022054D80838E828F83C007C00612B0
:201010000AD2AC82AD83D006D00774062EF582E43FF583E0FB8C02B5021274072EF582E4E9
:201030003FF583E0FF8D04B504028004C2088002D208A208E433F582229000D2E0FF7407FE
:201050005F04F582229000D2E0C423541FFF74075FF58222758206229000D7E0FF740F5F2F
:2010700075F005A4F58222E58275F016A42409F58222E58204F582121077AF827E001FBF65
:20109000FF011EEF24CFF582EE3400F583E0F58222AF82C007121064AE82C006121049AD2A
:2010B00082D006D007C3EF9D5006C3E5519E4004758206228F82C006121077AF82D006E4F7
:2010D000FDFC74032EFEE43CFCEE2EFEEC33FCEE2FFFEC3DFDE551C3137C002FFFEC3DFDF5
:2010F000EF24CFF582ED3400F583E0FFE55130E009EFC4540FFD7E0080087C00740F5FFD4C
:201110007E008D8222AF82C007121049AE82D007C3EF9E5025C007121064AE82D0077D0010
:2011300074032EFEE43DFDAB527C00C3EB9EEC64808DF063F08095F0400BE553F87600E59E
:2011500054F87600228F82121077AF82E55225522FFEA95324CFF582E43400F583E0F7A96F
:20117000547F000EBE00010FEE24CFF582EF3400F583E0F722AF82C007121064AE82900086
:20119000D4E0C313FD743F5DF559C006121049121077AC82D006D007E556B555028022C309
:2011B000E5559E501CC3E5569E5016C007C006C004121049AB82D004D006D007C3EF9B40E2
:2011D0000475820022C3E55695555007AB558556558B56EFC454F0FF85567A8E7B855582E2
:2011F000C007C004120AB0AE82D004D007EE4207755A00C3E55A95595064EC24CFF582E4C9
:201210003400F583E0FBB50702801753038F7A008F0553050F7E00430580EBB50536EAB5C8
:201230000632A9578C057E0074012DFAE43EFBEA24CFF582EB3400F583E0F7A95874022D38
:20125000FDE43EFEED24CFF582EE3400F583E0F775820122055A8C0674032EFC80957582E1
:201270000022AF82E55B2FFEC39F400A9000D3E0FFC3EE9F400475820022C00612104912C0
:201290001077AF82D0069000D4E0C313FD743F5D75F003A42FFDE4FFFCEE2DFDEC3FFFED43
:0D12B00024CFF582EF3400F583E0F58222B3
:2035F200FF0000FF1607FF1000FF4200FF7C003CFF0064C8141D7B4300FFC8005BFF00005C
:10361200FF7300B4FF00C2FF0048FFFFFF0000007D
:2012BE00AF827408B55D02800EE57B6034AE5DC3EE64809481402AE57B60129001A3E0FECA
:2012DE00BEFF0280189001A3EE04F080109001A2E0FEBEFF0280069001A2EE04F075820091
:2012FE00229001A0E075F002A42490F582740135F0F583EFF09001A0E075F002A42490FEA8
:20131E00740135F0FF8E828F83A3E57AF09001A0E0045407F0055D758201227F007E00EE3B
:20133E00246BF582E43401F583E0FD42070EBE090040EC7E00EE245DFCE43401FD8C828D37
:20135E0083E06025EE244FF582E43401F583E0FD53050F7C00BD0511BC000EEE2456F582E2
:20137E00E43401F583E0FD42070EBE070040C6E56460079001A7E0FE42078F8222AF82C08C
:20139E0007121339AE82D007BF0D09E566FC3395E0FD80047C007D00BF0E09E566FD33959F
:2013BE00E0FF80047D007F008D1A8C19751B008E82022958E582FF7004758201227E02EEDF
:2013DE00247CFCE43401FD8C828D83E0FBB5070475820122EB700A8C828D83EFF075820110
:2013FE00220EBE080040D8758200227F007E00EE247CF582E43401F583E4F00EBE0800402D
:20141E00EE7E00EE245DFCE43401FD8C828D83E06040EE244FF582E43401F583E0FDFB538F
:20143E00030F7C00BB022BBC002890017CE0FCEDC4540F420490017CECF0EE2456F582E445
:20145E003401F583E0F582C007C0061213D2D006D0070EBE070040AB9001A87401F0E56494
:20147E00603B9001A5E0FE53060F7D00BE012EBD002B9001A6E0F582C0071213D2AE82D099
:20149E00079001A8EEF0EE601490017CE0FE9001A5E0C4540FFD420690017CEEF07E00EEEA
:2014BE00247CF582E43401F583E0FDEE2474F582E43401F583E0FCEDB5040280027F010E67
:2014DE00BE080040DAEF602E90017C1228E6E5827003F582227F00EF2474FDE43401FEEFE8
:2014FE00247CF582E43401F583E0FC8D828E83F00FBF080040E1121339E582FFB55C0280EC
:20151E001B751900751A00751B008F82C007122958E582D0077003F582228F5C758201222B
:20153E00AF82AE5E74FFB56102801185615E7561FFC007C006121649D006D0078F04530486
:20155E000F7D00BC0004BD000122BC0204BD000122BC0504BD000122BC0605BD0002802FC5
:20157E00BC0A06BD00030215F1BC0B05BD0002801ABC0C05BD00028030BC0F65BD0062EF1A
:20159E00C4540FF53785678202038C75600122E569246BFCE43401FD8C828D83E0FBE567AF
:2015BE0062038C828D83EBF022C007C006121049AD82D006D007E5672EFE8D04ECC40354A9
:2015DE00F8FC2EF567C3E5679D4008E567C39DF56780F2756001EF30E403855E6185675E97
:2015FE002285677A85687B8F820212BE90018BE0FFE07001221F90018BE4F0EF245DF58296
:20161E00E43401F5837401F0EF244FF582E43401F583E0FEEF2456F582E43401F583E0F528
:20163E00677568008F698E8202153EAF5E7E007D00ED245DFBE43401FC8B828C83E06035D4
:20165E00ED244FF582E43401F583E0FC53040F7B00BC0B21BB001EED2464F582E43401F58C
:20167E0083E0FCC39E400E8C06ED2456F582E43401F583E0FF0DBD070040B6EFB55F012271
:20169E008F5F7F00EF246BF582E43401F583E4F00FBF090040EE755D009001A0E4F09001F8
:2016BE00A1F0AE6253060F7F00BE0812BF000F7404B5630280057405B56303756501756281
:2016DE00007563007564009001A7E4F012160A02164912105585825E855E5F7560007561D3
:2016FE00FF90018BE4F0900184F09001A2F09001A3F07F00EF2485F582E43401F583E4F09E
:20171E000FBF060040EE9001A0E4F09001A1F0F55DF562F563F5659001ADF0F5649001A768
:20173E00F0F55C122833E58290018FF07F00EF245DF582E43401F583E4F0EF2464F582E4C9
:20175E003401F583EFF0EF244FF582E43401F583E4F0EF2456F582E43401F583E4F00FBF8E
:20177E00070040CA7F00EF246BF582E43401F583E4F00FBF090040EE7F00EF2474F582E4FB
:20179E003401F583E4F00FBF080040EE2212283A1216F090017474FFF0F55C900000122974
:2017BE00C3E582B401009209E433F565021409E58260079001A3E0FF80059001A2E0FF8FFA
:2017DE008222855F822285608275600022E5822464FEE43401FF8E828F83E0FD7C00EC24D1
:2017FE0064FAE43401FB8A828B83E0F9C3ED995007198A828B83E9F00CBC070040E08E82BB
:20181E008F837406F022AF82C00712106485826ED007C3E56E9F40248FF005F07C017D00BB
:20183E008006EC2CFCED33FDD5F0F7900184E0FBF97A005204EA5205EC4D6001228F058D40
:20185E00F005F07401800225E0D5F0FB9001844BF0C3EF956EE433FC6010EF2485FAE43497
:20187E0001FB8A828B83E060012290018BE0FBE070030219A2EC700874FFB561030219A21D
:20189E001BEC700302199090018DE0F9A3E0FAE56AC399F9E56B9AFAC007C005C004C003F6
:2018BE00C002C001121068A882D001D002D003D004D005D0077E00C3E998EA9E4003021935
:2018DE009090018CE0FE75576C75586D8B558F568E82C007C005C004C003121185E582D026
:2018FE0003D004D005D007700302199090018BE4F0EB2485F582E43401F583ED04F0EF24A9
:20191E0085F582E43401F5838B060EEEF0EB244FF582E43401F583E56CF0EB2456F582E438
:20193E003401F583E56DF0EF244FF582E43401F583E4F0EF2456F582E43401F583E4F0EF28
:20195E00245DF582E43401F583E4F0EB245DF582E43401F5837401F08B82C0031217EBD07F
:20197E0003856D677568008B69856C8212153E021649C007C005C00412160A121649D0041C
:20199E00D005D00775536C75546D8F52855F82C007C005C004121115D004D005D007EF24B1
:2019BE004FFBE43401FE8B828E83E56CF0EF2456F9E43401FA89828A83E56DF08F82C007A2
:2019DE00C006C005C004C003C002C0011217EBD001D002D003D004D005D006D007EC6071B7
:2019FE00C007C006C005C003C002C001121068E582D001D002D003D005D006D00760527C1A
:201A1E0000C3EC956E504A75576C75586D8F558C56855F82C007C006C005C004C003C00223
:201A3E00C001121185E582D001D002D003D004D005D006D007601790018BED04F090018C5B
:201A5E00E55FF090018DE56AF0E56BA3F0220C80B0EF245DF582E43401F5837401F08B82AC
:201A7E008E83E0FB89828A83E0F5677568008F698B8212153E021649E582FF244FF582E42C
:201A9E003401F583E0FE53060FEF245DFDE43401FF8D828F83E06018BE02028003BE050629
:201ABE007C027E0080047C007E008D828F83ECF022AF82C007121064AE82D007C3EE9F504A
:201ADE0001228F068EF005F07401800225E0D5F0FBF4FE900184E05EF08F057E000DBD00F0
:201AFE00010E90018BE07B00B5050EEBB5060AC00712160A121649D0078F82C007121A96EF
:201B1E00121064AE82D007C3EF9E5057EF2485FEE43401FF8E828F83E0FD60471D8D82C0E3
:201B3E0007C006C005121A96D005D006D0078DF005F07B017C008006EB2BFBEC33FCD5F0D0
:201B5E00F7900184E0F97A005203EA5204EB4C70128E828F83E4F0ED2485F582E43401F5A9
:201B7E0083E4F0021649AF82C007121064AE82D007EF60067C017D0080047C027D00EC2E22
:201B9E00FE90018BE0601574FFB56102800EC007C00612160A121649D006D00775536F7516
:201BBE0054708E52855F82C007121115D007EF60067E077F0080047E087F008E69857067F2
:201BDE00756801856F8212153E021649AE82AF8390018BE0603B90018DE0FCA3E0FDEEC3A9
:201BFE009CFCEF9DFDC007C006C005C004121068AB82D004D005D006D0077A00C3EC9BEDD2
:201C1E009A400EC007C00612160A121649D006D007C007C006122833AD82D006D00790017A
:201C3E008FE0FCB505028019C007C006122833E582D006D00790018FF090017474FFF0F54B
:201C5E005CE5656018900000C007C0061229C3E582D006D0076005756500800122C007C0B0
:201C7E0006121409E582D006D007700122E5627026E55D7022C007C0061229D2AD82D0061A
:201C9E00D007ED70128E059001ADE0FCEDC39CFDBD0800920A5004C20A8002D20AA20AE47B
:201CBE0033FD60059001ADEEF07C00EC245DF582E43401F583E0FBBB0251EC244FF582E4C1
:201CDE003401F583E0F953010F7A00B9022FBA002CEC2456F582E43401F583E0FA601E7974
:201CFE0002E92474F582E43401F583E0F8B50202800609B9080040E9B908028055EC245D2C
:201D1E00F582E43401F583E4F08047ED6044EB6041EC244FFAE43401FB8A828B83E0F9B9CC
:201D3E001D028003B91E2B8A828B83E0FA53020FEC2456F582E43401F583E0F5668A82C014
:201D5E0007C006C005C00412139BD004D005D006D0070CBC07005003021CC9C007C0061251
:201D7E001409E582D006D007700122E5627054E55D60509001A1E0FD75F002A42490FB7447
:201D9E000135F0FC8B828C83E0F5628B828C83A3E09001A4F0ED049001A15407F0155D7597
:201DBE0063009001AAE4F0AC6253040F7D00BC0409BD00067C027D0080047C017D0090010C
:201DDE00A9ECF0E562700122E562540FFDE5636003021F55C007C006C0051229D2E582D028
:201DFE0005D006D007600122BD07569001A4E0FC7003F56222C004121339AB82D004EC3337
:201E1E00E433FA600678FF79FF800478017900881B751900751A008B82C004C002122958E2
:201E3E00E582D002D004700122EA6005EC04FB8003EC14FB9001A4EBF0EB600122756200D7
:201E5E0022BD0D028003BD0E219001A4E0F5668D82C007C00612139BE582D006D0077001B6
:201E7E00229001ADEEF075620022BD082BAB62E4CBC4540F6BCB540FCB6BCB8B047B009006
:201E9E0001A4E07A004BF582EA4CF5831229C3E582700122756304229001A5E562F09001C1
:201EBE00A4E0FC9001A6F09001A7E4F0BD09489001AAE0F55B8C82C007C006121272AC8279
:201EDE00D006D007EC7003F562228C82C007C006122BB4AC82D006D007EC30E7067A207BDA
:201EFE000080047A007B009001A574014AF09001A6747F5CF08010BD03028003BD040890C2
:201F1E0001A4E09001A7F0756401C007C006121409E582D006D00760069001A8E07001223A
:201F3E008E038F0474082BFBE43CFC9001ABEBF0ECA3F0756301227401B563289001ABE03F
:201F5E00FBA3E0FCEEC39BEF9C30E701221229D2E582600122756400121409E582700122DF
:201F7E00756302227402B56346C007C006C0051229D2E582D005D006D007600122BD090BD7
:201F9E009001AAE02401F0756300229001A9E014F0E060178E048F0574C82CFCE43DFD904C
:201FBE0001ABECF0EDA3F075630322756200227403B563379001ABE0FCA3E0FDEEC39CFC5E
:201FDE00EF9DFD20E74D756401C007C006121409E582D006D007603B74082EFEE43FFF9067
:201FFE0001ABEEF0EFA3F0756301227404B563151229D2E582701C9000001229C3E58260C2
:14201E0012756305227405B563091229D2E5827002F56222A4
:202032007F00EF24CFFDE43400FE8F82C007C006C00512256CAC82D005D006D0078D828EC7
:2020520083ECF00FBF800040D97547009000CF120D6DAF82900270EFF0900271EFF090027B
:202072006EE4F0900272F090026FF02290026F7401F022AE82AF8390026EE0700690026FC4
:20209200E06004758200227D00ED24AEFBE43401FCED2EF582E43FF583E08B828C83F00D5F
:2020B200BD200040E490026E7401F0758201229001B2E0FF9001B4E0F5109001B5E0F51116
:2020D2009001AEE0FCBC03169001AFE0FCBC550E9001B0E0FCBC4D069001B6E06004758215
:2020F20004229001B1E0FCBC0102800475820122E51124E8500475820322BF05028003BFB3
:202112000606AB117C0080047B007C0074092BFCBC20005016EC24AEFAE43401FB8A828BA5
:2021320083E06004758204220C80E5E4BF030104FC7008BF04028003BF061EE5116016AAD8
:20215200117B00A8107900EA28F8EB39F9C3748098E499503175820322E5106003BF0922DE
:20217200BF05117403B51103D38001C3B3920BE433FB800BE511B40100B3920BE433FBEB3C
:20219200600475820322EF24F65003022478EF240A83F582EF240E83F583E47378C2F053AC
:2021B20053B8EBAC7152242121222222222324249001D5740EF07F008F0374092BFB3395FB
:2021D200E0FAEB24CEFBEA3401FAEF90362293F98B828A83F00FBF0E0040DD02247C900189
:2021F200D57406F0900270E09001D7F0900271E060091217E0AB827F0080047B007F009045
:2022120001D8EBF0900271E06009121055AB827F0080047B007F009001D9EBF0900272E0E2
:202232009001DAF07582001217CDAF829001DBEFF07582011217CDAF829001DCEFF0022437
:202252007C9001D5E511F0751200C3E5129511400302247CAB1274092BFB3395E0FAEB24C7
:20227200CEFBEA3401FAEC6019E5122510F582C004C003C00212256CA982D002D003D004D2
:20229200801AA8107F00AD127E00ED28F8EE3FFFE824CFF582EF3400F583E0F98B828A8305
:2022B200E9F0051280A49001B7E0FFBF80028004758203229001B8E0FF9001B9E0FD7E0023
:2022D2007C00900274EE4FF0ED4CA3F0900273E4F090027204F002247C900272E0FFBF015B
:2022F20002800475820522900273E0FFB510028063AD117E00AB107C00ED2BFBEE3CFC7E70
:2023120000C3EF9BEE9C500475820A227F00C3EF9511400302247CAD107E008F037C00EB6D
:202332002DFDEC3EFEED24EEF582EE3401F583E0FE8F0574092DFD3395E0FCED24AEF58235
:20235200EC3401F583E0FDEEB50502800475820A220F80BA7F00C3EF95115034AD107E00C5
:202372008F037C00EB2DFDEC3EFEED24EEFDEE3401FE8F0474092CFC3395E0FBEC24AEF555
:2023920082EB3401F583E0FC8D828E83F00F80C6900273E02511F002247C900272E0FFBF81
:2023B200020302247CBF010A900273E0FFBF80028004758205229001EE120AD2AE82AF8304
:2023D200900274E0FCA3E0FDEEB5041AEFB505169001F4E0FD8E04B5040C9001F5E0FD8F5E
:2023F20006B506028004758207227547009001EE120D6DE5827004758206229001EE1225ED
:20241200E2AF82900270EFF0EF7004758209227F00EF24CFFDE43400FEEF24EEF582E4342D
:2024320001F583E08D828E83F00FBF800040E29002717401F01207C99002727402F0802A53
:20245200E5106013AE105306067F00BE0405BF00028004758203228510821204EE800B9008
:202472000272E4F080047582022275820022AE82AF8390026FE06014900272E4F090026EBB
:20249200F01207C990026FE4F00227B1900272E0601D900276E0FCA3E0FDEEC39CFCEF9D0F
:2024B200FDC3EC9488ED94134005900272E4F090026EE070012290026EE0FDBD01028003FE
:2024D2000225537D00ED24CEF582E43401F583E4F00DBD200040EE9001CE7404F09001CFF9
:2024F2007455F09001D0744DF09001D17401F07D04ED24CEFBE43401FCED24AEF582E4347A
:2025120001F583E08B828C83F00DBD070040E2C007C0061220C1AD82D006D0079001D6EDA1
:20253200F0ED70179001B2E0FDBD0500400DED24F74008900276EEF0EFA3F090026E7402C8
:1A255200F090026FE070129001CE122730E582600890026EE4F00227B122B5
:0E362200554D41430106000606058003FFFFDB
:20256C000234EAAF82C00712256CAE82D007EEB513028019A2AF920CC2AF900305E513F05C
:20258C008F82C0071234B4D007A20C92AF8F8212256CE582B5130474018001E4F58222AE8F
:2025AC0082AF837D008D82C007C006C00512256CAC82D005D006D007ED2EF582E43FF583FD
:2025CC00E0FBECB503028004758200220DBD800040D375820122AE82AF83C007C006122534
:2025EC00ABE582D006D007600475820122751300758200C007C00612256FE582D006D007CC
:20260C006015751300758201C007C00612256FE582D006D0077004758200227D02ED2EF556
:20262C0082E43FF583E0F5138D82C007C006C00512256FE582D005D006D0077003F582228D
:20264C000DBD800040D7751350758201C007C00612256FE582D006D007601575134D7582B5
:1B266C0000C007C00612256FE582D006D0077004758200228E828F830225AB8B
:04000000020049327F
:03000B000234FAC2
:0100130032BA
:01001B0032B2
:0100230032AA
:01002B0032A2
:01003300329A
:01003B003292
:030043000226880A
:0E00A2007808E4F608F608F608F6780C760002
:0300B40002004601
:030046000226C7C8
:20268800C022C0E0C0F0C082C083C007C006C005C004C003C002C001C000C0D075D0001278
:2026A80033BCD0D0D000D001D002D003D004D005D006D007D083D082D0F0D0E0D02232129C
:0E26C800358B1208A01208D180FB758200220B
:2026D60012344C12347612346575DD0075D3002275D30074FC55D24402F5D2900307E4F0D5
:2026F6002230DE357402B5DB1190000AE0FFBF010990000BE0900306F0227420B5DB1A9012
:20271600000AE0FFBF031290000A122085E582600874F355D24408F5D222D310AF01C3C0ED
:20273600D0AE82AF839002CC7401F0900304E0601F900307E070199002CAE060069002CD94
:20275600E0600DACD25304037D00BC0308BD000575820080417D008D037C0074402BFBE439
:202776003CFCEB240AFBEC3400FCED2EF582E43FF583E0FA8B828C83F00DBD200040D89036
:2027960002CCE4F09002CDF075D32090030704F053D2FC758201D0D092AF22D310AF01C3CA
:2027B600C0D0AED253060C7F00BE0C05BF0002800353D2F3D0D092AF22E582900306F022CF
:2027D6009002CEE4F09002CFF09002D0F09002D1F09002D2F09002D7F0A3F09002D5F0A37F
:2027F600F09002D3F0A3F07F00EF24D9F582E43402F583E4F00FBF080040EE9002E1E4F058
:202816009002E2F0A3F0900307F09002CBE02401F09002CCE4F09002CDF002283A9002CB8D
:20283600E0F58222D310AF01C3C0D09002CAE4F09002C8F09002C9F0D0D092AF22AF82909A
:2028560002C8E024C0F582E43402F583EFF09002C8E0FF0F74075FF09002CAE02401F07514
:202876008201228582148583159002CAE0FDBD08028006900304E07004758200229002C881
:20289600E075F009A42478FC740235F0FD8C828D837401F00CBC00010D7B00EB2514F9E42B
:2028B6003515FA89828A83E08C828D83F0A3AC82AD83EB24D9F8E43402FF89828A83E0883E
:2028D600828F83F00BBB080040D1758209022853D310AF01C3C0D0122879D0D092AF22AFB7
:2028F600829002CAE0FEBE08028006900304E07004758200229002E1EFF09002C8E075F0C3
:2029160009A42478FD740235F0FE8D828E837402F00DBD00010E8D828E83EFF00DBD000199
:202936000E8D828E83E516F00DBD00010E8D828E83E517F08D828E83A3E518F075820502D5
:202956002853D310AF01C3C0D0851916851A17851B181228F5D0D092AF22AE82AF839002B8
:20297600CAE0FDBD08028006900304E07004758200229002E2EEF0EFA3F09002C8E075F0D6
:2029960009A42478FC740235F0FD8C828D837405F00CBC00010D8E038C828D83EBF08C824F
:2029B6008D83A38F06EEF0758203022853D310AF01C3C0D0122970D0D092AF229002CAE094
:2029D600700A900307E07004C20D8002D20DA20DE433F58222D310AF01C3C0D0AE82AF83A2
:2029F6009002CAE06003022AE09002D2E0FD0D751C00BD01079002CEE0FB8011BD02079050
:202A160002D0E0FA80059002D1E0FA8A03BD010A9002D3E0F9A3E0FA8019BD020A9002D559
:202A3600E0F8A3E0FC80089002D7E0F8A3E0FC88018C028904EB7003022ACDEEC39CFCEFAE
:202A56009AFA8B017B00E929F9EB33FBE929F9EB33FBC3EC99EA9B405EBD03067B007C0055
:202A760080048D037C009002D2EBF0BD01109002D9C007C006122879D006D007804CBD02C0
:202A96001D9002E1E0FC7516007517007518008C82C007C0061228F5D006D007802C90025B
:202AB600E2E0FBA3E0FC8B828C83C007C006122970D006D00780130DED24FC50027D010541
:202AD6001C74FD251C4003022A08900304E06025900307E0701F9002CAE060199002CCE0A3
:202AF60060069002CDE0700DACD25304037D00BC0306BD0003022BAF9002C9E0FD75F00942
:202B1600A42478FB740235F0FC8B828C83E0F51DED24C0F582E43402F583E0F51E7900C3B6
:202B3600E9951E502789007A00744028F8E43AFAE8240AF8EA3400FA8B828C83E0FDA3AB10
:202B560082AC8388828A83EDF00980D37401B51D0A9002D3EEF0EFA3F0801C7402B51D0A5A
:202B76009002D5EEF0EFA3F0800D7405B51D089002D7EEF0EFA3F09002CD7401F0851ED395
:202B96009002C9E0FF0F74075FF09002CAE014F09003077401F053D2FCD0D092AF22AF8278
:202BB600BF8000400475820022EF90363093F58222E582FF7017AE7A9002CFEEF09002D19B
:202BD600EEF09002D0EEF09002CEEEF022BF01079002CEE57AF022BF02079002D0E57AF050
:202BF60022BF05069002D1E57AF022E582FF70079002CFE0F58222BF01079002CEE0F582CA
:202C160022BF02079002D0E0F58222BF05079002D1E0F5822275820022AF82AD7BAE7C8D09
:202C3600828E83EFF0BF0143E57A601474012DFBE43EFC900306E08B828C83F075820222DB
:202C56007C008C027B000ABA00010BEA2DFAEB3EFBEC24D9F582E43402F583E08A828B83E8
:202C7600F00CBC080040DB75820922E57A7039BF023674012DFBE43EFC9002E1E08B828C9B
:202C960083F074022DFBE43EFC74032DF9E43EFA8D828E83A3A3A3A3E4F089828A83F08B23
:202CB600828C83F075820522E57A702FBF052C74012DFCE43EFF9002E2E0FAA3E08C828F44
:1F2CD60083EAF074022DFDE43EFE9002E2E0A3E0FC8D828E83ECF07582032275820022BE
:2036300000000000000000002A2B28000000000000000000000000000000000000000000FD
:203650002C9EB4A0A1A2A434A6A7A5AE362D3738271E1F20212223242526B333B62EB7B81D
:203670009F8485868788898A8B8C8D8E8F909192939495969798999A9B9C9D2F3130A3AD0E
:20369000350405060708090A0B0C0D0E0F101112131415161718191A1B1C1DAFB1B0B50073
:0237F3000000D4
:2036B000120110010000000809125DC500010102030105010906A1018501050719E029E737
:2036D0001500250195087501810295017508810395067508150026FF000507190029E7816A
:2036F0000005081901290515002501950575019102950175039103C005010902A101090168
:20371000A10085020509190129031500250195037501810295017505810305010930093144
:2037300009381581257F750895038106C0C00600FF0901A10185030902150026FF007508E7
:20375000951F910285040903951F8102C0050C0901A1018505150026FF0F19002AFF0F7530
:203770001095018100C009022900010100806409040000020300000009211001000122B414
:20379000000705810320000A0705010320000A040309041C03430048003500350078002065
:2037B000006B006200640020006D006F007300260355006E006900760065007200730061E3
:2037D000006C0020004D006100630072006F007000610064000E0344006500710069006E24
:0337F0000067006F
:0300B0007579005F
:202CF600AE71AF72C3EE9408EF9400920E40067C087D008004AC71AD727D00C3ED9C502CC2
:202D16008D027B00E578600A857682857783E0F98009857682857783E493F98A828B83E9FF
:202D3600F00576E4B5760205770D80CF8C037D00EEC39BFEEF9DFF8E718F728C8222AFDB8E
:202D56007D007E008E748E78BF08028003023257900007E0FC7F00900006E0FB7A004FF562
:202D760071EA4CF5727F00900001E0F5738F79900000E0FC54607003022F31900000E0FC6E
:202D96005304607B00BC2005BB00028010BC4005BB00028003022F2C7FFF02325990000480
:202DB600E07006900005E060057FFF0232597409B5733F900000E0FCBC2137900003E0FCEF
:202DD600BC022F900002E0FCBC030CAB71AC72BB2005BC00028012900002E0FCBC0113AB64
:202DF60071AC72BB020CBC0009857174757500023259740AB57355900000E0FCBC214DE549
:202E16007145727047900002E0601C900002E0FCBC01028012900002E0FCBC0202800890CA
:202E36000002E0FCBC0525900304E0601F900002E0FC900003E0F57A8C82C007C006C00512
:202E5600122BC7D005D006D0070232597402B5735D900000E0FCBCA155900002E0601C90B2
:202E76000002E0FCBC01028012900002E0FCBC02028008900002E0FCBC0533900003E07012
:202E96002DAB71AC72BB0126BC0023900304E0601D900002E0F582C006C005122C01AC821F
:202EB600D005D006900000ECF07F010232597401B5735E900000E0FCBCA156900003E0FC4F
:202ED600BC01028008900003E0FCBC0244900304E0603E900002E0FC900003E0FBE4BB0292
:202EF6000104F57A757BE4757C028C82C007122C2FAC82D0078C057E00ED4E600F7576E4B2
:202F16007577027578017573060232597FFF0232597FFF0232597FFF023259E57324F45063
:202F360003023253E573240B83F582E573241083F583E473A7255325531F62532C49959588
:202F56003131323132302F3230303030900003E0FCBC01028017BC0202801FBC0302802787
:202F7600BC21028074BC2202807C02301A7576B07577367D127E0002325975767675773765
:202F96007D297E00023259900002E0700875769F7577378035900002E0FCBC01087576E51B
:202FB6007577378025900002E0FCBC02087576BF7577378015900002E0FCBC03087576A3DA
:202FD60075773780057FFF023259857682857783E493FCFD7E000232597576887577377D9E
:202FF600097E00023259900002E070137576C275773690378FE493FDA3E493FE0232597FF5
:20301600FF0232597FFF023259900002E0FC8C71757200023259900304E0900000F0AB7111
:20303600AC72C3EB9401EC940050030232597F01023259900000E07021900003E0701B901D
:203056000002E0FC24FE4012900004E0700C900005E07006E571457260057FFF0232599020
:203076000002E0900304F0C007C006C0051227D612207ED005D006D00775D21202325990C8
:203096000004E07075900005E0706F900002E07069900003E07063900304E0605D740AB505
:2030B600730474018001E4FC602C900000E0FBBB8103D38001C3920F5013AA71AB72BA0169
:2030D60006BB0003D38001C3920F100F02D20FA20FE433FB8021900000E0FABA0103D3807D
:2030F60001C3920F500AE57145727004C20F8002D20FA20FE433FBEB60057FFF023259EC3C
:203116007003023259900000E4F07F01023259900000E0FCBC0218900002E070129000035F
:20313600E0700C900005E07006E571457260057FFF023259900004E0FCBC812D7403B5733C
:203156000B74FC55D24403F5D202325974BC55D24402F5D2C007C006C0051227D612207EA7
:20317600D005D006D007023259900004E0FCBC011B747355D2FC7403B573067A0C7B0080B2
:20319600047A007B00EA4CF5D20232597FFF023259900004E0FD7E00900000E0FCBC824CA6
:2031B6008D038E04BB8117BC0014A9D2530103E4FAB90304BA000104F9FD7E008048BB018D
:2031D60017BC0014A9D253010CE4FAB90C04BA000104F9FD7E00802EED4E6006BB8009BCEE
:2031F60000067D007E00801E7FFF8057900000E0FCBC80028008900000E0FCBC8104ED4EAB
:2032160060047FFF803D900005E0700C900002E07006900003E060047FFF80278D04900003
:2032360000ECF0900001E4F0AB71AC72C3EB9402EC940040047F02800AAF7180067FFF8046
:20325600027FFFBFFF0280177406B57312C3ED9571EE957250048D718E72122CF6AF82BFAC
:20327600FF077573FF75DCCF22EF24F740168FDDE57460067E027F0080047E007F0074C0CA
:203296004EF5DC2275DD00E57460067E027F0080047E007F0074C04EF5DC227405B573022E
:2032B600800F7406B57318122CF68582DD63DC4022E5E35480FFE5714FF5E375DC022275F4
:2032D600DD0075DC022220DE01227409B5730280030233AAE57470030233AAE5DB24F75086
:2032F600030233AAAE757F00ACDB7D00EC2EFEED3FFFAC747D00C3EC9EED64808FF063F060
:203316008095F050030233AA7F00C3EF95DB5019EF257524E4FDE43402FE8F82758300E0C7
:20333600FC8D828E83F00F80E1E5DB2575F575E574B575477420B5741C9002E4E0FFBF037D
:20335600149002E4122085E582600A74F355D24408F5D2801C7402B574139002E4E0FFBF42
:20337600010B9002E5E0F5821227CF800475DCCF2275740075DD0075DC482274F825DB40ED
:20339600077573FF75DC0F2263DC8074F055DC4402F5DC2275DD00E57460077573FF75DCD0
:2033B6000F2275DC022220D903023422E5D9540F6002802CAED95306307F00BE0005BF00BD
:2033D600028013BE2005BF00028010BE303CBF0039122D5480341232DC802F1232B1802A37
:2033F600AED953060F7F00BE0120BF001DE5D95430600280051226F78010AED95306307F17
:2034160000BE2006BF00031226E6C2D930D81A12207E1227D675DC0275D21275E300C2DAB6
:20343600C2D9C2D8900304E4F010DA0122E5DA20E20375D8FF2275E20053E27F43E22975C9
:20345600E30053E2BF53D1FB75D18043D1012243E10443E10243E10143D81FD2EAD2AF2257
:1A3476007E007F008EEC8FED7E0A7F008EEE8FEF75D21275EAC075DC02225B
:20349000ABF0A2AFE433FEC2AFE0A37A0833D2B44002C2B47905D9FEC2B4DAF1DBEBEE608A
:0434B00002D2AF2273
:2034B400AF82BF800040012275A15575A1AA43B10475A1007585C0EF2FF584900305E0F52E
:2034D4008EE58630E60375869A75A15575A1AA53B1FB75A10022AF827585C0EF2FF58475D8
:0634F400868E858E822207
:06007800E478FFF6D8FD5C
:200056007902E94400601B7A019037F3780675A003E493F2A308B8000205A0D9F4DAF2751B
:02007600A0FFE9
:2034FA00C0D075D00808B8000D09B900090ABA00050BBB00010CD0D032A2AFC2AFA808A9B4
:20351A0009AA0AAB0BAC0C92AF75F020E8A4A8F075F020E9A428F582A8F075F020EAA428F8
:20353A00F583A8F075F020EBA428F9A8F075F020ECA42889F022AE82AF83C374019EE49F01
:20355A0040022200C374029EFE74009FFF00BE0005BF000200220000000000000000000060
:20357A00000000000000000EBE00EB0FBF00ED002275A15575A1AA74F855B94406F5B9758B
:20359A00A100901388123550759E5D759D0074F055894402F58953C9EF758C06C28DD2A94A
:0535BA00D28CD2AF220B
:20007E007800E84400600A799475A000E4F309D8FC7872E84402600C7903900094E4F0A3E3
:04009E00D8FCD9FAB7
:0D0049007581821235C0E582600302004619
:0435C00075820022EE
:00000001FF
