:2000B8007E947F007D007C004305098E828F838DF0EC0233BC7F00BF0900500FEF2494F58F
:2000D80082E43400F583E4F00F80EC0200B8E582FFC4540FFEEFB40100B39200E4334EF51F
:2000F8008222900266E070079000C1E07001221215EA8582239000C1E0FEE0700885238245
:20011800120EA7AE82EEF5240303543FFD530503E524C4540FF5259000BDE0F526740FB50E
:20013800251E9000C1E0600AE4BD030104F97A00800A8D007E00740158F97A00E94A700431
:20015800C2018002D201A201E433F52779947A00E4BD030104F874015526F52CE4F52DBD9D
:20017800020104FD74015524F52E752F0075280074FD252850030200B8852530752900E5E9
:200198002890353393FF9000C0E02FFF9000C1E06005752901805FE5266011752901ED60BB
:2001B80055E52C452D604F75300F804AE52824A4FBE43400FC8B828C83E0602C85284A853A
:2001D8002382C007C005C002C001C000120EC6AC82D000D001D002D005D0078C30BC0F16C3
:2001F8009000C9E0FC30E70E852530E86005752901800375300FE529605DE5276059BF55EC
:200218000050188F047455C39CFC75F003A4F52AEF75F003A4F52B7B00806BBFAA00501E24
:200238008F06EE24ABFE752A008E047455C39CFC75F003A4F52BEE75F003A4FB8048EF2405
:2002580056FF75F003A4F52A752B007455C39FFF75F003A4FB802FE53075F003A42446FEFD
:20027800743535F0FF8E828F83E493F52A0EBE00010F8E828F83E493F52B0EBE00010F8EE2
:20029800828F83E493FBE529603FE52E452F7039852A82C005C003C002C001C0001200E66F
:2002B80085822A852B821200E685822BD000D001D002D0038B82C002C001C0001200E6AB60
:2002D80082D000D001D002D00589828A83E52BF089828A83A3E52AF089828A83A3A3EBF031
:2002F800740329F9E43AFA0528020188AF829000C1EFF0EF7021900266E0701B1200CD90CA
:20031800009574FFF012343FAC82AD839000C2ECF0EDA3F00200B80200FAAF82C007120E6E
:20033800A7AE82D007EE0303543FFE5306039000BDE4F0BE0103048001E4FD7003BE023169
:20035800ED60067D037E00800C0FEF3395E0FCEF2FFDEC33FE9000BDEDF0AE31E532C313D8
:20037800CE13CEC313CE13CEFF747D2EFE9000BEF00200FAAE82AF839000BDE0FDE06017F8
:20039800EFC313CE13CEC313CE13CE9000BEE0FFEEC39FFE30E70122ED149000BDF09000C9
:2003B800BE747D2FF00200FA1215B512343FAC82AD83AEF0FFC005C00412286EE582D00493
:2003D800D0056038C005C00412343FAA82AB83AEF0FFD004D005EAC39CFAEB9DFBC3EA94E3
:2003F80064EB94005016C005C00412343F12288712343F1219F4D004D00580B97E947F00B6
:200418007D00BD0300501F8E828F83E4F08E828F83A314F08E828F83A3A3E4F074032EFE7A
:20043800E43FFF0D80DC1200B875E200C2AF75890090C35012347C90C35012347C12380075
:2004580080FEAF82BF030AA2B3B39202E433F58222BF050AA2B2B39202E433FE8013EF902D
:20047800352E93FFE5905207EFB401009202E433FE8E8222A2B0E43325E0FFA2B1E4334FFC
:20049800F58222AF82C00712045AAE82D007EF249DFCE43400FD8C828D83E0FBEEB50302DA
:2004B800801C8C828D83EEF0EF75F002A424ABF582740035F0F583E533F0E534A3F0EF2474
:2004D800A4FCE43400FD8C828D83E0FBEEB5030122EF75F002A424ABF582740035F0F5833C
:2004F800E0FAA3E0FBE533C39AFAE5349BFBC3EA940AEB940040658C828D83EEF09000C1B2
:20051800E0600E758200C007C006120304D006D007900266E0700122EE6030BF031CC0079D
:200538001215EA120EA7E582D0079000BC5402F09000C2E533F0E534A3F0853363853464BD
:200558008F82C00712162ED00780098F82C0071218D9D007BF030050030200FA2212048C6E
:20057800AF829000B9E0FEEFB50601229000C1E0600A758200C007120304D0079000B9E0CC
:2005980025E025E04F90353693FE9000B9EFF0900266E0700122EE70069000BAE4F0229097
:2005B80000BAE02EF0E0FFC364809484400B9000BAE4F075820102198EC3747C8FF063F03E
:2005D8008095F0400B9000BAE4F075820002198E2212343FAC82AD83AEF07F00EF24FC4084
:2005F80056EF249DFBE43400FEEF24A4F9E43400FA8F82C007C006C005C004C003C002C09E
:200618000112045AA882D001D002D003D004D005D006D00789828A83E8F08B828E83E8F075
:20063800EF75F002A424ABF582740035F0F583ECF0EDA3F00F80A5C005C00412048CE5822F
:20065800D004D0059000B9F0900266E0700C9000C1E07005F58202030422C005C004121554
:20067800B59000BAE4F01215EAE582D004D0059000BBF09000BCE4F09000BDF09000BFEC9B
:20069800F09000C0E4F00200FA121E384390C24392C24393C243B00B740B459654EFF596E0
:2006B80043971B1200CD1205E912250275820312045AE58260030203C02212343FAC82AD9A
:2006D80083C005C004122887D004D0058C828D83C005C0041222B3D004D0057F00EF24FCC7
:2006F80040188C338D348F82C007C005C00412049BD004D005D0070F80E3C005C004120566
:2007180075D004D0058C079000BFE0FEEFC39EFEBE060040619000C1E0FE6010EE30E3068A
:200738008E037E00802E7B007E008028900266E0601AC007C005C0041215EA120EA7AA829D
:20075800D004D005D0078A017A00800479007A0089038A065303F47E00BBF41ABE00179073
:2007780000BFEFF09000C0E02401F0C005C0041200FAD004D005900266E070319000C1E096
:20079800702A9000C2E0FEA3E0FFECC39EFEED9FFFC3EE94F4EF940140129000C2ECF0EDF5
:2007B800A3F0900095E064FFF00200B8228C828D83C005C0041219F41215EEE582D004D074
:2007D800057017C005C0041215EAAF82D004D0059000BBE0FEB50702804CC005C00412159E
:2007F800EAAF82D004D0059000BBE0FEB50702801FC005C0041215EAE5829000BBF0120445
:200818008CE582D004D0059000B9F09000BAE4F09000BBE0FF8C318D328F82C005C004127B
:200838000332D004D0058C828D83C005C00412038CD004D0059000BCE060219000A7E060AD
:1D0858001B9000C2E0FEA3E0FFECC39EFCED9FFDC3EC94B8ED940B40030203C02233
:18352E0002804020100055AA00FF0100010000FFFF0000010001FF0094
:20087600AF82BF01067E0F7F0080047E167F008E8222AF82BF01067E037F0080047E067F18
:20089600008E8222AF827E007D00C3ED9F500EE51CC39DFC1C8E03EC2BFE0D80EDE51B2E70
:2008B600C39F14F58222AE82AF837CFF7DFF7B00BB06028036BB07028031EB2EF582E43F9E
:2008D600F583E0FAE4F96204EA62057A08ED30E70EEC2CF8ED33F96300216301108006ECF5
:2008F6002CF8ED33F988048905DAE20BBB800040BF8C828D8322E582FF6020BF040092030C
:200916004007EF249A92035012BF680092034007EF248C92035004C2038002D203A203E4A6
:2009360033F5822285823A85833BE535253AF582E4353BF583E0FD740F5DFCEDC4540FFDCB
:20095600AA357B000ABA00010BEA253AF582EB353BF583E0FBEC24F05003020AF0EC240A80
:2009760083F582EC241483F583E473A1D6D6FBFBFBFB245C6FBCD6F0B42B2B090909090910
:2009960009090A0A0A0A0A0A090A0AED7003EB6004C2048002D204A204E433F58222ED24A2
:2009B600FE9204400EEB24FC9204500BBBFD0092045004C2048002D204A204E433F582222D
:2009D600E537600BBC0203D38001C3920440098B8212090CE5827004C2048002D204A204F0
:2009F600E433F58222E537600BBC0503D38001C39204400DED700AEB6007EB24F892045046
:200A160004C2048002D204A204E433F58222ED600475820022E537B4010092048D04E433CF
:200A3600C364808CF063F08095F09204400BBB8003D38001C392045004C2048002D204A245
:200A560004E433F58222ED7007EB7004C2048002D204A204E433F58222ED7006C3EB9539B6
:200A76004004758200227C007A00C3EA9539502EEAB50307EC600475820122A83879008A1E
:200A9600067F00EE28F8EF39F9E8253AF582E9353BF583E0FFE4BF000104FC0A80CCE4BB85
:200AB600000104F58222ED24FE92044006C3EB95364004C2048002D204A204E433F5822266
:200AD600ED700AC3EB95365004E5376004C2048002D204A204E433F5822275820022AE828F
:200AF600AF83754500E53C24FE403E8E828F83E0FCBC4D358E828F83A3E0FCBC502B8E820F
:200B16008F83A3A3E0FCBC032074052EFBE43FFC8B828C83E0F95301017A00A83C7D00E9DD
:200B3600B50006EAB505028004758200228E828F83A3A3A3E0FDFA74035A04F53DED0303C5
:200B5600543FF95301037D00853D468D47C3E99546ED64808547F063F08095F0400475829C
:200B76000022853C82C007C006C004C00312088885823E853C8212087685823FD003D0043F
:200B96008B828C83E0C313FB743F5BF540A83F7B00A93D7D00C001C00588828B831234EC9A
:200BB600AB82AD831581158174092BFBE43DFDA8407900C005C003C000C001900003123492
:200BD600ECA882A98315811581D003D005D006D007E82BF8E93DF98E828F83A3A3A3A3E084
:200BF600FD7C0028F8EC39F9C3748098E499500475820022853FF0E53DA4FC2409FBE5402C
:200C1600F975F003A42BF5418D42754300C3E543953D4003020CB5853FF0E543A42409F869
:200C3600754400853E4875490074032548FAE43549FBA9447D00C3E99AED64808BF063F092
:200C56008095F05055E544254488052DF53574012548FBE43549FDA9447A00C3E99BEA6426
:200C7600808DF063F08095F0B39205E433F537853D368541388542398E828F83C007C006D7
:200C9600C004C00012093AE582D000D004D006D0077003F58222054480890543020C237462
:200CB600092CFD7403B53E0474018001E4FC7B00C3EB95404003020D68ED2EF582E43FF546
:200CD60083E0FAC4540FF85300037900C3E89546E964808547F063F08095F050678A0053B8
:200CF600000F7900EC6008754803754900800675480F754900C3E89548E964808549F063FE
:200D1600F08095F0503EEB6006C3E5459A50358D01E904F535853D367537008541388542CF
:200D3600398E828F83C007C006C004C003C002C00112093AE582D001D002D003D004D006CF
:200D5600D0077004758200228A45740329FD0B020CC6E5426024AB417D00AA427C00EA2B3D
:200D7600FBEC3DFD1BBBFF011DEB2EFBED3FFD8B828D83E0600475820022754400C3E544ED
:200D960095425076AB417C00A9447A00E92BF8EA3CFDE82EF8ED3FFD88828D83E06057E9D1
:200DB6002BF8EA3CFDE82EF582ED3FF583E0FDBD09028042E92BF8EA3CFDE82EF582ED3F57
:200DD600F583E0FDBD0A02802DE92BF8EA3CFDE82EF582ED3FF583E0FDBD20004014E92BB0
:200DF600FBEA3CFCEB2EF582EC3FF583E0FD2481500475820022054480838E828F83C00769
:200E1600C0061208BCAC82AD83D006D00774062EF582E43FF583E0FB8C02B5021274072E80
:200E3600F582E43FF583E0FF8D04B504028004C2058002D205A205E433F582229000C7E02D
:200E5600FF74035F04F582229000C7E00303543FFF74035FF582229000C9E0FF74015FF5CB
:200E7600820208889000CCE0FF740F5F75F005A4F58222AF829000C9E0FE74015EF582C012
:200E960007120876E582D007F5F0EFA42409F58222E58204F582120E89AF827E001FBFFF12
:200EB600011EEF24C4F582EE3400F583E0F58222AF82C007120E6DAE82C006120E52AD8280
:200ED600D006D007C3EF9D5006C3E54A9E4004758206228F82C006120E89AF82D006E4FD4F
:200EF600FC74032EFEE43CFCEE2EFEEC33FCEE2FFFEC3DFDE54AC3137C002FFFEC3DFDEFE6
:200F160024C4F582ED3400F583E0FFE54A30E009EFC4540FFD7E0080087C00740F5FFD7EAA
:200F3600008D8222AF82C007120E52AE82D007C3EF9E5025C007120E6DAE82D0077D0074E8
:200F5600032EFEE43DFDAB4B7C00C3EB9EEC64808DF063F08095F0400BE54CF87600E54DAF
:200F7600F87600228F82120E89AF82E54B254B2FFEA94C24C4F582E43400F583E0F7A94D62
:200F96007F000EBE00010FEE24C4F582EF3400F583E0F722AF82C007120E6DAE829000C9F1
:200FB600E0C313FD743F5DF552C006120E52120E89AC82D006D007E54FB54E028022C3E5D2
:200FD6004E9E501CC3E54F9E5016C007C006C004120E52AB82D004D006D007C3EF9B4004A6
:200FF60075820022C3E54F954E5007AB4E854F4E8B4FEFC454F0FF854F1B8E1C854E82C0F8
:2010160007C00412089AAE82D004D007EE4207755300C3E55395525064EC24C4F582E43468
:2010360000F583E0FBB50702801753038F7A008F0553050F7E00430580EBB50536EAB506D2
:2010560032A9508C057E0074012DFAE43EFBEA24C4F582EB3400F583E0F7A95174022DFD36
:20107600E43EFEED24C4F582EE3400F583E0F77582012205538C0674032EFC8095758200CC
:2010960022AF82E5542FFEC39F400A9000C8E0FFC3EE9F400475820022C006120E52120E99
:2010B60089AF82D0069000C9E0C313FD743F5D75F003A42FFDE4FFFCEE2DFDEC3FFFED2404
:0C10D600C4F582EF3400F583E0F58222BF
:20354600FF0000FF1607FF1000FF4200FF7C003CFF0064C8141D7B4300FFC8005BFF000008
:10356600FF7300B4FF00C2FF0048FFFFFF0000002A
:2010E200AF827408B55602800EE51C6034AE56C3EE64809481402AE51C6012900198E0FE7F
:20110200BEFF028018900198EE04F08010900197E0FEBEFF028006900197EE04F07582008F
:2011220022900195E075F002A42485F582740135F0F583EFF0900195E075F002A42485FEB1
:20114200740135F0FF8E828F83A3E51BF0900195E0045407F00556758201227F007E00EE8A
:201162002460F582E43401F583E0FD42070EBE090040EC7E00EE2452FCE43401FD8C828D2B
:2011820083E06025EE2444F582E43401F583E0FD53050F7C00BD0511BC000EEE244BF582D6
:2011A200E43401F583E0FD42070EBE070040C6E55D600790019CE0FE42078F8222AF82C07C
:2011C2000712115DAE82D007BF0E09E55FFC3395E0FD80047C007D00BF0F09E55FFD339567
:2011E200E0FF80047D007F008D188C177519008E820227D9E582FF7004758201227E02EE44
:201202002471FCE43401FD8C828D83E0FBB5070475820122EB700A8C828D83EFF0758201F8
:20122200220EBE080040D8758200227F007E00EE2471F582E43401F583E4F00EBE08004015
:20124200EE7E00EE2452FCE43401FD8C828D83E06040EE2444F582E43401F583E0FDFB5383
:20126200030F7C00BB022BBC0028900171E0FCEDC4540F4204900171ECF0EE244BF582E444
:201282003401F583E0F582C007C0061211F6D006D0070EBE070040AB90019D7401F0E55D62
:2012A200603B90019AE0FE53060F7D00BE012EBD002B90019BE0F582C0071211F6AE82D06B
:2012C2000790019DEEF0EE6014900171E0FE90019AE0C4540FFD4206900171EEF07E00EEF4
:2012E2002471F582E43401F583E0FDEE2469F582E43401F583E0FCEDB5040280027F010E5B
:20130200BE080040DAEF602E90017112272FE5827003F582227F00EF2469FDE43401FEEF93
:201322002471F582E43401F583E0FC8D828E83F00FBF080040E112115DE582FFB5550280B9
:201342001B7517007518007519008F82C0071227D9E582D0077003F582228F557582012297
:20136200AF82AE5774FFB55A028011855A57755AFFC007C006121453D006D0078F0453047F
:201382000F7D00BC0004BD000122BC0204BD000122BC0504BD000122BC0605BD0002801CB6
:2013A200BC0A05BD00028051BC0B05BD00028008BC0D54BD0051801E75590122E562246038
:2013C200FCE43401FD8C828D83E0FBE56062038C828D83EBF022C007C006120E52AD82D03D
:2013E20006D007E5602EFE240CF560C3E5609D4008E560C39DF56080F2755901EF30E403EA
:2014020085575A8560572285601B85611C8F820210E2900180E0FFE07001221F900180E4B8
:20142200F0EF2452F582E43401F5837401F0EF2444F582E43401F583E0FEEF244BF582E4F2
:201442003401F583E0F5607561008F628E82021362AF577E007D00ED2452FBE43401FC8B5B
:20146200828C83E06035ED2444F582E43401F583E0FC53040F7B00BC0B21BB001EED24591F
:20148200F582E43401F583E0FCC39E400E8C06ED244BF582E43401F583E0FF0DBD070040D1
:2014A200B6EFB55801228F587F00EF2460F582E43401F583E4F00FBF090040EE7556009040
:2014C2000195E4F0900196F0AE5B53060F7F00BE0812BF000F7404B55C0280057405B55C59
:2014E20003755E01755B00755C00755D0090019CE4F0121414021453120E5E858257855744
:2015020058755900755AFF900180E4F0900179F0900197F0900198F07F00EF247AF582E45E
:201522003401F583E4F00FBF060040EE900195E4F0900196F0F556F55BF55CF55E9001A2A3
:20154200F0F55D90019CF0F55512265FE582900184F07F00EF2452F582E43401F583E4F01D
:20156200EF2459F582E43401F583EFF0EF2444F582E43401F583E4F0EF244BF582E43401F5
:20158200F583E4F00FBF070040CA7F00EF2460F582E43401F583E4F00FBF090040EE7F00CC
:2015A200EF2469F582E43401F583E4F00FBF080040EE221226661214FA90016974FFF0F59B
:2015C2005590000012285FE582B401009206E433F55E02122DE5826007900198E0FF8005D1
:2015E200900197E0FF8F82228558822285598275590022E5822459FEE43401FF8E828F83C2
:20160200E0FD7C00EC2459FAE43401FB8A828B83E0F9C3ED995007198A828B83E9F00CBC91
:20162200070040E08E828F837406F022AF82C007120E6D858267D007C3E5679F40248FF078
:2016420005F07C017D008006EC2CFCED33FDD5F0F7900179E0FBF97A005204EA5205EC4DFE
:201662006001228F058DF005F07401800225E0D5F0FB9001794BF0C3EF9567E433FC6010AD
:20168200EF247AFAE43401FB8A828B83E0600122900180E0FBE070030217ACEC700874FF55
:2016A200B55A030217AC1BEC700302179A900182E0F9A3E0FAE563C399F9E5649AFAC0077A
:2016C200C005C004C003C002C001120E7AA882D001D002D003D004D005D0077E00C3E998BD
:2016E200EA9E400302179A900181E0FE7550657551668B4E8F4F8E82C007C005C004C0034A
:20170200120FAAE582D003D004D005D007700302179A900180E4F0EB247AF582E43401F529
:2017220083ED04F0EF247AF582E43401F5838B060EEEF0EB2444F582E43401F583E565F09C
:20174200EB244BF582E43401F583E566F0EF2444F582E43401F583E4F0EF244BF582E434CA
:2017620001F583E4F0EF2452F582E43401F583E4F0EB2452F582E43401F5837401F08B82FE
:20178200C0031215F5D0038566607561008B62856582121362021453C007C005C0041214B5
:2017A20014121453D004D005D007754C65754D668F4B855882C007C005C004120F3AD00414
:2017C200D005D007EF2444FBE43401FE8B828E83E565F0EF244BF9E43401FA89828A83E533
:2017E20066F08F82C007C006C005C004C003C002C0011215F5D001D002D003D004D005D019
:2018020006D007EC6071C007C006C005C003C002C001120E7AE582D001D002D003D005D078
:2018220006D00760527C00C3EC9567504A7550657551668F4E8C4F855882C007C006C00597
:20184200C004C003C002C001120FAAE582D001D002D003D004D005D006D0076017900180F6
:20186200ED04F0900181E558F0900182E563F0E564A3F0220C80B0EF2452F582E43401F5D7
:20188200837401F08B828E83E0FB89828A83E0F5607561008F628B82121362021453E582ED
:2018A200FF2444F582E43401F583E0FE53060FEF2452FDE43401FF8D828F83E06018BE02BE
:2018C200028003BE05067C027E0080047C007E008D828F83ECF022AF82C007120E6DAE826A
:2018E200D007C3EE9F5001228F068EF005F07401800225E0D5F0FBF4FE900179E05EF08FCF
:20190200057E000DBD00010E900180E07B00B5050EEBB5060AC007121414121453D0078FA5
:2019220082C0071218A0120E6DAE82D007C3EF9E5057EF247AFEE43401FF8E828F83E0FD65
:2019420060471D8D82C007C006C0051218A0D005D006D0078DF005F07B017C008006EB2B0E
:20196200FBEC33FCD5F0F7900179E0F97A005203EA5204EB4C70128E828F83E4F0ED247A67
:20198200F582E43401F583E4F0021453AF82C007120E6DAE82D007EF60067C017D008004A1
:2019A2007C027D00EC2EFE900180E0601574FFB55A02800EC007C006121414121453D00684
:2019C200D007754C68754D698E4B855882C007120F3AD007EF60067E077F0080047E087FC7
:2019E200008E62856960756101856882121362021453AE82AF83900180E0603B900182E090
:201A0200FCA3E0FDEEC39CFCEF9DFDC007C006C005C004120E7AAB82D004D005D006D00743
:201A22007A00C3EC9BED9A400EC007C006121414121453D006D007C007C00612265FAD82CB
:201A4200D006D007900184E0FCB505028019C007C00612265FE582D006D007900184F090C4
:201A6200016974FFF0F555E55E6018900000C007C00612285FE582D006D0076005755E0090
:201A8200800122C007C00612122DE582D006D007700122E55B7026E5567022C007C00612DA
:201AA200286EAD82D006D007ED70128E059001A2E0FCEDC39CFDBD080092075004C207805D
:201AC20002D207A207E433FD60059001A2EEF07C00EC2452F582E43401F583E0FBBB025127
:201AE200EC2444F582E43401F583E0F953010F7A00B9022FBA002CEC244BF582E43401F522
:201B020083E0FA601E7902E92469F582E43401F583E0F8B50202800609B9080040E9B90824
:201B2200028051EC2452F582E43401F583E4F08043ED6040EB603DEC2444F582E43401F5E1
:201B420083E0FBF95301FE7A00B91E28BA002553030FEC244BF582E43401F583E0F55F8BFB
:201B620082C007C006C005C0041211BFD004D005D006D0070CBC07005003021AD3C007C0FB
:201B82000612122DE582D006D007700122E55B7054E5566050900196E0FD75F002A424859E
:201BA200FB740135F0FC8B828C83E0F55B8B828C83A3E0900199F0ED049001965407F01515
:201BC20056755C0090019FE4F0AC5B53040F7D00BC0409BD00067C027D0080047C017D00E9
:201BE20090019EECF0E55B700122E55B540FFDE55C6003021D5BC007C006C00512286EE568
:201C020082D005D006D007600122BD0756900199E0FC7003F55B22C00412115DAB82D004F1
:201C2200EC33E433FA600678FF79FF80047801790088197517007518008B82C004C0021248
:201C420027D9E582D002D004700122EA6005EC04FB8003EC14FB900199EBF0EB6001227542
:201C62005B0022BD0E028003BD0F21900199E0F55F8D82C007C0061211BFE582D006D007B8
:201C82007001229001A2EEF0755B0022BD082BAB5BE4CBC4540F6BCB540FCB6BCB8B047B3C
:201CA20000900199E07A004BF582EA4CF58312285FE582700122755C042290019AE55BF049
:201CC200900199E0FC90019BF090019CE4F0BD094890019FE0F5548C82C007C00612109724
:201CE200AC82D006D007EC7003F55B228C82C007C006122A5CAC82D006D007EC30E7067AA5
:201D0200207B0080047A007B0090019A74014AF090019B747F5CF08010BD03028003BD04D2
:201D220008900199E090019CF0755D01C007C00612122DE582D006D007600690019DE070C9
:201D420001228E038F0474082BFBE43CFC9001A0EBF0ECA3F0755C01227401B55C289001BE
:201D6200A0E0FBA3E0FCEEC39BEF9C30E7012212286EE582600122755D0012122DE58270CA
:201D82000122755C02227402B55C46C007C006C00512286EE582D005D006D007600122BD39
:201DA200090B90019FE02401F0755C002290019EE014F0E060178E048F0574C82CFCE43DE0
:201DC200FD9001A0ECF0EDA3F0755C0322755B00227403B55C379001A0E0FCA3E0FDEEC392
:201DE2009CFCEF9DFD20E74D755D01C007C00612122DE582D006D007603B74082EFEE43F41
:201E0200FF9001A0EEF0EFA3F0755C01227404B55C1512286EE582701C90000012285FE5F5
:161E2200826012755C05227405B55C0912286EE5827002F55B2238
:201E38007F00EF24C4FDE43400FE8F82C007C006C005122398AC82D005D006D0078D828EA4
:201E580083ECF00FBF800040D9753C019000C4120AF4AF82900265EFF0900266EFF090021E
:201E780063E4F0900267F0900264F0229002647401F022AE82AF83900263E0700690026402
:201E9800E06004758200227D00ED24A3FBE43401FCED2EF582E43FF583E08B828C83F00D66
:201EB800BD200040E49002637401F0758201229001A7E0FF9001A9E0F5109001AAE0F5113E
:201ED8009001A3E0FCBC03169001A4E0FCBC550E9001A5E0FCBC4D069001ABE0600475823D
:201EF80004229001A6E0FCBC0102800475820122E51124E8500475820322BF05028003BFBA
:201F18000606AB117C0080047B007C0074092BFCBC20005016EC24A3FAE43401FB8A828BAC
:201F380083E06004758204220C80E5E4BF030104FC7008BF04028003BF061EE5116016AAD4
:201F5800117B00A8107900EA28F8EB39F9C3748098E499503175820322E5106003BF0922DA
:201F7800BF05117403B51103D38001C3B39208E433FB800BE511B40100B39208E433FBEB3E
:201F9800600475820322EF24F650030222ABEF240A83F582EF240E83F583E473ABC82386D8
:201FB80086EB1EDFA485221F20202020212122229001CA740EF09001CC7455F09001CD7476
:201FD8004DF09001CE7441F09001CF7443F09001D07401F09001D17403F09001D27401F04A
:201FF8009001D37403F0E0FF9001D4F09001D57404F09001D67480F09001D77403F0900151
:20201800D874FFF09001D9F00222AF9001CA7406F0900265E09001CCF0900266E060091204
:2020380015EAAB827F0080047B007F009001CDEBF0900266E06009120E5EAB827F00800437
:202058007B007F009001CEEBF0900267E09001CFF07582001215D7AF829001D0EFF07582AE
:20207800011215D7AF829001D1EFF00222AF9001CAE511F0751200C3E51295114003022275
:20209800AFAB1274092BFB3395E0FAEB24C3FBEA3401FAEC6019E5122510F582C004C00302
:2020B800C002122398A982D002D003D004801AA8107F00AD127E00ED28F8EE3FFFE824C4BE
:2020D800F582EF3400F583E0F98B828A83E9F0051280A49001ACE0FFBF80028004758203F4
:2020F800229001ADE0FF9001AEE0FD7E007C00900269EE4FF0ED4CA3F0900268E4F090021F
:202118006704F00222AF900267E0FFBF0102800475820522900268E0FFB510028063AD11FC
:202138007E00AB107C00ED2BFBEE3CFC7E00C3EF9BEE9C500475820A227F00C3EF951140B6
:20215800030222AFAD107E008F037C00EB2DFDEC3EFEED24E3F582EE3401F583E0FE8F0593
:2021780074092DFD3395E0FCED24A3F582EC3401F583E0FDEEB50502800475820A220F807B
:20219800BA7F00C3EF95115034AD107E008F037C00EB2DFDEC3EFEED24E3FDEE3401FE8FEB
:2021B8000474092CFC3395E0FBEC24A3F582EB3401F583E0FC8D828E83F00F80C6900268BE
:2021D800E02511F00222AF900267E0FFBF02030222AFBF010A900268E0FFBF8002800475C2
:2021F8008205229001E31208BCAE82AF83900269E0FCA3E0FDEEB5041AEFB505169001E921
:20221800E0FD8E04B5040C9001EAE0FD8F06B50602800475820722753C019001E3120AF4EE
:20223800E5827004758206229001E312240EAF82900265EFF0EF7004758209227F00EF24B6
:20225800C4FDE43400FEEF24E3F582E43401F583E08D828E83F00FBF800040E290026674C5
:2022780001F01205E99002677402F0802AE5106013AE105306067F00BE0405BF000280043C
:2022980075820322851082120304800B900267E4F080047582022275820022AE82AF8390D8
:2022B8000264E06014900267E4F0900263F01205E9900264E4F00225DD900267E0601D90E6
:2022D800026BE0FCA3E0FDEEC39CFCEF9DFDC3EC9488ED94134005900267E4F0900263E005
:2022F800700122900263E0FDBD0102800302237E7D00ED24C3F582E43401F583E4F00DBD84
:20231800200040EE9001C37404F09001C47455F09001C5744DF09001C67401F09001A7E0B2
:202338009001C7F09001A8E09001C8F09001A9E09001C9F0C007C006121EC7AD82D006D01E
:20235800079001CBEDF0ED70179001A7E0FDBD0500400DED24F7400890026BEEF0EFA3F0E0
:1F2378009002637402F0900264E070129001C312255CE5826008900263E4F00225DD22EE
:20239800023416AF82C007122398AE82D007EEB513028019A2AF9209C2AF9002FAE513F0EB
:2023B8008F82C0071233E0D007A20992AF8F82122398E582B5130474018001E4F58222AE13
:2023D80082AF837D008D82C007C006C005122398AC82D005D006D007ED2EF582E43FF583A9
:2023F800E0FBECB503028004758200220DBD800040D375820122AE82AF83C007C00612230C
:20241800D7E582D006D007600475820122751300758200C007C00612239BE582D006D0074B
:202438006015751300758201C007C00612239BE582D006D0077004758200227D02ED2EF502
:2024580082E43FF583E0F5138D82C007C006C00512239BE582D005D006D0077003F5822239
:202478000DBD800040D7751350758201C007C00612239BE582D006D007601575134D758261
:1B24980000C007C00612239BE582D006D0077004758200228E828F830223D70D
:04000000020049327F
:03000B0002342696
:0100130032BA
:01001B0032B2
:0100230032AA
:01002B0032A2
:01003300329A
:01003B003292
:030043000224B4E0
:0E00A2007808E4F608F608F608F6780C760002
:0300B40002004601
:030046000224F39E
:2024B400C022C0E0C0F0C082C083C007C006C005C004C003C002C001C000C0D075D000124E
:2024D40032E8D0D0D000D001D002D003D004D005D006D007D083D082D0F0D0E0D022321247
:0E24F40034B71206A11206D280FB75820022B8
:202502001233781233A212339175DD0075D3002275D30074FC55D24402F5D29002FCE4F035
:202522002230DE357402B5DB1190000AE0FFBF010990000BE09002FBF0227420B5DB1A90F3
:20254200000AE0FFBF031290000A121E8BE582600874F355D24408F5D222D310AF01C3C0BF
:20256200D0AE82AF839002C17401F09002F9E0601F9002FCE070199002BFE060069002C2A3
:20258200E0600DACD25304037D00BC0308BD000575820080417D008D037C0074402BFBE40F
:2025A2003CFCEB240AFBEC3400FCED2EF582E43FF583E0FA8B828C83F00DBD200040D8900C
:2025C20002C1E4F09002C2F075D3209002FC04F053D2FC758201D0D092AF22D310AF01C3C2
:2025E200C0D0AED253060C7F00BE0C05BF0002800353D2F3D0D092AF22E5829002FBF022B1
:202602009002C3E4F09002C4F09002C5F09002C6F09002C7F09002CCF0A3F09002CAF0A3A1
:20262200F09002C8F0A3F07F00EF24CEF582E43402F583E4F00FBF080040EE9002D6E4F04E
:202642009002D7F0A3F09002FCF09002C0E02401F09002C1E4F09002C2F00226669002C07C
:20266200E0F58222D310AF01C3C0D09002BFE4F09002BDF09002BEF0D0D092AF22AF829091
:2026820002BFE0FEBE080280069002F9E07004758200229002BDE024B5F582E43402F58342
:2026A200EFF09002BDE0FF0F74075FF09002BFE02401F075820122AE82AF839002BFE0FD42
:2026C200BD080280069002F9E07004758200229002BDE075F009A4246DF582740235F0F5DA
:2026E200837401F07D009002BDE075F009A4246DFB740235F0FC8D02EA042BFBE43CFCED63
:202702002EF9E43FFA89828A83E08B828C83F0ED24CEFBE43402FC89828A83E08B828C836B
:20272200F00DBD080040BF75820902267FD310AF01C3C0D01226B9D0D092AF22AF82900292
:20274200BFE0FEBE080280069002F9E07004758200229002D6EFF09002BDE075F009A424E8
:202762006DF582740235F0F5837402F09002BDE075F009A4246DFD740235F0FE8D828E8372
:20278200A3EFF09002BDE075F009A4246DFE740235F0FF8E828F83A3A3E514F09002BDE0CB
:2027A20075F009A4246DFE740235F0FF8E828F83A3A3A3E515F09002BDE075F009A4246D15
:2027C200FE740235F0FF8E828F83A3A3A3A3E516F075820502267FD310AF01C3C0D08517A1
:2027E2001485181585191612273ED0D092AF22AE82AF839002BFE0FDBD080280069002F97B
:20280200E07004758200229002D7EEF0EFA3F09002BDE075F009A4246DF582740235F0F5A7
:20282200837405F09002BDE075F009A4246DFC740235F0FD8C828D83A38E05EDF09002BDC4
:20284200E075F009A4246DFC740235F0FD8C828D83A3A38F06EEF075820302267FD310AF55
:2028620001C3C0D01227F1D0D092AF229002BFE0700A9002FCE07004C20A8002D20AA20A72
:20288200E433F58222D310AF01C3C0D0AE82AF839002BFE0600302297C9002C7E0FD0D754B
:2028A2001A00BD01079002C3E0FB8011BD02079002C5E0FA80059002C6E0FA8A03BD010A73
:2028C2009002C8E0F9A3E0FA8019BD020A9002CAE0F8A3E0FC80089002CCE0F8A3E0FC886C
:2028E200018C028904EB7003022969EEC39CFCEF9AFA8B017B00E929F9EB33FBE929F9EBDB
:2029020033FBC3EC99EA9B405EBD03067B007C0080048D037C009002C7EBF0BD011090023B
:20292200CEC007C0061226B9D006D007804CBD021D9002D6E0FC7514007515007516008C86
:2029420082C007C00612273ED006D007802C9002D7E0FBA3E0FC8B828C83C007C0061227F1
:20296200F1D006D00780130DED24FC50027D01051A74FD251A40030228A49002F9E060256A
:202982009002FCE0701F9002BFE060199002C1E060069002C2E0700DACD25304037D00BC33
:2029A2000306BD0003022A577D009002BEE0FC24B5F582E43402F583E0FBC3ED9B50328D09
:2029C200027B0074402AFAE43BFBEA240AFAEB3400FBEC75F009A4246DF8740235F0F9ED52
:2029E20028F582E439F583E0F98A828B83F00D80B9EC75F009A4246DF582740235F0F5835F
:202A0200E0FDBD010A9002C8EEF0EFA3F08018BD020A9002CAEEF0EFA3F0800BBD05089053
:202A220002CCEEF0EFA3F09002C27401F09002BEE0FF24B5F582E43402F583E0F5D30F9055
:202A420002BE74075FF09002BFE014F09002FC7401F053D2FCD0D092AF22AF82BF800040EE
:202A62000475820022EF90357693F58222E582FF7017AE1B9002C4EEF09002C6EEF090022F
:202A8200C5EEF09002C3EEF022BF01079002C3E51BF022BF02079002C5E51BF022BF050613
:202AA2009002C6E51BF022E582FF70079002C4E0F58222BF01079002C3E0F58222BF0207A1
:202AC2009002C5E0F58222BF05079002C6E0F5822275820022AF82AD1CAE1D8D828E83EF9B
:202AE200F0BF0143E51B601474012DFBE43EFC9002FBE08B828C83F0758202227C008C0214
:202B02007B000ABA00010BEA2DFAEB3EFBEC24CEF582E43402F583E08A828B83F00CBC0892
:202B22000040DB75820922E51B7039BF023674012DFBE43EFC9002D6E08B828C83F0740231
:202B42002DFBE43EFC74032DF9E43EFA8D828E83A3A3A3A3E4F089828A83F08B828C83F0E0
:202B620075820522E51B702FBF052C74012DFCE43EFF9002D7E0FAA3E08C828F83EAF074B3
:1B2B8200022DFDE43EFE9002D7E0A3E0FC8D828E83ECF07582032275820022F3
:2035760000000000000000002A2B28000000000000000000000000000000000000000000B8
:203596002C9EB4A0A1A2A434A6A7A5AE362D3738271E1F20212223242526B333B62EB7B8D8
:2035B6009F8485868788898A8B8C8D8E8F909192939495969798999A9B9C9D2F3130A3ADC9
:2035D600350405060708090A0B0C0D0E0F101112131415161718191A1B1C1DAFB1B0B5002E
:0237390000008E
:2035F600120110010000000809125DC500010102030105010906A1018501050719E029E7F2
:203616001500250195087501810295017508810395067508150026FF000507190029E78124
:203636000005081901290515002501950575019102950175039103C005010902A101090122
:20365600A100850205091901290315002501950375018102950175058103050109300931FF
:2036760009381581257F750895038106C0C00600FF0901A10185030902150026FF007508A2
:20369600951F910285040903951F8102C0050C0901A1018505150026FF0F19002AFF0F75EB
:2036B6001095018100C009022900010100806409040000020300000009211001000122B4CF
:2036D600000705810320000A0705010320000A040309041C03430048003500350078002020
:2036F600006B006200640020006D006F007300260355006E0069007600650072007300619E
:20371600006C0020004D006100630072006F007000610064000E0344006500710069006EDE
:0337360000670029
:0300B00075720066
:202B9E00AFDB7D007E008E6DBF080280030230C5900007E0FC7F00900006E0FB7A004FF533
:202BBE006AEA4CF56B8F73900001E0F56C8F72900000E0FC54607003022D77900000E0FC7D
:202BDE005304607B00BC2005BB00028011BC4005BB00028003022D717573FF0230C8900024
:202BFE0004E07006900005E060067573FF0230C87409B56C3F900000E0FCBC2137900003B1
:202C1E00E0FCBC022F900002E0FCBC030CAB6AAC6BBB2005BC00028012900002E0FCBC010D
:202C3E0013AB6AAC6BBB020CBC0009856A6D756E000230C8740AB56C51900000E0FCBC2137
:202C5E0049E56A456B7043900002E0601C900002E0FCBC01028012900002E0FCBC02028000
:202C7E0008900002E0FCBC05219002F9E0601B900002E0FC900003E0F51B8C82C006C0056E
:202C9E00122A6FD005D0060230C87402B56C5E900000E0FCBCA156900002E0601C90000232
:202CBE00E0FCBC01028012900002E0FCBC02028008900002E0FCBC0534900003E0702EABF4
:202CDE006AAC6BBB0127BC00249002F9E0601E900002E0F582C006C005122AA9AC82D0054D
:202CFE00D006900000ECF07573010230C87401B56C5B900000E0FCBCA153900003E0FCBC59
:202D1E0001028008900003E0FCBC02419002F9E0603B900002E0FC900003E0FBE4BB020118
:202D3E0004F51B751CD9751D028C82122AD7AC828C057E00ED4E600F756FD97570027571D1
:202D5E0000756C060230C87573FF0230C87573FF0230C87573FF0230C8E56C24F450030213
:202D7E0030C0E56C240B83F582E56C241083F583E4730F8FC08FC089A8C096B4FDFD302FB3
:202D9E00302F302E2D302E2E2E2E900003E0FCBC01028019BC02028024BC0302802FBC21CB
:202DBE0003022E51BC2203022E61022E83756FF67570357571807D127E000230C8756FBC4B
:202DDE007570367571807D297E000230C8900002E0700B756FE5757036757180803F9000B0
:202DFE0002E0FCBC010B756F2B757037757180802C900002E0FCBC020B756F057570377521
:202E1E0071808019900002E0FCBC030B756FE975703675718080067573FF0230C8AA6FAB59
:202E3E0070AC718A828B838CF012350EFAFD7E000230C8756FCE7570367571807D097E0056
:202E5E000230C8900002E07016756F087570367571809036D5E493FDA3E493FE0230C8755F
:202E7E0073FF0230C87573FF0230C8900002E0FC8C6A756B000230C89002F9E0900000F0BE
:202E9E00AB6AAC6BC3EB9401EC940050030230C87573010230C8900000E07021900003E081
:202EBE00701B900002E0FC24FE4012900004E0700C900005E07006E56A456B60067573FF60
:202EDE000230C8900002E09002F9F0C006C005122602121E84D005D00675D2120230C890E6
:202EFE000004E07075900005E0706F900002E07069900003E070639002F9E0605D740AB5AB
:202F1E006C0474018001E4FC602C900000E0FBBB8103D38001C3920B5013AA6AAB6BBA011B
:202F3E0006BB0003D38001C3920B100B02D20BA20BE433FB8021900000E0FABA0103D38026
:202F5E0001C3920B500AE56A456B7004C20B8002D20BA20BE433FBEB60067573FF0230C808
:202F7E00EC70030230C8900000E4F07573010230C8900000E0FCBC0218900002E0701290CD
:202F9E000003E0700C900005E07006E56A456B60067573FF0230C8900004E0FCBC81297439
:202FBE0003B56C0B74FC55D24403F5D20230C874BC55D24402F5D2C006C005122602121ECC
:202FDE0084D005D0060230C8900004E0FCBC011B747355D2FC7403B56C067A0C7B00800435
:202FFE007A007B00EA4CF5D20230C87573FF0230C8900004E0FD7E00900000E0FCBC824D00
:20301E008D038E04BB8117BC0014A9D2530103E4FAB90304BA000104F9FD7E00804ABB0124
:20303E0017BC0014A9D253010CE4FAB90C04BA000104F9FD7E008030ED4E6006BB8009BC85
:20305E0000067D007E0080207573FF805D900000E0FCBC80028008900000E0FCBC8104ED21
:20307E004E60057573FF8042900005E0700C900002E07006900003E060057573FF802B8D06
:20309E0004900000ECF0900001E4F0AB6AAC6BC3EB9402EC94004005757302800D856A732F
:2030BE0080087573FF80037573FF74FFB57302806F7406B56C6AC3ED956AEE956B50048D0A
:2030DE006A8E6BAD6AAE6BC3ED9408EE9400920B40067B087C008004AB6AAC6B8B737C0065
:2030FE00C3EC957350208C027B00EC256FF8E43570F9AF71888289838FF012350EF88A827A
:20311E008B83F00C80DAAC737F00EDC39CFDEE9FFE8D6A8E6BE573256FF56FE43570F5708D
:20313E0074FFB57307756CFF75DCCF22E57324F740178573DDE56D60067E027F0080047E55
:20315E00007F0074C04EF5DC2275DD00E56D60067E027F0080047E007F0074C04EF5DC225E
:20317E007405B56C02806E7406B56C028003023201AE6AAF6BC3EE9408EF9400920C40066C
:20319E007C087D008004AC6AAD6B8C1B7D00C3ED951B50208D027B00ED256FF8E43570F965
:2031BE00AC71888289838CF012350EF88A828B83F00D80DAAC1B7D00EEC39CFEEF9DFF8EDC
:2031DE006A8F6BE51B256FF56FE43570F570851BDD63DC4022E5E35480FFE56A4FF5E375E3
:2031FE00DC022275DD0075DC022220DE01227409B56C0280030232D6E56D70030232D6E5E8
:20321E00DB24F750030232D6AE6E7F00ACDB7D00EC2EFEED3FFFAC6D7D00C3EC9EED6480A7
:20323E008FF063F08095F050030232D67F00C3EF95DB5019EF256E24D9FDE43402FE8F828D
:20325E00758300E0FC8D828E83F00F80E1E5DB256EF56EE56DB56E477420B56D1C9002D94D
:20327E00E0FFBF03149002D9121E8BE582600A74F355D24408F5D2801C7402B56D1390020A
:20329E00D9E0FFBF010B9002DAE0F5821225FB800475DCCF22756D0075DD0075DC4822746F
:2032BE00F825DB4007756CFF75DC0F2263DC8074F055DC4402F5DC2275DD00E56D60077542
:2032DE006CFF75DC0F2275DC022220D90302334EE5D9540F6002802CAED95306307F00BE73
:2032FE000005BF00028013BE2005BF00028010BE303CBF0039122B9E8034123208802F1265
:20331E00317E802AAED953060F7F00BE0120BF001DE5D95430600280051225238010AED973
:20333E005306307F00BE2006BF0003122512C2D930D81A121E8412260275DC0275D21275AC
:20335E00E300C2DAC2D9C2D89002F9E4F010DA0122E5DA20E20375D8FF2275E20053E27FF2
:20337E0043E22975E30053E2BF53D1FB75D18043D1012243E10443E10243E10143D81FD2FA
:1E339E00EAD2AF227E007F008EEC8FED7E0A7F008EEE8FEF75D21275EAC075DC0222A3
:2033BC00ABF0A2AFE433FEC2AFE0A37A0833D2B44002C2B47905D9FEC2B4DAF1DBEBEE605F
:0433DC0002D2AF2248
:2033E000AF82BF800040012275A15575A1AA43B10475A1007585C0EF2FF5849002FAE0F50F
:203400008EE58630E60375869A75A15575A1AA53B1FB75A10022AF827585C0EF2FF58475AC
:06342000868E858E8222DB
:06007800E478FFF6D8FD5C
:200056007902E94400601B7A0190373978FB75A002E493F2A308B8000205A0D9F4DAF275E1
:02007600A0FFE9
:20342600C0D075D00808B8000D09B900090ABA00050BBB00010CD0D032A2AFC2AFA808A988
:2034460009AA0AAB0BAC0C92AF75F020E8A4A8F075F020E9A428F582A8F075F020EAA428CD
:20346600F583A8F075F020EBA428F9A8F075F020ECA42889F022AE82AF83C374019EE49FD6
:2034860040022200C374029EFE74009FFF00BE0005BF000200220000000000000000000035
:2034A600000000000000000EBE00EB0FBF00ED002275A15575A1AA74F855B94406F5B97560
:2034C600A10090138812347C759E5D759D0074F055894402F58953C9EF758C06C28DD2A9F4
:0534E600D28CD2AF22E0
:2034EC0074FE2581F8E68582F0A4C0E08582F018E6A4F582D0E025F0C58386F0A42583F5BB
:02350C00832218
:20007E007800E84400600A799475A000E4F309D8FC7867E84402600C7903900094E4F0A3EE
:04009E00D8FCD9FAB7
:0D00490075817312352AE5826003020046BE
:1C350E0020F71430F6148883A88220F507E6A88375830022E280F7E49322E022CC
:04352A007582002284
:00000001FF
