:200096007E007F017D007C004305098E828F838DF0EC0234747F00BF0900500FEF2400F51F
:2000B60082E43401F583E4F00F80EC020096E582FF7003F58222EFC4540FFF74014FF5826E
:2000D60022AF82789AE2FEBE030774015F04FF80028E078F8222201206789CE27001221209
:2000F60018C5858226789CE26006789CE2FE800885268212116FAE82EE0303543FFD53053D
:2001160003EEC4540FF5277896E2F5288E82C006C0051200D7858229D005D006789BE2F53F
:200136002A7898E2F52B789CE2601874015E04F529300116900113E0C4540FFE74035EF550
:200156002B8007E5297003F528FD7403B52A03752A027B007E01E52B24B3F530E43435F5FA
:20017600317403B52B0474018001E4F532740FB52703D38001C39202EDB40100B39203E401
:20019600BD030104F533BD0303D38001C3920474015528F534E4F535BD020104FD752C0061
:2001B60074FD252C500302009685273685292D3002123001058533378006A203E433F537E8
:2001D600E5377004C2058002D205A205E433F52E200153E528600EED604CE53445356046B7
:2001F600752D008041E52A6034E52C2487F9E7602C852C50852682C006C005C00312118E8E
:20021600AA82D003D005D0068A36BA0F08900110E0FA20E708852A2D752E00800985273619
:20023600200403752D00E52D7007F52FFCFA0202E2E52E6065E52C9035AD93FF85308285AD
:200256003183E4938FF0A42525F537E532600FE52C9035B093249EF9E7FF2537F53774ABDD
:200276002537400E7C00E53775F003A4F52FF4FA805A745625374011E53724ABFF7A0075DE
:20029600F003A4FCF4F52F8043E537FF245675F003A4FAF4FC752F008032C005E53675F0B4
:2002B60003A424D0FD743535F0FF8D828F83E493FA0DBD00010F8D828F83E493FC0DBD00F9
:2002D600010F8D828F83E493F52FD0057401B52D3B8A82C006C005C004C0031200C4AA82B5
:2002F600D003D0048C82C003C0021200C4AC82D002D003852F82C004C003C0021200C4852B
:20031600822FD002D003D004D005D0068B828E83ECF08B828E83A3EAF08B828E83A3A3E514
:200336002FF074032BFBE43EFE052C0201B6AF82E57D2FFFE57EFE2F2E2EFFC3EF957E4030
:2003560007EFC3957EFF80F38F8222AF82BF8000404EC201E538C454F0FE43060AEFC454D8
:2003760001B401009206E4334E789CF274EF5FFE247F789625E0F2BE8106789CE24404F2D1
:20039600BE8007789CE4F27896F21234F7AB82E583FCC313CB13CB747D2B7897F20200ECC0
:2003B600E538FE30E304EE24F0FE74015FF539BF0B00406B789AE2FC789BE225E025E0FB94
:2003D6004204BF0C347B00EB9035CB93B5040280060BBB050040F08B02BB05087A00EE2020
:2003F600E7027A048E7D757E058A82C007C004120344858238D004D007E5389035CB93F56E
:2004160038BF0D07ECB5380375380FAC3874035C789AF2EC0303543FFC789BF2020517BF05
:20043600092BC007C0061218C512116F1200D7AC82D006D007789BE2FBBB03027B02C3ECC4
:200456009B50028B04789AECF2789BECF2BF0A097C007B0475380F80107C027B04BF08004C
:200476005007EFC313FCFA04FBBF0304C3E49EFEC3EC9B4003020517AA38E5396058EC24D9
:2004960098F9E3F53A7D04BC0200402C7403FDB53A26753A02BC0220C007C006C005C004CA
:2004B600C0031218C512116F1200D785823AD003D004D005D006D0078E7D8D7E853A82C078
:2004D60007C006C004C003120344AA82D003D004D006D0078021BA0F1E7A03EC700C9001DB
:2004F60013E0C4540FFD74035DFABC010A900113E0FD23235403FAEC2498F8EAF20C020494
:2005160086BF02028008BF03028003BF0A0E1234F7AC82AD83AEF0FF789DA6040200ECAF42
:2005360082789CE230E1047896E4F2789CEFF2EFB401009207B39201EF701E20121B1200E0
:20055600AB90010174FFF01234F7AC82AD83900109ECF0EDA3F00200960200ECAF82789C89
:20057600E220E13E8F82C00712116FAE82D007EE0303543FFE5306037896E4F2BE01030448
:200596008001E4FD7003BE0219ED60067D067E00800C0FEF3395E0FCEF2FFDEC33FE7896CF
:2005B600EDF2AE3BE53CC313CE13CE747D2E7897F20200ECAE82AF837896E26011EFC31321
:2005D600CE13CEFF7897D3E29EF4FE30E701227896E214F27897E2FF7897747D2FF27896B4
:2005F600E2700A789CE230E104789CE4F20200EC1218921234F7AC82AD83AEF0FFC005C02D
:2006160004122A4ED004D0055038C005C0041234F7AA82AB83AEF0FFD004D005EAC39CFA5C
:20063600EB9DFBC3EA9464EB94005016C005C0041234F7122A601234F7121DD0D004D00550
:2006560080BB7E007F017D00BD0300501F8E828F83E4F08E828F83A314F08E828F83A3A378
:20067600E4F074032EFEE43FFF0D80DC12009675E200C2AF75890090C35012353490C35033
:2006960012353412380080FEAF82BF030AA2B3B39208E433F58222BF050AA2B2B39208E45F
:2006B60033FE8013EF9035A893FFE5905207EFB401009208E433FE8E8222A2B0E43325E0B1
:2006D600FFA2B1E4334FF58222AF82C00712069EAE82D007EF2480F98705EEB50502800DAF
:2006F600A706EF2FFD248EF8A63D08A63EEF2487F98705EEB5050122EF2F248EF88604085F
:200716008605E53DC39CFCE53E9DFDC3EC940AED9400405AA70630010E758200C007C00626
:20073600120535D006D00720120122EE6038BF031FC0071218C512116FAE82D007EE03545A
:2007560001FE24FF9200900109E53DF0E53EA3F0C007121D7BD0074012853D66853E678FF2
:20077600821218F480058F82121AFD0200EC221206D0AF827894E2B507012230010A7582DC
:2007960000C007120535D0077894E225E025E04F9035BB93FE7894EFF220120122EE70055C
:2007B6007895E4F2227895E22EF27895C3E26480948440127895E4F2121D7B400675820144
:2007D600121BA40200EC7895C3E2F5F0747C63F08095F040127895E4F2121D7B4006758249
:2007F60000121BA40200EC22789CE230E104789CE4F21234F7AC82AD838C06EDC4CEC45449
:200816000F6ECE540FCE6ECE8E82C005C004121C09D004D005900113E0C4540FFF74035F11
:200836007898F2900113E0232354037899F2789B7403F2789AF27F00EF24FC4035EF248066
:20085600F9EF2487F88F82C007C005C004C001C00012069EAE82D000D001D004D005D0070E
:20087600A606A706EF2FFE248EF8A60408A6050F80C6C005C0041206D0E582D004D0057898
:2008960094F220120B789CE27005F58202053522C005C0041218927895E4F21218C5E582C1
:2008B600D004D005789CF6C2007896E4F2789DA604F5257F00BF03005009EF249EF8760037
:2008D6000F80F29002E5E0600B8C3B8D3C789C86820205720200EC12211C4390C24392C231
:2008F6004393C243B00B740B459654EFF59643971B1200AB1207FE12276A75820312069E08
:20091600E5826003020606221234F7AC82AD83C005C004122A60D004D0058C828D83C0057B
:20093600C004122540D004D00530121C8C06EDC4CEC4540F6ECE540FCE6ECE8E82C005C0E9
:2009560004121D65D004D0057F00EF24FC40188C3D8D3E8F82C007C005C0041206DFD0049A
:20097600D005D0070F80E3C005C004120785D004D0058C07789DEFC396FE789CE2600B9094
:200996000113E023235403FB80047899E2FBEB9035B793FBC3EE9B5003020A38789CE26015
:2009B60013789CE2FE30E3068E037E00802D7B007E00802730121BC007C005C0041218C509
:2009D60012116FAA82D004D005D0078A3F7540008005E4F53FF540AB3FAE405303FC7E00CB
:2009F600C374F09B74808EF063F08095F05033789DA60705257F037E00BE03005019EF5578
:200A1600257008EE249EF9E7FB04F78F03EB2BFB74014BFF0E80E2C005C0041200ECD00470
:200A3600D005201230789CE2702A900109E0FEA3E0FFECC39EFEED9FFFC3EE94F4EF94014C
:200A56004012900109ECF0EDA3F0900101E064FFF0020096228C828D83C005C004121DD013
:200A76001218C9E582D004D0057015C005C0041218C5AF82D004D005789CE6B507028054FA
:200A9600C005C0041218C5AF82D004D005789CE6B507028026789CE230E104789CE4F2C0DB
:200AB60005C0041218C5E582789CF61206D0E582D004D0057894F27895E4F2789CE220E127
:200AD600138C3B8D3C789C8682C005C004120572D004D0058C828D83C005C0041205CAD02E
:200AF60004D005300020788AE6601B900109E0FEA3E0FFECC39EFCED9FFDC3EC94B8ED940C
:070B16000B4003020606225A
:2035A800028040201000010200020100152A6D04060A1200FF0100010000FFFF0000010039
:0835C80001FF000F0D050400D6
:200B1E00AF827E007D00C3ED9F500EE57EC39DFC1C8E03EC2BFE0D80EDE57D2EC39F14F5E8
:200B3E008222AE82AF837CFF7DFF7B00BB06028036BB07028031EB2EF582E43FF583E0FA2C
:200B5E00E4F96204EA62057A088D01530180EC2CFCED33FDE9600E8C008D01630021630175
:200B7E001088048905DAE20BBB800040BF8C828D8322E582FF7002D3221F1F1F1FEF249EF2
:200B9E004002D322EF249C24F49209B322AE82AF83E5412EF582E43FF583E0FD740F5DFC48
:200BBE00EDC4540FFDAA417B000ABA00010BEA2EF582EB3FF583E0FBEC24F05003020D9EC4
:200BDE00EC240A83F582EC241483F583E473309090AF9EB6B6D91A1A6D8872FAFA0C0D0CD7
:200BFE000C0C0D0C0C0C0D0D0D0D0C0C0C0CBB80004013BB8005EDB401002274EF5B247F37
:200C1E0024F7920AB322EB24F25002C322BB0A05EDB4010022BB0D07ED14FABA040022BBFF
:200C3E000B07ED24FB920AB322EB20E003BB0C0C8D015301077A00E94A24FF22BD0F02D3CA
:200C5E0022BB04005007ED24FC920AB322ED24FD920AB322ED24FE920A400EEB24F9920AA4
:200C7E00500BBBFA00920A5004C20A8002D20AA20A22E543600BBC0203D38001C3920A4017
:200C9E00078B82120B904004C20A8002D20AA20A228B021ABA070022E543600BBC0503D385
:200CBE008001C3920A400BED70088B021ABA07004004C20A8002D20AA20A22E5432543252D
:200CDE00E0FA74034A5D700BBB8003D38001C3920A5004C20A8002D20AA20A22AA437402E3
:200CFE00C39AFAC3ED9A500BBB8003D38001C3920A5004C20A8002D20AA20A22E543600312
:200D1E00BC0806ED7007EB7004C20A8002D20AA20A22ED7005EBB4010022BD0106C3EB9505
:200D3E00454002C322EB6022AA447C008B007900E82AFAE93CFC1ABAFF011CEA2EF582ECB6
:200D5E003FF583E06004C20A8002D20AA20A22ED24FE920A400BC3EB95424009BBFF028082
:200D7E0004C20A8002D20AA20A22ED700AC3EB95425004E5436004C20A8002D20AA20A2295
:200D9E00C3228582478583487D007401B546028002C322E54624FE4045854782854883E00C
:200DBE00FCBC4D3A854782854883A3E0FCBC502E854782854883A3A3E0FCBC0A218547828A
:200DDE00854883A3A3A3A3A3E0FCFA5302017B00AE467F00EAB50606EBB507028002C322A1
:200DFE00854782854883A3A3A3E0FFFE74075E04F549EFC423541FFB5303077A0085494E1F
:200E1E008A4FC3EB954EEA6480854FF063F08095F0400122E54924F85002C322ECC313FCBE
:200E3E00743F5CF54AEF23235403FF854782854883A3A3A3A3E0FB23540125E025E04207EB
:200E5E00EF24FB5002C322747F5BF54CE54975F00FA42409FCE435F0FAE54A75F003A47E75
:200E7E00002CFCEE3AFAEF75F006A47B002CFCEB3AFAAB4C7E00EB2CFCEE3AFE8C028E037D
:200E9E00C374809AE49B5002C322ECC3954CF54B7C00C3EC9549506DEC75F00FA42409FB6B
:200EBE007A00C0038A037E00C3EB9406EE64809480D003504DC0058A06EE2E8B052DF541CA
:200EDE008A057E00C3ED9404EE64809480B3920BE433F543854942854B44854C4585478292
:200EFE00854883C007C005C004C003C002120BABD002D003D004D005D007D0054001220A80
:200F1E0080A00C808DE54975F00FA4FE2409F54D7C00C3EC954A507BE54D2547F582E435C4
:200F3E0048F583E0FBC4540FFA5302077E00C3EA954EEE6480854FF063F08095F050478B5D
:200F5E000253020F7E00C3EA9403EE648094805035EC6005C3ED9B502DE54DFE04F54185D8
:200F7E004942754300854B44854C45854782854883C007C006C004C003120BABD003D004C5
:200F9E00D006D0074002C3228B0574032EF54D0C020F307E00C3EE9F400302103AAC4D7DC8
:200FBE000074052CFCE43DFDEC2547F582ED3548F583E05407FC6008C3E5499C5002C32240
:200FDE00E54DFD04F541854942754301854B44854C45854782854883C007C006C005120B8A
:200FFE00ABD005D006D00740012274032DF541854942754301854B44854C4585478285485B
:20101E0083C007C006C005120BABD005D006D0074001220E74062DF54D020FB3E54C6024C0
:20103E00AE4B7F00AB4C7D00EB2EFEED3FFF1EBEFF011FEE2547FEEF3548FF8E828F83E0A4
:20105E006002C3227F00C3EF954C40030210F7AD4B7E008F037C00C007EB2DFAEC3EFFEA5D
:20107E002547FAEF3548FF8A828F83E0D0076065C007EB2DFAEC3EFFEA2547F582EF3548AC
:20109E00F583E0FFBF0904D007804AEB2DFAEC3EFFEA2547F582EF3548F583E0FFBF0A04D6
:2010BE00D0078031EB2DFAEC3EFFEA2547F582EF3548F583E0FFBF2000D0074016EB2DFD9E
:2010DE00EC3EFEED2547F582EE3548F583E0FE24815002C3220F0210648547828548831228
:2010FE000B40AE82AF83854782854883A3A3A3A3A3A3E0FD8E04B50416854782854883A336
:20111E00A3A3A3A3A3A3E0FD8F06B506028004C20B8002D20BA20B2290010EE0FF74075FD9
:20113E0004F5822290010EE0C423541FFF74075FF5822275820322900113E0FF740F5F75B3
:20115E00F005A4F58222E58275F00FA42409F58222E58204F582121164AF827E001FBFFF05
:20117E00011EEF240BF582EE3401F583E0F58222AF82C007121151AE82C006121136AD829F
:20119E00D006D007C3EF9D5006C3E5509E4004758206228F82C006121164AF82D006E4FDA0
:2011BE00FC74032EFEE43CFCEE2EFEEC33FCEE2FFFEC3DFDE550C3137C002FFFEC3DFDEF15
:2011DE00240BF582ED3401F583E0FFE55030E009EFC4540FFD7E0080087C00740F5FFD7E92
:2011FE00008D8222AF82C007121136AE82D007C3EF9E5025C007121151AE82D0077D007450
:20121E00032EFEE43DFDAB517C00C3EB9EEC64808DF063F08095F0400BE552F87600E553D2
:20123E00F87600228F82121164AF82E55125512FFEA952240BF582E43401F583E0F7A95359
:20125E007F000EBE00010FEE240BF582EF3401F583E0F722AF82C007121151AE82900110AF
:20127E00E0C313FD743F5DF558C006121136121164AC82D006D007E555B554028022C3E530
:20129E00549E501CC3E5559E5016C007C006C004121136AB82D004D006D007C3EF9B4002EA
:2012BE00C322C3E55595545007AB548555548B55EFC454F0FF85557D8E7E855482C007C0A6
:2012DE0004120B1EAE82D004D007EE4207755900C3E55995585062EC240BF582E43401F591
:2012FE0083E0FBB50702801753038F7A008F0553050F7E00430580EBB50534EAB50630A926
:20131E00568C057E0074012DFAE43EFBEA240BF582EB3401F583E0F7A95774022DFDE43ED0
:20133E00FEED240BF582EE3401F583E0F7D32205598C0674032EFC8097C32290010EE02368
:20135E00235403FF90010FE023540125E025E04FF58222121136121164AF82900110E0C3B7
:20137E0013FE743F5E75F003A42FF58222AF8290018BE02FFEC39F401D90010FE0FF530767
:20139E007F7D008E047E00C3EC9FEE64808DF063F08095F0400475820022C006C004121322
:2013BE0071AF82D004D006C007C006C004121359AD82D004D006D007ED75F006A42FFD7F9D
:1513DE0000EC2DFCEE3FFEEC240BF582EE3401F583E0F5822214
:2035D000FF0000FF1607FF1000FF4200FF7C003CFF0064C8141D7B4300FFC8005BFF00007E
:1035F000FF7300B4FF00C2FF0048FFFFFF000000A0
:2013F400AF827408B55A02800FE57E30E02FAE5AC3EE648094814025E57E30E01078EDE209
:20141400B4FF02801678EDE22401F2800E78ECE2B4FF02800678ECE22401F2C32278EAE27A
:2014340025E024DAF9EFF378EAE225E024DA04F9E57DF378EAE20478EA5407F2055AD322D6
:201454007F007E00EE24B9F9E3FD42070EBE0D0040F27E00EE24ABF9E36014EE249DF9E36D
:20147400FD53050FBD0508EE24A4F9E3FD42070EBE070040DFE561600578F2E242078F820F
:2014940022AF82C007121454AE82D007BF0D09E562FC3395E0FD80047C007D00BF0E09E5A8
:2014B40062FD3395E0FF80047D007F008D1A8C19751B008E820229D5E582FF7002D3227E5B
:2014D40002EE248CFCE43401FD8C828D83E0FBB50702D322EB70088C828D83EFF0D3220E37
:2014F400BE080040DC227F007E00EE248CF582E43401F583E4F00EBE080040EE7E00EE24CB
:20151400ABF9E3602FEE249DF9E3FD740F5DFCBC022290018CE0FCEDC4540F420490018CED
:20153400ECF0EE24A4F9E3F582C007C0061214CCD006D0070EBE070040C478F37401F2E5F8
:2015540061603378F0E2540FFEBE012A78F1E2F582C0071214CCD007920CE433FE78F3F28D
:20157400EE601390018CE0FE78F0E2C4540FFD420690018CEEF07E00EE248CF582E434019E
:20159400F583E0FDEE24C6F9E3FCEDB5040280027F010EBE080040E0EF602290018C1229CB
:2015B400564001227F00EF24C6F9EF248CF582E43401F583E0FEF30FBF080040E91214541C
:2015D400AF8278A1E6B507028019751900751A00751B008F82C0071229D5D0074001227829
:2015F400A1A60778AAE6602B78AAE6C4540FFE7F0078AB86047D00EC4FF582ED4EF58312A9
:201614002A3D40012278AA760078ACE6700578FB7401F2D322AF82AE5B74F725655004AED5
:201634005D801874FFB55E028011855E5B755EFFC007C00612177AD006D007740F5FFDFCC0
:2016540024F05003021742EC240A83F582EC241483F583E47395424D42424DDF42A4A415B7
:20167400D9EB42428916171717171716171616171616171716EFC4540FF53885638202036A
:2016940061EF70012285637D85647E8F820213F478AAA607E56378ABF6EF30E00678FBE4E1
:2016B400F2800A78ACE6600578FB7401F2EF30E00BAD650DEDFC3395E0FD80047C007D001D
:2016D40078ACA6042278EE7401F222E56524B9F9E3FDE5636DF322C007C006121136AD8238
:2016F400D006D007E5632EFE8D04ECC40354F8FC2EF563C3E5639D4008E563C39DF5638033
:20171400F274FFB56303855C6378EE7401F2EF30E405855B5E801374FFB55E04AE5B800236
:20173400AE5EEEB5630280028E5C85635B2285637D85647E8F820213F42278D5E2700122E6
:2017540078D5E2FF1F78D5E4F2EF24ABF87401F2EF249DF9E3F582EF24A4F9E3F563756421
:20177400008F65021629AF5B7E007D00ED24ABF9E3601EED249DF9E3FC53040FBC0B12ED53
:2017940024B2F9E3FCC39E40088C06ED24A4F9E3FF0DBD070040D5EFB55D01228F5D121D97
:2017B400817F00EF24B9F8E4F20FBF0D0040F4755A0078EAE4F278EBF278ACE6701378AA61
:2017D400E6700578FBE2600978AA760078FB7401F2755F0075600075610078F2E4F2121782
:2017F4004E02177A12114285825B855B5C855B5D78EEE4F2755EFF78D5F278CEF278ECF2D9
:2018140078EDF27F00EF24CFF8E4F20FBF060040F478EAE4F278EBF2F55AF55FF56078FB2E
:20183400F278AA760078AC760078FEF278AD7600F56178F2F278A176001228A7E58278D993
:20185400F27F00EF24ABF8E4F2EF24B2F8EFF2EF249DF8E4F2EF24A4F8E4F20FBF070040C1
:20187400E27F00EF24B9F8E4F20FBF0D0040F47F00EF24C6F8E4F20FBF080040F4221228BE
:20189400AE1217F878C674FFF278A176FF900000122A3DB3920D78FBA20DE433F20214FA9E
:2018B400E582600678EDE2FF800478ECE2FF8F8222855D822278EEE2F58278EEE4F222E57D
:2018D4008224B2F9E3FF7E00EE24B2F8E2FDC3EF9D5003ED14F20EBE070040EC7406F32285
:2018F40085826812115185826CC3E56C956840238568F005F07C017D008006EC2CFCED3384
:20191400FDD5F0F778CEE2FA7B005204EB5205EC4D600122AD688DF005F07401800225E086
:20193400D5F0FBFC78CEE24CF2C3E568956CE433FC6009E56824CFF9E360012278D5E270A6
:2019540003021A24EC700874FFB55E03021A2478D5E2FB14F56BEC7003021A1678D7D3E2D0
:201974009566F4B3FAB308E29567F4FEC006C005C004C002121155AB82D002D004D005D02B
:20199400067F00C3EA9BEE9F507875566975576A856B5485685578D6E2F582C005C00412DF
:2019B4001272D004D005505A78D5E4F2E56B24CFF9ED04F3E56824CFF9E56B04F3E56B2405
:2019D4009DF8E569F2E56B24A4F8E56AF2E568249DF8E4F2E56824A4F8E4F2E56824ABF8FA
:2019F400E4F2E56B24ABF87401F2856B821218D3856A63756400856B6585698212162902CD
:201A1400177AC005C00412174E12177AD004D00575526975536A856851855D82C005C00448
:201A3400121202E568249DF9E569F3E56824A4F8E56AF2856882C001C0001218D3D000D049
:201A540001D004D005EC6057C005C001C000121155E582D000D001D00560447F00C3EF9520
:201A74006C503C75566975576A8568548F55855D82C007C005C001C000121272D000D00123
:201A9400D005D007501678D5ED04F2E55D78D6F2AC66AE6778D7ECF2EE08F2220F80BEE5DE
:201AB4006824ABC000F87401F2D000E3F582E2F56375640085686512162902177AE582FFE3
:201AD400249DF9E3FE53060FEF24ABF9E36019BE02028008BE05028003BE09067E027F007E
:201AF40080047E007F00EEF322AF82C007121151AE82D007C3EE9F5001228F068EF005F010
:201B14007401800225E0D5F0FBFE78FAF278CEE25E700122EEF4FE78CEE25EF28F057E0010
:201B34000DBD00010E78D5E27C00B5050EECB5060AC00712174E12177AD0078F82C00712F2
:201B54001AD1121151AE82D007C3EF9E503FEF24CFF9E3FF60371F8F82C007C001121AD123
:201B7400D001D0078FF005F07D017E008006ED2DFDEE33FED5F0F778CEE2FB7C005205ECDF
:201B94005206ED4E7007F3EF24CFF8E4F202177AAF82C007121151AE82D007EF60067C01AC
:201BB4007D0080047C027D00EC2EFE78D5E2601574FFB55E02800EC007C00612174E121716
:201BD4007AD006D00775526D75536E8E51855D82C007121202D007EF60067E077F0080047C
:201BF4007E087F008E65856E63756401856D8212162902177AAF8278F9EFF27F00BF04008C
:201C1400501BEF24F5F8E4F2EF24A2F87600EF24A6F87600EF24AEF876000F80E02285825E
:201C34006F121371858270C20E7D00C005121359AC82D005C3ED9C4003021D62ED24F5F972
:201C5400E3F5717B00AA707F0074052AFAE43FFFEA240BF582EF3401F583E0F572E56F602D
:201C740079E57254076019AA725302077C00AE5D0E7F00EAB50606ECB507028003021D57D2
:201C9400ED24A6F98707E56F2FFFF7C3EF956F4003021D57E570240BF582E43401F583E09E
:201CB400FFB57124ED24A2F98707AC72530438E4FEFAEFB50412EAB5060EE4F571F7ED2445
:201CD400AEF876017B0180380571E5717032ED24A2F9870774082FF78026ED24AEF9E760B0
:201CF400097B03E57230E602D20E7700E57230E70F757100ED24A2F87600ED24A6F87600DA
:201D1400ED24F5F8E571F2EB6039E5702BFB240BF582E43401F583E0FF7E000BBB00010E01
:201D3400EB240BF582EE3401F583E0F5638D0674092EF5657564008F82C00512162912176A
:201D54007AD0050DAE7074062EF570021C3FA20E22AF8278F9D3E29FF4FE78F9EFF2EE6031
:201D7400058E82021C3222758200021C32121371AF827E00C007C006121359AD82D006D05C
:201D940007C3EE9D50358F047D0074052CFCE43DFDEC240BF582ED3401F583E054076012AD
:201DB400EE24F5F8E4F2EE24A2F87600EE24A6F876000E8F0574062DFF80B9228582738550
:201DD400837478D5E2602C78D7D3E29573F4B3FCB308E29574F4FDC005C004121155AB82C9
:201DF400D004D0057A00C3EC9BED9A400612174E12177A1228A7AD8278D9E2B50502802BD1
:201E14001228A7E58278D9F278C674FFF278A176FF78ACE6601578AC86051DED249DF97888
:201E3400AAE3F6ED24A4F978ABE3F678FBE2600F900000122A3D500678FBE4F28001221240
:201E540014FA400122E55F701BE55A7017122A4E920F4010AD7378FED3E29DF4FDBD08004F
:201E7400920F5004C20F8002D20FA20FE433FD600578FEE573F27C00EC24ABF9E3FBBB0270
:201E940046EC249DF9E3FA53020FBA0220EC24A4F9E3FA60187F02EF24C6F9E3FEB5020236
:201EB40080060FBF080040EFBF080280708C070F78ACE6B5070978AC760078FB7401F2ECF9
:201ED40024ABF8E4F28056ED6053EB6050EC249DF9E3FF24E324FE4019740F5FF582EC24CD
:201EF400A4F9E3F562C005C004121495D004D005802B747F5FFEBE4724AE7378ADEEC39659
:201F1400FEBE64004017EC24A4F9E3F57D757E008F82C005C0041213F4D004D0050CBC0716
:201F3400005003021E8C1214FA400122E55F7027E55A602378EBE225E024DAF9E3F55F09ED
:201F540078EFE3F278EBE2FF0478EB5407F2155A75600078F4E4F2E55F700122E55F540F35
:201F7400FFE5606003022078C007122A4ED007500122BF075C78EFE2FE7003F55F22C00659
:201F9400121454AD82D006E55F54804205EE33E433FC60067AFF7BFF80047A017B008A1BA3
:201FB400751900751A008D82C006C0041229D5D004D006400122EC6005EE04FD8003EE1475
:201FD400FD78EFEDF2ED60012278ADA673755F0022BF0D028003BF0E1678EFE2F5628F8221
:201FF40012149540012278FEE573F2755F0022E55F78F0F278EFE2FE78F1F278F2E4F2EF8A
:20201400703778F490018BE2F08E8212138BE582FD7003F55F228D82122C18E582FD30E7BE
:20203400067B207C0080047B007C0078F074014BF278F1747F5DF28007BF0304EE78F2F298
:202054007561011214FA500578F3E2700122AD73AE7474082DFDE43EFE78FCEDF2EE08F2FD
:20207400756001227401B5602378FCD3E29573F408E29574F430E70122122A4E50012275EF
:2020940061001214FA400122756002227402B56040C007122A4ED007500122EF700A78F414
:2020B400E22401F275600022BF0322E55F54F0601CE55F24F0F55FAE73AF7474C82EFEE4F8
:2020D4003FFF78FCEEF2EF08F275600322755F00227403B5603078FCD3E29573F4B3FEB33C
:2020F40008E29574F4FF20E71D7561011214FA5015AE73AF7474082EFEE43FFF78FCEEF204
:07211400EF08F275600122E3
:20211C007F00EF240BFDE43401FE8F82C007C006C00512261CAC82D005D006D0078D828EEE
:20213C0083ECF00FBF800040D975460190010B120DA09211921278FFE4F2900254F0C2106A
:20215C0022D21022AE82AF8378FFE27003301002C3227D00ED2494FBE43401FCED2EF58224
:20217C00E43FF583E08B828C83F00DBD200040E478FF7401F2D322900198E0FF90019AE0C8
:20219C00F51090019BE0F511900194E0FCBC0316900195E0FCBC550E900196E0FCBC4D0603
:2021BC0090019CE0600475820422900197E0FCBC0102800475820122E51124E850047582C7
:2021DC000322BF05028003BF0606AB117C0080047B007C0074092BFCBC20005016EC24946D
:2021FC00FAE43401FB8A828B83E06004758204220C80E5E4BF030104FC7008BF0402800362
:20221C00BF061EE5116016AA117B00A8107900EA28F8EB39F9C3748098E49950317582037E
:20223C0022E5106003BF0922BF05117403B51103D38001C3B39213E433FB800BE511B40152
:20225C0000B39213E433FBEB600475820322EF24F65003022538EF240A83F582EF240E8317
:20227C00F583E4733894C21F1F84B7783112252222232323232425259001BB740EF07F0011
:20229C008F0374092BFB3395E0FAEB24B4FBEA3401FAEF90360093F98B828A83F00FBF0E4D
:2022BC000040DD02253C9001BB7406F0A211E4339001BDF03012091218C5AB827F0080045A
:2022DC007B007F009001BEEBF0301209121142AB827F0080047B007F009001BFEBF0900227
:2022FC0054E09001C0F07582001218B4AF829001C1EFF07582011218B4AF829001C2EFF0DD
:20231C0002253C9001BBE511F0751200C3E5129511400302253CAB1274092BFB3395E0FA7D
:20233C00EB24B4FBEA3401FAEC6019E5122510F582C004C003C00212261CA982D002D00335
:20235C00D004801AA8107F00AD127E00ED28F8EE3FFFE8240BF582EF3401F583E0F98B8236
:20237C008A83E9F0051280A490019DE0FFBF800280047582032290019EE0FF90019FE0FD17
:20239C007E007C00900256EE4FF0ED4CA3F0900255E4F090025404F002253C900254E0FF89
:2023BC00BF0102800475820522900255E0FFB510028063AD117E00AB107C00ED2BFBEE3C7D
:2023DC00FC7E00C3EF9BEE9C500475820A227F00C3EF9511400302253CAD107E008F037C53
:2023FC0000EB2DFDEC3EFEED24D4F582EE3401F583E0FE8F0574092DFD3395E0FCED24942B
:20241C00F582EC3401F583E0FDEEB50502800475820A220F80BA7F00C3EF95115034AD1001
:20243C007E008F037C00EB2DFDEC3EFEED24D4FDEE3401FE8F0474092CFC3395E0FBEC24C9
:20245C0094F582EB3401F583E0FC8D828E83F00F80C6900255E02511F002253C900254E066
:20247C00FFBF020302253CBF010A900255E0FFBF80028004758205229001D4120B40AE82B5
:20249C00AF83900256E0FCA3E0FDEEB5041AEFB505169001DAE0FD8E04B5040C9001DBE03F
:2024BC00FD8F06B506028004758207227546019001D4120DA04004758206229001D412262D
:2024DC008A92114004758209227F00EF240BFDE43401FEEF24D4F582E43401F583E08D82BE
:2024FC008E83F00FBF800040E2D2121207FE9002547402F0802AE5106013AE105306067F5A
:20251C0000BE0405BF0002800475820322851082120535800B900254E4F080047582022230
:20253C0075820022AE82AF83301010900254E4F078FFF21207FEC21002282C900254E0602C
:20255C001D900258E0FCA3E0FDEEC39CFCEF9DFDC3EC9488ED94134005900254E4F078FF55
:20257C00E270012278FFE2B4010280030226087D00ED24B4F582E43401F583E4F00DBD20FF
:20259C000040EE9001B47404F09001B57455F09001B6744DF09001B77401F07D04ED24B45A
:2025BC00FBE43401FCED2494F582E43401F583E08B828C83F00DBD070040E2C007C00612C4
:2025DC002193AD82D006D0079001BCEDF0ED7017900198E0FDBD0500400DED24F7400890BC
:1F25FC000258EEF0EFA3F078FF7402F220100F9001B41227BF500778FFE4F202282C228F
:0E360000554D4143010A010303078003EFFF0C
:20261C000234CEAF82C00712261CAE82D007EEB513028019A2AF9214C2AF9002E6E513F02E
:20263C008F82C007123498D007A21492AF8F8212261CE582B51302D322C322AE82AF837DAB
:20265C00008D82C007C006C00512261CAC82D005D006D007ED2EF582E43FF583E0FBECB550
:20267C0003028002C3220DBD800040D5D322AE82AF83C007C006122657D006D0075002D32E
:20269C0022751300758200C007C00612261FD006D0075013751300758201C007C006122644
:2026BC001FD006D0074002C3227D02ED2EF582E43FF583E0F5138D82C007C006C0051226DE
:2026DC001FD005D006D0074001220DBD800040DB751350758201C007C00612261FD006D01B
:1F26FC0007501375134D758200C007C00612261FD006D0074002C3228E828F8302265730
:04000000020049327F
:03000B000234DEDE
:0100130032BA
:01001B0032B2
:0100230032AA
:01002B0032A2
:01003300329A
:01003B003292
:0300430002271C75
:0E0080007808E4F608F608F608F6780C760024
:0300920002004623
:0300460002275B33
:20271C00C024C0E0C0F0C082C083C007C006C005C004C003C002C001C000C0D075D00012E1
:20273C00339FD0D0D000D001D002D003D004D005D006D007D083D082D0F0D0E0D024321222
:0E275C00356F1208ED12091E80FB75820022F7
:20276A0012342F12345912344875DD0075D3002275D30074FC55D24402F5D2C2152230DEFE
:20278A00337402B5DB1190000AE0FFBF010990000BE090025AF0227420B5DB1890000AE074
:2027AA00FFBF031090000A122160500874F355D24408F5D222D310AF01C3C0D0AE82AF83AE
:2027CA00D2169002E5E060192015169002ADE0600330170DACD25304037D00BC0306BD003F
:2027EA0003C380377D008D037C0074402BFBE43CFCEB240AFBEC3400FCED2EF582E43FF5F9
:20280A0083E0FA8B828C83F00DBD200040D8C216C21775D320D21553D2FCD333D0D092AF3B
:20282A001322D310AF01C3C0D0AED253060C7F00BE0C05BF0002800353D2F3D0D092AF22E1
:20284A00E58290025AF0229002AFE4F09002B0F09002B1F09002B2F09002B3F09002B8F0EC
:20286A00A3F09002B6F0A3F09002B4F0A3F07F00EF24BAF582E43402F583E4F00FBF080028
:20288A0040EE9002C2E4F09002C3F0A3F0C2159002AEE02401F0C216C2170228AE9002AE2B
:2028AA00E0F58222D310AF01C3C0D09002ADE4F09002ABF09002ACF0D0D092AF22AF82907D
:2028CA0002ABE024A3F582E43402F583EFF09002ABE0FF0F74075FF09002ADE02401F0D3B6
:2028EA00228582148583159002ADE0FDBD080280069002E5E07002C3229002ABE075F009D2
:20290A00A4245BFC740235F0FD8C828D837401F00CBC00010D7B00EB2514F9E43515FA8954
:20292A00828A83E08C828D83F0A3AC82AD83EB24BAF8E43402FF89828A83E088828F83F031
:20294A000BBB080040D17582090228C7D310AF01C3C0D01228EB33D0D092AF1322AF829088
:20296A0002ADE0FEBE080280069002E5E07002C32274075FFE9002C2F0EF30E70CE5180396
:20298A000354C0FD4EFF7518009002ABE075F009A4245BFD740235F0FE8D828E837402F075
:2029AA008D828E83A3EFF08D828E83A3A3E516F08D828E83A3A3A3E517F08D828E83A3A3BF
:2029CA00A3A3E518F07582050228C7D310AF01C3C0D0851916851A17851B1812296733D020
:2029EA00D092AF1322AE82AF839002ADE0FDBD080280069002E5E07002C3229002C3EEF0DB
:202A0A00EFA3F09002ABE075F009A4245BFC740235F0FD8C828D837405F08C828D83A38E12
:202A2A0003EBF08C828D83A3A38F06EEF07582030228C7D310AF01C3C0D01229EF33D0D009
:202A4A0092AF13229002ADE07007201504C2188002D218A21822D310AF01C3C0D0AE82AF40
:202A6A00839002ADE06003022B559002B3E0FD0D751C00BD01079002AFE0FB8011BD0207CD
:202A8A009002B1E0FA80059002B2E0FA8A03BD010A9002B4E0F9A3E0FA8019BD020A900287
:202AAA00B6E0F8A3E0FC80089002B8E0F8A3E0FC88018C028904EB7003022B42EEC39CFC1C
:202ACA00EF9AFA8B017B00E929F9EB33FBE929F9EB33FBC3EC99EA9B405EBD03067B007CF2
:202AEA000080048D037C009002B3EBF0BD01109002BAC007C0061228EBD006D007804CBD1A
:202B0A00021D9002C2E0FC7516007517007518008C82C007C006122967D006D007802C9092
:202B2A0002C3E0FBA3E0FC8B828C83C007C0061229EFD006D00780130DED24FC50027D016F
:202B4A00051C74FD251C4003022A7D9002E5E0601C2015199002ADE0601330160320170D6C
:202B6A00ACD25304037D00BC0306BD0003022C139002ACE0FD75F009A4245BFB740235F0EE
:202B8A00FC8B828C83E0F51DED24A3F582E43402F583E0F51E7900C3E9951E502789007A1F
:202BAA0000744028F8E43AFAE8240AF8EA3400FA8B828C83E0FDA3AB82AC8388828A83EDFD
:202BCA00F00980D37401B51D0A9002B4EEF0EFA3F0801C7402B51D0A9002B6EEF0EFA3F012
:202BEA00800D7405B51D089002B8EEF0EFA3F0D217851ED39002ACE0FF0F74075FF090025A
:202C0A00ADE014F0D21553D2FCD0D092AF22AF82BF8000400475820022EF90360E93F58274
:202C2A0022E582FF7017AE7D9002B0EEF09002B2EEF09002B1EEF09002AFEEF022BF0107E5
:202C4A009002AFE57DF022BF02079002B1E57DF022BF05069002B2E57DF022E582FF7007D7
:202C6A009002B0E0F58222BF01079002AFE0F58222BF02079002B1E0F58222BF050790022D
:202C8A00B2E0F5822275820022AF82AD7EAE7F8D828E83EFF0BF0143E57D601474012DFBE8
:202CAA00E43EFC90025AE08B828C83F0758202227C008C027B000ABA00010BEA2DFAEB3E6A
:202CCA00FBEC24BAF582E43402F583E08A828B83F00CBC080040DB75820922E57D7039BF5B
:202CEA00023674012DFBE43EFC9002C2E08B828C83F074022DFBE43EFC74032DF9E43EFA22
:202D0A008D828E83A3A3A3A3E4F089828A83F08B828C83F075820522E57D702FBF052C7492
:202D2A00012DFCE43EFF9002C3E0FAA3E08C828F83EAF074022DFDE43EFE9002C3E0A3E01A
:0F2D4A00FC8D828E83ECF075820322758200224D
:20360E0000000000000000002A2B280000000000000000000000000000000000000000001F
:20362E002C9EB4A0A1A2A434A6A7A5AE362D3738271E1F20212223242526B333B62EB7B83F
:20364E009F8485868788898A8B8C8D8E8F909192939495969798999A9B9C9D2F3130A3AD30
:20366E00350405060708090A0B0C0D0E0F101112131415161718191A1B1C1DAFB1B0B50095
:20368E00120110010000000809125DC500010102030105010906A1018501050719E029E759
:2036AE0015002501950875018102950175088103950626FF00190029E781000508190129DA
:2036CE000515002501950575019102950175039103C005010902A1010901A10085020509A4
:2036EE001901290325019503750181029501750381030B38020C0015FF75028106050109BB
:20370E0030093109381581257F750895038106C0C00600FF0901A10185030902150026FF1C
:20372E00007508951F910285040903951F8102C0050C0901A1018505150026FF0F19002A58
:20374E00FF0F751095018100C009022900010100806409040000020300000009211001008A
:20376E000122B7000705810320000A0705010320000A040309041C03430048003500350045
:20378E00780020006B006200640020006D006F007300260355006E00690076006500720041
:2037AE00730061006C0020004D006100630072006F007000610064000E0344006500710049
:0637CE0069006E006700B7
:03008E00757C007E
:202D5A00C3E5759408921940067E087F008004AE757F007F00C3EF9E502C8F047D00E57BC9
:202D7A00600A857982857A83E0FB8009857982857A83E493FB8C828D83EBF00579E4B5796C
:202D9A0002057A0F80CFE575C39EF5758E8222AFDB7E008E778E7BBF08028003023241907C
:202DBA000007E060067DFF7F008008900006E0FCFD7F008D757F00900001E0F5768F7C9043
:202DDA000000E0FD54607003022F67900000E0FD5305607C00BD2005BC00028010BD40056A
:202DFA00BC00028003022F627FFF023243900004E07006900005E060057FFF0232437409BA
:202E1A00B57635900000E0FDBD212D900003E0FDBD0225900002E0FDBD03077420B5750276
:202E3A00800D900002E0FDBD010E7402B57509857577757800023243740AB5764F900000AA
:202E5A00E0FDBD2147E5757043900002E0601C900002E0FDBD01028012900002E0FDBD026C
:202E7A00028008900002E0FDBD05219002E5E0601B900002E0FD900003E0F57D8D82C00760
:202E9A00C006122C2BD006D0070232437402B57654900000E0FDBDA14C900002E0601C903B
:202EBA000002E0FDBD01028012900002E0FDBD02028008900002E0FDBD052A900003E070D1
:202EDA00247401B5751F9002E5E06019900002E0F582C006122C65AD82D006900000EDF062
:202EFA007F010232437401B57659900000E0FDBDA151900003E0FDBD01028008900003E081
:202F1A00FDBD023F9002E5E06039900002E0FD900003E0FCE4BC020104F57D757EC5757F09
:202F3A00028D82C007122C93AE82D007EE600F7579C5757A02757B017576060232437FFFEF
:202F5A000232437FFF0232437FFF023243E57624F4500302323DE576240B83F582E57624BC
:202F7A001083F583E473B3373D373D48983D5168AEAE3131323132302F3230303030900030
:202F9A0003E0FDBD01028017BD0202801DBD03028023BD2102806DBD220280730230437592
:202FBA00798E757A367E12023243757957757A377E29023243900002E07008757980757AF4
:202FDA00378035900002E0FDBD01087579C6757A378025900002E0FDBD02087579A0757A84
:202FFA00378015900002E0FDBD0308757984757A3780057FFF023243857982857A83E49329
:20301A00FE023243757969757A377E09023243900002E0700F7579A0757A36903770E49354
:20303A00FE0232437FFF0232437FFF023243900002E0F5750232439002E5E0FD900000F0F0
:20305A0074FF257540030232437F01023243900000E0701F900003E07019900002E0FD240A
:20307A00FE4010900004E0700A900005E07004E57560057FFF023243900002E09002E5F084
:20309A00C007C00612285112215DD006D00775D212023243900004E0706E900005E0706852
:2030BA00900002E07062900003E0705C9002E5E06056740AB5760474018001E4FD602790CB
:2030DA000000E0FCBC8103D38001C3921A500E7401B57503D38001C3921A101A02D21AA27A
:2030FA001AE433FC801F900000E0FBBB0103D38001C3921A5008E5757004C21A8002D21A8D
:20311A00A21AE433FCEC60057FFF023243ED7003023243900000E4F07F01023243900000BE
:20313A00E0FDBD0216900002E07010900003E0700A900005E07004E57560057FFF02324347
:20315A00900004E0FDBD81297403B5760B74FC55D24403F5D202324374BC55D24402F5D250
:20317A00C007C00612285112215DD006D007023243900004E0FDBD011B747355D2FD74039D
:20319A00B576067B0C7C0080047B007C00EB4DF5D20232437FFF023243900004E0FE9000F9
:2031BA0000E0FDBD8236BE8111ACD2530403E4FDBC0304BD000104FE803BBE0111ACD253BB
:2031DA00040CE4FDBC0C04BD000104FE8027EE6003BE80047E00801D7FFF804D900000E048
:2031FA00FDBD80028008900000E0FDBD8103EE60047FFF8034900005E0700C900002E070EC
:20321A0006900003E060047FFF801E900000EEF0900001E4F074FE257550047F02800AAFAE
:20323A007580067FFF80027FFFBFFF0280127406B5760DC3EE957550028E75122D5AAF821D
:20325A00BFFF077576FF75DCCF22EF24F740168FDDE57760067E027F0080047E007F0074E1
:20327A00C04EF5DC2275DD00E57760067E027F0080047E007F0074C04EF5DC227405B57686
:20329A0002800F7406B57618122D5A8582DD63DC4022E5E35480FFE5754FF5E375DC022217
:2032BA0075DD0075DC022220DE01227409B57602800302338DE577700302338DE5DB24F7B1
:2032DA00500302338DAE787F00ACDB7D00EC2EFEED3FFFAC777D00C3EC9EED64808FF06333
:2032FA00F08095F0500302338D7F00C3EF95DB5019EF257824C5FDE43402FE8F827583000D
:20331A00E0FC8D828E83F00F80E1E5DB2578F578E577B578457420B5771A9002C5E0FFBFD0
:20333A0003129002C5122160500A74F355D24408F5D2801C7402B577139002C5E0FFBF0132
:20335A000B9002C6E0F58212284A800475DCCF2275770075DD0075DC482274F825DB4007A3
:20337A007576FF75DC0F2263DC8074F055DC4402F5DC2275DD00E57760077576FF75DC0FDB
:20339A002275DC022220D903023405E5D9540F6002802CAED95306307F00BE0005BF000203
:2033BA008013BE2005BF00028010BE303CBF0039122DA980341232C1802F123296802AAE88
:2033DA00D953060F7F00BE0120BF001DE5D95430600280051227888010AED95306307F004F
:2033FA00BE2006BF000312277AC2D930D81A12215D12285175DC0275D21275E300C2DAC220
:20341A00D9C2D89002E5E4F010DA0122E5DA20E20375D8FF2275E20053E27F43E22975E3E4
:20343A000053E2BF53D1FB75D18043D1012243E10443E10243E10143D81FD2EAD2AF227ED8
:19345A00007F008EEC8FED7E0A7F008EEE8FEF75D21275EAC075DC0222F6
:20347400ABF0A2AFE433FEC2AFE0A37A0833D2B44002C2B47905D9FEC2B4DAF1DBEBEE60A6
:0434940002D2AF228F
:20349800AF82BF800040012275A15575A1AA43B10475A1007585C0EF2FF5849002E6E0F56A
:2034B8008EE58630E60375869A75A15575A1AA53B1FB75A10022AF827585C0EF2FF58475F4
:0634D800868E858E822223
:06005600E478FFF6D8FD7E
:2034DE00C0D075D00808B8000D09B900090ABA00050BBB00010CD0D032A2AFC2AFA808A9D0
:2034FE0009AA0AAB0BAC0C92AF75F020E8A4A8F075F020E9A428F582A8F075F020EAA42815
:20351E00F583A8F075F020EBA428F9A8F075F020ECA42889F022AE82AF83C374019EE49F1D
:20353E0040022200C374029EFE74009FFF00BE0005BF00020022000000000000000000007C
:20355E00000000000000000EBE00EB0FBF00ED002275A15575A1AA74F855B94406F5B975A7
:20357E00A100901388123534759E5D759D0074F055894402F58953C9EF758C06C28DD2A982
:05359E00D28CD2AF2227
:20005C00786CE84400600A799475A000E4F309D8FC78E7E84401600C7902900100E4F0A3B9
:04007C00D8FCD9FAD9
:0D0049007581B11235A4E582600302004606
:0435A400758200220A
:00000001FF
