:2000B8007E947F007D007C004305098E828F838DF0EC0233E67F00BF0900500FEF2494F565
:2000D80082E43400F583E4F00F80EC0200B8E582FFC4540FFEEFB40100B39200E4334EF51F
:2000F8008222900266E070079000C1E07001221216138582109000C1E0FEE0700885108241
:20011800120EC9AE82EE0303543FFD530503EEC4540FF5119000BDE0F512740FB5111B908C
:2001380000C1E06008E4BD030104FA800AEDB40100B39201E433FAEA7004C2018002D20102
:20015800A201E433F51378947900E4BD030104F51674015512F517E4F518BD020104FD747E
:20017800015EF519751A007E00BE030040030200B885111B751400EE90355D93FB9000CCFB
:20019800E0C4540FFA5302037F00EA2460F582EF3435F583E4938BF0A4FB9000C0E02BFFCF
:2001B8009000C1E060057514018061E5126014751401ED6057E51745186051751B0F75145B
:2001D800008049EE24A4FAE43400FB8A828B83E0602B8E38851082C007C006C005C001C046
:2001F80000120EE8AB82D000D001D005D006D0078B1BBB0F179000C9E0FB30E70F85111BFD
:20021800E51660057514018003751B0FE5146056E5136052BF550050168F037455C39B75B9
:20023800F003A4FB751500EF75F003A4FA8065BFAA00501A8F04EC24ABFC7B0075F003A40C
:20025800F5157455C39CFC75F003A4FA8046EF2456FF75F003A4FB7455C39FFF75F003A4E7
:20027800F5157A00802EE51B75F003A42478FC743535F0FF8C828F83E493FB0CBC00010F59
:200298008C828F83E493F5150CBC00010F8C828F83E493FAE5146049E519451A70438B827D
:2002B800C006C005C002C001C0001200E6AB82D000D001D002851582C003C002C001C0009E
:2002D8001200E6858215D000D001D0028A82C001C0001200E6AA82D000D001D003D005D0B5
:2002F8000688828983E515F088828983A3EBF088828983A3A3EAF0740328F8E439F90E0259
:200318000181AF829000C1EFF0EF7021900266E0701B1200CD90009574FFF0123469AC82BB
:20033800AD839000C2ECF0EDA3F00200B80200FAAF82C007120EC9AE82D007EE0303543FA2
:20035800FE5306039000BDE4F0BE0103048001E4FD7003BE022CED60067D067E00800C0F94
:20037800EF3395E0FCEF2FFDEC33FE9000BDEDF0AE1CE51DC313CE13CEFF747D2EFE900073
:20039800BEF00200FAAE82AF839000BDE0FDE06012EFC313CE13CE9000BEE0FFEEC39FFECE
:2003B80030E70122ED149000BDF09000BE747D2FF00200FA1215DE123469AC82AD83AEF0A3
:2003D800FFC005C004122898E582D004D0056038C005C004123469AA82AB83AEF0FFD00400
:2003F800D005EAC39CFAEB9DFBC3EA9464EB94005016C005C0041234691228B112346912DC
:200418001A1DD004D00580B97E947F007D00BD0300501F8E828F83E4F08E828F83A314F0AF
:200438008E828F83A3A3E4F074032EFEE43FFF0D80DC1200B875E200C2AF75890090C35007
:200458001234A690C3501234A612380080FEAF82BF030AA2B3B39202E433F58222BF050A2A
:20047800A2B2B39202E433FE8013EF90355893FFE5905207EFB401009202E433FE8E822236
:20049800A2B0E43325E0FFA2B1E4334FF58222AF82C007120466AE82D007EF249DFCE43446
:2004B80000FD8C828D83E0FBEEB50302801C8C828D83EEF0EF75F002A424ABF58274003505
:2004D800F0F583E51EF0E51FA3F0EF24A4FCE43400FD8C828D83E0FBEEB5030122EF75F034
:2004F80002A424ABF582740035F0F583E0FAA3E0FBE51EC39AFAE51F9BFBC3EA940AEB94D1
:200518000040658C828D83EEF09000C1E0600E758200C007C00612031AD006D0079002662B
:20053800E0700122EE6030BF031CC007121613120EC9E582D0079000BC5402F09000C2E5E2
:200558001EF0E51FA3F0851E51851F528F82C007121657D00780098F82C007121902D00761
:20057800BF030050030200FA22120498AF829000B9E0FEEFB50601229000C1E0600A7582CB
:2005980000C00712031AD0079000B9E025E025E04F90356893FE9000B9EFF0900266E070C6
:2005B8000122EE70069000BAE4F0229000BAE02EF0E0FFC364809484400B9000BAE4F07598
:2005D80082010219B7C3747C8FF063F08095F0400B9000BAE4F07582000219B72212346921
:2005F800AC82AD83AEF07F00EF24FC4056EF249DFBE43400FEEF24A4F9E43400FA8F82C06F
:2006180007C006C005C004C003C002C001120466A882D001D002D003D004D005D006D007B4
:2006380089828A83E8F08B828E83E8F0EF75F002A424ABF582740035F0F583ECF0EDA3F00F
:200658000F80A5C005C004120498E582D004D0059000B9F0900266E0700C9000C1E07005D4
:20067800F58202031A22C005C0041215DE9000BAE4F0121613E582D004D0059000BBF090E8
:2006980000BCE4F09000BDF09000BFECF09000C0E4F00200FA121E624390C24392C2439396
:2006B800C243B00B740B459654EFF59643971B1200CD1205F512252C758203120466E5821A
:2006D80060030203CC22123469AC82AD83C005C0041228B1D004D0058C828D83C005C004DB
:2006F8001222DDD004D0057F00EF24FC40188C1E8D1F8F82C007C005C0041204A7D004D02A
:2007180005D0070F80E3C005C004120581D004D0058C079000BFE0FEEFC39EFE9000CCE05F
:200738002323540390356493FBC3EE9B406A9000C1E0FE6010EE30E3068E037E00802E7B79
:20075800007E008028900266E0601AC007C005C004121613120EC9AA82D004D005D0078A5F
:20077800017A00800479007A0089038A065303FC7E00C374F09B74808EF063F08095F050A7
:20079800179000BFEFF09000C0E02401F0C005C0041200FAD004D005900266E07031900070
:2007B800C1E0702A9000C2E0FEA3E0FFECC39EFEED9FFFC3EE94F4EF940140129000C2EC11
:2007D800F0EDA3F0900095E064FFF00200B8228C828D83C005C004121A1D121617E582D0F7
:2007F80004D0057017C005C004121613AF82D004D0059000BBE0FEB50702804CC005C004A7
:20081800121613AF82D004D0059000BBE0FEB50702801FC005C004121613E5829000BBF0BF
:20083800120498E582D004D0059000B9F09000BAE4F09000BBE0FF8C1C8D1D8F82C005C079
:2008580004120348D004D0058C828D83C005C00412039DD004D0059000BCE060219000A790
:1F087800E0601B9000C2E0FEA3E0FFECC39EFCED9FFDC3EC94B8ED940B40030203CC22C5
:20355800028040201000010200152A5504060A1200FF0100010000FFFF0000010001FF00A4
:20089800AF82BF01067E0F7F0080047E167F008E8222AF82BF01067E037F0080047E067FF6
:2008B800008E8222AF827E007D00C3ED9F500EE56EC39DFC1C8E03EC2BFE0D80EDE56D2EAA
:2008D800C39F14F58222AE82AF837CFF7DFF7B00BB06028036BB07028031EB2EF582E43F7C
:2008F800F583E0FAE4F96204EA62057A08ED30E70EEC2CF8ED33F96300216301108006ECD3
:200918002CF8ED33F988048905DAE20BBB800040BF8C828D8322E582FF6020BF04009203E9
:200938004007EF249A92035012BF680092034007EF248C92035004C2038002D203A203E484
:2009580033F58222858228858329E5232528F582E43529F583E0FD740F5DFCEDC4540FFD03
:20097800AA237B000ABA00010BEA2528F582EB3529F583E0FBEC24F05003020B12EC240A71
:2009980083F582EC241483F583E473C3F8F81D1D1D1D467E91DEF812D64D4D0909090A0ACC
:2009B8000A0A0A0A0A0A0A0B090A0AED7003EB6004C2048002D204A204E433F58222ED247D
:2009D800FE9204400EEB24F99204500BBBFA0092045004C2048002D204A204E433F5822211
:2009F800E525600BBC0203D38001C3920440098B8212092EE5827004C2048002D204A204BE
:200A1800E433F58222E525600BBC0503D38001C39204400DED700AEB6007EB24F892045035
:200A380004C2048002D204A204E433F58222ED600475820022E525B4010092048D04E433BF
:200A5800C364808CF063F08095F09204400BBB8003D38001C392045004C2048002D204A223
:200A780004E433F58222ED7007EB7004C2048002D204A204E433F58222ED7006C3EB9527A6
:200A98004004758200227C007A00C3EA9527502EEAB50307EC600475820122A82679008A20
:200AB800067F00EE28F8EF39F9E82528F582E93529F583E0FFE4BF000104FC0A80CCE4BB87
:200AD800000104F58222ED24FE92044006C3EB95244004C2048002D204A204E433F5822256
:200AF800ED700AC3EB95245004E5256004C2048002D204A204E433F5822275820022AE8291
:200B1800AF83753300E52A24FE403E8E828F83E0FCBC4D358E828F83A3E0FCBC502B8E8210
:200B38008F83A3A3E0FCBC052074052EFBE43FFC8B828C83E0F95301017A00A82A7D00E9CB
:200B5800B50006EAB505028004758200228E828F83A3A3A3E0FDFA74075A04F52BEDC423D0
:200B7800541FF95301077D00852B348D35C3E99534ED64808535F063F08095F040047582F0
:200B98000022852A82C007C006C004C0031208AA85822C852A8212089885822DD003D00421
:200BB8008B828C83E0C313FB743F5BF52EA82D7B00A92B7D00C001C00588828B8312351683
:200BD800AB82AD831581158174092BFBE43DFDA82E7900C005C003C000C001900003123581
:200BF80016A882A98315811581D003D005D006D007E82BF8E93DF98E828F83A3A3A3A3E038
:200C1800FD7C0028F8EC39F9C3748098E499500475820022852DF0E52BA4FC2409FBE52E3F
:200C3800F975F003A42BF52F8D30753100C3E531952B4003020CD7852DF0E531A42409F8A3
:200C5800753200852C3675370074032536FAE43537FBA9327D00C3E99AED64808BF063F0EE
:200C78008095F05055E532253288052DF52374012536FBE43537FDA9327A00C3E99BEA6470
:200C9800808DF063F08095F0B39205E433F525852B24852F268530278E828F83C007C00633
:200CB800C004C00012095CE582D000D004D006D0077003F58222053280890531020C457420
:200CD800092CFD7403B52C0474018001E4FC7B00C3EB952E4003020D8AED2EF582E43FF526
:200CF80083E0FAC4540FF85300077900C3E89534E964808535F063F08095F050678A0053B6
:200D1800000F7900EC6008753603753700800675360F753700C3E89536E964808537F06347
:200D3800F08095F0503EEB6006C3E5339A50358D01E904F523852B24752500852F2685303D
:200D5800278E828F83C007C006C004C003C002C00112095CE582D001D002D003D004D0069D
:200D7800D0077004758200228A33740329FD0B020CE8E5306024AB2F7D00AA307C00EA2B41
:200D9800FBEC3DFD1BBBFF011DEB2EFBED3FFD8B828D83E0600475820022753200C3E532EF
:200DB80095305076AB2F7C00A9327A00E92BF8EA3CFDE82EF8ED3FFD88828D83E06057E9E5
:200DD8002BF8EA3CFDE82EF582ED3FF583E0FDBD09028042E92BF8EA3CFDE82EF582ED3F35
:200DF800F583E0FDBD0A02802DE92BF8EA3CFDE82EF582ED3FF583E0FDBD20004014E92B8E
:200E1800FBEA3CFCEB2EF582EC3FF583E0FD2481500475820022053280838E828F83C00758
:200E3800C0061208DEAC82AD83D006D00774062EF582E43FF583E0FB8C02B5021274072E3C
:200E5800F582E43FF583E0FF8D04B504028004C2058002D205A205E433F582229000C7E00B
:200E7800FF74075F04F582229000C7E0C423541FFF74075FF582229000C9E0FF74015FF5E0
:200E9800820208AA9000CCE0FF740F5F75F005A4F58222AF829000C9E0FE74015EF582C0CE
:200EB80007120898E582D007F5F0EFA42409F58222E58204F582120EABAF827E001FBFFFAC
:200ED800011EEF24C4F582EE3400F583E0F58222AF82C007120E8FAE82C006120E74AD821A
:200EF800D006D007C3EF9D5006C3E5389E4004758206228F82C006120EABAF82D006E4FD1D
:200F1800FC74032EFEE43CFCEE2EFEEC33FCEE2FFFEC3DFDE538C3137C002FFFEC3DFDEFD5
:200F380024C4F582ED3400F583E0FFE53830E009EFC4540FFD7E0080087C00740F5FFD7E9A
:200F5800008D8222AF82C007120E74AE82D007C3EF9E5025C007120E8FAE82D0077D007482
:200F7800032EFEE43DFDAB397C00C3EB9EEC64808DF063F08095F0400BE53AF87600E53BC3
:200F9800F87600228F82120EABAF82E53925392FFEA93A24C4F582E43400F583E0F7A93B66
:200FB8007F000EBE00010FEE24C4F582EF3400F583E0F722AF82C007120E8FAE829000C9AD
:200FD800E0C313FD743F5DF540C006120E74120EABAC82D006D007E53DB53C028022C3E5A2
:200FF8003C9E501CC3E53D9E5016C007C006C004120E74AB82D004D006D007C3EF9B400486
:2010180075820022C3E53D953C5007AB3C853D3C8B3DEFC454F0FF853D6D8E6E853C82C0C1
:2010380007C0041208BCAE82D004D007EE4207754100C3E54195405064EC24C4F582E4345A
:2010580000F583E0FBB50702801753038F7A008F0553050F7E00430580EBB50536EAB506B0
:2010780032A93E8C057E0074012DFAE43EFBEA24C4F582EB3400F583E0F7A93F74022DFD38
:20109800E43EFEED24C4F582EE3400F583E0F77582012205418C0674032EFC8095758200BC
:2010B80022AF82E5422FFEC39F400A9000C8E0FFC3EE9F400475820022C006120E74120E67
:2010D800ABAF82D0069000C9E0C313FD743F5D75F003A42FFDE4FFFCEE2DFDEC3FFFED24C0
:0C10F800C4F582EF3400F583E0F582229D
:20357800FF0000FF1607FF1000FF4200FF7C003CFF0064C8141D7B4300FFC8005BFF0000D6
:10359800FF7300B4FF00C2FF0048FFFFFF000000F8
:20110400AF827408B54402800EE56E6034AE44C3EE64809481402AE56E6012900198E0FEDC
:20112400BEFF028018900198EE04F08010900197E0FEBEFF028006900197EE04F07582006D
:2011440022900195E075F002A42485F582740135F0F583EFF0900195E075F002A42485FE8F
:20116400740135F0FF8E828F83A3E56DF0900195E0045407F00544758201227F007E00EE28
:201184002460F582E43401F583E0FD42070EBE090040EC7E00EE2452FCE43401FD8C828D09
:2011A40083E06025EE2444F582E43401F583E0FD53050F7C00BD0511BC000EEE244BF582B4
:2011C400E43401F583E0FD42070EBE070040C6E54B600790019CE0FE42078F8222AF82C06C
:2011E4000712117FAE82D007BF0E09E54DFC3395E0FD80047C007D00BF0F09E54DFD339547
:20120400E0FF80047D007F008D608C5F7561008E82022803E582FF7004758201227E02EE1E
:201224002471FCE43401FD8C828D83E0FBB5070475820122EB700A8C828D83EFF0758201D6
:20124400220EBE080040D8758200227F007E00EE2471F582E43401F583E4F00EBE080040F3
:20126400EE7E00EE2452FCE43401FD8C828D83E06040EE2444F582E43401F583E0FDFB5361
:20128400030F7C00BB022BBC0028900171E0FCEDC4540F4204900171ECF0EE244BF582E422
:2012A4003401F583E0F582C007C006121218D006D0070EBE070040AB90019D7401F0E54B2F
:2012C400603B90019AE0FE53060F7D00BE012EBD002B90019BE0F582C007121218AE82D026
:2012E4000790019DEEF0EE6014900171E0FE90019AE0C4540FFD4206900171EEF07E00EED2
:201304002471F582E43401F583E0FDEE2469F582E43401F583E0FCEDB5040280027F010E38
:20132400BE080040DAEF602E900171122759E5827003F582227F00EF2469FDE43401FEEF47
:201344002471F582E43401F583E0FC8D828E83F00FBF080040E112117FE582FFB543028087
:201364001B755F007560007561008F82C007122803E582D0077003F582228F437582012284
:20138400AF82AE4574FFB5480280118548457548FFC007C00612147CD006D0078F0453048E
:2013A4000F7D00BC0004BD000122BC0204BD000122BC0504BD000122BC0605BD0002801C94
:2013C400BC0A05BD00028058BC0B05BD00028008BC0D5BBD0058801E75470122E550246025
:2013E400FCE43401FD8C828D83E0FBE54E62038C828D83EBF022C007C006120E74AD82D00B
:2014040006D007E54E2EFE8D04ECC40354F8FC2EF54EC3E54E9D4008E54EC39DF54E80F26C
:20142400754701EF30E403854548854E4522854E6D854F6E8F82021104900180E0FFE070AF
:2014440001221F900180E4F0EF2452F582E43401F5837401F0EF2444F582E43401F583E050
:20146400FEEF244BF582E43401F583E0F54E754F008F508E82021384AF457E007D00ED2495
:2014840052FBE43401FC8B828C83E06035ED2444F582E43401F583E0FC53040F7B00BC0B74
:2014A40021BB001EED2459F582E43401F583E0FCC39E400E8C06ED244BF582E43401F5833B
:2014C400E0FF0DBD070040B6EFB54601228F467F00EF2460F582E43401F583E4F00FBF09DB
:2014E4000040EE754400900195E4F0900196F0AE4953060F7F00BE0812BF000F7404B54AF5
:201504000280057405B54A03754C01754900754A00754B0090019CE4F012143D02147C12BE
:201524000E808582458545467547007548FF900180E4F0900179F0900197F0900198F07FB6
:2015440000EF247AF582E43401F583E4F00FBF060040EE900195E4F0900196F0F544F54994
:20156400F54AF54C9001A2F0F54B90019CF0F543122689E582900184F07F00EF2452F582A7
:20158400E43401F583E4F0EF2459F582E43401F583EFF0EF2444F582E43401F583E4F0EF6D
:2015A400244BF582E43401F583E4F00FBF070040CA7F00EF2460F582E43401F583E4F00F20
:2015C400BF090040EE7F00EF2469F582E43401F583E4F00FBF080040EE2212269012152302
:2015E40090016974FFF0F543900000122889E582B401009206E433F54C02124FE5826007C2
:20160400900198E0FF8005900197E0FF8F82228546822285478275470022E5822459FEE49E
:201624003401FF8E828F83E0FD7C00EC2459FAE43401FB8A828B83E0F9C3ED995007198A4A
:20164400828B83E9F00CBC070040E08E828F837406F022AF82C007120E8F858255D007C3E3
:20166400E5559F40248FF005F07C017D008006EC2CFCED33FDD5F0F7900179E0FBF97A00F0
:201684005204EA5205EC4D6001228F058DF005F07401800225E0D5F0FB9001794BF0C3EF3A
:2016A4009555E433FC6010EF247AFAE43401FB8A828B83E0600122900180E0FBE070030260
:2016C40017D5EC700874FFB548030217D51BEC70030217C3900182E0F9A3E0FAE551C39904
:2016E400F9E5529AFAC007C005C004C003C002C001120E9CA882D001D002D003D004D00587
:20170400D0077E00C3E998EA9E40030217C3900181E0FE753E53753F548B3C8F3D8E82C024
:2017240007C005C004C003120FCCE582D003D004D005D00770030217C3900180E4F0EB2468
:201744007AF582E43401F583ED04F0EF247AF582E43401F5838B060EEEF0EB2444F582E462
:201764003401F583E553F0EB244BF582E43401F583E554F0EF2444F582E43401F583E4F0D2
:20178400EF244BF582E43401F583E4F0EF2452F582E43401F583E4F0EB2452F582E43401D9
:2017A400F5837401F08B82C00312161ED00385544E754F008B5085538212138402147CC044
:2017C40007C005C00412143D12147CD004D005D007753A53753B548F39854682C007C00549
:2017E400C004120F5CD004D005D007EF2444FBE43401FE8B828E83E553F0EF244BF9E43406
:2018040001FA89828A83E554F08F82C007C006C005C004C003C002C00112161ED001D00232
:20182400D003D004D005D006D007EC6071C007C006C005C003C002C001120E9CE582D00132
:20184400D002D003D005D006D00760527C00C3EC9555504A753E53753F548F3C8C3D85468F
:2018640082C007C006C005C004C003C002C001120FCCE582D001D002D003D004D005D0063D
:20188400D0076017900180ED04F0900181E546F0900182E551F0E552A3F0220C80B0EF2463
:2018A40052F582E43401F5837401F08B828E83E0FB89828A83E0F54E754F008F508B82126F
:2018C400138402147CE582FF2444F582E43401F583E0FE53060FEF2452FDE43401FF8D8236
:2018E4008F83E06018BE02028003BE05067C027E0080047C007E008D828F83ECF022AF82A2
:20190400C007120E8FAE82D007C3EE9F5001228F068EF005F07401800225E0D5F0FBF4FECD
:20192400900179E05EF08F057E000DBD00010E900180E07B00B5050EEBB5060AC0071214AF
:201944003D12147CD0078F82C0071218C9120E8FAE82D007C3EF9E5057EF247AFEE43401B1
:20196400FF8E828F83E0FD60471D8D82C007C006C0051218C9D005D006D0078DF005F07BDE
:20198400017C008006EB2BFBEC33FCD5F0F7900179E0F97A005203EA5204EB4C70128E829D
:2019A4008F83E4F0ED247AF582E43401F583E4F002147CAF82C007120E8FAE82D007EF6047
:2019C400067C017D0080047C027D00EC2EFE900180E0601574FFB54802800EC007C0061267
:2019E400143D12147CD006D007753A56753B578E39854682C007120F5CD007EF60067E072E
:201A04007F0080047E087F008E5085574E754F0185568212138402147CAE82AF83900180E2
:201A2400E0603B900182E0FCA3E0FDEEC39CFCEF9DFDC007C006C005C004120E9CAB82D017
:201A440004D005D006D0077A00C3EC9BED9A400EC007C00612143D12147CD006D007C0075D
:201A6400C006122689AD82D006D007900184E0FCB505028019C007C006122689E582D0062E
:201A8400D007900184F090016974FFF0F543E54C6018900000C007C006122889E582D0060B
:201AA400D0076005754C00800122C007C00612124FE582D006D007700122E5497026E544EE
:201AC4007022C007C006122898AD82D006D007ED70128E059001A2E0FCEDC39CFDBD080016
:201AE40092075004C2078002D207A207E433FD60059001A2EEF07C00EC2452F582E4340130
:201B0400F583E0FBBB0251EC2444F582E43401F583E0F953010F7A00B9022FBA002CEC246E
:201B24004BF582E43401F583E0FA601E7902E92469F582E43401F583E0F8B50202800609DD
:201B4400B9080040E9B908028051EC2452F582E43401F583E4F08043ED6040EB603DEC24DD
:201B640044F582E43401F583E0FBF95301FE7A00B91E28BA002553030FEC244BF582E43448
:201B840001F583E0F54D8B82C007C006C005C0041211E1D004D005D006D0070CBC0700500A
:201BA40003021AFCC007C00612124FE582D006D007700122E5497054E5446050900196E08D
:201BC400FD75F002A42485FB740135F0FC8B828C83E0F5498B828C83A3E0900199F0ED04DB
:201BE4009001965407F01544754A0090019FE4F0AC4953040F7D00BC0409BD00067C027DF4
:201C04000080047C017D0090019EECF0E549700122E549540FFDE54A6003021D84C007C02C
:201C240006C005122898E582D005D006D007600122BD0756900199E0FC7003F54922C004E0
:201C440012117FAB82D004EC33E433FA600678FF79FF8004780179008861755F0075600050
:201C64008B82C004C002122803E582D002D004700122EA6005EC04FB8003EC14FB9001990E
:201C8400EBF0EB60012275490022BD0E028003BD0F21900199E0F54D8D82C007C0061211CF
:201CA400E1E582D006D0077001229001A2EEF075490022BD082BAB49E4CBC4540F6BCB5463
:201CC4000FCB6BCB8B047B00900199E07A004BF582EA4CF583122889E582700122754A0472
:201CE4002290019AE549F0900199E0FC90019BF090019CE4F0BD094890019FE0F5428C82EF
:201D0400C007C0061210B9AC82D006D007EC7003F549228C82C007C006122A86AC82D0065C
:201D2400D007EC30E7067A207B0080047A007B0090019A74014AF090019B747F5CF080105C
:201D4400BD03028003BD0408900199E090019CF0754B01C007C00612124FE582D006D00775
:201D6400600690019DE07001228E038F0474082BFBE43CFC9001A0EBF0ECA3F0754A012209
:201D84007401B54A289001A0E0FBA3E0FCEEC39BEF9C30E70122122898E582600122754B8B
:201DA4000012124FE582700122754A02227402B54A46C007C006C005122898E582D005D0E4
:201DC40006D007600122BD090B90019FE02401F0754A002290019EE014F0E060178E048F3D
:201DE4000574C82CFCE43DFD9001A0ECF0EDA3F0754A0322754900227403B54A379001A029
:201E0400E0FCA3E0FDEEC39CFCEF9DFD20E74D754B01C007C00612124FE582D006D0076007
:201E24003B74082EFEE43FFF9001A0EEF0EFA3F0754A01227404B54A15122898E582701CD5
:1D1E4400900000122889E5826012754A05227405B54A09122898E5827002F54922E3
:201E62007F00EF24C4FDE43400FE8F82C007C006C0051223C2AC82D005D006D0078D828E50
:201E820083ECF00FBF800040D9752A019000C4120B16AF82900265EFF0900266EFF09002E3
:201EA20063E4F0900267F0900264F0229002647401F022AE82AF83900263E07006900264D8
:201EC200E06004758200227D00ED24A3FBE43401FCED2EF582E43FF583E08B828C83F00D3C
:201EE200BD200040E49002637401F0758201229001A7E0FF9001A9E0F5589001AAE0F55984
:201F02009001A3E0FCBC03169001A4E0FCBC550E9001A5E0FCBC4D069001ABE06004758212
:201F220004229001A6E0FCBC0102800475820122E55924E8500475820322BF05028003BF47
:201F42000606AB597C0080047B007C0074092BFCBC20005016EC24A3FAE43401FB8A828B3A
:201F620083E06004758204220C80E5E4BF030104FC7008BF04028003BF061EE5596016AA62
:201F8200597B00A8587900EA28F8EB39F9C3748098E499503175820322E5586003BF0922D8
:201FA200BF05117403B55903D38001C3B39208E433FB800BE559B40100B39208E433FBEB84
:201FC200600475820322EF24F650030222D5EF240A83F582EF240E83F583E473D5F24DB0DC
:201FE200B0154809CEAF221F20202021212222229001CA740EF09001CC7455F09001CD744E
:202002004DF09001CE7441F09001CF7443F09001D07401F09001D17405F09001D27401F01D
:202022009001D37403F0E0FF9001D4F09001D57407F09001D67480F09001D77403F0900123
:20204200D874FFF09001D9F00222D99001CA7406F0900265E09001CCF0900266E0600912B0
:202062001613AB827F0080047B007F009001CDEBF0900266E06009120E80AB827F008004C1
:202082007B007F009001CEEBF0900267E09001CFF0758200121600AF829001D0EFF075825A
:2020A20001121600AF829001D1EFF00222D99001CAE559F0755A00C3E55A955940030222D7
:2020C200D9AB5A74092BFB3395E0FAEB24C3FBEA3401FAEC6019E55A2558F582C004C003D6
:2020E200C0021223C2A982D002D003D004801AA8587F00AD5A7E00ED28F8EE3FFFE824C4DA
:20210200F582EF3400F583E0F98B828A83E9F0055A80A49001ACE0FFBF8002800475820381
:20212200229001ADE0FF9001AEE0FD7E007C00900269EE4FF0ED4CA3F0900268E4F09002F4
:202142006704F00222D9900267E0FFBF0102800475820522900268E0FFB558028063AD5918
:202162007E00AB587C00ED2BFBEE3CFC7E00C3EF9BEE9C500475820A227F00C3EF955940FC
:20218200030222D9AD587E008F037C00EB2DFDEC3EFEED24E3F582EE3401F583E0FE8F05F7
:2021A20074092DFD3395E0FCED24A3F582EC3401F583E0FDEEB50502800475820A220F8051
:2021C200BA7F00C3EF95595034AD587E008F037C00EB2DFDEC3EFEED24E3FDEE3401FE8F31
:2021E2000474092CFC3395E0FBEC24A3F582EB3401F583E0FC8D828E83F00F80C690026894
:20220200E02559F00222D9900267E0FFBF02030222D9BF010A900268E0FFBF8002800475FB
:202222008205229001E31208DEAE82AF83900269E0FCA3E0FDEEB5041AEFB505169001E9D4
:20224200E0FD8E04B5040C9001EAE0FD8F06B50602800475820722752A019001E3120B16B3
:20226200E5827004758206229001E3122438AF82900265EFF0EF7004758209227F00EF2462
:20228200C4FDE43400FEEF24E3F582E43401F583E08D828E83F00FBF800040E2900266749B
:2022A20001F01205F59002677402F0802AE5586013AE585306067F00BE0405BF0002800476
:2022C2007582032285588212031A800B900267E4F080047582022275820022AE82AF839050
:2022E2000264E06014900267E4F0900263F01205F5900264E4F0022607900267E0601D9085
:20230200026BE0FCA3E0FDEEC39CFCEF9DFDC3EC9488ED94134005900267E4F0900263E0DA
:20232200700122900263E0FDBD010280030223A87D00ED24C3F582E43401F583E4F00DBD2F
:20234200200040EE9001C37404F09001C47455F09001C5744DF09001C67401F09001A7E088
:202362009001C7F09001A8E09001C8F09001A9E09001C9F0C007C006121EF1AD82D006D0CA
:20238200079001CBEDF0ED70179001A7E0FDBD0500400DED24F7400890026BEEF0EFA3F0B6
:1F23A2009002637402F0900264E070129001C3122586E5826008900263E4F0022607226F
:2023C200023440AF82C0071223C2AE82D007EEB55B028019A2AF9209C2AF9002FAE55BF0DD
:2023E2008F82C00712340AD007A20992AF8F821223C2E582B55B0474018001E4F58222AE4C
:2024020082AF837D008D82C007C006C0051223C2AC82D005D006D007ED2EF582E43FF58354
:20242200E0FBECB503028004758200220DBD800040D375820122AE82AF83C007C0061224E0
:2024420001E582D006D007600475820122755B00758200C007C0061223C5E582D006D00785
:202462006015755B00758201C007C0061223C5E582D006D0077004758200227D02ED2EF566
:2024820082E43FF583E0F55B8D82C007C006C0051223C5E582D005D006D0077003F582229D
:2024A2000DBD800040D7755B50758201C007C0061223C5E582D006D0076015755B4D75827D
:1B24C20000C007C0061223C5E582D006D0077004758200228E828F830224018E
:04000000020049327F
:03000B000234506C
:0100130032BA
:01001B0032B2
:0100230032AA
:01002B0032A2
:01003300329A
:01003B003292
:030043000224DEB6
:0E00A2007808E4F608F608F608F6780C760002
:0300B40002004601
:0300460002251D73
:2024DE00C022C0E0C0F0C082C083C007C006C005C004C003C002C001C000C0D075D0001224
:2024FE003312D0D0D000D001D002D003D004D005D006D007D083D082D0F0D0E0D0223212F2
:0E251E0034E11206AD1206DE80FB758200224B
:20252C001233A21233CC1233BB75DD0075D3002275D30074FC55D24402F5D29002FCE4F08D
:20254C002230DE357402B5DB1190000AE0FFBF010990000BE09002FBF0227420B5DB1A90C9
:20256C00000AE0FFBF031290000A121EB5E582600874F355D24408F5D222D310AF01C3C06B
:20258C00D0AE82AF839002C17401F09002F9E0601F9002FCE070199002BFE060069002C279
:2025AC00E0600DACD25304037D00BC0308BD000575820080417D008D037C0074402BFBE4E5
:2025CC003CFCEB240AFBEC3400FCED2EF582E43FF583E0FA8B828C83F00DBD200040D890E2
:2025EC0002C1E4F09002C2F075D3209002FC04F053D2FC758201D0D092AF22D310AF01C398
:20260C00C0D0AED253060C7F00BE0C05BF0002800353D2F3D0D092AF22E5829002FBF02286
:20262C009002C3E4F09002C4F09002C5F09002C6F09002C7F09002CCF0A3F09002CAF0A377
:20264C00F09002C8F0A3F07F00EF24CEF582E43402F583E4F00FBF080040EE9002D6E4F024
:20266C009002D7F0A3F09002FCF09002C0E02401F09002C1E4F09002C2F00226909002C028
:20268C00E0F58222D310AF01C3C0D09002BFE4F09002BDF09002BEF0D0D092AF22AF829067
:2026AC0002BFE0FEBE080280069002F9E07004758200229002BDE024B5F582E43402F58318
:2026CC00EFF09002BDE0FF0F74075FF09002BFE02401F075820122AE82AF839002BFE0FD18
:2026EC00BD080280069002F9E07004758200229002BDE075F009A4246DF582740235F0F5B0
:20270C00837401F07D009002BDE075F009A4246DFB740235F0FC8D02EA042BFBE43CFCED38
:20272C002EF9E43FFA89828A83E08B828C83F0ED24CEFBE43402FC89828A83E08B828C8341
:20274C00F00DBD080040BF7582090226A9D310AF01C3C0D01226E3D0D092AF22AF82900214
:20276C00BFE0FEBE080280069002F9E07004758200229002D6EFF09002BDE075F009A424BE
:20278C006DF582740235F0F5837402F09002BDE075F009A4246DFD740235F0FE8D828E8348
:2027AC00A3EFF09002BDE075F009A4246DFE740235F0FF8E828F83A3A3E55CF09002BDE059
:2027CC0075F009A4246DFE740235F0FF8E828F83A3A3A3E55DF09002BDE075F009A4246DA3
:2027EC00FE740235F0FF8E828F83A3A3A3A3E55EF07582050226A9D310AF01C3C0D0855FBD
:20280C005C85605D85615E122768D0D092AF22AE82AF839002BFE0FDBD080280069002F9BE
:20282C00E07004758200229002D7EEF0EFA3F09002BDE075F009A4246DF582740235F0F57D
:20284C00837405F09002BDE075F009A4246DFC740235F0FD8C828D83A38E05EDF09002BD9A
:20286C00E075F009A4246DFC740235F0FD8C828D83A3A38F06EEF07582030226A9D310AF01
:20288C0001C3C0D012281BD0D092AF229002BFE0700A9002FCE07004C20A8002D20AA20A1D
:2028AC00E433F58222D310AF01C3C0D0AE82AF839002BFE060030229A69002C7E0FD0D75F7
:2028CC006200BD01079002C3E0FB8011BD02079002C5E0FA80059002C6E0FA8A03BD010A01
:2028EC009002C8E0F9A3E0FA8019BD020A9002CAE0F8A3E0FC80089002CCE0F8A3E0FC8842
:20290C00018C028904EB7003022993EEC39CFCEF9AFA8B017B00E929F9EB33FBE929F9EB86
:20292C0033FBC3EC99EA9B405EBD03067B007C0080048D037C009002C7EBF0BD0110900211
:20294C00CEC007C0061226E3D006D007804CBD021D9002D6E0FC755C00755D00755E008C5A
:20296C0082C007C006122768D006D007802C9002D7E0FBA3E0FC8B828C83C007C00612289C
:20298C001BD006D00780130DED24FC50027D01056274FD256240030228CE9002F9E060255C
:2029AC009002FCE0701F9002BFE060199002C1E060069002C2E0700DACD25304037D00BC09
:2029CC000306BD0003022A817D009002BEE0FC24B5F582E43402F583E0FBC3ED9B50328DB5
:2029EC00027B0074402AFAE43BFBEA240AFAEB3400FBEC75F009A4246DF8740235F0F9ED28
:202A0C0028F582E439F583E0F98A828B83F00D80B9EC75F009A4246DF582740235F0F58334
:202A2C00E0FDBD010A9002C8EEF0EFA3F08018BD020A9002CAEEF0EFA3F0800BBD05089029
:202A4C0002CCEEF0EFA3F09002C27401F09002BEE0FF24B5F582E43402F583E0F5D30F902B
:202A6C0002BE74075FF09002BFE014F09002FC7401F053D2FCD0D092AF22AF82BF800040C4
:202A8C000475820022EF9035A893F58222E582FF7017AE6D9002C4EEF09002C6EEF0900281
:202AAC00C5EEF09002C3EEF022BF01079002C3E56DF022BF02079002C5E56DF022BF050645
:202ACC009002C6E56DF022E582FF70079002C4E0F58222BF01079002C3E0F58222BF020725
:202AEC009002C5E0F58222BF05079002C6E0F5822275820022AF82AD6EAE6F8D828E83EFCD
:202B0C00F0BF0143E56D601474012DFBE43EFC9002FBE08B828C83F0758202227C008C0297
:202B2C007B000ABA00010BEA2DFAEB3EFBEC24CEF582E43402F583E08A828B83F00CBC0868
:202B4C000040DB75820922E56D7039BF023674012DFBE43EFC9002D6E08B828C83F07402B5
:202B6C002DFBE43EFC74032DF9E43EFA8D828E83A3A3A3A3E4F089828A83F08B828C83F0B6
:202B8C0075820522E56D702FBF052C74012DFCE43EFF9002D7E0FAA3E08C828F83EAF07437
:1B2BAC00022DFDE43EFE9002D7E0A3E0FC8D828E83ECF07582032275820022C9
:2035A80000000000000000002A2B2800000000000000000000000000000000000000000086
:2035C8002C9EB4A0A1A2A434A6A7A5AE362D3738271E1F20212223242526B333B62EB7B8A6
:2035E8009F8485868788898A8B8C8D8E8F909192939495969798999A9B9C9D2F3130A3AD97
:20360800350405060708090A0B0C0D0E0F101112131415161718191A1B1C1DAFB1B0B500FB
:02376B0000005C
:20362800120110010000000809125DC500010102030105010906A1018501050719E029E7BF
:203648001500250195087501810295017508810395067508150026FF000507190029E781F2
:203668000005081901290515002501950575019102950175039103C005010902A1010901F0
:20368800A100850205091901290315002501950375018102950175058103050109300931CD
:2036A80009381581257F750895038106C0C00600FF0901A10185030902150026FF00750870
:2036C800951F910285040903951F8102C0050C0901A1018505150026FF0F19002AFF0F75B9
:2036E8001095018100C009022900010100806409040000020300000009211001000122B49D
:20370800000705810320000A0705010320000A040309041C034300480035003500780020ED
:20372800006B006200640020006D006F007300260355006E0069007600650072007300616B
:20374800006C0020004D006100630072006F007000610064000E0344006500710069006EAC
:03376800006700F7
:0300B000756B006D
:202BC800AFDB7D007E008E66BF080280030230EF900007E0FC7F00900006E0FB7A004FF5E6
:202BE80063EA4CF5648F6C900001E0F5658F6B900000E0FC54607003022DA1900000E0FC4C
:202C08005304607B00BC2005BB00028011BC4005BB00028003022D9B756CFF0230F29000AC
:202C280004E07006900005E06006756CFF0230F27409B5653F900000E0FCBC21379000036A
:202C4800E0FCBC022F900002E0FCBC030CAB63AC64BB2005BC00028012900002E0FCBC01F1
:202C680013AB63AC64BB020CBC00098563667567000230F2740AB56551900000E0FCBC210D
:202C880049E56345647043900002E0601C900002E0FCBC01028012900002E0FCBC020280E4
:202CA80008900002E0FCBC05219002F9E0601B900002E0FC900003E0F56D8C82C006C005F2
:202CC800122A99D005D0060230F27402B5655E900000E0FCBCA156900002E0601C900002BB
:202CE800E0FCBC01028012900002E0FCBC02028008900002E0FCBC0534900003E0702EABCA
:202D080063AC64BB0127BC00249002F9E0601E900002E0F582C006C005122AD3AC82D00506
:202D2800D006900000ECF0756C010230F27401B5655B900000E0FCBCA153900003E0FCBC12
:202D480001028008900003E0FCBC02419002F9E0603B900002E0FC900003E0FBE4BB0201EE
:202D680004F56D756ED9756F028C82122B01AC828C057E00ED4E600F7568D9756902756A9B
:202D8800007565060230F2756CFF0230F2756CFF0230F2756CFF0230F2E56524F450030264
:202DA80030EAE565240B83F582E565241083F583E47339B9EAB9EAB3D2EAC0DE2727302F75
:202DC800302F302E2D302E2E2F2F900003E0FCBC01028019BC02028024BC0302802FBC219F
:202DE80003022E7BBC2203022E8B022EAD756828756936756A807D127E000230F27568EE30
:202E0800756936756A807D297E000230F2900002E0700B756817756937756A80803F90004B
:202E280002E0FCBC010B75685D756937756A80802C900002E0FCBC020B75683775693775B5
:202E48006A808019900002E0FCBC030B75681B756937756A808006756CFF0230F2AA68ABFC
:202E680069AC6A8A828B838CF0123538FAFD7E000230F2756800756937756A807D097E00C8
:202E88000230F2900002E0701675683A756936756A80903707E493FDA3E493FE0230F27591
:202EA8006CFF0230F2756CFF0230F2900002E0FC8C637564000230F29002F9E0900000F032
:202EC800AB63AC64C3EB9401EC940050030230F2756C010230F2900000E07021900003E018
:202EE800701B900002E0FC24FE4012900004E0700C900005E07006E56345646006756CFF4B
:202F08000230F2900002E09002F9F0C006C00512262C121EAED005D00675D2120230F29013
:202F28000004E07075900005E0706F900002E07069900003E070639002F9E0605D740AB580
:202F4800650474018001E4FC602C900000E0FBBB8103D38001C3920B5013AA63AB64BA0106
:202F680006BB0003D38001C3920B100B02D20BA20BE433FB8021900000E0FABA0103D380FC
:202F880001C3920B500AE56345647004C20B8002D20BA20BE433FBEB6006756CFF0230F2C9
:202FA800EC70030230F2900000E4F0756C010230F2900000E0FCBC0218900002E070129056
:202FC8000003E0700C900005E07006E56345646006756CFF0230F2900004E0FCBC812974FA
:202FE80003B5650B74FC55D24403F5D20230F274BC55D24402F5D2C006C00512262C121E55
:20300800AED005D0060230F2900004E0FCBC011B747355D2FC7403B565067A0C7B008004BD
:203028007A007B00EA4CF5D20230F2756CFF0230F2900004E0FD7E00900000E0FCBC824D88
:203048008D038E04BB8117BC0014A9D2530103E4FAB90304BA000104F9FD7E00804ABB01FA
:2030680017BC0014A9D253010CE4FAB90C04BA000104F9FD7E008030ED4E6006BB8009BC5B
:2030880000067D007E008020756CFF805D900000E0FCBC80028008900000E0FCBC8104EDFE
:2030A8004E6005756CFF8042900005E0700C900002E07006900003E06005756CFF802B8DEA
:2030C80004900000ECF0900001E4F0AB63AC64C3EB9402EC94004005756C02800D85636C28
:2030E8008008756CFF8003756CFF74FFB56C02806F7406B5656AC3ED9563EE956450048D0A
:20310800638E64AD63AE64C3ED9408EE9400920B40067B087C008004AB63AC648B6C7C006B
:20312800C3EC956C50208C027B00EC2568F8E43569F9AF6A888289838FF0123538F88A8241
:203148008B83F00C80DAAC6C7F00EDC39CFDEE9FFE8D638E64E56C2568F568E43569F5699B
:2031680074FFB56C077565FF75DCCF22E56C24F74017856CDDE56660067E027F0080047E4E
:20318800007F0074C04EF5DC2275DD00E56660067E027F0080047E007F0074C04EF5DC223B
:2031A8007405B56502806E7406B56502800302322BAE63AF64C3EE9408EF9400920C400634
:2031C8007C087D008004AC63AD648C6D7D00C3ED956D50208D027B00ED2568F8E43569F9B3
:2031E800AC6A888289838CF0123538F88A828B83F00D80DAAC6D7D00EEC39CFEEF9DFF8E3D
:20320800638F64E56D2568F568E43569F569856DDD63DC4022E5E35480FFE5634FF5E37545
:20322800DC022275DD0075DC022220DE01227409B565028003023300E5667003023300E575
:20324800DB24F75003023300AE677F00ACDB7D00EC2EFEED3FFFAC667D00C3EC9EED648060
:203268008FF063F08095F050030233007F00C3EF95DB5019EF256724D9FDE43402FE8F823F
:20328800758300E0FC8D828E83F00F80E1E5DB2567F567E566B567477420B5661C9002D946
:2032A800E0FFBF03149002D9121EB5E582600A74F355D24408F5D2801C7402B566139002BD
:2032C800D9E0FFBF010B9002DAE0F582122625800475DCCF2275660075DD0075DC48227421
:2032E800F825DB40077565FF75DC0F2263DC8074F055DC4402F5DC2275DD00E56660077526
:2033080065FF75DC0F2275DC022220D903023378E5D9540F6002802CAED95306307F00BE25
:203328000005BF00028013BE2005BF00028010BE303CBF0039122BC88034123232802F12E6
:2033480031A8802AAED953060F7F00BE0120BF001DE5D954306002800512254D8010AED9F5
:203368005306307F00BE2006BF000312253CC2D930D81A121EAE12262C75DC0275D2127504
:20338800E300C2DAC2D9C2D89002F9E4F010DA0122E5DA20E20375D8FF2275E20053E27FC8
:2033A80043E22975E30053E2BF53D1FB75D18043D1012243E10443E10243E10143D81FD2D0
:1E33C800EAD2AF227E007F008EEC8FED7E0A7F008EEE8FEF75D21275EAC075DC022279
:2033E600ABF0A2AFE433FEC2AFE0A37A0833D2B44002C2B47905D9FEC2B4DAF1DBEBEE6035
:0434060002D2AF221D
:20340A00AF82BF800040012275A15575A1AA43B10475A1007585C0EF2FF5849002FAE0F5E4
:20342A008EE58630E60375869A75A15575A1AA53B1FB75A10022AF827585C0EF2FF5847582
:06344A00868E858E8222B1
:06007800E478FFF6D8FD5C
:200056007902E94400601B7A0190376B78FB75A002E493F2A308B8000205A0D9F4DAF275AF
:02007600A0FFE9
:20345000C0D075D00808B8000D09B900090ABA00050BBB00010CD0D032A2AFC2AFA808A95E
:2034700009AA0AAB0BAC0C92AF75F020E8A4A8F075F020E9A428F582A8F075F020EAA428A3
:20349000F583A8F075F020EBA428F9A8F075F020ECA42889F022AE82AF83C374019EE49FAC
:2034B00040022200C374029EFE74009FFF00BE0005BF00020022000000000000000000000B
:2034D000000000000000000EBE00EB0FBF00ED002275A15575A1AA74F855B94406F5B97536
:2034F000A1009013881234A6759E5D759D0074F055894402F58953C9EF758C06C28DD2A9A0
:05351000D28CD2AF22B5
:2035160074FE2581F8E68582F0A4C0E08582F018E6A4F582D0E025F0C58386F0A42583F590
:023536008322EE
:20007E007800E84400600A799475A000E4F309D8FC7867E84402600C7903900094E4F0A3EE
:04009E00D8FCD9FAB7
:0D00490075816F123554E582600302004698
:1C35380020F71430F6148883A88220F507E6A88375830022E280F7E49322E022A2
:04355400758200225A
:00000001FF
