:2000B8007E947F007D007C004305098E828F838DF0EC0233C67F00BF0900500FEF2494F585
:2000D80082E43400F583E4F00F80EC0200B8E582FFC4540FFEEFB40100B39200E4334EF51F
:2000F8008222900266E070079000C1E07001221215FD8582109000C1E0FEE0700885108258
:20011800120EC8AE82EE0303543FFD530503EEC4540FF5119000BDE0FBFA6006EA5401FAF4
:200138006004C2018002D201A201E433F512BD0307740FB511028004C2018002D201A20119
:20015800E433F51378947900E4BD030104FD74015EF5177518007E00BE030040030200B895
:20017800851119751400EE90353D93FB9000C0E02BFB9000C1E06005751401803FE5127015
:200198003BEE24A4FCE43400FF8C828F83E060218E3A851082C006C005C003C001C0001202
:2001B8000EE7858219D000D001D003D005D006800BED6005751401800375190FE514605DB6
:2001D800E5136059BB550050188B077455C39FFF75F003A4F515EB75F003A4F5167C00800E
:2001F8006BBBAA00501E8B02EA24ABFA7515008A077455C39FFF75F003A4F516EA75F003BB
:20021800A4FC8048EB2456FB75F003A4F5157516007455C39BFB75F003A4FC802FE5197511
:20023800F003A42450FB743535F0FF8B828F83E493F5150BBB00010F8B828F83E493F516BC
:200258000BBB00010F8B828F83E493FCE514603BE51745187035851582C006C005C004C061
:2002780001C0001200E68582158516821200E6858216D000D001D0048C82C001C000120049
:20029800E6AC82D000D001D005D00688828983E516F088828983A3E515F088828983A3A3E6
:2002B800ECF0740328F8E439F90E020170AF829000C1EFF0EF7021900266E0701B1200CDF9
:2002D80090009574FFF0123449AC82AD839000C2ECF0EDA3F00200B80200FAAF82C0071223
:2002F8000EC8AE82D007EE0303543FFE5306039000BDE4F0BE0103048001E4FD7003BE02AC
:2003180021ED60067D017E0080070FEFFD3395E0FEED2DFD9000BDF0AF1A74642FFF90007A
:20033800BEF00200FAAE829000BDE0FDE0600C9000BEE0FFEEC39FFE30E70122ED1490000F
:20035800BDF09000BE74642FF00200FA1215C8123449AC82AD83AEF0FFC005C004122878E3
:20037800E582D004D0056038C005C004123449AA82AB83AEF0FFD004D005EAC39CFAEB9D3A
:20039800FBC3EA9464EB94005016C005C004123449122891123449121A00D004D00580B940
:2003B8007E947F007D00BD0300501F8E828F83E4F08E828F83A314F08E828F83A3A3E4F0ED
:2003D80074032EFEE43FFF0D80DC1200B875E200C2AF75890090C35012348690C3501234EF
:2003F8008612380080FEAF82BF030AA2B3B39202E433F58222BF050AA2B2B39202E433FED0
:200418008013EF90353893FFE5905207EFB401009202E433FE8E8222A2B0E43325E0FFA257
:20043800B1E4334FF58222AF82C0071203FEAE82D007EF249DFCE43400FD8C828D83E0FB28
:20045800EEB50302801C8C828D83EEF0EF75F002A424ABF582740035F0F583E51CF0E51D00
:20047800A3F0EF24A4FCE43400FD8C828D83E0FBEEB5030122EF75F002A424ABF582740093
:2004980035F0F583E0FAA3E0FBE51CC39AFAE51D9BFBC3EA940AEB940040658C828D83EEE4
:2004B800F09000C1E0600E758200C007C0061202C5D006D007900266E0700122EE6030BFE3
:2004D800031CC0071215FD120EC8E582D0079000BC5402F09000C2E51CF0E51DA3F0851CC9
:2004F80052851D538F82C00712163AD00780098F82C0071218E5D007BF030050030200FA34
:2005180022120430AF829000B9E0FEEFB50601229000C1E0600A758200C0071202C5D0072D
:200538009000B9E025E025E04F90354093FE9000B9EFF0900266E0700122EE70069000BA4A
:20055800E4F0229000BAE02EF0E0FFC364809484400B9000BAE4F075820102199AC3747CDE
:200578008FF063F08095F0400B9000BAE4F075820002199A22123449AC82AD83AEF07F004B
:20059800EF24FC4056EF249DFBE43400FEEF24A4F9E43400FA8F82C007C006C005C004C034
:2005B80003C002C0011203FEA882D001D002D003D004D005D006D00789828A83E8F08B8297
:2005D8008E83E8F0EF75F002A424ABF582740035F0F583ECF0EDA3F00F80A5C005C004129E
:2005F8000430E582D004D0059000B9F0900266E0700C9000C1E07005F5820202C522C00545
:20061800C0041215C89000BAE4F01215FDE582D004D0059000BBF09000BCE4F09000BDF025
:200638009000BFECF09000C0E4F00200FA121E444390C24392C24393C243B00B740B4596C7
:2006580054EFF59643971B1200CD12058D12250C7582031203FEE582600302036422123451
:2006780049AC82AD83C005C004122891D004D0058C828D83C005C0041222BDD004D0057FFE
:2006980000EF24FC40188C1C8D1D8F82C007C005C00412043FD004D005D0070F80E3C0051C
:2006B800C004120519D004D0058C079000BFE0FEEFC39EFEBE060040589000C1E0FEE060AC
:2006D800068E037E008028900266E0601AC007C005C0041215FD120EC8AA82D004D005D0F2
:2006F800078A017A00800479007A0089038A065303FC7E00BBFC1ABE00179000BFEFF0900F
:2007180000C0E02401F0C005C0041200FAD004D005900266E070319000C1E0702A9000C238
:20073800E0FEA3E0FFECC39EFEED9FFFC3EE94F4EF940140129000C2ECF0EDA3F090009589
:20075800E064FFF00200B8228C828D83C005C004121A001215FDAF82D004D0059000BBE076
:20077800FEB507028035C005C0041215FDE5829000BBF0120430E582D004D0059000B9F012
:200798009000BAE4F09000BBE0FF8C1A8D1B8F82C005C0041202F3D004D0058C828D83C083
:2007B80005C00412033DD004D0059000BCE060219000A7E0601B9000C2E0FEA3E0FFECC3BD
:1207D8009EFCED9FFDC3EC94B8ED940B40030203642297
:1835380002804020100055AA00FF0100010000FFFF0000010001FF008A
:2007EA00AF82BF01067E0F7F0080047E167F008E8222AF82BF01067E037F0080047E067FA5
:20080A00008E8222AF827E007D00C3ED9F500EE56EC39DFC1C8E03EC2BFE0D80EDE56D2E58
:20082A00C39F14F58222AE82AF837CFF7DFF7B00BB06028036BB07028031EB2EF582E43F2A
:20084A00F583E0FAE4F96204EA62057A08ED30E70EEC2CF8ED33F96300216301108006EC81
:20086A002CF8ED33F988048905DAE20BBB800040BF8C828D8322E582FF6020BF0400920398
:20088A004007EF249A92035012BF680092034007EF248C92035004C2038002D203A203E433
:2008AA0033F58222858228858329E5232528F582E43529F583E0FD740F5DFCEDC4540FFDB2
:2008CA00AA237B000ABA00010BEA2528F582EB3529F583E0FBEC24F05003020A64EC240ACF
:2008EA0083F582EC241483F583E473154A4A6F6F6F6F98D0E3304A64289F9F09090909095D
:20090A0009090909090A0A0A090909ED7003EB6004C2048002D204A204E433F58222ED2433
:20092A00FE9204400EEB24FC9204500BBBFD0092045004C2048002D204A204E433F58222B9
:20094A00E525600BBC0203D38001C3920440098B82120880E5827004C2048002D204A2041B
:20096A00E433F58222E525600BBC0503D38001C39204400DED700AEB6007EB24F8920450E4
:20098A0004C2048002D204A204E433F58222ED600475820022E525B4010092048D04E4336E
:2009AA00C364808CF063F08095F09204400BBB8003D38001C392045004C2048002D204A2D2
:2009CA0004E433F58222ED7007EB7004C2048002D204A204E433F58222ED7006C3EB952755
:2009EA004004758200227C007A00C3EA9527502EEAB50307EC600475820122A82679008ACF
:200A0A00067F00EE28F8EF39F9E82528F582E93529F583E0FFE4BF000104FC0A80CCE4BB35
:200A2A00000104F58222ED24FE92044006C3EB95244004C2048002D204A204E433F5822204
:200A4A00ED700AC3EB95245004E5256004C2048002D204A204E433F5822275820022858268
:200A6A002B85832C753500E52A24FE406C852B82852C83E0FCBC4D61852B82852C83A3E0F1
:200A8A00FCBC5055852B82852C83A3A3E0FCBC0248852B82852C83A3A3A3E0FC54F0703949
:200AAA007405252BFAE4352CFB8A828B83E0F920E72789005300017900AD2A7F00E8B505BA
:200ACA0018E9B50714852B82852C83A3A3A3A3A3A3A3A3E0FF54F06004758200228C077416
:200AEA00035F04F52DEC0303543FFC5304037E00A92D7D00C3EC99EE64808DF063F08095B9
:200B0A00F0400475820022852A82C005C003C002C0011207FC85822E852A821207EA8582BD
:200B2A002FD001D002D0038A828B83E0C313FA743F5AF530A82F7A00AC2D7E00C001C004DD
:200B4A00C00688828A831234F6AC82AE8315811581D001D00574092CFCE43EFEA8307A002A
:200B6A00C006C005C004C001C000C0029000031234F6A882AA8315811581D001D004D0050D
:200B8A00D006E82CF8EA3EFA852B82852C83A3A3A3A3E0FE7C0028F8EC3AFA88368A37AB91
:200BAA0036AC37C374809BE49C500475820022852FF0E52DA4FC2409FBE53075F003A42B09
:200BCA00F5318E327403B52E0474018001E4FA753300C3E533952D4003020C9D852FF0E537
:200BEA0033A42409F8753400C004852E3875390074032538FEE43539FFAB347C00C3EB9E1F
:200C0A00EC64808FF063F08095F0D0045060C004E534253488072FF52374012538FEE435AA
:200C2A0039FFAB347C00C3EB9EEC64808FF063F08095F0B39205E433F525852D24853126F7
:200C4A00853227852B82852C83C005C004C002C001C0001208AEE582D000D001D002D00404
:200C6A00D005D0047003F582220534020BF2EA601D7F00740D28F8E43FFFE8252BF582EF36
:200C8A00352CF583E0FF54F06004758200220533020BDC74092CFF8A067C00C3EC95304048
:200CAA0003020D50EF252BF582E4352CF583E0FB30E603020D42EBC4540FF85300037A0036
:200CCA00C3E899EA64808DF063F08095F050698B0053000F7A00EE600875380375390080CF
:200CEA000675380F753900C3E89538EA64808539F063F08095F05040EC6006C3E5359B5084
:200D0A00378F02EA04F523852D24752500853126853227852B82852C83C006C005C004C05C
:200D2A0003C002C0011208AEE582D001D002D003D004D005D0067004758200228B3574033B
:200D4A002AFF0C020CA5E5326026AB317F00AD327E00ED2BFBEE3FFF1BBBFF011FEB252BDD
:200D6A00FBEF352CFF8B828F83E06004758200227F00C3EF95324003020E05AB317E008F6A
:200D8A00047D00EC2BF9ED3EFAE9252BF9EA352CFA89828A83E0605FEC2BF9ED3EFAE92522
:200DAA002BF582EA352CF583E0FABA09028048EC2BF9ED3EFAE9252BF582EA352CF583E0D5
:200DCA00FABA0A028031EC2BF9ED3EFAE9252BF582EA352CF583E0FABA20004016EC2BFBD4
:200DEA00ED3EFEEB252BF582EE352CF583E0FE24815004758200220F020D7CAE36AF378E65
:200E0A00048F05C3EC9480ED9400501AEE252BFCEF352CFD8C828D83E06004758200220E72
:200E2A00BE00DC0F80D9852B82852C83120830AE82AF83852B82852C83A3A3A3A3A3A3E07C
:200E4A00FD8E04B50416852B82852C83A3A3A3A3A3A3A3E0FD8F06B506028004C205800253
:200E6A00D205A205E433F582229000C7E0FF74035F04F582229000C7E00303543FFF74034B
:200E8A005FF582229000C9E0FF74015FF5820207FC9000CCE0FF740F5F75F005A4F5822204
:200EAA00AF829000C9E0FE74015EF582C0071207EAE582D007F5F0EFA42409F58222E582C9
:200ECA0004F582120EAAAF827E001FBFFF011EEF24C4F582EE3400F583E0F58222AF82C0C6
:200EEA0007120E8EAE82C006120E73AD82D006D007C3EF9D5006C3E53A9E40047582062246
:200F0A008F82C006120EAAAF82D006E4FDFC74032EFEE43CFCEE2EFEEC33FCEE2FFFEC3D09
:200F2A00FDE53AC3137C002FFFEC3DFDEF24C4F582ED3400F583E0FFE53A30E009EFC454E0
:200F4A000FFD7E0080087C00740F5FFD7E008D8222AF82C007120E73AE82D007C3EF9E5039
:200F6A0025C007120E8EAE82D0077D0074032EFEE43DFDAB3B7C00C3EB9EEC64808DF0632A
:200F8A00F08095F0400BE53CF87600E53DF87600228F82120EAAAF82E53B253B2FFEA93C28
:200FAA0024C4F582E43400F583E0F7A93D7F000EBE00010FEE24C4F582EF3400F583E0F761
:200FCA0022AF82C007120E8EAE829000C9E0C313FD743F5DF542C006120E73120EAAAC826B
:200FEA00D006D007E53FB53E028022C3E53E9E501CC3E53F9E5016C007C006C004120E73C0
:20100A00AB82D004D006D007C3EF9B400475820022C3E53F953E5007AB3E853F3E8B3FEFB9
:20102A00C454F0FF853F6D8E6E853E82C007C00412080EAE82D004D007EE4207754300C3ED
:20104A00E54395425064EC24C4F582E43400F583E0FBB50702801753038F7A008F0553057D
:20106A000F7E00430580EBB50536EAB50632A9408C057E0074012DFAE43EFBEA24C4F58265
:20108A00EB3400F583E0F7A94174022DFDE43EFEED24C4F582EE3400F583E0F77582012257
:2010AA0005438C0674032EFC809575820022AF82E5442FFEC39F400A9000C8E0FFC3EE9FC3
:2010CA00400475820022C006120E73120EAAAF82D0069000C9E0C313FD743F5D75F003A457
:1910EA002FFDE4FFFCEE2DFDEC3FFFED24C4F582EF3400F583E0F5822240
:20355000FF0000FF1607FF1000FF4200FF7C003CFF0064C8141D7B4300FFC8005BFF0000FE
:10357000FF7300B4FF00C2FF0048FFFFFF00000020
:20110400AF827408B54602800EE56E6034AE46C3EE64809481402AE56E6012900198E0FED8
:20112400BEFF028018900198EE04F08010900197E0FEBEFF028006900197EE04F07582006D
:2011440022900195E075F002A42485F582740135F0F583EFF0900195E075F002A42485FE8F
:20116400740135F0FF8E828F83A3E56DF0900195E0045407F00546758201227F007E00EE26
:201184002460F582E43401F583E0FD42070EBE090040EC7E00EE2452FCE43401FD8C828D09
:2011A40083E06025EE2444F582E43401F583E0FD53050F7C00BD0511BC000EEE244BF582B4
:2011C400E43401F583E0FD42070EBE070040C6E54C600790019CE0FE42078F8222AF82C06B
:2011E4000712117FAE82D007BF0E09E54EFC3395E0FD80047C007D00BF0F09E54EFD339545
:20120400E0FF80047D007F008D608C5F7561008E820227E3E582FF7004758201227E02EE3F
:201224002471FCE43401FD8C828D83E0FBB5070475820122EB700A8C828D83EFF0758201D6
:20124400220EBE080040D8758200227F007E00EE2471F582E43401F583E4F00EBE080040F3
:20126400EE7E00EE2452FCE43401FD8C828D83E06040EE2444F582E43401F583E0FDFB5361
:20128400030F7C00BB022BBC0028900171E0FCEDC4540F4204900171ECF0EE244BF582E422
:2012A4003401F583E0F582C007C006121218D006D0070EBE070040AB90019D7401F0E54C2E
:2012C400603B90019AE0FE53060F7D00BE012EBD002B90019BE0F582C007121218AE82D026
:2012E4000790019DEEF0EE6014900171E0FE90019AE0C4540FFD4206900171EEF07E00EED2
:201304002471F582E43401F583E0FDEE2469F582E43401F583E0FCEDB5040280027F010E38
:20132400BE080040DAEF602E900171122739E5827003F582227F00EF2469FDE43401FEEF67
:201344002471F582E43401F583E0FC8D828E83F00FBF080040E112117FE582FFB545028085
:201364001B755F007560007561008F82C0071227E3E582D0077003F582228F4575820122A3
:20138400AF8274FFB54902800D8549477549FFC007121469D0078F0553050F7E00BD0004DF
:2013A400BE000122BD0204BE000122BD0504BE000122BD0605BE00028017BD0A05BE000252
:2013C400804DBD0B04BE000122BD0D4EBE004B801AE5512460FDE43401FE8D828E83E0FC0A
:2013E400E54F62048D828E83ECF022E54F6036C007120E73AE82D007E54F2547FD240CF544
:201404004FC3E54F9E4008E54FC39EF54F80F2EF30E403854749854F4722854F6D85506E75
:201424008F8202110422900180E0FFE07001221F900180E4F0EF2452F582E43401F5837416
:2014440001F0EF2444F582E43401F583E0FEEF244BF582E43401F583E0F54F7550008F512B
:201464008E82021384AF477E007D00ED2452FBE43401FC8B828C83E06035ED2444F582E41A
:201484003401F583E0FC53040F7B00BC0B21BB001EED2459F582E43401F583E0FCC39E402E
:2014A4000E8C06ED244BF582E43401F583E0FF0DBD070040B6EFB54801228F487F00EF2406
:2014C40060F582E43401F583E4F00FBF090040EE754600900195E4F0900196F0AE4A5306AA
:2014E4000F7F00BE0812BF000F7404B54B0280057405B54B03754D01754A00754B00754C36
:201504000090019CE4F012142A021469120E7F8582478547487549FF900180E4F09001794A
:20152400F0900197F0900198F07F00EF247AF582E43401F583E4F00FBF060040EE90019576
:20154400E4F0900196F0F546F54AF54BF54D9001A2F0F54C90019CF0F545122669E582904D
:201564000184F07F00EF2452F582E43401F583E4F0EF2459F582E43401F583EFF0EF244488
:20158400F582E43401F583E4F0EF244BF582E43401F583E4F00FBF070040CA7F00EF246060
:2015A400F582E43401F583E4F00FBF090040EE7F00EF2469F582E43401F583E4F00FBF0899
:2015C4000040EE2212267012151090016974FFF0F545900000122869E582B401009206E476
:2015E40033F54D02124FE5826007900198E0FF8005900197E0FF8F822285488222E582247E
:2016040059FEE43401FF8E828F83E0FD7C00EC2459FAE43401FB8A828B83E0F9C3ED9950D9
:2016240007198A828B83E9F00CBC070040E08E828F837406F022AF82C007120E8E858256F3
:20164400D007C3E5569F40248FF005F07C017D008006EC2CFCED33FDD5F0F7900179E0FBE8
:20166400F97A005204EA5205EC4D6001228F058DF005F07401800225E0D5F0FB9001794B89
:20168400F0C3EF9556E433FC6010EF247AFAE43401FB8A828B83E0600122900180E0FBE052
:2016A40070030217B8EC700874FFB549030217B81BEC70030217A6900182E0F9A3E0FAE5B2
:2016C40052C399F9E5539AFAC007C005C004C003C002C001120E9BA882D001D002D003D0D2
:2016E40004D005D0077E00C3E998EA9E40030217A6900181E0FE7540547541558B3E8F3F4F
:201704008E82C007C005C004C003120FCBE582D003D004D005D00770030217A6900180E4D5
:20172400F0EB247AF582E43401F583ED04F0EF247AF582E43401F5838B060EEEF0EB2444DE
:20174400F582E43401F583E554F0EB244BF582E43401F583E555F0EF2444F582E43401F5EC
:2017640083E4F0EF244BF582E43401F583E4F0EF2452F582E43401F583E4F0EB2452F582BB
:20178400E43401F5837401F08B82C003121601D00385554F7550008B5185548212138402B3
:2017A4001469C007C005C00412142A121469D004D005D007753C54753D558F3B854882C014
:2017C40007C005C004120F5BD004D005D007EF2444FBE43401FE8B828E83E554F0EF244B6B
:2017E400F9E43401FA89828A83E555F08F82C007C006C005C004C003C002C001121601D031
:2018040001D002D003D004D005D006D007EC6071C007C006C005C003C002C001120E9BE5D3
:2018240082D001D002D003D005D006D00760527C00C3EC9556504A7540547541558F3E8C5B
:201844003F854882C007C006C005C004C003C002C001120FCBE582D001D002D003D004D02D
:2018640005D006D0076017900180ED04F0900181E548F0900182E552F0E553A3F0220C8067
:20188400B0EF2452F582E43401F5837401F08B828E83E0FB89828A83E0F54F7550008F51E8
:2018A4008B82121384021469E582FF2444F582E43401F583E0FE53060FEF2452FDE4340158
:2018C400FF8D828F83E06018BE02028003BE05067C027E0080047C007E008D828F83ECF007
:2018E40022AF82C007120E8EAE82D007C3EE9F5001228F068EF005F07401800225E0D5F089
:20190400FBF4FE900179E05EF08F057E000DBD00010E900180E07B00B5050EEBB5060AC00F
:201924000712142A121469D0078F82C0071218AC120E8EAE82D007C3EF9E5057EF247AFE01
:20194400E43401FF8E828F83E0FD60471D8D82C007C006C0051218ACD005D006D0078DF072
:2019640005F07B017C008006EB2BFBEC33FCD5F0F7900179E0F97A005203EA5204EB4C706F
:20198400128E828F83E4F0ED247AF582E43401F583E4F0021469AF82C007120E8EAE82D0AF
:2019A40007EF60067C017D0080047C027D00EC2EFE900180E0601574FFB54902800EC00708
:2019C400C00612142A121469D006D007753C57753D588E3B854882C007120F5BD007EF601E
:2019E400067E077F0080047E087F008E5185584F755001855782121384021469AE82AF8397
:201A0400900180E0603B900182E0FCA3E0FDEEC39CFCEF9DFDC007C006C005C004120E9B24
:201A2400AB82D004D005D006D0077A00C3EC9BED9A400EC007C00612142A121469D006D074
:201A440007C007C006122669AD82D006D007900184E0FCB505028019C007C006122669E518
:201A640082D006D007900184F090016974FFF0F545E54D6018900000C007C006122869E548
:201A840082D006D0076005754D00800122C007C00612124FE582D006D007700122E54A7003
:201AA40026E5467022C007C006122878AD82D006D007ED70128E059001A2E0FCEDC39CFDCA
:201AC400BD080092075004C2078002D207A207E433FD60059001A2EEF07C00EC2452F582A4
:201AE400E43401F583E0FBBB0251EC2444F582E43401F583E0F953010F7A00B9022FBA00B2
:201B04002CEC244BF582E43401F583E0FA601E7902E92469F582E43401F583E0F8B5020250
:201B2400800609B9080040E9B908028051EC2452F582E43401F583E4F08043ED6040EB60BB
:201B44003DEC2444F582E43401F583E0FBF95301FE7A00B91E28BA002553030FEC244BF5B5
:201B640082E43401F583E0F54E8B82C007C006C005C0041211E1D004D005D006D0070CBCE6
:201B840007005003021ADFC007C00612124FE582D006D007700122E54A7054E546605090E7
:201BA4000196E0FD75F002A42485FB740135F0FC8B828C83E0F54A8B828C83A3E090019964
:201BC400F0ED049001965407F01546754B0090019FE4F0AC4A53040F7D00BC0409BD00062A
:201BE4007C027D0080047C017D0090019EECF0E54A700122E54A540FFDE54B6003021D67F3
:201C0400C007C006C005122878E582D005D006D007600122BD0756900199E0FC7003F54A7E
:201C240022C00412117FAB82D004EC33E433FA600678FF79FF8004780179008861755F005F
:201C44007560008B82C004C0021227E3E582D002D004700122EA6005EC04FB8003EC14FBA4
:201C6400900199EBF0EB600122754A0022BD0E028003BD0F21900199E0F54E8D82C007C0EC
:201C8400061211E1E582D006D0077001229001A2EEF0754A0022BD082BAB4AE4CBC4540FE2
:201CA4006BCB540FCB6BCB8B047B00900199E07A004BF582EA4CF583122869E582700122EB
:201CC400754B042290019AE54AF0900199E0FC90019BF090019CE4F0BD094890019FE0F59A
:201CE400448C82C007C0061210B8AC82D006D007EC7003F54A228C82C007C006122A66ACA3
:201D040082D006D007EC30E7067A207B0080047A007B0090019A74014AF090019B747F5CA4
:201D2400F08010BD03028003BD0408900199E090019CF0754C01C007C00612124FE582D0F1
:201D440006D007600690019DE07001228E038F0474082BFBE43CFC9001A0EBF0ECA3F075B9
:201D64004B01227401B54B289001A0E0FBA3E0FCEEC39BEF9C30E70122122878E58260013E
:201D840022754C0012124FE582700122754B02227402B54B46C007C006C005122878E582E4
:201DA400D005D006D007600122BD090B90019FE02401F0754B002290019EE014F0E06017D8
:201DC4008E048F0574C82CFCE43DFD9001A0ECF0EDA3F0754B0322754A00227403B54B3756
:201DE4009001A0E0FCA3E0FDEEC39CFCEF9DFD20E74D754C01C007C00612124FE582D0062D
:201E0400D007603B74082EFEE43FFF9001A0EEF0EFA3F0754B01227404B54B15122878E5EA
:201E240082701C900000122869E5826012754B05227405B54B09122878E5827002F54A222F
:201E44007F00EF24C4FDE43400FE8F82C007C006C0051223A2AC82D005D006D0078D828E8E
:201E640083ECF00FBF800040D9752A019000C4120A68AF82900265EFF0900266EFF09002B0
:201E840063E4F0900267F0900264F0229002647401F022AE82AF83900263E07006900264F6
:201EA400E06004758200227D00ED24A3FBE43401FCED2EF582E43FF583E08B828C83F00D5A
:201EC400BD200040E49002637401F0758201229001A7E0FF9001A9E0F5599001AAE0F55AA0
:201EE4009001A3E0FCBC03169001A4E0FCBC550E9001A5E0FCBC4D069001ABE06004758231
:201F040004229001A6E0FCBC0102800475820122E55A24E8500475820322BF05028003BF64
:201F24000606AB5A7C0080047B007C0074092BFCBC20005016EC24A3FAE43401FB8A828B57
:201F440083E06004758204220C80E5E4BF030104FC7008BF04028003BF061EE55A6016AA7F
:201F64005A7B00A8597900EA28F8EB39F9C3748098E499503175820322E5596003BF0922F3
:201F8400BF05117403B55A03D38001C3B39208E433FB800BE55AB40100B39208E433FBEBA0
:201FA400600475820322EF24F650030222B5EF240A83F582EF240E83F583E473B5D42D9098
:201FC40090F528E9AE8F221F20202020212122229001CA740EF09001CC7455F09001CD742E
:201FE4004DF09001CE7441F09001CF7443F09001D07401F09001D104F09001D214F0900181
:20200400D37403F0E0FF9001D4F09001D57404F09001D67480F09001D77403F09001D87489
:20202400FFF09001D9F00222B99001CA7406F0900265E09001CCF0900266E060091215FD28
:20204400AB827F0080047B007F009001CDEBF0900266E06009120E7FAB827F0080047B008E
:202064007F009001CEEBF0900267E09001CFF07582001215EAAF829001D0EFF075820112F7
:2020840015EAAF829001D1EFF00222B99001CAE55AF0755B00C3E55B955A40030222B9ABD7
:2020A4005B74092BFB3395E0FAEB24C3FBEA3401FAEC6019E55B2559F582C004C003C002B3
:2020C4001223A2A982D002D003D004801AA8597F00AD5B7E00ED28F8EE3FFFE824C4F58261
:2020E400EF3400F583E0F98B828A83E9F0055B80A49001ACE0FFBF80028004758203229064
:2021040001ADE0FF9001AEE0FD7E007C00900269EE4FF0ED4CA3F0900268E4F09002670459
:20212400F00222B9900267E0FFBF0102800475820522900268E0FFB559028063AD5A7E0041
:20214400AB597C00ED2BFBEE3CFC7E00C3EF9BEE9C500475820A227F00C3EF955A40030291
:2021640022B9AD597E008F037C00EB2DFDEC3EFEED24E3F582EE3401F583E0FE8F057409BC
:202184002DFD3395E0FCED24A3F582EC3401F583E0FDEEB50502800475820A220F80BA7FB3
:2021A40000C3EF955A5034AD597E008F037C00EB2DFDEC3EFEED24E3FDEE3401FE8F04740E
:2021C400092CFC3395E0FBEC24A3F582EB3401F583E0FC8D828E83F00F80C6900268E02525
:2021E4005AF00222B9900267E0FFBF02030222B9BF010A900268E0FFBF80028004758205D7
:20220400229001E3120830AE82AF83900269E0FCA3E0FDEEB5041AEFB505169001E9E0FD4A
:202224008E04B5040C9001EAE0FD8F06B50602800475820722752A019001E3120A68E582F6
:202244007004758206229001E3122418AF82900265EFF0EF7004758209227F00EF24C4FD46
:20226400E43400FEEF24E3F582E43401F583E08D828E83F00FBF800040E29002667401F089
:2022840012058D9002677402F0802AE5596013AE595306067F00BE0405BF000280047582F4
:2022A40003228559821202C5800B900267E4F080047582022275820022AE82AF8390026454
:2022C400E06014900267E4F0900263F012058D900264E4F00225E7900267E0601D90026B25
:2022E400E0FCA3E0FDEEC39CFCEF9DFDC3EC9488ED94134005900267E4F0900263E07001F5
:2023040022900263E0FDBD010280030223887D00ED24C3F582E43401F583E4F00DBD2000BE
:2023240040EE9001C37404F09001C47455F09001C5744DF09001C67401F09001A7E0900135
:20234400C7F09001A8E09001C8F09001A9E09001C9F0C007C006121ED3AD82D006D0079000
:2023640001CBEDF0ED70179001A7E0FDBD0500400DED24F7400890026BEEF0EFA3F09002D9
:1D238400637402F0900264E070129001C3122566E5826008900263E4F00225E72262
:2023A200023420AF82C0071223A2AE82D007EEB51E028019A2AF9209C2AF9002FAE51EF0B7
:2023C2008F82C0071233EAD007A20992AF8F821223A2E582B51E0474018001E4F58222AEEA
:2023E20082AF837D008D82C007C006C0051223A2AC82D005D006D007ED2EF582E43FF58395
:20240200E0FBECB503028004758200220DBD800040D375820122AE82AF83C007C006122301
:20242200E1E582D006D007600475820122751E00758200C007C0061223A5E582D006D00722
:202442006015751E00758201C007C0061223A5E582D006D0077004758200227D02ED2EF5E3
:2024620082E43FF583E0F51E8D82C007C006C0051223A5E582D005D006D0077003F582221A
:202482000DBD800040D7751E50758201C007C0061223A5E582D006D0076015751E4D758237
:1B24A20000C007C0061223A5E582D006D0077004758200228E828F830223E1EF
:04000000020049327F
:03000B000234308C
:0100130032BA
:01001B0032B2
:0100230032AA
:01002B0032A2
:01003300329A
:01003B003292
:030043000224BED6
:0E00A2007808E4F608F608F608F6780C760002
:0300B40002004601
:030046000224FD94
:2024BE00C022C0E0C0F0C082C083C007C006C005C004C003C002C001C000C0D075D0001244
:2024DE0032F2D0D0D000D001D002D003D004D005D006D007D083D082D0F0D0E0D022321233
:0E24FE0034C112064512067680FB758200225C
:20250C001233821233AC12339B75DD0075D3002275D30074FC55D24402F5D29002FCE4F00D
:20252C002230DE357402B5DB1190000AE0FFBF010990000BE09002FBF0227420B5DB1A90E9
:20254C00000AE0FFBF031290000A121E97E582600874F355D24408F5D222D310AF01C3C0A9
:20256C00D0AE82AF839002C17401F09002F9E0601F9002FCE070199002BFE060069002C299
:20258C00E0600DACD25304037D00BC0308BD000575820080417D008D037C0074402BFBE405
:2025AC003CFCEB240AFBEC3400FCED2EF582E43FF583E0FA8B828C83F00DBD200040D89002
:2025CC0002C1E4F09002C2F075D3209002FC04F053D2FC758201D0D092AF22D310AF01C3B8
:2025EC00C0D0AED253060C7F00BE0C05BF0002800353D2F3D0D092AF22E5829002FBF022A7
:20260C009002C3E4F09002C4F09002C5F09002C6F09002C7F09002CCF0A3F09002CAF0A397
:20262C00F09002C8F0A3F07F00EF24CEF582E43402F583E4F00FBF080040EE9002D6E4F044
:20264C009002D7F0A3F09002FCF09002C0E02401F09002C1E4F09002C2F00226709002C068
:20266C00E0F58222D310AF01C3C0D09002BFE4F09002BDF09002BEF0D0D092AF22AF829087
:20268C0002BFE0FEBE080280069002F9E07004758200229002BDE024B5F582E43402F58338
:2026AC00EFF09002BDE0FF0F74075FF09002BFE02401F075820122AE82AF839002BFE0FD38
:2026CC00BD080280069002F9E07004758200229002BDE075F009A4246DF582740235F0F5D0
:2026EC00837401F07D009002BDE075F009A4246DFB740235F0FC8D02EA042BFBE43CFCED59
:20270C002EF9E43FFA89828A83E08B828C83F0ED24CEFBE43402FC89828A83E08B828C8361
:20272C00F00DBD080040BF758209022689D310AF01C3C0D01226C3D0D092AF22AF82900274
:20274C00BFE0FEBE080280069002F9E07004758200229002D6EFF09002BDE075F009A424DE
:20276C006DF582740235F0F5837402F09002BDE075F009A4246DFD740235F0FE8D828E8368
:20278C00A3EFF09002BDE075F009A4246DFE740235F0FF8E828F83A3A3E55CF09002BDE079
:2027AC0075F009A4246DFE740235F0FF8E828F83A3A3A3E55DF09002BDE075F009A4246DC3
:2027CC00FE740235F0FF8E828F83A3A3A3A3E55EF0758205022689D310AF01C3C0D0855FFD
:2027EC005C85605D85615E122748D0D092AF22AE82AF839002BFE0FDBD080280069002F9FF
:20280C00E07004758200229002D7EEF0EFA3F09002BDE075F009A4246DF582740235F0F59D
:20282C00837405F09002BDE075F009A4246DFC740235F0FD8C828D83A38E05EDF09002BDBA
:20284C00E075F009A4246DFC740235F0FD8C828D83A3A38F06EEF0758203022689D310AF41
:20286C0001C3C0D01227FBD0D092AF229002BFE0700A9002FCE07004C20A8002D20AA20A5E
:20288C00E433F58222D310AF01C3C0D0AE82AF839002BFE060030229869002C7E0FD0D7537
:2028AC006200BD01079002C3E0FB8011BD02079002C5E0FA80059002C6E0FA8A03BD010A21
:2028CC009002C8E0F9A3E0FA8019BD020A9002CAE0F8A3E0FC80089002CCE0F8A3E0FC8862
:2028EC00018C028904EB7003022973EEC39CFCEF9AFA8B017B00E929F9EB33FBE929F9EBC7
:20290C0033FBC3EC99EA9B405EBD03067B007C0080048D037C009002C7EBF0BD0110900231
:20292C00CEC007C0061226C3D006D007804CBD021D9002D6E0FC755C00755D00755E008C9A
:20294C0082C007C006122748D006D007802C9002D7E0FBA3E0FC8B828C83C007C0061227DD
:20296C00FBD006D00780130DED24FC50027D01056274FD256240030228AE9002F9E06025BC
:20298C009002FCE0701F9002BFE060199002C1E060069002C2E0700DACD25304037D00BC29
:2029AC000306BD0003022A617D009002BEE0FC24B5F582E43402F583E0FBC3ED9B50328DF5
:2029CC00027B0074402AFAE43BFBEA240AFAEB3400FBEC75F009A4246DF8740235F0F9ED48
:2029EC0028F582E439F583E0F98A828B83F00D80B9EC75F009A4246DF582740235F0F58355
:202A0C00E0FDBD010A9002C8EEF0EFA3F08018BD020A9002CAEEF0EFA3F0800BBD05089049
:202A2C0002CCEEF0EFA3F09002C27401F09002BEE0FF24B5F582E43402F583E0F5D30F904B
:202A4C0002BE74075FF09002BFE014F09002FC7401F053D2FCD0D092AF22AF82BF800040E4
:202A6C000475820022EF90358093F58222E582FF7017AE6D9002C4EEF09002C6EEF09002C9
:202A8C00C5EEF09002C3EEF022BF01079002C3E56DF022BF02079002C5E56DF022BF050665
:202AAC009002C6E56DF022E582FF70079002C4E0F58222BF01079002C3E0F58222BF020745
:202ACC009002C5E0F58222BF05079002C6E0F5822275820022AF82AD6EAE6F8D828E83EFED
:202AEC00F0BF0143E56D601474012DFBE43EFC9002FBE08B828C83F0758202227C008C02B8
:202B0C007B000ABA00010BEA2DFAEB3EFBEC24CEF582E43402F583E08A828B83F00CBC0888
:202B2C000040DB75820922E56D7039BF023674012DFBE43EFC9002D6E08B828C83F07402D5
:202B4C002DFBE43EFC74032DF9E43EFA8D828E83A3A3A3A3E4F089828A83F08B828C83F0D6
:202B6C0075820522E56D702FBF052C74012DFCE43EFF9002D7E0FAA3E08C828F83EAF07457
:1B2B8C00022DFDE43EFE9002D7E0A3E0FC8D828E83ECF07582032275820022E9
:2035800000000000000000002A2B28000000000000000000000000000000000000000000AE
:2035A0002C9EB4A0A1A2A434A6A7A5AE362D3738271E1F20212223242526B333B62EB7B8CE
:2035C0009F8485868788898A8B8C8D8E8F909192939495969798999A9B9C9D2F3130A3ADBF
:2035E000350405060708090A0B0C0D0E0F101112131415161718191A1B1C1DAFB1B0B50024
:02374300000084
:20360000120110010000000809125DC500010102030105010906A1018501050719E029E7E7
:203620001500250195087501810295017508810395067508150026FF000507190029E7811A
:203640000005081901290515002501950575019102950175039103C005010902A101090118
:20366000A100850205091901290315002501950375018102950175058103050109300931F5
:2036800009381581257F750895038106C0C00600FF0901A10185030902150026FF00750898
:2036A000951F910285040903951F8102C0050C0901A1018505150026FF0F19002AFF0F75E1
:2036C0001095018100C009022900010100806409040000020300000009211001000122B4C5
:2036E000000705810320000A0705010320000A040309041C03430048003500350078002016
:20370000006B006200640020006D006F007300260355006E00690076006500720073006193
:20372000006C0020004D006100630072006F007000610064000E0344006500710069006ED4
:033740000067001F
:0300B000756B006D
:202BA800AFDB7D007E008E66BF080280030230CF900007E0FC7F00900006E0FB7A004FF526
:202BC80063EA4CF5648F6C900001E0F5658F6B900000E0FC54607003022D81900000E0FC8C
:202BE8005304607B00BC2005BB00028011BC4005BB00028003022D7B756CFF0230D290000D
:202C080004E07006900005E06006756CFF0230D27409B5653F900000E0FCBC2137900003AA
:202C2800E0FCBC022F900002E0FCBC030CAB63AC64BB2005BC00028012900002E0FCBC0111
:202C480013AB63AC64BB020CBC00098563667567000230D2740AB56551900000E0FCBC214D
:202C680049E56345647043900002E0601C900002E0FCBC01028012900002E0FCBC02028004
:202C880008900002E0FCBC05219002F9E0601B900002E0FC900003E0F56D8C82C006C00512
:202CA800122A79D005D0060230D27402B5655E900000E0FCBCA156900002E0601C9000021B
:202CC800E0FCBC01028012900002E0FCBC02028008900002E0FCBC0534900003E0702EABEA
:202CE80063AC64BB0127BC00249002F9E0601E900002E0F582C006C005122AB3AC82D00547
:202D0800D006900000ECF0756C010230D27401B5655B900000E0FCBCA153900003E0FCBC52
:202D280001028008900003E0FCBC02419002F9E0603B900002E0FC900003E0FBE4BB02010E
:202D480004F56D756ED9756F028C82122AE1AC828C057E00ED4E600F7568D9756902756ADC
:202D6800007565060230D2756CFF0230D2756CFF0230D2756CFF0230D2E56524F450030204
:202D880030CAE565240B83F582E565241083F583E4731999CA99CA93B2CAA0BE0707302F35
:202DA800302F302E2D302E2E2F2F900003E0FCBC01028019BC02028024BC0302802FBC21BF
:202DC80003022E5BBC2203022E6B022E8D756800756936756A807D127E000230D27568C620
:202DE800756936756A807D297E000230D2900002E0700B7568EF756936756A80803F9000B5
:202E080002E0FCBC010B756835756937756A80802C900002E0FCBC020B75680F7569377525
:202E28006A808019900002E0FCBC030B7568F3756936756A808006756CFF0230D2AA68AB65
:202E480069AC6A8A828B838CF0123518FAFD7E000230D27568D8756936756A807D097E0051
:202E68000230D2900002E07016756812756936756A809036DFE493FDA3E493FE0230D27542
:202E88006CFF0230D2756CFF0230D2900002E0FC8C637564000230D29002F9E0900000F0B2
:202EA800AB63AC64C3EB9401EC940050030230D2756C010230D2900000E07021900003E078
:202EC800701B900002E0FC24FE4012900004E0700C900005E07006E56345646006756CFF6B
:202EE8000230D2900002E09002F9F0C006C00512260C121E90D005D00675D2120230D290B2
:202F08000004E07075900005E0706F900002E07069900003E070639002F9E0605D740AB5A0
:202F2800650474018001E4FC602C900000E0FBBB8103D38001C3920B5013AA63AB64BA0126
:202F480006BB0003D38001C3920B100B02D20BA20BE433FB8021900000E0FABA0103D3801C
:202F680001C3920B500AE56345647004C20B8002D20BA20BE433FBEB6006756CFF0230D209
:202F8800EC70030230D2900000E4F0756C010230D2900000E0FCBC0218900002E0701290B6
:202FA8000003E0700C900005E07006E56345646006756CFF0230D2900004E0FCBC8129743A
:202FC80003B5650B74FC55D24403F5D20230D274BC55D24402F5D2C006C00512260C121EB5
:202FE80090D005D0060230D2900004E0FCBC011B747355D2FC7403B565067A0C7B0080041C
:203008007A007B00EA4CF5D20230D2756CFF0230D2900004E0FD7E00900000E0FCBC824DE8
:203028008D038E04BB8117BC0014A9D2530103E4FAB90304BA000104F9FD7E00804ABB011A
:2030480017BC0014A9D253010CE4FAB90C04BA000104F9FD7E008030ED4E6006BB8009BC7B
:2030680000067D007E008020756CFF805D900000E0FCBC80028008900000E0FCBC8104ED1E
:203088004E6005756CFF8042900005E0700C900002E07006900003E06005756CFF802B8D0A
:2030A80004900000ECF0900001E4F0AB63AC64C3EB9402EC94004005756C02800D85636C48
:2030C8008008756CFF8003756CFF74FFB56C02806F7406B5656AC3ED9563EE956450048D2A
:2030E800638E64AD63AE64C3ED9408EE9400920B40067B087C008004AB63AC648B6C7C008C
:20310800C3EC956C50208C027B00EC2568F8E43569F9AF6A888289838FF0123518F88A8281
:203128008B83F00C80DAAC6C7F00EDC39CFDEE9FFE8D638E64E56C2568F568E43569F569BB
:2031480074FFB56C077565FF75DCCF22E56C24F74017856CDDE56660067E027F0080047E6E
:20316800007F0074C04EF5DC2275DD00E56660067E027F0080047E007F0074C04EF5DC225B
:203188007405B56502806E7406B56502800302320BAE63AF64C3EE9408EF9400920C400674
:2031A8007C087D008004AC63AD648C6D7D00C3ED956D50208D027B00ED2568F8E43569F9D3
:2031C800AC6A888289838CF0123518F88A828B83F00D80DAAC6D7D00EEC39CFEEF9DFF8E7D
:2031E800638F64E56D2568F568E43569F569856DDD63DC4022E5E35480FFE5634FF5E37566
:20320800DC022275DD0075DC022220DE01227409B5650280030232E0E56670030232E0E5D7
:20322800DB24F750030232E0AE677F00ACDB7D00EC2EFEED3FFFAC667D00C3EC9EED6480A1
:203248008FF063F08095F050030232E07F00C3EF95DB5019EF256724D9FDE43402FE8F8280
:20326800758300E0FC8D828E83F00F80E1E5DB2567F567E566B567477420B5661C9002D966
:20328800E0FFBF03149002D9121E97E582600A74F355D24408F5D2801C7402B566139002FB
:2032A800D9E0FFBF010B9002DAE0F582122605800475DCCF2275660075DD0075DC48227461
:2032C800F825DB40077565FF75DC0F2263DC8074F055DC4402F5DC2275DD00E56660077546
:2032E80065FF75DC0F2275DC022220D903023358E5D9540F6002802CAED95306307F00BE66
:203308000005BF00028013BE2005BF00028010BE303CBF0039122BA88034123212802F1246
:203328003188802AAED953060F7F00BE0120BF001DE5D954306002800512252D8010AED955
:203348005306307F00BE2006BF000312251CC2D930D81A121E9012260C75DC0275D2127582
:20336800E300C2DAC2D9C2D89002F9E4F010DA0122E5DA20E20375D8FF2275E20053E27FE8
:2033880043E22975E30053E2BF53D1FB75D18043D1012243E10443E10243E10143D81FD2F0
:1E33A800EAD2AF227E007F008EEC8FED7E0A7F008EEE8FEF75D21275EAC075DC022299
:2033C600ABF0A2AFE433FEC2AFE0A37A0833D2B44002C2B47905D9FEC2B4DAF1DBEBEE6055
:0433E60002D2AF223E
:2033EA00AF82BF800040012275A15575A1AA43B10475A1007585C0EF2FF5849002FAE0F505
:20340A008EE58630E60375869A75A15575A1AA53B1FB75A10022AF827585C0EF2FF58475A2
:06342A00868E858E8222D1
:06007800E478FFF6D8FD5C
:200056007902E94400601B7A0190374378FB75A002E493F2A308B8000205A0D9F4DAF275D7
:02007600A0FFE9
:20343000C0D075D00808B8000D09B900090ABA00050BBB00010CD0D032A2AFC2AFA808A97E
:2034500009AA0AAB0BAC0C92AF75F020E8A4A8F075F020E9A428F582A8F075F020EAA428C3
:20347000F583A8F075F020EBA428F9A8F075F020ECA42889F022AE82AF83C374019EE49FCC
:2034900040022200C374029EFE74009FFF00BE0005BF00020022000000000000000000002B
:2034B000000000000000000EBE00EB0FBF00ED002275A15575A1AA74F855B94406F5B97556
:2034D000A100901388123486759E5D759D0074F055894402F58953C9EF758C06C28DD2A9E0
:0534F000D28CD2AF22D6
:2034F60074FE2581F8E68582F0A4C0E08582F018E6A4F582D0E025F0C58386F0A42583F5B1
:0235160083220E
:20007E007800E84400600A799475A000E4F309D8FC7867E84402600C7903900094E4F0A3EE
:04009E00D8FCD9FAB7
:0D00490075816F123534E5826003020046B8
:1C35180020F71430F6148883A88220F507E6A88375830022E280F7E49322E022C2
:04353400758200227A
:00000001FF
