:2000B8007E947F007D007C004305098E828F838DF0EC0233B67F00BF0900500FEF2494F595
:2000D80082E43400F583E4F00F80EC0200B8E582FFC4540FFEEFB40100B39200E4334EF51F
:2000F8008222900266E070079000C1E07001221215E38582239000C1E0FEE070088523824C
:20011800120E99AE82EE0303543FFD530503EEC4540FF5249000BDE0F525740FB5241B9083
:2001380000C1E06008E4BD030104FA800AEDB40100B39201E433FAEA7004C2018002D20102
:20015800A201E433F52678947900E4BD030104F52A74015525F52BE4F52CBD020104FD741C
:20017800015EF52D752E007E00BE030040030200B885242F752700EE90352D93FB9000C0D5
:20019800E02BFB9000C1E060057527018061E5256014752701ED6057E52B452C6051752F98
:2001B8000F7527008049EE24A4FAE43400FF8A828F83E0602B8E49852382C006C005C00314
:2001D800C001C000120EB8AF82D000D001D003D005D0068F2FBF0F179000C9E0FF30E70F5D
:2001F80085242FE52A60057527018003752F0FE527605DE5266059BB550050188B07745568
:20021800C39FFF75F003A4F528EB75F003A4F5297A00806BBBAA00501E8B04EC24ABFC7534
:2002380028008C077455C39FFF75F003A4F529EC75F003A4FA8048EB2456FB75F003A4F57C
:20025800287529007455C39BFB75F003A4FA802FE52F75F003A42440FC743535F0FF8C828E
:200278008F83E493F5280CBC00010F8C828F83E493F5290CBC00010F8C828F83E493FAE5E5
:2002980027603BE52D452E7035852882C006C005C002C001C0001200E685822885298212F4
:2002B80000E6858229D000D001D0028A82C001C0001200E6AA82D000D001D005D006888296
:2002D8008983E529F088828983A3E528F088828983A3A3EAF0740328F8E439F90E020181D1
:2002F800AF829000C1EFF0EF7021900266E0701B1200CD90009574FFF0123439AC82AD835E
:200318009000C2ECF0EDA3F00200B80200FAAF82C007120E99AE82D007EE0303543FFE53D1
:2003380006039000BDE4F0BE0103048001E4FD7003BE022CED60067D067E00800C0FEF33E3
:2003580095E0FCEF2FFDEC33FE9000BDEDF0AE30E531C313CE13CEFF747D2EFE9000BEF0DF
:200378000200FAAE82AF839000BDE0FDE06012EFC313CE13CE9000BEE0FFEEC39FFE30E785
:200398000122ED149000BDF09000BE747D2FF00200FA1215AE123439AC82AD83AEF0FFC07B
:2003B80005C004122868E582D004D0056038C005C004123439AA82AB83AEF0FFD004D0056A
:2003D800EAC39CFAEB9DFBC3EA9464EB94005016C005C0041234391228811234391219ED5B
:2003F800D004D00580B97E947F007D00BD0300501F8E828F83E4F08E828F83A314F08E82F7
:200418008F83A3A3E4F074032EFEE43FFF0D80DC1200B875E200C2AF75890090C3501234F1
:200438007690C35012347612380080FEAF82BF030AA2B3B39202E433F58222BF050AA2B29C
:20045800B39202E433FE8013EF90352893FFE5905207EFB401009202E433FE8E8222A2B088
:20047800E43325E0FFA2B1E4334FF58222AF82C007120444AE82D007EF249DFCE43400FDDD
:200498008C828D83E0FBEEB50302801C8C828D83EEF0EF75F002A424ABF582740035F0F53D
:2004B80083E532F0E533A3F0EF24A4FCE43400FD8C828D83E0FBEEB5030122EF75F002A46B
:2004D80024ABF582740035F0F583E0FAA3E0FBE532C39AFAE5339BFBC3EA940AEB9400402F
:2004F800658C828D83EEF09000C1E0600E758200C007C0061202F8D006D007900266E0705F
:200518000122EE6030BF031CC0071215E3120E99E582D0079000BC5402F09000C2E532F091
:20053800E533A3F08532628533638F82C007121627D00780098F82C0071218D2D007BF03D0
:200558000050030200FA22120476AF829000B9E0FEEFB50601229000C1E0600A758200C00F
:20057800071202F8D0079000B9E025E025E04F90353093FE9000B9EFF0900266E0700122DE
:20059800EE70069000BAE4F0229000BAE02EF0E0FFC364809484400B9000BAE4F075820158
:2005B800021987C3747C8FF063F08095F0400B9000BAE4F075820002198722123439AC8226
:2005D800AD83AEF07F00EF24FC4056EF249DFBE43400FEEF24A4F9E43400FA8F82C007C0F6
:2005F80006C005C004C003C002C001120444A882D001D002D003D004D005D006D0078982B3
:200618008A83E8F08B828E83E8F0EF75F002A424ABF582740035F0F583ECF0EDA3F00F80AB
:20063800A5C005C004120476E582D004D0059000B9F0900266E0700C9000C1E07005F5822E
:200658000202F822C005C0041215AE9000BAE4F01215E3E582D004D0059000BBF09000BC47
:20067800E4F09000BDF09000BFECF09000C0E4F00200FA121E324390C24392C24393C2439D
:20069800B00B740B459654EFF59643971B1200CD1205D31224FC758203120444E582600351
:2006B8000203AA22123439AC82AD83C005C004122881D004D0058C828D83C005C0041222AC
:2006D800ADD004D0057F00EF24FC40188C328D338F82C007C005C004120485D004D005D0D3
:2006F800070F80E3C005C00412055FD004D0058C079000BFE0FEEFC39EFEBE0600406A90B5
:2007180000C1E0FE6010EE30E3068E037E00802E7B007E008028900266E0601AC007C0056F
:20073800C0041215E3120E99AA82D004D005D0078A017A00800479007A0089038A06530380
:20075800FC7E00C374F09B74808EF063F08095F050179000BFEFF09000C0E02401F0C005DC
:20077800C0041200FAD004D005900266E070319000C1E0702A9000C2E0FEA3E0FFECC39EA5
:20079800FEED9FFFC3EE94F4EF940140129000C2ECF0EDA3F0900095E064FFF00200B822C7
:2007B8008C828D83C005C0041219ED1215E7E582D004D0057017C005C0041215E3AF82D029
:2007D80004D0059000BBE0FEB50702804CC005C0041215E3AF82D004D0059000BBE0FEB52A
:2007F8000702801FC005C0041215E3E5829000BBF0120476E582D004D0059000B9F090009F
:20081800BAE4F09000BBE0FF8C308D318F82C005C004120326D004D0058C828D83C005C06D
:200838000412037BD004D0059000BCE060219000A7E0601B9000C2E0FEA3E0FFECC39EFC29
:10085800ED9FFDC3EC94B8ED940B40030203AA226C
:1835280002804020100055AA00FF0100010000FFFF0000010001FF009A
:20086800AF82BF01067E0F7F0080047E167F008E8222AF82BF01067E037F0080047E067F26
:20088800008E8222AF827E007D00C3ED9F500EE51CC39DFC1C8E03EC2BFE0D80EDE51B2E7E
:2008A800C39F14F58222AE82AF837CFF7DFF7B00BB06028036BB07028031EB2EF582E43FAC
:2008C800F583E0FAE4F96204EA62057A08ED30E70EEC2CF8ED33F96300216301108006EC03
:2008E8002CF8ED33F988048905DAE20BBB800040BF8C828D8322E582FF6020BF040092031A
:200908004007EF249A92035012BF680092034007EF248C92035004C2038002D203A203E4B4
:2009280033F5822285823985833AE5342539F582E4353AF583E0FD740F5DFCEDC4540FFDDE
:20094800AA347B000ABA00010BEA2539F582EB353AF583E0FBEC24F05003020AE2EC240A9F
:2009680083F582EC241483F583E47393C8C8EDEDEDED164E61AEC8E2A61D1D0909090909FE
:2009880009090A0A0A0A0A0A090A0AED7003EB6004C2048002D204A204E433F58222ED24B0
:2009A800FE9204400EEB24F99204500BBBFA0092045004C2048002D204A204E433F5822241
:2009C800E536600BBC0203D38001C3920440098B821208FEE5827004C2048002D204A2040E
:2009E800E433F58222E536600BBC0503D38001C39204400DED700AEB6007EB24F892045055
:200A080004C2048002D204A204E433F58222ED600475820022E536B4010092048D04E433DE
:200A2800C364808CF063F08095F09204400BBB8003D38001C392045004C2048002D204A253
:200A480004E433F58222ED7007EB7004C2048002D204A204E433F58222ED7006C3EB9538C5
:200A68004004758200227C007A00C3EA9538502EEAB50307EC600475820122A83779008A2E
:200A8800067F00EE28F8EF39F9E82539F582E9353AF583E0FFE4BF000104FC0A80CCE4BB95
:200AA800000104F58222ED24FE92044006C3EB95354004C2048002D204A204E433F5822275
:200AC800ED700AC3EB95355004E5366004C2048002D204A204E433F5822275820022AE829F
:200AE800AF83754400E53B24FE403E8E828F83E0FCBC4D358E828F83A3E0FCBC502B8E821F
:200B08008F83A3A3E0FCBC042074052EFBE43FFC8B828C83E0F95301017A00A83B7D00E9EB
:200B2800B50006EAB505028004758200228E828F83A3A3A3E0FDFA74075A04F53CEDC423EF
:200B4800541FF95301077D00853C458D46C3E99545ED64808546F063F08095F040047582CB
:200B68000022853B82C007C006C004C00312087A85823D853B8212086885823ED003D0046D
:200B88008B828C83E0C313FB743F5BF53FA83E7B00A93C7D00C001C00588828B831234E6B1
:200BA800AB82AD831581158174092BFBE43DFDA83F7900C005C003C000C0019000031234A1
:200BC800E6A882A98315811581D003D005D006D007E82BF8E93DF98E828F83A3A3A3A3E098
:200BE800FD7C0028F8EC39F9C3748098E499500475820022853EF0E53CA4FC2409FBE53F3D
:200C0800F975F003A42BF5408D41754200C3E542953C4003020CA7853EF0E542A42409F88C
:200C2800754300853D4775480074032547FAE43548FBA9437D00C3E99AED64808BF063F0A7
:200C48008095F05055E543254388052DF53474012547FBE43548FDA9437A00C3E99BEA643A
:200C6800808DF063F08095F0B39205E433F536853C358540378541388E828F83C007C006EC
:200C8800C004C00012092CE582D000D004D006D0077003F58222054380890542020C15748E
:200CA800092CFD7403B53D0474018001E4FC7B00C3EB953F4003020D5AED2EF582E43FF564
:200CC80083E0FAC4540FF85300077900C3E89545E964808546F063F08095F050678A0053C4
:200CE800000F7900EC6008754703754800800675470F754800C3E89547E964808548F06312
:200D0800F08095F0503EEB6006C3E5449A50358D01E904F534853C357536008540378541E5
:200D2800388E828F83C007C006C004C003C002C00112092CE582D001D002D003D004D006EC
:200D4800D0077004758200228A44740329FD0B020CB8E5416024AB407D00AA417C00EA2B5D
:200D6800FBEC3DFD1BBBFF011DEB2EFBED3FFD8B828D83E0600475820022754300C3E543FD
:200D880095415076AB407C00A9437A00E92BF8EA3CFDE82EF8ED3FFD88828D83E06057E9E2
:200DA8002BF8EA3CFDE82EF582ED3FF583E0FDBD09028042E92BF8EA3CFDE82EF582ED3F65
:200DC800F583E0FDBD0A02802DE92BF8EA3CFDE82EF582ED3FF583E0FDBD20004014E92BBE
:200DE800FBEA3CFCEB2EF582EC3FF583E0FD2481500475820022054380838E828F83C00778
:200E0800C0061208AEAC82AD83D006D00774062EF582E43FF583E0FB8C02B5021274072E9C
:200E2800F582E43FF583E0FF8D04B504028004C2058002D205A205E433F582229000C7E03B
:200E4800FF74075F04F582229000C7E0C423541FFF74075FF582229000C9E0FF74015FF510
:200E68008202087A9000CCE0FF740F5F75F005A4F58222AF829000C9E0FE74015EF582C02E
:200E880007120868E582D007F5F0EFA42409F58222E58204F582120E7BAF827E001FBFFF3C
:200EA800011EEF24C4F582EE3400F583E0F58222AF82C007120E5FAE82C006120E44AD82AA
:200EC800D006D007C3EF9D5006C3E5499E4004758206228F82C006120E7BAF82D006E4FD6C
:200EE800FC74032EFEE43CFCEE2EFEEC33FCEE2FFFEC3DFDE549C3137C002FFFEC3DFDEFF5
:200F080024C4F582ED3400F583E0FFE54930E009EFC4540FFD7E0080087C00740F5FFD7EB9
:200F2800008D8222AF82C007120E44AE82D007C3EF9E5025C007120E5FAE82D0077D007412
:200F4800032EFEE43DFDAB4A7C00C3EB9EEC64808DF063F08095F0400BE54BF87600E54CC0
:200F6800F87600228F82120E7BAF82E54A254A2FFEA94B24C4F582E43400F583E0F7A94C82
:200F88007F000EBE00010FEE24C4F582EF3400F583E0F722AF82C007120E5FAE829000C90D
:200FA800E0C313FD743F5DF551C006120E44120E7BAC82D006D007E54EB54D028022C3E5FF
:200FC8004D9E501CC3E54E9E5016C007C006C004120E44AB82D004D006D007C3EF9B4004C4
:200FE80075820022C3E54E954D5007AB4D854E4D8B4EEFC454F0FF854E1B8E1C854D82C00E
:2010080007C00412088CAE82D004D007EE4207755200C3E55295515064EC24C4F582E43487
:2010280000F583E0FBB50702801753038F7A008F0553050F7E00430580EBB50536EAB506E0
:2010480032A94F8C057E0074012DFAE43EFBEA24C4F582EB3400F583E0F7A95074022DFD46
:20106800E43EFEED24C4F582EE3400F583E0F77582012205528C0674032EFC8095758200DB
:2010880022AF82E5532FFEC39F400A9000C8E0FFC3EE9F400475820022C006120E44120EB6
:2010A8007BAF82D0069000C9E0C313FD743F5D75F003A42FFDE4FFFCEE2DFDEC3FFFED2420
:0C10C800C4F582EF3400F583E0F58222CD
:20354000FF0000FF1607FF1000FF4200FF7C003CFF0064C8141D7B4300FFC8005BFF00000E
:10356000FF7300B4FF00C2FF0048FFFFFF00000030
:2010D400AF827408B55502800EE51C6034AE55C3EE64809481402AE51C6012900198E0FE8F
:2010F400BEFF028018900198EE04F08010900197E0FEBEFF028006900197EE04F07582009E
:2011140022900195E075F002A42485F582740135F0F583EFF0900195E075F002A42485FEBF
:20113400740135F0FF8E828F83A3E51BF0900195E0045407F00555758201227F007E00EE99
:201154002460F582E43401F583E0FD42070EBE090040EC7E00EE2452FCE43401FD8C828D39
:2011740083E06025EE2444F582E43401F583E0FD53050F7C00BD0511BC000EEE244BF582E4
:20119400E43401F583E0FD42070EBE070040C6E55C600790019CE0FE42078F8222AF82C08B
:2011B4000712114FAE82D007BF0E09E55EFC3395E0FD80047C007D00BF0F09E55EFD339585
:2011D400E0FF80047D007F008D188C177519008E820227D3E582FF7004758201227E02EE58
:2011F4002471FCE43401FD8C828D83E0FBB5070475820122EB700A8C828D83EFF075820107
:20121400220EBE080040D8758200227F007E00EE2471F582E43401F583E4F00EBE08004023
:20123400EE7E00EE2452FCE43401FD8C828D83E06040EE2444F582E43401F583E0FDFB5391
:20125400030F7C00BB022BBC0028900171E0FCEDC4540F4204900171ECF0EE244BF582E452
:201274003401F583E0F582C007C0061211E8D006D0070EBE070040AB90019D7401F0E55C7F
:20129400603B90019AE0FE53060F7D00BE012EBD002B90019BE0F582C0071211E8AE82D087
:2012B4000790019DEEF0EE6014900171E0FE90019AE0C4540FFD4206900171EEF07E00EE02
:2012D4002471F582E43401F583E0FDEE2469F582E43401F583E0FCEDB5040280027F010E69
:2012F400BE080040DAEF602E900171122729E5827003F582227F00EF2469FDE43401FEEFA8
:201314002471F582E43401F583E0FC8D828E83F00FBF080040E112114FE582FFB5540280D6
:201334001B7517007518007519008F82C0071227D3E582D0077003F582228F5475820122AC
:20135400AF82AE5674FFB5590280118559567559FFC007C00612144CD006D0078F04530499
:201374000F7D00BC0004BD000122BC0204BD000122BC0504BD000122BC0605BD0002801CC4
:20139400BC0A05BD00028058BC0B05BD00028008BC0D5BBD0058801E75580122E561246033
:2013B400FCE43401FD8C828D83E0FBE55F62038C828D83EBF022C007C006120E44AD82D05A
:2013D40006D007E55F2EFE8D04ECC40354F8FC2EF55FC3E55F9D4008E55FC39DF55F80F248
:2013F400755801EF30E403855659855F5622855F1B85601C8F820210D4900180E0FFE0703E
:2014140001221F900180E4F0EF2452F582E43401F5837401F0EF2444F582E43401F583E080
:20143400FEEF244BF582E43401F583E0F55F7560008F618E82021354AF567E007D00ED24B1
:2014540052FBE43401FC8B828C83E06035ED2444F582E43401F583E0FC53040F7B00BC0BA4
:2014740021BB001EED2459F582E43401F583E0FCC39E400E8C06ED244BF582E43401F5836B
:20149400E0FF0DBD070040B6EFB55701228F577F00EF2460F582E43401F583E4F00FBF09E9
:2014B4000040EE755500900195E4F0900196F0AE5A53060F7F00BE0812BF000F7404B55BF2
:2014D4000280057405B55B03755D01755A00755B00755C0090019CE4F012140D02144C12FA
:2014F4000E508582568556577558007559FF900180E4F0900179F0900197F0900198F07FC2
:2015140000EF247AF582E43401F583E4F00FBF060040EE900195E4F0900196F0F555F55AA2
:20153400F55BF55D9001A2F0F55C90019CF0F554122659E582900184F07F00EF2452F582C3
:20155400E43401F583E4F0EF2459F582E43401F583EFF0EF2444F582E43401F583E4F0EF9D
:20157400244BF582E43401F583E4F00FBF070040CA7F00EF2460F582E43401F583E4F00F50
:20159400BF090040EE7F00EF2469F582E43401F583E4F00FBF080040EE221226601214F393
:2015B40090016974FFF0F554900000122859E582B401009206E433F55D02121FE582600730
:2015D400900198E0FF8005900197E0FF8F82228557822285588275580022E5822459FEE49C
:2015F4003401FF8E828F83E0FD7C00EC2459FAE43401FB8A828B83E0F9C3ED995007198A7B
:20161400828B83E9F00CBC070040E08E828F837406F022AF82C007120E5F858266D007C332
:20163400E5669F40248FF005F07C017D008006EC2CFCED33FDD5F0F7900179E0FBF97A000F
:201654005204EA5205EC4D6001228F058DF005F07401800225E0D5F0FB9001794BF0C3EF6A
:201674009566E433FC6010EF247AFAE43401FB8A828B83E0600122900180E0FBE07003027F
:2016940017A5EC700874FFB559030217A51BEC7003021793900182E0F9A3E0FAE562C399A2
:2016B400F9E5639AFAC007C005C004C003C002C001120E6CA882D001D002D003D004D005D6
:2016D400D0077E00C3E998EA9E4003021793900181E0FE754F647550658B4D8F4E8E82C01F
:2016F40007C005C004C003120F9CE582D003D004D005D0077003021793900180E4F0EB24F9
:201714007AF582E43401F583ED04F0EF247AF582E43401F5838B060EEEF0EB2444F582E492
:201734003401F583E564F0EB244BF582E43401F583E565F0EF2444F582E43401F583E4F0E0
:20175400EF244BF582E43401F583E4F0EF2452F582E43401F583E4F0EB2452F582E4340109
:20177400F5837401F08B82C0031215EED00385655F7560008B6185648212135402144CC0B0
:2017940007C005C00412140D12144CD004D005D007754B64754C658F4A855782C007C00573
:2017B400C004120F2CD004D005D007EF2444FBE43401FE8B828E83E564F0EF244BF9E43455
:2017D40001FA89828A83E565F08F82C007C006C005C004C003C002C0011215EED001D00283
:2017F400D003D004D005D006D007EC6071C007C006C005C003C002C001120E6CE582D00193
:20181400D002D003D005D006D00760527C00C3EC9566504A754F647550658F4D8C4E855737
:2018340082C007C006C005C004C003C002C001120F9CE582D001D002D003D004D005D0069D
:20185400D0076017900180ED04F0900181E557F0900182E562F0E563A3F0220C80B0EF2460
:2018740052F582E43401F5837401F08B828E83E0FB89828A83E0F55F7560008F618B82126C
:20189400135402144CE582FF2444F582E43401F583E0FE53060FEF2452FDE43401FF8D82C6
:2018B4008F83E06018BE02028003BE05067C027E0080047C007E008D828F83ECF022AF82D2
:2018D400C007120E5FAE82D007C3EE9F5001228F068EF005F07401800225E0D5F0FBF4FE2E
:2018F400900179E05EF08F057E000DBD00010E900180E07B00B5050EEBB5060AC0071214E0
:201914000D12144CD0078F82C007121899120E5FAE82D007C3EF9E5057EF247AFEE43401A1
:20193400FF8E828F83E0FD60471D8D82C007C006C005121899D005D006D0078DF005F07B3E
:20195400017C008006EB2BFBEC33FCD5F0F7900179E0F97A005203EA5204EB4C70128E82CD
:201974008F83E4F0ED247AF582E43401F583E4F002144CAF82C007120E5FAE82D007EF60D7
:20199400067C017D0080047C027D00EC2EFE900180E0601574FFB55902800EC007C0061286
:2019B400140D12144CD006D007754B67754C688E4A855782C007120F2CD007EF60067E0788
:2019D4007F0080047E087F008E6185685F75600185678212135402144CAE82AF839001801E
:2019F400E0603B900182E0FCA3E0FDEEC39CFCEF9DFDC007C006C005C004120E6CAB82D078
:201A140004D005D006D0077A00C3EC9BED9A400EC007C00612140D12144CD006D007C007ED
:201A3400C006122659AD82D006D007900184E0FCB505028019C007C006122659E582D006BE
:201A5400D007900184F090016974FFF0F554E55D6018900000C007C006122859E582D00649
:201A7400D0076005755D00800122C007C00612121FE582D006D007700122E55A7026E5551B
:201A94007022C007C006122868AD82D006D007ED70128E059001A2E0FCEDC39CFDBD080076
:201AB40092075004C2078002D207A207E433FD60059001A2EEF07C00EC2452F582E4340160
:201AD400F583E0FBBB0251EC2444F582E43401F583E0F953010F7A00B9022FBA002CEC249F
:201AF4004BF582E43401F583E0FA601E7902E92469F582E43401F583E0F8B502028006090E
:201B1400B9080040E9B908028051EC2452F582E43401F583E4F08043ED6040EB603DEC240D
:201B340044F582E43401F583E0FBF95301FE7A00B91E28BA002553030FEC244BF582E43478
:201B540001F583E0F55E8B82C007C006C005C0041211B1D004D005D006D0070CBC07005059
:201B740003021ACCC007C00612121FE582D006D007700122E55A7054E5556050900196E0FB
:201B9400FD75F002A42485FB740135F0FC8B828C83E0F55A8B828C83A3E0900199F0ED04FA
:201BB4009001965407F01555755B0090019FE4F0AC5A53040F7D00BC0409BD00067C027DF1
:201BD4000080047C017D0090019EECF0E55A700122E55A540FFDE55B6003021D54C007C05A
:201BF40006C005122868E582D005D006D007600122BD0756900199E0FC7003F55A22C00430
:201C140012114FAB82D004EC33E433FA600678FF79FF800478017900881975170075180088
:201C34008B82C004C0021227D3E582D002D004700122EA6005EC04FB8003EC14FB9001996F
:201C5400EBF0EB600122755A0022BD0E028003BD0F21900199E0F55E8D82C007C0061211DD
:201C7400B1E582D006D0077001229001A2EEF0755A0022BD082BAB5AE4CBC4540F6BCB54A1
:201C94000FCB6BCB8B047B00900199E07A004BF582EA4CF583122859E582700122755B04C1
:201CB4002290019AE55AF0900199E0FC90019BF090019CE4F0BD094890019FE0F5538C82FD
:201CD400C007C006121089AC82D006D007EC7003F55A228C82C007C006122A56AC82D006DC
:201CF400D007EC30E7067A207B0080047A007B0090019A74014AF090019B747F5CF080108D
:201D1400BD03028003BD0408900199E090019CF0755C01C007C00612121FE582D006D007C4
:201D3400600690019DE07001228E038F0474082BFBE43CFC9001A0EBF0ECA3F0755B012228
:201D54007401B55B289001A0E0FBA3E0FCEEC39BEF9C30E70122122868E582600122755CC9
:201D74000012121FE582700122755B02227402B55B46C007C006C005122868E582D005D052
:201D940006D007600122BD090B90019FE02401F0755B002290019EE014F0E060178E048F5C
:201DB4000574C82CFCE43DFD9001A0ECF0EDA3F0755B0322755A00227403B55B379001A026
:201DD400E0FCA3E0FDEEC39CFCEF9DFD20E74D755C01C007C00612121FE582D006D0076057
:201DF4003B74082EFEE43FFF9001A0EEF0EFA3F0755B01227404B55B15122868E582701C14
:1D1E1400900000122859E5826012755B05227405B55B09122868E5827002F55A2240
:201E32007F00EF24C4FDE43400FE8F82C007C006C005122392AC82D005D006D0078D828EB0
:201E520083ECF00FBF800040D9753B019000C4120AE6AF82900265EFF0900266EFF0900233
:201E720063E4F0900267F0900264F0229002647401F022AE82AF83900263E0700690026408
:201E9200E06004758200227D00ED24A3FBE43401FCED2EF582E43FF583E08B828C83F00D6C
:201EB200BD200040E49002637401F0758201229001A7E0FF9001A9E0F5109001AAE0F51144
:201ED2009001A3E0FCBC03169001A4E0FCBC550E9001A5E0FCBC4D069001ABE06004758243
:201EF20004229001A6E0FCBC0102800475820122E51124E8500475820322BF05028003BFC0
:201F12000606AB117C0080047B007C0074092BFCBC20005016EC24A3FAE43401FB8A828BB2
:201F320083E06004758204220C80E5E4BF030104FC7008BF04028003BF061EE5116016AADA
:201F5200117B00A8107900EA28F8EB39F9C3748098E499503175820322E5106003BF0922E0
:201F7200BF05117403B51103D38001C3B39208E433FB800BE511B40100B39208E433FBEB44
:201F9200600475820322EF24F650030222A5EF240A83F582EF240E83F583E473A5C21D80FC
:201FB20080E518D99E7F221F20202020212122229001CA740EF09001CC7455F09001CD74A0
:201FD2004DF09001CE7441F09001CF7443F09001D07401F09001D17404F09001D27401F04F
:201FF2009001D37403F0E0FF9001D4F09001D57407F09001D67480F09001D77403F0900154
:20201200D874FFF09001D9F00222A99001CA7406F0900265E09001CCF0900266E060091210
:2020320015E3AB827F0080047B007F009001CDEBF0900266E06009120E50AB827F00800452
:202052007B007F009001CEEBF0900267E09001CFF07582001215D0AF829001D0EFF07582BB
:20207200011215D0AF829001D1EFF00222A99001CAE511F0751200C3E51295114003022288
:20209200A9AB1274092BFB3395E0FAEB24C3FBEA3401FAEC6019E5122510F582C004C0030E
:2020B200C002122392A982D002D003D004801AA8107F00AD127E00ED28F8EE3FFFE824C4CA
:2020D200F582EF3400F583E0F98B828A83E9F0051280A49001ACE0FFBF80028004758203FA
:2020F200229001ADE0FF9001AEE0FD7E007C00900269EE4FF0ED4CA3F0900268E4F0900225
:202112006704F00222A9900267E0FFBF0102800475820522900268E0FFB510028063AD1108
:202132007E00AB107C00ED2BFBEE3CFC7E00C3EF9BEE9C500475820A227F00C3EF951140BC
:20215200030222A9AD107E008F037C00EB2DFDEC3EFEED24E3F582EE3401F583E0FE8F059F
:2021720074092DFD3395E0FCED24A3F582EC3401F583E0FDEEB50502800475820A220F8081
:20219200BA7F00C3EF95115034AD107E008F037C00EB2DFDEC3EFEED24E3FDEE3401FE8FF1
:2021B2000474092CFC3395E0FBEC24A3F582EB3401F583E0FC8D828E83F00F80C6900268C4
:2021D200E02511F00222A9900267E0FFBF02030222A9BF010A900268E0FFBF8002800475D4
:2021F2008205229001E31208AEAE82AF83900269E0FCA3E0FDEEB5041AEFB505169001E935
:20221200E0FD8E04B5040C9001EAE0FD8F06B50602800475820722753B019001E3120AE603
:20223200E5827004758206229001E3122408AF82900265EFF0EF7004758209227F00EF24C2
:20225200C4FDE43400FEEF24E3F582E43401F583E08D828E83F00FBF800040E290026674CB
:2022720001F01205D39002677402F0802AE5106013AE105306067F00BE0405BF0002800458
:20229200758203228510821202F8800B900267E4F080047582022275820022AE82AF8390EB
:2022B2000264E06014900267E4F0900263F01205D3900264E4F00225D7900267E0601D9008
:2022D200026BE0FCA3E0FDEEC39CFCEF9DFDC3EC9488ED94134005900267E4F0900263E00B
:2022F200700122900263E0FDBD010280030223787D00ED24C3F582E43401F583E4F00DBD90
:20231200200040EE9001C37404F09001C47455F09001C5744DF09001C67401F09001A7E0B8
:202332009001C7F09001A8E09001C8F09001A9E09001C9F0C007C006121EC1AD82D006D02A
:20235200079001CBEDF0ED70179001A7E0FDBD0500400DED24F7400890026BEEF0EFA3F0E6
:1F2372009002637402F0900264E070129001C3122556E5826008900263E4F00225D72200
:20239200023410AF82C007122392AE82D007EEB513028019A2AF9209C2AF9002FAE513F0FD
:2023B2008F82C0071233DAD007A20992AF8F82122392E582B5130474018001E4F58222AE25
:2023D20082AF837D008D82C007C006C005122392AC82D005D006D007ED2EF582E43FF583B5
:2023F200E0FBECB503028004758200220DBD800040D375820122AE82AF83C007C006122312
:20241200D1E582D006D007600475820122751300758200C007C006122395E582D006D0075D
:202432006015751300758201C007C006122395E582D006D0077004758200227D02ED2EF50E
:2024520082E43FF583E0F5138D82C007C006C005122395E582D005D006D0077003F5822245
:202472000DBD800040D7751350758201C007C006122395E582D006D007601575134D75826D
:1B24920000C007C006122395E582D006D0077004758200228E828F830223D11F
:04000000020049327F
:03000B000234209C
:0100130032BA
:01001B0032B2
:0100230032AA
:01002B0032A2
:01003300329A
:01003B003292
:030043000224AEE6
:0E00A2007808E4F608F608F608F6780C760002
:0300B40002004601
:030046000224EDA4
:2024AE00C022C0E0C0F0C082C083C007C006C005C004C003C002C001C000C0D075D0001254
:2024CE0032E2D0D0D000D001D002D003D004D005D006D007D083D082D0F0D0E0D022321253
:0E24EE0034B112068B1206BC80FB75820022F0
:2024FC0012337212339C12338B75DD0075D3002275D30074FC55D24402F5D29002FCE4F04E
:20251C002230DE357402B5DB1190000AE0FFBF010990000BE09002FBF0227420B5DB1A90F9
:20253C00000AE0FFBF031290000A121E85E582600874F355D24408F5D222D310AF01C3C0CB
:20255C00D0AE82AF839002C17401F09002F9E0601F9002FCE070199002BFE060069002C2A9
:20257C00E0600DACD25304037D00BC0308BD000575820080417D008D037C0074402BFBE415
:20259C003CFCEB240AFBEC3400FCED2EF582E43FF583E0FA8B828C83F00DBD200040D89012
:2025BC0002C1E4F09002C2F075D3209002FC04F053D2FC758201D0D092AF22D310AF01C3C8
:2025DC00C0D0AED253060C7F00BE0C05BF0002800353D2F3D0D092AF22E5829002FBF022B7
:2025FC009002C3E4F09002C4F09002C5F09002C6F09002C7F09002CCF0A3F09002CAF0A3A8
:20261C00F09002C8F0A3F07F00EF24CEF582E43402F583E4F00FBF080040EE9002D6E4F054
:20263C009002D7F0A3F09002FCF09002C0E02401F09002C1E4F09002C2F00226609002C088
:20265C00E0F58222D310AF01C3C0D09002BFE4F09002BDF09002BEF0D0D092AF22AF829097
:20267C0002BFE0FEBE080280069002F9E07004758200229002BDE024B5F582E43402F58348
:20269C00EFF09002BDE0FF0F74075FF09002BFE02401F075820122AE82AF839002BFE0FD48
:2026BC00BD080280069002F9E07004758200229002BDE075F009A4246DF582740235F0F5E0
:2026DC00837401F07D009002BDE075F009A4246DFB740235F0FC8D02EA042BFBE43CFCED69
:2026FC002EF9E43FFA89828A83E08B828C83F0ED24CEFBE43402FC89828A83E08B828C8372
:20271C00F00DBD080040BF758209022679D310AF01C3C0D01226B3D0D092AF22AF829002A4
:20273C00BFE0FEBE080280069002F9E07004758200229002D6EFF09002BDE075F009A424EE
:20275C006DF582740235F0F5837402F09002BDE075F009A4246DFD740235F0FE8D828E8378
:20277C00A3EFF09002BDE075F009A4246DFE740235F0FF8E828F83A3A3E514F09002BDE0D1
:20279C0075F009A4246DFE740235F0FF8E828F83A3A3A3E515F09002BDE075F009A4246D1B
:2027BC00FE740235F0FF8E828F83A3A3A3A3E516F0758205022679D310AF01C3C0D08517AD
:2027DC0014851815851916122738D0D092AF22AE82AF839002BFE0FDBD080280069002F987
:2027FC00E07004758200229002D7EEF0EFA3F09002BDE075F009A4246DF582740235F0F5AE
:20281C00837405F09002BDE075F009A4246DFC740235F0FD8C828D83A38E05EDF09002BDCA
:20283C00E075F009A4246DFC740235F0FD8C828D83A3A38F06EEF0758203022679D310AF61
:20285C0001C3C0D01227EBD0D092AF229002BFE0700A9002FCE07004C20A8002D20AA20A7E
:20287C00E433F58222D310AF01C3C0D0AE82AF839002BFE060030229769002C7E0FD0D7557
:20289C001A00BD01079002C3E0FB8011BD02079002C5E0FA80059002C6E0FA8A03BD010A79
:2028BC009002C8E0F9A3E0FA8019BD020A9002CAE0F8A3E0FC80089002CCE0F8A3E0FC8872
:2028DC00018C028904EB7003022963EEC39CFCEF9AFA8B017B00E929F9EB33FBE929F9EBE7
:2028FC0033FBC3EC99EA9B405EBD03067B007C0080048D037C009002C7EBF0BD0110900242
:20291C00CEC007C0061226B3D006D007804CBD021D9002D6E0FC7514007515007516008C92
:20293C0082C007C006122738D006D007802C9002D7E0FBA3E0FC8B828C83C007C0061227FD
:20295C00EBD006D00780130DED24FC50027D01051A74FD251A400302289E9002F9E060257C
:20297C009002FCE0701F9002BFE060199002C1E060069002C2E0700DACD25304037D00BC39
:20299C000306BD0003022A517D009002BEE0FC24B5F582E43402F583E0FBC3ED9B50328D15
:2029BC00027B0074402AFAE43BFBEA240AFAEB3400FBEC75F009A4246DF8740235F0F9ED58
:2029DC0028F582E439F583E0F98A828B83F00D80B9EC75F009A4246DF582740235F0F58365
:2029FC00E0FDBD010A9002C8EEF0EFA3F08018BD020A9002CAEEF0EFA3F0800BBD0508905A
:202A1C0002CCEEF0EFA3F09002C27401F09002BEE0FF24B5F582E43402F583E0F5D30F905B
:202A3C0002BE74075FF09002BFE014F09002FC7401F053D2FCD0D092AF22AF82BF800040F4
:202A5C000475820022EF90357093F58222E582FF7017AE1B9002C4EEF09002C6EEF090023B
:202A7C00C5EEF09002C3EEF022BF01079002C3E51BF022BF02079002C5E51BF022BF050619
:202A9C009002C6E51BF022E582FF70079002C4E0F58222BF01079002C3E0F58222BF0207A7
:202ABC009002C5E0F58222BF05079002C6E0F5822275820022AF82AD1CAE1D8D828E83EFA1
:202ADC00F0BF0143E51B601474012DFBE43EFC9002FBE08B828C83F0758202227C008C021A
:202AFC007B000ABA00010BEA2DFAEB3EFBEC24CEF582E43402F583E08A828B83F00CBC0899
:202B1C000040DB75820922E51B7039BF023674012DFBE43EFC9002D6E08B828C83F0740237
:202B3C002DFBE43EFC74032DF9E43EFA8D828E83A3A3A3A3E4F089828A83F08B828C83F0E6
:202B5C0075820522E51B702FBF052C74012DFCE43EFF9002D7E0FAA3E08C828F83EAF074B9
:1B2B7C00022DFDE43EFE9002D7E0A3E0FC8D828E83ECF07582032275820022F9
:2035700000000000000000002A2B28000000000000000000000000000000000000000000BE
:203590002C9EB4A0A1A2A434A6A7A5AE362D3738271E1F20212223242526B333B62EB7B8DE
:2035B0009F8485868788898A8B8C8D8E8F909192939495969798999A9B9C9D2F3130A3ADCF
:2035D000350405060708090A0B0C0D0E0F101112131415161718191A1B1C1DAFB1B0B50034
:02373300000094
:2035F000120110010000000809125DC500010102030105010906A1018501050719E029E7F8
:203610001500250195087501810295017508810395067508150026FF000507190029E7812A
:203630000005081901290515002501950575019102950175039103C005010902A101090128
:20365000A10085020509190129031500250195037501810295017505810305010930093105
:2036700009381581257F750895038106C0C00600FF0901A10185030902150026FF007508A8
:20369000951F910285040903951F8102C0050C0901A1018505150026FF0F19002AFF0F75F1
:2036B0001095018100C009022900010100806409040000020300000009211001000122B4D5
:2036D000000705810320000A0705010320000A040309041C03430048003500350078002026
:2036F000006B006200640020006D006F007300260355006E006900760065007200730061A4
:20371000006C0020004D006100630072006F007000610064000E0344006500710069006EE4
:033730000067002F
:0300B00075710067
:202B9800AFDB7D007E008E6CBF080280030230BF900007E0FC7F00900006E0FB7A004FF540
:202BB80069EA4CF56A8F72900001E0F56B8F71900000E0FC54607003022D71900000E0FC8E
:202BD8005304607B00BC2005BB00028011BC4005BB00028003022D6B7572FF0230C2900037
:202BF80004E07006900005E060067572FF0230C27409B56B3F900000E0FCBC2137900003BF
:202C1800E0FCBC022F900002E0FCBC030CAB69AC6ABB2005BC00028012900002E0FCBC0115
:202C380013AB69AC6ABB020CBC000985696C756D000230C2740AB56B51900000E0FCBC2149
:202C580049E569456A7043900002E0601C900002E0FCBC01028012900002E0FCBC02028008
:202C780008900002E0FCBC05219002F9E0601B900002E0FC900003E0F51B8C82C006C00574
:202C9800122A69D005D0060230C27402B56B5E900000E0FCBCA156900002E0601C90000245
:202CB800E0FCBC01028012900002E0FCBC02028008900002E0FCBC0534900003E0702EABFA
:202CD80069AC6ABB0127BC00249002F9E0601E900002E0F582C006C005122AA3AC82D0055B
:202CF800D006900000ECF07572010230C27401B56B5B900000E0FCBCA153900003E0FCBC67
:202D180001028008900003E0FCBC02419002F9E0603B900002E0FC900003E0FBE4BB02011E
:202D380004F51B751CD9751D028C82122AD1AC828C057E00ED4E600F756ED9756F027570E0
:202D580000756B060230C27572FF0230C27572FF0230C27572FF0230C2E56B24F450030236
:202D780030BAE56B240B83F582E56B241083F583E4730989BA89BA83A2BA90AEF7F7302F09
:202D9800302F302E2D302E2E2E2E900003E0FCBC01028019BC02028024BC0302802FBC21D1
:202DB80003022E4BBC2203022E5B022E7D756EF0756F357570807D127E000230C2756EB679
:202DD800756F367570807D297E000230C2900002E0700B756EDF756F36757080803F9000C7
:202DF80002E0FCBC010B756E25756F37757080802C900002E0FCBC020B756EFF756F367539
:202E180070808019900002E0FCBC030B756EE3756F3675708080067572FF0230C2AA6EAB71
:202E38006FAC708A828B838CF0123508FAFD7E000230C2756EC8756F367570807D097E0073
:202E58000230C2900002E07016756E02756F367570809036CFE493FDA3E493FE0230C27580
:202E780072FF0230C27572FF0230C2900002E0FC8C69756A000230C29002F9E0900000F0DA
:202E9800AB69AC6AC3EB9401EC940050030230C27572010230C2900000E07021900003E096
:202EB800701B900002E0FC24FE4012900004E0700C900005E07006E569456A60067572FF69
:202ED8000230C2900002E09002F9F0C006C0051225FC121E7ED005D00675D2120230C29005
:202EF8000004E07075900005E0706F900002E07069900003E070639002F9E0605D740AB5B1
:202F18006B0474018001E4FC602C900000E0FBBB8103D38001C3920B5013AA69AB6ABA0124
:202F380006BB0003D38001C3920B100B02D20BA20BE433FB8021900000E0FABA0103D3802C
:202F580001C3920B500AE569456A7004C20B8002D20BA20BE433FBEB60067572FF0230C217
:202F7800EC70030230C2900000E4F07572010230C2900000E0FCBC0218900002E0701290E0
:202F98000003E0700C900005E07006E569456A60067572FF0230C2900004E0FCBC81297448
:202FB80003B56B0B74FC55D24403F5D20230C274BC55D24402F5D2C006C0051225FC121EE0
:202FD8007ED005D0060230C2900004E0FCBC011B747355D2FC7403B56B067A0C7B00800448
:202FF8007A007B00EA4CF5D20230C27572FF0230C2900004E0FD7E00900000E0FCBC824D13
:203018008D038E04BB8117BC0014A9D2530103E4FAB90304BA000104F9FD7E00804ABB012A
:2030380017BC0014A9D253010CE4FAB90C04BA000104F9FD7E008030ED4E6006BB8009BC8B
:2030580000067D007E0080207572FF805D900000E0FCBC80028008900000E0FCBC8104ED28
:203078004E60057572FF8042900005E0700C900002E07006900003E060057572FF802B8D0E
:2030980004900000ECF0900001E4F0AB69AC6AC3EB9402EC94004005757202800D8569723A
:2030B80080087572FF80037572FF74FFB57202806F7406B56B6AC3ED9569EE956A50048D16
:2030D800698E6AAD69AE6AC3ED9408EE9400920B40067B087C008004AB69AC6A8B727C0072
:2030F800C3EC957250208C027B00EC256EF8E4356FF9AF70888289838FF0123508F88A828A
:203118008B83F00C80DAAC727F00EDC39CFDEE9FFE8D698E6AE572256EF56EE4356FF56F9B
:2031380074FFB57207756BFF75DCCF22E57224F740178572DDE56C60067E027F0080047E60
:20315800007F0074C04EF5DC2275DD00E56C60067E027F0080047E007F0074C04EF5DC2265
:203178007405B56B02806E7406B56B0280030231FBAE69AF6AC3EE9408EF9400920C40067D
:203198007C087D008004AC69AD6A8C1B7D00C3ED951B50208D027B00ED256EF8E4356FF96F
:2031B800AC70888289838CF0123508F88A828B83F00D80DAAC1B7D00EEC39CFEEF9DFF8EE9
:2031D800698F6AE51B256EF56EE4356FF56F851BDD63DC4022E5E35480FFE5694FF5E375F0
:2031F800DC022275DD0075DC022220DE01227409B56B0280030232D0E56C70030232D0E5FC
:20321800DB24F750030232D0AE6D7F00ACDB7D00EC2EFEED3FFFAC6C7D00C3EC9EED6480B5
:203238008FF063F08095F050030232D07F00C3EF95DB5019EF256D24D9FDE43402FE8F829A
:20325800758300E0FC8D828E83F00F80E1E5DB256DF56DE56CB56D477420B56C1C9002D958
:20327800E0FFBF03149002D9121E85E582600A74F355D24408F5D2801C7402B56C13900217
:20329800D9E0FFBF010B9002DAE0F5821225F5800475DCCF22756C0075DD0075DC4822747C
:2032B800F825DB4007756BFF75DC0F2263DC8074F055DC4402F5DC2275DD00E56C6007754A
:2032D8006BFF75DC0F2275DC022220D903023348E5D9540F6002802CAED95306307F00BE80
:2032F8000005BF00028013BE2005BF00028010BE303CBF0039122B988034123202802F1277
:203318003178802AAED953060F7F00BE0120BF001DE5D954306002800512251D8010AED985
:203338005306307F00BE2006BF000312250CC2D930D81A121E7E1225FC75DC0275D21275C5
:20335800E300C2DAC2D9C2D89002F9E4F010DA0122E5DA20E20375D8FF2275E20053E27FF8
:2033780043E22975E30053E2BF53D1FB75D18043D1012243E10443E10243E10143D81FD200
:1E339800EAD2AF227E007F008EEC8FED7E0A7F008EEE8FEF75D21275EAC075DC0222A9
:2033B600ABF0A2AFE433FEC2AFE0A37A0833D2B44002C2B47905D9FEC2B4DAF1DBEBEE6065
:0433D60002D2AF224E
:2033DA00AF82BF800040012275A15575A1AA43B10475A1007585C0EF2FF5849002FAE0F515
:2033FA008EE58630E60375869A75A15575A1AA53B1FB75A10022AF827585C0EF2FF58475B3
:06341A00868E858E8222E1
:06007800E478FFF6D8FD5C
:200056007902E94400601B7A0190373378FB75A002E493F2A308B8000205A0D9F4DAF275E7
:02007600A0FFE9
:20342000C0D075D00808B8000D09B900090ABA00050BBB00010CD0D032A2AFC2AFA808A98E
:2034400009AA0AAB0BAC0C92AF75F020E8A4A8F075F020E9A428F582A8F075F020EAA428D3
:20346000F583A8F075F020EBA428F9A8F075F020ECA42889F022AE82AF83C374019EE49FDC
:2034800040022200C374029EFE74009FFF00BE0005BF00020022000000000000000000003B
:2034A000000000000000000EBE00EB0FBF00ED002275A15575A1AA74F855B94406F5B97566
:2034C000A100901388123476759E5D759D0074F055894402F58953C9EF758C06C28DD2A900
:0534E000D28CD2AF22E6
:2034E60074FE2581F8E68582F0A4C0E08582F018E6A4F582D0E025F0C58386F0A42583F5C1
:0235060083221E
:20007E007800E84400600A799475A000E4F309D8FC7867E84402600C7903900094E4F0A3EE
:04009E00D8FCD9FAB7
:0D004900758172123524E5826003020046C5
:1C35080020F71430F6148883A88220F507E6A88375830022E280F7E49322E022D2
:04352400758200228A
:00000001FF
