:2000B8007E947F007D007C004305128E828F838DF0EC0234987F00BF1200500FEF2494F5A0
:2000D80082E43400F583E4F00F80EC0200B8E582FF7003F58222EFC4540FFF74014FF5822B
:2000F80022AF829000CAE0FEBE030774015F04FF80028E078F8222900271E070079000CCBE
:20011800E07001221217E88582269000CCE0FEE0700885268212108BAE82EE0303543FFDF6
:20013800530503EEC4540FF5279000C6E0F5288E82C006C0051200F9858229D005D00690B7
:2001580000CBE0F52A9000C8E0F52B9000CCE0601574015E04F5299000D7E0C4540FFE74DF
:20017800035EF52B8007E5297003F528FD7403B52A03752A027B947E00E52B24DDF530E423
:200198003435F5317403B52B0474018001E4F532740FB52703D38001C39200EDB40100B3FC
:2001B8009201E4BD030104F533BD0303D38001C3920274015528F534E4F535BD020104FD6B
:2001D800752C0074FA252C50030200B885273685292D3000159000CCE06005853337800682
:2001F800A201E433F537E5377004C2038002D203A203E433F52E9000CCE0705BE528600EF4
:20021800ED6054E5344535604E752D008049E52A603CE52C24ADFAE43400FC8A828C83E0E3
:20023800602C852C53852682C006C005C0031210AAAC82D003D005D0068C36BC0F089000FE
:20025800D4E0FC20E708852A2D752E008009852736200203752D00E52D7007F52FFAFC0271
:200278000315E52E6065E52C9035D193FF853082853183E4938FF0A42525F537E532600F37
:20029800E52C9035D793247FF9E7FF2537F53774AB2537400E7A00E53775F003A4F52FF479
:2002B800FC805A745625374011E53724ABFF7C0075F003A4FAF4F52F8043E537FF24567588
:2002D800F003A4FCF4FA752F008032C005E53675F003A424FAFD743535F0FF8D828F83E456
:2002F80093FC0DBD00010F8D828F83E493FA0DBD00010F8D828F83E493F52FD0057401B556
:200318002D338C82C006C005C003C0021200E6AC82D002D0038A82C004C0031200E6AA82C5
:20033800852F82C0021200E685822FD002D003D004D005D0068B828E83EAF08B828E83A3A2
:20035800ECF08B828E83A3A3E52FF074032BFBE43EFE052C0201DBAF82E57C2FFFE57DFE55
:200378002F2E2EFFC3EF957D4007EFC3957DFF80F38F8222AF82E538FE30E304EE24F0FE04
:200398008F045304017D00EC4DB401009204B3E433F539BF0B004069BF0C479000CAE0FDA5
:2003B8009000CBE025E025E042057C00EC9035F593B5050280060CBC050040F08C05BC0553
:2003D800107D00C374808EF063F08095F050027D048E7C757D058D82C00712036F8582387E
:2003F800D007E5389035F593F538AD3874035DFC9000CAF0ED0303543FFD9000CBF00204A4
:20041800D4BF0A097D007C0475380F80107D027C04BF08005007EFC313FDFB04FCBF030435
:20043800C3E49EFEC3ED9C40030204D4AB38E5396059ED24C8F582E43400F583E0FA790407
:20045800BD020040297903BA03247A02BD021FC007C006C005C004C0011217E812108B12FE
:2004780000F9AA82D001D004D005D006D0078E7C897D8A82C007C006C005C00412036FABB7
:2004980082D004D005D006D0078021BB0F1E7B03ED700C9000D7E0C4540FFA74035AFBBD0B
:2004B800010A9000D7E0FA23235403FBED24C8F582E43400F583EBF00D02043CBF020280F3
:2004D80008BF03028003BF0A0C12351BAC82AD83AEF0FF8C2402010FAF829000CCEFF0EF66
:2004F8007021900271E0701B1200CD90009574FFF012351BAC82AD839000CDECF0EDA3F005
:200518000200B802010FAF82C00712108BAE82D007EE0303543FFE5306039000C6E4F0BE82
:200538000103048001E4FD7003BE022CED60067D067E00800C0FEF3395E0FCEF2FFDEC331E
:20055800FE9000C6EDF0AE3AE53BC313CE13CEFF747D2EFE9000C7F002010FAE82AF83905E
:2005780000C6E0FDE06012EFC313CE13CE9000C7E0FFEEC39FFE30E70122ED149000C6F0F5
:200598009000C7747D2FF002010F1217B312351BAC82AD83AEF0FFC005C0041229DAE5828C
:2005B800D004D0056038C005C00412351BAA82AB83AEF0FFD004D005EAC39CFAEB9DFBC3CE
:2005D800EA9464EB94005016C005C00412351B1229F312351B121BF2D004D00580B97E94AE
:2005F8007F007D00BD0600501F8E828F83E4F08E828F83A314F08E828F83A3A3E4F0740343
:200618002EFEE43FFF0D80DC1200B875E200C2AF75890090C35012355890C35012355812E5
:20063800380080FEAF82BF060AA2B3B39205E433F58222BF050AA2B2B39205E433FE801389
:20065800EF9035CC93FFE5905207EFB401009205E433FE8E8222A2B0E43325E0FFA2B1E47C
:20067800334FF58222AF82C00712063CAE82D007EF24A6FCE43400FD8C828D83E0FBEEB58E
:200698000302801C8C828D83EEF0EF75F002A424B4F582740035F0F583E53CF0E53DA3F085
:2006B800EF24ADFCE43400FD8C828D83E0FBEEB5030122EF75F002A424B4F582740035F0AD
:2006D800F583E0FAA3E0FBE53CC39AFAE53D9BFBC3EA940AEB940040658C828D83EEF09007
:2006F80000CCE0600E758200C007C0061204F0D006D007900271E0700122EE6030BF061CBC
:20071800C0071217E812108BE582D0079000C55402F09000CDE53CF0E53DA3F0853C6C858E
:200738003D6D8F82C00712182CD00780098F82C007121AD7D007BF0600500302010F221259
:20075800066EAF829000C2E0FEEFB50601229000CCE0600A758200C0071204F0D00790000E
:20077800C2E025E025E04F9035E593FE9000C2EFF0900271E0700122EE70069000C3E4F0F9
:20079800229000C3E02EF0E0FFC364809484400B9000C3E4F0758201021B8CC3747C8FF0EB
:2007B80063F08095F0400B9000C3E4F0758200021B8C2212351BAC82AD83AEF08C3E8D3FA1
:2007D8009000D7E0C4540FFF5307039000C8EFF09000D7E0232354039000C9F09000CB7404
:2007F80003F09000CAF07F00EF24F94050EF24A6FBE43400FEEF24ADFAE43400FD8F82C01F
:2008180007C006C005C003C00212063CAC82D002D003D005D006D0078A828D83ECF08B82FB
:200838008E83ECF0EF75F002A424B4F582740035F0F583E53EF0E53FA3F00F80AB12066ECF
:20085800E5829000C2F0900271E0700C9000CCE07005F5820204F0221217B39000C3E4F035
:200878001217E8E5829000C4F09000C5E4F09000C6F0853E24F5257F00BF06005009EF2484
:200898007FF876000F80F202010F12203A4390F24392F24393F243B00F740F459654EFF568
:2008B8009643971F1200CD1207CB1226DE75820612063CE58260030205A22212351BAC8242
:2008D800AD83C005C0041229F3D004D0058C828D83C005C004122488D004D0057F00EF24D0
:2008F800F940188C3C8D3D8F82C007C005C00412067DD004D005D0070F80E3C005C004127A
:200918000757D004D0058C07EFC39524FE9000CCE0FB600B9000D7E023235403FA80059027
:2009380000C9E0FAEA9035E193FAC3EE9A50030209CAEB600EEB30E3047E0080307B007EEA
:2009580000802A900271E0601BC007C005C0041217E812108BAA82D004D005D0078A40757E
:2009780041008005E4F540F541AB40AE415303FC7E00C374F09B74808EF063F08095F050C4
:20099800318F2405257F037E00BE06005019EF55257008EE247FF9E7FB04F78F03EB2BFB19
:2009B80074014BFF0E80E2C005C00412010FD004D005900271E070319000CCE0702A9000B2
:2009D800CDE0FEA3E0FFECC39EFEED9FFFC3EE94F4EF940140129000CDECF0EDA3F09000A4
:2009F80095E064FFF00200B8228C828D83C005C004121BF21217ECE582D004D0057017C009
:200A180005C0041217E8AF82D004D0059000C4E0FEB50702804CC005C0041217E8AF82D0B3
:200A380004D0059000C4E0FEB50702801FC005C0041217E8E5829000C4F012066EE582D034
:200A580004D0059000C2F09000C3E4F09000C4E0FF8C3A8D3B8F82C005C00412051ED004D8
:200A7800D0058C828D83C005C004120573D004D0059000C5E060219000B3E0601B9000CDFE
:190A9800E0FEA3E0FFECC39EFCED9FFDC3EC94B8ED940B40030205A2227E
:2035CC00028040201000010205040300030104020500152A6D04060A1200FF0100010000FC
:0E35EC00FFFF0000010001FF000F0D050400AD
:200AB200AF827E007D00C3ED9F500EE57DC39DFC1C8E03EC2BFE0D80EDE57C2EC39F14F557
:200AD2008222AE82AF837CFF7DFF7B00BB06028045BB07028040EB2EF582E43FF583E0FA7B
:200AF200E4F96204EA62057A088D017800530180E849B401009206B3E433F57CEC2CFCED3A
:200B120033FDE57C600E8C008D0163002163011088048905DAD30BBB800040B08C828D8397
:200B320022E582FF6015EF24FCFE249E9207500BEF2498FF24F49207100702D207A207E409
:200B520033F58222858247858348E5422547F582E43548F583E0FD740F5DFCEDC4540FFD6C
:200B7200AA427B000ABA00010BEA2547F582EB3548F583E0FBEC24F05003020D72EC240AB6
:200B920083F582EC241483F583E4732358587D7D7D7DA6DEF13E5836ADADBD0C0C0C0C0C78
:200BB2000C0C0C0C0C0D0D0C0C0C0BEB24F3500475820022BB0A08E4BD000104F58222BB68
:200BD2000B0BED24FBB39208E433F58222EB20E003BB0C1BED600BBD0803D38001C3920843
:200BF2005004C2088002D208A208E433F58222BD0F0475820122BB0400500BED24FCB392B9
:200C120008E433F58222ED24FDB39208E433F58222ED7003EB6004C2088002D208A208E49C
:200C320033F58222ED24FE9208400EEB24F99208500BBBFA0092085004C2088002D208A277
:200C520008E433F58222E544600BBC0203D38001C3920840098B82120B33E5827004C20879
:200C72008002D208A208E433F58222E544600BBC0503D38001C39208400DED700AEB60079D
:200C9200EB24F892085004C2088002D208A208E433F58222ED600475820022E544B4010085
:200CB20092088D04E433C364808CF063F08095F09208400BBB8003D38001C392085004C27B
:200CD200088002D208A208E433F58222ED7007EB7004C2088002D208A208E433F58222ED14
:200CF2007006C3EB95464004758200227C007A00C3EA9546502EEAB50307EC600475820199
:200D120022A84579008A067F00EE28F8EF39F9E82547F582E93548F583E0FFE4BF000104CB
:200D3200FC0A80CCE4BB000104F58222ED24FE92084006C3EB95434004C2088002D208A291
:200D520008E433F58222ED700AC3EB95435004E5446004C2088002D208A208E433F582227B
:200D720075820022AE82AF83755000E549600475820022E54924FE403D8E828F83E0FCBCEF
:200D92004D348E828F83A3E0FCBC502A8E828F83A3A3E0FCBC061F8E828F83A3A3A3A3A373
:200DB200E0FCFA5302017B00A8497900EAB50006EBB501028004758200228E828F83A3A3C3
:200DD200A3E0FBFA74075A04FAEBC423541FF95301077B008A518B52C3E99551EB64808504
:200DF20052F063F08095F0400475820022C37405955174808552F063F08095F0500475826A
:200E12000022ECC313FC743F5CF54AEA75F016A42409FBE435F0F9E54A75F003A47D002B7C
:200E3200FBED39F98E828F83A3A3A3A3E0FD7C002BFBEC39FC8B008C01C3748098E4995004
:200E520004758200228D4CEBC3954CF54B754D00C3E54D9A5068E54D75F016A42409F978C3
:200E72000088037C00C3EB9409EC64809480504A8804EC2C89032BF54288037C00C3EB94B5
:200E920007EC64809480B39209E433F5448A43854B45854C468E828F83C007C006C002C08D
:200EB20001C000120B56E582D000D001D002D006D0077003F582220880A7054D8092EA7567
:200ED200F016A4FC2409F54E7B00C3EB954A4003020F68E54E2EF582E43FF583E0F9C454C2
:200EF2000FF85300077C00C3E89551EC64808552F063F08095F0504F890053000F7C00C3BA
:200F1200E8940FEC64809480503DEB6006C3E550995034E54EFC04F5428A43754400854B9D
:200F320045854C468E828F83C007C006C004C003C002C001120B56E582D001D002D003D06A
:200F520004D006D007700475820022895074032CF54E0B020EDCE54C6024AB4B7C00A94C6F
:200F72007A00E92BFBEA3CFC1BBBFF011CEB2EFBEC3FFC8B828C83E0600475820022754F4A
:200F920000C3E54F954C5076AA4B7B00A84F7900E82AFCE93BFDEC2EFCED3FFD8C828D8335
:200FB200E06057E82AFCE93BFDEC2EF582ED3FF583E0FDBD09028042E82AFCE93BFDEC2E74
:200FD200F582ED3FF583E0FDBD0A02802DE82AFCE93BFDEC2EF582ED3FF583E0FDBD200073
:200FF2004014E82AFAE93BFBEA2EF582EB3FF583E0FD2481500475820022054F80838E82D9
:201012008F83C007C006120AD4AC82AD83D006D00774062EF582E43FF583E0FB8C02B5024A
:201032001274072EF582E43FF583E0FF8D04B504028004C2098002D209A209E433F582229F
:201052009000D2E0FF74075F04F582229000D2E0C423541FFF74075FF58222758206229009
:2010720000D7E0FF740F5F75F005A4F58222E58275F016A42409F58222E58204F5821210CF
:2010920080AF827E001FBFFF011EEF24CFF582EE3400F583E0F58222AF82C00712106DAE72
:2010B20082C006121052AD82D006D007C3EF9D5006C3E5539E4004758206228F82C00612FC
:2010D2001080AF82D006E4FDFC74032EFEE43CFCEE2EFEEC33FCEE2FFFEC3DFDE553C31346
:2010F2007C002FFFEC3DFDEF24CFF582ED3400F583E0FFE55330E009EFC4540FFD7E0080DB
:20111200087C00740F5FFD7E008D8222AF82C007121052AE82D007C3EF9E5025C00712108A
:201132006DAE82D0077D0074032EFEE43DFDAB547C00C3EB9EEC64808DF063F08095F0403F
:201152000BE555F87600E556F87600228F82121080AF82E55425542FFEA95524CFF582E4F0
:201172003400F583E0F7A9567F000EBE00010FEE24CFF582EF3400F583E0F722AF82C0079C
:2011920012106DAE829000D4E0C313FD743F5DF55BC006121052121080AC82D006D007E56B
:2011B20058B557028022C3E5579E501CC3E5589E5016C007C006C004121052AB82D004D072
:2011D20006D007C3EF9B400475820022C3E55895575007AB578558578B58EFC454F0FF859F
:2011F200587C8E7D855782C007C004120AB2AE82D004D007EE4207755C00C3E55C955B5020
:2012120064EC24CFF582E43400F583E0FBB50702801753038F7A008F0553050F7E00430522
:2012320080EBB50536EAB50632A9598C057E0074012DFAE43EFBEA24CFF582EB3400F583B5
:20125200E0F7A95A74022DFDE43EFEED24CFF582EE3400F583E0F775820122055C8C067499
:20127200032EFC809575820022AF82E55D2FFEC39F400A9000D3E0FFC3EE9F4004758200E8
:2012920022C006121052121080AF82D0069000D4E0C313FD743F5D75F003A42FFDE4FFFCF9
:1412B200EE2DFDEC3FFFED24CFF582EF3400F583E0F582227B
:2035FA00FF0000FF1607FF1000FF4200FF7C003CFF0064C8141D7B4300FFC8005BFF000054
:10361A00FF7300B4FF00C2FF0048FFFFFF00000075
:2012C600AF827408B55F02800EE57D6034AE5FC3EE64809481402AE57D60129001A3E0FEBA
:2012E600BEFF0280189001A3EE04F080109001A2E0FEBEFF0280069001A2EE04F075820089
:20130600229001A0E075F002A42490F582740135F0F583EFF09001A0E075F002A42490FE9F
:20132600740135F0FF8E828F83A3E57CF09001A0E0045407F0055F758201227F007E00EE2F
:20134600246BF582E43401F583E0FD42070EBE090040EC7E00EE245DFCE43401FD8C828D2F
:2013660083E06025EE244FF582E43401F583E0FD53050F7C00BD0511BC000EEE2456F582DA
:20138600E43401F583E0FD42070EBE070040C6E56660079001A7E0FE42078F8222AF82C082
:2013A60007121341AE82D007BF0D09E568FC3395E0FD80047C007D00BF0E09E568FD33958B
:2013C600E0FF80047D007F008D1A8C19751B008E82022960E582FF7004758201227E02EECF
:2013E600247CFCE43401FD8C828D83E0FBB5070475820122EB700A8C828D83EFF075820108
:20140600220EBE080040D8758200227F007E00EE247CF582E43401F583E4F00EBE08004024
:20142600EE7E00EE245DFCE43401FD8C828D83E06040EE244FF582E43401F583E0FDFB5387
:20144600030F7C00BB022BBC002890017CE0FCEDC4540F420490017CECF0EE2456F582E43D
:201466003401F583E0F582C007C0061213DAD006D0070EBE070040AB9001A87401F0E56682
:20148600603B9001A5E0FE53060F7D00BE012EBD002B9001A6E0F582C0071213DAAE82D089
:2014A600079001A8EEF0EE601490017CE0FE9001A5E0C4540FFD420690017CEEF07E00EEE2
:2014C600247CF582E43401F583E0FDEE2474F582E43401F583E0FCEDB5040280027F010E5F
:2014E600BE080040DAEF602E90017C1228EEE5827003F582227F00EF2474FDE43401FEEFD8
:20150600247CF582E43401F583E0FC8D828E83F00FBF080040E1121341E582FFB55E0280D9
:201526001B751900751A00751B008F82C007122960E582D0077003F582228F5E7582012219
:20154600AF82AE6074FFB5630280118563607563FFC007C006121651D006D0078F0453046C
:201566000F7D00BC0004BD000122BC0204BD000122BC0504BD000122BC0605BD0002802FBD
:20158600BC0A06BD00030215F9BC0B05BD0002801ABC0C05BD00028030BC0F65BD0062EF0A
:2015A600C4540FF53885698202038C75620122E56B246BFCE43401FD8C828D83E0FBE5699E
:2015C60062038C828D83EBF022C007C006121052AD82D006D007E5692EFE8D04ECC4035496
:2015E600F8FC2EF569C3E5699D4008E569C39DF56980F2756201EF30E4038560638569607D
:201606002285697C856A7D8F820212C690018BE0FFE07001221F90018BE4F0EF245DF5827D
:20162600E43401F5837401F0EF244FF582E43401F583E0FEEF2456F582E43401F583E0F520
:2016460069756A008F6B8E82021546AF607E007D00ED245DFBE43401FC8B828C83E06035BC
:20166600ED244FF582E43401F583E0FC53040F7B00BC0B21BB001EED2464F582E43401F584
:2016860083E0FCC39E400E8C06ED2456F582E43401F583E0FF0DBD070040B6EFB561012267
:2016A6008F617F00EF246BF582E43401F583E4F00FBF090040EE755F009001A0E4F09001EC
:2016C600A1F0AE6453060F7F00BE0812BF000F7404B5650280057405B5650375670175646F
:2016E600007565007566009001A7E4F012161202165112105E8582608560617562007563A4
:20170600FF90018BE4F0900184F09001A2F09001A3F07F00EF2485F582E43401F583E4F095
:201726000FBF060040EE9001A0E4F09001A1F0F55FF564F565F5679001ADF0F5669001A756
:20174600F0F55E12283BE58290018FF07F00EF245DF582E43401F583E4F0EF2464F582E4B7
:201766003401F583EFF0EF244FF582E43401F583E4F0EF2456F582E43401F583E4F00FBF86
:20178600070040CA7F00EF246BF582E43401F583E4F00FBF090040EE7F00EF2474F582E4F3
:2017A6003401F583E4F00FBF080040EE221228421216F890017474FFF0F55E90000012295A
:2017C600CBE582B40100920AE433F567021411E58260079001A3E0FF80059001A2E0FF8FDF
:2017E60082228561822285628275620022E5822464FEE43401FF8E828F83E0FD7C00EC24C3
:2018060064FAE43401FB8A828B83E0F9C3ED995007198A828B83E9F00CBC070040E08E82B2
:201826008F837406F022AF82C00712106D858270D007C3E5709F40248FF005F07C017D00A6
:201846008006EC2CFCED33FDD5F0F7900184E0FBF97A005204EA5205EC4D6001228F058D38
:20186600F005F07401800225E0D5F0FB9001844BF0C3EF9570E433FC6010EF2485FAE4348D
:2018860001FB8A828B83E060012290018BE0FBE070030219AAEC700874FFB563030219AA03
:2018A6001BEC700302199890018DE0F9A3E0FAE56CC399F9E56D9AFAC007C005C004C003E2
:2018C600C002C001121071A882D001D002D003D004D005D0077E00C3E998EA9E4003021924
:2018E6009890018CE0FE75596E755A6F8B578F588E82C007C005C004C00312118EE582D001
:2019060003D004D005D007700302199890018BE4F0EB2485F582E43401F583ED04F0EF2498
:2019260085F582E43401F5838B060EEEF0EB244FF582E43401F583E56EF0EB2456F582E42E
:201946003401F583E56FF0EF244FF582E43401F583E4F0EF2456F582E43401F583E4F0EF1E
:20196600245DF582E43401F583E4F0EB245DF582E43401F5837401F08B82C0031217F3D06F
:2019860003856F69756A008B6B856E82121546021651C007C005C004121612121651D004EA
:2019A600D005D00775556E75566F8F54856182C007C005C00412111ED004D005D007EF2494
:2019C6004FFBE43401FE8B828E83E56EF0EF2456F9E43401FA89828A83E56FF08F82C00796
:2019E600C006C005C004C003C002C0011217F3D001D002D003D004D005D006D007EC6071A7
:201A0600C007C006C005C003C002C001121071E582D001D002D003D005D006D00760527C08
:201A260000C3EC9570504A75596E755A6F8F578C58856182C007C006C005C004C003C0020B
:201A4600C00112118EE582D001D002D003D004D005D006D007601790018BED04F090018C4A
:201A6600E561F090018DE56CF0E56DA3F0220C80B0EF245DF582E43401F5837401F08B829E
:201A86008E83E0FB89828A83E0F569756A008F6B8B82121546021651E582FF244FF582E40E
:201AA6003401F583E0FE53060FEF245DFDE43401FF8D828F83E06018BE02028003BE050621
:201AC6007C027E0080047C007E008D828F83ECF022AF82C00712106DAE82D007C3EE9F5039
:201AE60001228F068EF005F07401800225E0D5F0FBF4FE900184E05EF08F057E000DBD00E8
:201B0600010E90018BE07B00B5050EEBB5060AC007121612121651D0078F82C007121A9ECE
:201B260012106DAE82D007C3EF9E5057EF2485FEE43401FF8E828F83E0FD60471D8D82C0D2
:201B460007C006C005121A9ED005D006D0078DF005F07B017C008006EB2BFBEC33FCD5F0C0
:201B6600F7900184E0F97A005203EA5204EB4C70128E828F83E4F0ED2485F582E43401F5A1
:201B860083E4F0021651AF82C00712106DAE82D007EF60067C017D0080047C027D00EC2E09
:201BA600FE90018BE0601574FFB56302800EC007C006121612121651D006D00775557175F8
:201BC60056728E54856182C00712111ED007EF60067E077F0080047E087F008E6B857269D3
:201BE600756A01857182121546021651AE82AF8390018BE0603B90018DE0FCA3E0FDEEC38D
:201C06009CFCEF9DFDC007C006C005C004121071AB82D004D005D006D0077A00C3EC9BEDC0
:201C26009A400EC007C006121612121651D006D007C007C00612283BAD82D006D00790015A
:201C46008FE0FCB505028019C007C00612283BE582D006D00790018FF090017474FFF0F53B
:201C66005EE5676018900000C007C0061229CBE582D006D0076005756700800122C007C09A
:201C860006121411E582D006D007700122E5647026E55F7022C007C0061229DAAD82D006FE
:201CA600D007ED70128E059001ADE0FCEDC39CFDBD0800920B5004C20B8002D20BA20BE46F
:201CC60033FD60059001ADEEF07C00EC245DF582E43401F583E0FBBB0251EC244FF582E4B9
:201CE6003401F583E0F953010F7A00B9022FBA002CEC2456F582E43401F583E0FA601E796C
:201D060002E92474F582E43401F583E0F8B50202800609B9080040E9B908028055EC245D23
:201D2600F582E43401F583E4F08047ED6044EB6041EC244FFAE43401FB8A828B83E0F9B9C4
:201D46001D028003B91E2B8A828B83E0FA53020FEC2456F582E43401F583E0F5688A82C00A
:201D660007C006C005C0041213A3D004D005D006D0070CBC07005003021CD1C007C0061239
:201D86001411E582D006D007700122E5647054E55F60509001A1E0FD75F002A42490FB7433
:201DA6000135F0FC8B828C83E0F5648B828C83A3E09001A4F0ED049001A15407F0155F758B
:201DC60065009001AAE4F0AC6453040F7D00BC0409BD00067C027D0080047C017D00900100
:201DE600A9ECF0E564700122E564540FFDE5656003021F5DC007C006C0051229DAE582D00A
:201E060005D006D007600122BD07569001A4E0FC7003F56422C004121341AB82D004EC3324
:201E2600E433FA600678FF79FF800478017900881B751900751A008B82C004C002122960D2
:201E4600E582D002D004700122EA6005EC04FB8003EC14FB9001A4EBF0EB600122756400CD
:201E660022BD0D028003BD0E219001A4E0F5688D82C007C0061213A3E582D006D0077001A4
:201E8600229001ADEEF075640022BD082BAB64E4CBC4540F6BCB540FCB6BCB8B047B0090FA
:201EA60001A4E07A004BF582EA4CF5831229CBE582700122756504229001A5E564F09001AD
:201EC600A4E0FC9001A6F09001A7E4F0BD09489001AAE0F55D8C82C007C00612127BAC8266
:201EE600D006D007EC7003F564228C82C007C006122BBCAC82D006D007EC30E7067A207BC8
:201F06000080047A007B009001A574014AF09001A6747F5CF08010BD03028003BD040890B9
:201F260001A4E09001A7F0756601C007C006121411E582D006D00760069001A8E070012228
:201F46008E038F0474082BFBE43CFC9001ABEBF0ECA3F0756501227401B565289001ABE033
:201F6600FBA3E0FCEEC39BEF9C30E701221229DAE582600122756600121411E582700122C5
:201F8600756502227402B56546C007C006C0051229DAE582D005D006D007600122BD090BC3
:201FA6009001AAE02401F0756500229001A9E014F0E060178E048F0574C82CFCE43DFD9042
:201FC60001ABECF0EDA3F075650322756400227403B565379001ABE0FCA3E0FDEEC39CFC50
:201FE600EF9DFD20E74D756601C007C006121411E582D006D007603B74082EFEE43FFF9055
:2020060001ABEEF0EFA3F0756501227404B565151229DAE582701C9000001229CBE58260A5
:1420260012756505227405B565091229DAE5827002F564228E
:20203A007F00EF24CFFDE43400FE8F82C007C006C005122574AC82D005D006D0078D828EB7
:20205A0083ECF00FBF800040D97549009000CF120D76AF82900270EFF0900271EFF0900268
:20207A006EE4F0900272F090026FF02290026F7401F022AE82AF8390026EE0700690026FBC
:20209A00E06004758200227D00ED24AEFBE43401FCED2EF582E43FF583E08B828C83F00D57
:2020BA00BD200040E490026E7401F0758201229001B2E0FF9001B4E0F5109001B5E0F5110E
:2020DA009001AEE0FCBC03169001AFE0FCBC550E9001B0E0FCBC4D069001B6E0600475820D
:2020FA0004229001B1E0FCBC0102800475820122E51124E8500475820322BF05028003BFAB
:20211A000606AB117C0080047B007C0074092BFCBC20005016EC24AEFAE43401FB8A828B9D
:20213A0083E06004758204220C80E5E4BF030104FC7008BF04028003BF061EE5116016AAD0
:20215A00117B00A8107900EA28F8EB39F9C3748098E499503175820322E5106003BF0922D6
:20217A00BF05117403B51103D38001C3B3920CE433FB800BE511B40100B3920CE433FBEB32
:20219A00600475820322EF24F65003022480EF240A83F582EF240E83F583E47380CAF85B7C
:2021BA005BC0F3B4795A242121222222222324249001D5740EF07F008F0374092BFB3395C3
:2021DA00E0FAEB24CEFBEA3401FAEF90362A93F98B828A83F00FBF0E0040DD022484900171
:2021FA00D57406F0900270E09001D7F0900271E060091217E8AB827F0080047B007F009035
:20221A0001D8EBF0900271E0600912105EAB827F0080047B007F009001D9EBF0900272E0D1
:20223A009001DAF07582001217D5AF829001DBEFF07582011217D5AF829001DCEFF002241F
:20225A00849001D5E511F0751200C3E51295114003022484AB1274092BFB3395E0FAEB24AF
:20227A00CEFBEA3401FAEC6019E5122510F582C004C003C002122574A982D002D003D004C2
:20229A00801AA8107F00AD127E00ED28F8EE3FFFE824CFF582EF3400F583E0F98B828A83FD
:2022BA00E9F0051280A49001B7E0FFBF80028004758203229001B8E0FF9001B9E0FD7E001B
:2022DA007C00900274EE4FF0ED4CA3F0900273E4F090027204F0022484900272E0FFBF014B
:2022FA0002800475820522900273E0FFB510028063AD117E00AB107C00ED2BFBEE3CFC7E68
:20231A0000C3EF9BEE9C500475820A227F00C3EF95114003022484AD107E008F037C00EB5D
:20233A002DFDEC3EFEED24EEF582EE3401F583E0FE8F0574092DFD3395E0FCED24AEF5822D
:20235A00EC3401F583E0FDEEB50502800475820A220F80BA7F00C3EF95115034AD107E00BD
:20237A008F037C00EB2DFDEC3EFEED24EEFDEE3401FE8F0474092CFC3395E0FBEC24AEF54D
:20239A0082EB3401F583E0FC8D828E83F00F80C6900273E02511F0022484900272E0FFBF71
:2023BA000203022484BF010A900273E0FFBF80028004758205229001EE120AD4AE82AF83F2
:2023DA00900274E0FCA3E0FDEEB5041AEFB505169001F4E0FD8E04B5040C9001F5E0FD8F56
:2023FA0006B506028004758207227549009001EE120D76E5827004758206229001EE1225DA
:20241A00EAAF82900270EFF0EF7004758209227F00EF24CFFDE43400FEEF24EEF582E4341D
:20243A0001F583E08D828E83F00FBF800040E29002717401F01207CB9002727402F0802A49
:20245A00E5106013AE105306067F00BE0405BF00028004758203228510821204F0800B90FE
:20247A000272E4F080047582022275820022AE82AF8390026FE06014900272E4F090026EB3
:20249A00F01207CB90026FE4F00227B9900272E0601D900276E0FCA3E0FDEEC39CFCEF9DFD
:2024BA00FDC3EC9488ED94134005900272E4F090026EE070012290026EE0FDBD01028003F6
:2024DA0002255B7D00ED24CEF582E43401F583E4F00DBD200040EE9001CE7404F09001CFE9
:2024FA007455F09001D0744DF09001D17401F07D04ED24CEFBE43401FCED24AEF582E43472
:20251A0001F583E08B828C83F00DBD070040E2C007C0061220C9AD82D006D0079001D6ED91
:20253A00F0ED70179001B2E0FDBD0500400DED24F74008900276EEF0EFA3F090026E7402C0
:1A255A00F090026FE070129001CE122738E582600890026EE4F00227B9229D
:0E362A00554D41430106000606058003FFFFD3
:202574000234F2AF82C007122574AE82D007EEB513028019A2AF920DC2AF900305E513F043
:202594008F82C0071234BCD007A20D92AF8F82122574E582B5130474018001E4F58222AE76
:2025B40082AF837D008D82C007C006C005122574AC82D005D006D007ED2EF582E43FF583ED
:2025D400E0FBECB503028004758200220DBD800040D375820122AE82AF83C007C00612252C
:2025F400B3E582D006D007600475820122751300758200C007C006122577E582D006D007B4
:202614006015751300758201C007C006122577E582D006D0077004758200227D02ED2EF546
:2026340082E43FF583E0F5138D82C007C006C005122577E582D005D006D0077003F582227D
:202654000DBD800040D7751350758201C007C006122577E582D006D007601575134D7582A5
:1B26740000C007C006122577E582D006D0077004758200228E828F830225B373
:04000000020049327F
:03000B00023502B9
:0100130032BA
:01001B0032B2
:0100230032AA
:01002B0032A2
:01003300329A
:01003B003292
:0300430002269002
:0E00A2007808E4F608F608F608F6780C760002
:0300B40002004601
:030046000226CFC0
:20269000C023C0E0C0F0C082C083C007C006C005C004C003C002C001C000C0D075D000126F
:2026B00033C4D0D0D000D001D002D003D004D005D006D007D083D082D0F0D0E0D02332128B
:0E26D00035931208A21208D380FB75820022F7
:2026DE0012345412347E12346D75DD0075D3002275D30074FC55D24402F5D2900307E4F0B5
:2026FE002230DE357402B5DB1190000AE0FFBF010990000BE0900306F0227420B5DB1A900A
:20271E00000AE0FFBF031290000A12208DE582600874F355D24408F5D222D310AF01C3C0DD
:20273E00D0AE82AF839002CC7401F0900304E0601F900307E070199002CAE060069002CD8C
:20275E00E0600DACD25304037D00BC0308BD000575820080417D008D037C0074402BFBE431
:20277E003CFCEB240AFBEC3400FCED2EF582E43FF583E0FA8B828C83F00DBD200040D8902E
:20279E0002CCE4F09002CDF075D32090030704F053D2FC758201D0D092AF22D310AF01C3C2
:2027BE00C0D0AED253060C7F00BE0C05BF0002800353D2F3D0D092AF22E582900306F022C7
:2027DE009002CEE4F09002CFF09002D0F09002D1F09002D2F09002D7F0A3F09002D5F0A377
:2027FE00F09002D3F0A3F07F00EF24D9F582E43402F583E4F00FBF080040EE9002E1E4F050
:20281E009002E2F0A3F0900307F09002CBE02401F09002CCE4F09002CDF00228429002CB7D
:20283E00E0F58222D310AF01C3C0D09002CAE4F09002C8F09002C9F0D0D092AF22AF829092
:20285E0002C8E024C0F582E43402F583EFF09002C8E0FF0F74075FF09002CAE02401F0750C
:20287E008201228582148583159002CAE0FDBD08028006900304E07004758200229002C879
:20289E00E075F009A42478FC740235F0FD8C828D837401F00CBC00010D7B00EB2514F9E423
:2028BE003515FA89828A83E08C828D83F0A3AC82AD83EB24D9F8E43402FF89828A83E08836
:2028DE00828F83F00BBB080040D175820902285BD310AF01C3C0D0122881D0D092AF22AF9F
:2028FE00829002CAE0FEBE08028006900304E07004758200229002E1EFF09002C8E075F0BB
:20291E0009A42478FD740235F0FE8D828E837402F00DBD00010E8D828E83EFF00DBD000191
:20293E000E8D828E83E516F00DBD00010E8D828E83E517F08D828E83A3E518F075820502CD
:20295E00285BD310AF01C3C0D0851916851A17851B181228FDD0D092AF22AE82AF839002A0
:20297E00CAE0FDBD08028006900304E07004758200229002E2EEF0EFA3F09002C8E075F0CE
:20299E0009A42478FC740235F0FD8C828D837405F00CBC00010D8E038C828D83EBF08C8247
:2029BE008D83A38F06EEF075820302285BD310AF01C3C0D0122978D0D092AF229002CAE07C
:2029DE00700A900307E07004C20E8002D20EA20EE433F58222D310AF01C3C0D0AE82AF8397
:2029FE009002CAE06003022AE89002D2E0FD0D751C00BD01079002CEE0FB8011BD02079040
:202A1E0002D0E0FA80059002D1E0FA8A03BD010A9002D3E0F9A3E0FA8019BD020A9002D551
:202A3E00E0F8A3E0FC80089002D7E0F8A3E0FC88018C028904EB7003022AD5EEC39CFCEF9E
:202A5E009AFA8B017B00E929F9EB33FBE929F9EB33FBC3EC99EA9B405EBD03067B007C004D
:202A7E0080048D037C009002D2EBF0BD01109002D9C007C006122881D006D007804CBD02B0
:202A9E001D9002E1E0FC7516007517007518008C82C007C0061228FDD006D007802C90024B
:202ABE00E2E0FBA3E0FC8B828C83C007C006122978D006D00780130DED24FC50027D010531
:202ADE001C74FD251C4003022A10900304E06025900307E0701F9002CAE060199002CCE093
:202AFE0060069002CDE0700DACD25304037D00BC0306BD0003022BB79002C9E0FD75F00932
:202B1E00A42478FB740235F0FC8B828C83E0F51DED24C0F582E43402F583E0F51E7900C3AE
:202B3E00E9951E502789007A00744028F8E43AFAE8240AF8EA3400FA8B828C83E0FDA3AB08
:202B5E0082AC8388828A83EDF00980D37401B51D0A9002D3EEF0EFA3F0801C7402B51D0A52
:202B7E009002D5EEF0EFA3F0800D7405B51D089002D7EEF0EFA3F09002CD7401F0851ED38D
:202B9E009002C9E0FF0F74075FF09002CAE014F09003077401F053D2FCD0D092AF22AF8270
:202BBE00BF8000400475820022EF90363893F58222E582FF7017AE7C9002CFEEF09002D189
:202BDE00EEF09002D0EEF09002CEEEF022BF01079002CEE57CF022BF02079002D0E57CF044
:202BFE0022BF05069002D1E57CF022E582FF70079002CFE0F58222BF01079002CEE0F582C0
:202C1E0022BF02079002D0E0F58222BF05079002D1E0F5822275820022AF82AD7DAE7E8DFD
:202C3E00828E83EFF0BF0143E57C601474012DFBE43EFC900306E08B828C83F075820222D1
:202C5E007C008C027B000ABA00010BEA2DFAEB3EFBEC24D9F582E43402F583E08A828B83E0
:202C7E00F00CBC080040DB75820922E57C7039BF023674012DFBE43EFC9002E1E08B828C91
:202C9E0083F074022DFBE43EFC74032DF9E43EFA8D828E83A3A3A3A3E4F089828A83F08B1B
:202CBE00828C83F075820522E57C702FBF052C74012DFCE43EFF9002E2E0FAA3E08C828F3A
:1F2CDE0083EAF074022DFDE43EFE9002E2E0A3E0FC8D828E83ECF07582032275820022B6
:2036380000000000000000002A2B28000000000000000000000000000000000000000000F5
:203658002C9EB4A0A1A2A434A6A7A5AE362D3738271E1F20212223242526B333B62EB7B815
:203678009F8485868788898A8B8C8D8E8F909192939495969798999A9B9C9D2F3130A3AD06
:20369800350405060708090A0B0C0D0E0F101112131415161718191A1B1C1DAFB1B0B5006B
:0237FB000000CC
:2036B800120110010000000809125DC500010102030105010906A1018501050719E029E72F
:2036D8001500250195087501810295017508810395067508150026FF000507190029E78162
:2036F8000005081901290515002501950575019102950175039103C005010902A101090160
:20371800A1008502050919012903150025019503750181029501750581030501093009313C
:2037380009381581257F750895038106C0C00600FF0901A10185030902150026FF007508DF
:20375800951F910285040903951F8102C0050C0901A1018505150026FF0F19002AFF0F7528
:203778001095018100C009022900010100806409040000020300000009211001000122B40C
:20379800000705810320000A0705010320000A040309041C0343004800350035007800205D
:2037B800006B006200640020006D006F007300260355006E006900760065007200730061DB
:2037D800006C0020004D006100630072006F007000610064000E0344006500710069006E1C
:0337F80000670067
:0300B000757B005D
:202CFE00AE73AF74C3EE9408EF9400920F40067C087D008004AC73AD747D00C3ED9C502CB1
:202D1E008D027B00E57A600A857882857983E0F98009857882857983E493F98A828B83E9ED
:202D3E00F00578E4B5780205790D80CF8C037D00EEC39BFEEF9DFF8E738F748C8222AFDB7C
:202D5E007D007E008E768E7ABF0802800302325F900007E0FC7F00900006E0FB7A004FF54E
:202D7E0073EA4CF5747F00900001E0F5758F7B900000E0FC54607003022F39900000E0FC56
:202D9E005304607B00BC2005BB00028010BC4005BB00028003022F347FFF02326190000468
:202DBE00E07006900005E060057FFF0232617409B5753F900000E0FCBC2137900003E0FCDD
:202DDE00BC022F900002E0FCBC030CAB73AC74BB2005BC00028012900002E0FCBC0113AB58
:202DFE0073AC74BB020CBC0009857376757700023261740AB57555900000E0FCBC214DE52D
:202E1E007345747047900002E0601C900002E0FCBC01028012900002E0FCBC0202800890BE
:202E3E000002E0FCBC0525900304E0601F900002E0FC900003E0F57C8C82C007C006C00508
:202E5E00122BCFD005D006D0070232617402B5755D900000E0FCBCA155900002E0601C9098
:202E7E000002E0FCBC01028012900002E0FCBC02028008900002E0FCBC0533900003E0700A
:202E9E002DAB73AC74BB0126BC0023900304E0601D900002E0F582C006C005122C09AC820B
:202EBE00D005D006900000ECF07F010232617401B5755E900000E0FCBCA156900003E0FC3D
:202EDE00BC01028008900003E0FCBC0244900304E0603E900002E0FC900003E0FBE4BB028A
:202EFE000104F57C757DE4757E028C82C007122C37AC82D0078C057E00ED4E600F7578E49A
:202F1E00757902757A017575060232617FFF0232617FFF0232617FFF023261E57524F45033
:202F3E000302325BE575240B83F582E575241083F583E473AF2D5B2D5B276A5B34519D9D14
:202F5E003131323132302F3230303030900003E0FCBC01028017BC0202801FBC030280277F
:202F7E00BC21028074BC2202807C0230227578B87579367D127E0002326175787E75793735
:202F9E007D297E00023261900002E070087578A77579378035900002E0FCBC01087578EDF5
:202FBE007579378025900002E0FCBC02087578C77579378015900002E0FCBC03087578ABBA
:202FDE0075793780057FFF023261857882857983E493FCFD7E000232617578907579377D74
:202FFE00097E00023261900002E070137578CA757936903797E493FDA3E493FE0232617FC9
:20301E00FF0232617FFF023261900002E0FC8C73757400023261900304E0900000F0AB73EB
:20303E00AC74C3EB9401EC940050030232617F01023261900000E07021900003E0701B9003
:20305E000002E0FC24FE4012900004E0700C900005E07006E573457460057FFF023261900C
:20307E000002E0900304F0C007C006C0051227DE122086D005D006D00775D21202326190A8
:20309E000004E07075900005E0706F900002E07069900003E07063900304E0605D740AB5FD
:2030BE00750474018001E4FC602C900000E0FBBB8103D38001C392105013AA73AB74BA015A
:2030DE0006BB0003D38001C39210101002D210A210E433FB8021900000E0FABA0103D38071
:2030FE0001C39210500AE57345747004C2108002D210A210E433FBEB60057FFF023261EC24
:20311E007003023261900000E4F07F01023261900000E0FCBC0218900002E0701290000347
:20313E00E0700C900005E07006E573457460057FFF023261900004E0FCBC812D7403B57526
:20315E000B74FC55D24403F5D202326174BC55D24402F5D2C007C006C0051227DE12208687
:20317E00D005D006D007023261900004E0FCBC011B747355D2FC7403B575067A0C7B0080A0
:20319E00047A007B00EA4CF5D20232617FFF023261900004E0FD7E00900000E0FCBC824C8E
:2031BE008D038E04BB8117BC0014A9D2530103E4FAB90304BA000104F9FD7E008048BB0185
:2031DE0017BC0014A9D253010CE4FAB90C04BA000104F9FD7E00802EED4E6006BB8009BCE6
:2031FE0000067D007E00801E7FFF8057900000E0FCBC80028008900000E0FCBC8104ED4EA3
:20321E0060047FFF803D900005E0700C900002E07006900003E060047FFF80278D049000FB
:20323E0000ECF0900001E4F0AB73AC74C3EB9402EC940040047F02800AAF7380067FFF8038
:20325E00027FFFBFFF0280177406B57512C3ED9573EE957450048D738E74122CFEAF82BF92
:20327E00FF077575FF75DCCF22EF24F740168FDDE57660067E027F0080047E007F0074C0BE
:20329E004EF5DC2275DD00E57660067E027F0080047E007F0074C04EF5DC227405B5750222
:2032BE00800F7406B57518122CFE8582DD63DC4022E5E35480FFE5734FF5E375DC022275E0
:2032DE00DD0075DC022220DE01227409B5750280030233B2E57670030233B2E5DB24F7506A
:2032FE00030233B2AE777F00ACDB7D00EC2EFEED3FFFAC767D00C3EC9EED64808FF063F04C
:20331E008095F050030233B27F00C3EF95DB5019EF257724E4FDE43402FE8F82758300E0B5
:20333E00FC8D828E83F00F80E1E5DB2577F577E576B577477420B5761C9002E4E0FFBF036B
:20335E00149002E412208DE582600A74F355D24408F5D2801C7402B576139002E4E0FFBF30
:20337E00010B9002E5E0F5821227D7800475DCCF2275760075DD0075DC482274F825DB40DB
:20339E00077575FF75DC0F2263DC8074F055DC4402F5DC2275DD00E57660077575FF75DCC2
:2033BE000F2275DC022220D90302342AE5D9540F6002802CAED95306307F00BE0005BF00AD
:2033DE00028013BE2005BF00028010BE303CBF0039122D5C80341232E4802F1232B9802A17
:2033FE00AED953060F7F00BE0120BF001DE5D95430600280051226FF8010AED95306307F07
:20341E0000BE2006BF00031226EEC2D930D81A1220861227DE75DC0275D21275E300C2DA96
:20343E00C2D9C2D8900304E4F010DA0122E5DA20E20375D8FF2275E20053E27F43E22975C1
:20345E00E30053E2BF53D1FB75D18043D1012243E10443E10243E10143D81FD2EAD2AF224F
:1A347E007E007F008EEC8FED7E0A7F008EEE8FEF75D21275EAC075DC022253
:20349800ABF0A2AFE433FEC2AFE0A37A0833D2B44002C2B47905D9FEC2B4DAF1DBEBEE6082
:0434B80002D2AF226B
:2034BC00AF82BF800040012275A15575A1AA43B10475A1007585C0EF2FF584900305E0F526
:2034DC008EE58630E60375869A75A15575A1AA53B1FB75A10022AF827585C0EF2FF58475D0
:0634FC00868E858E8222FF
:06007800E478FFF6D8FD5C
:200056007902E94400601B7A019037FB780675A003E493F2A308B8000205A0D9F4DAF27513
:02007600A0FFE9
:20350200C0D075D00808B8000D09B900090ABA00050BBB00010CD0D032A2AFC2AFA808A9AB
:2035220009AA0AAB0BAC0C92AF75F020E8A4A8F075F020E9A428F582A8F075F020EAA428F0
:20354200F583A8F075F020EBA428F9A8F075F020ECA42889F022AE82AF83C374019EE49FF9
:2035620040022200C374029EFE74009FFF00BE0005BF000200220000000000000000000058
:20358200000000000000000EBE00EB0FBF00ED002275A15575A1AA74F855B94406F5B97583
:2035A200A100901388123558759E5D759D0074F055894402F58953C9EF758C06C28DD2A93A
:0535C200D28CD2AF2203
:20007E007800E84400600A799475A000E4F309D8FC7872E84402600C7903900094E4F0A3E3
:04009E00D8FCD9FAB7
:0D0049007581841235C8E58260030200460F
:0435C80075820022E6
:00000001FF
