:2000B8007E947F007D007C004305128E828F838DF0EC0233B47F00BF1200500FEF2494F585
:2000D80082E43400F583E4F00F80EC0200B8E582FFC4540FFEEFB40100B39200E4334EF51F
:2000F800822290026FE070079000CAE07001221215E38582239000CAE0FEE0700885238231
:20011800120E99AE82EE0303543FFD530503EEC4540FF5249000C6E0F525740FB5241B907A
:2001380000CAE06008E4BD030104FA800AEDB40100B39201E433FAEA7004C2018002D201F9
:20015800A201E433F52678947900E4BD030104F52A74015525F52BE4F52CBD020104FD741C
:20017800015EF52D752E007E00BE060040030200B885242F752700EE90352B93FB9000C9CB
:20019800E02BFB9000CAE060057527018061E5256014752701ED6057E52B452C6051752F8F
:2001B8000F7527008049EE24ADFAE43400FF8A828F83E0602B8E49852382C006C005C0030B
:2001D800C001C000120EB8AF82D000D001D003D005D0068F2FBF0F179000D2E0FF30E70F54
:2001F80085242FE52A60057527018003752F0FE527605DE5266059BB550050188B07745568
:20021800C39FFF75F003A4F528EB75F003A4F5297A00806BBBAA00501E8B04EC24ABFC7534
:2002380028008C077455C39FFF75F003A4F529EC75F003A4FA8048EB2456FB75F003A4F57C
:20025800287529007455C39BFB75F003A4FA802FE52F75F003A42441FC743535F0FF8C828D
:200278008F83E493F5280CBC00010F8C828F83E493F5290CBC00010F8C828F83E493FAE5E5
:2002980027603BE52D452E7035852882C006C005C002C001C0001200E685822885298212F4
:2002B80000E6858229D000D001D0028A82C001C0001200E6AA82D000D001D005D006888296
:2002D8008983E529F088828983A3E528F088828983A3A3EAF0740328F8E439F90E020181D1
:2002F800AF829000CAEFF0EF702190026FE0701B1200CD90009574FFF0123437AC82AD834E
:200318009000CBECF0EDA3F00200B80200FAAF82C007120E99AE82D007EE0303543FFE53C8
:2003380006039000C6E4F0BE0103048001E4FD7003BE022CED60067D067E00800C0FEF33DA
:2003580095E0FCEF2FFDEC33FE9000C6EDF0AE30E531C313CE13CEFF747D2EFE9000C7F0CD
:200378000200FAAE82AF839000C6E0FDE06012EFC313CE13CE9000C7E0FFEEC39FFE30E773
:200398000122ED149000C6F09000C7747D2FF00200FA1215AE123437AC82AD83AEF0FFC06B
:2003B80005C004122866E582D004D0056038C005C004123437AA82AB83AEF0FFD004D0056E
:2003D800EAC39CFAEB9DFBC3EA9464EB94005016C005C00412343712287F1234371219ED61
:2003F800D004D00580B97E947F007D00BD0600501F8E828F83E4F08E828F83A314F08E82F4
:200418008F83A3A3E4F074032EFEE43FFF0D80DC1200B875E200C2AF75890090C3501234F1
:200438007490C35012347412380080FEAF82BF060AA2B3B39202E433F58222BF050AA2B29D
:20045800B39202E433FE8013EF90352693FFE5905207EFB401009202E433FE8E8222A2B08A
:20047800E43325E0FFA2B1E4334FF58222AF82C007120444AE82D007EF24A6FCE43400FDD4
:200498008C828D83E0FBEEB50302801C8C828D83EEF0EF75F002A424B4F582740035F0F534
:2004B80083E532F0E533A3F0EF24ADFCE43400FD8C828D83E0FBEEB5030122EF75F002A462
:2004D80024B4F582740035F0F583E0FAA3E0FBE532C39AFAE5339BFBC3EA940AEB94004026
:2004F800658C828D83EEF09000CAE0600E758200C007C0061202F8D006D00790026FE0704D
:200518000122EE6030BF061CC0071215E3120E99E582D0079000C55402F09000CBE532F07C
:20053800E533A3F08532628533638F82C007121627D00780098F82C0071218D2D007BF06CD
:200558000050030200FA22120476AF829000C2E0FEEFB50601229000CAE0600A758200C0FD
:20057800071202F8D0079000C2E025E025E04F90353193FE9000C2EFF090026FE0700122C2
:20059800EE70069000C3E4F0229000C3E02EF0E0FFC364809484400B9000C3E4F07582013D
:2005B800021987C3747C8FF063F08095F0400B9000C3E4F075820002198722123437AC821F
:2005D800AD83AEF07F00EF24F94056EF24A6FBE43400FEEF24ADF9E43400FA8F82C007C0E7
:2005F80006C005C004C003C002C001120444A882D001D002D003D004D005D006D0078982B3
:200618008A83E8F08B828E83E8F0EF75F002A424B4F582740035F0F583ECF0EDA3F00F80A2
:20063800A5C005C004120476E582D004D0059000C2F090026FE0700C9000CAE07005F58213
:200658000202F822C005C0041215AE9000C3E4F01215E3E582D004D0059000C4F09000C52C
:20067800E4F09000C6F09000C8ECF09000C9E4F00200FA121E324390F24392F24393F243F2
:20069800B00F740F459654EFF59643971F1200CD1205D31224FA758206120444E582600344
:2006B8000203AA22123437AC82AD83C005C00412287FD004D0058C828D83C005C0041222B0
:2006D800ACD004D0057F00EF24F940188C328D338F82C007C005C004120485D004D005D0D7
:2006F800070F80E3C005C00412055FD004D0058C079000C8E0FEEFC39EFEBE0600406A90AC
:2007180000CAE0FE6010EE30E3068E037E00802E7B007E00802890026FE0601AC007C0055D
:20073800C0041215E3120E99AA82D004D005D0078A017A00800479007A0089038A06530380
:20075800FC7E00C374F09B74808EF063F08095F050179000C8EFF09000C9E02401F0C005CA
:20077800C0041200FAD004D00590026FE070319000CAE0702A9000CBE0FEA3E0FFECC39E8A
:20079800FEED9FFFC3EE94F4EF940140129000CBECF0EDA3F0900095E064FFF00200B822BE
:2007B8008C828D83C005C0041219ED1215E7E582D004D0057017C005C0041215E3AF82D029
:2007D80004D0059000C4E0FEB50702804CC005C0041215E3AF82D004D0059000C4E0FEB518
:2007F8000702801FC005C0041215E3E5829000C4F0120476E582D004D0059000C2F090008D
:20081800C3E4F09000C4E0FF8C308D318F82C005C004120326D004D0058C828D83C005C05B
:200838000412037BD004D0059000C5E060219000B3E0601B9000CBE0FEA3E0FFECC39EFC0B
:10085800ED9FFDC3EC94B8ED940B40030203AA226C
:1B3526000280402010002A54D2A87E00FF0100010000FFFF0000010001FF0022
:20086800AF82BF01067E0F7F0080047E167F008E8222AF82BF01067E037F0080047E067F26
:20088800008E8222AF827E007D00C3ED9F500EE51CC39DFC1C8E03EC2BFE0D80EDE51B2E7E
:2008A800C39F14F58222AE82AF837CFF7DFF7B00BB06028036BB07028031EB2EF582E43FAC
:2008C800F583E0FAE4F96204EA62057A08ED30E70EEC2CF8ED33F96300216301108006EC03
:2008E8002CF8ED33F988048905DAE20BBB800040BF8C828D8322E582FF6020BF040092031A
:200908004007EF249A92035012BF680092034007EF248C92035004C2038002D203A203E4B4
:2009280033F5822285823985833AE5342539F582E4353AF583E0FD740F5DFCEDC4540FFDDE
:20094800AA347B000ABA00010BEA2539F582EB353AF583E0FBEC24F05003020AE2EC240A9F
:2009680083F582EC241483F583E47393C8C8EDEDEDED164E61AEC8E2A61D1D0909090909FE
:2009880009090A0A0A0A0A0A090A0AED7003EB6004C2048002D204A204E433F58222ED24B0
:2009A800FE9204400EEB24F99204500BBBFA0092045004C2048002D204A204E433F5822241
:2009C800E536600BBC0203D38001C3920440098B821208FEE5827004C2048002D204A2040E
:2009E800E433F58222E536600BBC0503D38001C39204400DED700AEB6007EB24F892045055
:200A080004C2048002D204A204E433F58222ED600475820022E536B4010092048D04E433DE
:200A2800C364808CF063F08095F09204400BBB8003D38001C392045004C2048002D204A253
:200A480004E433F58222ED7007EB7004C2048002D204A204E433F58222ED7006C3EB9538C5
:200A68004004758200227C007A00C3EA9538502EEAB50307EC600475820122A83779008A2E
:200A8800067F00EE28F8EF39F9E82539F582E9353AF583E0FFE4BF000104FC0A80CCE4BB95
:200AA800000104F58222ED24FE92044006C3EB95354004C2048002D204A204E433F5822275
:200AC800ED700AC3EB95355004E5366004C2048002D204A204E433F5822275820022AE829F
:200AE800AF83754400E53B24FE403E8E828F83E0FCBC4D358E828F83A3E0FCBC502B8E821F
:200B08008F83A3A3E0FCBC042074052EFBE43FFC8B828C83E0F95301017A00A83B7D00E9EB
:200B2800B50006EAB505028004758200228E828F83A3A3A3E0FDFA74075A04F53CEDC423EF
:200B4800541FF95301077D00853C458D46C3E99545ED64808546F063F08095F040047582CB
:200B68000022853B82C007C006C004C00312087A85823D853B8212086885823ED003D0046D
:200B88008B828C83E0C313FB743F5BF53FA83E7B00A93C7D00C001C00588828B831234E4B3
:200BA800AB82AD831581158174092BFBE43DFDA83F7900C005C003C000C0019000031234A1
:200BC800E4A882A98315811581D003D005D006D007E82BF8E93DF98E828F83A3A3A3A3E09A
:200BE800FD7C0028F8EC39F9C3748098E499500475820022853EF0E53CA4FC2409FBE53F3D
:200C0800F975F003A42BF5408D41754200C3E542953C4003020CA7853EF0E542A42409F88C
:200C2800754300853D4775480074032547FAE43548FBA9437D00C3E99AED64808BF063F0A7
:200C48008095F05055E543254388052DF53474012547FBE43548FDA9437A00C3E99BEA643A
:200C6800808DF063F08095F0B39205E433F536853C358540378541388E828F83C007C006EC
:200C8800C004C00012092CE582D000D004D006D0077003F58222054380890542020C15748E
:200CA800092CFD7403B53D0474018001E4FC7B00C3EB953F4003020D5AED2EF582E43FF564
:200CC80083E0FAC4540FF85300077900C3E89545E964808546F063F08095F050678A0053C4
:200CE800000F7900EC6008754703754800800675470F754800C3E89547E964808548F06312
:200D0800F08095F0503EEB6006C3E5449A50358D01E904F534853C357536008540378541E5
:200D2800388E828F83C007C006C004C003C002C00112092CE582D001D002D003D004D006EC
:200D4800D0077004758200228A44740329FD0B020CB8E5416024AB407D00AA417C00EA2B5D
:200D6800FBEC3DFD1BBBFF011DEB2EFBED3FFD8B828D83E0600475820022754300C3E543FD
:200D880095415076AB407C00A9437A00E92BF8EA3CFDE82EF8ED3FFD88828D83E06057E9E2
:200DA8002BF8EA3CFDE82EF582ED3FF583E0FDBD09028042E92BF8EA3CFDE82EF582ED3F65
:200DC800F583E0FDBD0A02802DE92BF8EA3CFDE82EF582ED3FF583E0FDBD20004014E92BBE
:200DE800FBEA3CFCEB2EF582EC3FF583E0FD2481500475820022054380838E828F83C00778
:200E0800C0061208AEAC82AD83D006D00774062EF582E43FF583E0FB8C02B5021274072E9C
:200E2800F582E43FF583E0FF8D04B504028004C2058002D205A205E433F582229000D0E032
:200E4800FF74075F04F582229000D0E0C423541FFF74075FF582229000D2E0FF74015FF5FE
:200E68008202087A9000D5E0FF740F5F75F005A4F58222AF829000D2E0FE74015EF582C01C
:200E880007120868E582D007F5F0EFA42409F58222E58204F582120E7BAF827E001FBFFF3C
:200EA800011EEF24CDF582EE3400F583E0F58222AF82C007120E5FAE82C006120E44AD82A1
:200EC800D006D007C3EF9D5006C3E5499E4004758206228F82C006120E7BAF82D006E4FD6C
:200EE800FC74032EFEE43CFCEE2EFEEC33FCEE2FFFEC3DFDE549C3137C002FFFEC3DFDEFF5
:200F080024CDF582ED3400F583E0FFE54930E009EFC4540FFD7E0080087C00740F5FFD7EB0
:200F2800008D8222AF82C007120E44AE82D007C3EF9E5025C007120E5FAE82D0077D007412
:200F4800032EFEE43DFDAB4A7C00C3EB9EEC64808DF063F08095F0400BE54BF87600E54CC0
:200F6800F87600228F82120E7BAF82E54A254A2FFEA94B24CDF582E43400F583E0F7A94C79
:200F88007F000EBE00010FEE24CDF582EF3400F583E0F722AF82C007120E5FAE829000D2FB
:200FA800E0C313FD743F5DF551C006120E44120E7BAC82D006D007E54EB54D028022C3E5FF
:200FC8004D9E501CC3E54E9E5016C007C006C004120E44AB82D004D006D007C3EF9B4004C4
:200FE80075820022C3E54E954D5007AB4D854E4D8B4EEFC454F0FF854E1B8E1C854D82C00E
:2010080007C00412088CAE82D004D007EE4207755200C3E55295515064EC24CDF582E4347E
:2010280000F583E0FBB50702801753038F7A008F0553050F7E00430580EBB50536EAB506E0
:2010480032A94F8C057E0074012DFAE43EFBEA24CDF582EB3400F583E0F7A95074022DFD3D
:20106800E43EFEED24CDF582EE3400F583E0F77582012205528C0674032EFC8095758200D2
:2010880022AF82E5532FFEC39F400A9000D1E0FFC3EE9F400475820022C006120E44120EAD
:2010A8007BAF82D0069000D2E0C313FD743F5D75F003A42FFDE4FFFCEE2DFDEC3FFFED2417
:0C10C800CDF582EF3400F583E0F58222C4
:20354100FF0000FF1607FF1000FF4200FF7C003CFF0064C8141D7B4300FFC8005BFF00000D
:10356100FF7300B4FF00C2FF0048FFFFFF0000002F
:2010D400AF827408B55502800EE51C6034AE55C3EE64809481402AE51C60129001A1E0FE86
:2010F400BEFF0280189001A1EE04F080109001A0E0FEBEFF0280069001A0EE04F075820083
:201114002290019EE075F002A4248EF582740135F0F583EFF090019EE075F002A4248EFE9B
:20113400740135F0FF8E828F83A3E51BF090019EE0045407F00555758201227F007E00EE90
:201154002469F582E43401F583E0FD42070EBE090040EC7E00EE245BFCE43401FD8C828D27
:2011740083E06025EE244DF582E43401F583E0FD53050F7C00BD0511BC000EEE2454F582D2
:20119400E43401F583E0FD42070EBE070040C6E55C60079001A5E0FE42078F8222AF82C082
:2011B4000712114FAE82D007BF0E09E55EFC3395E0FD80047C007D00BF0F09E55EFD339585
:2011D400E0FF80047D007F008D188C177519008E820227D1E582FF7004758201227E02EE5A
:2011F400247AFCE43401FD8C828D83E0FBB5070475820122EB700A8C828D83EFF0758201FE
:20121400220EBE080040D8758200227F007E00EE247AF582E43401F583E4F00EBE0800401A
:20123400EE7E00EE245BFCE43401FD8C828D83E06040EE244DF582E43401F583E0FDFB537F
:20125400030F7C00BB022BBC002890017AE0FCEDC4540F420490017AECF0EE2454F582E437
:201274003401F583E0F582C007C0061211E8D006D0070EBE070040AB9001A67401F0E55C76
:20129400603B9001A3E0FE53060F7D00BE012EBD002B9001A4E0F582C0071211E8AE82D075
:2012B400079001A6EEF0EE601490017AE0FE9001A3E0C4540FFD420690017AEEF07E00EEDE
:2012D400247AF582E43401F583E0FDEE2472F582E43401F583E0FCEDB5040280027F010E57
:2012F400BE080040DAEF602E90017A122727E5827003F582227F00EF2472FDE43401FEEF98
:20131400247AF582E43401F583E0FC8D828E83F00FBF080040E112114FE582FFB5540280CD
:201334001B7517007518007519008F82C0071227D1E582D0077003F582228F5475820122AE
:20135400AF82AE5674FFB5590280118559567559FFC007C00612144CD006D0078F04530499
:201374000F7D00BC0004BD000122BC0204BD000122BC0504BD000122BC0605BD0002801CC4
:20139400BC0A05BD00028058BC0B05BD00028008BC0D5BBD0058801E75580122E56124692A
:2013B400FCE43401FD8C828D83E0FBE55F62038C828D83EBF022C007C006120E44AD82D05A
:2013D40006D007E55F2EFE8D04ECC40354F8FC2EF55FC3E55F9D4008E55FC39DF55F80F248
:2013F400755801EF30E403855659855F5622855F1B85601C8F820210D4900189E0FFE07035
:2014140001221F900189E4F0EF245BF582E43401F5837401F0EF244DF582E43401F583E065
:20143400FEEF2454F582E43401F583E0F55F7560008F618E82021354AF567E007D00ED24A8
:201454005BFBE43401FC8B828C83E06035ED244DF582E43401F583E0FC53040F7B00BC0B92
:2014740021BB001EED2462F582E43401F583E0FCC39E400E8C06ED2454F582E43401F58359
:20149400E0FF0DBD070040B6EFB55701228F577F00EF2469F582E43401F583E4F00FBF09E0
:2014B4000040EE75550090019EE4F090019FF0AE5A53060F7F00BE0812BF000F7404B55BE0
:2014D4000280057405B55B03755D01755A00755B00755C009001A5E4F012140D02144C12F1
:2014F4000E508582568556577558007559FF900189E4F0900182F09001A0F09001A1F07F9E
:2015140000EF2483F582E43401F583E4F00FBF060040EE90019EE4F090019FF0F555F55A87
:20153400F55BF55D9001ABF0F55C9001A5F0F554122657E58290018DF07F00EF245BF582A1
:20155400E43401F583E4F0EF2462F582E43401F583EFF0EF244DF582E43401F583E4F0EF8B
:201574002454F582E43401F583E4F00FBF070040CA7F00EF2469F582E43401F583E4F00F3E
:20159400BF090040EE7F00EF2472F582E43401F583E4F00FBF080040EE2212265E1214F38C
:2015B40090017274FFF0F554900000122857E582B401009206E433F55D02121FE582600729
:2015D4009001A1E0FF80059001A0E0FF8F82228557822285588275580022E5822462FEE481
:2015F4003401FF8E828F83E0FD7C00EC2462FAE43401FB8A828B83E0F9C3ED995007198A72
:20161400828B83E9F00CBC070040E08E828F837406F022AF82C007120E5F858266D007C332
:20163400E5669F40248FF005F07C017D008006EC2CFCED33FDD5F0F7900182E0FBF97A0006
:201654005204EA5205EC4D6001228F058DF005F07401800225E0D5F0FB9001824BF0C3EF61
:201674009566E433FC6010EF2483FAE43401FB8A828B83E0600122900189E0FBE07003026D
:2016940017A5EC700874FFB559030217A51BEC700302179390018BE0F9A3E0FAE562C39999
:2016B400F9E5639AFAC007C005C004C003C002C001120E6CA882D001D002D003D004D005D6
:2016D400D0077E00C3E998EA9E400302179390018AE0FE754F647550658B4D8F4E8E82C016
:2016F40007C005C004C003120F9CE582D003D004D005D0077003021793900189E4F0EB24F0
:2017140083F582E43401F583ED04F0EF2483F582E43401F5838B060EEEF0EB244DF582E477
:201734003401F583E564F0EB2454F582E43401F583E565F0EF244DF582E43401F583E4F0CE
:20175400EF2454F582E43401F583E4F0EF245BF582E43401F583E4F0EB245BF582E43401EE
:20177400F5837401F08B82C0031215EED00385655F7560008B6185648212135402144CC0B0
:2017940007C005C00412140D12144CD004D005D007754B64754C658F4A855782C007C00573
:2017B400C004120F2CD004D005D007EF244DFBE43401FE8B828E83E564F0EF2454F9E43443
:2017D40001FA89828A83E565F08F82C007C006C005C004C003C002C0011215EED001D00283
:2017F400D003D004D005D006D007EC6071C007C006C005C003C002C001120E6CE582D00193
:20181400D002D003D005D006D00760527C00C3EC9566504A754F647550658F4D8C4E855737
:2018340082C007C006C005C004C003C002C001120F9CE582D001D002D003D004D005D0069D
:20185400D0076017900189ED04F090018AE557F090018BE562F0E563A3F0220C80B0EF2445
:201874005BF582E43401F5837401F08B828E83E0FB89828A83E0F55F7560008F618B821263
:20189400135402144CE582FF244DF582E43401F583E0FE53060FEF245BFDE43401FF8D82B4
:2018B4008F83E06018BE02028003BE05067C027E0080047C007E008D828F83ECF022AF82D2
:2018D400C007120E5FAE82D007C3EE9F5001228F068EF005F07401800225E0D5F0FBF4FE2E
:2018F400900182E05EF08F057E000DBD00010E900189E07B00B5050EEBB5060AC0071214CE
:201914000D12144CD0078F82C007121899120E5FAE82D007C3EF9E5057EF2483FEE4340198
:20193400FF8E828F83E0FD60471D8D82C007C006C005121899D005D006D0078DF005F07B3E
:20195400017C008006EB2BFBEC33FCD5F0F7900182E0F97A005203EA5204EB4C70128E82C4
:201974008F83E4F0ED2483F582E43401F583E4F002144CAF82C007120E5FAE82D007EF60CE
:20199400067C017D0080047C027D00EC2EFE900189E0601574FFB55902800EC007C006127D
:2019B400140D12144CD006D007754B67754C688E4A855782C007120F2CD007EF60067E0788
:2019D4007F0080047E087F008E6185685F75600185678212135402144CAE82AF8390018915
:2019F400E0603B90018BE0FCA3E0FDEEC39CFCEF9DFDC007C006C005C004120E6CAB82D06F
:201A140004D005D006D0077A00C3EC9BED9A400EC007C00612140D12144CD006D007C007ED
:201A3400C006122657AD82D006D00790018DE0FCB505028019C007C006122657E582D006B9
:201A5400D00790018DF090017274FFF0F554E55D6018900000C007C006122857E582D00639
:201A7400D0076005755D00800122C007C00612121FE582D006D007700122E55A7026E5551B
:201A94007022C007C006122866AD82D006D007ED70128E059001ABE0FCEDC39CFDBD08006F
:201AB40092075004C2078002D207A207E433FD60059001ABEEF07C00EC245BF582E434014E
:201AD400F583E0FBBB0251EC244DF582E43401F583E0F953010F7A00B9022FBA002CEC2496
:201AF40054F582E43401F583E0FA601E7902E92472F582E43401F583E0F8B50202800609FC
:201B1400B9080040E9B908028051EC245BF582E43401F583E4F08043ED6040EB603DEC2404
:201B34004DF582E43401F583E0FBF95301FE7A00B91E28BA002553030FEC2454F582E43466
:201B540001F583E0F55E8B82C007C006C005C0041211B1D004D005D006D0070CBC07005059
:201B740003021ACCC007C00612121FE582D006D007700122E55A7054E555605090019FE0F2
:201B9400FD75F002A4248EFB740135F0FC8B828C83E0F55A8B828C83A3E09001A2F0ED04E8
:201BB40090019F5407F01555755B009001A8E4F0AC5A53040F7D00BC0409BD00067C027DDF
:201BD4000080047C017D009001A7ECF0E55A700122E55A540FFDE55B6003021D54C007C051
:201BF40006C005122866E582D005D006D007600122BD07569001A2E0FC7003F55A22C00429
:201C140012114FAB82D004EC33E433FA600678FF79FF800478017900881975170075180088
:201C34008B82C004C0021227D1E582D002D004700122EA6005EC04FB8003EC14FB9001A268
:201C5400EBF0EB600122755A0022BD0E028003BD0F219001A2E0F55E8D82C007C0061211D4
:201C7400B1E582D006D0077001229001ABEEF0755A0022BD082BAB5AE4CBC4540F6BCB5498
:201C94000FCB6BCB8B047B009001A2E07A004BF582EA4CF583122857E582700122755B04BA
:201CB400229001A3E55AF09001A2E0FC9001A4F09001A5E4F0BD09489001A8E0F5538C82D0
:201CD400C007C006121089AC82D006D007EC7003F55A228C82C007C006122A54AC82D006DE
:201CF400D007EC30E7067A207B0080047A007B009001A374014AF09001A4747F5CF080107B
:201D1400BD03028003BD04089001A2E09001A5F0755C01C007C00612121FE582D006D007B2
:201D340060069001A6E07001228E038F0474082BFBE43CFC9001A9EBF0ECA3F0755B012216
:201D54007401B55B289001A9E0FBA3E0FCEEC39BEF9C30E70122122866E582600122755CC2
:201D74000012121FE582700122755B02227402B55B46C007C006C005122866E582D005D054
:201D940006D007600122BD090B9001A8E02401F0755B00229001A7E014F0E060178E048F4A
:201DB4000574C82CFCE43DFD9001A9ECF0EDA3F0755B0322755A00227403B55B379001A914
:201DD400E0FCA3E0FDEEC39CFCEF9DFD20E74D755C01C007C00612121FE582D006D0076057
:201DF4003B74082EFEE43FFF9001A9EEF0EFA3F0755B01227404B55B15122866E582701C0D
:1D1E1400900000122857E5826012755B05227405B55B09122866E5827002F55A2244
:201E32007F00EF24CDFDE43400FE8F82C007C006C005122390AC82D005D006D0078D828EA9
:201E520083ECF00FBF800040D9753B009000CD120AE6AF8290026EEFF090026FEFF0900219
:201E72006CE4F0900270F090026DF02290026D7401F022AE82AF8390026CE0700690026DD2
:201E9200E06004758200227D00ED24ACFBE43401FCED2EF582E43FF583E08B828C83F00D63
:201EB200BD200040E490026C7401F0758201229001B0E0FF9001B2E0F5109001B3E0F51120
:201ED2009001ACE0FCBC03169001ADE0FCBC550E9001AEE0FCBC4D069001B4E0600475821F
:201EF20004229001AFE0FCBC0102800475820122E51124E8500475820322BF05028003BFB7
:201F12000606AB117C0080047B007C0074092BFCBC20005016EC24ACFAE43401FB8A828BA9
:201F320083E06004758204220C80E5E4BF030104FC7008BF04028003BF061EE5116016AADA
:201F5200117B00A8107900EA28F8EB39F9C3748098E499503175820322E5106003BF0922E0
:201F7200BF05117403B51103D38001C3B39208E433FB800BE511B40100B39208E433FBEB44
:201F9200600475820322EF24F650030222A4EF240A83F582EF240E83F583E473A4C21C7F00
:201FB2007FE417D89D7E221F20202020212122229001D3740EF09001D57455F09001D6748B
:201FD2004DF09001D77441F09001D87443F09001D97401F09001DA7404F09001DBE4F09023
:201FF20001DC7406F0E0FF9001DDF09001DE7405F09001DF7480F09001E07403F09001E1D5
:2020120074FFF09001E2F00222A89001D37406F090026EE09001D5F090026FE060091215A7
:20203200E3AB827F0080047B007F009001D6EBF090026FE06009120E50AB827F0080047BDA
:20205200007F009001D7EBF0900270E09001D8F07582001215D0AF829001D9EFF075820111
:202072001215D0AF829001DAEFF00222A89001D3E511F0751200C3E512951140030222A8D0
:20209200AB1274092BFB3395E0FAEB24CCFBEA3401FAEC6019E5122510F582C004C003C0EE
:2020B20002122390A982D002D003D004801AA8107F00AD127E00ED28F8EE3FFFE824CDF58E
:2020D20082EF3400F583E0F98B828A83E9F0051280A49001B5E0FFBF8002800475820322C4
:2020F2009001B6E0FF9001B7E0FD7E007C00900272EE4FF0ED4CA3F0900271E4F0900270B3
:2021120004F00222A8900270E0FFBF0102800475820522900271E0FFB510028063AD117EE0
:2021320000AB107C00ED2BFBEE3CFC7E00C3EF9BEE9C500475820A227F00C3EF9511400337
:202152000222A8AD107E008F037C00EB2DFDEC3EFEED24ECF582EE3401F583E0FE8F057426
:20217200092DFD3395E0FCED24ACF582EC3401F583E0FDEEB50502800475820A220F80BA32
:202192007F00C3EF95115034AD107E008F037C00EB2DFDEC3EFEED24ECFDEE3401FE8F049E
:2021B20074092CFC3395E0FBEC24ACF582EB3401F583E0FC8D828E83F00F80C6900271E0D6
:2021D2002511F00222A8900270E0FFBF02030222A8BF010A900271E0FFBF80028004758222
:2021F20005229001EC1208AEAE82AF83900272E0FCA3E0FDEEB5041AEFB505169001F2E0BC
:20221200FD8E04B5040C9001F3E0FD8F06B50602800475820722753B009001EC120AE6E5ED
:20223200827004758206229001EC122406AF8290026EEFF0EF7004758209227F00EF24CDCA
:20225200FDE43400FEEF24ECF582E43401F583E08D828E83F00FBF800040E290026F74017C
:20227200F01205D39002707402F0802AE5106013AE105306067F00BE0405BF0002800475DB
:202292008203228510821202F8800B900270E4F080047582022275820022AE82AF83900255
:2022B2006DE06014900270E4F090026CF01205D390026DE4F00225D5900270E0601D9002DD
:2022D20074E0FCA3E0FDEEC39CFCEF9DFDC3EC9488ED94134005900270E4F090026CE07082
:2022F200012290026CE0FDBD010280030223777D00ED24CCF582E43401F583E4F00DBD20CF
:202312000040EE9001CC7404F09001CD7455F09001CE744DF09001CF7401F09001B0E0901B
:2023320001D0F09001B1E09001D1F09001B2E09001D2F0C007C006121EC1AD82D006D00786
:202352009001D4EDF0ED70179001B0E0FDBD0500400DED24F74008900274EEF0EFA3F09042
:1E237200026C7402F090026DE070129001CC122554E582600890026CE4F00225D52271
:2023900002340EAF82C007122390AE82D007EEB513028019A2AF9209C2AF900303E513F0F9
:2023B0008F82C0071233D8D007A20992AF8F82122390E582B5130474018001E4F58222AE2B
:2023D00082AF837D008D82C007C006C005122390AC82D005D006D007ED2EF582E43FF583B9
:2023F000E0FBECB503028004758200220DBD800040D375820122AE82AF83C007C006122314
:20241000CFE582D006D007600475820122751300758200C007C006122393E582D006D00763
:202430006015751300758201C007C006122393E582D006D0077004758200227D02ED2EF512
:2024500082E43FF583E0F5138D82C007C006C005122393E582D005D006D0077003F5822249
:202470000DBD800040D7751350758201C007C006122393E582D006D007601575134D758271
:1B24900000C007C006122393E582D006D0077004758200228E828F830223CF25
:04000000020049327F
:03000B0002341E9E
:0100130032BA
:01001B0032B2
:0100230032AA
:01002B0032A2
:01003300329A
:01003B003292
:030043000224ACE8
:0E00A2007808E4F608F608F608F6780C760002
:0300B40002004601
:030046000224EBA6
:2024AC00C022C0E0C0F0C082C083C007C006C005C004C003C002C001C000C0D075D0001256
:2024CC0032E0D0D0D000D001D002D003D004D005D006D007D083D082D0F0D0E0D022321257
:0E24EC0034AF12068B1206BC80FB75820022F4
:2024FA0012337012339A12338975DD0075D3002275D30074FC55D24402F5D2900305E4F04C
:20251A002230DE357402B5DB1190000AE0FFBF010990000BE0900304F0227420B5DB1A90F1
:20253A00000AE0FFBF031290000A121E85E582600874F355D24408F5D222D310AF01C3C0CD
:20255A00D0AE82AF839002CA7401F0900302E0601F900305E070199002C8E060069002CB7C
:20257A00E0600DACD25304037D00BC0308BD000575820080417D008D037C0074402BFBE417
:20259A003CFCEB240AFBEC3400FCED2EF582E43FF583E0FA8B828C83F00DBD200040D89014
:2025BA0002CAE4F09002CBF075D32090030504F053D2FC758201D0D092AF22D310AF01C3AE
:2025DA00C0D0AED253060C7F00BE0C05BF0002800353D2F3D0D092AF22E582900304F022AF
:2025FA009002CCE4F09002CDF09002CEF09002CFF09002D0F09002D5F0A3F09002D3F0A36B
:20261A00F09002D1F0A3F07F00EF24D7F582E43402F583E4F00FBF080040EE9002DFE4F03B
:20263A009002E0F0A3F0900305F09002C9E02401F09002CAE4F09002CBF002265E9002C955
:20265A00E0F58222D310AF01C3C0D09002C8E4F09002C6F09002C7F0D0D092AF22AF82907E
:20267A0002C8E0FEBE08028006900302E07004758200229002C6E024BEF582E43402F58325
:20269A00EFF09002C6E0FF0F74075FF09002C8E02401F075820122AE82AF839002C8E0FD2F
:2026BA00BD08028006900302E07004758200229002C6E075F009A42476F582740235F0F5C6
:2026DA00837401F07D009002C6E075F009A42476FB740235F0FC8D02EA042BFBE43CFCED59
:2026FA002EF9E43FFA89828A83E08B828C83F0ED24D7FBE43402FC89828A83E08B828C836B
:20271A00F00DBD080040BF758209022677D310AF01C3C0D01226B1D0D092AF22AF829002AA
:20273A00C8E0FEBE08028006900302E07004758200229002DFEFF09002C6E075F009A424CB
:20275A0076F582740235F0F5837402F09002C6E075F009A42476FD740235F0FE8D828E835F
:20277A00A3EFF09002C6E075F009A42476FE740235F0FF8E828F83A3A3E514F09002C6E0B8
:20279A0075F009A42476FE740235F0FF8E828F83A3A3A3E515F09002C6E075F009A4247602
:2027BA00FE740235F0FF8E828F83A3A3A3A3E516F0758205022677D310AF01C3C0D08517B1
:2027DA0014851815851916122736D0D092AF22AE82AF839002C8E0FDBD0802800690030278
:2027FA00E07004758200229002E0EEF0EFA3F09002C6E075F009A42476F582740235F0F595
:20281A00837405F09002C6E075F009A42476FC740235F0FD8C828D83A38E05EDF09002C6B1
:20283A00E075F009A42476FC740235F0FD8C828D83A3A38F06EEF0758203022677D310AF5C
:20285A0001C3C0D01227E9D0D092AF229002C8E0700A900305E07004C20A8002D20AA20A6F
:20287A00E433F58222D310AF01C3C0D0AE82AF839002C8E060030229749002D0E0FD0D7549
:20289A001A00BD01079002CCE0FB8011BD02079002CEE0FA80059002CFE0FA8A03BD010A60
:2028BA009002D1E0F9A3E0FA8019BD020A9002D3E0F8A3E0FC80089002D5E0F8A3E0FC8859
:2028DA00018C028904EB7003022961EEC39CFCEF9AFA8B017B00E929F9EB33FBE929F9EBEB
:2028FA0033FBC3EC99EA9B405EBD03067B007C0080048D037C009002D0EBF0BD011090023B
:20291A00D7C007C0061226B1D006D007804CBD021D9002DFE0FC7514007515007516008C84
:20293A0082C007C006122736D006D007802C9002E0E0FBA3E0FC8B828C83C007C0061227F8
:20295A00E9D006D00780130DED24FC50027D01051A74FD251A400302289C900302E0602578
:20297A00900305E0701F9002C8E060199002CAE060069002CBE0700DACD25304037D00BC16
:20299A000306BD0003022A4F7D009002C7E0FC24BEF582E43402F583E0FBC3ED9B50328D07
:2029BA00027B0074402AFAE43BFBEA240AFAEB3400FBEC75F009A42476F8740235F0F9ED51
:2029DA0028F582E439F583E0F98A828B83F00D80B9EC75F009A42476F582740235F0F5835E
:2029FA00E0FDBD010A9002D1EEF0EFA3F08018BD020A9002D3EEF0EFA3F0800BBD0508904A
:202A1A0002D5EEF0EFA3F09002CB7401F09002C7E0FF24BEF582E43402F583E0F5D30F9039
:202A3A0002C774075FF09002C8E014F09003057401F053D2FCD0D092AF22AF82BF800040DA
:202A5A000475820022EF90357193F58222E582FF7017AE1B9002CDEEF09002CFEEF090022A
:202A7A00CEEEF09002CCEEF022BF01079002CCE51BF022BF02079002CEE51BF022BF0506F7
:202A9A009002CFE51BF022E582FF70079002CDE0F58222BF01079002CCE0F58222BF02078E
:202ABA009002CEE0F58222BF05079002CFE0F5822275820022AF82AD1CAE1D8D828E83EF91
:202ADA00F0BF0143E51B601474012DFBE43EFC900304E08B828C83F0758202227C008C0212
:202AFA007B000ABA00010BEA2DFAEB3EFBEC24D7F582E43402F583E08A828B83F00CBC0892
:202B1A000040DB75820922E51B7039BF023674012DFBE43EFC9002DFE08B828C83F0740230
:202B3A002DFBE43EFC74032DF9E43EFA8D828E83A3A3A3A3E4F089828A83F08B828C83F0E8
:202B5A0075820522E51B702FBF052C74012DFCE43EFF9002E0E0FAA3E08C828F83EAF074B2
:1B2B7A00022DFDE43EFE9002E0E0A3E0FC8D828E83ECF07582032275820022F2
:2035710000000000000000002A2B28000000000000000000000000000000000000000000BD
:203591002C9EB4A0A1A2A434A6A7A5AE362D3738271E1F20212223242526B333B62EB7B8DD
:2035B1009F8485868788898A8B8C8D8E8F909192939495969798999A9B9C9D2F3130A3ADCE
:2035D100350405060708090A0B0C0D0E0F101112131415161718191A1B1C1DAFB1B0B50033
:02373400000093
:2035F100120110010000000809125DC500010102030105010906A1018501050719E029E7F7
:203611001500250195087501810295017508810395067508150026FF000507190029E78129
:203631000005081901290515002501950575019102950175039103C005010902A101090127
:20365100A10085020509190129031500250195037501810295017505810305010930093104
:2036710009381581257F750895038106C0C00600FF0901A10185030902150026FF007508A7
:20369100951F910285040903951F8102C0050C0901A1018505150026FF0F19002AFF0F75F0
:2036B1001095018100C009022900010100806409040000020300000009211001000122B4D4
:2036D100000705810320000A0705010320000A040309041C03430048003500350078002025
:2036F100006B006200640020006D006F007300260355006E006900760065007200730061A3
:20371100006C0020004D006100630072006F007000610064000E0344006500710069006EE3
:033731000067002E
:0300B00075710067
:202B9600AFDB7D007E008E6CBF080280030230BD900007E0FC7F00900006E0FB7A004FF544
:202BB60069EA4CF56A8F72900001E0F56B8F71900000E0FC54607003022D6F900000E0FC92
:202BD6005304607B00BC2005BB00028011BC4005BB00028003022D697572FF0230C090003D
:202BF60004E07006900005E060067572FF0230C07409B56B3F900000E0FCBC2137900003C3
:202C1600E0FCBC022F900002E0FCBC030CAB69AC6ABB2005BC00028012900002E0FCBC0117
:202C360013AB69AC6ABB020CBC000985696C756D000230C0740AB56B51900000E0FCBC214D
:202C560049E569456A7043900002E0601C900002E0FCBC01028012900002E0FCBC0202800A
:202C760008900002E0FCBC0521900302E0601B900002E0FC900003E0F51B8C82C006C0056C
:202C9600122A67D005D0060230C07402B56B5E900000E0FCBCA156900002E0601C9000024B
:202CB600E0FCBC01028012900002E0FCBC02028008900002E0FCBC0534900003E0702EABFC
:202CD60069AC6ABB0127BC0024900302E0601E900002E0F582C006C005122AA1AC82D00555
:202CF600D006900000ECF07572010230C07401B56B5B900000E0FCBCA153900003E0FCBC6B
:202D160001028008900003E0FCBC0241900302E0603B900002E0FC900003E0FBE4BB020116
:202D360004F51B751CE2751D028C82122ACFAC828C057E00ED4E600F756EE2756F027570D2
:202D560000756B060230C07572FF0230C07572FF0230C07572FF0230C0E56B24F450030240
:202D760030B8E56B240B83F582E56B241083F583E4730787B887B881A0B88EACF5F5302F25
:202D9600302F302E2D302E2E2E2E900003E0FCBC01028019BC02028024BC0302802FBC21D3
:202DB60003022E49BC2203022E59022E7B756EF1756F357570807D127E000230C0756EB781
:202DD600756F367570807D297E000230C0900002E0700B756EE0756F36757080803F9000CA
:202DF60002E0FCBC010B756E26756F37757080802C900002E0FCBC020B756E00756F377538
:202E160070808019900002E0FCBC030B756EE4756F3675708080067572FF0230C0AA6EAB74
:202E36006FAC708A828B838CF0123506FAFD7E000230C0756EC9756F367570807D097E0078
:202E56000230C0900002E07016756E03756F367570809036D0E493FDA3E493FE0230C07584
:202E760072FF0230C07572FF0230C0900002E0FC8C69756A000230C0900302E0900000F0D8
:202E9600AB69AC6AC3EB9401EC940050030230C07572010230C0900000E07021900003E09C
:202EB600701B900002E0FC24FE4012900004E0700C900005E07006E569456A60067572FF6B
:202ED6000230C0900002E0900302F0C006C0051225FA121E7ED005D00675D2120230C09003
:202EF6000004E07075900005E0706F900002E07069900003E07063900302E0605D740AB5A9
:202F16006B0474018001E4FC602C900000E0FBBB8103D38001C3920B5013AA69AB6ABA0126
:202F360006BB0003D38001C3920B100B02D20BA20BE433FB8021900000E0FABA0103D3802E
:202F560001C3920B500AE569456A7004C20B8002D20BA20BE433FBEB60067572FF0230C01B
:202F7600EC70030230C0900000E4F07572010230C0900000E0FCBC0218900002E0701290E6
:202F96000003E0700C900005E07006E569456A60067572FF0230C0900004E0FCBC8129744C
:202FB60003B56B0B74FC55D24403F5D20230C074BC55D24402F5D2C006C0051225FA121EE6
:202FD6007ED005D0060230C0900004E0FCBC011B747355D2FC7403B56B067A0C7B0080044C
:202FF6007A007B00EA4CF5D20230C07572FF0230C0900004E0FD7E00900000E0FCBC824D19
:203016008D038E04BB8117BC0014A9D2530103E4FAB90304BA000104F9FD7E00804ABB012C
:2030360017BC0014A9D253010CE4FAB90C04BA000104F9FD7E008030ED4E6006BB8009BC8D
:2030560000067D007E0080207572FF805D900000E0FCBC80028008900000E0FCBC8104ED2A
:203076004E60057572FF8042900005E0700C900002E07006900003E060057572FF802B8D10
:2030960004900000ECF0900001E4F0AB69AC6AC3EB9402EC94004005757202800D8569723C
:2030B60080087572FF80037572FF74FFB57202806F7406B56B6AC3ED9569EE956A50048D18
:2030D600698E6AAD69AE6AC3ED9408EE9400920B40067B087C008004AB69AC6A8B727C0074
:2030F600C3EC957250208C027B00EC256EF8E4356FF9AF70888289838FF0123506F88A828E
:203116008B83F00C80DAAC727F00EDC39CFDEE9FFE8D698E6AE572256EF56EE4356FF56F9D
:2031360074FFB57207756BFF75DCCF22E57224F740178572DDE56C60067E027F0080047E62
:20315600007F0074C04EF5DC2275DD00E56C60067E027F0080047E007F0074C04EF5DC2267
:203176007405B56B02806E7406B56B0280030231F9AE69AF6AC3EE9408EF9400920C400681
:203196007C087D008004AC69AD6A8C1B7D00C3ED951B50208D027B00ED256EF8E4356FF971
:2031B600AC70888289838CF0123506F88A828B83F00D80DAAC1B7D00EEC39CFEEF9DFF8EED
:2031D600698F6AE51B256EF56EE4356FF56F851BDD63DC4022E5E35480FFE5694FF5E375F2
:2031F600DC022275DD0075DC022220DE01227409B56B0280030232CEE56C70030232CEE502
:20321600DB24F750030232CEAE6D7F00ACDB7D00EC2EFEED3FFFAC6C7D00C3EC9EED6480B9
:203236008FF063F08095F050030232CE7F00C3EF95DB5019EF256D24E2FDE43402FE8F8295
:20325600758300E0FC8D828E83F00F80E1E5DB256DF56DE56CB56D477420B56C1C9002E251
:20327600E0FFBF03149002E2121E85E582600A74F355D24408F5D2801C7402B56C13900210
:20329600E2E0FFBF010B9002E3E0F5821225F3800475DCCF22756C0075DD0075DC4822746E
:2032B600F825DB4007756BFF75DC0F2263DC8074F055DC4402F5DC2275DD00E56C6007754C
:2032D6006BFF75DC0F2275DC022220D903023346E5D9540F6002802CAED95306307F00BE84
:2032F6000005BF00028013BE2005BF00028010BE303CBF0039122B968034123200802F127D
:203316003176802AAED953060F7F00BE0120BF001DE5D954306002800512251B8010AED98B
:203336005306307F00BE2006BF000312250AC2D930D81A121E7E1225FA75DC0275D21275CB
:20335600E300C2DAC2D9C2D8900302E4F010DA0122E5DA20E20375D8FF2275E20053E27FF0
:2033760043E22975E30053E2BF53D1FB75D18043D1012243E10443E10243E10143D81FD202
:1E339600EAD2AF227E007F008EEC8FED7E0A7F008EEE8FEF75D21275EAC075DC0222AB
:2033B400ABF0A2AFE433FEC2AFE0A37A0833D2B44002C2B47905D9FEC2B4DAF1DBEBEE6067
:0433D40002D2AF2250
:2033D800AF82BF800040012275A15575A1AA43B10475A1007585C0EF2FF584900303E0F50D
:2033F8008EE58630E60375869A75A15575A1AA53B1FB75A10022AF827585C0EF2FF58475B5
:06341800868E858E8222E3
:06007800E478FFF6D8FD5C
:200056007902E94400601B7A01903734780475A003E493F2A308B8000205A0D9F4DAF275DC
:02007600A0FFE9
:20341E00C0D075D00808B8000D09B900090ABA00050BBB00010CD0D032A2AFC2AFA808A990
:20343E0009AA0AAB0BAC0C92AF75F020E8A4A8F075F020E9A428F582A8F075F020EAA428D5
:20345E00F583A8F075F020EBA428F9A8F075F020ECA42889F022AE82AF83C374019EE49FDE
:20347E0040022200C374029EFE74009FFF00BE0005BF00020022000000000000000000003D
:20349E00000000000000000EBE00EB0FBF00ED002275A15575A1AA74F855B94406F5B97568
:2034BE00A100901388123474759E5D759D0074F055894402F58953C9EF758C06C28DD2A904
:0534DE00D28CD2AF22E8
:2034E40074FE2581F8E68582F0A4C0E08582F018E6A4F582D0E025F0C58386F0A42583F5C3
:02350400832220
:20007E007800E84400600A799475A000E4F309D8FC7870E84402600C7903900094E4F0A3E5
:04009E00D8FCD9FAB7
:0D004900758172123522E5826003020046C7
:1C35060020F71430F6148883A88220F507E6A88375830022E280F7E49322E022D4
:04352200758200228C
:00000001FF
