:200096007E147F017D007C004305098E828F838DF0EC02341C7F00BF0900500FEF2414F54F
:2000B60082E43401F583E4F00F80EC020096E582FF7003F58222EFC4540FFF74014FF5826E
:2000D60022AF82789AE2FEBE030774015F04FF80028E078F8222201506789CE27001221206
:2000F60018AD858226789CE26006789CE2FE8008852682121189AE82EE0303543FFD53053B
:2001160003EEC4540FF5277896E2F5288E82C006C0051200D7858229D005D006789BE2F53F
:200136002A7898E2F52B789CE2601874015E04F529300016900144E0C4540FFE74035EF520
:200156002B8007E5297003F528FD7403B52A03752A027B147E01E52B245BF530E43435F53E
:20017600317403B52B0474018001E4F532740FB52703D38001C39201EDB40100B39202E403
:20019600BD030104F533BD0303D38001C3920374015528F534E4F535BD020104FD752C0062
:2001B60074FD252C500302009685273685292D3001123000058533378006A202E433F537EB
:2001D600E5377004C2048002D204A204E433F52E20005BE528600EED6054E5344535604EA3
:2001F600752D008049E52A603CE52C2424FAE43401FC8A828C83E0602C852C51852682C0F5
:2002160006C005C0031211A8AC82D003D005D0068C36BC0F08900141E0FC20E708852A2D95
:20023600752E008009852736200303752D00E52D7007F52FFAFC0202EAE52E6065E52C90C8
:20025600355593FF853082853183E4938FF0A42525F537E532600FE52C903558932482F906
:20027600E7FF2537F53774AB2537400E7A00E53775F003A4F52FF4FC805A7456253740112A
:20029600E53724ABFF7C0075F003A4FAF4F52F8043E537FF245675F003A4FCF4FA752F00D2
:2002B6008032C005E53675F003A42478FD743535F0FF8D828F83E493FC0DBD00010F8D82A7
:2002D6008F83E493FA0DBD00010F8D828F83E493F52FD0057401B52D338C82C006C005C037
:2002F60003C0021200C4AC82D002D0038A82C004C0031200C4AA82852F82C0021200C48592
:20031600822FD002D003D004D005D0068B828E83EAF08B828E83A3ECF08B828E83A3A3E514
:200336002FF074032BFBE43EFE052C0201B6AF82E57D2FFFE57EFE2F2E2EFFC3EF957E4030
:2003560007EFC3957EFF80F38F8222AF82BF8000404EC200E538C454F0FE43060AEFC454D9
:2003760001B401009205E4334E789CF274EF5FFE247F789625E0F2BE8106789CE24404F2D2
:20039600BE8007789CE4F27896F212349FAB82E583FCC313CB13CB747D2B7897F20200EC18
:2003B600E538FE30E304EE24F0FE74015FF539BF0B00406B789AE2FC789BE225E025E0FB94
:2003D6004204BF0C347B00EB90357393B5040280060BBB050040F08B02BB05087A00EE2078
:2003F600E7027A048E7D757E058A82C007C004120344858238D004D007E53890357393F5C6
:2004160038BF0D07ECB5380375380FAC3874035C789AF2EC0303543FFC789BF20204DDBF40
:200436000A0A7C00753A0475380F80127C02753A04BF08005008EFC313FCFA04F53ABF0315
:2004560004C3E49EFEC3EC953A507CAA38E539604BEC2498F9E3FB7D04BC020040257D03A7
:20047600BB03207B02BC021BC007C006C005C0041218AD1211891200D7AB82D004D005D00A
:2004960006D0078E7D8D7E8B82C007C006C004120344AA82D004D006D0078021BA0F1E7AED
:2004B60003EC700C900144E0C4540FFD74035DFABC010A900144E0FD23235403FAEC24985C
:2004D600F8EAF20C02045BBF02028008BF03028003BF0A0E12349FAC82AD83AEF0FF788183
:2004F600A6040200ECAF82789CE230E1047896E4F2789CEFF2EFB401009206B39200EF7059
:200516001E20151B1200AB90011574FFF012349FAC82AD8390013AECF0EDA3F0020096028D
:2005360000ECAF82789CE220E13E8F82C007121189AE82D007EE0303543FFE5306037896D9
:20055600E4F2BE0103048001E4FD7003BE0219ED60067D067E00800C0FEF3395E0FCEF2F9B
:20057600FDEC33FE7896EDF2AE3BE53CC313CE13CE747D2E7897F20200ECAE82AF83789651
:20059600E26011EFC313CE13CEFF7897D3E29EF4FE30E701227896E214F27897E2FF7897FC
:2005B600747D2FF27896E2700A789CE230E104789CE4F20200EC12187A12349FAC82AD83DF
:2005D600AEF0FFC005C004122978D004D0055038C005C00412349FAA82AB83AEF0FFD004C2
:2005F600D005EAC39CFAEB9DFBC3EA9464EB94005016C005C00412349F12298A12349F1296
:200616001CEFD004D00580BB7E147F017D00BD0300501F8E828F83E4F08E828F83A314F058
:200636008E828F83A3A3E4F074032EFEE43FFF0D80DC12009675E200C2AF75890090C35029
:200656001234DC90C3501234DC12380080FEAF82BF030AA2B3B39207E433F58222BF050AB9
:20067600A2B2B39207E433FE8013EF90355093FFE5905207EFB401009207E433FE8E822234
:20069600A2B0E43325E0FFA2B1E4334FF58222AF82C007120664AE82D007EF241DFCE434C6
:2006B60001FD8C828D83E0FBEEB50302801C8C828D83EEF0EF75F002A4242BF58274013583
:2006D600F0F583E53DF0E53EA3F0EF2424FCE43401FD8C828D83E0FBEEB5030122EF75F075
:2006F60002A4242BF582740135F0F583E0FAA3E0FBE53DC39AFAE53E9BFBC3EA940AEB9412
:2007160000405B8C828D83EEF030000E758200C007C0061204FBD006D00720150122EE6006
:2007360035BF031CC0071218AD121189E582D0079001395402F090013AE53DF0E53EA3F065
:20075600C007121CEAD0074012853D67853E688F821218DC80058F82121AE00200EC22124C
:200776000696AF827894E2B507012230000A758200C0071204FBD0077894E225E025E04FA2
:2007960090356393FE7894EFF220150122EE70057895E4F2227895E22EF27895C3E2648038
:2007B600948440127895E4F2121CEA4006758201121B870200EC7895C3E2F5F0747C63F004
:2007D6008095F040127895E4F2121CEA4006758200121B870200EC22789CE230E104789C91
:2007F600E4F212349FAC82AD83AEF0FF8C3F8D408E04EFC313CC13CC8C82121BEC90014497
:20081600E0C4540FFF74035F7898F2900144E023235403FF7899EFF2789B7403F2789AF221
:200836007F00EF24FC4050EF241DFDE43401FEEF2424FBE43401FC8F82C007C006C005C0D6
:2008560004C003120664AA82D003D004D005D006D0078B828C83EAF08D828E83EAF0EF7596
:20087600F002A4242BF582740135F0F583E53FF0E540A3F00F80AB120696E5827894F220BB
:20089600150B789CE27005F5820204FB2212187A7895E4F21218ADE5827880F6900139E4BC
:2008B600F07896F27881A63FF5257F00BF03005009EF2482F876000F80F2900317E0600D25
:2008D600853F3B85403C788086820205380200EC1220484390C24392C24393C243B00B7425
:2008F6000B459654EFF59643971B1200AB1207EE12269E758203120664E58260030205CC8C
:200916002212349FAC82AD83AEF0FF8C028D038A828B83C007C006C005C004C003C00212DA
:20093600298AD002D0038A828B83C003C00212246FD002D003D004D005D006D007301515B0
:200956008E04EFC313CC13CC8C82C003C002121CD8D002D0037F00EF24FC40188A3D8B3ECB
:200976008F82C007C003C0021206A5D002D003D0070F80E3C003C002120775D002D0038A17
:20099600077881EFC396FE789CE2600B900144E023235403FD80047899E2FDED90355F9333
:2009B600FDC3EE9D5003020A45789CE26013789CE2FE30E3068E057E00802D7D007E008083
:2009D6002730151BC007C003C0021218AD121189AC82D002D003D0078C417542008005E414
:2009F600F541F542AD41AE425305FC7E00C374F09D74808EF063F08095F050337881A6070D
:200A160005257F037E00BE03005019EF55257008EE2482F9E7FD04F78F05ED2DFD74014DB2
:200A3600FF0E80E2C003C0021200ECD002D003201530789CE2702A90013AE0FEA3E0FFEAFF
:200A5600C39EFEEB9FFFC3EE94F4EF9401401290013AEAF0EBA3F0900115E064FFF002008B
:200A760096228A828B83C003C002121CEF1218B1E582D002D0037015C003C0021218ADAF75
:200A960082D002D0037880E6B507028054C003C0021218ADAF82D002D0037880E6B50702DB
:200AB6008026789CE230E104789CE4F2C003C0021218ADE5827880F6120696E582D002D01D
:200AD600037894F27895E4F2789CE220E1138A3B8B3C78808682C003C002120538D002D010
:200AF600038A828B83C003C002120590D002D003900139E06021900127E0601B90013AE009
:180B1600FEA3E0FFEAC39EFAEB9FFBC3EA94B8EB940B40030205CC22C2
:20355000028040201000010200020100152A6D04060A1200FF0100010000FFFF0000010091
:0835700001FF000F0D0504002E
:200B2E00AF827E007D00C3ED9F500EE57EC39DFC1C8E03EC2BFE0D80EDE57D2EC39F14F5D8
:200B4E008222AE82AF837CFF7DFF7B00BB06028045BB07028040EB2EF582E43FF583E0FAFE
:200B6E00E4F96204EA62057A088D017800530180E849B401009208B3E433F57DEC2CFCEDBA
:200B8E0033FDE57D600E8C008D0163002163011088048905DAD30BBB800040B08C828D831A
:200BAE0022E582FF6015EF24FCFE249E9209500BEF2498FF24F49209100902D209A2092245
:200BCE00AE82AF83E5432EF582E43FF583E0FD740F5DFCEDC4540FFDAA437B000ABA000146
:200BEE000BEA2EF582EB3FF583E0FBEC24F05003020DB8EC240A83F582EC241483F583E49F
:200C0E007395C2C2E1E1E1E10638477CA2A40B0B2F0C0C0C0C0C0C0C0D0D0D0D0D0C0D0D6F
:200C2E000CBB80004013BB8005EDB401002274EF5B247F24F7920AB322EB24F25002C322E3
:200C4E00BB0A05EDB4010022BB0D07ED14FABA040022BB0B07ED24FB920AB322EB20E00316
:200C6E00BB0C0C8D015301077A00E94A24FF22BD0F02D322BB04005007ED24FC920AB32261
:200C8E00ED24FD920AB322ED7003EB6004C20A8002D20AA20A22ED24FE920A400EEB24F91F
:200CAE00920A500BBBFA00920A5004C20A8002D20AA20A22E545600BBC0203D38001C39293
:200CCE000A40078B82120BAF4004C20A8002D20AA20A22E545600BBC0503D38001C3920A94
:200CEE00400DED700AEB6007EB24F8920A5004C20A8002D20AA20A22ED6002C322E545B4DF
:200D0E000100920A8D04E433C364808CF063F08095F0920A400BBB8003D38001C3920A50DD
:200D2E0004C20A8002D20AA20A22ED7007EB7004C20A8002D20AA20A22ED7006C3EB954701
:200D4E004002C322EB6022AA467C008B007900E82AFAE93CFC1ABAFF011CEA2EF582EC3FAA
:200D6E00F583E06004C20A8002D20AA20A22ED24FE920A4016C3EB95444014BBFF0D8E82FE
:200D8E008F83A3A3E0FFBF07028004C20A8002D20AA20A22ED700AC3EB95445004E54560FE
:200DAE0004C20A8002D20AA20A22C322AE82AF83754E007401B548028002C322E54824FEF5
:200DCE0040418E828F83E0FCBC4D388E828F83A3E0FCBC502E8E828F83A3A3E0FC24FAFB0D
:200DEE0024FE401F8E828F83A3A3A3A3A3E0FBF95301017A00A8487D00E9B50006EAB505BB
:200E0E00028002C3228E828F83A3A3A3E0FDFA74075A04F549EDC423541FF8530007790050
:200E2E0085494F8950C3E8954FE964808550F063F08095F0400122E54924F85002C322EB66
:200E4E00C313FB743F5BF54ABC0700920B401EED23235403FD8E828F83A3A3A3A3E023541C
:200E6E000125E025E042058D047D0080047C007D00EC24FB5002C3228E828F83A3A3A3A397
:200E8E00E0FD200B0353057FE54975F00FA42409F8E435F0F9E54A75F003A47B0028F8EB34
:200EAE0039F9EC75F005A47A0028F8EA39F98D027B00EA28FAEB39FB8A008B01C3748098A8
:200ECE00E4995002C322EAC39DFB754B00C3E54B95495069E54B75F00FA42409F9754D0091
:200EEE00A84D7A00C3E89406EA64809480504AE54D254D89022AF543A84D7A00C3E8940471
:200F0E00EA64809480B3920BE433F5458549448B468D478E828F83C007C006C005C004C091
:200F2E0003C001120BCED001D003D004D005D006D007400122054D80A7054B8090E549751B
:200F4E00F00FA4FA2409F54C754D00C3E54D954A4003020FE7E54C2EF582E43FF583E0F85E
:200F6E00C4540FF95301077A00C3E9954FEA64808550F063F08095F05051880153010F7AEC
:200F8E0000C3E99403EA64809480503FE54D6006C3E54E985035E54CFA04F54385494475F6
:200FAE0045008B468D478E828F83C007C006C005C004C003C002C000120BCED000D002D05F
:200FCE0003D004D005D006D0074002C322884E74032AF54C054D020F597A00C3EA9C507389
:200FEE00E54CF904F5438549447545018B468D478E828F83C007C006C005C004C003C0024E
:20100E00C001120BCED001D002D003D004D005D006D007400122740329F543854944754543
:20102E00018B468D478E828F83C007C006C005C004C003C002C001120BCED001D002D0031D
:20104E00D004D005D006D0074001220A740529F54C8088ED60228B027C008D007900E82A44
:20106E00FAE93CFC1ABAFF011CEA2EFAEC3FFC8A828C83E06002C322754D00C3E54D9D4048
:20108E00030211128B017A00854D4F8A50E54F29F8E5503AFCE82EF8EC3FFC88828C83E02B
:2010AE00605DE54F29F8E5503AFCE82EF582EC3FF583E0FCBC09028046E54F29F8E5503A48
:2010CE00FCE82EF582EC3FF583E0FCBC0A02802FE54F29F8E5503AFCE82EF582EC3FF58393
:2010EE00E0FCBC20004016E54F29F9E5503AFAE92EF582EA3FF583E0FC24815002C3220529
:20110E004D0210898E828F83C007C006120B50AC82AD83D006D00774062EF582E43FF583F8
:20112E00E0FB8C02B5021274072EF582E43FF583E0FF8D04B504028004C20B8002D20BA237
:20114E000B2290013FE0FF74075F04F5822290013FE0C423541FFF74075FF58222758203B8
:20116E0022900144E0FF740F5F75F005A4F58222E58275F00FA42409F58222E58204F582DB
:20118E0012117EAF827E001FBFFF011EEF243CF582EE3401F583E0F58222AF82C007121100
:2011AE006BAE82C006121150AD82D006D007C3EF9D5006C3E5519E4004758206228F82C001
:2011CE000612117EAF82D006E4FDFC74032EFEE43CFCEE2EFEEC33FCEE2FFFEC3DFDE5510A
:2011EE00C3137C002FFFEC3DFDEF243CF582ED3401F583E0FFE55130E009EFC4540FFD7E1C
:20120E000080087C00740F5FFD7E008D8222AF82C007121150AE82D007C3EF9E5025C00730
:20122E0012116BAE82D0077D0074032EFEE43DFDAB527C00C3EB9EEC64808DF063F0809553
:20124E00F0400BE553F87600E554F87600228F8212117EAF82E55225522FFEA953243CF5C7
:20126E0082E43401F583E0F7A9547F000EBE00010FEE243CF582EF3401F583E0F722AF8293
:20128E00C00712116BAE82900141E0C313FD743F5DF559C00612115012117EAC82D006D02A
:2012AE0007E556B555028022C3E5559E501CC3E5569E5016C007C006C004121150AB82D066
:2012CE0004D006D007C3EF9B4002C322C3E55695555007AB558556558B56EFC454F0FF8510
:2012EE00567D8E7E855582C007C004120B2EAE82D004D007EE4207755A00C3E55A955950AE
:20130E0062EC243CF582E43401F583E0FBB50702801753038F7A008F0553050F7E004305B9
:20132E0080EBB50534EAB50630A9578C057E0074012DFAE43EFBEA243CF582EB3401F58350
:20134E00E0F7A95874022DFDE43EFEED243CF582EE3401F583E0F7D322055A8C0674032E26
:20136E00FC8097C32290013EE0FFBF0700920C401C90013FE023235403FF900140E0235485
:20138E000125E025E042078F067F0080047E007F008E822212115012117EAF82900141E02D
:2013AE00C313FE743F5E75F003A42FF58222AF829001BCE02FFEC39F403390013EE0FFBF99
:2013CE000700920D400C900140E0FF53077F7D008008900140E0FCFF7D008E047E00C3EC97
:2013EE009FEE64808DF063F08095F0400475820022C006C0041213A2AF82D004D006C00749
:20140E00C006C004121373AD82D004D006D007ED75F005A42FFD7F00EC2DFCEE3FFEEC24F6
:0C142E003CF582EE3401F583E0F58222EB
:20357800FF0000FF1607FF1000FF4200FF7C003CFF0064C8141D7B4300FFC8005BFF0000D6
:10359800FF7300B4FF00C2FF0048FFFFFF000000F8
:20143A00AF827408B55B02800EE57E602EAE5BC3EE648094814024E57E601078EDE2B4FF70
:20145A0002801678EDE22401F2800E78ECE2B4FF02800678ECE22401F2C32278EAE225E0E2
:20147A0024DAF9EFF378EAE225E024DA04F9E57DF378EAE20478EA5407F2055BD3227F0015
:20149A007E00EE24B9F9E3FD42070EBE0D0040F27E00EE24ABF9E36019EE249DF9E3FD5351
:2014BA00050F7C00BD050BBC0008EE24A4F9E3FD42070EBE070040DAE562600578F2E242F2
:2014DA00078F8222AF82C007121498AE82D007BF0D09E563FC3395E0FD80047C007D00BF01
:2014FA000E09E563FD3395E0FF80047D007F008D1A8C19751B008E820228FCE582FF700265
:20151A00D3227E02EE24BDFCE43401FD8C828D83E0FBB50702D322EB70088C828D83EFF04F
:20153A00D3220EBE080040DC227F007E00EE24BDF582E43401F583E4F00EBE080040EE7E62
:20155A0000EE24ABF9E36034EE249DF9E3FDFB53030F7C00BB0225BC00229001BDE0FCED09
:20157A00C4540F42049001BDECF0EE24A4F9E3F582C007C006121515D006D0070EBE070068
:20159A0040BF78F37401F2E562603978F0E2FD53050F7E00BD012DBE002A78F1E2F582C0FF
:2015BA0007121515D007920EE433FE78F3F2EE60139001BDE0FE78F0E2C4540FFD42069012
:2015DA0001BDEEF07E00EE24BDF582E43401F583E0FDEE24C6F9E3FCEDB5040280027F01C9
:2015FA000EBE080040E0EF60229001BD12288A4001227F00EF24C6F9EF24BDF582E4340146
:20161A00F583E0FEF30FBF080040E9121498AF82781FE6B507028019751900751A00751BF8
:20163A00008F82C0071228FCD007400122781FA607D322AF82AE5C74F725665004AE5E80FE
:20165A001874FFB55F028011855F5C755FFFC007C006121766D006D0078F0453040F7D00EC
:20167A00BC0004BD000122BC0204BD000122BC0504BD000122BC0605BD00028035BC0A0563
:20169A00BD00028063BC0B05BD0002801FBC0C05BD00028029BC0F05BD0002800302172FD5
:2016BA00EFC4540FF53885648202036178EE7401F222E56624B9F9E3FDE5646DF322C0077A
:2016DA00C006121150AD82D006D007E5642EFE8D04ECC40354F8FC2EF564C3E5649D400862
:2016FA00E564C39DF56480F274FFB56403855D6478EE7401F2EF30E405855C5F801374FF6C
:20171A00B55F04AE5C8002AE5FEEB5640280028E5D85645C2285647D85657E8F8202143AF2
:20173A0078D5E270012278D5E2FF1F78D5E4F2EF24ABF87401F2EF249DF9E3F582EF24A486
:20175A00F9E3F5647565008F6602164DAF5C7E007D00ED24ABF9E36023ED249DF9E3FC530C
:20177A00040F7B00BC0B15BB0012ED24B2F9E3FCC39E40088C06ED24A4F9E3FF0DBD0700E1
:20179A0040D0EFB55E01228F5E7F00EF24B9F8E4F20FBF0D0040F4755B0078EAE4F278EB7A
:2017BA00F2AE6053060F7F00BE0814BF00117404B5610280057405B5610578FC7401F27585
:2017DA00600075610075620078F2E4F212173A02176612115C85825C855C5D855C5E78EEFB
:2017FA00E4F2755FFF78D5F278CEF278ECF278EDF27F00EF24CFF8E4F20FBF060040F47853
:20181A00EAE4F278EBF2F55BF560F56178FCF278FFF2F56278F2F2781F76001227DBE58294
:20183A0078D9F27F00EF24ABF8E4F2EF24B2F8EFF2EF249DF8E4F2EF24A4F8E4F20FBF07CA
:20185A000040E27F00EF24B9F8E4F20FBF0D0040F47F00EF24C6F8E4F20FBF080040F422D2
:20187A001227E21217EC78C674FFF2781F76FF900000122967B3920F78FCA20FE433F202B9
:20189A001543E582600678EDE2FF800478ECE2FF8F8222855E822278EEE2F58278EEE4F245
:2018BA0022E58224B2F9E3FF7E00EE24B2F8E2FDC3EF9D5003ED14F20EBE070040EC7406AD
:2018DA00F32285826912116B85826DC3E56D956940238569F005F07C017D008006EC2CFC8A
:2018FA00ED33FDD5F0F778CEE2FA7B005204EB5205EC4D600122AD698DF005F07401800285
:20191A0025E0D5F0FBFC78CEE24CF2C3E569956DE433FC6009E56924CFF9E360012278D50A
:20193A00E27003021A0CEC700874FFB55F03021A0C78D5E2FB14F56CEC70030219FE78D794
:20195A00D3E29567F4B3FAB308E29568F4FEC006C005C004C00212116FAB82D002D004D049
:20197A0005D0067F00C3EA9BEE9F507875576A75586B856C5585695678D6E2F582C005C032
:20199A000412128CD004D005505A78D5E4F2E56C24CFF9ED04F3E56924CFF9E56C04F3E57B
:2019BA006C249DF8E56AF2E56C24A4F8E56BF2E569249DF8E4F2E56924A4F8E4F2E5692421
:2019DA00ABF8E4F2E56C24ABF87401F2856C821218BB856B64756500856C66856A8212167F
:2019FA004D021766C005C00412173A121766D004D00575536A75546B856952855E82C0050D
:201A1A00C00412121CE569249DF9E56AF3E56924A4F8E56BF2856982C001C0001218BBD068
:201A3A0000D001D004D005EC6057C005C001C00012116FE582D000D001D00560447F00C3D4
:201A5A00EF956D503C75576A75586B8569558F56855E82C007C005C001C00012128CD00067
:201A7A00D001D005D007501678D5ED04F2E55E78D6F2AC67AE6878D7ECF2EE08F2220F80C7
:201A9A00BEE56924ABC000F87401F2D000E3F582E2F56475650085696612164D021766E5C6
:201ABA0082FF249DF9E3FE53060FEF24ABF9E36014BE02028003BE05067E027F0080047E6B
:201ADA00007F00EEF322AF82C00712116BAE82D007C3EE9F5001228F068EF005F07401801D
:201AFA000225E0D5F0FBFE78FBF278CEE25E700122EEF4FE78CEE25EF28F057E000DBD0055
:201B1A00010E78D5E27C00B5050EECB5060AC00712173A121766D0078F82C007121AB91219
:201B3A00116BAE82D007C3EF9E503FEF24CFF9E3FF60371F8F82C007C001121AB9D001D097
:201B5A00078FF005F07D017E008006ED2DFDEE33FED5F0F778CEE2FB7C005205EC5206ED55
:201B7A004E7007F3EF24CFF8E4F2021766AF82C00712116BAE82D007EF60067C017D008008
:201B9A00047C027D00EC2EFE78D5E2601574FFB55F02800EC007C00612173A121766D00604
:201BBA00D00775536E75546F8E52855E82C00712121CD007EF60067E077F0080047E087FC1
:201BDA00008E66856F64756501856E8212164D021766AF8278FAEFF27F00BF04005009EF4D
:201BFA0024F6F8E4F20F80F2221213A2AF82C211757000C007121373AD82D007C3E5709D76
:201C1A004003021CD5E57024F6F9E3F5717C0030102EEF243CF582E43401F583E0FB530351
:201C3A003F78FBEBF2AA7153027FE4FEFDEAB5030BEEB505077571807C0180310571802D1A
:201C5A00E57130E7137C03EF243CF582E43401F583E0FE30E602D21153717FEF243CF58232
:201C7A00E43401F583E0FE30E703757100E57024F6F8E571F2EC6038EF2CFC243CF582E4D6
:201C9A003401F583E0FE7D000CBC00010DEC243CF582ED3401F583E0F564AD7074092DF5FA
:201CBA00667565008E82C00712164D121766D00705708F0674052EFF021C0DA21122AF8237
:201CDA0078FAE2B507012278FAEFF2D210021C03C210021C0385827285837378D5E2602CBF
:201CFA0078D7D3E29572F4B3FCB308E29573F4FDC005C00412116FAB82D004D0057A00C358
:201D1A00EC9BED9A400612173A1217661227DBAD8278D9E2B5050280111227DBE58278D9D4
:201D3A00F278C674FFF2781F76FF78FCE2600F900000122967500678FCE4F2800122121587
:201D5A0043400122E560701BE55B701712297892124010AD7278FFD3E29DF4FDBD08009255
:201D7A00125004C2128002D212A212E433FD600578FFE572F27C00EC24ABF9E3FBBB0239B8
:201D9A00EC249DF9E3FA53020F7F00BA0223BF0020EC24A4F9E3FF60187E02EE24C6F9E3CA
:201DBA00FAB5070280060EBE080040EFBE08028035EC24ABF8E4F2802DED602AEB6027EC40
:201DDA00249DF9E3FFBF1D028003BF1E19E3FF740F5FF582EC24A4F9E3F563C005C0041238
:201DFA0014DED004D0050CBC0700408B121543400122E5607041E55B603D78EBE225E02486
:201E1A00DAF9E3F5600978EFE3F278EBE20478EB5407F2155B75610078F5E4F2AE6053066F
:201E3A000F7F00BE0409BF00067E027F0080047E017F0078F4EEF2E560700122E560540F1D
:201E5A00FFE5616003021F86C007122978D007500122BF075278EFE2FE7003F56022C00646
:201E7A00121498AD82D006EE33E433FC60067AFF7BFF80047A017B008A1B751900751A00BC
:201E9A008D82C006C0041228FCD004D006400122EC6005EE04FD8003EE14FD78EFEDF2ED57
:201EBA0060012275600022BF0D028003BF0E1678EFE2F5638F821214DE40012278FFE57273
:201EDA00F275600022BF0828AD60E4CDC4540F6DCD540FCD6DCD8D067D0078EFE27C004D65
:201EFA00F582EC4EF58312296740012275610422E56078F0F278EFE2FE78F1F278F2E4F21D
:201F1A00BF093778F59001BCE2F08E821213BCE582FE7003F560228E82122B42E582FE30B8
:201F3A00E7067C207D0080047C007D0078F074014CF278F1747F5EF2800EBF03028003BFA9
:201F5A00040678EFE278F2F2756201121543500578F3E2700122AD72AE7374082DFDE43E39
:201F7A00FE78FDEDF2EE08F2756101227401B5612378FDD3E29572F408E29573F430E70143
:201F9A0022122978500122756200121543400122756102227402B5613BC007122978D00729
:201FBA00500122BF090A78F5E22401F27561002278F4E214F278F4E26016AE72AF7374C8CE
:201FDA002EFEE43FFF78FDEEF2EF08F275610322756000227403B5613178FDD3E29572F486
:201FFA00B3FEB308E29573F4FF20E7417562011215435039AE72AF7374082EFEE43FFF78E7
:20201A00FDEEF2EF08F2756101227404B561111229784019900000122967501175610522AC
:0E203A007405B5610812297840037560002214
:202048007F00EF243CFDE43401FE8F82C007C006C005122550AC82D005D006D0078D828E5F
:2020680083ECF00FBF800040D975480190013C120DBA92149215900285E4F0900286F0C22C
:202088001322D21322AE82AF83900285E07003301302C3227D00ED24C5FBE43401FCED2E88
:2020A800F582E43FF583E08B828C83F00DBD200040E49002857401F0D3229001C9E0FF90D2
:2020C80001CBE0F5109001CCE0F5119001C5E0FCBC03169001C6E0FCBC550E9001C7E0FC77
:2020E800BC4D069001CDE06004758204229001C8E0FCBC0102800475820122E51124E85026
:202108000475820322BF05028003BF0606AB117C0080047B007C0074092BFCBC20005016EA
:20212800EC24C5FAE43401FB8A828B83E06004758204220C80E5E4BF030104FC7008BF04E6
:20214800028003BF061EE5116016AA117B00A8107900EA28F8EB39F9C3748098E4995031C8
:2021680075820322E5106003BF0922BF05117403B51103D38001C3B39216E433FB800BE5F0
:2021880011B40100B39216E433FBEB600475820322EF24F65003022467EF240A83F582EFAA
:2021A800240E83F583E47367C3F14E4EB3E6A76041242121222222222324249001EC740EA3
:2021C800F07F008F0374092BFB3395E0FAEB24E5FBEA3401FAEF9035A893F98B828A83F0B7
:2021E8000FBF0E0040DD02246B9001EC7406F0A214E4339001EEF03015091218ADAB827F59
:202208000080047B007F009001EFEBF030150912115CAB827F0080047B007F009001F0EB7A
:20222800F0900286E09001F1F075820012189CAF829001F2EFF075820112189CAF8290016C
:20224800F3EFF002246B9001ECE511F0751200C3E5129511400302246BAB1274092BFB3362
:2022680095E0FAEB24E5FBEA3401FAEC6019E5122510F582C004C003C002122550A982D00C
:2022880002D003D004801AA8107F00AD127E00ED28F8EE3FFFE8243CF582EF3401F583E00B
:2022A800F98B828A83E9F0051280A49001CEE0FFBF80028004758203229001CFE0FF900100
:2022C800D0E0FD7E007C00900288EE4FF0ED4CA3F0900287E4F090028604F002246B900220
:2022E80086E0FFBF0102800475820522900287E0FFB510028063AD117E00AB107C00ED2BE0
:20230800FBEE3CFC7E00C3EF9BEE9C500475820A227F00C3EF9511400302246BAD107E00E2
:202328008F037C00EB2DFDEC3EFEED2405F582EE3402F583E0FE8F0574092DFD3395E0FC64
:20234800ED24C5F582EC3401F583E0FDEEB50502800475820A220F80BA7F00C3EF951150F1
:2023680034AD107E008F037C00EB2DFDEC3EFEED2405FDEE3402FE8F0474092CFC3395E086
:20238800FBEC24C5F582EB3401F583E0FC8D828E83F00F80C6900287E02511F002246B90D5
:2023A8000286E0FFBF020302246BBF010A900287E0FFBF8002800475820522900205120B00
:2023C80050AE82AF83900288E0FCA3E0FDEEB5041AEFB5051690020BE0FD8E04B5040C90EC
:2023E800020CE0FD8F06B50602800475820722754801900205120DBA4004758206229002D1
:20240800051225BE92144004758209227F00EF243CFDE43401FEEF2405F582E43402F583AB
:20242800E08D828E83F00FBF800040E2D2151207EE9002867402F0802AE5106013AE1053A5
:2024480006067F00BE0405BF00028004758203228510821204FB800B900286E4F080047529
:2024680082022275820022AE82AF83301311900286E4F0900285F01207EEC21302276090F7
:202488000286E0601D90028AE0FCA3E0FDEEC39CFCEF9DFDC3EC9488ED9413400590028649
:2024A800E4F0900285E0700122900285E0FDBD0102800302253C7D00ED24E5F582E4340119
:2024C800F583E4F00DBD200040EE9001E57404F09001E67455F09001E7744DF09001E8746C
:2024E80001F07D04ED24E5FBE43401FCED24C5F582E43401F583E08B828C83F00DBD0700C1
:2025080040E2C007C0061220C2AD82D006D0079001EDEDF0ED70179001C9E0FDBD0500402C
:202528000DED24F7400890028AEEF0EFA3F09002857402F02013109001E51226F350089071
:082548000285E4F00227602285
:0E35A800554D41430107010303078003FFFF58
:20255000023476AF82C007122550AE82D007EEB513028019A2AF9217C2AF900318E513F0EA
:202570008F82C007123440D007A21792AF8F82122550E582B51302D322C322AE82AF837D9A
:20259000008D82C007C006C005122550AC82D005D006D007ED2EF582E43FF583E0FBECB5EA
:2025B00003028002C3220DBD800040D5D322AE82AF83C007C00612258BD006D0075002D3C8
:2025D00022751300758200C007C006122553D006D0075013751300758201C007C0061225DF
:2025F00053D006D0074002C3227D02ED2EF582E43FF583E0F5138D82C007C006C005122578
:2026100053D005D006D0074001220DBD800040DB751350758201C007C006122553D006D080
:1F26300007501375134D758200C007C006122553D006D0074002C3228E828F8302258B96
:04000000020049327F
:03000B0002348636
:0100130032BA
:01001B0032B2
:0100230032AA
:01002B0032A2
:01003300329A
:01003B003292
:0300430002265042
:0E0080007808E4F608F608F608F6780C760024
:0300920002004623
:0300460002268F00
:20265000C024C0E0C0F0C082C083C007C006C005C004C003C002C001C000C0D075D00012AE
:202670003348D0D0D000D001D002D003D004D005D006D007D083D082D0F0D0E0D024321246
:0E26900035171208E612091780FB758200222A
:20269E001233D81234021233F175DD0075D3002275D30074FC55D24402F5D2C2182230DECF
:2026BE00337402B5DB1190000AE0FFBF010990000BE090028CF0227420B5DB1890000AE00F
:2026DE00FFBF031090000A12208D500874F355D24408F5D222D310AF01C3C0D0AE82AF834F
:2026FE00D219900317E060192018169002DFE06003301A0DACD25304037D00BC0306BD009E
:20271E0003C380377D008D037C0074402BFBE43CFCEB240AFBEC3400FCED2EF582E43FF5C5
:20273E0083E0FA8B828C83F00DBD200040D8C219C21A75D320D21853D2FCD333D0D092AFFF
:20275E001322D310AF01C3C0D0AED253060C7F00BE0C05BF0002800353D2F3D0D092AF22AE
:20277E00E58290028CF0229002E1E4F09002E2F09002E3F09002E4F09002E5F09002EAF05B
:20279E00A3F09002E8F0A3F09002E6F0A3F07F00EF24ECF582E43402F583E4F00FBF08005F
:2027BE0040EE9002F4E4F09002F5F0A3F0C2189002E0E02401F0C219C21A0227E29002E0F4
:2027DE00E0F58222D310AF01C3C0D09002DFE4F09002DDF09002DEF0D0D092AF22AF8290B4
:2027FE0002DDE024D5F582E43402F583EFF09002DDE0FF0F74075FF09002DFE02401F0D3BB
:20281E00228582148583159002DFE0FDBD08028006900317E07002C3229002DDE075F00907
:20283E00A4248DFC740235F0FD8C828D837401F00CBC00010D7B00EB2514F9E43515FA89EF
:20285E00828A83E08C828D83F0A3AC82AD83EB24ECF8E43402FF89828A83E088828F83F0CC
:20287E000BBB080040D17582090227FBD310AF01C3C0D012281F33D0D092AF1322AF8290EE
:20289E0002DFE0FEBE08028006900317E07002C3229002F4EFF09002DDE075F009A4248DB5
:2028BE00FD740235F0FE8D828E837402F00DBD00010E8D828E83EFF00DBD00010E8D828E90
:2028DE0083E516F00DBD00010E8D828E83E517F08D828E83A3E518F07582050227FBD310D4
:2028FE00AF01C3C0D0851916851A17851B1812289B33D0D092AF1322AE82AF839002DFE0C4
:20291E00FDBD08028006900317E07002C3229002F5EEF0EFA3F09002DDE075F009A4248D75
:20293E00FC740235F0FD8C828D837405F00CBC00010D8E038C828D83EBF08C828D83A38FAE
:20295E0006EEF07582030227FBD310AF01C3C0D012291633D0D092AF13229002DFE070070F
:20297E00201804C21B8002D21BA21B22D310AF01C3C0D0AE82AF839002DFE06003022A7F2B
:20299E009002E5E0FD0D751C00BD01079002E1E0FB8011BD02079002E3E0FA80059002E473
:2029BE00E0FA8A03BD010A9002E6E0F9A3E0FA8019BD020A9002E8E0F8A3E0FC80089002AF
:2029DE00EAE0F8A3E0FC88018C028904EB7003022A6CEEC39CFCEF9AFA8B017B00E929F920
:2029FE00EB33FBE929F9EB33FBC3EC99EA9B405EBD03067B007C0080048D037C009002E54D
:202A1E00EBF0BD01109002ECC007C00612281FD006D007804CBD021D9002F4E0FC75160049
:202A3E007517007518008C82C007C00612289BD006D007802C9002F5E0FBA3E0FC8B828C1C
:202A5E0083C007C006122916D006D00780130DED24FC50027D01051C74FD251C400302298C
:202A7E00A7900317E0601C2018199002DFE06013301903201A0DACD25304037D00BC0306C9
:202A9E00BD0003022B3D9002DEE0FD75F009A4248DFB740235F0FC8B828C83E0F51DED242D
:202ABE00D5F582E43402F583E0F51E7900C3E9951E502789007A00744028F8E43AFAE824DD
:202ADE000AF8EA3400FA8B828C83E0FDA3AB82AC8388828A83EDF00980D37401B51D0A9095
:202AFE0002E6EEF0EFA3F0801C7402B51D0A9002E8EEF0EFA3F0800D7405B51D089002EA4C
:202B1E00EEF0EFA3F0D21A851ED39002DEE0FF0F74075FF09002DFE014F0D21853D2FCD07D
:202B3E00D092AF22AF82BF8000400475820022EF9035B693F58222E582FF7017AE7D900237
:202B5E00E2EEF09002E4EEF09002E3EEF09002E1EEF022BF01079002E1E57DF022BF020707
:202B7E009002E3E57DF022BF05069002E4E57DF022E582FF70079002E2E0F58222BF010709
:202B9E009002E1E0F58222BF02079002E3E0F58222BF05079002E4E0F5822275820022AFF3
:202BBE0082AD7EAE7F8D828E83EFF0BF0143E57D601474012DFBE43EFC90028CE08B828CF3
:202BDE0083F0758202227C008C027B000ABA00010BEA2DFAEB3EFBEC24ECF582E43402F53D
:202BFE0083E08A828B83F00CBC080040DB75820922E57D7039BF023674012DFBE43EFC90F0
:202C1E0002F4E08B828C83F074022DFBE43EFC74032DF9E43EFA8D828E83A3A3A3A3E4F0BF
:202C3E0089828A83F08B828C83F075820522E57D702FBF052C74012DFCE43EFF9002F5E02D
:202C5E00FAA3E08C828F83EAF074022DFDE43EFE9002F5E0A3E0FC8D828E83ECF075820343
:052C7E00227582002216
:2035B60000000000000000002A2B2800000000000000000000000000000000000000000078
:2035D6002C9EB4A0A1A2A434A6A7A5AE362D3738271E1F20212223242526B333B62EB7B898
:2035F6009F8485868788898A8B8C8D8E8F909192939495969798999A9B9C9D2F3130A3AD89
:20361600350405060708090A0B0C0D0E0F101112131415161718191A1B1C1DAFB1B0B500ED
:20363600120110010000000809125DC500010102030105010906A1018501050719E029E7B1
:203656001500250195087501810295017508810395067508150026FF000507190029E781E4
:203676000005081901290515002501950575019102950175039103C005010902A1010901E2
:20369600A100850205091901290315002501950375018102950175058103050109300931BF
:2036B60009381581257F750895038106C0C00600FF0901A10185030902150026FF00750862
:2036D600951F910285040903951F8102C0050C0901A1018505150026FF0F19002AFF0F75AB
:2036F6001095018100C009022900010100806409040000020300000009211001000122B48F
:20371600000705810320000A0705010320000A040309041C034300480035003500780020DF
:20373600006B006200640020006D006F007300260355006E0069007600650072007300615D
:20375600006C0020004D006100630072006F007000610064000E0344006500710069006E9E
:03377600006700E9
:03008E00757C007E
:202C8400AE74AF75C3EE9408EF9400921C40067C087D008004AC74AD757D00C3ED9C502C1A
:202CA4008D027B00E57B600A857982857A83E0F98009857982857A83E493F98A828B83E963
:202CC400F00579E4B57902057A0D80CF8C037D00EEC39BFEEF9DFF8E748F758C8222AFDBF2
:202CE4007D007E008E778E7BBF080280030231E5900007E0FC7F00900006E0FB7A004FF542
:202D040074EA4CF5757F00900001E0F5768F7C900000E0FC54607003022EBF900000E0FC47
:202D24005304607B00BC2005BB00028010BC4005BB00028003022EBA7FFF0231E7900004D8
:202D4400E07006900005E060057FFF0231E77409B5763F900000E0FCBC2137900003E0FCD1
:202D6400BC022F900002E0FCBC030CAB74AC75BB2005BC00028012900002E0FCBC0113ABD0
:202D840074AC75BB020CBC00098574777578000231E7740AB57655900000E0FCBC214DE51C
:202DA4007445757047900002E0601C900002E0FCBC01028012900002E0FCBC020280089037
:202DC4000002E0FCBC0525900317E0601F900002E0FC900003E0F57D8C82C007C006C0056F
:202DE400122B55D005D006D0070231E77402B5765D900000E0FCBCA155900002E0601C9007
:202E04000002E0FCBC01028012900002E0FCBC02028008900002E0FCBC0533900003E07084
:202E24002DAB74AC75BB0126BC0023900317E0601D900002E0F582C006C005122B8FAC82EB
:202E4400D005D006900000ECF07F010231E77401B5765E900000E0FCBCA156900003E0FC31
:202E6400BC01028008900003E0FCBC0244900317E0603E900002E0FC900003E0FBE4BB02F1
:202E84000104F57D757EF7757F028C82C007122BBDAC82D0078C057E00ED4E600F7579F765
:202EA400757A02757B017576060231E77FFF0231E77FFF0231E77FFF0231E7E57624F45096
:202EC400030231E1E576240B83F582E576241083F583E47335B3E1B3E1ADF0E1BAD72323C0
:202EE40031303130312F2E312F2F3030900003E0FCBC01028017BC0202801FBC0302802703
:202F0400BC21028074BC2202807C022FA8757936757A367D127E000231E77579FC757A36A6
:202F24007D297E000231E7900002E07008757925757A378035900002E0FCBC010875796BEB
:202F4400757A378025900002E0FCBC0208757945757A378015900002E0FCBC030875792934
:202F6400757A3780057FFF0231E7857982857A83E493FCFD7E000231E775790E757A377D61
:202F8400097E000231E7900002E07013757948757A36903715E493FDA3E493FE0231E77F3B
:202FA400FF0231E77FFF0231E7900002E0FC8C747575000231E7900317E0900000F0AB74C1
:202FC400AC75C3EB9401EC940050030231E77F010231E7900000E07021900003E0701B9073
:202FE4000002E0FC24FE4012900004E0700C900005E07006E574457560057FFF0231E79000
:203004000002E0900317F0C007C006C00512278512208AD005D006D00775D2120231E790DF
:203024000004E07075900005E0706F900002E07069900003E07063900317E0605D740AB564
:20304400760474018001E4FC602C900000E0FBBB8103D38001C3921D5013AA74AB75BA01C4
:2030640006BB0003D38001C3921D101D02D21DA21DE433FB8021900000E0FABA0103D380B7
:2030840001C3921D500AE57445757004C21D8002D21DA21DE433FBEB60057FFF0231E7ECE3
:2030A40070030231E7900000E4F07F010231E7900000E0FCBC0218900002E07012900003B8
:2030C400E0700C900005E07006E574457560057FFF0231E7900004E0FCBC812D7403B57619
:2030E4000B74FC55D24403F5D20231E774BC55D24402F5D2C007C006C00512278512208AD2
:20310400D005D006D0070231E7900004E0FCBC011B747355D2FC7403B576067A0C7B008094
:20312400047A007B00EA4CF5D20231E77FFF0231E7900004E0FD7E00900000E0FCBC824CFE
:203144008D038E04BB8117BC0014A9D2530103E4FAB90304BA000104F9FD7E008048BB01FF
:2031640017BC0014A9D253010CE4FAB90C04BA000104F9FD7E00802EED4E6006BB8009BC60
:2031840000067D007E00801E7FFF8057900000E0FCBC80028008900000E0FCBC8104ED4E1D
:2031A40060047FFF803D900005E0700C900002E07006900003E060047FFF80278D04900076
:2031C40000ECF0900001E4F0AB74AC75C3EB9402EC940040047F02800AAF7480067FFF80B0
:2031E400027FFFBFFF0280177406B57612C3ED9574EE957550048D748E75122C84AF82BF82
:20320400FF077576FF75DCCF22EF24F740168FDDE57760067E027F0080047E007F0074C036
:203224004EF5DC2275DD00E57760067E027F0080047E007F0074C04EF5DC227405B576029A
:20324400800F7406B57618122C848582DD63DC4022E5E35480FFE5744FF5E375DC022275D2
:20326400DD0075DC022220DE01227409B576028003023336E5777003023336E5DB24F750DA
:2032840003023336AE787F00ACDB7D00EC2EFEED3FFFAC777D00C3EC9EED64808FF063F040
:2032A4008095F050030233367F00C3EF95DB5019EF257824F7FDE43402FE8F82758300E098
:2032C400FC8D828E83F00F80E1E5DB2578F578E577B578457420B5771A9002F7E0FFBF03D2
:2032E400129002F712208D500A74F355D24408F5D2801C7402B577139002F7E0FFBF010BF1
:203304009002F8E0F58212277E800475DCCF2275770075DD0075DC482274F825DB4007752A
:2033240076FF75DC0F2263DC8074F055DC4402F5DC2275DD00E57760077576FF75DC0F2284
:2033440075DC022220D9030233AEE5D9540F6002802CAED95306307F00BE0005BF00028053
:2033640013BE2005BF00028010BE303CBF0039122CE2803412326A802F12323F802AAED9FB
:2033840053060F7F00BE0120BF001DE5D95430600280051226BC8010AED95306307F00BE8D
:2033A4002006BF00031226AEC2D930D81A12208A12278575DC0275D21275E300C2DAC2D9C9
:2033C400C2D8900317E4F010DA0122E5DA20E20375D8FF2275E20053E27F43E22975E300E1
:2033E40053E2BF53D1FB75D18043D1012243E10443E10243E10143D81FD2EAD2AF227E002F
:183404007F008EEC8FED7E0A7F008EEE8FEF75D21275EAC075DC02224D
:20341C00ABF0A2AFE433FEC2AFE0A37A0833D2B44002C2B47905D9FEC2B4DAF1DBEBEE60FE
:04343C0002D2AF22E7
:20344000AF82BF800040012275A15575A1AA43B10475A1007585C0EF2FF584900318E0F58F
:203460008EE58630E60375869A75A15575A1AA53B1FB75A10022AF827585C0EF2FF584754C
:06348000868E858E82227B
:06005600E478FFF6D8FD7E
:20348600C0D075D00808B8000D09B900090ABA00050BBB00010CD0D032A2AFC2AFA808A928
:2034A60009AA0AAB0BAC0C92AF75F020E8A4A8F075F020E9A428F582A8F075F020EAA4286D
:2034C600F583A8F075F020EBA428F9A8F075F020ECA42889F022AE82AF83C374019EE49F76
:2034E60040022200C374029EFE74009FFF00BE0005BF0002002200000000000000000000D5
:20350600000000000000000EBE00EB0FBF00ED002275A15575A1AA74F855B94406F5B975FF
:20352600A1009013881234DC759E5D759D0074F055894402F58953C9EF758C06C28DD2A933
:05354600D28CD2AF227F
:20005C00786CE84400600A799475A000E4F309D8FC7805E84402600C7903900114E4F0A385
:04007C00D8FCD9FAD9
:0D00490075818412354CE58260030200468B
:04354C007582002262
:00000001FF
