:2000B8007E947F007D007C004305098E828F838DF0EC0234927F00BF0900500FEF2494F5B8
:2000D80082E43400F583E4F00F80EC0200B8E582FF7003F58222EFC4540FFF74014FF5822B
:2000F80022AF829000C1E0FEBE030774015F04FF80028E078F8222900268E070079000C3D9
:20011800E07001221217E28582259000C3E0FEE07008852582121085AE82EE0303543FFD0D
:20013800530503EEC4540FF5269000BDE0F5278E82C006C0051200F9858228D005D00690C3
:2001580000C2E0F5299000BFE0F52A9000C3E0601574015E04F5289000CEE0C4540FFE7406
:20017800035EF52A8007E5287003F527FD7403B529037529027B947E00E52A24D1F52FE436
:200198003435F5307403B52A0474018001E4F531740FB52603D38001C39200EDB40100B300
:2001B8009201E4BD030104F532BD0303D38001C3920274015527F533E4F534BD020104FD6F
:2001D800752B0074FD252B50030200B885263585282C3000159000C3E06005853236800690
:2001F800A201E433F536E5367004C2038002D203A203E433F52D9000C3E0705BE527600E01
:20021800ED6054E5334534604E752C008049E529603CE52B24A4FAE43400FC8A828C83E0F1
:20023800602C852B51852582C006C005C0031210A4AC82D003D005D0068C35BC0F08900009
:20025800CBE0FC20E70885292C752D008009852635200203752C00E52C7007F52EFAFC0282
:200278000315E52D6065E52B9035CB93FF852F82853083E4938FF0A42524F536E531600F44
:20029800E52B9035CE93247DF9E7FF2536F53674AB2536400E7A00E53675F003A4F52EF48A
:2002B800FC805A745625364011E53624ABFF7C0075F003A4FAF4F52E8043E536FF2456758C
:2002D800F003A4FCF4FA752E008032C005E53575F003A424EEFD743535F0FF8D828F83E464
:2002F80093FC0DBD00010F8D828F83E493FA0DBD00010F8D828F83E493F52ED0057401B557
:200318002C338C82C006C005C003C0021200E6AC82D002D0038A82C004C0031200E6AA82C6
:20033800852E82C0021200E685822ED002D003D004D005D0068B828E83EAF08B828E83A3A4
:20035800ECF08B828E83A3A3E52EF074032BFBE43EFE052B0201DBAF82E57A2FFFE57BFE5B
:200378002F2E2EFFC3EF957B4007EFC3957BFF80F38F8222AF82E537FE30E304EE24F0FE09
:2003980074015FFDBF0B00406F9000C1E0FC9000C2E025E025E04204BF0C347B00EB903522
:2003B800E993B5040280060BBB050040F08B02BB05087A00EE20E7027A048E7A757B058AA2
:2003D80082C007C00412036F858237D004D007E5379035E993F537BF0D07ECB537037537A8
:2003F8000FAC3774035CFB9000C1F0EC0303543FFC9000C2F00204D2BF0A097C007B047507
:20041800370F80107C027B04BF08005007EFC313FCFA04FBBF0304C3E49EFEC3EC9B400383
:200438000204D2AA37ED6061EC24BFF582E43400F583E0F97804BC0200402D7803B9032888
:200458007902BC0223C007C006C005C004C003C0001217E21210851200F9A982D000D00304
:20047800D004D005D006D0078E7A887B8982C007C006C005C004C00312036FAA82D003D0CC
:2004980004D005D006D0078021BA0F1E7A03EC700C9000CEE0C4540FF9740359FABC010A62
:2004B8009000CEE0F923235403FAEC24BFF582E43400F583EAF00C020433BF02028008BF57
:2004D80003028003BF0A0C123515AC82AD83AEF0FF8C2302010FAF829000C3EFF0EF7021AC
:2004F800900268E0701B1200CD90009574FFF0123515AC82AD839000C4ECF0EDA3F00200AC
:20051800B802010FAF82C007121085AE82D007EE0303543FFE5306039000BDE4F0BE01038F
:20053800048001E4FD7003BE022CED60067D067E00800C0FEF3395E0FCEF2FFDEC33FE9094
:2005580000BDEDF0AE38E539C313CE13CEFF747D2EFE9000BEF002010FAE82AF839000BD45
:20057800E0FDE06012EFC313CE13CE9000BEE0FFEEC39FFE30E70122ED149000BDF090003D
:20059800BE747D2FF002010F1217AD123515AC82AD83AEF0FFC005C0041229D4E582D00463
:2005B800D0056038C005C004123515AA82AB83AEF0FFD004D005EAC39CFAEB9DFBC3EA942A
:2005D80064EB94005016C005C0041235151229ED123515121BECD004D00580B97E947F00C5
:2005F8007D00BD0300501F8E828F83E4F08E828F83A314F08E828F83A3A3E4F074032EFE99
:20061800E43FFF0D80DC1200B875E200C2AF75890090C35012355290C350123552123800E5
:2006380080FEAF82BF030AA2B3B39204E433F58222BF050AA2B2B39204E433FE8013EF9047
:2006580035C693FFE5905207EFB401009204E433FE8E8222A2B0E43325E0FFA2B1E4334F80
:20067800F58222AF82C00712063AAE82D007EF249DFCE43400FD8C828D83E0FBEEB5030216
:20069800801C8C828D83EEF0EF75F002A424ABF582740035F0F583E53AF0E53BA3F0EF2484
:2006B800A4FCE43400FD8C828D83E0FBEEB5030122EF75F002A424ABF582740035F0F5835A
:2006D800E0FAA3E0FBE53AC39AFAE53B9BFBC3EA940AEB940040658C828D83EEF09000C3C0
:2006F800E0600E758200C007C0061204EED006D007900268E0700122EE6030BF031CC007CF
:200718001217E2121085E582D0079000BC5402F09000C4E53AF0E53BA3F0853A6A853B6BD5
:200738008F82C007121826D00780098F82C007121AD1D007BF0300500302010F2212066CA0
:20075800AF829000B9E0FEEFB50601229000C3E0600A758200C0071204EED0079000B9E0FD
:2007780025E025E04F9035D993FE9000B9EFF0900268E0700122EE70069000BAE4F0229010
:2007980000BAE02EF0E0FFC364809484400B9000BAE4F0758201021B86C3747C8FF063F062
:2007B8008095F0400B9000BAE4F0758200021B8622123515AC82AD83AEF08C3C8D3D90007D
:2007D800CEE0C4540FFF5307039000BFEFF09000CEE0232354039000C0F09000C27403F0CE
:2007F8009000C1F07F00EF24FC4050EF249DFBE43400FEEF24A4FAE43400FD8F82C007C063
:2008180006C005C003C00212063AAC82D002D003D005D006D0078A828D83ECF08B828E83B3
:20083800ECF0EF75F002A424ABF582740035F0F583E53CF0E53DA3F00F80AB12066CE58288
:200858009000B9F0900268E0700C9000C3E07005F5820204EE221217AD9000BAE4F012179F
:20087800E2E5829000BBF09000BCE4F09000BDF0853C23F5247F00BF03005009EF247DF860
:2008980076000F80F202010F1220344390C24392C24393C243B00B740B459654EFF59643A4
:2008B800971B1200CD1207C91226D875820312063AE58260030205A022123515AC82AD8304
:2008D800C005C0041229EDD004D0058C828D83C005C004122482D004D0057F00EF24FC40D0
:2008F800188C3A8D3B8F82C007C005C00412067BD004D005D0070F80E3C005C0041207555D
:20091800D004D0058C07EFC39523FE9000C3E0FB600B9000CEE023235403FA80059000C0D8
:20093800E0FAEA9035D593FAC3EE9A50030209C8EB600EEB30E3047E0080307B007E008041
:200958002A900268E0601BC007C005C0041217E2121085AA82D004D005D0078A3E753F00D6
:200978008005E4F53EF53FAB3EAE3F5303FC7E00C374F09B74808EF063F08095F050318F4D
:200998002305247F037E00BE03005019EF55247008EE247DF9E7FB04F78F03EB2BFB74016C
:2009B8004BFF0E80E2C005C00412010FD004D005900268E070319000C3E0702A9000C4E095
:2009D800FEA3E0FFECC39EFEED9FFFC3EE94F4EF940140129000C4ECF0EDA3F0900095E0E5
:2009F80064FFF00200B8228C828D83C005C004121BEC1217E6E582D004D0057017C005C0C5
:200A1800041217E2AF82D004D0059000BBE0FEB50702804CC005C0041217E2AF82D004D0B9
:200A3800059000BBE0FEB50702801FC005C0041217E2E5829000BBF012066CE582D004D04E
:200A5800059000B9F09000BAE4F09000BBE0FF8C388D398F82C005C00412051CD004D005F8
:200A78008C828D83C005C004120571D004D0059000BCE060219000A7E0601B9000C4E0FE15
:170A9800A3E0FFECC39EFCED9FFDC3EC94B8ED940B40030205A02260
:2035C600028040201000010200020100152A6D04060A1200FF0100010000FFFF000001001B
:0835E60001FF000F0D050400B8
:200AB000AF827E007D00C3ED9F500EE57BC39DFC1C8E03EC2BFE0D80EDE57A2EC39F14F55D
:200AD0008222AE82AF837CFF7DFF7B00BB06028045BB07028040EB2EF582E43FF583E0FA7D
:200AF000E4F96204EA62057A088D017800530180E849B401009205B3E433F57AEC2CFCED3F
:200B100033FDE57A600E8C008D0163002163011088048905DAD30BBB800040B08C828D839B
:200B300022E582FF6015EF24FCFE249E9206500BEF2498FF24F49206100602D206A206E410
:200B500033F58222858245858346E5402545F582E43546F583E0FD740F5DFCEDC4540FFD78
:200B7000AA407B000ABA00010BEA2545F582EB3546F583E0FBEC24F05003020D69EC240AC7
:200B900083F582EC241483F583E4731A4F4F747474749DD5E8354F2DA4A4BB0C0C0C0C0C03
:200BB0000C0C0C0C0C0D0D0C0C0C0BEB24F2500475820022BB0A08E4BD000104F58222BB6B
:200BD0000D0BED14FABA0400E433F58222BB0B0BED24FBB39207E433F58222EB20E003BB02
:200BF0000C0674075DF58222BD0F0475820122BB0400500BED24FCB39207E433F58222ED68
:200C100024FDB39207E433F58222ED7003EB6004C2078002D207A207E433F58222ED24FE6C
:200C30009207400EEB24F99207500BBBFA0092075004C2078002D207A207E433F58222E5BD
:200C500042600BBC0203D38001C3920740098B82120B31E5827004C2078002D207A207E436
:200C700033F58222E542600BBC0503D38001C39207400DED700AEB6007EB24F89207500498
:200C9000C2078002D207A207E433F58222ED600475820022E542B4010092078D04E433C37D
:200CB00064808CF063F08095F09207400BBB8003D38001C392075004C2078002D207A20779
:200CD000E433F58222ED7007EB7004C2078002D207A207E433F58222ED7006C3EB954440EA
:200CF00004758200227C007A00C3EA9544502EEAB50307EC600475820122A84379008A06C6
:200D10007F00EE28F8EF39F9E82545F582E93546F583E0FFE4BF000104FC0A80CCE4BB00F8
:200D30000104F58222ED24FE92074006C3EB95414004C2078002D207A207E433F58222EDE5
:200D5000700AC3EB95415004E5426004C2078002D207A207E433F5822275820022AE82AF31
:200D700083754E007401B54702800475820022E54724FE403D8E828F83E0FCBC4D348E82F7
:200D90008F83A3E0FCBC502A8E828F83A3A3E0FCBC061F8E828F83A3A3A3A3A3E0FCFA53DD
:200DB00002017B00A8477900EAB50006EBB501028004758200228E828F83A3A3A3E0FBFA78
:200DD00074075A04FAEBC423541FF95301077B008A4F8B50C3E9954FEB64808550F063F0F1
:200DF0008095F0400475820022C37407954F74808550F063F08095F0500475820022ECC332
:200E100013FC743F5CF548EA75F00FA42409FBE435F0F9E54875F003A47D002BFBED39F940
:200E30008E828F83A3A3A3A3E0FD7C002BFBEC39FC8B008C01C3748098E499500475820025
:200E5000228D4AEBC3954AF549754B00C3E54B9A5068E54B75F00FA42409F9780088037CCC
:200E700000C3EB9406EC64809480504A8804EC2C89032BF54088037C00C3EB9404EC6480EF
:200E90009480B39208E433F5428A41854943854A448E828F83C007C006C002C001C00012A0
:200EB0000B54E582D000D001D002D006D0077003F582220880A7054B8092EA75F00FA4FCA1
:200ED0002409F54C7B00C3EB95484003020F62E54C2EF582E43FF583E0F9C4540FF853001C
:200EF000077C00C3E8954FEC64808550F063F08095F0504F890053000F7C00C3E89403ECAF
:200F100064809480503DEB6006C3E54E995034E54CFC04F5408A41754200854943854A44CC
:200F30008E828F83C007C006C004C003C002C001120B54E582D001D002D003D004D006D020
:200F500007700475820022894E74032CF54C0B020ED6E54A6024AB497C00A94A7A00E92B9D
:200F7000FBEA3CFC1BBBFF011CEB2EFBEC3FFC8B828C83E0600475820022754D00C3E54DE7
:200F9000954A5076AA497B00A84D7900E82AFCE93BFDEC2EFCED3FFD8C828D83E06057E8B5
:200FB0002AFCE93BFDEC2EF582ED3FF583E0FDBD09028042E82AFCE93BFDEC2EF582ED3F52
:200FD000F583E0FDBD0A02802DE82AFCE93BFDEC2EF582ED3FF583E0FDBD20004014E82AB2
:200FF000FAE93BFBEA2EF582EB3FF583E0FD2481500475820022054D80838E828F83C0076A
:20101000C006120AD2AC82AD83D006D00774062EF582E43FF583E0FB8C02B5021274072E6C
:20103000F582E43FF583E0FF8D04B504028004C2088002D208A208E433F582229000C9E026
:20105000FF74075F04F582229000C9E0C423541FFF74075FF58222758203229000CEE0FFAC
:20107000740F5F75F005A4F58222E58275F00FA42409F58222E58204F58212107AAF827E65
:20109000001FBFFF011EEF24C6F582EE3400F583E0F58222AF82C007121067AE82C0061258
:2010B000104CAD82D006D007C3EF9D5006C3E5519E4004758206228F82C00612107AAF82A5
:2010D000D006E4FDFC74032EFEE43CFCEE2EFEEC33FCEE2FFFEC3DFDE551C3137C002FFF61
:2010F000EC3DFDEF24C6F582ED3400F583E0FFE55130E009EFC4540FFD7E0080087C00749A
:201110000F5FFD7E008D8222AF82C00712104CAE82D007C3EF9E5025C007121067AE82D023
:20113000077D0074032EFEE43DFDAB527C00C3EB9EEC64808DF063F08095F0400BE553F875
:201150007600E554F87600228F8212107AAF82E55225522FFEA95324C6F582E43400F5839A
:20117000E0F7A9547F000EBE00010FEE24C6F582EF3400F583E0F722AF82C007121067AE1E
:20119000829000CBE0C313FD743F5DF559C00612104C12107AAC82D006D007E556B555025F
:2011B0008022C3E5559E501CC3E5569E5016C007C006C00412104CAB82D004D006D007C344
:2011D000EF9B400475820022C3E55695555007AB558556558B56EFC454F0FF85567A8E7B74
:2011F000855582C007C004120AB0AE82D004D007EE4207755A00C3E55A95595064EC24C6D1
:20121000F582E43400F583E0FBB50702801753038F7A008F0553050F7E00430580EBB50542
:2012300036EAB50632A9578C057E0074012DFAE43EFBEA24C6F582EB3400F583E0F7A9580F
:2012500074022DFDE43EFEED24C6F582EE3400F583E0F775820122055A8C0674032EFC80D3
:201270009575820022AF82E55B2FFEC39F400A9000CAE0FFC3EE9F400475820022C00612A8
:20129000104C12107AAF82D0069000CBE0C313FD743F5D75F003A42FFDE4FFFCEE2DFDEC06
:1012B0003FFFED24C6F582EF3400F583E0F582228E
:2035EE00FF0000FF1607FF1000FF4200FF7C003CFF0064C8141D7B4300FFC8005BFF000060
:10360E00FF7300B4FF00C2FF0048FFFFFF00000081
:2012C000AF827408B55D02800EE57B6034AE5DC3EE64809481402AE57B601290019AE0FED1
:2012E000BEFF02801890019AEE04F08010900199E0FEBEFF028006900199EE04F0758200AA
:2013000022900197E075F002A42487F582740135F0F583EFF0900197E075F002A42487FEC9
:20132000740135F0FF8E828F83A3E57AF0900197E0045407F0055D758201227F007E00EE42
:201340002462F582E43401F583E0FD42070EBE090040EC7E00EE2454FCE43401FD8C828D47
:2013600083E06025EE2446F582E43401F583E0FD53050F7C00BD0511BC000EEE244DF582F2
:20138000E43401F583E0FD42070EBE070040C6E564600790019EE0FE42078F8222AF82C093
:2013A0000712133BAE82D007BF0D09E566FC3395E0FD80047C007D00BF0E09E566FD33959B
:2013C000E0FF80047D007F008D1A8C19751B008E8202295AE582FF7004758201227E02EEDB
:2013E0002473FCE43401FD8C828D83E0FBB5070475820122EB700A8C828D83EFF075820117
:20140000220EBE080040D8758200227F007E00EE2473F582E43401F583E4F00EBE08004033
:20142000EE7E00EE2454FCE43401FD8C828D83E06040EE2446F582E43401F583E0FDFB539F
:20144000030F7C00BB022BBC0028900173E0FCEDC4540F4204900173ECF0EE244DF582E45E
:201460003401F583E0F582C007C0061213D4D006D0070EBE070040AB90019F7401F0E56499
:20148000603B90019CE0FE53060F7D00BE012EBD002B90019DE0F582C0071213D4AE82D0A7
:2014A0000790019FEEF0EE6014900173E0FE90019CE0C4540FFD4206900173EEF07E00EE0C
:2014C0002473F582E43401F583E0FDEE246BF582E43401F583E0FCEDB5040280027F010E77
:2014E000BE080040DAEF602E9001731228E8E5827003F582227F00EF246BFDE43401FEEFF6
:201500002473F582E43401F583E0FC8D828E83F00FBF080040E112133BE582FFB55C0280F0
:201520001B751900751A00751B008F82C00712295AE582D0077003F582228F5C7582012227
:20154000AF82AE5E74FFB56102801185615E7561FFC007C00612164BD006D0078F04530482
:201560000F7D00BC0004BD000122BC0204BD000122BC0504BD000122BC0605BD0002802FC3
:20158000BC0A06BD00030215F3BC0B05BD0002801ABC0C05BD00028030BC0F65BD0062EF16
:2015A000C4540FF53785678202038C75600122E5692462FCE43401FD8C828D83E0FBE567B6
:2015C00062038C828D83EBF022C007C00612104CAD82D006D007E5672EFE8D04ECC40354A4
:2015E000F8FC2EF567C3E5679D4008E567C39DF56780F2756001EF30E403855E6185675E95
:201600002285677A85687B8F820212C0900182E0FFE07001221F900182E4F0EF2454F582AC
:20162000E43401F5837401F0EF2446F582E43401F583E0FEEF244DF582E43401F583E0F538
:20164000677568008F698E82021540AF5E7E007D00ED2454FBE43401FC8B828C83E06035D9
:20166000ED2446F582E43401F583E0FC53040F7B00BC0B21BB001EED245BF582E43401F59C
:2016800083E0FCC39E400E8C06ED244DF582E43401F583E0FF0DBD070040B6EFB55F012278
:2016A0008F5F7F00EF2462F582E43401F583E4F00FBF090040EE755D00900197E4F0900108
:2016C00098F0AE6253060F7F00BE0812BF000F7404B5630280057405B56303756501756288
:2016E0000075630075640090019EE4F012160C02164B12105885825E855E5F7560007561D3
:20170000FF900182E4F090017BF0900199F090019AF07F00EF247CF582E43401F583E4F0C8
:201720000FBF060040EE900197E4F0900198F0F55DF562F563F5659001A4F0F56490019E8A
:20174000F0F55C122835E582900186F07F00EF2454F582E43401F583E4F0EF245BF582E4E0
:201760003401F583EFF0EF2446F582E43401F583E4F0EF244DF582E43401F583E4F00FBF9E
:20178000070040CA7F00EF2462F582E43401F583E4F00FBF090040EE7F00EF246BF582E40B
:2017A0003401F583E4F00FBF080040EE2212283C1216F290016B74FFF0F55C900000122977
:2017C000C5E582B401009209E433F56502140BE582600790019AE0FF8005900199E0FF8F06
:2017E0008222855F822285608275600022E582245BFEE43401FF8E828F83E0FD7C00EC24D8
:201800005BFAE43401FB8A828B83E0F9C3ED995007198A828B83E9F00CBC070040E08E82C1
:201820008F837406F022AF82C00712106785826ED007C3E56E9F40248FF005F07C017D00B6
:201840008006EC2CFCED33FDD5F0F790017BE0FBF97A005204EA5205EC4D6001228F058D47
:20186000F005F07401800225E0D5F0FB90017B4BF0C3EF956EE433FC6010EF247CFAE434A7
:2018800001FB8A828B83E0600122900182E0FBE070030219A4EC700874FFB561030219A420
:2018A0001BEC7003021992900184E0F9A3E0FAE56AC399F9E56B9AFAC007C005C004C003FB
:2018C000C002C00112106BA882D001D002D003D004D005D0077E00C3E998EA9E4003021930
:2018E00092900183E0FE75576C75586D8B558F568E82C007C005C004C003121188E582D028
:2019000003D004D005D0077003021992900182E4F0EB247CF582E43401F583ED04F0EF24B6
:201920007CF582E43401F5838B060EEEF0EB2446F582E43401F583E56CF0EB244DF582E451
:201940003401F583E56DF0EF2446F582E43401F583E4F0EF244DF582E43401F583E4F0EF38
:201960002454F582E43401F583E4F0EB2454F582E43401F5837401F08B82C0031217EDD08D
:2019800003856D677568008B69856C8212154002164BC007C005C00412160C12164BD00412
:2019A000D005D00775536C75546D8F52855F82C007C005C004121118D004D005D007EF24AC
:2019C00046FBE43401FE8B828E83E56CF0EF244DF9E43401FA89828A83E56DF08F82C007B2
:2019E000C006C005C004C003C002C0011217EDD001D002D003D004D005D006D007EC6071B3
:201A0000C007C006C005C003C002C00112106BE582D001D002D003D005D006D00760527C14
:201A200000C3EC956E504A75576C75586D8F558C56855F82C007C006C005C004C003C00221
:201A4000C001121188E582D001D002D003D004D005D006D0076017900182ED04F090018368
:201A6000E55FF0900184E56AF0E56BA3F0220C80B0EF2454F582E43401F5837401F08B82BC
:201A80008E83E0FB89828A83E0F5677568008F698B8212154002164BE582FF2446F582E42F
:201AA0003401F583E0FE53060FEF2454FDE43401FF8D828F83E06018BE02028003BE050630
:201AC0007C027E0080047C007E008D828F83ECF022AF82C007121067AE82D007C3EE9F5045
:201AE00001228F068EF005F07401800225E0D5F0FBF4FE90017BE05EF08F057E000DBD00F7
:201B0000010E900182E07B00B5050EEBB5060AC00712160C12164BD0078F82C007121A98EF
:201B2000121067AE82D007C3EF9E5057EF247CFEE43401FF8E828F83E0FD60471D8D82C0E7
:201B400007C006C005121A98D005D006D0078DF005F07B017C008006EB2BFBEC33FCD5F0CC
:201B6000F790017BE0F97A005203EA5204EB4C70128E828F83E4F0ED247CF582E43401F5B9
:201B800083E4F002164BAF82C007121067AE82D007EF60067C017D0080047C027D00EC2E1B
:201BA000FE900182E0601574FFB56102800EC007C00612160C12164BD006D00775536F7519
:201BC00054708E52855F82C007121118D007EF60067E077F0080047E087F008E69857067ED
:201BE000756801856F8212154002164BAE82AF83900182E0603B900184E0FCA3E0FDEEC3B5
:201C00009CFCEF9DFDC007C006C005C00412106BAB82D004D005D006D0077A00C3EC9BEDCC
:201C20009A400EC007C00612160C12164BD006D007C007C006122835AD82D006D007900172
:201C400086E0FCB505028019C007C006122835E582D006D007900186F090016B74FFF0F562
:201C60005CE5656018900000C007C0061229C5E582D006D0076005756500800122C007C0AC
:201C80000612140BE582D006D007700122E5627026E55D7022C007C0061229D4AD82D00614
:201CA000D007ED70128E059001A4E0FCEDC39CFDBD0800920A5004C20A8002D20AA20AE482
:201CC00033FD60059001A4EEF07C00EC2454F582E43401F583E0FBBB0251EC2446F582E4DA
:201CE0003401F583E0F953010F7A00B9022FBA002CEC244DF582E43401F583E0FA601E797B
:201D000002E9246BF582E43401F583E0F8B50202800609B9080040E9B908028055EC24543B
:201D2000F582E43401F583E4F08047ED6044EB6041EC2446FAE43401FB8A828B83E0F9B9D3
:201D40001D028003B91E2B8A828B83E0FA53020FEC244DF582E43401F583E0F5668A82C01B
:201D600007C006C005C00412139DD004D005D006D0070CBC07005003021CCBC007C006124B
:201D8000140BE582D006D007700122E5627054E55D6050900198E0FD75F002A42487FB7455
:201DA0000135F0FC8B828C83E0F5628B828C83A3E090019BF0ED049001985407F0155D75A7
:201DC00063009001A1E4F0AC6253040F7D00BC0409BD00067C027D0080047C017D00900113
:201DE000A0ECF0E562700122E562540FFDE5636003021F57C007C006C0051229D4E582D02B
:201E000005D006D007600122BD075690019BE0FC7003F56222C00412133BAB82D004EC333B
:201E2000E433FA600678FF79FF800478017900881B751900751A008B82C004C00212295ADE
:201E4000E582D002D004700122EA6005EC04FB8003EC14FB90019BEBF0EB600122756200DE
:201E600022BD0D028003BD0E2190019BE0F5668D82C007C00612139DE582D006D0077001BB
:201E8000229001A4EEF075620022BD082BAB62E4CBC4540F6BCB540FCB6BCB8B047B00900D
:201EA000019BE07A004BF582EA4CF5831229C5E5827001227563042290019CE562F09001CF
:201EC0009BE0FC90019DF090019EE4F0BD09489001A1E0F55B8C82C007C006121275AC8298
:201EE000D006D007EC7003F562228C82C007C006122BB6AC82D006D007EC30E7067A207BD6
:201F00000080047A007B0090019C74014AF090019D747F5CF08010BD03028003BD040890D1
:201F2000019BE090019EF0756401C007C00612140BE582D006D007600690019FE070012251
:201F40008E038F0474082BFBE43CFC9001A2EBF0ECA3F0756301227401B563289001A2E04F
:201F6000FBA3E0FCEEC39BEF9C30E701221229D4E58260012275640012140BE582700122D9
:201F8000756302227402B56346C007C006C0051229D4E582D005D006D007600122BD090BD3
:201FA0009001A1E02401F0756300229001A0E014F0E060178E048F0574C82CFCE43DFD905C
:201FC00001A2ECF0EDA3F075630322756200227403B563379001A2E0FCA3E0FDEEC39CFC6E
:201FE000EF9DFD20E74D756401C007C00612140BE582D006D007603B74082EFEE43FFF9063
:2020000001A2EEF0EFA3F0756301227404B563151229D4E582701C9000001229C5E58260C4
:1420200012756305227405B563091229D4E5827002F56222A0
:202034007F00EF24C6FDE43400FE8F82C007C006C00512256EAC82D005D006D0078D828ECC
:2020540083ECF00FBF800040D97547019000C6120D6DAF82900267EFF0900268EFF0900293
:2020740065E4F0900269F0900266F0229002667401F022AE82AF83900265E07006900266F8
:20209400E06004758200227D00ED24A5FBE43401FCED2EF582E43FF583E08B828C83F00D66
:2020B400BD200040E49002657401F0758201229001A9E0FF9001ABE0F5109001ACE0F51138
:2020D4009001A5E0FCBC03169001A6E0FCBC550E9001A7E0FCBC4D069001ADE06004758237
:2020F40004229001A8E0FCBC0102800475820122E51124E8500475820322BF05028003BFBA
:202114000606AB117C0080047B007C0074092BFCBC20005016EC24A5FAE43401FB8A828BAC
:2021340083E06004758204220C80E5E4BF030104FC7008BF04028003BF061EE5116016AAD6
:20215400117B00A8107900EA28F8EB39F9C3748098E499503175820322E5106003BF0922DC
:20217400BF05117403B51103D38001C3B3920BE433FB800BE511B40100B3920BE433FBEB3A
:20219400600475820322EF24F6500302247AEF240A83F582EF240E83F583E4737AC4F255A0
:2021B40055BAEDAE7354242121222222222324249001CC740EF07F008F0374092BFB3395F6
:2021D400E0FAEB24C5FBEA3401FAEF90361E93F98B828A83F00FBF0E0040DD02247E900192
:2021F400CC7406F0900267E09001CEF0900268E060091217E2AB827F0080047B007F009065
:2022140001CFEBF0900268E06009121058AB827F0080047B007F009001D0EBF0900269E001
:202234009001D1F07582001217CFAF829001D2EFF07582011217CFAF829001D3EFF002244C
:202254007E9001CCE511F0751200C3E5129511400302247EAB1274092BFB3395E0FAEB24CA
:20227400C5FBEA3401FAEC6019E5122510F582C004C003C00212256EA982D002D003D004D7
:20229400801AA8107F00AD127E00ED28F8EE3FFFE824C6F582EF3400F583E0F98B828A830C
:2022B400E9F0051280A49001AEE0FFBF80028004758203229001AFE0FF9001B0E0FD7E003C
:2022D4007C0090026BEE4FF0ED4CA3F090026AE4F090026904F002247E900269E0FFBF017B
:2022F4000280047582052290026AE0FFB510028063AD117E00AB107C00ED2BFBEE3CFC7E77
:2023140000C3EF9BEE9C500475820A227F00C3EF9511400302247EAD107E008F037C00EB69
:202334002DFDEC3EFEED24E5F582EE3401F583E0FE8F0574092DFD3395E0FCED24A5F58245
:20235400EC3401F583E0FDEEB50502800475820A220F80BA7F00C3EF95115034AD107E00C3
:202374008F037C00EB2DFDEC3EFEED24E5FDEE3401FE8F0474092CFC3395E0FBEC24A5F565
:2023940082EB3401F583E0FC8D828E83F00F80C690026AE02511F002247E900269E0FFBF8F
:2023B400020302247EBF010A90026AE0FFBF80028004758205229001E5120AD2AE82AF8312
:2023D40090026BE0FCA3E0FDEEB5041AEFB505169001EBE0FD8E04B5040C9001ECE0FD8F77
:2023F40006B506028004758207227547019001E5120D6DE5827004758206229001E51225FC
:20241400E4AF82900267EFF0EF7004758209227F00EF24C6FDE43400FEEF24E5F582E43444
:2024340001F583E08D828E83F00FBF800040E29002687401F01207C99002697402F0802A63
:20245400E5106013AE105306067F00BE0405BF00028004758203228510821204EE800B9006
:202474000269E4F080047582022275820022AE82AF83900266E06014900269E4F0900265DD
:20249400F01207C9900266E4F00227B3900269E0601D90026DE0FCA3E0FDEEC39CFCEF9D26
:2024B400FDC3EC9488ED94134005900269E4F0900265E0700122900265E0FDBD0102800317
:2024D4000225557D00ED24C5F582E43401F583E4F00DBD200040EE9001C57404F09001C610
:2024F4007455F09001C7744DF09001C87401F07D04ED24C5FBE43401FCED24A5F582E4349C
:2025140001F583E08B828C83F00DBD070040E2C007C0061220C3AD82D006D0079001CDEDA6
:20253400F0ED70179001A9E0FDBD0500400DED24F7400890026DEEF0EFA3F09002657402E1
:1A255400F0900266E070129001C5122732E5826008900265E4F00227B322CA
:0E361E00554D41430106010303078003FFFFE2
:20256E000234ECAF82C00712256EAE82D007EEB513028019A2AF920CC2AF9002FCE513F060
:20258E008F82C0071234B6D007A20C92AF8F8212256EE582B5130474018001E4F58222AE89
:2025AE0082AF837D008D82C007C006C00512256EAC82D005D006D007ED2EF582E43FF583F9
:2025CE00E0FBECB503028004758200220DBD800040D375820122AE82AF83C007C006122532
:2025EE00ADE582D006D007600475820122751300758200C007C006122571E582D006D007C6
:20260E006015751300758201C007C006122571E582D006D0077004758200227D02ED2EF552
:20262E0082E43FF583E0F5138D82C007C006C005122571E582D005D006D0077003F5822289
:20264E000DBD800040D7751350758201C007C006122571E582D006D007601575134D7582B1
:1B266E0000C007C006122571E582D006D0077004758200228E828F830225AD85
:04000000020049327F
:03000B000234FCC0
:0100130032BA
:01001B0032B2
:0100230032AA
:01002B0032A2
:01003300329A
:01003B003292
:0300430002268A08
:0E00A2007808E4F608F608F608F6780C760002
:0300B40002004601
:030046000226C9C6
:20268A00C022C0E0C0F0C082C083C007C006C005C004C003C002C001C000C0D075D0001276
:2026AA0033BED0D0D000D001D002D003D004D005D006D007D083D082D0F0D0E0D022321298
:0E26CA00358D1208A01208D180FB7582002207
:2026D80012344E12347812346775DD0075D3002275D30074FC55D24402F5D29002FEE4F0D7
:2026F8002230DE357402B5DB1190000AE0FFBF010990000BE09002FDF0227420B5DB1A901A
:20271800000AE0FFBF031290000A122087E582600874F355D24408F5D222D310AF01C3C0E9
:20273800D0AE82AF839002C37401F09002FBE0601F9002FEE070199002C1E060069002C4C1
:20275800E0600DACD25304037D00BC0308BD000575820080417D008D037C0074402BFBE437
:202778003CFCEB240AFBEC3400FCED2EF582E43FF583E0FA8B828C83F00DBD200040D89034
:2027980002C3E4F09002C4F075D3209002FE04F053D2FC758201D0D092AF22D310AF01C3E4
:2027B800C0D0AED253060C7F00BE0C05BF0002800353D2F3D0D092AF22E5829002FDF022D7
:2027D8009002C5E4F09002C6F09002C7F09002C8F09002C9F09002CEF0A3F09002CCF0A3BC
:2027F800F09002CAF0A3F07F00EF24D0F582E43402F583E4F00FBF080040EE9002D8E4F071
:202818009002D9F0A3F09002FEF09002C2E02401F09002C3E4F09002C4F002283C9002C2C0
:20283800E0F58222D310AF01C3C0D09002C1E4F09002BFF09002C0F0D0D092AF22AF8290B3
:2028580002BFE024B7F582E43402F583EFF09002BFE0FF0F74075FF09002C1E02401F07536
:202878008201228582148583159002C1E0FDBD080280069002FBE07004758200229002BF9B
:20289800E075F009A4246FFC740235F0FD8C828D837401F00CBC00010D7B00EB2514F9E432
:2028B8003515FA89828A83E08C828D83F0A3AC82AD83EB24D0F8E43402FF89828A83E08845
:2028D800828F83F00BBB080040D1758209022855D310AF01C3C0D012287BD0D092AF22AFB1
:2028F800829002C1E0FEBE080280069002FBE07004758200229002D8EFF09002BFE075F0E6
:2029180009A4246FFD740235F0FE8D828E837402F00DBD00010E8D828E83EFF00DBD0001A0
:202938000E8D828E83E516F00DBD00010E8D828E83E517F08D828E83A3E518F075820502D3
:202958002855D310AF01C3C0D0851916851A17851B181228F7D0D092AF22AE82AF839002B2
:20297800C1E0FDBD080280069002FBE07004758200229002D9EEF0EFA3F09002BFE075F0F9
:2029980009A4246FFC740235F0FD8C828D837405F00CBC00010D8E038C828D83EBF08C8256
:2029B8008D83A38F06EEF0758203022855D310AF01C3C0D0122972D0D092AF229002C1E097
:2029D800700A9002FEE07004C20D8002D20DA20DE433F58222D310AF01C3C0D0AE82AF83AA
:2029F8009002C1E06003022AE29002C9E0FD0D751C00BD01079002C5E0FB8011BD02079067
:202A180002C7E0FA80059002C8E0FA8A03BD010A9002CAE0F9A3E0FA8019BD020A9002CC7B
:202A3800E0F8A3E0FC80089002CEE0F8A3E0FC88018C028904EB7003022ACFEEC39CFCEFB3
:202A58009AFA8B017B00E929F9EB33FBE929F9EB33FBC3EC99EA9B405EBD03067B007C0053
:202A780080048D037C009002C9EBF0BD01109002D0C007C00612287BD006D007804CBD02CE
:202A98001D9002D8E0FC7516007517007518008C82C007C0061228F7D006D007802C900260
:202AB800D9E0FBA3E0FC8B828C83C007C006122972D006D00780130DED24FC50027D010546
:202AD8001C74FD251C4003022A0A9002FBE060259002FEE0701F9002C1E060199002C3E0C5
:202AF80060069002C4E0700DACD25304037D00BC0306BD0003022BB19002C0E0FD75F00950
:202B1800A4246FFB740235F0FC8B828C83E0F51DED24B7F582E43402F583E0F51E7900C3C6
:202B3800E9951E502789007A00744028F8E43AFAE8240AF8EA3400FA8B828C83E0FDA3AB0E
:202B580082AC8388828A83EDF00980D37401B51D0A9002CAEEF0EFA3F0801C7402B51D0A61
:202B78009002CCEEF0EFA3F0800D7405B51D089002CEEEF0EFA3F09002C47401F0851ED3AE
:202B98009002C0E0FF0F74075FF09002C1E014F09002FE7401F053D2FCD0D092AF22AF8292
:202BB800BF8000400475820022EF90362C93F58222E582FF7017AE7A9002C6EEF09002C8AF
:202BD800EEF09002C7EEF09002C5EEF022BF01079002C5E57AF022BF02079002C7E57AF072
:202BF80022BF05069002C8E57AF022E582FF70079002C6E0F58222BF01079002C5E0F582E3
:202C180022BF02079002C7E0F58222BF05079002C8E0F5822275820022AF82AD7BAE7C8D19
:202C3800828E83EFF0BF0143E57A601474012DFBE43EFC9002FDE08B828C83F075820222E3
:202C58007C008C027B000ABA00010BEA2DFAEB3EFBEC24D0F582E43402F583E08A828B83EF
:202C7800F00CBC080040DB75820922E57A7039BF023674012DFBE43EFC9002D8E08B828CA2
:202C980083F074022DFBE43EFC74032DF9E43EFA8D828E83A3A3A3A3E4F089828A83F08B21
:202CB800828C83F075820522E57A702FBF052C74012DFCE43EFF9002D9E0FAA3E08C828F4B
:1F2CD80083EAF074022DFDE43EFE9002D9E0A3E0FC8D828E83ECF07582032275820022C5
:20362C0000000000000000002A2B2800000000000000000000000000000000000000000001
:20364C002C9EB4A0A1A2A434A6A7A5AE362D3738271E1F20212223242526B333B62EB7B821
:20366C009F8485868788898A8B8C8D8E8F909192939495969798999A9B9C9D2F3130A3AD12
:20368C00350405060708090A0B0C0D0E0F101112131415161718191A1B1C1DAFB1B0B50077
:0237EF000000D8
:2036AC00120110010000000809125DC500010102030105010906A1018501050719E029E73B
:2036CC001500250195087501810295017508810395067508150026FF000507190029E7816E
:2036EC000005081901290515002501950575019102950175039103C005010902A10109016C
:20370C00A10085020509190129031500250195037501810295017505810305010930093148
:20372C0009381581257F750895038106C0C00600FF0901A10185030902150026FF007508EB
:20374C00951F910285040903951F8102C0050C0901A1018505150026FF0F19002AFF0F7534
:20376C001095018100C009022900010100806409040000020300000009211001000122B418
:20378C00000705810320000A0705010320000A040309041C03430048003500350078002069
:2037AC00006B006200640020006D006F007300260355006E006900760065007200730061E7
:2037CC00006C0020004D006100630072006F007000610064000E0344006500710069006E28
:0337EC0000670073
:0300B0007579005F
:202CF800AE71AF72C3EE9408EF9400920E40067C087D008004AC71AD727D00C3ED9C502CC0
:202D18008D027B00E578600A857682857783E0F98009857682857783E493F98A828B83E9FD
:202D3800F00576E4B5760205770D80CF8C037D00EEC39BFEEF9DFF8E718F728C8222AFDB8C
:202D58007D007E008E748E78BF08028003023259900007E0FC7F00900006E0FB7A004FF55E
:202D780071EA4CF5727F00900001E0F5738F79900000E0FC54607003022F33900000E0FC6A
:202D98005304607B00BC2005BB00028010BC4005BB00028003022F2E7FFF02325B9000047A
:202DB800E07006900005E060057FFF02325B7409B5733F900000E0FCBC2137900003E0FCEB
:202DD800BC022F900002E0FCBC030CAB71AC72BB2005BC00028012900002E0FCBC0113AB62
:202DF80071AC72BB020CBC000985717475750002325B740AB57355900000E0FCBC214DE545
:202E18007145727047900002E0601C900002E0FCBC01028012900002E0FCBC0202800890C8
:202E38000002E0FCBC05259002FBE0601F900002E0FC900003E0F57A8C82C007C006C0051A
:202E5800122BC9D005D006D00702325B7402B5735D900000E0FCBCA155900002E0601C90AC
:202E78000002E0FCBC01028012900002E0FCBC02028008900002E0FCBC0533900003E07010
:202E98002DAB71AC72BB0126BC00239002FBE0601D900002E0F582C006C005122C03AC8225
:202EB800D005D006900000ECF07F0102325B7401B5735E900000E0FCBCA156900003E0FC4B
:202ED800BC01028008900003E0FCBC02449002FBE0603E900002E0FC900003E0FBE4BB029A
:202EF8000104F57A757BDB757C028C82C007122C31AC82D0078C057E00ED4E600F7576DBC0
:202F180075770275780175730602325B7FFF02325B7FFF02325B7FFF02325BE57324F45059
:202F380003023255E573240B83F582E573241083F583E473A9275527552164552E4B97976C
:202F58003131323132302F3230303030900003E0FCBC01028017BC0202801FBC0302802785
:202F7800BC21028074BC2202807C02301C7576AC7577367D127E0002325B75767275773767
:202F98007D297E0002325B900002E0700875769B7577378035900002E0FCBC01087576E11F
:202FB8007577378025900002E0FCBC02087576BB7577378015900002E0FCBC030875769FE0
:202FD80075773780057FFF02325B857682857783E493FCFD7E0002325B7576847577377D9C
:202FF800097E0002325B900002E070137576BE75773690378BE493FDA3E493FE02325B7FF7
:20301800FF02325B7FFF02325B900002E0FC8C7175720002325B9002FBE0900000F0AB7113
:20303800AC72C3EB9401EC9400500302325B7F0102325B900000E07021900003E0701B9017
:203058000002E0FC24FE4012900004E0700C900005E07006E571457260057FFF02325B901C
:203078000002E09002FBF0C007C006C0051227D8122080D005D006D00775D21202325B90CA
:203098000004E07075900005E0706F900002E07069900003E070639002FBE0605D740AB50D
:2030B800730474018001E4FC602C900000E0FBBB8103D38001C3920F5013AA71AB72BA0167
:2030D80006BB0003D38001C3920F100F02D20FA20FE433FB8021900000E0FABA0103D3807B
:2030F80001C3920F500AE57145727004C20F8002D20FA20FE433FBEB60057FFF02325BEC38
:20311800700302325B900000E4F07F0102325B900000E0FCBC0218900002E0701290000359
:20313800E0700C900005E07006E571457260057FFF02325B900004E0FCBC812D7403B57338
:203158000B74FC55D24403F5D202325B74BC55D24402F5D2C007C006C0051227D81220809F
:20317800D005D006D00702325B900004E0FCBC011B747355D2FC7403B573067A0C7B0080AE
:20319800047A007B00EA4CF5D202325B7FFF02325B900004E0FD7E00900000E0FCBC824CA0
:2031B8008D038E04BB8117BC0014A9D2530103E4FAB90304BA000104F9FD7E008048BB018B
:2031D80017BC0014A9D253010CE4FAB90C04BA000104F9FD7E00802EED4E6006BB8009BCEC
:2031F80000067D007E00801E7FFF8057900000E0FCBC80028008900000E0FCBC8104ED4EA9
:2032180060047FFF803D900005E0700C900002E07006900003E060047FFF80278D04900001
:2032380000ECF0900001E4F0AB71AC72C3EB9402EC940040047F02800AAF7180067FFF8044
:20325800027FFFBFFF0280177406B57312C3ED9571EE957250048D718E72122CF8AF82BFA8
:20327800FF077573FF75DCCF22EF24F740168FDDE57460067E027F0080047E007F0074C0C8
:203298004EF5DC2275DD00E57460067E027F0080047E007F0074C04EF5DC227405B573022C
:2032B800800F7406B57318122CF88582DD63DC4022E5E35480FFE5714FF5E375DC022275F0
:2032D800DD0075DC022220DE01227409B5730280030233ACE57470030233ACE5DB24F75080
:2032F800030233ACAE757F00ACDB7D00EC2EFEED3FFFAC747D00C3EC9EED64808FF063F05C
:203318008095F050030233AC7F00C3EF95DB5019EF257524DBFDE43402FE8F82758300E0CC
:20333800FC8D828E83F00F80E1E5DB2575F575E574B575477420B5741C9002DBE0FFBF0384
:20335800149002DB122087E582600A74F355D24408F5D2801C7402B574139002DBE0FFBF50
:20337800010B9002DCE0F5821227D1800475DCCF2275740075DD0075DC482274F825DB40F2
:20339800077573FF75DC0F2263DC8074F055DC4402F5DC2275DD00E57460077573FF75DCCE
:2033B8000F2275DC022220D903023424E5D9540F6002802CAED95306307F00BE0005BF00B9
:2033D800028013BE2005BF00028010BE303CBF0039122D5680341232DE802F1232B3802A2F
:2033F800AED953060F7F00BE0120BF001DE5D95430600280051226F98010AED95306307F13
:2034180000BE2006BF00031226E8C2D930D81A1220801227D875DC0275D21275E300C2DAAE
:20343800C2D9C2D89002FBE4F010DA0122E5DA20E20375D8FF2275E20053E27F43E22975D1
:20345800E30053E2BF53D1FB75D18043D1012243E10443E10243E10143D81FD2EAD2AF2255
:1A3478007E007F008EEC8FED7E0A7F008EEE8FEF75D21275EAC075DC022259
:20349200ABF0A2AFE433FEC2AFE0A37A0833D2B44002C2B47905D9FEC2B4DAF1DBEBEE6088
:0434B20002D2AF2271
:2034B600AF82BF800040012275A15575A1AA43B10475A1007585C0EF2FF5849002FCE0F536
:2034D6008EE58630E60375869A75A15575A1AA53B1FB75A10022AF827585C0EF2FF58475D6
:0634F600868E858E822205
:06007800E478FFF6D8FD5C
:200056007902E94400601B7A019037EF78FD75A002E493F2A308B8000205A0D9F4DAF27529
:02007600A0FFE9
:2034FC00C0D075D00808B8000D09B900090ABA00050BBB00010CD0D032A2AFC2AFA808A9B2
:20351C0009AA0AAB0BAC0C92AF75F020E8A4A8F075F020E9A428F582A8F075F020EAA428F6
:20353C00F583A8F075F020EBA428F9A8F075F020ECA42889F022AE82AF83C374019EE49FFF
:20355C0040022200C374029EFE74009FFF00BE0005BF00020022000000000000000000005E
:20357C00000000000000000EBE00EB0FBF00ED002275A15575A1AA74F855B94406F5B97589
:20359C00A100901388123552759E5D759D0074F055894402F58953C9EF758C06C28DD2A946
:0535BC00D28CD2AF2209
:20007E007800E84400600A799475A000E4F309D8FC7869E84402600C7903900094E4F0A3EC
:04009E00D8FCD9FAB7
:0D00490075817F1235C2E58260030200461A
:0435C20075820022EC
:00000001FF
