:200096007E137F017D007C004305098E828F838DF0EC0234947F00BF0900500FEF2413F5D9
:2000B60082E43401F583E4F00F80EC020096E582FF7003F58222EFC4540FFF74014FF5826E
:2000D60022AF82789AE2FEBE030774015F04FF80028E078F8222201106789CE2700122120A
:2000F60018FA858226789CE26006789CE2FE80088526821211A8AE82EE0303543FFD5305CF
:2001160003EEC4540FF5277896E2F5288E82C006C0051200D7858229D005D006789BE2F53F
:200136002A7898E2F52B789CE2601874015E04F529300016900143E0C4540FFE74035EF521
:200156002B8007E5297003F528FD7403B52A03752A027B137E01E52B24D3F530E43435F5C7
:20017600317403B52B0474018001E4F532740FB52703D38001C39201EDB40100B39202E403
:20019600BD030104F533BD0303D38001C3920374015528F534E4F535BD020104FD752C0062
:2001B60074FD252C500302009685273685292D3001123000058533378006A202E433F537EB
:2001D600E5377004C2048002D204A204E433F52E20005BE528600EED6054E5344535604EA3
:2001F600752D008049E52A603CE52C2423FAE43401FC8A828C83E0602C852C51852682C0F6
:2002160006C005C0031211C7AC82D003D005D0068C36BC0F08900140E0FC20E708852A2D77
:20023600752E008009852736200303752D00E52D7007F52FFAFC0202EAE52E6065E52C90C8
:2002560035CD93FF853082853183E4938FF0A42525F537E532600FE52C9035D0932482F916
:20027600E7FF2537F53774AB2537400E7A00E53775F003A4F52FF4FC805A7456253740112A
:20029600E53724ABFF7C0075F003A4FAF4F52F8043E537FF245675F003A4FCF4FA752F00D2
:2002B6008032C005E53675F003A424F0FD743535F0FF8D828F83E493FC0DBD00010F8D822F
:2002D6008F83E493FA0DBD00010F8D828F83E493F52FD0057401B52D338C82C006C005C037
:2002F60003C0021200C4AC82D002D0038A82C004C0031200C4AA82852F82C0021200C48592
:20031600822FD002D003D004D005D0068B828E83EAF08B828E83A3ECF08B828E83A3A3E514
:200336002FF074032BFBE43EFE052C0201B6AF82E57D2FFFE57EFE2F2E2EFFC3EF957E4030
:2003560007EFC3957EFF80F38F8222AF82BF8000404EC200E538C454F0FE43060AEFC454D9
:2003760001B401009205E4334E789CF274EF5FFE247F789625E0F2BE8106789CE24404F2D2
:20039600BE8007789CE4F27896F2123517AB82E583FCC313CB13CB747D2B7897F20200EC9F
:2003B600E538FE30E304EE24F0FE74015FF539BF0B00406B789AE2FC789BE225E025E0FB94
:2003D6004204BF0C347B00EB9035EB93B5040280060BBB050040F08B02BB05087A00EE2000
:2003F600E7027A048E7D757E058A82C007C004120344858238D004D007E5389035EB93F54E
:2004160038BF0D07ECB5380375380FAC3874035C789AF2EC0303543FFC789BF2020517BF05
:20043600092BC007C0061218FA1211A81200D7AC82D006D007789BE2FBBB03027B02C3EC56
:200456009B50028B04789AECF2789BECF2BF0A097C007B0475380F80107C027B04BF08004C
:200476005007EFC313FCFA04FBBF0304C3E49EFEC3EC9B4003020517AA38E5396058EC24D9
:2004960098F9E3F53A7D04BC0200402C7403FDB53A26753A02BC0220C007C006C005C004CA
:2004B600C0031218FA1211A81200D785823AD003D004D005D006D0078E7D8D7E853A82C00A
:2004D60007C006C004C003120344AA82D003D004D006D0078021BA0F1E7A03EC700C9001DB
:2004F60043E0C4540FFD74035DFABC010A900143E0FD23235403FAEC2498F8EAF20C020434
:2005160086BF02028008BF03028003BF0A0E123517AC82AD83AEF0FF7881A6040200ECAF3D
:2005360082789CE230E1047896E4F2789CEFF2EFB401009206B39200EF701E20111B1200E3
:20055600AB90011474FFF0123517AC82AD83900139ECF0EDA3F00200960200ECAF82789C25
:20057600E220E13E8F82C0071211A8AE82D007EE0303543FFE5306037896E4F2BE0103040F
:200596008001E4FD7003BE0219ED60067D067E00800C0FEF3395E0FCEF2FFDEC33FE7896CF
:2005B600EDF2AE3BE53CC313CE13CE747D2E7897F20200ECAE82AF837896E26011EFC31321
:2005D600CE13CEFF7897D3E29EF4FE30E701227896E214F27897E2FF7897747D2FF27896B4
:2005F600E2700A789CE230E104789CE4F20200EC1218C7123517AC82AD83AEF0FFC005C0D7
:20061600041229F0D004D0055038C005C004123517AA82AB83AEF0FFD004D005EAC39CFA9A
:20063600EB9DFBC3EA9464EB94005016C005C004123517122A02123517121D7ED004D005BE
:2006560080BB7E137F017D00BD0300501F8E828F83E4F08E828F83A314F08E828F83A3A365
:20067600E4F074032EFEE43FFF0D80DC12009675E200C2AF75890090C35012355490C35013
:2006960012355412380080FEAF82BF030AA2B3B39207E433F58222BF050AA2B2B39207E441
:2006B60033FE8013EF9035C893FFE5905207EFB401009207E433FE8E8222A2B0E43325E092
:2006D600FFA2B1E4334FF58222AF82C00712069EAE82D007EF241CFCE43401FD8C828D839F
:2006F600E0FBEEB50302801C8C828D83EEF0EF75F002A4242AF582740135F0F583E53DF0E6
:20071600E53EA3F0EF2423FCE43401FD8C828D83E0FBEEB5030122EF75F002A4242AF58244
:20073600740135F0F583E0FAA3E0FBE53DC39AFAE53E9BFBC3EA940AEB9400405B8C828D07
:2007560083EEF030000E758200C007C006120535D006D00720110122EE6035BF031CC007EB
:200776001218FA1211A8E582D0079001385402F0900139E53DF0E53EA3F0C007121D78D057
:20079600074012853D67853E688F8212192980058F82121B320200EC221206D0AF82789407
:2007B600E2B507012230000A758200C007120535D0077894E225E025E04F9035DB93FE7857
:2007D60094EFF220110122EE70057895E4F2227895E22EF27895C3E26480948440127895B6
:2007F600E4F2121D784006758201121BD90200EC7895C3E2F5F0747C63F08095F04012788B
:2008160095E4F2121D784006758200121BD90200EC22789CE230E104789CE4F2123517AC5E
:2008360082AD83AEF0FF8C3F8D40EFC313CE13CD13F582121C3E900143E0C4540FFF740301
:200856005F7898F2900143E023235403FF7899EFF2789B7403F2789AF27F00EF24FC405041
:20087600EF241CFDE43401FEEF2423FBE43401FC8F82C007C006C005C004C00312069EAA8F
:2008960082D003D004D005D006D0078B828C83EAF08D828E83EAF0EF75F002A4242AF582E8
:2008B600740135F0F583E53FF0E540A3F00F80AB1206D0E5827894F220110B789CE2700516
:2008D600F582020535221218C77895E4F21218FAE5827880F6900138E4F07896F27881A6A4
:2008F6003FF5257F00BF03005009EF2482F876000F80F2900316E0600D853F3B85403C78FD
:200916008086820205720200EC1220C04390C24392C24393C243B00B740B459654EFF596F6
:2009360043971B1200AB12082812271675820312069EE582600302060622123517AC82AD7B
:2009560083AEF0FF8C028D038A828B83C007C006C005C004C003C002122A02D002D0038A21
:20097600828B83C003C0021224E7D002D003D004D005D006D007301114EFC313CE13CD1359
:20099600F582C003C002121D62D002D0037F00EF24FC40188A3D8B3E8F82C007C003C0023C
:2009B6001206DFD002D003D0070F80E3C003C0021207AFD002D0038A077881EFC396FE7802
:2009D6009CE2600B900143E023235403FD80047899E2FDED9035D793FDC3EE9D5003020A90
:2009F6007D789CE26013789CE2FE30E3068E057E00802D7D007E00802730111BC007C003A8
:200A1600C0021218FA1211A8AC82D002D003D0078C417542008005E4F541F542AD41AE422D
:200A36005305FC7E00C374F09D74808EF063F08095F050337881A60705257F037E00BE032C
:200A5600005019EF55257008EE2482F9E7FD04F78F05ED2DFD74014DFF0E80E2C003C00269
:200A76001200ECD002D003201130789CE2702A900139E0FEA3E0FFEAC39EFEEB9FFFC3EE1F
:200A960094F4EF94014012900139EAF0EBA3F0900114E064FFF0020096228A828B83C00351
:200AB600C002121D7E1218FEE582D002D0037015C003C0021218FAAF82D002D0037880E69B
:200AD600B507028054C003C0021218FAAF82D002D0037880E6B507028026789CE230E104A2
:200AF600789CE4F2C003C0021218FAE5827880F61206D0E582D002D0037894F27895E4F223
:200B1600789CE220E1138A3B8B3C78808682C003C002120572D002D0038A828B83C003C0D9
:200B3600021205CAD002D003900138E06021900126E0601B900139E0FEA3E0FFEAC39EFA6C
:100B5600EB9FFBC3EA94B8EB940B40030206062214
:2035C800028040201000010200020100152A6D04060A1200FF0100010000FFFF0000010019
:0835E80001FF000F0D050400B6
:200B6600AF827E007D00C3ED9F500EE57EC39DFC1C8E03EC2BFE0D80EDE57D2EC39F14F5A0
:200B86008222AE82AF837CFF7DFF7B00BB06028036BB07028031EB2EF582E43FF583E0FAE4
:200BA600E4F96204EA62057A088D01530180EC2CFCED33FDE9600E8C008D0163002163012D
:200BC6001088048905DAE20BBB800040BF8C828D8322E582FF7002D3221F1F1F1FEF249EAA
:200BE6004002D322EF249C24F49208B322AE82AF83E5432EF582E43FF583E0FD740F5DFCFF
:200C0600EDC4540FFDAA437B000ABA00010BEA2EF582EB3FF583E0FBEC24F05003020DF81F
:200C2600EC240A83F582EC241483F583E4738AD8D8F7F8FEFE217474C7E2BA4747540D0C98
:200C46000C0C0D0C0C0D0D0D0D0D0C0D0D0CBB80004013BB8005EDB401002274EF5B247FEB
:200C660024F79209B322EB24F25002C322BB0A05EDB4010022BB0D07ED14FABA040022BBB8
:200C86000B07ED24FB9209B322EB20E003BB0C0C8D015301077A00E94A24FF22BD0F02D383
:200CA60022BB04005007ED24FC9209B322ED24FD9209B322ED24FE9209400EEB24F9920960
:200CC600500BBBFA0092095004C2098002D209A20922E545600BBC0203D38001C3920940D2
:200CE600078B82120BD84004C2098002D209A209228B021ABA070022E545600BBC0503D3F6
:200D06008001C39209400BED70088B021ABA07004004C2098002D209A209228D017A005342
:200D260001FBE94A7012E5456003ED700BBB8003D38001C392095004C2098002D209A209F0
:200D460022E545B4010092098D02E433C364808AF063F08095F09209400BBB8003D380015A
:200D6600C392095004C2098002D209A20922E5456003BC0806ED7007EB7004C2098002D28D
:200D860009A20922ED7005EBB4010022BD0106C3EB95474002C322EB6022AA467C008B007A
:200DA6007900E82AFAE93CFC1ABAFF011CEA2EF582EC3FF583E06004C2098002D209A2094E
:200DC60022ED24FE9209400BC3EB95444009BBFF028004C2098002D209A20922ED700AC3C7
:200DE600EB95445004E5456004C2098002D209A20922C322AE82AF83754E007401B54802D4
:200E06008002C322E54824FE403D8E828F83E0FCBC4D348E828F83A3E0FCBC502A8E828FE8
:200E260083A3A3E0FCBC081F8E828F83A3A3A3A3A3E0FCFA5302017B00A8487900EAB50024
:200E460006EBB501028002C3228E828F83A3A3A3E0FBFA74075A04F549EBC423541FF853F5
:200E66000007790085494F8950C3E8954FE964808550F063F08095F0400122E54924F85080
:200E860002C322ECC313FC743F5CF54AEB23235403FB8E828F83A3A3A3A3E0F923540125B2
:200EA600E025E04203EB24FB5002C32253017FE54975F00FA42409FDE435F0F8E54A75F0E9
:200EC60003A47C002DFDEC38F8EB75F005A47A002DFDEA38F889027C00EA2DFDEC38FC8D24
:200EE600008C02C3748098E49A5002C322EDC399FD754B00C3E54B95495069E54B75F00F26
:200F0600A42409FA754D00A84D7C00C3E89406EC64809480504AE54D254D8A042CF543A8CC
:200F26004D7C00C3E89404EC64809480B3920AE433F5458549448D4689478E828F83C0077D
:200F4600C006C005C003C002C001120BF3D001D002D003D005D006D007400122054D80A7D6
:200F6600054B8090E54975F00FA4FC2409F54C754D00C3E54D954A4003021006E54C2EF516
:200F860082E43FF583E0F8C4540FFA5302077C00C3EA954FEC64808550F063F08095F0508F
:200FA60051880253020F7C00C3EA9403EC64809480503FE54D6006C3E54E985035E54CFCE1
:200FC60004F5438549447545008D4689478E828F83C007C006C005C004C003C001C00012D2
:200FE6000BF3D000D001D003D004D005D006D0074002C322884E74032CF54C054D020F7867
:201006007C00C3EC9B5073E54CFA04F5438549447545018D4689478E828F83C007C006C0FB
:2010260005C004C003C002C001120BF3D001D002D003D004D005D006D00740012274032ABB
:20104600F5438549447545018D4689478E828F83C007C006C005C004C003C002C001120B47
:20106600F3D001D002D003D004D005D006D0074001220C74052AF54C8088E960228D037CD9
:201086000089007A00E82BFBEA3CFC1BBBFF011CEB2EFBEC3FFC8B828C83E06002C3227532
:2010A6004D00C3E54D9940030211318D027B00854D4F8B50E54F2AF8E5503BFCE82EF8EC06
:2010C6003FFC88828C83E0605DE54F2AF8E5503BFCE82EF582EC3FF583E0FCBC09028046BE
:2010E600E54F2AF8E5503BFCE82EF582EC3FF583E0FCBC0A02802FE54F2AF8E5503BFCE8FB
:201106002EF582EC3FF583E0FCBC20004016E54F2AFAE5503BFBEA2EF582EB3FF583E0FCA3
:2011260024815002C322054D0210A88E828F83C007C006120B88AC82AD83D006D0077406E8
:201146002EF582E43FF583E0FB8C02B5021274072EF582E43FF583E0FF8D04B504028004AD
:20116600C20A8002D20AA20A2290013EE0FF74075F04F5822290013EE0C423541FFF7407C9
:201186005FF5822275820322900143E0FF740F5F75F005A4F58222E58275F00FA42409F558
:2011A6008222E58204F58212119DAF827E001FBFFF011EEF243BF582EE3401F583E0F58281
:2011C60022AF82C00712118AAE82C00612116FAD82D006D007C3EF9D5006C3E5519E40045E
:2011E600758206228F82C00612119DAF82D006E4FDFC74032EFEE43CFCEE2EFEEC33FCEE6D
:201206002FFFEC3DFDE551C3137C002FFFEC3DFDEF243BF582ED3401F583E0FFE55130E014
:2012260009EFC4540FFD7E0080087C00740F5FFD7E008D8222AF82C00712116FAE82D007EB
:20124600C3EF9E5025C00712118AAE82D0077D0074032EFEE43DFDAB527C00C3EB9EEC64F5
:20126600808DF063F08095F0400BE553F87600E554F87600228F8212119DAF82E5522552A9
:201286002FFEA953243BF582E43401F583E0F7A9547F000EBE00010FEE243BF582EF3401A1
:2012A600F583E0F722AF82C00712118AAE82900140E0C313FD743F5DF559C00612116F1296
:2012C600119DAC82D006D007E556B555028022C3E5559E501CC3E5569E5016C007C006C040
:2012E6000412116FAB82D004D006D007C3EF9B4002C322C3E55695555007AB558556558B36
:2013060056EFC454F0FF85567D8E7E855582C007C004120B66AE82D004D007EE4207755ACC
:2013260000C3E55A95595062EC243BF582E43401F583E0FBB50702801753038F7A008F058F
:2013460053050F7E00430580EBB50534EAB50630A9578C057E0074012DFAE43EFBEA243B1B
:20136600F582EB3401F583E0F7A95874022DFDE43EFEED243BF582EE3401F583E0F7D32296
:20138600055A8C0674032EFC8097C32290013EE023235403FF90013FE023540125E025E03C
:2013A6004FF5822212116F12119DAF82900140E0C313FE743F5E75F003A42FF58222AF8221
:2013C6009001BBE02FFEC39F401D90013FE0FF53077F7D008E047E00C3EC9FEE64808DF03D
:2013E60063F08095F0400475820022C006C0041213AAAF82D004D006C007C006C004121388
:2014060092AD82D004D006D007ED75F005A42FFD7F00EC2DFCEE3FFEEC243BF582EE3401B9
:06142600F583E0F58222CF
:2035F000FF0000FF1607FF1000FF4200FF7C003CFF0064C8141D7B4300FFC8005BFF00005E
:10361000FF7300B4FF00C2FF0048FFFFFF0000007F
:20142C00AF827408B55B02800FE57E30E02FAE5BC3EE648094814025E57E30E01078EDE2CE
:20144C00B4FF02801678EDE22401F2800E78ECE2B4FF02800678ECE22401F2C32278EAE242
:20146C0025E024DAF9EFF378EAE225E024DA04F9E57DF378EAE20478EA5407F2055BD3229D
:20148C007F007E00EE24B9F9E3FD42070EBE0D0040F27E00EE24ABF9E36014EE249DF9E335
:2014AC00FD53050FBD0508EE24A4F9E3FD42070EBE070040DFE562600578F2E242078F82D6
:2014CC0022AF82C00712148CAE82D007BF0D09E563FC3395E0FD80047C007D00BF0E09E537
:2014EC0063FD3395E0FF80047D007F008D1A8C19751B008E82022974E582FF7002D3227E83
:20150C0002EE24BCFCE43401FD8C828D83E0FBB50702D322EB70088C828D83EFF0D3220ECE
:20152C00BE080040DC227F007E00EE24BCF582E43401F583E4F00EBE080040EE7E00EE2462
:20154C00ABF9E3602FEE249DF9E3FD740F5DFCBC02229001BCE0FCEDC4540F42049001BC55
:20156C00ECF0EE24A4F9E3F582C007C006121504D006D0070EBE070040C478F37401F2E587
:20158C0062603378F0E2540FFEBE012A78F1E2F582C007121504D007920BE433FE78F3F21C
:2015AC00EE60139001BCE0FE78F0E2C4540FFD42069001BCEEF07E00EE24BCF582E43401D6
:2015CC00F583E0FDEE24C6F9E3FCEDB5040280027F010EBE080040E0EF60229001BC122963
:2015EC00024001227F00EF24C6F9EF24BCF582E43401F583E0FEF30FBF080040E912148CD0
:20160C00AF827885E6B507028019751900751A00751B008F82C007122974D007400122786D
:20162C0085A607788AE6602B788AE6C4540FFE7F00788B86047D00EC4FF582ED4EF58312EC
:20164C0029DF400122788A7600788CE6700578FB7401F2D322AF82AE5C74F725665004AE3A
:20166C005E801874FFB55F028011855F5C755FFFC007C0061217B2D006D007740F5FFDFC4B
:20168C0024F0500302177AEC240A83F582EC241483F583E473CD7A857A7A85177ADCDC4DDF
:2016AC0011237A7AC116171717171717171616171717171716EFC4540FF538856482020316
:2016CC0061EF70012285647D85657E8F8202142C788AA607E564788BF6EF30E00678FBE4AD
:2016EC00F2800A788CE6600578FB7401F2EF30E00BAD660DEDFC3395E0FD80047C007D0004
:20170C00788CA6042278EE7401F222E56624B9F9E3FDE5646DF322C007C00612116FAD82E4
:20172C00D006D007E5642EFE8D04ECC40354F8FC2EF564C3E5649D4008E564C39DF56480F5
:20174C00F274FFB56403855D6478EE7401F2EF30E405855C5F801374FFB55F04AE5C8002F7
:20176C00AE5FEEB5640280028E5D85645C2285647D85657E8F8202142C2278D5E27001226E
:20178C0078D5E2FF1F78D5E4F2EF24ABF87401F2EF249DF9E3F582EF24A4F9E3F5647565E7
:2017AC00008F66021661AF5C7E007D00ED24ABF9E3601EED249DF9E3FC53040FBC0B12EDE1
:2017CC0024B2F9E3FCC39E40088C06ED24A4F9E3FF0DBD070040D5EFB55E01228F5E7F000D
:2017EC00EF24B9F8E4F20FBF0D0040F4755B0078EAE4F278EBF2788CE67013788AE670050D
:20180C0078FBE26009788A760078FB7401F275600075610075620078F2E4F2121786021722
:20182C00B212117B85825C855C5D855C5E78EEE4F2755FFF78D5F278CEF278ECF278EDF239
:20184C007F00EF24CFF8E4F20FBF060040F478EAE4F278EBF2F55BF560F56178FBF2788A56
:20186C007600788C760078FEF2788D7600F56278F2F278857600122853E58278D9F27F00AD
:20188C00EF24ABF8E4F2EF24B2F8EFF2EF249DF8E4F2EF24A4F8E4F20FBF070040E27F0099
:2018AC00EF24B9F8E4F20FBF0D0040F47F00EF24C6F8E4F20FBF080040F42212285A121863
:2018CC002D78C674FFF2788576FF9000001229DFB3920C78FBA20CE433F2021532E5826085
:2018EC000678EDE2FF800478ECE2FF8F8222855E822278EEE2F58278EEE4F222E58224B2B3
:20190C00F9E3FF7E00EE24B2F8E2FDC3EF9D5003ED14F20EBE070040EC7406F32285826934
:20192C0012118A85826DC3E56D956940238569F005F07C017D008006EC2CFCED33FDD5F0BB
:20194C00F778CEE2FA7B005204EB5205EC4D600122AD698DF005F07401800225E0D5F0FB4F
:20196C00FC78CEE24CF2C3E569956DE433FC6009E56924CFF9E360012278D5E27003021A0C
:20198C0059EC700874FFB55F03021A5978D5E2FB14F56CEC7003021A4B78D7D3E29567F426
:2019AC00B3FAB308E29568F4FEC006C005C004C00212118EAB82D002D004D005D0067F0023
:2019CC00C3EA9BEE9F507875576A75586B856C5585695678D6E2F582C005C0041212ABD097
:2019EC0004D005505A78D5E4F2E56C24CFF9ED04F3E56924CFF9E56C04F3E56C249DF8E5A3
:201A0C006AF2E56C24A4F8E56BF2E569249DF8E4F2E56924A4F8E4F2E56924ABF8E4F2E57A
:201A2C006C24ABF87401F2856C82121908856B64756500856C66856A821216610217B2C050
:201A4C0005C0041217861217B2D004D00575536A75546B856952855E82C005C00412123B8B
:201A6C00E569249DF9E56AF3E56924A4F8E56BF2856982C001C000121908D000D001D00427
:201A8C00D005EC6057C005C001C00012118EE582D000D001D00560447F00C3EF956D503C8B
:201AAC0075576A75586B8569558F56855E82C007C005C001C0001212ABD000D001D005D0FD
:201ACC0007501678D5ED04F2E55E78D6F2AC67AE6878D7ECF2EE08F2220F80BEE56924AB10
:201AEC00C000F87401F2D000E3F582E2F5647565008569661216610217B2E582FF249DF9B4
:201B0C00E3FE53060FEF24ABF9E36019BE02028008BE05028003BE09067E027F0080047EFD
:201B2C00007F00EEF322AF82C00712118AAE82D007C3EE9F5001228F068EF005F0740180AB
:201B4C000225E0D5F0FBFE78FAF278CEE25E700122EEF4FE78CEE25EF28F057E000DBD0003
:201B6C00010E78D5E27C00B5050EECB5060AC0071217861217B2D0078F82C007121B0612E1
:201B8C00118AAE82D007C3EF9E503FEF24CFF9E3FF60371F8F82C007C001121B06D001D0D8
:201BAC00078FF005F07D017E008006ED2DFDEE33FED5F0F778CEE2FB7C005205EC5206ED03
:201BCC004E7007F3EF24CFF8E4F20217B2AF82C00712118AAE82D007EF60067C017D00804B
:201BEC00047C027D00EC2EFE78D5E2601574FFB55F02800EC007C0061217861217B2D0061A
:201C0C00D00775536E75546F8E52855E82C00712123BD007EF60067E077F0080047E087F4F
:201C2C00008E66856F64756501856E821216610217B2AF8278F9EFF27F00BF0400500FEF95
:201C4C0024F5F8E4F2EF2486F876000F80EC22AF82C0071213AAAE82D007C20D757000C0AB
:201C6C0007C006121392AC82D006D007C3E5709C4003021D5FE57024F5F9E3F5717B00EF6A
:201C8C00604BE5702486F98702EF2AFAF7C3EA9F4003021D54C003EE243BF582E43401F56B
:201CAC0083E0FA53023F78FAEAF2AC7153047FE4FDFBECB50206EDB503028004D0038009DA
:201CCC00D0037571807B01803805718034E57130E7137B03EE243BF582E43401F583E0FD31
:201CEC0030E602D20D53717FEE243BF582E43401F583E0FD30E70A757100E5702486F876F8
:201D0C0000E57024F5F8E571F2EB603CEE2BFB243BF582E43401F583E0FD7C000BBB0001E7
:201D2C000CEB243BF582EC3401F583E0F564AC7074092CF5667565008D82C007C00612163A
:201D4C00611217B2D006D00705708E0574052DFE021C6BA20D22AF8278F9D3E29FF4FE7828
:201D6C00F9EFF2EE60058E82021C5B22758200021C5B85827285837378D5E2602C78D7D33E
:201D8C00E29572F4B3FCB308E29573F4FDC005C00412118EAB82D004D0057A00C3EC9BED54
:201DAC009A40061217861217B2122853AD8278D9E2B50502802B122853E58278D9F278C6E2
:201DCC0074FFF2788576FF788CE66015788C86051DED249DF9788AE3F6ED24A4F9788BE3FF
:201DEC00F678FBE2600F9000001229DF500678FBE4F2800122121532400122E560701BE5C0
:201E0C005B70171229F0920E4010AD7278FED3E29DF4FDBD0800920E5004C20E8002D20EF6
:201E2C00A20EE433FD600578FEE572F27C00EC24ABF9E3FBBB0246EC249DF9E3FA53020FB6
:201E4C00BA0220EC24A4F9E3FA60187F02EF24C6F9E3FEB5020280060FBF080040EFBF0859
:201E6C0002806D8C070F788CE6B50709788C760078FB7401F2EC24ABF8E4F28053ED6050C9
:201E8C00EB604DEC249DF9E3FF24E3FE24FE4019740F5FF582EC24A4F9E3F563C005C004CC
:201EAC001214CDD004D0058027BF4724AE72788DEEC396FEBE64004017EC24A4F9E3F57DC4
:201ECC00757E008F82C005C00412142CD004D0050CBC07005003021E3A121532400122E551
:201EEC00607027E55B602378EBE225E024DAF9E3F5600978EFE3F278EBE2FF0478EB540758
:201F0C00F2155B75610078F4E4F2E560700122E560540FFFE561600302201DC0071229F0E2
:201F2C00D007500122BF075678EFE2FE7003F56022C00612148CAD82D006EE33E433FC60ED
:201F4C00067AFF7BFF80047A017B008A1B751900751A008D82C006C004122974D004D0064E
:201F6C00400122EC6005EE04FD8003EE14FD78EFEDF2ED600122788DA67275600022BF0D9A
:201F8C00028003BF0E1678EFE2F5638F821214CD40012278FEE572F275600022E56078F062
:201FAC00F278EFE2FE78F1F278F2E4F2EF703778F49001BBE2F08E821213C4E582FD700351
:201FCC00F560228D82122BBAE582FD30E7067B207C0080047B007C0078F074014BF278F1E2
:201FEC00747F5DF28007BF0304EE78F2F2756201121532500578F3E2700122AD72AE7374E2
:20200C00082DFDE43EFE78FCEDF2EE08F2756101227401B5612378FCD3E29572F408E295DD
:20202C0073F430E701221229F0500122756200121532400122756102227402B56140C00735
:20204C001229F0D007500122EF700A78F4E22401F275610022BF0322E56054F0601CE5600B
:20206C0024F0F560AE72AF7374C82EFEE43FFF78FCEEF2EF08F27561032275600022740379
:20208C00B5613078FCD3E29572F4B3FEB308E29573F4FF20E71D7562011215325015AE72A7
:1420AC00AF7374082EFEE43FFF78FCEEF2EF08F275610122FE
:2020C0007F00EF243BFDE43401FE8F82C007C006C0051225C8AC82D005D006D0078D828E70
:2020E00083ECF00FBF800040D975480190013B120DFA92109211900284E4F0900285F0C27F
:202100000F22D20F22AE82AF83900284E07003300F02C3227D00ED24C4FBE43401FCED2E1D
:20212000F582E43FF583E08B828C83F00DBD200040E49002847401F0D3229001C8E0FF905B
:2021400001CAE0F5109001CBE0F5119001C4E0FCBC03169001C5E0FCBC550E9001C6E0FC03
:20216000BC4D069001CCE06004758204229001C7E0FCBC0102800475820122E51124E850AF
:202180000475820322BF05028003BF0606AB117C0080047B007C0074092BFCBC2000501672
:2021A000EC24C4FAE43401FB8A828B83E06004758204220C80E5E4BF030104FC7008BF046F
:2021C000028003BF061EE5116016AA117B00A8107900EA28F8EB39F9C3748098E499503150
:2021E00075820322E5106003BF0922BF05117403B51103D38001C3B39212E433FB800BE57C
:2022000011B40100B39212E433FBEB600475820322EF24F650030224DFEF240A83F582EFBD
:20222000240E83F583E473DF3B69C6C62B5E1FD8B9242222222223232424249001EB740E76
:20224000F07F008F0374092BFB3395E0FAEB24E4FBEA3401FAEF90362093F98B828A83F0C6
:202260000FBF0E0040DD0224E39001EB7406F0A210E4339001EDF03011091218FAAB827F25
:202280000080047B007F009001EEEBF030110912117BAB827F0080047B007F009001EFEBE9
:2022A000F0900285E09001F0F07582001218E9AF829001F1EFF07582011218E9AF8290015D
:2022C000F2EFF00224E39001EBE511F0751200C3E512951140030224E3AB1274092BFB33FC
:2022E00095E0FAEB24E4FBEA3401FAEC6019E5122510F582C004C003C0021225C8A982D01D
:2023000002D003D004801AA8107F00AD127E00ED28F8EE3FFFE8243BF582EF3401F583E093
:20232000F98B828A83E9F0051280A49001CDE0FFBF80028004758203229001CEE0FF900189
:20234000CFE0FD7E007C00900287EE4FF0ED4CA3F0900286E4F090028504F00224E3900233
:2023600085E0FFBF0102800475820522900286E0FFB510028063AD117E00AB107C00ED2B69
:20238000FBEE3CFC7E00C3EF9BEE9C500475820A227F00C3EF951140030224E3AD107E00F2
:2023A0008F037C00EB2DFDEC3EFEED2404F582EE3402F583E0FE8F0574092DFD3395E0FCED
:2023C000ED24C4F582EC3401F583E0FDEEB50502800475820A220F80BA7F00C3EF9511507A
:2023E00034AD107E008F037C00EB2DFDEC3EFEED2404FDEE3402FE8F0474092CFC3395E00F
:20240000FBEC24C4F582EB3401F583E0FC8D828E83F00F80C6900286E02511F00224E390E6
:202420000285E0FFBF02030224E3BF010A900286E0FFBF8002800475820522900204120B12
:2024400088AE82AF83900287E0FCA3E0FDEEB5041AEFB5051690020AE0FD8E04B5040C903D
:20246000020BE0FD8F06B50602800475820722754801900204120DFA40047582062290021A
:202480000412263692104004758209227F00EF243BFDE43401FEEF2404F582E43402F583C1
:2024A000E08D828E83F00FBF800040E2D2111208289002857402F0802AE5106013AE1053F7
:2024C00006067F00BE0405BF0002800475820322851082120535800B900285E4F080047577
:2024E00082022275820022AE82AF83300F11900285E4F0900284F0120828C20F0227D890D6
:202500000285E0601D900289E0FCA3E0FDEEC39CFCEF9DFDC3EC9488ED94134005900285D3
:20252000E4F0900284E0700122900284E0FDBD010280030225B47D00ED24E4F582E434012B
:20254000F583E4F00DBD200040EE9001E47404F09001E57455F09001E6744DF09001E774F7
:2025600001F07D04ED24E4FBE43401FCED24C4F582E43401F583E08B828C83F00DBD07004A
:2025800040E2C007C00612213AAD82D006D0079001ECEDF0ED70179001C8E0FDBD0500403D
:2025A0000DED24F74008900289EEF0EFA3F09002847402F0200F109001E412276B50089087
:0825C0000284E4F00227D82296
:0E362000554D41430108010303078003EFFFEE
:2025C8000234EEAF82C0071225C8AE82D007EEB513028019A2AF9213C2AF900317E513F087
:2025E8008F82C0071234B8D007A21392AF8F821225C8E582B51302D322C322AE82AF837D36
:20260800008D82C007C006C0051225C8AC82D005D006D007ED2EF582E43FF583E0FBECB5F9
:2026280003028002C3220DBD800040D5D322AE82AF83C007C006122603D006D0075002D3D6
:2026480022751300758200C007C0061225CBD006D0075013751300758201C007C0061225EE
:20266800CBD006D0074002C3227D02ED2EF582E43FF583E0F5138D82C007C006C005122587
:20268800CBD005D006D0074001220DBD800040DB751350758201C007C0061225CBD006D018
:1F26A80007501375134D758200C007C0061225CBD006D0074002C3228E828F830226032D
:04000000020049327F
:03000B000234FEBE
:0100130032BA
:01001B0032B2
:0100230032AA
:01002B0032A2
:01003300329A
:01003B003292
:030043000226C8CA
:0E0080007808E4F608F608F608F6780C760024
:0300920002004623
:0300460002270787
:2026C800C024C0E0C0F0C082C083C007C006C005C004C003C002C001C000C0D075D0001236
:2026E80033C0D0D0D000D001D002D003D004D005D006D007D083D082D0F0D0E0D024321256
:0E270800358F12091F12095080FB75820022C6
:2027160012345012347A12346975DD0075D3002275D30074FC55D24402F5D2C2142230DEF0
:20273600337402B5DB1190000AE0FFBF010990000BE090028BF0227420B5DB1890000AE097
:20275600FFBF031090000A122105500874F355D24408F5D222D310AF01C3C0D0AE82AF835D
:20277600D215900316E060192014169002DEE0600330160DACD25304037D00BC0306BD0033
:2027960003C380377D008D037C0074402BFBE43CFCEB240AFBEC3400FCED2EF582E43FF54D
:2027B60083E0FA8B828C83F00DBD200040D8C215C21675D320D21453D2FCD333D0D092AF93
:2027D6001322D310AF01C3C0D0AED253060C7F00BE0C05BF0002800353D2F3D0D092AF2236
:2027F600E58290028BF0229002E0E4F09002E1F09002E2F09002E3F09002E4F09002E9F0EA
:20281600A3F09002E7F0A3F09002E5F0A3F07F00EF24EBF582E43402F583E4F00FBF0800E9
:2028360040EE9002F3E4F09002F4F0A3F0C2149002DFE02401F0C215C21602285A9002DF12
:20285600E0F58222D310AF01C3C0D09002DEE4F09002DCF09002DDF0D0D092AF22AF82903E
:2028760002DCE024D4F582E43402F583EFF09002DCE0FF0F74075FF09002DEE02401F0D346
:20289600228582148583159002DEE0FDBD08028006900316E07002C3229002DCE075F00992
:2028B600A4248CFC740235F0FD8C828D837401F00CBC00010D7B00EB2514F9E43515FA8978
:2028D600828A83E08C828D83F0A3AC82AD83EB24EBF8E43402FF89828A83E088828F83F055
:2028F6000BBB080040D1758209022873D310AF01C3C0D012289733D0D092AF1322AF829085
:2029160002DEE0FEBE08028006900316E07002C3229002F3EFF09002DCE075F009A4248C41
:20293600FD740235F0FE8D828E837402F00DBD00010E8D828E83EFF00DBD00010E8D828E17
:2029560083E516F00DBD00010E8D828E83E517F08D828E83A3E518F0758205022873D310E2
:20297600AF01C3C0D0851916851A17851B1812291333D0D092AF1322AE82AF839002DEE0D3
:20299600FDBD08028006900316E07002C3229002F4EEF0EFA3F09002DCE075F009A4248C01
:2029B600FC740235F0FD8C828D837405F00CBC00010D8E038C828D83EBF08C828D83A38F36
:2029D60006EEF0758203022873D310AF01C3C0D012298E33D0D092AF13229002DEE07007A7
:2029F600201404C2178002D217A21722D310AF01C3C0D0AE82AF839002DEE06003022AF74C
:202A16009002E4E0FD0D751C00BD01079002E0E0FB8011BD02079002E2E0FA80059002E3FE
:202A3600E0FA8A03BD010A9002E5E0F9A3E0FA8019BD020A9002E7E0F8A3E0FC8008900238
:202A5600E9E0F8A3E0FC88018C028904EB7003022AE4EEC39CFCEF9AFA8B017B00E929F930
:202A7600EB33FBE929F9EB33FBC3EC99EA9B405EBD03067B007C0080048D037C009002E4D5
:202A9600EBF0BD01109002EBC007C006122897D006D007804CBD021D9002F3E0FC7516005B
:202AB6007517007518008C82C007C006122913D006D007802C9002F4E0FBA3E0FC8B828C2C
:202AD60083C007C00612298ED006D00780130DED24FC50027D01051C74FD251C4003022A9B
:202AF6001F900316E0601C2014199002DEE0601330150320160DACD25304037D00BC0306E7
:202B1600BD0003022BB59002DDE0FD75F009A4248CFB740235F0FC8B828C83E0F51DED243E
:202B3600D4F582E43402F583E0F51E7900C3E9951E502789007A00744028F8E43AFAE82465
:202B56000AF8EA3400FA8B828C83E0FDA3AB82AC8388828A83EDF00980D37401B51D0A901C
:202B760002E5EEF0EFA3F0801C7402B51D0A9002E7EEF0EFA3F0800D7405B51D089002E9D6
:202B9600EEF0EFA3F0D216851ED39002DDE0FF0F74075FF09002DEE014F0D21453D2FCD00F
:202BB600D092AF22AF82BF8000400475820022EF90362E93F58222E582FF7017AE7D900246
:202BD600E1EEF09002E3EEF09002E2EEF09002E0EEF022BF01079002E0E57DF022BF020794
:202BF6009002E2E57DF022BF05069002E3E57DF022E582FF70079002E1E0F58222BF010794
:202C16009002E0E0F58222BF02079002E2E0F58222BF05079002E3E0F5822275820022AF7D
:202C360082AD7EAE7F8D828E83EFF0BF0143E57D601474012DFBE43EFC90028BE08B828C7B
:202C560083F0758202227C008C027B000ABA00010BEA2DFAEB3EFBEC24EBF582E43402F5C5
:202C760083E08A828B83F00CBC080040DB75820922E57D7039BF023674012DFBE43EFC9077
:202C960002F3E08B828C83F074022DFBE43EFC74032DF9E43EFA8D828E83A3A3A3A3E4F048
:202CB60089828A83F08B828C83F075820522E57D702FBF052C74012DFCE43EFF9002F4E0B6
:202CD600FAA3E08C828F83EAF074022DFDE43EFE9002F4E0A3E0FC8D828E83ECF0758203CC
:052CF60022758200229E
:20362E0000000000000000002A2B28000000000000000000000000000000000000000000FF
:20364E002C9EB4A0A1A2A434A6A7A5AE362D3738271E1F20212223242526B333B62EB7B81F
:20366E009F8485868788898A8B8C8D8E8F909192939495969798999A9B9C9D2F3130A3AD10
:20368E00350405060708090A0B0C0D0E0F101112131415161718191A1B1C1DAFB1B0B50075
:2036AE00120110010000000809125DC500010102030105010906A1018501050719E029E739
:2036CE001500250195087501810295017508810395067508150026FF000507190029E7816C
:2036EE000005081901290515002501950575019102950175039103C005010902A10109016A
:20370E00A10085020509190129031500250195037501810295017505810305010930093146
:20372E0009381581257F750895038106C0C00600FF0901A10185030902150026FF007508E9
:20374E00951F910285040903951F8102C0050C0901A1018505150026FF0F19002AFF0F7532
:20376E001095018100C009022900010100806409040000020300000009211001000122B416
:20378E00000705810320000A0705010320000A040309041C03430048003500350078002067
:2037AE00006B006200640020006D006F007300260355006E006900760065007200730061E5
:2037CE00006C0020004D006100630072006F007000610064000E0344006500710069006E26
:0337EE0000670071
:03008E00757C007E
:202CFC00AE74AF75C3EE9408EF9400921840067C087D008004AC74AD757D00C3ED9C502CA6
:202D1C008D027B00E57B600A857982857A83E0F98009857982857A83E493F98A828B83E9EA
:202D3C00F00579E4B57902057A0D80CF8C037D00EEC39BFEEF9DFF8E748F758C8222AFDB79
:202D5C007D007E008E778E7BBF0802800302325D900007E0FC7F00900006E0FB7A004FF550
:202D7C0074EA4CF5757F00900001E0F5768F7C900000E0FC54607003022F37900000E0FC56
:202D9C005304607B00BC2005BB00028010BC4005BB00028003022F327FFF02325F9000046E
:202DBC00E07006900005E060057FFF02325F7409B5763F900000E0FCBC2137900003E0FCE0
:202DDC00BC022F900002E0FCBC030CAB74AC75BB2005BC00028012900002E0FCBC0113AB58
:202DFC0074AC75BB020CBC000985747775780002325F740AB57655900000E0FCBC214DE52B
:202E1C007445757047900002E0601C900002E0FCBC01028012900002E0FCBC0202800890BE
:202E3C000002E0FCBC0525900316E0601F900002E0FC900003E0F57D8C82C007C006C005F7
:202E5C00122BCDD005D006D00702325F7402B5765D900000E0FCBCA155900002E0601C909D
:202E7C000002E0FCBC01028012900002E0FCBC02028008900002E0FCBC0533900003E0700C
:202E9C002DAB74AC75BB0126BC0023900316E0601D900002E0F582C006C005122C07AC82FB
:202EBC00D005D006900000ECF07F0102325F7401B5765E900000E0FCBCA156900003E0FC40
:202EDC00BC01028008900003E0FCBC0244900316E0603E900002E0FC900003E0FBE4BB027A
:202EFC000104F57D757EF6757F028C82C007122C35AC82D0078C057E00ED4E600F7579F676
:202F1C00757A02757B0175760602325F7FFF02325F7FFF02325F7FFF02325FE57624F45039
:202F3C0003023259E576240B83F582E576241083F583E473AD2B592B59256859324F9B9B2E
:202F5C003131323132302F3230303030900003E0FCBC01028017BC0202801FBC0302802781
:202F7C00BC21028074BC2202807C0230207579AE757A367D127E0002325F757974757A374B
:202F9C007D297E0002325F900002E0700875799D757A378035900002E0FCBC01087579E30A
:202FBC00757A378025900002E0FCBC02087579BD757A378015900002E0FCBC03087579A1CC
:202FDC00757A3780057FFF02325F857982857A83E493FCFD7E0002325F757986757A377D7F
:202FFC00097E0002325F900002E070137579C0757A3690378DE493FDA3E493FE02325F7FE1
:20301C00FF02325F7FFF02325F900002E0FC8C7475750002325F900316E0900000F0AB74DE
:20303C00AC75C3EB9401EC9400500302325F7F0102325F900000E07021900003E0701B9008
:20305C000002E0FC24FE4012900004E0700C900005E07006E574457560057FFF02325F900E
:20307C000002E0900316F0C007C006C0051227FD122102D005D006D00775D21202325F90FE
:20309C000004E07075900005E0706F900002E07069900003E07063900316E0605D740AB5ED
:2030BC00760474018001E4FC602C900000E0FBBB8103D38001C392195013AA74AB75BA0150
:2030DC0006BB0003D38001C39219101902D219A219E433FB8021900000E0FABA0103D3804F
:2030FC0001C39219500AE57445757004C2198002D219A219E433FBEB60057FFF02325FEC02
:20311C00700302325F900000E4F07F0102325F900000E0FCBC0218900002E070129000034D
:20313C00E0700C900005E07006E574457560057FFF02325F900004E0FCBC812D7403B57627
:20315C000B74FC55D24403F5D202325F74BC55D24402F5D2C007C006C0051227FD122102EF
:20317C00D005D006D00702325F900004E0FCBC011B747355D2FC7403B576067A0C7B0080A3
:20319C00047A007B00EA4CF5D202325F7FFF02325F900004E0FD7E00900000E0FCBC824C94
:2031BC008D038E04BB8117BC0014A9D2530103E4FAB90304BA000104F9FD7E008048BB0187
:2031DC0017BC0014A9D253010CE4FAB90C04BA000104F9FD7E00802EED4E6006BB8009BCE8
:2031FC0000067D007E00801E7FFF8057900000E0FCBC80028008900000E0FCBC8104ED4EA5
:20321C0060047FFF803D900005E0700C900002E07006900003E060047FFF80278D049000FD
:20323C0000ECF0900001E4F0AB74AC75C3EB9402EC940040047F02800AAF7480067FFF8037
:20325C00027FFFBFFF0280177406B57612C3ED9574EE957550048D748E75122CFCAF82BF91
:20327C00FF077576FF75DCCF22EF24F740168FDDE57760067E027F0080047E007F0074C0BE
:20329C004EF5DC2275DD00E57760067E027F0080047E007F0074C04EF5DC227405B5760222
:2032BC00800F7406B57618122CFC8582DD63DC4022E5E35480FFE5744FF5E375DC022275E2
:2032DC00DD0075DC022220DE01227409B5760280030233AEE57770030233AEE5DB24F75072
:2032FC00030233AEAE787F00ACDB7D00EC2EFEED3FFFAC777D00C3EC9EED64808FF063F050
:20331C008095F050030233AE7F00C3EF95DB5019EF257824F6FDE43402FE8F82758300E0A8
:20333C00FC8D828E83F00F80E1E5DB2578F578E577B578457420B5771A9002F6E0FFBF035A
:20335C00129002F6122105500A74F355D24408F5D2801C7402B577139002F6E0FFBF010B01
:20337C009002F7E0F5821227F6800475DCCF2275770075DD0075DC482274F825DB4007753B
:20339C0076FF75DC0F2263DC8074F055DC4402F5DC2275DD00E57760077576FF75DC0F220C
:2033BC0075DC022220D903023426E5D9540F6002802CAED95306307F00BE0005BF00028062
:2033DC0013BE2005BF00028010BE303CBF0039122D5A80341232E2802F1232B7802AAED91A
:2033FC0053060F7F00BE0120BF001DE5D95430600280051227348010AED95306307F00BE9C
:20341C002006BF0003122726C2D930D81A1221021227FD75DC0275D21275E300C2DAC2D9E6
:20343C00C2D8900316E4F010DA0122E5DA20E20375D8FF2275E20053E27F43E22975E30069
:20345C0053E2BF53D1FB75D18043D1012243E10443E10243E10143D81FD2EAD2AF227E00B6
:18347C007F008EEC8FED7E0A7F008EEE8FEF75D21275EAC075DC0222D5
:20349400ABF0A2AFE433FEC2AFE0A37A0833D2B44002C2B47905D9FEC2B4DAF1DBEBEE6086
:0434B40002D2AF226F
:2034B800AF82BF800040012275A15575A1AA43B10475A1007585C0EF2FF584900317E0F518
:2034D8008EE58630E60375869A75A15575A1AA53B1FB75A10022AF827585C0EF2FF58475D4
:0634F800868E858E822203
:06005600E478FFF6D8FD7E
:2034FE00C0D075D00808B8000D09B900090ABA00050BBB00010CD0D032A2AFC2AFA808A9B0
:20351E0009AA0AAB0BAC0C92AF75F020E8A4A8F075F020E9A428F582A8F075F020EAA428F4
:20353E00F583A8F075F020EBA428F9A8F075F020ECA42889F022AE82AF83C374019EE49FFD
:20355E0040022200C374029EFE74009FFF00BE0005BF00020022000000000000000000005C
:20357E00000000000000000EBE00EB0FBF00ED002275A15575A1AA74F855B94406F5B97587
:20359E00A100901388123554759E5D759D0074F055894402F58953C9EF758C06C28DD2A942
:0535BE00D28CD2AF2207
:20005C00786BE84400600A799475A000E4F309D8FC7805E84402600C7903900113E4F0A387
:04007C00D8FCD9FAD9
:0D00490075818D1235C4E58260030200460A
:0435C40075820022EA
:00000001FF
