:2000B8007E947F007D007C004305128E828F838DF0EC0233E47F00BF1200500FEF2494F555
:2000D80082E43400F583E4F00F80EC0200B8E582FFC4540FFEEFB40100B39200E4334EF51F
:2000F800822290026FE070079000CAE07001221216138582109000CAE0FEE0700885108226
:20011800120EC9AE82EE0303543FFD530503EEC4540FF5119000C6E0F512740FB5111B9083
:2001380000CAE06008E4BD030104FA800AEDB40100B39201E433FAEA7004C2018002D201F9
:20015800A201E433F51378947900E4BD030104F51674015512F517E4F518BD020104FD747E
:20017800015EF519751A007E00BE060040030200B885111B751400EE90355B93FB9000D5F1
:20019800E0C4540FFA5302037F00EA2461F582EF3435F583E4938BF0A4FB9000C9E02BFFC5
:2001B8009000CAE060057514018061E5126014751401ED6057E51745186051751B0F751452
:2001D800008049EE24ADFAE43400FB8A828B83E0602B8E38851082C007C006C005C001C03D
:2001F80000120EE8AB82D000D001D005D006D0078B1BBB0F179000D2E0FB30E70F85111BF4
:20021800E51660057514018003751B0FE5146056E5136052BF550050168F037455C39B75B9
:20023800F003A4FB751500EF75F003A4FA8065BFAA00501A8F04EC24ABFC7B0075F003A40C
:20025800F5157455C39CFC75F003A4FA8046EF2456FF75F003A4FB7455C39FFF75F003A4E7
:20027800F5157A00802EE51B75F003A42479FC743535F0FF8C828F83E493FB0CBC00010F58
:200298008C828F83E493F5150CBC00010F8C828F83E493FAE5146049E519451A70438B827D
:2002B800C006C005C002C001C0001200E6AB82D000D001D002851582C003C002C001C0009E
:2002D8001200E6858215D000D001D0028A82C001C0001200E6AA82D000D001D003D005D0B5
:2002F8000688828983E515F088828983A3EBF088828983A3A3EAF0740328F8E439F90E0259
:200318000181AF829000CAEFF0EF702190026FE0701B1200CD90009574FFF0123467AC82AB
:20033800AD839000CBECF0EDA3F00200B80200FAAF82C007120EC9AE82D007EE0303543F99
:20035800FE5306039000C6E4F0BE0103048001E4FD7003BE022CED60067D067E00800C0F8B
:20037800EF3395E0FCEF2FFDEC33FE9000C6EDF0AE1CE51DC313CE13CEFF747D2EFE90006A
:20039800C7F00200FAAE82AF839000C6E0FDE06012EFC313CE13CE9000C7E0FFEEC39FFEB3
:2003B80030E70122ED149000C6F09000C7747D2FF00200FA1215DE123467AC82AD83AEF093
:2003D800FFC005C004122896E582D004D0056038C005C004123467AA82AB83AEF0FFD00404
:2003F800D005EAC39CFAEB9DFBC3EA9464EB94005016C005C0041234671228AF12346712E2
:200418001A1DD004D00580B97E947F007D00BD0600501F8E828F83E4F08E828F83A314F0AC
:200438008E828F83A3A3E4F074032EFEE43FFF0D80DC1200B875E200C2AF75890090C35007
:200458001234A490C3501234A412380080FEAF82BF060AA2B3B39202E433F58222BF050A2B
:20047800A2B2B39202E433FE8013EF90355693FFE5905207EFB401009202E433FE8E822238
:20049800A2B0E43325E0FFA2B1E4334FF58222AF82C007120466AE82D007EF24A6FCE4343D
:2004B80000FD8C828D83E0FBEEB50302801C8C828D83EEF0EF75F002A424B4F582740035FC
:2004D800F0F583E51EF0E51FA3F0EF24ADFCE43400FD8C828D83E0FBEEB5030122EF75F02B
:2004F80002A424B4F582740035F0F583E0FAA3E0FBE51EC39AFAE51F9BFBC3EA940AEB94C8
:200518000040658C828D83EEF09000CAE0600E758200C007C00612031AD006D00790026F19
:20053800E0700122EE6030BF061CC007121613120EC9E582D0079000C55402F09000CBE5CD
:200558001EF0E51FA3F0851E51851F528F82C007121657D00780098F82C007121902D00761
:20057800BF060050030200FA22120498AF829000C2E0FEEFB50601229000CAE0600A7582B6
:2005980000C00712031AD0079000C2E025E025E04F90356993FE9000C2EFF090026FE070AA
:2005B8000122EE70069000C3E4F0229000C3E02EF0E0FFC364809484400B9000C3E4F0757D
:2005D80082010219B7C3747C8FF063F08095F0400B9000C3E4F07582000219B7221234671A
:2005F800AC82AD83AEF07F00EF24F94056EF24A6FBE43400FEEF24ADF9E43400FA8F82C060
:2006180007C006C005C004C003C002C001120466A882D001D002D003D004D005D006D007B4
:2006380089828A83E8F08B828E83E8F0EF75F002A424B4F582740035F0F583ECF0EDA3F006
:200658000F80A5C005C004120498E582D004D0059000C2F090026FE0700C9000CAE07005B9
:20067800F58202031A22C005C0041215DE9000C3E4F0121613E582D004D0059000C4F090D6
:2006980000C5E4F09000C6F09000C8ECF09000C9E4F00200FA121E624390F24392F2439312
:2006B800F243B00F740F459654EFF59643971F1200CD1205F512252A758206120466E582DD
:2006D80060030203CC22123467AC82AD83C005C0041228AFD004D0058C828D83C005C004DF
:2006F8001222DCD004D0057F00EF24F940188C1E8D1F8F82C007C005C0041204A7D004D02E
:2007180005D0070F80E3C005C004120581D004D0058C079000C8E0FEEFC39EFE9000D5E04D
:200738002323540390356593FBC3EE9B406A9000CAE0FE6010EE30E3068E037E00802E7B6F
:20075800007E00802890026FE0601AC007C005C004121613120EC9AA82D004D005D0078A56
:20077800017A00800479007A0089038A065303FC7E00C374F09B74808EF063F08095F050A7
:20079800179000C8EFF09000C9E02401F0C005C0041200FAD004D00590026FE07031900055
:2007B800CAE0702A9000CBE0FEA3E0FFECC39EFEED9FFFC3EE94F4EF940140129000CBECF6
:2007D800F0EDA3F0900095E064FFF00200B8228C828D83C005C004121A1D121617E582D0F7
:2007F80004D0057017C005C004121613AF82D004D0059000C4E0FEB50702804CC005C0049E
:20081800121613AF82D004D0059000C4E0FEB50702801FC005C004121613E5829000C4F0AD
:20083800120498E582D004D0059000C2F09000C3E4F09000C4E0FF8C1C8D1D8F82C005C05E
:2008580004120348D004D0058C828D83C005C00412039DD004D0059000C5E060219000B37B
:1F087800E0601B9000CBE0FEA3E0FFECC39EFCED9FFDC3EC94B8ED940B40030203CC22BC
:20355600028040201000010205040300152A5504060A1200FF0100010000FFFF000001009A
:0335760001FF0052
:20089800AF82BF01067E0F7F0080047E167F008E8222AF82BF01067E037F0080047E067FF6
:2008B800008E8222AF827E007D00C3ED9F500EE56EC39DFC1C8E03EC2BFE0D80EDE56D2EAA
:2008D800C39F14F58222AE82AF837CFF7DFF7B00BB06028036BB07028031EB2EF582E43F7C
:2008F800F583E0FAE4F96204EA62057A08ED30E70EEC2CF8ED33F96300216301108006ECD3
:200918002CF8ED33F988048905DAE20BBB800040BF8C828D8322E582FF6020BF04009203E9
:200938004007EF249A92035012BF680092034007EF248C92035004C2038002D203A203E484
:2009580033F58222858228858329E5232528F582E43529F583E0FD740F5DFCEDC4540FFD03
:20097800AA237B000ABA00010BEA2528F582EB3529F583E0FBEC24F05003020B12EC240A71
:2009980083F582EC241483F583E473C3F8F81D1D1D1D467E91DEF812D64D4D0909090A0ACC
:2009B8000A0A0A0A0A0A0A0B090A0AED7003EB6004C2048002D204A204E433F58222ED247D
:2009D800FE9204400EEB24F99204500BBBFA0092045004C2048002D204A204E433F5822211
:2009F800E525600BBC0203D38001C3920440098B8212092EE5827004C2048002D204A204BE
:200A1800E433F58222E525600BBC0503D38001C39204400DED700AEB6007EB24F892045035
:200A380004C2048002D204A204E433F58222ED600475820022E525B4010092048D04E433BF
:200A5800C364808CF063F08095F09204400BBB8003D38001C392045004C2048002D204A223
:200A780004E433F58222ED7007EB7004C2048002D204A204E433F58222ED7006C3EB9527A6
:200A98004004758200227C007A00C3EA9527502EEAB50307EC600475820122A82679008A20
:200AB800067F00EE28F8EF39F9E82528F582E93529F583E0FFE4BF000104FC0A80CCE4BB87
:200AD800000104F58222ED24FE92044006C3EB95244004C2048002D204A204E433F5822256
:200AF800ED700AC3EB95245004E5256004C2048002D204A204E433F5822275820022AE8291
:200B1800AF83753300E52A24FE403E8E828F83E0FCBC4D358E828F83A3E0FCBC502B8E8210
:200B38008F83A3A3E0FCBC052074052EFBE43FFC8B828C83E0F95301017A00A82A7D00E9CB
:200B5800B50006EAB505028004758200228E828F83A3A3A3E0FDFA74075A04F52BEDC423D0
:200B7800541FF95301077D00852B348D35C3E99534ED64808535F063F08095F040047582F0
:200B98000022852A82C007C006C004C0031208AA85822C852A8212089885822DD003D00421
:200BB8008B828C83E0C313FB743F5BF52EA82D7B00A92B7D00C001C00588828B8312351485
:200BD800AB82AD831581158174092BFBE43DFDA82E7900C005C003C000C001900003123581
:200BF80014A882A98315811581D003D005D006D007E82BF8E93DF98E828F83A3A3A3A3E03A
:200C1800FD7C0028F8EC39F9C3748098E499500475820022852DF0E52BA4FC2409FBE52E3F
:200C3800F975F003A42BF52F8D30753100C3E531952B4003020CD7852DF0E531A42409F8A3
:200C5800753200852C3675370074032536FAE43537FBA9327D00C3E99AED64808BF063F0EE
:200C78008095F05055E532253288052DF52374012536FBE43537FDA9327A00C3E99BEA6470
:200C9800808DF063F08095F0B39205E433F525852B24852F268530278E828F83C007C00633
:200CB800C004C00012095CE582D000D004D006D0077003F58222053280890531020C457420
:200CD800092CFD7403B52C0474018001E4FC7B00C3EB952E4003020D8AED2EF582E43FF526
:200CF80083E0FAC4540FF85300077900C3E89534E964808535F063F08095F050678A0053B6
:200D1800000F7900EC6008753603753700800675360F753700C3E89536E964808537F06347
:200D3800F08095F0503EEB6006C3E5339A50358D01E904F523852B24752500852F2685303D
:200D5800278E828F83C007C006C004C003C002C00112095CE582D001D002D003D004D0069D
:200D7800D0077004758200228A33740329FD0B020CE8E5306024AB2F7D00AA307C00EA2B41
:200D9800FBEC3DFD1BBBFF011DEB2EFBED3FFD8B828D83E0600475820022753200C3E532EF
:200DB80095305076AB2F7C00A9327A00E92BF8EA3CFDE82EF8ED3FFD88828D83E06057E9E5
:200DD8002BF8EA3CFDE82EF582ED3FF583E0FDBD09028042E92BF8EA3CFDE82EF582ED3F35
:200DF800F583E0FDBD0A02802DE92BF8EA3CFDE82EF582ED3FF583E0FDBD20004014E92B8E
:200E1800FBEA3CFCEB2EF582EC3FF583E0FD2481500475820022053280838E828F83C00758
:200E3800C0061208DEAC82AD83D006D00774062EF582E43FF583E0FB8C02B5021274072E3C
:200E5800F582E43FF583E0FF8D04B504028004C2058002D205A205E433F582229000D0E002
:200E7800FF74075F04F582229000D0E0C423541FFF74075FF582229000D2E0FF74015FF5CE
:200E9800820208AA9000D5E0FF740F5F75F005A4F58222AF829000D2E0FE74015EF582C0BC
:200EB80007120898E582D007F5F0EFA42409F58222E58204F582120EABAF827E001FBFFFAC
:200ED800011EEF24CDF582EE3400F583E0F58222AF82C007120E8FAE82C006120E74AD8211
:200EF800D006D007C3EF9D5006C3E5389E4004758206228F82C006120EABAF82D006E4FD1D
:200F1800FC74032EFEE43CFCEE2EFEEC33FCEE2FFFEC3DFDE538C3137C002FFFEC3DFDEFD5
:200F380024CDF582ED3400F583E0FFE53830E009EFC4540FFD7E0080087C00740F5FFD7E91
:200F5800008D8222AF82C007120E74AE82D007C3EF9E5025C007120E8FAE82D0077D007482
:200F7800032EFEE43DFDAB397C00C3EB9EEC64808DF063F08095F0400BE53AF87600E53BC3
:200F9800F87600228F82120EABAF82E53925392FFEA93A24CDF582E43400F583E0F7A93B5D
:200FB8007F000EBE00010FEE24CDF582EF3400F583E0F722AF82C007120E8FAE829000D29B
:200FD800E0C313FD743F5DF540C006120E74120EABAC82D006D007E53DB53C028022C3E5A2
:200FF8003C9E501CC3E53D9E5016C007C006C004120E74AB82D004D006D007C3EF9B400486
:2010180075820022C3E53D953C5007AB3C853D3C8B3DEFC454F0FF853D6D8E6E853C82C0C1
:2010380007C0041208BCAE82D004D007EE4207754100C3E54195405064EC24CDF582E43451
:2010580000F583E0FBB50702801753038F7A008F0553050F7E00430580EBB50536EAB506B0
:2010780032A93E8C057E0074012DFAE43EFBEA24CDF582EB3400F583E0F7A93F74022DFD2F
:20109800E43EFEED24CDF582EE3400F583E0F77582012205418C0674032EFC8095758200B3
:2010B80022AF82E5422FFEC39F400A9000D1E0FFC3EE9F400475820022C006120E74120E5E
:2010D800ABAF82D0069000D2E0C313FD743F5D75F003A42FFDE4FFFCEE2DFDEC3FFFED24B7
:0C10F800CDF582EF3400F583E0F5822294
:20357900FF0000FF1607FF1000FF4200FF7C003CFF0064C8141D7B4300FFC8005BFF0000D5
:10359900FF7300B4FF00C2FF0048FFFFFF000000F7
:20110400AF827408B54402800EE56E6034AE44C3EE64809481402AE56E60129001A1E0FED3
:20112400BEFF0280189001A1EE04F080109001A0E0FEBEFF0280069001A0EE04F075820052
:201144002290019EE075F002A4248EF582740135F0F583EFF090019EE075F002A4248EFE6B
:20116400740135F0FF8E828F83A3E56DF090019EE0045407F00544758201227F007E00EE1F
:201184002469F582E43401F583E0FD42070EBE090040EC7E00EE245BFCE43401FD8C828DF7
:2011A40083E06025EE244DF582E43401F583E0FD53050F7C00BD0511BC000EEE2454F582A2
:2011C400E43401F583E0FD42070EBE070040C6E54B60079001A5E0FE42078F8222AF82C063
:2011E4000712117FAE82D007BF0E09E54DFC3395E0FD80047C007D00BF0F09E54DFD339547
:20120400E0FF80047D007F008D608C5F7561008E82022801E582FF7004758201227E02EE20
:20122400247AFCE43401FD8C828D83E0FBB5070475820122EB700A8C828D83EFF0758201CD
:20124400220EBE080040D8758200227F007E00EE247AF582E43401F583E4F00EBE080040EA
:20126400EE7E00EE245BFCE43401FD8C828D83E06040EE244DF582E43401F583E0FDFB534F
:20128400030F7C00BB022BBC002890017AE0FCEDC4540F420490017AECF0EE2454F582E407
:2012A4003401F583E0F582C007C006121218D006D0070EBE070040AB9001A67401F0E54B26
:2012C400603B9001A3E0FE53060F7D00BE012EBD002B9001A4E0F582C007121218AE82D014
:2012E400079001A6EEF0EE601490017AE0FE9001A3E0C4540FFD420690017AEEF07E00EEAE
:20130400247AF582E43401F583E0FDEE2472F582E43401F583E0FCEDB5040280027F010E26
:20132400BE080040DAEF602E90017A122757E5827003F582227F00EF2472FDE43401FEEF37
:20134400247AF582E43401F583E0FC8D828E83F00FBF080040E112117FE582FFB54302807E
:201364001B755F007560007561008F82C007122801E582D0077003F582228F437582012286
:20138400AF82AE4574FFB5480280118548457548FFC007C00612147CD006D0078F0453048E
:2013A4000F7D00BC0004BD000122BC0204BD000122BC0504BD000122BC0605BD0002801C94
:2013C400BC0A05BD00028058BC0B05BD00028008BC0D5BBD0058801E75470122E55024691C
:2013E400FCE43401FD8C828D83E0FBE54E62038C828D83EBF022C007C006120E74AD82D00B
:2014040006D007E54E2EFE8D04ECC40354F8FC2EF54EC3E54E9D4008E54EC39DF54E80F26C
:20142400754701EF30E403854548854E4522854E6D854F6E8F82021104900189E0FFE070A6
:2014440001221F900189E4F0EF245BF582E43401F5837401F0EF244DF582E43401F583E035
:20146400FEEF2454F582E43401F583E0F54E754F008F508E82021384AF457E007D00ED248C
:201484005BFBE43401FC8B828C83E06035ED244DF582E43401F583E0FC53040F7B00BC0B62
:2014A40021BB001EED2462F582E43401F583E0FCC39E400E8C06ED2454F582E43401F58329
:2014C400E0FF0DBD070040B6EFB54601228F467F00EF2469F582E43401F583E4F00FBF09D2
:2014E4000040EE75440090019EE4F090019FF0AE4953060F7F00BE0812BF000F7404B54AE3
:201504000280057405B54A03754C01754900754A00754B009001A5E4F012143D02147C12B5
:201524000E808582458545467547007548FF900189E4F0900182F09001A0F09001A1F07F92
:2015440000EF2483F582E43401F583E4F00FBF060040EE90019EE4F090019FF0F544F54979
:20156400F54AF54C9001ABF0F54B9001A5F0F543122687E58290018DF07F00EF245BF58285
:20158400E43401F583E4F0EF2462F582E43401F583EFF0EF244DF582E43401F583E4F0EF5B
:2015A4002454F582E43401F583E4F00FBF070040CA7F00EF2469F582E43401F583E4F00F0E
:2015C400BF090040EE7F00EF2472F582E43401F583E4F00FBF080040EE2212268E121523FB
:2015E40090017274FFF0F543900000122887E582B401009206E433F54C02124FE5826007BB
:201604009001A1E0FF80059001A0E0FF8F82228546822285478275470022E5822462FEE483
:201624003401FF8E828F83E0FD7C00EC2462FAE43401FB8A828B83E0F9C3ED995007198A41
:20164400828B83E9F00CBC070040E08E828F837406F022AF82C007120E8F858255D007C3E3
:20166400E5559F40248FF005F07C017D008006EC2CFCED33FDD5F0F7900182E0FBF97A00E7
:201684005204EA5205EC4D6001228F058DF005F07401800225E0D5F0FB9001824BF0C3EF31
:2016A4009555E433FC6010EF2483FAE43401FB8A828B83E0600122900189E0FBE07003024E
:2016C40017D5EC700874FFB548030217D51BEC70030217C390018BE0F9A3E0FAE551C399FB
:2016E400F9E5529AFAC007C005C004C003C002C001120E9CA882D001D002D003D004D00587
:20170400D0077E00C3E998EA9E40030217C390018AE0FE753E53753F548B3C8F3D8E82C01B
:2017240007C005C004C003120FCCE582D003D004D005D00770030217C3900189E4F0EB245F
:2017440083F582E43401F583ED04F0EF2483F582E43401F5838B060EEEF0EB244DF582E447
:201764003401F583E553F0EB2454F582E43401F583E554F0EF244DF582E43401F583E4F0C0
:20178400EF2454F582E43401F583E4F0EF245BF582E43401F583E4F0EB245BF582E43401BE
:2017A400F5837401F08B82C00312161ED00385544E754F008B5085538212138402147CC044
:2017C40007C005C00412143D12147CD004D005D007753A53753B548F39854682C007C00549
:2017E400C004120F5CD004D005D007EF244DFBE43401FE8B828E83E553F0EF2454F9E434F4
:2018040001FA89828A83E554F08F82C007C006C005C004C003C002C00112161ED001D00232
:20182400D003D004D005D006D007EC6071C007C006C005C003C002C001120E9CE582D00132
:20184400D002D003D005D006D00760527C00C3EC9555504A753E53753F548F3C8C3D85468F
:2018640082C007C006C005C004C003C002C001120FCCE582D001D002D003D004D005D0063D
:20188400D0076017900189ED04F090018AE546F090018BE551F0E552A3F0220C80B0EF2448
:2018A4005BF582E43401F5837401F08B828E83E0FB89828A83E0F54E754F008F508B821266
:2018C400138402147CE582FF244DF582E43401F583E0FE53060FEF245BFDE43401FF8D8224
:2018E4008F83E06018BE02028003BE05067C027E0080047C007E008D828F83ECF022AF82A2
:20190400C007120E8FAE82D007C3EE9F5001228F068EF005F07401800225E0D5F0FBF4FECD
:20192400900182E05EF08F057E000DBD00010E900189E07B00B5050EEBB5060AC00712149D
:201944003D12147CD0078F82C0071218C9120E8FAE82D007C3EF9E5057EF2483FEE43401A8
:20196400FF8E828F83E0FD60471D8D82C007C006C0051218C9D005D006D0078DF005F07BDE
:20198400017C008006EB2BFBEC33FCD5F0F7900182E0F97A005203EA5204EB4C70128E8294
:2019A4008F83E4F0ED2483F582E43401F583E4F002147CAF82C007120E8FAE82D007EF603E
:2019C400067C017D0080047C027D00EC2EFE900189E0601574FFB54802800EC007C006125E
:2019E400143D12147CD006D007753A56753B578E39854682C007120F5CD007EF60067E072E
:201A04007F0080047E087F008E5085574E754F0185568212138402147CAE82AF83900189D9
:201A2400E0603B90018BE0FCA3E0FDEEC39CFCEF9DFDC007C006C005C004120E9CAB82D00E
:201A440004D005D006D0077A00C3EC9BED9A400EC007C00612143D12147CD006D007C0075D
:201A6400C006122687AD82D006D00790018DE0FCB505028019C007C006122687E582D00629
:201A8400D00790018DF090017274FFF0F543E54C6018900000C007C006122887E582D006FB
:201AA400D0076005754C00800122C007C00612124FE582D006D007700122E5497026E544EE
:201AC4007022C007C006122896AD82D006D007ED70128E059001ABE0FCEDC39CFDBD08000F
:201AE40092075004C2078002D207A207E433FD60059001ABEEF07C00EC245BF582E434011E
:201B0400F583E0FBBB0251EC244DF582E43401F583E0F953010F7A00B9022FBA002CEC2465
:201B240054F582E43401F583E0FA601E7902E92472F582E43401F583E0F8B50202800609CB
:201B4400B9080040E9B908028051EC245BF582E43401F583E4F08043ED6040EB603DEC24D4
:201B64004DF582E43401F583E0FBF95301FE7A00B91E28BA002553030FEC2454F582E43436
:201B840001F583E0F54D8B82C007C006C005C0041211E1D004D005D006D0070CBC0700500A
:201BA40003021AFCC007C00612124FE582D006D007700122E5497054E544605090019FE084
:201BC400FD75F002A4248EFB740135F0FC8B828C83E0F5498B828C83A3E09001A2F0ED04C9
:201BE40090019F5407F01544754A009001A8E4F0AC4953040F7D00BC0409BD00067C027DE2
:201C04000080047C017D009001A7ECF0E549700122E549540FFDE54A6003021D84C007C023
:201C240006C005122896E582D005D006D007600122BD07569001A2E0FC7003F54922C004D9
:201C440012117FAB82D004EC33E433FA600678FF79FF8004780179008861755F0075600050
:201C64008B82C004C002122801E582D002D004700122EA6005EC04FB8003EC14FB9001A207
:201C8400EBF0EB60012275490022BD0E028003BD0F219001A2E0F54D8D82C007C0061211C6
:201CA400E1E582D006D0077001229001ABEEF075490022BD082BAB49E4CBC4540F6BCB545A
:201CC4000FCB6BCB8B047B009001A2E07A004BF582EA4CF583122887E582700122754A046B
:201CE400229001A3E549F09001A2E0FC9001A4F09001A5E4F0BD09489001A8E0F5428C82C2
:201D0400C007C0061210B9AC82D006D007EC7003F549228C82C007C006122A84AC82D0065E
:201D2400D007EC30E7067A207B0080047A007B009001A374014AF09001A4747F5CF080104A
:201D4400BD03028003BD04089001A2E09001A5F0754B01C007C00612124FE582D006D00763
:201D640060069001A6E07001228E038F0474082BFBE43CFC9001A9EBF0ECA3F0754A0122F7
:201D84007401B54A289001A9E0FBA3E0FCEEC39BEF9C30E70122122896E582600122754B84
:201DA4000012124FE582700122754A02227402B54A46C007C006C005122896E582D005D0E6
:201DC40006D007600122BD090B9001A8E02401F0754A00229001A7E014F0E060178E048F2B
:201DE4000574C82CFCE43DFD9001A9ECF0EDA3F0754A0322754900227403B54A379001A917
:201E0400E0FCA3E0FDEEC39CFCEF9DFD20E74D754B01C007C00612124FE582D006D0076007
:201E24003B74082EFEE43FFF9001A9EEF0EFA3F0754A01227404B54A15122896E582701CCE
:1D1E4400900000122887E5826012754A05227405B54A09122896E5827002F54922E7
:201E62007F00EF24CDFDE43400FE8F82C007C006C0051223C0AC82D005D006D0078D828E49
:201E820083ECF00FBF800040D9752A009000CD120B16AF8290026EEFF090026FEFF09002C9
:201EA2006CE4F0900270F090026DF02290026D7401F022AE82AF8390026CE0700690026DA2
:201EC200E06004758200227D00ED24ACFBE43401FCED2EF582E43FF583E08B828C83F00D33
:201EE200BD200040E490026C7401F0758201229001B0E0FF9001B2E0F5589001B3E0F55960
:201F02009001ACE0FCBC03169001ADE0FCBC550E9001AEE0FCBC4D069001B4E060047582EE
:201F220004229001AFE0FCBC0102800475820122E55924E8500475820322BF05028003BF3E
:201F42000606AB597C0080047B007C0074092BFCBC20005016EC24ACFAE43401FB8A828B31
:201F620083E06004758204220C80E5E4BF030104FC7008BF04028003BF061EE5596016AA62
:201F8200597B00A8587900EA28F8EB39F9C3748098E499503175820322E5586003BF0922D8
:201FA200BF05117403B55903D38001C3B39208E433FB800BE559B40100B39208E433FBEB84
:201FC200600475820322EF24F650030222D4EF240A83F582EF240E83F583E473D4F24CAFE0
:201FE200AF144708CDAE221F20202021212222229001D3740EF09001D57455F09001D67439
:202002004DF09001D77441F09001D87443F09001D97401F09001DA7405F09001DBE4F090F1
:2020220001DC7406F0E0FF9001DDF09001DE7405F09001DF7480F09001E07403F09001E1A4
:2020420074FFF09001E2F00222D89001D37406F090026EE09001D5F090026FE06009121646
:2020620013AB827F0080047B007F009001D6EBF090026FE06009120E80AB827F0080047B4A
:20208200007F009001D7EBF0900270E09001D8F0758200121600AF829001D9EFF0758201B0
:2020A200121600AF829001DAEFF00222D89001D3E559F0755A00C3E55A955940030222D8EF
:2020C200AB5A74092BFB3395E0FAEB24CCFBEA3401FAEC6019E55A2558F582C004C003C0E6
:2020E200021223C0A982D002D003D004801AA8587F00AD5A7E00ED28F8EE3FFFE824CDF59E
:2021020082EF3400F583E0F98B828A83E9F0055A80A49001B5E0FFBF80028004758203224B
:202122009001B6E0FF9001B7E0FD7E007C00900272EE4FF0ED4CA3F0900271E4F090027082
:2021420004F00222D8900270E0FFBF0102800475820522900271E0FFB558028063AD597EF0
:2021620000AB587C00ED2BFBEE3CFC7E00C3EF9BEE9C500475820A227F00C3EF9559400377
:202182000222D8AD587E008F037C00EB2DFDEC3EFEED24ECF582EE3401F583E0FE8F05747E
:2021A200092DFD3395E0FCED24ACF582EC3401F583E0FDEEB50502800475820A220F80BA02
:2021C2007F00C3EF95595034AD587E008F037C00EB2DFDEC3EFEED24ECFDEE3401FE8F04DE
:2021E20074092CFC3395E0FBEC24ACF582EB3401F583E0FC8D828E83F00F80C6900271E0A6
:202202002559F00222D8900270E0FFBF02030222D8BF010A900271E0FFBF80028004758249
:2022220005229001EC1208DEAE82AF83900272E0FCA3E0FDEEB5041AEFB505169001F2E05B
:20224200FD8E04B5040C9001F3E0FD8F06B50602800475820722752A009001EC120B16E59D
:20226200827004758206229001EC122436AF8290026EEFF0EF7004758209227F00EF24CD6A
:20228200FDE43400FEEF24ECF582E43401F583E08D828E83F00FBF800040E290026F74014C
:2022A200F01205F59002707402F0802AE5586013AE585306067F00BE0405BF0002800475F9
:2022C20082032285588212031A800B900270E4F080047582022275820022AE82AF839002BA
:2022E2006DE06014900270E4F090026CF01205F590026DE4F0022605900270E0601D90025A
:2023020074E0FCA3E0FDEEC39CFCEF9DFDC3EC9488ED94134005900270E4F090026CE07051
:20232200012290026CE0FDBD010280030223A77D00ED24CCF582E43401F583E4F00DBD206E
:202342000040EE9001CC7404F09001CD7455F09001CE744DF09001CF7401F09001B0E090EB
:2023620001D0F09001B1E09001D1F09001B2E09001D2F0C007C006121EF1AD82D006D00726
:202382009001D4EDF0ED70179001B0E0FDBD0500400DED24F74008900274EEF0EFA3F09012
:1E23A200026C7402F090026DE070129001CC122584E582600890026CE4F002260522E0
:2023C00002343EAF82C0071223C0AE82D007EEB55B028019A2AF9209C2AF900303E55BF0D9
:2023E0008F82C007123408D007A20992AF8F821223C0E582B55B0474018001E4F58222AE52
:2024000082AF837D008D82C007C006C0051223C0AC82D005D006D007ED2EF582E43FF58358
:20242000E0FBECB503028004758200220DBD800040D375820122AE82AF83C007C0061223E3
:20244000FFE582D006D007600475820122755B00758200C007C0061223C3E582D006D0078B
:202460006015755B00758201C007C0061223C3E582D006D0077004758200227D02ED2EF56A
:2024800082E43FF583E0F55B8D82C007C006C0051223C3E582D005D006D0077003F58222A1
:2024A0000DBD800040D7755B50758201C007C0061223C3E582D006D0076015755B4D758281
:1B24C00000C007C0061223C3E582D006D0077004758200228E828F830223FF95
:04000000020049327F
:03000B0002344E6E
:0100130032BA
:01001B0032B2
:0100230032AA
:01002B0032A2
:01003300329A
:01003B003292
:030043000224DCB8
:0E00A2007808E4F608F608F608F6780C760002
:0300B40002004601
:0300460002251B75
:2024DC00C022C0E0C0F0C082C083C007C006C005C004C003C002C001C000C0D075D0001226
:2024FC003310D0D0D000D001D002D003D004D005D006D007D083D082D0F0D0E0D0223212F6
:0E251C0034DF1206AD1206DE80FB758200224F
:20252A001233A01233CA1233B975DD0075D3002275D30074FC55D24402F5D2900305E4F08B
:20254A002230DE357402B5DB1190000AE0FFBF010990000BE0900304F0227420B5DB1A90C1
:20256A00000AE0FFBF031290000A121EB5E582600874F355D24408F5D222D310AF01C3C06D
:20258A00D0AE82AF839002CA7401F0900302E0601F900305E070199002C8E060069002CB4C
:2025AA00E0600DACD25304037D00BC0308BD000575820080417D008D037C0074402BFBE4E7
:2025CA003CFCEB240AFBEC3400FCED2EF582E43FF583E0FA8B828C83F00DBD200040D890E4
:2025EA0002CAE4F09002CBF075D32090030504F053D2FC758201D0D092AF22D310AF01C37E
:20260A00C0D0AED253060C7F00BE0C05BF0002800353D2F3D0D092AF22E582900304F0227E
:20262A009002CCE4F09002CDF09002CEF09002CFF09002D0F09002D5F0A3F09002D3F0A33A
:20264A00F09002D1F0A3F07F00EF24D7F582E43402F583E4F00FBF080040EE9002DFE4F00B
:20266A009002E0F0A3F0900305F09002C9E02401F09002CAE4F09002CBF002268E9002C9F5
:20268A00E0F58222D310AF01C3C0D09002C8E4F09002C6F09002C7F0D0D092AF22AF82904E
:2026AA0002C8E0FEBE08028006900302E07004758200229002C6E024BEF582E43402F583F5
:2026CA00EFF09002C6E0FF0F74075FF09002C8E02401F075820122AE82AF839002C8E0FDFF
:2026EA00BD08028006900302E07004758200229002C6E075F009A42476F582740235F0F596
:20270A00837401F07D009002C6E075F009A42476FB740235F0FC8D02EA042BFBE43CFCED28
:20272A002EF9E43FFA89828A83E08B828C83F0ED24D7FBE43402FC89828A83E08B828C833A
:20274A00F00DBD080040BF7582090226A7D310AF01C3C0D01226E1D0D092AF22AF8290021A
:20276A00C8E0FEBE08028006900302E07004758200229002DFEFF09002C6E075F009A4249B
:20278A0076F582740235F0F5837402F09002C6E075F009A42476FD740235F0FE8D828E832F
:2027AA00A3EFF09002C6E075F009A42476FE740235F0FF8E828F83A3A3E55CF09002C6E040
:2027CA0075F009A42476FE740235F0FF8E828F83A3A3A3E55DF09002C6E075F009A424768A
:2027EA00FE740235F0FF8E828F83A3A3A3A3E55EF07582050226A7D310AF01C3C0D0855FC1
:20280A005C85605D85615E122766D0D092AF22AE82AF839002C8E0FDBD08028006900302AF
:20282A00E07004758200229002E0EEF0EFA3F09002C6E075F009A42476F582740235F0F564
:20284A00837405F09002C6E075F009A42476FC740235F0FD8C828D83A38E05EDF09002C681
:20286A00E075F009A42476FC740235F0FD8C828D83A3A38F06EEF07582030226A7D310AFFC
:20288A0001C3C0D0122819D0D092AF229002C8E0700A900305E07004C20A8002D20AA20A0E
:2028AA00E433F58222D310AF01C3C0D0AE82AF839002C8E060030229A49002D0E0FD0D75E9
:2028CA006200BD01079002CCE0FB8011BD02079002CEE0FA80059002CFE0FA8A03BD010AE8
:2028EA009002D1E0F9A3E0FA8019BD020A9002D3E0F8A3E0FC80089002D5E0F8A3E0FC8829
:20290A00018C028904EB7003022991EEC39CFCEF9AFA8B017B00E929F9EB33FBE929F9EB8A
:20292A0033FBC3EC99EA9B405EBD03067B007C0080048D037C009002D0EBF0BD011090020A
:20294A00D7C007C0061226E1D006D007804CBD021D9002DFE0FC755C00755D00755E008C4C
:20296A0082C007C006122766D006D007802C9002E0E0FBA3E0FC8B828C83C007C006122897
:20298A0019D006D00780130DED24FC50027D01056274FD256240030228CC900302E0602558
:2029AA00900305E0701F9002C8E060199002CAE060069002CBE0700DACD25304037D00BCE6
:2029CA000306BD0003022A7F7D009002C7E0FC24BEF582E43402F583E0FBC3ED9B50328DA7
:2029EA00027B0074402AFAE43BFBEA240AFAEB3400FBEC75F009A42476F8740235F0F9ED21
:202A0A0028F582E439F583E0F98A828B83F00D80B9EC75F009A42476F582740235F0F5832D
:202A2A00E0FDBD010A9002D1EEF0EFA3F08018BD020A9002D3EEF0EFA3F0800BBD05089019
:202A4A0002D5EEF0EFA3F09002CB7401F09002C7E0FF24BEF582E43402F583E0F5D30F9009
:202A6A0002C774075FF09002C8E014F09003057401F053D2FCD0D092AF22AF82BF800040AA
:202A8A000475820022EF9035A993F58222E582FF7017AE6D9002CDEEF09002CFEEF0900270
:202AAA00CEEEF09002CCEEF022BF01079002CCE56DF022BF02079002CEE56DF022BF050623
:202ACA009002CFE56DF022E582FF70079002CDE0F58222BF01079002CCE0F58222BF02070C
:202AEA009002CEE0F58222BF05079002CFE0F5822275820022AF82AD6EAE6F8D828E83EFBD
:202B0A00F0BF0143E56D601474012DFBE43EFC900304E08B828C83F0758202227C008C028F
:202B2A007B000ABA00010BEA2DFAEB3EFBEC24D7F582E43402F583E08A828B83F00CBC0861
:202B4A000040DB75820922E56D7039BF023674012DFBE43EFC9002DFE08B828C83F07402AE
:202B6A002DFBE43EFC74032DF9E43EFA8D828E83A3A3A3A3E4F089828A83F08B828C83F0B8
:202B8A0075820522E56D702FBF052C74012DFCE43EFF9002E0E0FAA3E08C828F83EAF07430
:1B2BAA00022DFDE43EFE9002E0E0A3E0FC8D828E83ECF07582032275820022C2
:2035A90000000000000000002A2B2800000000000000000000000000000000000000000085
:2035C9002C9EB4A0A1A2A434A6A7A5AE362D3738271E1F20212223242526B333B62EB7B8A5
:2035E9009F8485868788898A8B8C8D8E8F909192939495969798999A9B9C9D2F3130A3AD96
:20360900350405060708090A0B0C0D0E0F101112131415161718191A1B1C1DAFB1B0B500FA
:02376C0000005B
:20362900120110010000000809125DC500010102030105010906A1018501050719E029E7BE
:203649001500250195087501810295017508810395067508150026FF000507190029E781F1
:203669000005081901290515002501950575019102950175039103C005010902A1010901EF
:20368900A100850205091901290315002501950375018102950175058103050109300931CC
:2036A90009381581257F750895038106C0C00600FF0901A10185030902150026FF0075086F
:2036C900951F910285040903951F8102C0050C0901A1018505150026FF0F19002AFF0F75B8
:2036E9001095018100C009022900010100806409040000020300000009211001000122B49C
:20370900000705810320000A0705010320000A040309041C034300480035003500780020EC
:20372900006B006200640020006D006F007300260355006E0069007600650072007300616A
:20374900006C0020004D006100630072006F007000610064000E0344006500710069006EAB
:03376900006700F6
:0300B000756B006D
:202BC600AFDB7D007E008E66BF080280030230ED900007E0FC7F00900006E0FB7A004FF5EA
:202BE60063EA4CF5648F6C900001E0F5658F6B900000E0FC54607003022D9F900000E0FC50
:202C06005304607B00BC2005BB00028011BC4005BB00028003022D99756CFF0230F09000B2
:202C260004E07006900005E06006756CFF0230F07409B5653F900000E0FCBC21379000036E
:202C4600E0FCBC022F900002E0FCBC030CAB63AC64BB2005BC00028012900002E0FCBC01F3
:202C660013AB63AC64BB020CBC00098563667567000230F0740AB56551900000E0FCBC2111
:202C860049E56345647043900002E0601C900002E0FCBC01028012900002E0FCBC020280E6
:202CA60008900002E0FCBC0521900302E0601B900002E0FC900003E0F56D8C82C006C005EA
:202CC600122A97D005D0060230F07402B5655E900000E0FCBCA156900002E0601C900002C1
:202CE600E0FCBC01028012900002E0FCBC02028008900002E0FCBC0534900003E0702EABCC
:202D060063AC64BB0127BC0024900302E0601E900002E0F582C006C005122AD1AC82D00500
:202D2600D006900000ECF0756C010230F07401B5655B900000E0FCBCA153900003E0FCBC16
:202D460001028008900003E0FCBC0241900302E0603B900002E0FC900003E0FBE4BB0201E6
:202D660004F56D756EE2756F028C82122AFFAC828C057E00ED4E600F7568E2756902756A8E
:202D8600007565060230F0756CFF0230F0756CFF0230F0756CFF0230F0E56524F45003026E
:202DA60030E8E565240B83F582E565241083F583E47337B7E8B7E8B1D0E8BEDC2525302F91
:202DC600302F302E2D302E2E2F2F900003E0FCBC01028019BC02028024BC0302802FBC21A1
:202DE60003022E79BC2203022E89022EAB756829756936756A807D127E000230F07568EF38
:202E0600756936756A807D297E000230F0900002E0700B756818756937756A80803F90004E
:202E260002E0FCBC010B75685E756937756A80802C900002E0FCBC020B75683875693775B5
:202E46006A808019900002E0FCBC030B75681C756937756A808006756CFF0230F0AA68ABFF
:202E660069AC6A8A828B838CF0123536FAFD7E000230F0756801756937756A807D097E00CD
:202E86000230F0900002E0701675683B756936756A80903708E493FDA3E493FE0230F07595
:202EA6006CFF0230F0756CFF0230F0900002E0FC8C637564000230F0900302E0900000F030
:202EC600AB63AC64C3EB9401EC940050030230F0756C010230F0900000E07021900003E01E
:202EE600701B900002E0FC24FE4012900004E0700C900005E07006E56345646006756CFF4D
:202F06000230F0900002E0900302F0C006C00512262A121EAED005D00675D2120230F09011
:202F26000004E07075900005E0706F900002E07069900003E07063900302E0605D740AB578
:202F4600650474018001E4FC602C900000E0FBBB8103D38001C3920B5013AA63AB64BA0108
:202F660006BB0003D38001C3920B100B02D20BA20BE433FB8021900000E0FABA0103D380FE
:202F860001C3920B500AE56345647004C20B8002D20BA20BE433FBEB6006756CFF0230F0CD
:202FA600EC70030230F0900000E4F0756C010230F0900000E0FCBC0218900002E07012905C
:202FC6000003E0700C900005E07006E56345646006756CFF0230F0900004E0FCBC812974FE
:202FE60003B5650B74FC55D24403F5D20230F074BC55D24402F5D2C006C00512262A121E5B
:20300600AED005D0060230F0900004E0FCBC011B747355D2FC7403B565067A0C7B008004C1
:203026007A007B00EA4CF5D20230F0756CFF0230F0900004E0FD7E00900000E0FCBC824D8E
:203046008D038E04BB8117BC0014A9D2530103E4FAB90304BA000104F9FD7E00804ABB01FC
:2030660017BC0014A9D253010CE4FAB90C04BA000104F9FD7E008030ED4E6006BB8009BC5D
:2030860000067D007E008020756CFF805D900000E0FCBC80028008900000E0FCBC8104ED00
:2030A6004E6005756CFF8042900005E0700C900002E07006900003E06005756CFF802B8DEC
:2030C60004900000ECF0900001E4F0AB63AC64C3EB9402EC94004005756C02800D85636C2A
:2030E6008008756CFF8003756CFF74FFB56C02806F7406B5656AC3ED9563EE956450048D0C
:20310600638E64AD63AE64C3ED9408EE9400920B40067B087C008004AB63AC648B6C7C006D
:20312600C3EC956C50208C027B00EC2568F8E43569F9AF6A888289838FF0123536F88A8245
:203146008B83F00C80DAAC6C7F00EDC39CFDEE9FFE8D638E64E56C2568F568E43569F5699D
:2031660074FFB56C077565FF75DCCF22E56C24F74017856CDDE56660067E027F0080047E50
:20318600007F0074C04EF5DC2275DD00E56660067E027F0080047E007F0074C04EF5DC223D
:2031A6007405B56502806E7406B565028003023229AE63AF64C3EE9408EF9400920C400638
:2031C6007C087D008004AC63AD648C6D7D00C3ED956D50208D027B00ED2568F8E43569F9B5
:2031E600AC6A888289838CF0123536F88A828B83F00D80DAAC6D7D00EEC39CFEEF9DFF8E41
:20320600638F64E56D2568F568E43569F569856DDD63DC4022E5E35480FFE5634FF5E37547
:20322600DC022275DD0075DC022220DE01227409B5650280030232FEE56670030232FEE57D
:20324600DB24F750030232FEAE677F00ACDB7D00EC2EFEED3FFFAC667D00C3EC9EED648065
:203266008FF063F08095F050030232FE7F00C3EF95DB5019EF256724E2FDE43402FE8F823B
:20328600758300E0FC8D828E83F00F80E1E5DB2567F567E566B567477420B5661C9002E23F
:2032A600E0FFBF03149002E2121EB5E582600A74F355D24408F5D2801C7402B566139002B6
:2032C600E2E0FFBF010B9002E3E0F582122623800475DCCF2275660075DD0075DC48227413
:2032E600F825DB40077565FF75DC0F2263DC8074F055DC4402F5DC2275DD00E56660077528
:2033060065FF75DC0F2275DC022220D903023376E5D9540F6002802CAED95306307F00BE29
:203326000005BF00028013BE2005BF00028010BE303CBF0039122BC68034123230802F12EC
:2033460031A6802AAED953060F7F00BE0120BF001DE5D954306002800512254B8010AED9FB
:203366005306307F00BE2006BF000312253AC2D930D81A121EAE12262A75DC0275D212750A
:20338600E300C2DAC2D9C2D8900302E4F010DA0122E5DA20E20375D8FF2275E20053E27FC0
:2033A60043E22975E30053E2BF53D1FB75D18043D1012243E10443E10243E10143D81FD2D2
:1E33C600EAD2AF227E007F008EEC8FED7E0A7F008EEE8FEF75D21275EAC075DC02227B
:2033E400ABF0A2AFE433FEC2AFE0A37A0833D2B44002C2B47905D9FEC2B4DAF1DBEBEE6037
:0434040002D2AF221F
:20340800AF82BF800040012275A15575A1AA43B10475A1007585C0EF2FF584900303E0F5DC
:203428008EE58630E60375869A75A15575A1AA53B1FB75A10022AF827585C0EF2FF5847584
:06344800868E858E8222B3
:06007800E478FFF6D8FD5C
:200056007902E94400601B7A0190376C780475A003E493F2A308B8000205A0D9F4DAF275A4
:02007600A0FFE9
:20344E00C0D075D00808B8000D09B900090ABA00050BBB00010CD0D032A2AFC2AFA808A960
:20346E0009AA0AAB0BAC0C92AF75F020E8A4A8F075F020E9A428F582A8F075F020EAA428A5
:20348E00F583A8F075F020EBA428F9A8F075F020ECA42889F022AE82AF83C374019EE49FAE
:2034AE0040022200C374029EFE74009FFF00BE0005BF00020022000000000000000000000D
:2034CE00000000000000000EBE00EB0FBF00ED002275A15575A1AA74F855B94406F5B97538
:2034EE00A1009013881234A4759E5D759D0074F055894402F58953C9EF758C06C28DD2A9A4
:05350E00D28CD2AF22B7
:2035140074FE2581F8E68582F0A4C0E08582F018E6A4F582D0E025F0C58386F0A42583F592
:023534008322F0
:20007E007800E84400600A799475A000E4F309D8FC7870E84402600C7903900094E4F0A3E5
:04009E00D8FCD9FAB7
:0D00490075816F123552E58260030200469A
:1C35360020F71430F6148883A88220F507E6A88375830022E280F7E49322E022A4
:04355200758200225C
:00000001FF
