:2000B8007E947F007D007C004305128E828F838DF0EC0233CC7F00BF1200500FEF2494F56D
:2000D80082E43400F583E4F00F80EC0200B8E582FFC4540FFEEFB40100B39200E4334EF51F
:2000F800822290026FE070079000CAE07001221216038582109000CAE0FEE0700885108236
:20011800120ECEAE82EE0303543FFD530503EEC4540FF5119000C6E0FBFA6006EA5401FAE5
:200138006004C2018002D201A201E433F512BD0307740FB511028004C2018002D201A20119
:20015800E433F51378947900E4BD030104FD74015EF5177518007E00BE060040030200B892
:20017800851119751400EE90354393FB9000C9E02BFB9000CAE060057514018044E5126008
:2001980005751401803BEE24ADFCE43400FF8C828F83E060218E3A851082C006C005C0037D
:2001B800C001C000120EED858219D000D001D003D005D006800BED600575140180037519E2
:2001D8000FE514605DE5136059BB550050188B077455C39FFF75F003A4F515EB75F003A450
:2001F800F5167C00806BBBAA00501E8B02EA24ABFA7515008A077455C39FFF75F003A4F51C
:2002180016EA75F003A4FC8048EB2456FB75F003A4F5157516007455C39BFB75F003A4FCCB
:20023800802FE51975F003A42459FB743535F0FF8B828F83E493F5150BBB00010F8B828F96
:2002580083E493F5160BBB00010F8B828F83E493FCE514603BE51745187035851582C006A5
:20027800C005C004C001C0001200E68582158516821200E6858216D000D001D0048C82C0D3
:2002980001C0001200E6AC82D000D001D005D00688828983E516F088828983A3E515F088E7
:2002B800828983A3A3ECF0740328F8E439F90E020170AF829000CAEFF0EF702190026FE07D
:2002D800701B1200CD90009574FFF012344FAC82AD839000CBECF0EDA3F00200B80200FAB4
:2002F800AF82C007120ECEAE82D007EE0303543FFE5306039000C6E4F0BE0103048001E4C3
:20031800FD7003BE0221ED60067D017E0080070FEFFD3395E0FEED2DFD9000C6F0AF1A7463
:20033800642FFF9000C7F00200FAAE829000C6E0FDE0600C9000C7E0FFEEC39FFE30E70185
:2003580022ED149000C6F09000C774642FF00200FA1215CE12344FAC82AD83AEF0FFC00588
:20037800C00412287EE582D004D0056038C005C00412344FAA82AB83AEF0FFD004D005EA99
:20039800C39CFAEB9DFBC3EA9464EB94005016C005C00412344F12289712344F121A06D059
:2003B80004D00580B97E947F007D00BD0600501F8E828F83E4F08E828F83A314F08E828F75
:2003D80083A3A3E4F074032EFEE43FFF0D80DC1200B875E200C2AF75890090C35012348C35
:2003F80090C35012348C12380080FEAF82BF060AA2B3B39202E433F58222BF050AA2B2B387
:200418009202E433FE8013EF90353E93FFE5905207EFB401009202E433FE8E8222A2B0E481
:200438003325E0FFA2B1E4334FF58222AF82C007120403AE82D007EF24A6FCE43400FD8CAD
:20045800828D83E0FBEEB50302801C8C828D83EEF0EF75F002A424B4F582740035F0F5837D
:20047800E51CF0E51DA3F0EF24ADFCE43400FD8C828D83E0FBEEB5030122EF75F002A4242D
:20049800B4F582740035F0F583E0FAA3E0FBE51CC39AFAE51D9BFBC3EA940AEB9400406551
:2004B8008C828D83EEF09000CAE0600E758200C007C0061202CAD006D00790026FE070011F
:2004D80022EE6030BF061CC007121603120ECEE582D0079000C55402F09000CBE51CF0E599
:2004F8001DA3F0851C52851D538F82C007121640D00780098F82C0071218EBD007BF060023
:2005180050030200FA22120435AF829000C2E0FEEFB50601229000CAE0600A758200C00777
:200538001202CAD0079000C2E025E025E04F90354993FE9000C2EFF090026FE0700122EE31
:2005580070069000C3E4F0229000C3E02EF0E0FFC364809484400B9000C3E4F07582010269
:2005780019A0C3747C8FF063F08095F0400B9000C3E4F07582000219A02212344FAC82AD6A
:2005980083AEF07F00EF24F94056EF24A6FBE43400FEEF24ADF9E43400FA8F82C007C006CE
:2005B800C005C004C003C002C001120403A882D001D002D003D004D005D006D00789828AB0
:2005D80083E8F08B828E83E8F0EF75F002A424B4F582740035F0F583ECF0EDA3F00F80A5C8
:2005F800C005C004120435E582D004D0059000C2F090026FE0700C9000CAE07005F5820238
:2006180002CA22C005C0041215CE9000C3E4F0121603E582D004D0059000C4F09000C5E477
:20063800F09000C6F09000C8ECF09000C9E4F00200FA121E4A4390F24392F24393F243B04E
:200658000F740F459654EFF59643971F1200CD120592122512758206120403E5826003029B
:2006780003692212344FAC82AD83C005C004122897D004D0058C828D83C005C0041222C340
:20069800D004D0057F00EF24F940188C1C8D1D8F82C007C005C004120444D004D005D00729
:2006B8000F80E3C005C00412051ED004D0058C079000C8E0FEEFC39EFEBE06004058900046
:2006D800CAE0FEE060068E037E00802890026FE0601AC007C005C004121603120ECEAA826D
:2006F800D004D005D0078A017A00800479007A0089038A065303FC7E00BBFC1ABE001790C4
:2007180000C8EFF09000C9E02401F0C005C0041200FAD004D00590026FE070319000CAE0D2
:20073800702A9000CBE0FEA3E0FFECC39EFEED9FFFC3EE94F4EF940140129000CBECF0ED43
:20075800A3F0900095E064FFF00200B8228C828D83C005C004121A06121603AF82D004D0E1
:20077800059000C4E0FEB507028035C005C004121603E5829000C4F0120435E582D004D002
:20079800059000C2F09000C3E4F09000C4E0FF8C1A8D1B8F82C005C0041202F8D004D00503
:2007B8008C828D83C005C004120342D004D0059000C5E060219000B3E0601B9000CBE0FEED
:1707D800A3E0FFECC39EFCED9FFDC3EC94B8ED940B4003020369225C
:1B353E000280402010002A54D2A87E00FF0100010000FFFF0000010001FF000A
:2007F000AF82BF01067E0F7F0080047E167F008E8222AF82BF01067E037F0080047E067F9F
:20081000008E8222AF827E007D00C3ED9F500EE56EC39DFC1C8E03EC2BFE0D80EDE56D2E52
:20083000C39F14F58222AE82AF837CFF7DFF7B00BB06028036BB07028031EB2EF582E43F24
:20085000F583E0FAE4F96204EA62057A08ED30E70EEC2CF8ED33F96300216301108006EC7B
:200870002CF8ED33F988048905DAE20BBB800040BF8C828D8322E582FF6020BF0400920392
:200890004007EF249A92035012BF680092034007EF248C92035004C2038002D203A203E42D
:2008B00033F58222858228858329E5232528F582E43529F583E0FD740F5DFCEDC4540FFDAC
:2008D000AA237B000ABA00010BEA2528F582EB3529F583E0FBEC24F05003020A6AEC240AC3
:2008F00083F582EC241483F583E4731B5050757575759ED6E936506A2EA5A50909090909F7
:2009100009090909090A0A0A090909ED7003EB6004C2048002D204A204E433F58222ED242D
:20093000FE9204400EEB24FC9204500BBBFD0092045004C2048002D204A204E433F58222B3
:20095000E525600BBC0203D38001C3920440098B82120886E5827004C2048002D204A2040F
:20097000E433F58222E525600BBC0503D38001C39204400DED700AEB6007EB24F8920450DE
:2009900004C2048002D204A204E433F58222ED600475820022E525B4010092048D04E43368
:2009B000C364808CF063F08095F09204400BBB8003D38001C392045004C2048002D204A2CC
:2009D00004E433F58222ED7007EB7004C2048002D204A204E433F58222ED7006C3EB95274F
:2009F0004004758200227C007A00C3EA9527502EEAB50307EC600475820122A82679008AC9
:200A1000067F00EE28F8EF39F9E82528F582E93529F583E0FFE4BF000104FC0A80CCE4BB2F
:200A3000000104F58222ED24FE92044006C3EB95244004C2048002D204A204E433F58222FE
:200A5000ED700AC3EB95245004E5256004C2048002D204A204E433F5822275820022858262
:200A70002B85832C753500E52A24FE406C852B82852C83E0FCBC4D61852B82852C83A3E0EB
:200A9000FCBC5055852B82852C83A3A3E0FCBC0248852B82852C83A3A3A3E0FC54F0703943
:200AB0007405252BFAE4352CFB8A828B83E0F920E72789005300017900AD2A7F00E8B505B4
:200AD00018E9B50714852B82852C83A3A3A3A3A3A3A3A3E0FF54F06004758200228C077410
:200AF000035F04F52DEC0303543FFC5304037E00A92D7D00C3EC99EE64808DF063F08095B3
:200B1000F0400475820022852A82C005C003C002C00112080285822E852A821207F08582AA
:200B30002FD001D002D0038A828B83E0C313FA743F5AF530A82F7A00AC2D7E00C001C004D7
:200B5000C00688828A831234FCAC82AE8315811581D001D00574092CFCE43EFEA8307A001E
:200B7000C006C005C004C001C000C0029000031234FCA882AA8315811581D001D004D00501
:200B9000D006E82CF8EA3EFA852B82852C83A3A3A3A3E0FE7C0028F8EC3AFA88368A37AB8B
:200BB00036AC37C374809BE49C500475820022852FF0E52DA4FC2409FBE53075F003A42B03
:200BD000F5318E327403B52E0474018001E4FA753300C3E533952D4003020CA3852FF0E52B
:200BF00033A42409F8753400C004852E3875390074032538FEE43539FFAB347C00C3EB9E19
:200C1000EC64808FF063F08095F0D0045060C004E534253488072FF52374012538FEE435A4
:200C300039FFAB347C00C3EB9EEC64808FF063F08095F0B39205E433F525852D24853126F1
:200C5000853227852B82852C83C005C004C002C001C0001208B4E582D000D001D002D004F8
:200C7000D005D0047003F582220534020BF8EA601D7F00740D28F8E43FFFE8252BF582EF2A
:200C9000352CF583E0FF54F06004758200220533020BE274092CFF8A067C00C3EC9530403C
:200CB00003020D56EF252BF582E4352CF583E0FB30E603020D48EBC4540FF85300037A0024
:200CD000C3E899EA64808DF063F08095F050698B0053000F7A00EE600875380375390080C9
:200CF0000675380F753900C3E89538EA64808539F063F08095F05040EC6006C3E5359B507E
:200D1000378F02EA04F523852D24752500853126853227852B82852C83C006C005C004C056
:200D300003C002C0011208B4E582D001D002D003D004D005D0067004758200228B3574032F
:200D50002AFF0C020CABE5326026AB317F00AD327E00ED2BFBEE3FFF1BBBFF011FEB252BD1
:200D7000FBEF352CFF8B828F83E06004758200227F00C3EF95324003020E0BAB317E008F5E
:200D9000047D00EC2BF9ED3EFAE9252BF9EA352CFA89828A83E0605FEC2BF9ED3EFAE9251C
:200DB0002BF582EA352CF583E0FABA09028048EC2BF9ED3EFAE9252BF582EA352CF583E0CF
:200DD000FABA0A028031EC2BF9ED3EFAE9252BF582EA352CF583E0FABA20004016EC2BFBCE
:200DF000ED3EFEEB252BF582EE352CF583E0FE24815004758200220F020D82AE36AF378E59
:200E1000048F05C3EC9480ED9400501AEE252BFCEF352CFD8C828D83E06004758200220E6C
:200E3000BE00DC0F80D9852B82852C83120836AE82AF83852B82852C83A3A3A3A3A3A3E070
:200E5000FD8E04B50416852B82852C83A3A3A3A3A3A3A3E0FD8F06B506028004C20580024D
:200E7000D205A205E433F582229000D0E0FF74035F04F582229000D0E00303543FFF740333
:200E90005FF582229000D2E0FF74015FF5820208029000D5E0FF740F5F75F005A4F58222E5
:200EB000AF829000D2E0FE74015EF582C0071207F0E582D007F5F0EFA42409F58222E582B4
:200ED00004F582120EB0AF827E001FBFFF011EEF24CDF582EE3400F583E0F58222AF82C0B1
:200EF00007120E94AE82C006120E79AD82D006D007C3EF9D5006C3E53A9E40047582062234
:200F10008F82C006120EB0AF82D006E4FDFC74032EFEE43CFCEE2EFEEC33FCEE2FFFEC3DFD
:200F3000FDE53AC3137C002FFFEC3DFDEF24CDF582ED3400F583E0FFE53A30E009EFC454D1
:200F50000FFD7E0080087C00740F5FFD7E008D8222AF82C007120E79AE82D007C3EF9E502D
:200F700025C007120E94AE82D0077D0074032EFEE43DFDAB3B7C00C3EB9EEC64808DF0631E
:200F9000F08095F0400BE53CF87600E53DF87600228F82120EB0AF82E53B253B2FFEA93C1C
:200FB00024CDF582E43400F583E0F7A93D7F000EBE00010FEE24CDF582EF3400F583E0F749
:200FD00022AF82C007120E94AE829000D2E0C313FD743F5DF542C006120E79120EB0AC824A
:200FF000D006D007E53FB53E028022C3E53E9E501CC3E53F9E5016C007C006C004120E79B4
:20101000AB82D004D006D007C3EF9B400475820022C3E53F953E5007AB3E853F3E8B3FEFB3
:20103000C454F0FF853F6D8E6E853E82C007C004120814AE82D004D007EE4207754300C3E1
:20105000E54395425064EC24CDF582E43400F583E0FBB50702801753038F7A008F0553056E
:201070000F7E00430580EBB50536EAB50632A9408C057E0074012DFAE43EFBEA24CDF58256
:20109000EB3400F583E0F7A94174022DFDE43EFEED24CDF582EE3400F583E0F77582012248
:2010B00005438C0674032EFC809575820022AF82E5442FFEC39F400A9000D1E0FFC3EE9FB4
:2010D000400475820022C006120E79120EB0AF82D0069000D2E0C313FD743F5D75F003A43C
:1910F0002FFDE4FFFCEE2DFDEC3FFFED24CDF582EF3400F583E0F5822231
:20355900FF0000FF1607FF1000FF4200FF7C003CFF0064C8141D7B4300FFC8005BFF0000F5
:10357900FF7300B4FF00C2FF0048FFFFFF00000017
:20110A00AF827408B54602800EE56E6034AE46C3EE64809481402AE56E60129001A1E0FEC9
:20112A00BEFF0280189001A1EE04F080109001A0E0FEBEFF0280069001A0EE04F07582004C
:20114A002290019EE075F002A4248EF582740135F0F583EFF090019EE075F002A4248EFE65
:20116A00740135F0FF8E828F83A3E56DF090019EE0045407F00546758201227F007E00EE17
:20118A002469F582E43401F583E0FD42070EBE090040EC7E00EE245BFCE43401FD8C828DF1
:2011AA0083E06025EE244DF582E43401F583E0FD53050F7C00BD0511BC000EEE2454F5829C
:2011CA00E43401F583E0FD42070EBE070040C6E54C60079001A5E0FE42078F8222AF82C05C
:2011EA0007121185AE82D007BF0E09E54EFC3395E0FD80047C007D00BF0F09E54EFD339539
:20120A00E0FF80047D007F008D608C5F7561008E820227E9E582FF7004758201227E02EE33
:20122A00247AFCE43401FD8C828D83E0FBB5070475820122EB700A8C828D83EFF0758201C7
:20124A00220EBE080040D8758200227F007E00EE247AF582E43401F583E4F00EBE080040E4
:20126A00EE7E00EE245BFCE43401FD8C828D83E06040EE244DF582E43401F583E0FDFB5349
:20128A00030F7C00BB022BBC002890017AE0FCEDC4540F420490017AECF0EE2454F582E401
:2012AA003401F583E0F582C007C00612121ED006D0070EBE070040AB9001A67401F0E54C19
:2012CA00603B9001A3E0FE53060F7D00BE012EBD002B9001A4E0F582C00712121EAE82D008
:2012EA00079001A6EEF0EE601490017AE0FE9001A3E0C4540FFD420690017AEEF07E00EEA8
:20130A00247AF582E43401F583E0FDEE2472F582E43401F583E0FCEDB5040280027F010E20
:20132A00BE080040DAEF602E90017A12273FE5827003F582227F00EF2472FDE43401FEEF49
:20134A00247AF582E43401F583E0FC8D828E83F00FBF080040E1121185E582FFB545028070
:20136A001B755F007560007561008F82C0071227E9E582D0077003F582228F457582012297
:20138A00AF8274FFB54902800D8549477549FFC00712146FD0078F0553050F7E00BD0004D3
:2013AA00BE000122BD0204BE000122BD0504BE000122BD0605BE00028017BD0A05BE00024C
:2013CA00804DBD0B04BE000122BD0D4EBE004B801AE5512469FDE43401FE8D828E83E0FCFB
:2013EA00E54F62048D828E83ECF022E54F6036C007120E79AE82D007E54F2547FD240CF538
:20140A004FC3E54F9E4008E54FC39EF54F80F2EF30E403854749854F4722854F6D85506E6F
:20142A008F8202110A22900189E0FFE07001221F900189E4F0EF245BF582E43401F58374EF
:20144A0001F0EF244DF582E43401F583E0FEEF2454F582E43401F583E0F54F7550008F5113
:20146A008E8202138AAF477E007D00ED245BFBE43401FC8B828C83E06035ED244DF582E4FC
:20148A003401F583E0FC53040F7B00BC0B21BB001EED2462F582E43401F583E0FCC39E401F
:2014AA000E8C06ED2454F582E43401F583E0FF0DBD070040B6EFB54801228F487F00EF24F7
:2014CA0069F582E43401F583E4F00FBF090040EE75460090019EE4F090019FF0AE4A530689
:2014EA000F7F00BE0812BF000F7404B54B0280057405B54B03754D01754A00754B00754C30
:20150A00009001A5E4F012143002146F120E858582478547487549FF900189E4F090018217
:20152A00F09001A0F09001A1F07F00EF2483F582E43401F583E4F00FBF060040EE90019E4C
:20154A00E4F090019FF0F546F54AF54BF54D9001ABF0F54C9001A5F0F54512266FE5829026
:20156A00018DF07F00EF245BF582E43401F583E4F0EF2462F582E43401F583EFF0EF244D5E
:20158A00F582E43401F583E4F0EF2454F582E43401F583E4F00FBF070040CA7F00EF246948
:2015AA00F582E43401F583E4F00FBF090040EE7F00EF2472F582E43401F583E4F00FBF088A
:2015CA000040EE2212267612151690017274FFF0F54590000012286FE582B401009206E455
:2015EA0033F54D021255E58260079001A1E0FF80059001A0E0FF8F822285488222E5822460
:20160A0062FEE43401FF8E828F83E0FD7C00EC2462FAE43401FB8A828B83E0F9C3ED9950C1
:20162A0007198A828B83E9F00CBC070040E08E828F837406F022AF82C007120E94858256E7
:20164A00D007C3E5569F40248FF005F07C017D008006EC2CFCED33FDD5F0F7900182E0FBD9
:20166A00F97A005204EA5205EC4D6001228F058DF005F07401800225E0D5F0FB9001824B7A
:20168A00F0C3EF9556E433FC6010EF2483FAE43401FB8A828B83E0600122900189E0FBE03A
:2016AA0070030217BEEC700874FFB549030217BE1BEC70030217AC90018BE0F9A3E0FAE591
:2016CA0052C399F9E5539AFAC007C005C004C003C002C001120EA1A882D001D002D003D0C6
:2016EA0004D005D0077E00C3E998EA9E40030217AC90018AE0FE7540547541558B3E8F3F3A
:20170A008E82C007C005C004C003120FD1E582D003D004D005D00770030217AC900189E4BA
:20172A00F0EB2483F582E43401F583ED04F0EF2483F582E43401F5838B060EEEF0EB244DBD
:20174A00F582E43401F583E554F0EB2454F582E43401F583E555F0EF244DF582E43401F5D4
:20176A0083E4F0EF2454F582E43401F583E4F0EF245BF582E43401F583E4F0EB245BF5829A
:20178A00E43401F5837401F08B82C003121607D00385554F7550008B5185548212138A02A1
:2017AA00146FC007C005C00412143012146FD004D005D007753C54753D558F3B854882C0FC
:2017CA0007C005C004120F61D004D005D007EF244DFBE43401FE8B828E83E554F0EF24544D
:2017EA00F9E43401FA89828A83E555F08F82C007C006C005C004C003C002C001121607D025
:20180A0001D002D003D004D005D006D007EC6071C007C006C005C003C002C001120EA1E5C7
:20182A0082D001D002D003D005D006D00760527C00C3EC9556504A7540547541558F3E8C55
:20184A003F854882C007C006C005C004C003C002C001120FD1E582D001D002D003D004D021
:20186A0005D006D0076017900189ED04F090018AE548F090018BE552F0E553A3F0220C8046
:20188A00B0EF245BF582E43401F5837401F08B828E83E0FB89828A83E0F54F7550008F51D9
:2018AA008B8212138A02146FE582FF244DF582E43401F583E0FE53060FEF245BFDE4340134
:2018CA00FF8D828F83E06018BE02028003BE05067C027E0080047C007E008D828F83ECF001
:2018EA0022AF82C007120E94AE82D007C3EE9F5001228F068EF005F07401800225E0D5F07D
:20190A00FBF4FE900182E05EF08F057E000DBD00010E900189E07B00B5050EEBB5060AC0F7
:20192A000712143012146FD0078F82C0071218B2120E94AE82D007C3EF9E5057EF2483FEDA
:20194A00E43401FF8E828F83E0FD60471D8D82C007C006C0051218B2D005D006D0078DF066
:20196A0005F07B017C008006EB2BFBEC33FCD5F0F7900182E0F97A005203EA5204EB4C7060
:20198A00128E828F83E4F0ED2483F582E43401F583E4F002146FAF82C007120E94AE82D094
:2019AA0007EF60067C017D0080047C027D00EC2EFE900189E0601574FFB54902800EC007F9
:2019CA00C00612143012146FD006D007753C57753D588E3B854882C007120F61D007EF6006
:2019EA00067E077F0080047E087F008E5185584F75500185578212138A02146FAE82AF8385
:201A0A00900189E0603B90018BE0FCA3E0FDEEC39CFCEF9DFDC007C006C005C004120EA106
:201A2A00AB82D004D005D006D0077A00C3EC9BED9A400EC007C00612143012146FD006D062
:201A4A0007C007C00612266FAD82D006D00790018DE0FCB505028019C007C00612266FE5FD
:201A6A0082D006D00790018DF090017274FFF0F545E54D6018900000C007C00612286FE52A
:201A8A0082D006D0076005754D00800122C007C006121255E582D006D007700122E54A70F7
:201AAA0026E5467022C007C00612287EAD82D006D007ED70128E059001ABE0FCEDC39CFDB5
:201ACA00BD080092075004C2078002D207A207E433FD60059001ABEEF07C00EC245BF5828C
:201AEA00E43401F583E0FBBB0251EC244DF582E43401F583E0F953010F7A00B9022FBA00A3
:201B0A002CEC2454F582E43401F583E0FA601E7902E92472F582E43401F583E0F8B5020238
:201B2A00800609B9080040E9B908028051EC245BF582E43401F583E4F08043ED6040EB60AC
:201B4A003DEC244DF582E43401F583E0FBF95301FE7A00B91E28BA002553030FEC2454F59D
:201B6A0082E43401F583E0F54E8B82C007C006C005C0041211E7D004D005D006D0070CBCDA
:201B8A0007005003021AE5C007C006121255E582D006D007700122E54A7054E546605090D5
:201BAA00019FE0FD75F002A4248EFB740135F0FC8B828C83E0F54A8B828C83A3E09001A243
:201BCA00F0ED0490019F5407F01546754B009001A8E4F0AC4A53040F7D00BC0409BD000612
:201BEA007C027D0080047C017D009001A7ECF0E54A700122E54A540FFDE54B6003021D6DDE
:201C0A00C007C006C00512287EE582D005D006D007600122BD07569001A2E0FC7003F54A69
:201C2A0022C004121185AB82D004EC33E433FA600678FF79FF8004780179008861755F0053
:201C4A007560008B82C004C0021227E9E582D002D004700122EA6005EC04FB8003EC14FB98
:201C6A009001A2EBF0EB600122754A0022BD0E028003BD0F219001A2E0F54E8D82C007C0D4
:201C8A00061211E7E582D006D0077001229001ABEEF0754A0022BD082BAB4AE4CBC4540FCD
:201CAA006BCB540FCB6BCB8B047B009001A2E07A004BF582EA4CF58312286FE582700122D6
:201CCA00754B04229001A3E54AF09001A2E0FC9001A4F09001A5E4F0BD09489001A8E0F567
:201CEA00448C82C007C0061210BEAC82D006D007EC7003F54A228C82C007C006122A6CAC91
:201D0A0082D006D007EC30E7067A207B0080047A007B009001A374014AF09001A4747F5C8C
:201D2A00F08010BD03028003BD04089001A2E09001A5F0754C01C007C006121255E582D0D3
:201D4A0006D00760069001A6E07001228E038F0474082BFBE43CFC9001A9EBF0ECA3F075A1
:201D6A004B01227401B54B289001A9E0FBA3E0FCEEC39BEF9C30E7012212287EE582600129
:201D8A0022754C00121255E582700122754B02227402B54B46C007C006C00512287EE582D2
:201DAA00D005D006D007600122BD090B9001A8E02401F0754B00229001A7E014F0E06017C0
:201DCA008E048F0574C82CFCE43DFD9001A9ECF0EDA3F0754B0322754A00227403B54B3747
:201DEA009001A9E0FCA3E0FDEEC39CFCEF9DFD20E74D754C01C007C006121255E582D00618
:201E0A00D007603B74082EFEE43FFF9001A9EEF0EFA3F0754B01227404B54B1512287EE5D5
:201E2A0082701C90000012286FE5826012754B05227405B54B0912287EE5827002F54A221D
:201E4A007F00EF24CDFDE43400FE8F82C007C006C0051223A8AC82D005D006D0078D828E79
:201E6A0083ECF00FBF800040D9752A009000CD120A6EAF8290026EEFF090026FEFF090028A
:201E8A006CE4F0900270F090026DF02290026D7401F022AE82AF8390026CE0700690026DBA
:201EAA00E06004758200227D00ED24ACFBE43401FCED2EF582E43FF583E08B828C83F00D4B
:201ECA00BD200040E490026C7401F0758201229001B0E0FF9001B2E0F5599001B3E0F55A76
:201EEA009001ACE0FCBC03169001ADE0FCBC550E9001AEE0FCBC4D069001B4E06004758207
:201F0A0004229001AFE0FCBC0102800475820122E55A24E8500475820322BF05028003BF55
:201F2A000606AB5A7C0080047B007C0074092BFCBC20005016EC24ACFAE43401FB8A828B48
:201F4A0083E06004758204220C80E5E4BF030104FC7008BF04028003BF061EE55A6016AA79
:201F6A005A7B00A8597900EA28F8EB39F9C3748098E499503175820322E5596003BF0922ED
:201F8A00BF05117403B55A03D38001C3B39208E433FB800BE55AB40100B39208E433FBEB9A
:201FAA00600475820322EF24F650030222BBEF240A83F582EF240E83F583E473BBDA339674
:201FCA0096FB2EEFB495221F20202020212122229001D3740EF09001D57455F09001D674E9
:201FEA004DF09001D77441F09001D87443F09001D97401F09001DA04F09001DBE4F090017E
:20200A00DC7406F0E0FF9001DDF09001DE7404F09001DF7480F09001E07403F09001E1744A
:20202A00FFF09001E2F00222BF9001D37406F090026EE09001D5F090026FE06009121603E8
:20204A00AB827F0080047B007F009001D6EBF090026FE06009120E85AB827F0080047B0070
:20206A007F009001D7EBF0900270E09001D8F07582001215F0AF829001D9EFF075820112C7
:20208A0015F0AF829001DAEFF00222BF9001D3E55AF0755B00C3E55B955A40030222BFABAD
:2020AA005B74092BFB3395E0FAEB24CCFBEA3401FAEC6019E55B2559F582C004C003C002A4
:2020CA001223A8A982D002D003D004801AA8597F00AD5B7E00ED28F8EE3FFFE824CDF5824C
:2020EA00EF3400F583E0F98B828A83E9F0055B80A49001B5E0FFBF80028004758203229055
:20210A0001B6E0FF9001B7E0FD7E007C00900272EE4FF0ED4CA3F0900271E4F09002700426
:20212A00F00222BF900270E0FFBF0102800475820522900271E0FFB559028063AD5A7E0023
:20214A00AB597C00ED2BFBEE3CFC7E00C3EF9BEE9C500475820A227F00C3EF955A4003028B
:20216A0022BFAD597E008F037C00EB2DFDEC3EFEED24ECF582EE3401F583E0FE8F057409A7
:20218A002DFD3395E0FCED24ACF582EC3401F583E0FDEEB50502800475820A220F80BA7FA4
:2021AA0000C3EF955A5034AD597E008F037C00EB2DFDEC3EFEED24ECFDEE3401FE8F0474FF
:2021CA00092CFC3395E0FBEC24ACF582EB3401F583E0FC8D828E83F00F80C6900271E0250D
:2021EA005AF00222BF900270E0FFBF02030222BFBF010A900271E0FFBF80028004758205B3
:20220A00229001EC120836AE82AF83900272E0FCA3E0FDEEB5041AEFB505169001F2E0FD23
:20222A008E04B5040C9001F3E0FD8F06B50602800475820722752A009001EC120A6EE582D9
:20224A007004758206229001EC12241EAF8290026EEFF0EF7004758209227F00EF24CDFD1F
:20226A00E43400FEEF24ECF582E43401F583E08D828E83F00FBF800040E290026F7401F071
:20228A001205929002707402F0802AE5596013AE595306067F00BE0405BF000280047582E0
:2022AA0003228559821202CA800B900270E4F080047582022275820022AE82AF8390026D37
:2022CA00E06014900270E4F090026CF012059290026DE4F00225ED900270E0601D900274E7
:2022EA00E0FCA3E0FDEEC39CFCEF9DFDC3EC9488ED94134005900270E4F090026CE07001DD
:20230A002290026CE0FDBD0102800302238E7D00ED24CCF582E43401F583E4F00DBD2000A0
:20232A0040EE9001CC7404F09001CD7455F09001CE744DF09001CF7401F09001B0E0900102
:20234A00D0F09001B1E09001D1F09001B2E09001D2F0C007C006121ED9AD82D006D00790C7
:20236A0001D4EDF0ED70179001B0E0FDBD0500400DED24F74008900274EEF0EFA3F09002B8
:1D238A006C7402F090026DE070129001CC12256CE582600890026CE4F00225ED222C
:2023A800023426AF82C0071223A8AE82D007EEB51E028019A2AF9209C2AF900303E51EF09B
:2023C8008F82C0071233F0D007A20992AF8F821223A8E582B51E0474018001E4F58222AED8
:2023E80082AF837D008D82C007C006C0051223A8AC82D005D006D007ED2EF582E43FF58389
:20240800E0FBECB503028004758200220DBD800040D375820122AE82AF83C007C0061223FB
:20242800E7E582D006D007600475820122751E00758200C007C0061223ABE582D006D00710
:202448006015751E00758201C007C0061223ABE582D006D0077004758200227D02ED2EF5D7
:2024680082E43FF583E0F51E8D82C007C006C0051223ABE582D005D006D0077003F582220E
:202488000DBD800040D7751E50758201C007C0061223ABE582D006D0076015751E4D75822B
:1B24A80000C007C0061223ABE582D006D0077004758200228E828F830223E7DD
:04000000020049327F
:03000B0002343686
:0100130032BA
:01001B0032B2
:0100230032AA
:01002B0032A2
:01003300329A
:01003B003292
:030043000224C4D0
:0E00A2007808E4F608F608F608F6780C760002
:0300B40002004601
:030046000225038D
:2024C400C022C0E0C0F0C082C083C007C006C005C004C003C002C001C000C0D075D000123E
:2024E40032F8D0D0D000D001D002D003D004D005D006D007D083D082D0F0D0E0D022321227
:0E25040034C712064A12067B80FB7582002245
:202512001233881233B21233A175DD0075D3002275D30074FC55D24402F5D2900305E4F0EB
:202532002230DE357402B5DB1190000AE0FFBF010990000BE0900304F0227420B5DB1A90D9
:20255200000AE0FFBF031290000A121E9DE582600874F355D24408F5D222D310AF01C3C09D
:20257200D0AE82AF839002CA7401F0900302E0601F900305E070199002C8E060069002CB64
:20259200E0600DACD25304037D00BC0308BD000575820080417D008D037C0074402BFBE4FF
:2025B2003CFCEB240AFBEC3400FCED2EF582E43FF583E0FA8B828C83F00DBD200040D890FC
:2025D20002CAE4F09002CBF075D32090030504F053D2FC758201D0D092AF22D310AF01C396
:2025F200C0D0AED253060C7F00BE0C05BF0002800353D2F3D0D092AF22E582900304F02297
:202612009002CCE4F09002CDF09002CEF09002CFF09002D0F09002D5F0A3F09002D3F0A352
:20263200F09002D1F0A3F07F00EF24D7F582E43402F583E4F00FBF080040EE9002DFE4F023
:202652009002E0F0A3F0900305F09002C9E02401F09002CAE4F09002CBF00226769002C925
:20267200E0F58222D310AF01C3C0D09002C8E4F09002C6F09002C7F0D0D092AF22AF829066
:2026920002C8E0FEBE08028006900302E07004758200229002C6E024BEF582E43402F5830D
:2026B200EFF09002C6E0FF0F74075FF09002C8E02401F075820122AE82AF839002C8E0FD17
:2026D200BD08028006900302E07004758200229002C6E075F009A42476F582740235F0F5AE
:2026F200837401F07D009002C6E075F009A42476FB740235F0FC8D02EA042BFBE43CFCED41
:202712002EF9E43FFA89828A83E08B828C83F0ED24D7FBE43402FC89828A83E08B828C8352
:20273200F00DBD080040BF75820902268FD310AF01C3C0D01226C9D0D092AF22AF82900262
:20275200C8E0FEBE08028006900302E07004758200229002DFEFF09002C6E075F009A424B3
:2027720076F582740235F0F5837402F09002C6E075F009A42476FD740235F0FE8D828E8347
:20279200A3EFF09002C6E075F009A42476FE740235F0FF8E828F83A3A3E55CF09002C6E058
:2027B20075F009A42476FE740235F0FF8E828F83A3A3A3E55DF09002C6E075F009A42476A2
:2027D200FE740235F0FF8E828F83A3A3A3A3E55EF075820502268FD310AF01C3C0D0855FF1
:2027F2005C85605D85615E12274ED0D092AF22AE82AF839002C8E0FDBD08028006900302E0
:20281200E07004758200229002E0EEF0EFA3F09002C6E075F009A42476F582740235F0F57C
:20283200837405F09002C6E075F009A42476FC740235F0FD8C828D83A38E05EDF09002C699
:20285200E075F009A42476FC740235F0FD8C828D83A3A38F06EEF075820302268FD310AF2C
:2028720001C3C0D0122801D0D092AF229002C8E0700A900305E07004C20A8002D20AA20A3E
:20289200E433F58222D310AF01C3C0D0AE82AF839002C8E0600302298C9002D0E0FD0D7519
:2028B2006200BD01079002CCE0FB8011BD02079002CEE0FA80059002CFE0FA8A03BD010A00
:2028D2009002D1E0F9A3E0FA8019BD020A9002D3E0F8A3E0FC80089002D5E0F8A3E0FC8841
:2028F200018C028904EB7003022979EEC39CFCEF9AFA8B017B00E929F9EB33FBE929F9EBBB
:2029120033FBC3EC99EA9B405EBD03067B007C0080048D037C009002D0EBF0BD0110900222
:20293200D7C007C0061226C9D006D007804CBD021D9002DFE0FC755C00755D00755E008C7C
:2029520082C007C00612274ED006D007802C9002E0E0FBA3E0FC8B828C83C007C0061228C7
:2029720001D006D00780130DED24FC50027D01056274FD256240030228B4900302E06025A0
:20299200900305E0701F9002C8E060199002CAE060069002CBE0700DACD25304037D00BCFE
:2029B2000306BD0003022A677D009002C7E0FC24BEF582E43402F583E0FBC3ED9B50328DD7
:2029D200027B0074402AFAE43BFBEA240AFAEB3400FBEC75F009A42476F8740235F0F9ED39
:2029F20028F582E439F583E0F98A828B83F00D80B9EC75F009A42476F582740235F0F58346
:202A1200E0FDBD010A9002D1EEF0EFA3F08018BD020A9002D3EEF0EFA3F0800BBD05089031
:202A320002D5EEF0EFA3F09002CB7401F09002C7E0FF24BEF582E43402F583E0F5D30F9021
:202A520002C774075FF09002C8E014F09003057401F053D2FCD0D092AF22AF82BF800040C2
:202A72000475820022EF90358993F58222E582FF7017AE6D9002CDEEF09002CFEEF09002A8
:202A9200CEEEF09002CCEEF022BF01079002CCE56DF022BF02079002CEE56DF022BF05063B
:202AB2009002CFE56DF022E582FF70079002CDE0F58222BF01079002CCE0F58222BF020724
:202AD2009002CEE0F58222BF05079002CFE0F5822275820022AF82AD6EAE6F8D828E83EFD5
:202AF200F0BF0143E56D601474012DFBE43EFC900304E08B828C83F0758202227C008C02A8
:202B12007B000ABA00010BEA2DFAEB3EFBEC24D7F582E43402F583E08A828B83F00CBC0879
:202B32000040DB75820922E56D7039BF023674012DFBE43EFC9002DFE08B828C83F07402C6
:202B52002DFBE43EFC74032DF9E43EFA8D828E83A3A3A3A3E4F089828A83F08B828C83F0D0
:202B720075820522E56D702FBF052C74012DFCE43EFF9002E0E0FAA3E08C828F83EAF07448
:1B2B9200022DFDE43EFE9002E0E0A3E0FC8D828E83ECF07582032275820022DA
:2035890000000000000000002A2B28000000000000000000000000000000000000000000A5
:2035A9002C9EB4A0A1A2A434A6A7A5AE362D3738271E1F20212223242526B333B62EB7B8C5
:2035C9009F8485868788898A8B8C8D8E8F909192939495969798999A9B9C9D2F3130A3ADB6
:2035E900350405060708090A0B0C0D0E0F101112131415161718191A1B1C1DAFB1B0B5001B
:02374C0000007B
:20360900120110010000000809125DC500010102030105010906A1018501050719E029E7DE
:203629001500250195087501810295017508810395067508150026FF000507190029E78111
:203649000005081901290515002501950575019102950175039103C005010902A10109010F
:20366900A100850205091901290315002501950375018102950175058103050109300931EC
:2036890009381581257F750895038106C0C00600FF0901A10185030902150026FF0075088F
:2036A900951F910285040903951F8102C0050C0901A1018505150026FF0F19002AFF0F75D8
:2036C9001095018100C009022900010100806409040000020300000009211001000122B4BC
:2036E900000705810320000A0705010320000A040309041C0343004800350035007800200D
:20370900006B006200640020006D006F007300260355006E0069007600650072007300618A
:20372900006C0020004D006100630072006F007000610064000E0344006500710069006ECB
:0337490000670016
:0300B000756B006D
:202BAE00AFDB7D007E008E66BF080280030230D5900007E0FC7F00900006E0FB7A004FF51A
:202BCE0063EA4CF5648F6C900001E0F5658F6B900000E0FC54607003022D87900000E0FC80
:202BEE005304607B00BC2005BB00028011BC4005BB00028003022D81756CFF0230D89000FB
:202C0E0004E07006900005E06006756CFF0230D87409B5653F900000E0FCBC21379000039E
:202C2E00E0FCBC022F900002E0FCBC030CAB63AC64BB2005BC00028012900002E0FCBC010B
:202C4E0013AB63AC64BB020CBC00098563667567000230D8740AB56551900000E0FCBC2141
:202C6E0049E56345647043900002E0601C900002E0FCBC01028012900002E0FCBC020280FE
:202C8E0008900002E0FCBC0521900302E0601B900002E0FC900003E0F56D8C82C006C00502
:202CAE00122A7FD005D0060230D87402B5655E900000E0FCBCA156900002E0601C90000209
:202CCE00E0FCBC01028012900002E0FCBC02028008900002E0FCBC0534900003E0702EABE4
:202CEE0063AC64BB0127BC0024900302E0601E900002E0F582C006C005122AB9AC82D00531
:202D0E00D006900000ECF0756C010230D87401B5655B900000E0FCBCA153900003E0FCBC46
:202D2E0001028008900003E0FCBC0241900302E0603B900002E0FC900003E0FBE4BB0201FE
:202D4E0004F56D756EE2756F028C82122AE7AC828C057E00ED4E600F7568E2756902756ABE
:202D6E00007565060230D8756CFF0230D8756CFF0230D8756CFF0230D8E56524F4500302E6
:202D8E0030D0E565240B83F582E565241083F583E4731F9FD09FD099B8D0A6C40D0D302FE1
:202DAE00302F302E2D302E2E2F2F900003E0FCBC01028019BC02028024BC0302802FBC21B9
:202DCE0003022E61BC2203022E71022E93756809756936756A807D127E000230D87568CFF0
:202DEE00756936756A807D297E000230D8900002E0700B7568F8756936756A80803F9000A0
:202E0E0002E0FCBC010B75683E756937756A80802C900002E0FCBC020B756818756937750D
:202E2E006A808019900002E0FCBC030B7568FC756936756A808006756CFF0230D8AA68AB50
:202E4E0069AC6A8A828B838CF012351EFAFD7E000230D87568E1756936756A807D097E0036
:202E6E000230D8900002E0701675681B756936756A809036E8E493FDA3E493FE0230D8751E
:202E8E006CFF0230D8756CFF0230D8900002E0FC8C637564000230D8900302E0900000F090
:202EAE00AB63AC64C3EB9401EC940050030230D8756C010230D8900000E07021900003E066
:202ECE00701B900002E0FC24FE4012900004E0700C900005E07006E56345646006756CFF65
:202EEE000230D8900002E0900302F0C006C005122612121E96D005D00675D2120230D8908A
:202F0E000004E07075900005E0706F900002E07069900003E07063900302E0605D740AB590
:202F2E00650474018001E4FC602C900000E0FBBB8103D38001C3920B5013AA63AB64BA0120
:202F4E0006BB0003D38001C3920B100B02D20BA20BE433FB8021900000E0FABA0103D38016
:202F6E0001C3920B500AE56345647004C20B8002D20BA20BE433FBEB6006756CFF0230D8FD
:202F8E00EC70030230D8900000E4F0756C010230D8900000E0FCBC0218900002E0701290A4
:202FAE000003E0700C900005E07006E56345646006756CFF0230D8900004E0FCBC8129742E
:202FCE0003B5650B74FC55D24403F5D20230D874BC55D24402F5D2C006C005122612121EA3
:202FEE0096D005D0060230D8900004E0FCBC011B747355D2FC7403B565067A0C7B0080040A
:20300E007A007B00EA4CF5D20230D8756CFF0230D8900004E0FD7E00900000E0FCBC824DD6
:20302E008D038E04BB8117BC0014A9D2530103E4FAB90304BA000104F9FD7E00804ABB0114
:20304E0017BC0014A9D253010CE4FAB90C04BA000104F9FD7E008030ED4E6006BB8009BC75
:20306E0000067D007E008020756CFF805D900000E0FCBC80028008900000E0FCBC8104ED18
:20308E004E6005756CFF8042900005E0700C900002E07006900003E06005756CFF802B8D04
:2030AE0004900000ECF0900001E4F0AB63AC64C3EB9402EC94004005756C02800D85636C42
:2030CE008008756CFF8003756CFF74FFB56C02806F7406B5656AC3ED9563EE956450048D24
:2030EE00638E64AD63AE64C3ED9408EE9400920B40067B087C008004AB63AC648B6C7C0086
:20310E00C3EC956C50208C027B00EC2568F8E43569F9AF6A888289838FF012351EF88A8275
:20312E008B83F00C80DAAC6C7F00EDC39CFDEE9FFE8D638E64E56C2568F568E43569F569B5
:20314E0074FFB56C077565FF75DCCF22E56C24F74017856CDDE56660067E027F0080047E68
:20316E00007F0074C04EF5DC2275DD00E56660067E027F0080047E007F0074C04EF5DC2255
:20318E007405B56502806E7406B565028003023211AE63AF64C3EE9408EF9400920C400668
:2031AE007C087D008004AC63AD648C6D7D00C3ED956D50208D027B00ED2568F8E43569F9CD
:2031CE00AC6A888289838CF012351EF88A828B83F00D80DAAC6D7D00EEC39CFEEF9DFF8E71
:2031EE00638F64E56D2568F568E43569F569856DDD63DC4022E5E35480FFE5634FF5E37560
:20320E00DC022275DD0075DC022220DE01227409B5650280030232E6E56670030232E6E5C5
:20322E00DB24F750030232E6AE677F00ACDB7D00EC2EFEED3FFFAC667D00C3EC9EED648095
:20324E008FF063F08095F050030232E67F00C3EF95DB5019EF256724E2FDE43402FE8F826B
:20326E00758300E0FC8D828E83F00F80E1E5DB2567F567E566B567477420B5661C9002E257
:20328E00E0FFBF03149002E2121E9DE582600A74F355D24408F5D2801C7402B566139002E6
:2032AE00E2E0FFBF010B9002E3E0F58212260B800475DCCF2275660075DD0075DC48227443
:2032CE00F825DB40077565FF75DC0F2263DC8074F055DC4402F5DC2275DD00E56660077540
:2032EE0065FF75DC0F2275DC022220D90302335EE5D9540F6002802CAED95306307F00BE5A
:20330E000005BF00028013BE2005BF00028010BE303CBF0039122BAE8034123218802F1234
:20332E00318E802AAED953060F7F00BE0120BF001DE5D95430600280051225338010AED943
:20334E005306307F00BE2006BF0003122522C2D930D81A121E9612261275DC0275D212756A
:20336E00E300C2DAC2D9C2D8900302E4F010DA0122E5DA20E20375D8FF2275E20053E27FD8
:20338E0043E22975E30053E2BF53D1FB75D18043D1012243E10443E10243E10143D81FD2EA
:1E33AE00EAD2AF227E007F008EEC8FED7E0A7F008EEE8FEF75D21275EAC075DC022293
:2033CC00ABF0A2AFE433FEC2AFE0A37A0833D2B44002C2B47905D9FEC2B4DAF1DBEBEE604F
:0433EC0002D2AF2238
:2033F000AF82BF800040012275A15575A1AA43B10475A1007585C0EF2FF584900303E0F5F5
:203410008EE58630E60375869A75A15575A1AA53B1FB75A10022AF827585C0EF2FF584759C
:06343000868E858E8222CB
:06007800E478FFF6D8FD5C
:200056007902E94400601B7A0190374C780475A003E493F2A308B8000205A0D9F4DAF275C4
:02007600A0FFE9
:20343600C0D075D00808B8000D09B900090ABA00050BBB00010CD0D032A2AFC2AFA808A978
:2034560009AA0AAB0BAC0C92AF75F020E8A4A8F075F020E9A428F582A8F075F020EAA428BD
:20347600F583A8F075F020EBA428F9A8F075F020ECA42889F022AE82AF83C374019EE49FC6
:2034960040022200C374029EFE74009FFF00BE0005BF000200220000000000000000000025
:2034B600000000000000000EBE00EB0FBF00ED002275A15575A1AA74F855B94406F5B97550
:2034D600A10090138812348C759E5D759D0074F055894402F58953C9EF758C06C28DD2A9D4
:0534F600D28CD2AF22D0
:2034FC0074FE2581F8E68582F0A4C0E08582F018E6A4F582D0E025F0C58386F0A42583F5AB
:02351C00832208
:20007E007800E84400600A799475A000E4F309D8FC7870E84402600C7903900094E4F0A3E5
:04009E00D8FCD9FAB7
:0D00490075816F12353AE5826003020046B2
:1C351E0020F71430F6148883A88220F507E6A88375830022E280F7E49322E022BC
:04353A007582002274
:00000001FF
