:200096007E137F017D007C004305098E828F838DF0EC0234967F00BF0900500FEF2413F5D7
:2000B60082E43401F583E4F00F80EC020096E582FF7003F58222EFC4540FFF74014FF5826E
:2000D60022AF82789AE2FEBE030774015F04FF80028E078F8222201106789CE2700122120A
:2000F60018E8858226789CE26006789CE2FE8008852682121196AE82EE0303543FFD5305F3
:2001160003EEC4540FF5277896E2F5288E82C006C0051200D7858229D005D006789BE2F53F
:200136002A7898E2F52B789CE2601874015E04F529300016900143E0C4540FFE74035EF521
:200156002B8007E5297003F528FD7403B52A03752A027B137E01E52B24D5F530E43435F5C5
:20017600317403B52B0474018001E4F532740FB52703D38001C39201EDB40100B39202E403
:20019600BD030104F533BD0303D38001C3920374015528F534E4F535BD020104FD752C0062
:2001B60074FD252C500302009685273685292D3001123000058533378006A202E433F537EB
:2001D600E5377004C2048002D204A204E433F52E20005BE528600EED6054E5344535604EA3
:2001F600752D008049E52A603CE52C2423FAE43401FC8A828C83E0602C852C51852682C0F6
:2002160006C005C0031211B5AC82D003D005D0068C36BC0F08900140E0FC20E708852A2D89
:20023600752E008009852736200303752D00E52D7007F52FFAFC0202EAE52E6065E52C90C8
:2002560035CF93FF853082853183E4938FF0A42525F537E532600FE52C9035D2932482F912
:20027600E7FF2537F53774AB2537400E7A00E53775F003A4F52FF4FC805A7456253740112A
:20029600E53724ABFF7C0075F003A4FAF4F52F8043E537FF245675F003A4FCF4FA752F00D2
:2002B6008032C005E53675F003A424F2FD743535F0FF8D828F83E493FC0DBD00010F8D822D
:2002D6008F83E493FA0DBD00010F8D828F83E493F52FD0057401B52D338C82C006C005C037
:2002F60003C0021200C4AC82D002D0038A82C004C0031200C4AA82852F82C0021200C48592
:20031600822FD002D003D004D005D0068B828E83EAF08B828E83A3ECF08B828E83A3A3E514
:200336002FF074032BFBE43EFE052C0201B6AF82E57D2FFFE57EFE2F2E2EFFC3EF957E4030
:2003560007EFC3957EFF80F38F8222AF82BF8000404EC200E538C454F0FE43060AEFC454D9
:2003760001B401009205E4334E789CF274EF5FFE247F789625E0F2BE8106789CE24404F2D2
:20039600BE8007789CE4F27896F2123519AB82E583FCC313CB13CB747D2B7897F20200EC9D
:2003B600E538FE30E304EE24F0FE74015FF539BF0B00406B789AE2FC789BE225E025E0FB94
:2003D6004204BF0C347B00EB9035ED93B5040280060BBB050040F08B02BB05087A00EE20FE
:2003F600E7027A048E7D757E058A82C007C004120344858238D004D007E5389035ED93F54C
:2004160038BF0D07ECB5380375380FAC3874035C789AF2EC0303543FFC789BF2020517BF05
:20043600092BC007C0061218E81211961200D7AC82D006D007789BE2FBBB03027B02C3EC7A
:200456009B50028B04789AECF2789BECF2BF0A097C007B0475380F80107C027B04BF08004C
:200476005007EFC313FCFA04FBBF0304C3E49EFEC3EC9B4003020517AA38E5396058EC24D9
:2004960098F9E3F53A7D04BC0200402C7403FDB53A26753A02BC0220C007C006C005C004CA
:2004B600C0031218E81211961200D785823AD003D004D005D006D0078E7D8D7E853A82C02E
:2004D60007C006C004C003120344AA82D003D004D006D0078021BA0F1E7A03EC700C9001DB
:2004F60043E0C4540FFD74035DFABC010A900143E0FD23235403FAEC2498F8EAF20C020434
:2005160086BF02028008BF03028003BF0A0E123519AC82AD83AEF0FF7881A6040200ECAF3B
:2005360082789CE230E1047896E4F2789CEFF2EFB401009206B39200EF701E20111B1200E3
:20055600AB90011474FFF0123519AC82AD83900139ECF0EDA3F00200960200ECAF82789C23
:20057600E220E13E8F82C007121196AE82D007EE0303543FFE5306037896E4F2BE01030421
:200596008001E4FD7003BE0219ED60067D067E00800C0FEF3395E0FCEF2FFDEC33FE7896CF
:2005B600EDF2AE3BE53CC313CE13CE747D2E7897F20200ECAE82AF837896E26011EFC31321
:2005D600CE13CEFF7897D3E29EF4FE30E701227896E214F27897E2FF7897747D2FF27896B4
:2005F600E2700A789CE230E104789CE4F20200EC1218B5123519AC82AD83AEF0FFC005C0E7
:20061600041229F2D004D0055038C005C004123519AA82AB83AEF0FFD004D005EAC39CFA96
:20063600EB9DFBC3EA9464EB94005016C005C004123519122A04123519121D6CD004D005CA
:2006560080BB7E137F017D00BD0300501F8E828F83E4F08E828F83A314F08E828F83A3A365
:20067600E4F074032EFEE43FFF0D80DC12009675E200C2AF75890090C35012355690C35011
:2006960012355612380080FEAF82BF030AA2B3B39207E433F58222BF050AA2B2B39207E43F
:2006B60033FE8013EF9035CA93FFE5905207EFB401009207E433FE8E8222A2B0E43325E090
:2006D600FFA2B1E4334FF58222AF82C00712069EAE82D007EF241CFCE43401FD8C828D839F
:2006F600E0FBEEB50302801C8C828D83EEF0EF75F002A4242AF582740135F0F583E53DF0E6
:20071600E53EA3F0EF2423FCE43401FD8C828D83E0FBEEB5030122EF75F002A4242AF58244
:20073600740135F0F583E0FAA3E0FBE53DC39AFAE53E9BFBC3EA940AEB9400405B8C828D07
:2007560083EEF030000E758200C007C006120535D006D00720110122EE6035BF031CC007EB
:200776001218E8121196E582D0079001385402F0900139E53DF0E53EA3F0C007121D66D08D
:20079600074012853D67853E688F8212191780058F82121B200200EC221206D0AF8278942B
:2007B600E2B507012230000A758200C007120535D0077894E225E025E04F9035DD93FE7855
:2007D60094EFF220110122EE70057895E4F2227895E22EF27895C3E26480948440127895B6
:2007F600E4F2121D664006758201121BC70200EC7895C3E2F5F0747C63F08095F0401278AF
:2008160095E4F2121D664006758200121BC70200EC22789CE230E104789CE4F2123519AC80
:2008360082AD83AEF0FF8C3F8D40EFC313CE13CD13F582121C2C900143E0C4540FFF740313
:200856005F7898F2900143E023235403FF7899EFF2789B7403F2789AF27F00EF24FC405041
:20087600EF241CFDE43401FEEF2423FBE43401FC8F82C007C006C005C004C00312069EAA8F
:2008960082D003D004D005D006D0078B828C83EAF08D828E83EAF0EF75F002A4242AF582E8
:2008B600740135F0F583E53FF0E540A3F00F80AB1206D0E5827894F220110B789CE2700516
:2008D600F582020535221218B57895E4F21218E8E5827880F6900138E4F07896F27881A6C8
:2008F6003FF5257F00BF03005009EF2482F876000F80F2900316E0600D853F3B85403C78FD
:200916008086820205720200EC1220B84390C24392C24393C243B00B740B459654EFF596FE
:2009360043971B1200AB12082812270E75820312069EE582600302060622123519AC82AD81
:2009560083AEF0FF8C028D038A828B83C007C006C005C004C003C002122A04D002D0038A1F
:20097600828B83C003C0021224DFD002D003D004D005D006D007301114EFC313CE13CD1361
:20099600F582C003C002121D50D002D0037F00EF24FC40188A3D8B3E8F82C007C003C0024E
:2009B6001206DFD002D003D0070F80E3C003C0021207AFD002D0038A077881EFC396FE7802
:2009D6009CE2600B900143E023235403FD80047899E2FDED9035D993FDC3EE9D5003020A8E
:2009F6007D789CE26013789CE2FE30E3068E057E00802D7D007E00802730111BC007C003A8
:200A1600C0021218E8121196AC82D002D003D0078C417542008005E4F541F542AD41AE4251
:200A36005305FC7E00C374F09D74808EF063F08095F050337881A60705257F037E00BE032C
:200A5600005019EF55257008EE2482F9E7FD04F78F05ED2DFD74014DFF0E80E2C003C00269
:200A76001200ECD002D003201130789CE2702A900139E0FEA3E0FFEAC39EFEEB9FFFC3EE1F
:200A960094F4EF94014012900139EAF0EBA3F0900114E064FFF0020096228A828B83C00351
:200AB600C002121D6C1218ECE582D002D0037015C003C0021218E8AF82D002D0037880E6D1
:200AD600B507028054C003C0021218E8AF82D002D0037880E6B507028026789CE230E104B4
:200AF600789CE4F2C003C0021218E8E5827880F61206D0E582D002D0037894F27895E4F235
:200B1600789CE220E1138A3B8B3C78808682C003C002120572D002D0038A828B83C003C0D9
:200B3600021205CAD002D003900138E06021900126E0601B900139E0FEA3E0FFEAC39EFA6C
:100B5600EB9FFBC3EA94B8EB940B40030206062214
:2035CA00028040201000010200020100152A6D04060A1200FF0100010000FFFF0000010017
:0835EA0001FF000F0D050400B4
:200B6600AF827E007D00C3ED9F500EE57EC39DFC1C8E03EC2BFE0D80EDE57D2EC39F14F5A0
:200B86008222AE82AF837CFF7DFF7B00BB06028036BB07028031EB2EF582E43FF583E0FAE4
:200BA600E4F96204EA62057A088D01530180EC2CFCED33FDE9600E8C008D0163002163012D
:200BC6001088048905DAE20BBB800040BF8C828D8322E582FF7002D3221F1F1F1FEF249EAA
:200BE6004002D322EF249C24F49208B322AE82AF83E5432EF582E43FF583E0FD740F5DFCFF
:200C0600EDC4540FFDAA437B000ABA00010BEA2EF582EB3FF583E0FBEC24F05003020DE631
:200C2600EC240A83F582EC241483F583E47378D8D8F7E6FEFE216262B5D0BA4242540D0C0E
:200C46000C0C0D0C0C0D0D0D0D0D0C0D0D0CBB80004013BB8005EDB401002274EF5B247FEB
:200C660024F79209B322EB24F25002C322BB0A05EDB4010022BB0D07ED14FABA040022BBB8
:200C86000B07ED24FB9209B322EB20E003BB0C0C8D015301077A00E94A24FF22BD0F02D383
:200CA60022BB04005007ED24FC9209B322ED24FD9209B322ED24FE9209400EEB24F9920960
:200CC600500BBBFA0092095004C2098002D209A20922E545600BBC0203D38001C3920940D2
:200CE600078B82120BD84004C2098002D209A209228B021ABA070022E545600BBC0503D3F6
:200D06008001C39209400BED70088B021ABA07004004C2098002D209A20922E545254525E4
:200D2600E0FA74034A5D700BBB8003D38001C392095004C2098002D209A20922AA4574029C
:200D4600C39AFAC3ED9A500BBB8003D38001C392095004C2098002D209A20922E5456003CB
:200D6600BC0806ED7007EB7004C2098002D209A20922ED7005EBB4010022BD0106C3EB95C0
:200D8600474002C322EB6022AA467C008B007900E82AFAE93CFC1ABAFF011CEA2EF582EC6A
:200DA6003FF583E06004C2098002D209A20922ED24FE9209400BC3EB95444009BBFF02803C
:200DC60004C2098002D209A20922ED700AC3EB95445004E5456004C2098002D209A209224F
:200DE600C322AE82AF83754E007401B548028002C322E54824FE403D8E828F83E0FCBC4D35
:200E0600348E828F83A3E0FCBC502A8E828F83A3A3E0FCBC091F8E828F83A3A3A3A3A3E068
:200E2600FCFA5302017B00A8487900EAB50006EBB501028002C3228E828F83A3A3A3E0FBE7
:200E4600FA74075A04F549EBC423541FF8530007790085494F8950C3E8954FE96480855044
:200E6600F063F08095F0400122E54924F85002C322ECC313FC743F5CF54AEB23235403FBB1
:200E86008E828F83A3A3A3A3E0F923540125E025E04203EB24FB5002C32253017FE5497547
:200EA600F00FA42409FDE435F0F8E54A75F003A47C002DFDEC38F8EB75F005A47A002DFDC4
:200EC600EA38F889027C00EA2DFDEC38FC8D008C02C3748098E49A5002C322EDC399FD75DD
:200EE6004B00C3E54B95495069E54B75F00FA42409FA754D00A84D7C00C3E89406EC648060
:200F06009480504AE54D254D8A042CF543A84D7C00C3E89404EC64809480B3920AE433F594
:200F2600458549448D4689478E828F83C007C006C005C003C002C001120BF3D001D002D074
:200F460003D005D006D007400122054D80A7054B8090E54975F00FA4FC2409F54C754D0058
:200F6600C3E54D954A4003020FF4E54C2EF582E43FF583E0F8C4540FFA5302077C00C3EA60
:200F8600954FEC64808550F063F08095F05051880253020F7C00C3EA9403EC6480948050F7
:200FA6003FE54D6006C3E54E985035E54CFC04F5438549447545008D4689478E828F83C087
:200FC60007C006C005C004C003C001C000120BF3D000D001D003D004D005D006D007400255
:200FE600C322884E74032CF54C054D020F667C00C3EC9B5073E54CFA04F5438549447545C7
:20100600018D4689478E828F83C007C006C005C004C003C002C001120BF3D001D002D00322
:20102600D004D005D006D00740012274032AF5438549447545018D4689478E828F83C007BF
:20104600C006C005C004C003C002C001120BF3D001D002D003D004D005D006D007400122B6
:201066000C74052AF54C8088E960228D037C0089007A00E82BFBEA3CFC1BBBFF011CEB2EBD
:20108600FBEC3FFC8B828C83E06002C322754D00C3E54D99400302111F8D027B00854D4FF5
:2010A6008B50E54F2AF8E5503BFCE82EF8EC3FFC88828C83E0605DE54F2AF8E5503BFCE8F8
:2010C6002EF582EC3FF583E0FCBC09028046E54F2AF8E5503BFCE82EF582EC3FF583E0FC8B
:2010E600BC0A02802FE54F2AF8E5503BFCE82EF582EC3FF583E0FCBC20004016E54F2AFA1B
:20110600E5503BFBEA2EF582EB3FF583E0FC24815002C322054D0210968E828F83C007C0D2
:2011260006120B88AC82AD83D006D00774062EF582E43FF583E0FB8C02B5021274072EF569
:2011460082E43FF583E0FF8D04B504028004C20A8002D20AA20A2290013EE0FF74075F0439
:20116600F5822290013EE0C423541FFF74075FF5822275820322900143E0FF740F5F75F03F
:2011860005A4F58222E58275F00FA42409F58222E58204F58212118BAF827E001FBFFF01A5
:2011A6001EEF243BF582EE3401F583E0F58222AF82C007121178AE82C00612115DAD82D02A
:2011C60006D007C3EF9D5006C3E5519E4004758206228F82C00612118BAF82D006E4FDFC24
:2011E60074032EFEE43CFCEE2EFEEC33FCEE2FFFEC3DFDE551C3137C002FFFEC3DFDEF24C4
:201206003BF582ED3401F583E0FFE55130E009EFC4540FFD7E0080087C00740F5FFD7E005C
:201226008D8222AF82C00712115DAE82D007C3EF9E5025C007121178AE82D0077D007403D6
:201246002EFEE43DFDAB527C00C3EB9EEC64808DF063F08095F0400BE553F87600E554F8B2
:201266007600228F8212118BAF82E55225522FFEA953243BF582E43401F583E0F7A9547F4F
:20128600000EBE00010FEE243BF582EF3401F583E0F722AF82C007121178AE82900140E09F
:2012A600C313FD743F5DF559C00612115D12118BAC82D006D007E556B555028022C3E55542
:2012C6009E501CC3E5569E5016C007C006C00412115DAB82D004D006D007C3EF9B4002C32B
:2012E60022C3E55695555007AB558556558B56EFC454F0FF85567D8E7E855582C007C00435
:20130600120B66AE82D004D007EE4207755A00C3E55A95595062EC243BF582E43401F5836E
:20132600E0FBB50702801753038F7A008F0553050F7E00430580EBB50534EAB50630A95729
:201346008C057E0074012DFAE43EFBEA243BF582EB3401F583E0F7A95874022DFDE43EFECF
:20136600ED243BF582EE3401F583E0F7D322055A8C0674032EFC8097C32290013EE02323BA
:201386005403FF90013FE023540125E025E04FF5822212115D12118BAF82900140E0C313F1
:2013A600FE743F5E75F003A42FF58222AF829001BBE02FFEC39F401D90013FE0FF53077F73
:2013C6007D008E047E00C3EC9FEE64808DF063F08095F0400475820022C006C004121398E1
:2013E600AF82D004D006C007C006C004121380AD82D004D006D007ED75F005A42FFD7F00C0
:14140600EC2DFCEE3FFEEC243BF582EE3401F583E0F58222BC
:2035F200FF0000FF1607FF1000FF4200FF7C003CFF0064C8141D7B4300FFC8005BFF00005C
:10361200FF7300B4FF00C2FF0048FFFFFF0000007D
:20141A00AF827408B55B02800FE57E30E02FAE5BC3EE648094814025E57E30E01078EDE2E0
:20143A00B4FF02801678EDE22401F2800E78ECE2B4FF02800678ECE22401F2C32278EAE254
:20145A0025E024DAF9EFF378EAE225E024DA04F9E57DF378EAE20478EA5407F2055BD322AF
:20147A007F007E00EE24B9F9E3FD42070EBE0D0040F27E00EE24ABF9E36014EE249DF9E347
:20149A00FD53050FBD0508EE24A4F9E3FD42070EBE070040DFE562600578F2E242078F82E8
:2014BA0022AF82C00712147AAE82D007BF0D09E563FC3395E0FD80047C007D00BF0E09E55B
:2014DA0063FD3395E0FF80047D007F008D1A8C19751B008E82022979E582FF7002D3227E90
:2014FA0002EE24BCFCE43401FD8C828D83E0FBB50702D322EB70088C828D83EFF0D3220EE1
:20151A00BE080040DC227F007E00EE24BCF582E43401F583E4F00EBE080040EE7E00EE2474
:20153A00ABF9E3602FEE249DF9E3FD740F5DFCBC02229001BCE0FCEDC4540F42049001BC67
:20155A00ECF0EE24A4F9E3F582C007C0061214F2D006D0070EBE070040C478F37401F2E5AC
:20157A0062603378F0E2540FFEBE012A78F1E2F582C0071214F2D007920BE433FE78F3F241
:20159A00EE60139001BCE0FE78F0E2C4540FFD42069001BCEEF07E00EE24BCF582E43401E8
:2015BA00F583E0FDEE24C6F9E3FCEDB5040280027F010EBE080040E0EF60229001BC122876
:2015DA00FA4001227F00EF24C6F9EF24BCF582E43401F583E0FEF30FBF080040E912147AFC
:2015FA00AF827885E6B507028019751900751A00751B008F82C007122979D007400122787B
:20161A0085A607788AE6602B788AE6C4540FFE7F00788B86047D00EC4FF582ED4EF58312FE
:20163A0029E1400122788A7600788CE6700578FB7401F2D322AF82AE5C74F725665004AE4A
:20165A005E801874FFB55F028011855F5C755FFFC007C0061217A0D006D007740F5FFDFC6F
:20167A0024F05003021768EC240A83F582EC241483F583E473BB68736868730568CACA3BC9
:20169A00FF116868AF16171717171717171616171617171716EFC4540FF538856482020383
:2016BA0061EF70012285647D85657E8F8202141A788AA607E564788BF6EF30E00678FBE4D1
:2016DA00F2800A788CE6600578FB7401F2EF30E00BAD660DEDFC3395E0FD80047C007D0016
:2016FA00788CA6042278EE7401F222E56624B9F9E3FDE5646DF322C007C00612115DAD8209
:20171A00D006D007E5642EFE8D04ECC40354F8FC2EF564C3E5649D4008E564C39DF5648007
:20173A00F274FFB56403855D6478EE7401F2EF30E405855C5F801374FFB55F04AE5C800209
:20175A00AE5FEEB5640280028E5D85645C2285647D85657E8F8202141A2278D5E270012292
:20177A0078D5E2FF1F78D5E4F2EF24ABF87401F2EF249DF9E3F582EF24A4F9E3F5647565F9
:20179A00008F6602164FAF5C7E007D00ED24ABF9E3601EED249DF9E3FC53040FBC0B12ED05
:2017BA0024B2F9E3FCC39E40088C06ED24A4F9E3FF0DBD070040D5EFB55E01228F5E7F001F
:2017DA00EF24B9F8E4F20FBF0D0040F4755B0078EAE4F278EBF2788CE67013788AE670051F
:2017FA0078FBE26009788A760078FB7401F275600075610075620078F2E4F2121774021747
:20181A00A012116985825C855C5D855C5E78EEE4F2755FFF78D5F278CEF278ECF278EDF26F
:20183A007F00EF24CFF8E4F20FBF060040F478EAE4F278EBF2F55BF560F56178FBF2788A68
:20185A007600788C760078FEF2788D7600F56278F2F27885760012284BE58278D9F27F00C7
:20187A00EF24ABF8E4F2EF24B2F8EFF2EF249DF8E4F2EF24A4F8E4F20FBF070040E27F00AB
:20189A00EF24B9F8E4F20FBF0D0040F47F00EF24C6F8E4F20FBF080040F42212285212187D
:2018BA001B78C674FFF2788576FF9000001229E1B3920C78FBA20CE433F2021520E58260B9
:2018DA000678EDE2FF800478ECE2FF8F8222855E822278EEE2F58278EEE4F222E58224B2C5
:2018FA00F9E3FF7E00EE24B2F8E2FDC3EF9D5003ED14F20EBE070040EC7406F32285826947
:20191A0012117885826DC3E56D956940238569F005F07C017D008006EC2CFCED33FDD5F0DF
:20193A00F778CEE2FA7B005204EB5205EC4D600122AD698DF005F07401800225E0D5F0FB61
:20195A00FC78CEE24CF2C3E569956DE433FC6009E56924CFF9E360012278D5E27003021A1E
:20197A0047EC700874FFB55F03021A4778D5E2FB14F56CEC7003021A3978D7D3E29567F46E
:20199A00B3FAB308E29568F4FEC006C005C004C00212117CAB82D002D004D005D0067F0047
:2019BA00C3EA9BEE9F507875576A75586B856C5585695678D6E2F582C005C004121299D0BB
:2019DA0004D005505A78D5E4F2E56C24CFF9ED04F3E56924CFF9E56C04F3E56C249DF8E5B5
:2019FA006AF2E56C24A4F8E56BF2E569249DF8E4F2E56924A4F8E4F2E56924ABF8E4F2E58D
:201A1A006C24ABF87401F2856C821218F6856B64756500856C66856A8212164F0217A0C099
:201A3A0005C0041217741217A0D004D00575536A75546B856952855E82C005C004121229D3
:201A5A00E569249DF9E56AF3E56924A4F8E56BF2856982C001C0001218F6D000D001D0044C
:201A7A00D005EC6057C005C001C00012117CE582D000D001D00560447F00C3EF956D503CAF
:201A9A0075576A75586B8569558F56855E82C007C005C001C000121299D000D001D005D021
:201ABA0007501678D5ED04F2E55E78D6F2AC67AE6878D7ECF2EE08F2220F80BEE56924AB22
:201ADA00C000F87401F2D000E3F582E2F56475650085696612164F0217A0E582FF249DF9EA
:201AFA00E3FE53060FEF24ABF9E36019BE02028008BE05028003BE09067E027F0080047E10
:201B1A00007F00EEF322AF82C007121178AE82D007C3EE9F5001228F068EF005F0740180CF
:201B3A000225E0D5F0FBFE78FAF278CEE25E700122EEF4FE78CEE25EF28F057E000DBD0015
:201B5A00010E78D5E27C00B5050EECB5060AC0071217741217A0D0078F82C007121AF4122A
:201B7A001178AE82D007C3EF9E503FEF24CFF9E3FF60371F8F82C007C001121AF4D001D00F
:201B9A00078FF005F07D017E008006ED2DFDEE33FED5F0F778CEE2FB7C005205EC5206ED15
:201BBA004E7007F3EF24CFF8E4F20217A0AF82C007121178AE82D007EF60067C017D008081
:201BDA00047C027D00EC2EFE78D5E2601574FFB55F02800EC007C0061217741217A0D00650
:201BFA00D00775536E75546F8E52855E82C007121229D007EF60067E077F0080047E087F74
:201C1A00008E66856F64756501856E8212164F0217A0AF8278F9EFF27F00BF0400500FEFCB
:201C3A0024F5F8E4F2EF2486F876000F80EC22AF82C007121398AE82D007C20D757000C0CF
:201C5A0007C006121380AC82D006D007C3E5709C4003021D4DE57024F5F9E3F5717B00EFA0
:201C7A00604BE5702486F98702EF2AFAF7C3EA9F4003021D42C003EE243BF582E43401F58F
:201C9A0083E0FA53023F78FAEAF2AC7153047FE4FDFBECB50206EDB503028004D0038009EC
:201CBA00D0037571807B01803805718034E57130E7137B03EE243BF582E43401F583E0FD43
:201CDA0030E602D20D53717FEE243BF582E43401F583E0FD30E70A757100E5702486F8760A
:201CFA0000E57024F5F8E571F2EB603CEE2BFB243BF582E43401F583E0FD7C000BBB0001FA
:201D1A000CEB243BF582EC3401F583E0F564AC7074092CF5667565008D82C007C00612164C
:201D3A004F1217A0D006D00705708E0574052DFE021C59A20D22AF8278F9D3E29FF4FE7870
:201D5A00F9EFF2EE60058E82021C4922758200021C4985827285837378D5E2602C78D7D374
:201D7A00E29572F4B3FCB308E29573F4FDC005C00412117CAB82D004D0057A00C3EC9BED78
:201D9A009A40061217741217A012284BAD8278D9E2B50502802B12284BE58278D9F278C628
:201DBA0074FFF2788576FF788CE66015788C86051DED249DF9788AE3F6ED24A4F9788BE311
:201DDA00F678FBE2600F9000001229E1500678FBE4F2800122121520400122E560701BE5E2
:201DFA005B70171229F2920E4010AD7278FED3E29DF4FDBD0800920E5004C20E8002D20E07
:201E1A00A20EE433FD600578FEE572F27C00EC24ABF9E3FBBB0246EC249DF9E3FA53020FC8
:201E3A00BA0220EC24A4F9E3FA60187F02EF24C6F9E3FEB5020280060FBF080040EFBF086B
:201E5A000280708C070F788CE6B50709788C760078FB7401F2EC24ABF8E4F28056ED6053D2
:201E7A00EB6050EC249DF9E3FF24E324FE4019740F5FF582EC24A4F9E3F563C005C00412C7
:201E9A0014BBD004D005802B747F5FFEBE4724AE72788DEEC396FEBE64004017EC24A4F9FC
:201EBA00E3F57D757E008F82C005C00412141AD004D0050CBC07005003021E28121520404C
:201EDA000122E5607027E55B602378EBE225E024DAF9E3F5600978EFE3F278EBE2FF0478A8
:201EFA00EB5407F2155B75610078F4E4F2E560700122E560540FFFE5616003022014C007E3
:201F1A001229F2D007500122BF075C78EFE2FE7003F56022C00612147AAD82D006E56054D9
:201F3A00804205EE33E433FC60067AFF7BFF80047A017B008A1B751900751A008D82C00622
:201F5A00C004122979D004D006400122EC6005EE04FD8003EE14FD78EFEDF2ED60012278F2
:201F7A008DA67275600022BF0D028003BF0E1678EFE2F5638F821214BB40012278FEE572B4
:201F9A00F275600022E56078F0F278EFE2FE78F1F278F2E4F2EF703778F49001BBE2F08E0F
:201FBA00821213B2E582FD7003F560228D82122BBCE582FD30E7067B207C0080047B007C45
:201FDA000078F074014BF278F1747F5DF28007BF0304EE78F2F2756201121520500578F3AC
:201FFA00E2700122AD72AE7374082DFDE43EFE78FCEDF2EE08F2756101227401B5612378F2
:20201A00FCD3E29572F408E29573F430E701221229F25001227562001215204001227561E3
:20203A0002227402B56140C0071229F2D007500122EF700A78F4E22401F275610022BF03D0
:20205A0022E56054F0601CE56024F0F560AE72AF7374C82EFEE43FFF78FCEEF2EF08F27513
:20207A00610322756000227403B5613078FCD3E29572F4B3FEB308E29573F4FF20E71D7506
:1D209A0062011215205015AE72AF7374082EFEE43FFF78FCEEF2EF08F275610122D8
:2020B8007F00EF243BFDE43401FE8F82C007C006C0051225C0AC82D005D006D0078D828E80
:2020D80083ECF00FBF800040D975480190013B120DE892109211900284E4F0900285F0C299
:2020F8000F22D20F22AE82AF83900284E07003300F02C3227D00ED24C4FBE43401FCED2E26
:20211800F582E43FF583E08B828C83F00DBD200040E49002847401F0D3229001C8E0FF9063
:2021380001CAE0F5109001CBE0F5119001C4E0FCBC03169001C5E0FCBC550E9001C6E0FC0B
:20215800BC4D069001CCE06004758204229001C7E0FCBC0102800475820122E51124E850B7
:202178000475820322BF05028003BF0606AB117C0080047B007C0074092BFCBC200050167A
:20219800EC24C4FAE43401FB8A828B83E06004758204220C80E5E4BF030104FC7008BF0477
:2021B800028003BF061EE5116016AA117B00A8107900EA28F8EB39F9C3748098E499503158
:2021D80075820322E5106003BF0922BF05117403B51103D38001C3B39212E433FB800BE584
:2021F80011B40100B39212E433FBEB600475820322EF24F650030224D7EF240A83F582EFCE
:20221800240E83F583E473D73361BEBE235617D0B1242222222223232424249001EB740ECE
:20223800F07F008F0374092BFB3395E0FAEB24E4FBEA3401FAEF90362293F98B828A83F0CC
:202258000FBF0E0040DD0224DB9001EB7406F0A210E4339001EDF03011091218E8AB827F47
:202278000080047B007F009001EEEBF0301109121169AB827F0080047B007F009001EFEB03
:20229800F0900285E09001F0F07582001218D7AF829001F1EFF07582011218D7AF82900189
:2022B800F2EFF00224DB9001EBE511F0751200C3E512951140030224DBAB1274092BFB3314
:2022D80095E0FAEB24E4FBEA3401FAEC6019E5122510F582C004C003C0021225C0A982D02D
:2022F80002D003D004801AA8107F00AD127E00ED28F8EE3FFFE8243BF582EF3401F583E09C
:20231800F98B828A83E9F0051280A49001CDE0FFBF80028004758203229001CEE0FF900191
:20233800CFE0FD7E007C00900287EE4FF0ED4CA3F0900286E4F090028504F00224DB900243
:2023580085E0FFBF0102800475820522900286E0FFB510028063AD117E00AB107C00ED2B71
:20237800FBEE3CFC7E00C3EF9BEE9C500475820A227F00C3EF951140030224DBAD107E0002
:202398008F037C00EB2DFDEC3EFEED2404F582EE3402F583E0FE8F0574092DFD3395E0FCF5
:2023B800ED24C4F582EC3401F583E0FDEEB50502800475820A220F80BA7F00C3EF95115082
:2023D80034AD107E008F037C00EB2DFDEC3EFEED2404FDEE3402FE8F0474092CFC3395E017
:2023F800FBEC24C4F582EB3401F583E0FC8D828E83F00F80C6900286E02511F00224DB90F7
:202418000285E0FFBF02030224DBBF010A900286E0FFBF8002800475820522900204120B22
:2024380088AE82AF83900287E0FCA3E0FDEEB5041AEFB5051690020AE0FD8E04B5040C9045
:20245800020BE0FD8F06B50602800475820722754801900204120DE8400475820622900234
:202478000412262E92104004758209227F00EF243BFDE43401FEEF2404F582E43402F583D1
:20249800E08D828E83F00FBF800040E2D2111208289002857402F0802AE5106013AE1053FF
:2024B80006067F00BE0405BF0002800475820322851082120535800B900285E4F08004757F
:2024D80082022275820022AE82AF83300F11900285E4F0900284F0120828C20F0227D090E6
:2024F8000285E0601D900289E0FCA3E0FDEEC39CFCEF9DFDC3EC9488ED94134005900285DC
:20251800E4F0900284E0700122900284E0FDBD010280030225AC7D00ED24E4F582E434013B
:20253800F583E4F00DBD200040EE9001E47404F09001E57455F09001E6744DF09001E774FF
:2025580001F07D04ED24E4FBE43401FCED24C4F582E43401F583E08B828C83F00DBD070052
:2025780040E2C007C006122132AD82D006D0079001ECEDF0ED70179001C8E0FDBD0500404D
:202598000DED24F74008900289EEF0EFA3F09002847402F0200F109001E412276350089097
:0825B8000284E4F00227D022A6
:0E362200554D41430109010303078003EFFFEB
:2025C0000234F0AF82C0071225C0AE82D007EEB513028019A2AF9213C2AF900317E513F095
:2025E0008F82C0071234BAD007A21392AF8F821225C0E582B51302D322C322AE82AF837D44
:20260000008D82C007C006C0051225C0AC82D005D006D007ED2EF582E43FF583E0FBECB509
:2026200003028002C3220DBD800040D5D322AE82AF83C007C0061225FBD006D0075002D3E7
:2026400022751300758200C007C0061225C3D006D0075013751300758201C007C0061225FE
:20266000C3D006D0074002C3227D02ED2EF582E43FF583E0F5138D82C007C006C005122597
:20268000C3D005D006D0074001220DBD800040DB751350758201C007C0061225C3D006D030
:1F26A00007501375134D758200C007C0061225C3D006D0074002C3228E828F830225FB46
:04000000020049327F
:03000B00023500BB
:0100130032BA
:01001B0032B2
:0100230032AA
:01002B0032A2
:01003300329A
:01003B003292
:030043000226C0D2
:0E0080007808E4F608F608F608F6780C760024
:0300920002004623
:030046000226FF90
:2026C000C024C0E0C0F0C082C083C007C006C005C004C003C002C001C000C0D075D000123E
:2026E00033C2D0D0D000D001D002D003D004D005D006D007D083D082D0F0D0E0D02432125C
:0E270000359112091F12095080FB75820022CC
:20270E0012345212347C12346B75DD0075D3002275D30074FC55D24402F5D2C2142230DEF2
:20272E00337402B5DB1190000AE0FFBF010990000BE090028BF0227420B5DB1890000AE09F
:20274E00FFBF031090000A1220FD500874F355D24408F5D222D310AF01C3C0D0AE82AF836E
:20276E00D215900316E060192014169002DEE0600330160DACD25304037D00BC0306BD003B
:20278E0003C380377D008D037C0074402BFBE43CFCEB240AFBEC3400FCED2EF582E43FF555
:2027AE0083E0FA8B828C83F00DBD200040D8C215C21675D320D21453D2FCD333D0D092AF9B
:2027CE001322D310AF01C3C0D0AED253060C7F00BE0C05BF0002800353D2F3D0D092AF223E
:2027EE00E58290028BF0229002E0E4F09002E1F09002E2F09002E3F09002E4F09002E9F0F2
:20280E00A3F09002E7F0A3F09002E5F0A3F07F00EF24EBF582E43402F583E4F00FBF0800F1
:20282E0040EE9002F3E4F09002F4F0A3F0C2149002DFE02401F0C215C2160228529002DF22
:20284E00E0F58222D310AF01C3C0D09002DEE4F09002DCF09002DDF0D0D092AF22AF829046
:20286E0002DCE024D4F582E43402F583EFF09002DCE0FF0F74075FF09002DEE02401F0D34E
:20288E00228582148583159002DEE0FDBD08028006900316E07002C3229002DCE075F0099A
:2028AE00A4248CFC740235F0FD8C828D837401F00CBC00010D7B00EB2514F9E43515FA8980
:2028CE00828A83E08C828D83F0A3AC82AD83EB24EBF8E43402FF89828A83E088828F83F05D
:2028EE000BBB080040D175820902286BD310AF01C3C0D012288F33D0D092AF1322AF82909D
:20290E0002DEE0FEBE08028006900316E07002C32274075FFE9002F3F0EF30E70CE518035E
:20292E000354C0FD4EFF7518009002DCE075F009A4248CFD740235F0FE8D828E837402F06F
:20294E008D828E83A3EFF08D828E83A3A3E516F08D828E83A3A3A3E517F08D828E83A3A31B
:20296E00A3A3E518F075820502286BD310AF01C3C0D0851916851A17851B1812290B33D034
:20298E00D092AF1322AE82AF839002DEE0FDBD08028006900316E07002C3229002F4EEF0A3
:2029AE00EFA3F09002DCE075F009A4248CFC740235F0FD8C828D837405F08C828D83A38E0D
:2029CE0003EBF08C828D83A3A38F06EEF075820302286BD310AF01C3C0D012299333D0D01E
:2029EE0092AF13229002DEE07007201404C2178002D217A21722D310AF01C3C0D0AE82AF70
:202A0E00839002DEE06003022AF99002E4E0FD0D751C00BD01079002E0E0FB8011BD0207F3
:202A2E009002E2E0FA80059002E3E0FA8A03BD010A9002E5E0F9A3E0FA8019BD020A900250
:202A4E00E7E0F8A3E0FC80089002E9E0F8A3E0FC88018C028904EB7003022AE6EEC39CFC73
:202A6E00EF9AFA8B017B00E929F9EB33FBE929F9EB33FBC3EC99EA9B405EBD03067B007C4E
:202A8E000080048D037C009002E4EBF0BD01109002EBC007C00612288FD006D007804CBD70
:202AAE00021D9002F3E0FC7516007517007518008C82C007C00612290BD006D007802C901A
:202ACE0002F4E0FBA3E0FC8B828C83C007C006122993D006D00780130DED24FC50027D01F7
:202AEE00051C74FD251C4003022A21900316E0601C2014199002DEE0601330150320160DC5
:202B0E00ACD25304037D00BC0306BD0003022BB79002DDE0FD75F009A4248CFB740235F045
:202B2E00FC8B828C83E0F51DED24D4F582E43402F583E0F51E7900C3E9951E502789007A4A
:202B4E0000744028F8E43AFAE8240AF8EA3400FA8B828C83E0FDA3AB82AC8388828A83ED59
:202B6E00F00980D37401B51D0A9002E5EEF0EFA3F0801C7402B51D0A9002E7EEF0EFA3F00C
:202B8E00800D7405B51D089002E9EEF0EFA3F0D216851ED39002DDE0FF0F74075FF0900255
:202BAE00DEE014F0D21453D2FCD0D092AF22AF82BF8000400475820022EF90363093F5827F
:202BCE0022E582FF7017AE7D9002E1EEF09002E3EEF09002E2EEF09002E0EEF022BF01077E
:202BEE009002E0E57DF022BF02079002E2E57DF022BF05069002E3E57DF022E582FF7007A1
:202C0E009002E1E0F58222BF01079002E0E0F58222BF02079002E2E0F58222BF05079002F6
:202C2E00E3E0F5822275820022AF82AD7EAE7F8D828E83EFF0BF0143E57D601474012DFB13
:202C4E00E43EFC90028BE08B828C83F0758202227C008C027B000ABA00010BEA2DFAEB3E95
:202C6E00FBEC24EBF582E43402F583E08A828B83F00CBC080040DB75820922E57D7039BF86
:202C8E00023674012DFBE43EFC9002F3E08B828C83F074022DFBE43EFC74032DF9E43EFA4D
:202CAE008D828E83A3A3A3A3E4F089828A83F08B828C83F075820522E57D702FBF052C74EF
:202CCE00012DFCE43EFF9002F4E0FAA3E08C828F83EAF074022DFDE43EFE9002F4E0A3E015
:0F2CEE00FC8D828E83ECF07582032275820022AA
:2036300000000000000000002A2B28000000000000000000000000000000000000000000FD
:203650002C9EB4A0A1A2A434A6A7A5AE362D3738271E1F20212223242526B333B62EB7B81D
:203670009F8485868788898A8B8C8D8E8F909192939495969798999A9B9C9D2F3130A3AD0E
:20369000350405060708090A0B0C0D0E0F101112131415161718191A1B1C1DAFB1B0B50073
:2036B000120110010000000809125DC500010102030105010906A1018501050719E029E737
:2036D00015002501950875018102950175088103950626FF00190029E781000508190129B8
:2036F0000515002501950575019102950175039103C005010902A1010901A1008502050982
:203710001901290325019503750181029501750381030B38020C0015FF7502810605010998
:2037300030093109381581257F750895038106C0C00600FF0901A10185030902150026FFFA
:20375000007508951F910285040903951F8102C0050C0901A1018505150026FF0F19002A36
:20377000FF0F751095018100C0090229000101008064090400000203000000092110010068
:203790000122B7000705810320000A0705010320000A040309041C03430048003500350023
:2037B000780020006B006200640020006D006F007300260355006E0069007600650072001F
:2037D000730061006C0020004D006100630072006F007000610064000E0344006500710027
:0637F00069006E00670095
:03008E00757C007E
:202CFE00AE74AF75C3EE9408EF9400921840067C087D008004AC74AD757D00C3ED9C502CA4
:202D1E008D027B00E57B600A857982857A83E0F98009857982857A83E493F98A828B83E9E8
:202D3E00F00579E4B57902057A0D80CF8C037D00EEC39BFEEF9DFF8E748F758C8222AFDB77
:202D5E007D007E008E778E7BBF0802800302325F900007E0FC7F00900006E0FB7A004FF54C
:202D7E0074EA4CF5757F00900001E0F5768F7C900000E0FC54607003022F39900000E0FC52
:202D9E005304607B00BC2005BB00028010BC4005BB00028003022F347FFF02326190000468
:202DBE00E07006900005E060057FFF0232617409B5763F900000E0FCBC2137900003E0FCDC
:202DDE00BC022F900002E0FCBC030CAB74AC75BB2005BC00028012900002E0FCBC0113AB56
:202DFE0074AC75BB020CBC0009857477757800023261740AB57655900000E0FCBC214DE527
:202E1E007445757047900002E0601C900002E0FCBC01028012900002E0FCBC0202800890BC
:202E3E000002E0FCBC0525900316E0601F900002E0FC900003E0F57D8C82C007C006C005F5
:202E5E00122BCFD005D006D0070232617402B5765D900000E0FCBCA155900002E0601C9097
:202E7E000002E0FCBC01028012900002E0FCBC02028008900002E0FCBC0533900003E0700A
:202E9E002DAB74AC75BB0126BC0023900316E0601D900002E0F582C006C005122C09AC82F7
:202EBE00D005D006900000ECF07F010232617401B5765E900000E0FCBCA156900003E0FC3C
:202EDE00BC01028008900003E0FCBC0244900316E0603E900002E0FC900003E0FBE4BB0278
:202EFE000104F57D757EF6757F028C82C007122C37AC82D0078C057E00ED4E600F7579F672
:202F1E00757A02757B017576060232617FFF0232617FFF0232617FFF023261E57624F4502F
:202F3E000302325BE576240B83F582E576241083F583E473AF2D5B2D5B276A5B34519D9D12
:202F5E003131323132302F3230303030900003E0FCBC01028017BC0202801FBC030280277F
:202F7E00BC21028074BC2202807C0230227579B0757A367D127E00023261757979757A373E
:202F9E007D297E00023261900002E070087579A2757A378035900002E0FCBC01087579E8FC
:202FBE00757A378025900002E0FCBC02087579C2757A378015900002E0FCBC03087579A6C0
:202FDE00757A3780057FFF023261857982857A83E493FCFD7E0002326175798B757A377D74
:202FFE00097E00023261900002E070137579C2757A36903792E493FDA3E493FE0232617FD4
:20301E00FF0232617FFF023261900002E0FC8C74757500023261900316E0900000F0AB74D6
:20303E00AC75C3EB9401EC940050030232617F01023261900000E07021900003E0701B9002
:20305E000002E0FC24FE4012900004E0700C900005E07006E574457560057FFF023261900A
:20307E000002E0900316F0C007C006C0051227F51220FAD005D006D00775D212023261900B
:20309E000004E07075900005E0706F900002E07069900003E07063900316E0605D740AB5EB
:2030BE00760474018001E4FC602C900000E0FBBB8103D38001C392195013AA74AB75BA014E
:2030DE0006BB0003D38001C39219101902D219A219E433FB8021900000E0FABA0103D3804D
:2030FE0001C39219500AE57445757004C2198002D219A219E433FBEB60057FFF023261ECFE
:20311E007003023261900000E4F07F01023261900000E0FCBC0218900002E0701290000347
:20313E00E0700C900005E07006E574457560057FFF023261900004E0FCBC812D7403B57623
:20315E000B74FC55D24403F5D202326174BC55D24402F5D2C007C006C0051227F51220FAFC
:20317E00D005D006D007023261900004E0FCBC011B747355D2FC7403B576067A0C7B00809F
:20319E00047A007B00EA4CF5D20232617FFF023261900004E0FD7E00900000E0FCBC824C8E
:2031BE008D038E04BB8117BC0014A9D2530103E4FAB90304BA000104F9FD7E008048BB0185
:2031DE0017BC0014A9D253010CE4FAB90C04BA000104F9FD7E00802EED4E6006BB8009BCE6
:2031FE0000067D007E00801E7FFF8057900000E0FCBC80028008900000E0FCBC8104ED4EA3
:20321E0060047FFF803D900005E0700C900002E07006900003E060047FFF80278D049000FB
:20323E0000ECF0900001E4F0AB74AC75C3EB9402EC940040047F02800AAF7480067FFF8035
:20325E00027FFFBFFF0280177406B57612C3ED9574EE957550048D748E75122CFEAF82BF8D
:20327E00FF077576FF75DCCF22EF24F740168FDDE57760067E027F0080047E007F0074C0BC
:20329E004EF5DC2275DD00E57760067E027F0080047E007F0074C04EF5DC227405B5760220
:2032BE00800F7406B57618122CFE8582DD63DC4022E5E35480FFE5744FF5E375DC022275DE
:2032DE00DD0075DC022220DE01227409B5760280030233B0E57770030233B0E5DB24F7506C
:2032FE00030233B0AE787F00ACDB7D00EC2EFEED3FFFAC777D00C3EC9EED64808FF063F04C
:20331E008095F050030233B07F00C3EF95DB5019EF257824F6FDE43402FE8F82758300E0A4
:20333E00FC8D828E83F00F80E1E5DB2578F578E577B578457420B5771A9002F6E0FFBF0358
:20335E00129002F61220FD500A74F355D24408F5D2801C7402B577139002F6E0FFBF010B08
:20337E009002F7E0F5821227EE800475DCCF2275770075DD0075DC482274F825DB40077541
:20339E0076FF75DC0F2263DC8074F055DC4402F5DC2275DD00E57760077576FF75DC0F220A
:2033BE0075DC022220D903023428E5D9540F6002802CAED95306307F00BE0005BF0002805E
:2033DE0013BE2005BF00028010BE303CBF0039122D5C80341232E4802F1232B9802AAED912
:2033FE0053060F7F00BE0120BF001DE5D954306002800512272C8010AED95306307F00BEA2
:20341E002006BF000312271EC2D930D81A1220FA1227F575DC0275D21275E300C2DAC2D9FD
:20343E00C2D8900316E4F010DA0122E5DA20E20375D8FF2275E20053E27F43E22975E30067
:20345E0053E2BF53D1FB75D18043D1012243E10443E10243E10143D81FD2EAD2AF227E00B4
:18347E007F008EEC8FED7E0A7F008EEE8FEF75D21275EAC075DC0222D3
:20349600ABF0A2AFE433FEC2AFE0A37A0833D2B44002C2B47905D9FEC2B4DAF1DBEBEE6084
:0434B60002D2AF226D
:2034BA00AF82BF800040012275A15575A1AA43B10475A1007585C0EF2FF584900317E0F516
:2034DA008EE58630E60375869A75A15575A1AA53B1FB75A10022AF827585C0EF2FF58475D2
:0634FA00868E858E822201
:06005600E478FFF6D8FD7E
:20350000C0D075D00808B8000D09B900090ABA00050BBB00010CD0D032A2AFC2AFA808A9AD
:2035200009AA0AAB0BAC0C92AF75F020E8A4A8F075F020E9A428F582A8F075F020EAA428F2
:20354000F583A8F075F020EBA428F9A8F075F020ECA42889F022AE82AF83C374019EE49FFB
:2035600040022200C374029EFE74009FFF00BE0005BF00020022000000000000000000005A
:20358000000000000000000EBE00EB0FBF00ED002275A15575A1AA74F855B94406F5B97585
:2035A000A100901388123556759E5D759D0074F055894402F58953C9EF758C06C28DD2A93E
:0535C000D28CD2AF2205
:20005C00786BE84400600A799475A000E4F309D8FC7805E84402600C7903900113E4F0A387
:04007C00D8FCD9FAD9
:0D00490075818D1235C6E582600302004608
:0435C60075820022E8
:00000001FF
